S01100006F742D636C692D6674642E73333730
S315080060000818002065810108FD1204085B240108B0
S31508006010E9610008051304080D1304085B24010848
S315080060205B2401085B2401085B2401085B24010842
S3150800603011130408E8B504085B2401085B24010869
S31508006040DD4901085B2401085B2401085B2401087B
S315080060505B2401085B2401085B2401085B24010812
S315080060605B2401085B2401085B2401085924010804
S31508006070572401085B2401085B2401085B240108F6
S315080060805B2401085B2401085B2401085B240108E2
S315080060905B240108012501085B2401085B2401082B
S315080060A05B240108DD240108B92401085B240108E2
S315080060B05B2401085D7704080982040833990408FB
S315080060C02F99040899790408499904083799040806
S315080060D0D98104083B99040849820408B182040856
S315080060E05B2401085B2401085B2401085B24010882
S315080060F05B2401085B2401085B2401085B24010872
S315080061005B2401085B2401085B2401085B24010861
S315080061105B2401085B2401085B2401085B24010851
S315080061205B2401085B2401085B2401085B24010841
S315080061305B2401085B2401085B2401085B24010831
S315080061405B2401085B2401085B240108F9A60408FE
S31508006150AD5D04085B2401081D9904082399040809
S315080061605B2401085B2401085B2401085B24010801
S31508006180F0B5114A114C124E00F00105E3695F079C
S3150800619013D40DB9334213D103EA00078F4207D14E
S315080061A00B4A1A40002A0CBF00206FF00100F0BD10
S315080061B0013AEBD16FF00200F9E74FF0FF30F6E74E
S315080061C06FF00100F3E700BF8096980000000350C7
S315080061D002000100000000000000000000000000AE
S315080061E0013800D0FCE77047BFF34F8F0549064BCF
S315080061F0CA6802F4E0621343CB60BFF34F8F00BF57
S31508006200FDE700BF00ED00E00400FA054FF0FF309F
S315080062107047014B18687047841E002010B5044665
S3150800622000B9FEE7037F1BB143699847002323772C
S3150800623010BD70B5044600B9FEE7038B428B9A423F
S315080062400CD90022013303830277D0E90253984719
S315080062502B4601462046BDE870401847036ABDE84C
S31508006260704001330362D9E7014B1B69184700BF29
S315080062706021002010B5EFF31184302383F31188D1
S315080062800348FFF7CBFF84F31188BFF36F8F10BD68
S3150800629060210020014B1B69184700BFA821002078
S315080062A010B5EFF31184302383F311880348FFF701
S315080062B0B5FF84F31188BFF36F8F10BDA8210020A6
S315080062C02DE9F843064614460D46FFF7A7FF33693E
S315080062D0984700272D1947EB07032C1A63F1000589
S315080062E0012C75F1000306DA336A3046013333624E
S315080062F0BDE8F84392E7D6E902839847A04277EBD0
S3150800630005031CD2F36898473B46024629462046B1
S3150800631042F080F8F368914698473B46024629467C
S31508006320204642F077F84C4683B200227383214612
S3150800633030463283C04701233377BDE8F8833B46AE
S31508006340F3E7094B10B51C6804B91860EFF311841C
S31508006350302383F311880448FFF7B2FF84F31188CA
S31508006360BFF36F8F10BD00BFA8210020084B10B5E2
S315080063701C6804B91860EFF31184302383F311887D
S315080063800348FFF79DFF84F31188BFF36F8F10BD95
S315080063906021002030B5074C256824686A40D2B2CF
S315080063A0891A101A090A41EA1021634023EA0100F2
S315080063B0C0B230BD9863002038B5A0F14003054649
S315080063C002465A21DBB24120FFF7E4FFA5F1460356
S315080063D02A4604467A21DBB26120FFF7DBFF6B1DF4
S315080063E02A4639210443DBB23020FFF7D3FF2B219D
S315080063F005F11403E4B22A460443DBB20846FFF764
S31508006400C9FF2F2105F11103E4B22A460443DBB282
S315080064100846FFF7BFFFE4B22043013840B238BD53
S31508006420044B1B68584043085B4240421843C01758
S31508006430704700BF9863002010B5C38823B9CA887F
S315080064405AB9ABB1012017E0026802EB830252F891
S31508006450042C002AF3D1013BF0E70C6804EB820414
S3150800646054F8044C0CB9013AEAE79342EAD80FD338
S31508006470013B5A1C01D1002010BD026852F8234086
S315080064800A6852F823209442DCD803F1FF33F0D28D
S315080064904FF0FF30F0E710B50A4C226823684240F7
S315080064A0594081EA0200C00FFFF7BAFF2368521A63
S315080064B0434022EA030208401043C00FBDE81040DB
S315080064C0AEE700BF986300200B6810B504681C444B
S315080064D004600B689C422CBF0024012443681B19E6
S315080064E043604C68234443601068496840F10000E3
S315080064F08B4238BF0130106010BD03685B1803601B
S31508006500137843F1000313707047137810B50468C5
S315080065108C4238BF013B137003685B1A036010BDD9
S31508006520F0B504685509231F1E4604EB850556F881
S31508006530047FFF43AE423760F9D153F8046F013642
S315080065401E600EB9AB42F8D14FF6FF73D2088380AE
S31508006550A3585B1AA350F0BDF8B505465009884202
S315080065600C4602F01F0601D80AD136B12846A20009
S315080065700021BDE8F84043F03EBA1F2A02D8F8BD0C
S315080065801F2A0FD9820005EB8003291F05EB840714
S31508006590BB421AD1201A38BF0022002105EB800021
S315080065A043F029FA002EEAD0002205EB8404C6F14E
S315080065B02000AC42E3D054F8041C21FA06F3134336
S315080065C044F8043D01FA00F2F3E753F804CB41F826
S315080065D004CFDDE70A46C18808B511B10068FFF7A0
S315080065E0BBFF002008BD10B5044688B14378012BCF
S315080065F004D1BDE81040406817F04EBD0378012B62
S3150800660004D124220021083043F0F5F90023237031
S3150800661010BD4FF0FF3042F037BD70B5EFF311866D
S31508006620302383F3118843F0E3FB194D194BA8690E
S315080066301C682B6CDB0703D543F0DAFBA869013429
S3150800664086F31188BFF36F8F134B8342134BA34115
S315080066501DD3134B1A68D2B14FF47A73A0FB03010A
S3150800666003FB0411531E13420DD1B2FA82F2C2F192
S315080066701F04531CD243E04001FA03F3184321FADE
S3150800668002F2104370BD002341F0C4FEFAE7FEE7AC
S3150800669000800A507C1E0020EFA7C64B37894100B0
S315080066A0801E0020013901D20020704750F82130A1
S315080066B0002BF7D0B3FA83F00131C0EB41107047D5
S315080066C010B5044643F080FB0C4BA0F57A729A424B
S315080066D012D84FF47A73B0FBF3F05C43084BB3FB64
S315080066E0F0F3B4FBF3F0022806D9BDE81040032303
S315080066F0B0FBF3F0FFF774BD10BD00BFFFC99A3BAE
S3150800670040420F0007B50A4600B9FEE7037F03B10A
S31508006710FEE7074B01900093416801234FF0FF30D5
S3150800672042F0CBFA00B1FEE703B05DF804FB00BF08
S31508006730D7B3040800B9FEE741684FF0FF3042F0CE
S31508006740CCBA70B50646264D33680C46686803B35E
S31508006750972142F023FD024600B1FEE731686868DA
S315080067603AF07AFF00B1FEE73168686842F024FB28
S315080067703179814200D0FEE768683BF0FFF800B146
S31508006780FEE701226868114642F03AFD064628B13E
S31508006790FEE73BF0B7FB00B1FEE7124E032268683E
S315080067A0114642F01DFD7F2C18D0686842F0B5FBF3
S315080067B0FF2808D104EB840464003146686842F077
S315080067C0C7FB28B1FEE768683BF0F0F80446F4E733
S315080067D02146686842F0A3FB00B1FEE770BD00BF22
S315080067E0986300204C7900200022C188914201D884
S315080067F000207047036853F8223033B193FAA3F0A8
S31508006800B0FA80F000EB421070470132EEE701F172
S315080068108041013900EB81018142034600D270476D
S315080068201B680A681BBA12BA40F8042B41F80439E7
S31508006830F2E70FF0A9BD0FF08BBD70B50446F8B1AD
S315080068400368EBB102791B78012A15D1082B11D000
S31508006850092B104D18BF0025A06816F0DFFA294647
S31508006860A06816F01BFBBDE8704004220A4B0B49D2
S3150800687017F0E6BE0A4DEFE7082B03D0092B07D021
S31508006880084870BD0121A068BDE8704011F056B8EF
S315080068900021F8E709000002179E010894BD0408C4
S315080068A00800000200AFFFFF10B5B8B10368ABB12E
S315080068B00479012C09D1806816F01EFBBDE810404A
S315080068C00422074B074917F0BBBE1B78083B012B70
S315080068D004D8BDE81040806811F0CEB8024810BD53
S315080068E0179E010894BD040800AFFFFF10B40468A2
S315080068F024B1C36813B15DF8044BD5E701485DF8C8
S31508006900044B704700AFFFFF38B5036804465BB118
S31508006910C5684DB1FFF791FF38B923682946204667
S315080069209A78BDE83840BFE7004838BD00AFFFFF9A
S3150800693007B5E0B10368D3B10279012A0DD15A78B7
S31508006940806801AB019216F007FD0422094B0A493B
S3150800695017F076FE03B05DF804FB1B78083B012BA5
S3150800696005D8806803B05DF804EB0FF0E7BC034870
S31508006970F0E700BF179E010894BD040800AFFFFFAB
S31508006980F0B5036804460D4689B0F3B1C668E6B1AA
S3150800699069469F78FFF7CCFFA8B92046FFF74DFF59
S315080069A088B9236820469A78F119FFF77DFF50B910
S315080069B02368694620465A78FFF776FF18B92946AC
S315080069C02046FFF7B5FF09B0F0BD0148FBE700BF59
S315080069D000AFFFFF302337B5007D0DF107014343B4
S315080069E003F1A04303F58023DD6E1C6F44F086FC9B
S315080069F09DF8070040B9054B9D4203D184F0020477
S31508006A00C4F3400003B030BD0120FBE7A8630020B3
S31508006A1038B50546007D0CF0DFFC3023287D43435E
S31508006A2003F1A04303F58023DA6E1C6F084B9A42E4
S31508006A300BD114F0020404D02C6D2B6AE31A5C42C5
S31508006A405C410CF0EBFC204638BD0024F9E700BF9A
S31508006A50A863002013B504460DF10701007D44F034
S31508006A604DFC9DF8073043B1236DD4E91202024468
S31508006A70934218BF184602B010BD3022237D5343F7
S31508006A8003F1A04303F58023DB6EEEE72DE9FF470C
S31508006A900446007D04F138060CF09EFC1022002105
S31508006AA0304642F0A8FF4FF0300A4FF44473207D79
S31508006AB0DFF810913F4F63870AFB0093C4E90F770D
S31508006AC0DB6EBB4204D104B0BDE8F0470CF0A6BCAF
S31508006AD00DF10F0144F012FC9DF80F70002F62D1E2
S31508006AE02046FFF7B7FF344A80461278237DEAB17D
S31508006AF0072B1BD8314A02EB0312127BB2B1EFF314
S31508006B0011818AF31188D9F834000AFB0399D9F858
S31508006B10642081F31188BFF36F8F012101FA03F313
S31508006B20034204BFC2F30A135F183D4604F118076F
S31508006B30102200213846D4F8109042F05CFF30222B
S31508006B40237D013D5343C5F30A052D0145F04075E4
S31508006B50C4E9065903F1A043C4F8208003F580234D
S31508006B601A6F94F82410520862F3410184F824102D
S31508006B70196F94F8242027F0030761F3000284F8BC
S31508006B8024201B6F626A9B0863F39F0247F0020783
S31508006B90626267640094207D32462146084B39F0CC
S31508006BA031FD207D8FE794F844306FF3410384F874
S31508006BB04430EFE7A86300201C1B00207019002052
S31508006BC0C96B00080000045092F8543037B51446D3
S31508006BD033B1936D0BB1D06D9847002384F85430C8
S31508006BE094F896301BB32046FFF7F4FEF8B1236EEF
S31508006BF0132120465B6898471025236E20461B689C
S31508006C000DF10701984778B99DF8073003F0FD02A2
S31508006C10112A05D1A3F111025342534184F89C303D
S31508006C20013D15F0FF05E8D12046FFF72FFF0020AC
S31508006C3084F8540003B030BD2DE9F74F002800F062
S31508006C40E0807149D1E90A4EEFF3118B302383F3C3
S31508006C50118810F8086C30F806CCF30702D5BCF199
S31508006C60000F07D18BF31188BFF36F8F012003B094
S31508006C70BDE8F08FCB69D1F82490A3EBCC0330F8AC
S31508006C80048C0093CB6109F10103A0F108050CF10E
S31508006C9001024B62B8F1000F3AD0A5EBC803DF88B2
S31508006CA0B3F802A001971F7806F00206FF0724D45E
S31508006CB026BB019EA6EB0A06012E29D1009E0CF1E1
S31508006CC00202A6F108075244C1F82490CF6130F8B1
S31508006CD0028CB8F1000F1DD110F8085C20F8068C5C
S31508006CE068F3000500F8085C013A5A801A7868F3D8
S31508006CF000021A700022DA803FE04EB110F8086CE4
S31508006D0042446FF3410600F8086C00269E80DEE7D1
S31508006D102B46DCE705EBC809D1E905673744B945D1
S31508006D200ED310F8085C013A6FF3000500F8085C0A
S31508006D30002520F8065C5A801A7865F30002D8E721
S31508006D4015F838504E4615F0010530D010F8085C95
S31508006D50013A6FF3000500F8085C002592B220F8A6
S31508006D60065C5A801A7865F300021A70C3F10702A6
S31508006D703244C2F3CF02DA80B280002C3FD09C4264
S31508006D803DD86288002A08BF1C46BEF1000F06D00F
S31508006D909E4504D3BEF80220002A18BF7346C1E9EF
S31508006DA00A438BF31188BFF36F8F00205FE7A8EBC8
S31508006DB00C08B8F1010FC9D1B9F80270A9F8025048
S31508006DC01744B9F80620C2B109EBC20600254A6A7B
S31508006DD0013A4A62CA69083ACA6110F8082C20F8CA
S31508006DE0065C6FF3000200F8082C1A785F8065F3DA
S31508006DF000021A70002EB9D17CE71646E6E71C4653
S31508006E00C3E7222033E700BF9863002010B5044685
S31508006E1030B13830FFF7E7FB6821204615F024FB30
S31508006E202046BDE8104007E710B5044618B12422ED
S31508006E30002142F0E0FD2046BDE81040FCE60023B4
S31508006E4013B5019369B160B101FB00F401A92046AD
S31508006E5036F04AFA014620B9019810B1224642F0A6
S31508006E60CAFD019802B010BD42F21073994270B57E
S31508006E7004460D4602D96FF00F0070BDC3888B42D9
S31508006E8013D204212846FFF7DAFF06460028F2D077
S31508006E90216841B1E288920042F0B5FDE188206898
S31508006EA0890015F0EBFAE58026600020E5E72DE974
S31508006EB0F84305460E469046D4883CB9F188A14267
S31508006EC00ED26FF009073846BDE8F883D8F80030C7
S31508006ED003EB840353F8043C002BEFD1013CECE7A9
S31508006EE02846FFF7C1FF07460028ECD1F2889442EE
S31508006EF00BD2AE4209D028683168121B920001EB0A
S31508006F00840100EB840042F07EFDEA88F088824224
S31508006F1007D92B68121A0021920003EB800042F071
S31508006F206AFD002213462968D6F800E0D8F80080E2
S31508006F30944203D1C3B90123AB80C4E75EF822C0EB
S31508006F4058F82260ACEB0300B0422CBF4FF00009A2
S31508006F504FF00109801B41F822009C452CBF4B4687
S31508006F6009F101030132E3E7EA8801EB840401EB46
S31508006F7082018C4202D1002BDDD0A2E72268D21A08
S31508006F8034BF0123002344F8042BF2E700232DE93C
S31508006F90F7430C2106460193FFF766FF05460028CE
S31508006FA056D1346801AA04F11808414604F12807A5
S31508006FB02046F688FFF788FA39462046FFF784FA0E
S31508006FC00199A36804F108095B182CBF0121002167
S31508006FD0A360E3684846C9182CBF01230023E16073
S31508006FE0414604F120080193FFF76EFA48464146E8
S31508006FF0FFF76AFA48463946FFF766FA01992369A0
S3150800700004F110095B1823612CBF01230023616971
S3150800701048465B1863612CBF012300234146019350
S3150800702004EB8606FFF750FA39464846FFF74CFA4E
S31508007030019B321B193AA36122F0030204F11903DA
S315080070409E4238BF0022294604F11C0042F0D3FCB8
S31508007050284603B0BDE8F08300232DE9F04F0F2141
S3150800706085B006468DF80B30FFF7FEFE054600286C
S3150800707040F0C98034680DF10B02D4F81CB02368BF
S31508007080594603A80393FFF740FAD4F82C904946CB
S31508007090FFF73BFA039B9DF90B10236063680029F1
S315080070A003938DF80B5080F2B2804942FFF72DFA10
S315080070B0D4F820A00DF10B02514603A8FFF725FAD4
S315080070C0D4F830804146FFF720FA039B9DF90B1050
S315080070D06360A3680393002399428DF80B3080F20E
S315080070E099804942FFF711FA636A0DF10B021946B6
S315080070F003A80093FFF709FA676B3946FFF705FA05
S31508007100039B9DF90B10A360E36803930023994240
S315080071108DF80B3080F281804942FFF7F6F9A36AB1
S315080071200DF10B02194603A80193FFF7EEF959462C
S31508007130FFF7E3F94946FFF7E0F9039B9DF90B10C2
S31508007140E36023690393002399428DF80B3067DACD
S315080071504942FFF7DAF90DF10B0203A84946FFF792
S31508007160D4F95146FFF7C9F94146FFF7C6F9039B1B
S315080071709DF90B10236163690393002399428DF8E7
S315080071800B3050DA4942FFF7C0F90DF10B0203A89C
S315080071904146FFF7BAF90099FFF7AFF93946FFF705
S315080071A0ACF9039B9DF90B106361A3690393002354
S315080071B099428DF80B3039DA4942FFF7A6F9394674
S315080071C00DF10B0203A8FFF7A0F90199FFF795F94E
S315080071D0039B9DF90B70A36127EAE773E361F388C4
S315080071E00021072BA3F108024FEA820204F12000CE
S315080071F098BF002242F0FFFB002F04DAE02239464E
S315080072003046FFF78DF9284605B0BDE8F08FFFF741
S3150800721074F94DE7FFF771F966E7FFF76EF97EE750
S31508007220FFF76BF997E7FFF768F9AEE7FFF765F938
S31508007230C5E700232DE9F04F112187B003908DF89B
S315080072401330FFF711FE0290002840F04881039B97
S315080072500DF113021C6805A823680593236A1946CD
S315080072600193FFF74AF9D4F824B05946FFF745F9D0
S31508007270D4F82C904946FFF748F9D4F830804146AF
S31508007280FFF743F9656B2946FFF73FF9A66B3146C9
S31508007290FFF73BF9059B9DF91310236063680029E6
S315080072A00593029B8DF8133080F21D814942FFF742
S315080072B02CF90DF1130205A85946FFF71EF9D4F863
S315080072C028A05146FFF719F94146FFF71EF9294646
S315080072D0FFF71BF93146FFF718F9E76B3946FFF751
S315080072E014F9059B9DF913106360A36805930023A1
S315080072F099428DF8133080F2F9804942FFF705F973
S315080073000DF1130205A85146FFF7F7F84946FFF7AE
S31508007310F4F82946FFF7F9F83146FFF7F6F8394643
S31508007320FFF7F3F8059B9DF91310A360E36805932F
S31508007330002399428DF8133080F2DB804942FFF72B
S31508007340E4F80DF1130205A84946FFF7D6F8FFF74A
S31508007350D4F84146FFF7D1F8FFF7CFF82946FFF7EB
S31508007360CCF83946FFF7D1F80199FFF7CEF8594618
S31508007370FFF7CBF8059B9DF91310E3602369059386
S31508007380002399428DF8133080F2B6804942FFF700
S31508007390BCF80DF1130205A84146FFF7AEF8FFF752
S315080073A0ACF82946FFF7A9F8FFF7A7F83146FFF723
S315080073B0A4F85946FFF7A9F85146FFF7A6F8059B22
S315080073C09DF91310236163690593002399428DF88B
S315080073D0133080F294804942FFF797F80DF11302B3
S315080073E005A82946FFF789F8FFF787F83146FFF71A
S315080073F084F8FFF782F83946FFF77FF85146FFF71A
S3150800740084F84946FFF781F8059B9DF913106361D7
S31508007410A3690593002399428DF8133072DA49421D
S31508007420FFF773F80DF1130205A83146FFF765F863
S31508007430FFF763F83946FFF760F8FFF75EF831465D
S31508007440FFF75BF82946FFF758F80199FFF75DF84B
S315080074505946FFF75AF8059B9DF91310A361E3698E
S315080074600593002399428DF813304EDA4942FFF707
S315080074704CF80DF1130205A83946FFF73EF8FFF759
S315080074803CF8FFF73AF80199FFF737F85146FFF746
S315080074903CF84946FFF739F84146FFF736F82946DA
S315080074A0FFF733F8059B9DF91350E36125EAE57369
S315080074B02362039B0021DB8804F12400082BA3F137
S315080074C009024FEA820298BF002242F094FA002D80
S315080074D005DA4FF4807229460398FFF721F80298D7
S315080074E007B0BDE8F08FFFF708F8E2E6FFF705F802
S315080074F006E7FFF702F824E7FEF7FFFF49E7FEF77E
S31508007500FCFF6BE7FEF7F9FF8CE7FEF7F6FFB0E73F
S3150800751010B568210120FFF792FC044618B16822CD
S31508007520002142F068FA204610BD10B5242101203A
S31508007530FFF785FC044618B12422002142F05BFAC5
S31508007540204610BDFEE7002307B5084601A90193AA
S3150800755035F0CAFE019803B05DF804FB0846FFF74C
S315080075606BBB084611466AE4002303604360704714
S3150800757008B500230A480B490B4A091AC2E905014E
S3150800758082F830309363C2E90A00FFF7EDFF012362
S315080075900139C908418053620823C2E9073308BD87
S315080075A0B07A0020000004209863002030B5D0E9A6
S315080075B0054553B394420FD0E2B9046974B9036917
S315080075C083B3002918BF0D462B78DB0714D5AB8883
S315080075D043B3A5EBC305F7E704698CB141B9046861
S315080075E02378DB070CD5E3884BB104EBC304F7E734
S315080075F00C46F5E79542E2D0C0E9054530BD1C4684
S315080076009542DCD0002ADAD0F6E7944208D08C42BC
S3150800761028BF0C46954207D08D4238BF0D46EBE78A
S315080076200C46F7E71D46E7E70D46E5E700232DE993
S31508007630F347864E0193B3690C469A42104604D224
S3150800764039B912B101A935F04FFE019802B0BDE86B
S31508007650F0871AB90846FFF7EFFAF6E7EFF311874E
S31508007660302383F3118834F8063C07304FEAC30801
S3150800767020F00705A845A1F1080178D234F8020CD4
S31508007680002863D0C21A012A60D101EBC00211F8A2
S315080076903000C0075AD4B2F802C0A8EB050919EBA6
S315080076A0CC0953D4B9F11F0F35DDC5F3CF036119E2
S315080076B024F8063C0133084624F8023CFFF754FF39
S315080076C034F8020C4FEAD9038880D0884B80F8B189
S315080076D0B2F802C0A0EB0C0C1CFA83F39BB202EBC7
S315080076E0C000CB80838000235948FFF75FFF104610
S315080076F0FFF73AFFF369326A2B44A3EB0803934278
S315080077000194F36131D887F31188BFF36F8F9CE733
S315080077100023CB80E7E7706A013301387062D088AE
S31508007720634424F8063C68B1B2F802C0A0EB0C0C1E
S315080077301CFA83F39BB202EBC00024F8023C838058
S315080077400123D1E7002324F8023CF9E7284601A9DA
S3150800775035F0CAFD0028D6D142462146019842F0A6
S3150800776052F92046FFF768FACDE73362CBE76AD9C4
S3150800777034F8020CA8EB050900F1FF3AAAEB030A54
S31508007780002837D011F8303001EBC002DB0732D4BD
S31508007790BAF1000F2FD1C5F3CF03611924F8063CBF
S315080077A00133084624F8023CFFF7DEFE508800EB5A
S315080077B0D90334F8020C4B808880D088C0B1B2F85F
S315080077C002C0A0EB0C0C1CFA83F39BB202EBC000C0
S315080077D0CB8083801E480023FFF7E8FE1046FFF79C
S315080077E0C3FEF36901941D44A5EB0805F5618AE714
S315080077F0C880EFE70246B9F1270FF2D9C5F3CF03E0
S31508007800611924F8063C0133084624F8023CFFF7C0
S31508007810ABFE34F8020C09F1FF33DB084B80888095
S315080078207AB10AF1010A1AFA83F39BB2CB809380E4
S31508007830736A07480133736200231A46FFF7B6FED8
S31508007840CFE7CA80F4E701945DE700BF986300209C
S31508007850AC630020BFF35F8F074B5A6A22F480326D
S315080078605A62D3F8942022F00102C3F89420BFF399
S315080078704F8FBFF36F8F704700ED00E008B9704770
S315080078802430036A1BB98142FAD8002001E08142FC
S31508007890FBD9704770B50D460668EFF311823021A3
S315080078A081F311880021046A016282F31188BFF30B
S315080078B06F8F002C00DC70BD3046013CA847F8E706
S315080078C010B504461822002142F095F8204610BD4E
S315080078D00368D90444BF43F48063036003689A04C9
S315080078E044BF43F400630360704713B5044601A818
S315080078F00191FFF7EDFF019BA36002B010BD70B5C3
S31508007900044686B038300E461546FEF76CFE012250
S31508007910234B84F8382093F83C3013EA020129D027
S31508007920002184F8392001A8142242F064F84FF4A3
S3150800793010534FF6F872ADF800304FF6FF739542C4
S3150800794098BF2B46ADF80230164B4FF48071684647
S315080079500393FFF7CAFFEA1D3146684604F13C0364
S31508007960D20816F044F9A8B104220F4B0F4916F0B5
S3150800797067FE0BE084F8391040342422204642F092
S315080079803AF82A46314620460EF0E2FC28B16FF056
S315080079900C0003E0684615F091FF002006B070BDA4
S315080079A09863002000444004179E0108A4BD0408FB
S315080079B008B529B116F0C4FB003818BF012008BD68
S315080079C00120FCE710B5044686B018220021684657
S315080079D042F011F86946204616F096FBB0FA80F098
S315080079E0400906B010BD08B515F0F0FE003818BFFE
S315080079F0012008BD18B12D280CBF1720012070479B
S31508007A002DE9F7430F4690460024DFF84490060216
S31508007A1044EA060545F400356B462946484601AA58
S31508007A200CF0A6FAFFF7E6FF172809D143463A46AF
S31508007A30294607480CF07AFF03B0BDE8F043D9E7BA
S31508007A4010B901340B2CE3D103B0BDE8F08300BFB5
S31508007A50D81B0020064B10B593F8482032B10024F5
S31508007A6083F8484016F03CFE204610BD0D20FCE782
S31508007A70986300201FB50023CDE901330393FF2344
S31508007A808DF80430054B014601AA586841F033F9D0
S31508007A90003818BF012005B05DF804FB9863002084
S31508007AA008B5074B586841F0ADF930B1054BB3FB43
S31508007AB0F0F083B20BB1184608BD0120FCE700BF01
S31508007AC09863002040420F002DE9F04190460122BC
S31508007AD00D46224B224C234E1870002160683270E6
S31508007AE041F0E6F894F86830EDB2AB4233D894F832
S31508007AF06930AB422FD3E36E04F16407BB4204D06E
S31508007B007F213846FEF71DFEE766A368A3B98027DE
S31508007B10154B9F71FFF7C4FFC000B8FBF0F03A465B
S31508007B20C4E902003946606841F0CDF940B17F22C8
S31508007B300E4B1A700223337001242046BDE8F081EB
S31508007B402846FFF797FF04460028F5D130F014FBC6
S31508007B500028F2D0EBE70724EFE700BF5C210020FE
S31508007B60986300205D2100204C7900205E210020CA
S31508007B7008B5054B00EB80004100586841F0CFF985
S31508007B8000B1FEE708BD00BF9863002070B5104C31
S31508007B900D4694F86830834218D894F869308342C1
S31508007BA014D3E36E04F16406B3420BD0012200211C
S31508007BB0606841F07DF829463046FEF7C2FDE66664
S31508007BC0002070BD0846FFF7D3FFF9E70720F8E75E
S31508007BD09863002008B5302383F311884FF00053CB
S31508007BE04FF20F0218805A80BFF35F8F0BF002FB2B
S31508007BF06E4A2DE9F0416E4B55686E4C5D65516ACB
S31508007C0099656D49D1F80002D865D1F8040218665D
S31508007C10D1F80812586B5966916A10F0040F9966E4
S31508007C20D16A4FF00000D966116B1967516B596715
S31508007C30D26BD8649A67D3E90E1218BF11465F4A09
S31508007C4091421A655DD301F12000A04259D888698E
S31508007C50C5F308051864CE69062D5E6455D1584DDE
S31508007C60A84252D3574DA8424FD205884DF64260D6
S31508007C7085424AD11868C3F894005868C3F8980032
S31508007C8040F20170A242154604D22E680432B6F1BB
S31508007C90CD3FF7D00022C3E91F22C3E92122C3E959
S31508007CA02322641BDFF818C1424DDFF818E19C64F3
S31508007CB08D422DD8D3E91FC7D3E92165D3E92341DE
S31508007CC04FF0000E013AD2B2FF2A3BD1BEF1000FA7
S31508007CD005D0C3E91FC7C3E92165C3E92341B3F842
S31508007CE05430C3F308030C2B3AD8022B53D9DA1EA7
S31508007CF0092A50D8DFE802F030563F424F4F4F4F1F
S31508007D004F4C0021C3E910112C494FF42060B9E704
S31508007D1055F8044D6445CBD37445C9D2E607C7D593
S31508007D200026294F57F8048FA045C1D00136062EE4
S31508007D30F8D12AB1013AD2B203EB8206F467B7E763
S31508007D400522F9E7E0464FF0010EBC4637462E46B7
S31508007D5025460C464146B5E740F60120BDE8F081C8
S31508007D603A2B18D1194B9B6913F0020F40F20253B4
S31508007D7018BF1846F2E740F60320EFE740F2017213
S31508007D8040F60423B0F5206F14BF10461846E5E701
S31508007D9040F60520E2E740F60722013B5A2B98BF3A
S31508007DA01046DBE740F60220D8E700BF00ED00E00A
S31508007DB0007800200818002000E100E008000020F4
S31508007DC0E061000800B40408787800200040005BF1
S31508007DD02DE9F04786B00546DDE90F980C461646AC
S31508007DE00021182268461F469DF838A041F003FE78
S31508007DF0B9F1000F41D0B4F5885F1ED04AF48073FC
S31508007E00BAF1010F019303D12A68DBB2059283B355
S31508007E1039466846FFF769FDADF8004024F0FF04CF
S31508007E20B4F5824F039612D12B4642464946684618
S31508007E3015F0DDFE06B0BDE8F087BAF1000F12D1E5
S31508007E4039466846FFF751FD0396ADF800404FF6F0
S31508007E50F872B2EBC80F4FEAC80338BF4FF6FF7384
S31508007E60ADF80230E0E740F2011301932B68059361
S31508007E70E6E740F201130193CAE76FF08600D9E7F7
S31508007E8070B504680D1B002D02DC6FF05F0070BD35
S31508007E9094F900602378002E0ADB631C03602378BC
S31508007EA013600368C91A13688B42EED80020EEE700
S31508007EB003F07F035E1E032E10D89D42E5DD0025E4
S31508007EC00134156004600468166814F8015B013B08
S31508007ED045EA062515600460F5D1E2E76FF0630010
S31508007EE0D5E770B404680E1B002E06DD26789E4280
S31508007EF007D10134046070BCC2E76FF05F0070BC44
S31508007F0070476FF06100FAE77F2A034610B51AD961
S31508007F1014460120240A00F10100FBD11C68641AEA
S31508007F20844212DB19684C1E1C6001F8012C120AE7
S31508007F30F8D1012806D01A68511E196000F17F038E
S31508007F4002F8013C10BD0120E8E76FF06B00F9E785
S31508007F502DE9F84F4FF0000A054688461646994619
S31508007F6054465746DDF828B05F4516D2002319F85F
S31508007F70070020280CD0ABEB0702012A29D00D28D0
S31508007F8027D109EB070252780A2A6BD10137EBE7AA
S31508007F900137BB454FF00103E9D1BCB1062204F015
S31508007FA00703E408534354430733A4EB0A0404EBDA
S31508007FB0D30405B344451ED809EB070B00272C4606
S31508007FC0BA46B8462C4AD94519D1641B00203460F4
S31508007FD004E00A28DAD01BB16FF02B00BDE8F88F51
S31508007FE00206F9D43D283FD10AF1010ABAF1020F77
S31508007FF0F2D80134CAE76FF029003460EEE719F8C1
S31508008000010BA0F10A03DBB2162B09D93D284FEA6A
S3150800801088180CD0FEF7D0F9174A48EA000807E096
S3150800802042FA03F3DB07CED54FEA8818F2E70137A1
S315080080300AF1010ABAF1040FC5D14FEA1843012F14
S31508008040237003D901344FF0000ABCE74FEA18231E
S31508008050637017B101270234F5E784F80280BA463F
S315080080600334B0E7002BB7D1BAF1000FB4D1FEF74D
S31508008070A3F90028BDDAAFE7F6FFBFFF2DE9F04107
S315080080800D46C98804461646FEF7EEFE014608BBAD
S315080080903046FEF7C5F903461B4EB4F9042030688E
S315080080A00132584022EA0002B5F904002768013077
S315080080B0D5F8008018400243013A4745A280EA886D
S315080080C004D08C46A7F1040E624506D8DB43E48843
S315080080D0A24211D30846BDE8F08135685EF8040F60
S315080080E05D4020EA050058F82C500CF1010C1D40A3
S315080080F02843CEF80000E7E757F82200184047F86B
S3150800810022000132E4E700BF9863002010B5044658
S3150800811048B1006818B1E188890014F0AFF9002267
S315080081200123C4E9002310BD38B504460D4619B924
S31508008130FFF7ECFF002038BDC2888A4207D100212C
S315080081400068920041F057FC0123A380F2E7FFF78D
S31508008150DDFF29462046BDE83840FEF785BE884241
S3150800816070B505460E4609D0C988C28841B92AB1F4
S31508008170012392008380006841F03DFC002070BD19
S315080081804C1E8CB9B6F904300134A242AB8012D227
S3150800819021462846FEF768FE0028F0D1316828688F
S315080081A0A20041F030FCE9E7336853F82430002B8D
S315080081B0E8D1013CE5E72868121B0021920000EB94
S315080081C0840041F018FCE9E72DE9F0411746B1F9BA
S315080081D004509288044612FB05F253430E461DD5F9
S315080081E039463046FEF728F9B0F100080DDB3A4665
S315080081F031462046FEF75BFE28B9B8F1000F08BFE6
S3150800820001250020A580BDE8F08132462046FEF70C
S315080082104EFE0028F7D16D42A580F4E7874202D0CA
S31508008220814210D13E460123B6F80680A380B8F1F4
S31508008230000FE6D0336803EB880353F8043C3BB9D8
S3150800824008F1FF38F3E7FFF78AFF0028EAD0DAE7F4
S3150800825041462046FEF708FE0028D4D1D6F800C0CD
S31508008260074606462368191F51F8042F5CF82700AD
S31508008270B2182CBF012600260137121846F100064F
S31508008280B8450A60F0D103EB8703002EB9D0E2881F
S3150800829007F10108BA4208D841462046FEF7E4FD30
S315080082A00028B0D1236803EB87031A68474692195A
S315080082B02CBF0126002643F8042BE6E770B50E46C8
S315080082C001210446FEF7D0FD054648B9E288014675
S315080082D09200206841F08FFB23681E600123A3806B
S315080082E0284670BD2DE9F341054688461646CF88CF
S315080082F03FB1D8F8003003EB870353F8043C33B199
S315080083003EB90021284602B0BDE8F041D6E7013F54
S31508008310EEE72846791CFEF7A7FD044670B94146E4
S315080083202846FFF71CFF044640B9013E00963B4627
S31508008330D8F80020E988286837F02AFF204602B0D6
S31508008340BDE8F081C388B1EB431F3FBF03684A0904
S3150800835053F8220001F01F013ABFC84000F001009F
S3150800836000207047C1880068FEF79CB92DE9F843DC
S3150800837012F0030318BF012303EB92068846314621
S3150800838081461446FFF7D0FE0546B8B9B9F8067017
S31508008390BE4216D897B1D9F80090BE0001463246BB
S315080083A0484641F028FB2CB1301B2246414648443A
S315080083B041F029FB39464846FEF729FA2846BDE822
S315080083C0F8836FF00705F9E7034670B51C68DB8884
S315080083D00846B2EB830F4FEA830519D9521B8E184C
S315080083E0002141F008FB30462A46002310449342F8
S315080083F010D1002070BD23F00301615803F0030675
S31508008400F600F140C9B281B901339D42F3D1ECE7D8
S315080084101346FAE723F00301615803F00305ED005C
S31508008420E94000F8011D0133E1E76FF00700E1E7D5
S31508008430F8B504460D46FFF795FFE3882844B0EBE8
S31508008440431F25D81F2D2368E68805F01F074FEA26
S31508008450551413D96FF00300324600FB04309442DA
S3150800846002F1FF3120D3A21BA64238BF00223244B4
S3150800847018460021920041F0BEFA034637B10021A2
S3150800848003EB8403C7F12005A64213D800200AE0AF
S3150800849010F01F0118BF012101EB50112046FEF70D
S315080084A0E3FC0028CED0F8BD50F8212043F821205F
S315080084B00A46D4E71868013400FA07F20A4343F873
S315080084C0042B20FA05F1DFE730B5C38823B9CA883B
S315080084D05AB9002B3DD136E0026802EB830252F806
S315080084E0042C002AF3D1013BF0E70C6804EB820563
S315080084F055F8045C4DBB013AEAE7B1F9045003D2DA
S31508008500B1F90400404226E0B0F90420002A03DD50
S31508008510002D0CDA01201EE0002D08DD3AB14FF0DF
S31508008520FF3018E003F1FF330BD2504213E0013B52
S31508008530016851F8235054F823108D42F2D9104699
S3150800854009E0591CF4D1002005E0002BD8D093424D
S31508008550D3D9B0F9040030BD1FB54A1C14BF0B4669
S31508008560012301930123C90FC1EBC1314900013130
S31508008570ADF80C10ADF80E3002A901AB0293FFF767
S31508008580A3FF05B05DF804FB01231DE670B50C4694
S315080085900546114620461A46FFF7F6FF064630B945
S315080085A0043529462046FFF78FFF002801DA3046B2
S315080085B070BD2A4621462046FEF779FC0028F0D0F1
S315080085C00646F4E74FF0FF33FEE570B50C4606465F
S315080085D0114620461A46FFF7F5FF054688B90436C0
S315080085E0B4F90430002B0CDA00212046FFF7B4FF5B
S315080085F030B1324621462046FFF7C6FF0028EFD0A5
S315080086000546284670BD2DE9F04F0123164600227F
S315080086108BB0884207460D46CDE90823CDE90623E7
S3150800862006D108A8FFF79BFD0446002840D108ADEF
S31508008630B74207D1394606A8FFF791FD0446002838
S3150800864036D106AEB5F80680B8F1000F3AD1B6F8BD
S315080086500690B9F1000F3FD1012308EB090A5146EC
S3150800866038460393FEF700FC044608BB0146384625
S31508008670FFF724FE0446D8B92A683B6801460492E7
S3150800868018464FEA8A02D6F800B041F0B4F9ABF1C1
S31508008690040A834600EB890908F10101D94524D16A
S315080086A0039B7BBBAB88B28813FB02F31BB2BB8070
S315080086B006A8FFF72BFD08A8FFF728FD20460BB0F4
S315080086C0BDE8F08F2B6803EB880353F8043C002BB6
S315080086D0BDD108F1FF38B7E7336803EB890353F8D0
S315080086E0043C8BB909F1FF39B3E75AF8043F5846F9
S315080086F00093049A434605910BF1040B37F048FDA5
S315080087000599CBE70123D2E7B8FA88F35B09A4E712
S315080087102DE9F04F05460F461046002197B09346BF
S31508008720FFF71AFF0028C0F2878105D16FF00B0406
S31508008730204617B0BDE8F08F00230126CDE909369B
S31508008740CDE90B36CDE90D36CDE90F36674B5946DF
S315080087501293384613AB1193FDF76EFE002817DA0D
S3150800876035B139462846FFF7FAFC0446002849D1B0
S3150800877000212846FFF7F0FE0028C0F24C81594632
S315080087802846FFF7A1FE002880F24C810024CFE797
S31508008790394609A8FFF7E3FC044698BB59460BA8D7
S315080087A0FFF7DDFC044668BBF9880DA80231ADF871
S315080087B03060ADF82860FEF757FB044610BB01464B
S315080087C00DA8FFF77BFD0446E0B9F9880FA802312A
S315080087D0FEF74AFB0446A8B90BA8FFF7C3FD00F04D
S315080087E01F001F2821D0C0F11F03194609A80093AE
S315080087F0FFF71EFE044628B900990BA8FFF718FED6
S31508008800044698B109A8FFF781FC0BA8FFF77EFC80
S315080088100DA8FFF77BFC0FA8FFF778FC0C2113A81F
S3150800882013F022FE002CA3D082E70094BDF82A603C
S31508008830BDF832900BA8A6EB090A4FEA4A1841463A
S31508008840FFF7F6FD04460028DCD14FEA8A0A0BA991
S3150800885009A8FFF739FE002838DA41460BA8FDF7C4
S31508008860B9FE04460028CDD109F1FF3301939B00D8
S3150800887006F1FF38049306F1804609F18043023B6E
S31508008880013E9B00A6EB09060793B3000293019BE2
S3150800889043452DD3002DB5D0009909A8FDF79AFEBA
S315080088A0002840F0B480BB8809A92846ADF82830CE
S315080088B0FFF755FC0146002840F0AB802846FFF735
S315080088C04BFE00289ED10123AB809BE70D9A09A990
S315080088D052F80A300846013342F80A300BAAFFF765
S315080088E071FE04460028B2D08CE700BF01000300E1
S315080088F00B9B049A03931344DDF824900693039B79
S315080089004FEA880A9A5859F82810AAF104030D9EC6
S315080089100593029B91421E4474D20598002359F888
S3150800892000003FF077FD002914BF4FF0FF330346E0
S31508008930B8F1010F33600EBF002309EB0A0353F8A1
S31508008940083C079A1393059B59F80330149359F872
S315080089500A301593336801333360039B13449946F1
S3150800896033680021013B33600FA8FFF7A7FC0028F6
S315080089704DD1019B002B48D0D9F800200F9B0FA999
S315080089801A60069A084612685A603268FFF7AAFC07
S3150800899000283CD111A90FA8FFF796FD0028DFDCB7
S315080089A032680BA90FA8FFF79DFC80BB029B0FA896
S315080089B04FEAC3094946FFF73BFD40BB09A90846EC
S315080089C00FAAFFF7FFFD014618BB09A8FFF7C4FD6C
S315080089D0002812DA0BA90FA8FFF7C1FBB8B9494658
S315080089E00FA8FFF725FD90B909A908460FAAFFF7B2
S315080089F0CBFD60B93368013B3360029B08F1FF3851
S31508008A00043B43E74FF0FF3392E7019AB6E7044683
S31508008A10F8E60C46F6E65A4629462846FFF7B4FD18
S31508008A200446FFE65A4629462846FFF7CBFD044684
S31508008A3000283FF4A4AE7BE66FF0090478E62DE93A
S31508008A40F04F05468FB01046164609910A93FFF770
S31508008A5083FD002840F395802846F188FFF764FBDC
S31508008A600446002866D13368B5F806900193484F46
S31508008A70494601983B683B68FDF714FEC31DDA08B2
S31508008A80272B2E6804928CBF1E22FA2213F0180593
S31508008A9018BF012505EB53150292AA00A2EBD301D4
S31508008AA0B2180592A9EB0502920023F00703069275
S31508008AB01B1A7218039107920B93A94561D30021DB
S31508008AC0039A304640F097FF0021069A059840F031
S31508008AD092FF049A079918980A9B9847044648BB38
S31508008AE01DB129463046FDF792FE494630460B9A97
S31508008AF0FDF732FD029B013B029345D00999306888
S31508008B00FDF7C9FC0122C143D7F80080914515D865
S31508008B1048EA0103D7F800A008933B684B46D7F804
S31508008B20008003F1FF3B8BB9089A3B680AEA020A00
S31508008B309A45C2D020460FB0BDE8F08F56F82200FD
S31508008B40FDF76EFC013248EA0008DFE7019B53F89F
S31508008B502B2056F82B30104619460D930C92FDF72C
S31508008B609AFC0D9B0C9A40EA080811461846FDF730
S31508008B7092FC20EA08034AEA030A48EA00085B4628
S31508008B80CFE76FF00304D5E76FF00D04D2E700BF17
S31508008B90986300202DE9F04306460F46104601214A
S31508008BA097B01546FFF7D8FC002840F3CA81002283
S31508008BB00123394612A8CDE90E23CDE90C23CDE9C8
S31508008BC00A23CDE90823CDE91023CDE90623CDE90B
S31508008BD00423CDE90223CDE90023CDE91223CDE90B
S31508008BE01423FFF7BCFA044608B112A806E0294682
S31508008BF014A8FFF7B4FA044612A81CB3FFF786FABE
S31508008C0014A8FFF783FA0EA8FFF780FA0CA8FFF757
S31508008C107DFA0AA8FFF77AFA08A8FFF777FA10A8E4
S31508008C20FFF774FA06A8FFF771FA04A8FFF76EFAB9
S31508008C3002A8FFF76BFA6846FFF768FA204617B0EE
S31508008C40BDE8F083FDF7D0FD814614A8FDF7CCFDFD
S31508008C50804650B9214614A8FFF774FB28B939464F
S31508008C6010A8FFF77CFA04463CE00123ADF854301F
S31508008C70ADF84C30002112A8FFF76EFC58B9C14573
S31508008C80494614A828BF4146FFF7D2FB04460028E8
S31508008C90ABD114A9E4E712A8FDF7A6FD014612A870
S31508008CA0FDF798FC0446E8B914A8FDF79DFD0146B2
S31508008CB014A8FDF78FFC0446A0B914A912A8FFF75B
S31508008CC003FC0028C0F2A28012A9084614AAFEF7DF
S31508008CD0EEF8044630B9012112A8FDF77BFC0446DC
S31508008CE00028C7D012A8FFF711FA14A8FFF70EFA42
S31508008CF0002C88D1012110A8FFF72EFC002840F08F
S31508008D001D812A4639460EA8FFF702FD04460028AB
S31508008D107FF479AF0EA90CA8FFF721FA04460028BC
S31508008D207FF471AF294606A8FFF719FA044600280A
S31508008D307FF469AF294604A8FFF711FA044600280C
S31508008D407FF461AF01210AA8FFF7B8FA04460028A4
S31508008D507FF459AF014608A8FFF7B0FA0446002881
S31508008D607FF451AF014602A8FFF7A8FA0446002887
S31508008D707FF449AF01216846FFF7A0FA04460028A8
S31508008D807FF441AF0C9B1B68D8074BD5049B1B6827
S31508008D90DB0776D504A90CA8FFF796FB0028C0F2D6
S31508008DA0A3800CA9084604AAFFF70CFC0446002871
S31508008DB07FF429AF0AA9084602AAFFF703FC04466E
S31508008DC000287FF420AF08A96A460846FFF7FAFB91
S31508008DD0044600287FF417AF00210CA8FFF7BCFB58
S31508008DE00028CFD1002102A8FFF7B6FB0028C0F261
S31508008DF09180294602A8FFF767FB002880F2948035
S31508008E00304602A9FFF7ABF90446FCE614A9084662
S31508008E1012AAFEF74CF8044600287FF463AF012136
S31508008E2014A85AE701210CA8FDF7D4FB044600282C
S31508008E307FF4E9AE0A9B1B68DF0710D4089B1B6802
S31508008E40DC070CD401210AA8FDF7C4FB0446002858
S31508008E507FF4D9AE012108A8FDF7BCFB8EE70AA965
S31508008E60084606AAFFF790FB044600287FF4CBAE17
S31508008E7008A908460EAAFFF7A5FB04460028E1D074
S31508008E80C1E6012104A8FDF7A5FB044600287FF4E6
S31508008E90BAAE029B1B68D90714D4009B1B68DA0775
S31508008EA010D4012102A8FDF795FB044600287FF49B
S31508008EB0AAAE01216846FDF78DFB044600283FF45B
S31508008EC065AFA0E602A9084606AAFFF75DFB0446B9
S31508008ED000287FF498AE694668460EAAFFF772FB2B
S31508008EE004460028DDD08EE604A908460CAAFFF73A
S31508008EF069FB044600287FF486AE02A908460AAA3A
S31508008F00FFF760FB044600287FF47DAE6946684695
S31508008F1008AA5BE702A92A460846FFF735FB044676
S31508008F2000283FF45FAF6EE602A92A460846FFF717
S31508008F3049FB044600283FF45CAF64E66FF00D0475
S31508008F4061E66FF0030479E637B545780C46012DDE
S31508008F5013460ED101AB406832F05DFF034628B1D7
S31508008F600A4B04220A4915F06BFB0346184603B060
S31508008F7030BD0178012906D12246083003B0BDE884
S31508008F8030400DF001BA034BF0E700BF179E010809
S31508008F90A4BD0408809CFFFF2DE9F04398460023F2
S31508008FA085B005460C46174600F110016A4638306A
S31508008FB0CDE90033CDE90233DDF83090FFF7C4FF81
S31508008FC0064658B16B6E43F010036B66684610216F
S31508008FD013F04AFA304605B0BDE8F0830DEB0401FC
S31508008FE00446221D974209D2A742EFD918F8043041
S31508008FF00A5D534009F804300134F5E758F804309F
S315080090000859434049F804301446EAE7416E38B532
S3150800901001F00303032B044634D1826A22B9436B59
S31508009020023B012B1AD80262256B2378681E03437C
S31508009030606A023A003818BF012043EA801300200C
S31508009040520843EAC2032370236AC2B2954200F16A
S31508009050010006D853B141F0100161666FF00C00AB
S315080090600FE0C2F10F02A3541B0AEEE7224621467F
S3150800907004F13800FFF768FF18B1636E43F0100378
S31508009080636638BD0020FCE738B590F844300446DE
S31508009090012B11D1C56B4DB12B7A012B02D1686812
S315080090A014F0FAFF0C21284613F0E8F92046BDE82B
S315080090B03840482113F0D8B9006C18B14FF4AE7196
S315080090C013F0DCF9E06B0028F0D02368DA79044B5A
S315080090D002F07C0213441B6A9B699847E6E700BFC7
S315080090E094BD040838B505460C46A9B148220021A6
S315080090F040F081FCE279094B02F07C0213441B6ABA
S315080091005B6913B900202C6038BD9847E8630028CE
S31508009110F8D1A0F5C340F7E70148F5E794BD040880
S31508009120009FFFFFF8B5046C0E460734E4089C421E
S3150800913028BF1C461146054622463046FFF716F953
S315080091400746C8B92B6CE100B3EBC40F0DD3343511
S3150800915029463046FFF7B8F900280DDB2A4631467E
S315080091603046BDE8F840FFF72DBA3046C91AFDF774
S3150800917031FA0028EBD007463846F8BD0346C069E1
S3150800918020B15B6A002B14BF012002207047002221
S315080091900123C0E90023C0E90223C0E9042370477C
S315080091A038B5002401250146C0E90254C0E9045433
S315080091B00470446085611C30FFF7E9FFC1E90D457D
S315080091C0C1E90F44C1E91144C1E91344C1E9154491
S315080091D0CC6538BD10B50446FFF7E2FF002201232F
S315080091E004F16800C4E91823BDE81040CFE738B594
S315080091F004460D46FEF7B3FF70B905F1080104F100
S315080092000800FEF7ACFF38B905F1100104F11000AB
S31508009210BDE83840FEF7A3BF38BD10B501210446A6
S31508009220FFF74CF860B9012104F10800FFF746F88A
S3150800923030B9014604F11000BDE81040FFF73EB80A
S3150800924010BD2DE9F84380460D4616461F4613B94C
S315080092501D48BDE8F8830430FFF784F80446404605
S31508009260FFF78CFF012881462BD113782BB9012FE4
S31508009270EED12846BDE8F843CFE70734E40804F101
S315080092800108B845E4D822462846711CFFF76EF84F
S315080092900028DED1494605F11000FFF70FF800282F
S315080092A0D7D13378042BD3D163000133BB42CFD156
S315080092B0224606EB080105F10800BDE8F843FFF76A
S315080092C055B80248C5E700BF80B0FFFF80B1FFFF71
S315080092D0F8B50C460646114620461A46FFF793F996
S315080092E0054660BBB76C37B921462046321DBDE836
S315080092F0F840FFF70DBAB4F90430002B04DA01463A
S315080093002046FFF729F968BB2046FFF72BF8F36BD1
S31508009310B0EB430F26D82046B847054678B9043639
S31508009320B4F90430002B04DA00212046FFF714F9BB
S3150800933038B931462046FFF7C7F800280ADA284622
S31508009340F8BD324621462046FFF71EF90028E7D029
S315080093500546F4E7324621462046FDF7A8FD0028D3
S31508009360E7D0F5E7004DEAE780B0FFFF2DE9F743C0
S3150800937001F110060546894630460021FFF7ECF84C
S315080093800446A0B300230127314668462A1DCDE9C5
S315080093900037FFF7FFFB044630BB09F108086B46A8
S315080093A0424641462846FFF793FF0446E0B96B4616
S315080093B06A4669462846FFF78BFF0446A0B96B46FE
S315080093C04A4649462846FFF783FF044660B96B4676
S315080093D0424641462846FFF77BFF044620B93946F0
S315080093E03046FEF76BFF04466846FEF78FFE2046BA
S315080093F003B0BDE8F083F7B50D4601230021083513
S3150800940004462846CDE900131646FFF7A5F8211DA0
S3150800941007462A466846FFF7D5F8044648B9002F96
S315080094200CBF002206F0010269462846FEF726FE12
S3150800943004466846FEF76AFE204603B0F0BD2DE9ED
S31508009440F0430E460546012189B006F11000FFF7E4
S3150800945083F80446002840F086802846FFF78EFEEB
S315080094600128804640F0818021463046FFF774F88F
S31508009470002878DB06F1080921464846FFF76CF80C
S31508009480002870DB2F1D39463046FFF71DF80028E7
S3150800949069DA39464846FFF717F8002863DA4B4673
S315080094A04A46284602A9CDE90248CDE90448FFF70D
S315080094B00FFF044600284CD133463246284604A9F5
S315080094C0FFF706FF0446002843D1EB68002B36D188
S315080094D0032301934FF0011304A90793084601AB30
S315080094E006AA0693FFF76EF8044690BBBDF914303A
S315080094F0002B04DA002104A8FFF72EF8C8B904AA3D
S31508009500334611462846FFF7E3FE044608BB04AA7D
S315080095101146284605F11403FFF738F80446C0B982
S3150800952004A902A8FEF7D0FF114B041E18BF1C465B
S315080095300FE004A93A460846FFF726F8D4E704AA36
S315080095401146284605F10C03FFF720F804460028C3
S31508009550D5D002A8FEF7DAFD04A8FEF7D7FD204607
S3150800956009B0BDE8F083024CF9E7024CF7E700BF03
S3150800957080B3FFFF80B0FFFF38B50546FFF7FEFD55
S3150800958001280C4601460ED12046FEF7E5FF0028C5
S315080095900BDB204605F13401FEF796FF0028044848
S315080095A0B8BF002038BD0348FCE70148FAE700BF0A
S315080095B080B3FFFF80B0FFFF73B505461E46FFF771
S315080095C0DDFD01280C4601460ED1134620460096BD
S315080095D005F13402FFF733FA044B10F10E0F18BFEA
S315080095E00346184602B070BD014BFAE700B3FFFF09
S315080095F080B0FFFF70B5066C0D460736B3EBD60F85
S31508009600114604464FEAD60203D200230A482B60C5
S3150800961070BDB0F866302A604BB1FFF7AFFD012880
S3150800962007D104F16000BDE87040FEF7CDBE0348DF
S31508009630EEE76FF06D00EBE700B1FFFF80B0FFFFCC
S3150800964038B50C46051D29462046FEF73DFF00287D
S3150800965001DA002006E02A4621462046FDF727FCC7
S315080096600028F0D038BD2DE9F84F1E4603F108054D
S31508009670C36804468A469046002B40F0C08002F133
S3150800968010031A462946FFF723FE002840F0EF800C
S3150800969006F110072B46424639462046FEF776FF66
S315080096A0002840F0E48006F118092B464246494650
S315080096B02046FEF78AFF002840F0D9804B463A46F6
S315080096C029462046FFF704FE002840F0D0800322F2
S315080096D029463046FEF706FE002840F0C880314687
S315080096E02046FFF7ADFF002840F0C18008F1080BBF
S315080096F006F110075B465A4639462046FFF7E8FD4D
S31508009700002840F0B4803946204633F049FD002849
S3150800971040F0AD803B46424629462046FFF7D8FD35
S31508009720002840F0A4802946204633F039FD002859
S3150800973040F09D8006F118093B463A4649462046C0
S31508009740FFF7C6FD002840F092804946204633F0D0
S3150800975027FD002840F08B8033463246394620469E
S31508009760FFF7B6FD002840F082802B463A46394678
S315080097702046FEF72AFF002879D12B463A46394675
S315080097802046FEF722FF002871D13B462A46294685
S315080097902046FEF71AFF002869D133462A4629468D
S315080097A02046FFF795FD002861D14B462A462946F3
S315080097B02046FEF70AFF002859D15A464946204650
S315080097C008F11003FFF784FD002850D149462046CA
S315080097D033F0E6FC00284AD139465046FEF7BFFC6E
S315080097E0002844D129460AF10800FEF7B8FCF0BB68
S315080097F049460AF11000BDE8F84FFEF7B0BC13461B
S315080098002946FFF765FD90BB032229463046FEF739
S3150800981069FD60BB31462046FFF712FF38BB04F1ED
S315080098200C0701463846FEF797FE00283FF45EAF60
S3150800983008F110031A4629462046FFF749FDB0B934
S3150800984006F110092B462A4649462046FFF740FDF1
S3150800985068B93B464A4629462046FFF739FD30B9DE
S315080098602B46324631462046FEF790FE3BE7BDE8DA
S31508009870F88F2DE9F14F9A461B6904460E46914624
S315080098800A9D002B00F0D18002F11007002138460E
S31508009890FEF762FE28B95146304601B0BDE8F04FE2
S315080098A0A5E40AF1100800214046FEF755FE08B95E
S315080098B04946F1E701214046FEF74EFE002840F0F2
S315080098C0B4803B463A4629462046FFF701FD002864
S315080098D040F0AC8005F108083B462A46414620463A
S315080098E0FFF7F6FC002840F0A18053462A46294691
S315080098F02046FFF7EDFC002840F098804246414696
S3150800990020460AF10803FFF7E3FC002840F08E80A2
S315080099104B462A4629462046FEF757FE002840F0C1
S31508009920858009F1080B5B46424641462046FEF70C
S315080099304CFE00287AD100212846FEF70DFE014686
S3150800994080B94046FEF708FE38B92B464A463146E6
S31508009950204601B0BDE8F04F85E6304601B0BDE8C7
S31508009960F04F5AE42B463A46204606F11001FFF717
S31508009970AFFC00285AD105F110072B462A4639466E
S315080099802046FFF7A5FC002850D105F1180A2B46FA
S315080099903A4651462046FFF79BFC002846D14B46DF
S315080099A03A4639462046FFF793FC00283ED1394609
S315080099B02846FEF7D4FBC8BB2946204633F0F0FB01
S315080099C0A0BB4346424631462046FFF781FC68BBAA
S315080099D02B46324631462046FEF7F7FD30BB534646
S315080099E0324631462046FEF7F0FDF8B933463A4688
S315080099F039462046FEF7E9FDC0B943463A46394698
S31508009A002046FFF765FC88B95B4652465146204614
S31508009A10FFF75EFC50B953463A46204606F1080160
S31508009A2001B0BDE8F04FFEF7D0BD024801B0BDE871
S31508009A30F08F00BF80B0FFFF10B50446FEF766FB47
S31508009A4004F10800FEF762FB04F11000BDE81040BF
S31508009A50FEF75CBB00B1EFE7704770B5044658B334
S31508009A60436C012B11D00C30FEF750FB04F11400A7
S31508009A70FEF74CFB04F11C00FFF7ECFF04F1340081
S31508009A80FEF744FB201DFEF741FBA36D8BB920466C
S31508009A90BDE87040602112F0E7BC06FB0500FFF741
S31508009AA0D9FF0135D4E91603AB42F6D8FDF7C4F859
S31508009AB0EDE700251826F5E770BD10B50446FFF753
S31508009AC0CCFF04F16000FEF721FB04F16800BDE855
S31508009AD01040BFE700B1F0E7704738B504460D46B9
S31508009AE0FFF7BBFF2046FFF75BFB022D25702DD045
S31508009AF0032D47D0012D60D1324B334AA364334B33
S31508009B00A260A261A2632262A26203F1600262629B
S31508009B104FF0011203F11801616103F1300161632D
S31508009B2003F148016360E16122637833E362201D33
S31508009B30FEF718FCE06304F13400FEF713FC20641A
S31508009B4000200123C4E91600636438BD204B214A6E
S31508009B50A364214BA261A360204BA2632262A26286
S31508009B6003F1740262624FF0011203F12001616190
S31508009B7003F13C01616303F158016360E16122630B
S31508009B80043BD3E7164B144AA364164BA260A261A2
S31508009B90A2632262A26203F1800262624FF001129E
S31508009BA003F12001616103F14001616303F1600182
S31508009BB06360E1612263943BB8E700230A48237097
S31508009BC0C3E700BF8D6F000801000600C0BD04088A
S31508009BD05970000801000700010008003CBE04088F
S31508009BE033720008CCBE040880B1FFFF2DE9F041AE
S31508009BF00024AEB04FF44051CDE90C40039008A8BC
S31508009C00FDF773FE904B91480B9340F2011306AA99
S31508009C10CDE9080305A908A8CDE90544039432F05F
S31508009C2061FD002836D1059D099E2A6A9AB1099BCD
S31508009C30059D1B0A2E6A55F8247F79D0012B00F062
S31508009C40D680059C206A10B1616A12F017FC0023C1
S31508009C50C4E908331EE0360A63D1BDF82070BDF8A2
S31508009C602240384612F022FC78B12146384612F0D6
S31508009C7025FE78B907F4E043B3F5805F02D0B3F563
S31508009C80005F0DD10734E6081AE027F0FF03B3F5A5
S31508009C90E24F39D0059808B113F0A0F8012074E016
S31508009CA007F44F42B2F5844FECD047F201029742CF
S31508009CB00ED164080134E40804EBC40404F13B063D
S31508009CC007962846079912F028FE0028AFD0E1E744
S31508009CD044F20102974203D1E40804F11006EFE7C3
S31508009CE047F20202974205D1E40804EB440404F162
S31508009CF05A06E5E744F20202974205D1E40804EB66
S31508009D00440404F14A06DBE727F0FF00B0F5E24F0A
S31508009D10B8D0B0F5824F01BF0734E4086400661C6A
S31508009D20CEE707A908A813F0CDFD0028C9D0B1E7EA
S31508009D30BDF820305A040CD4BDF82080404612F0F5
S31508009D40B5FB044620B33946304613F03FFD0446BA
S31508009D5011E003F4E043B3F5805FEDD0B3F5005F9F
S31508009D60EAD02B463A46314608A80CF0C7FF10F150
S31508009D70860F0446E0D00598002C7FF462AF03A94D
S31508009D8033F01DFA002885D120462EB0BDE8F081B3
S31508009D9028F0FF03B3F5E24F7FF453AF5FFA88F874
S31508009DA0B8F1120FBDF8223007D1E02B0ED0B3F56B
S31508009DB0807F0DD0C03B5C425C41254B1A78002A57
S31508009DC03FF43FAFA24219D00C33F7E70224F4E779
S31508009DD00324F2E73B46324629460EA8FFF70AFC5B
S31508009DE012F070FB04460EA8FFF767FEC3E72B4682
S31508009DF03A46314608A80CF081FFA8E70EA8FFF7F7
S31508009E00E9F921460EA8FFF768FE0446A0B9DFF86F
S31508009E1044802346424626A90EA8FFF7CDFB0446F2
S31508009E2050B9CDF8008015AB26AA28A90EA832F09D
S31508009E30FBFF04460028CDD00EA8FFF73EFE2046BD
S31508009E4012F040FB83E700BFFF060006127100010F
S31508009E506CBF0408A9D801082DE9F0410D46014652
S31508009E60284617469846FFF738FE0446B0B92846EE
S31508009E70FFF784F9012805F1600612D142463946F2
S31508009E803046FEF773FA044628B931462846FFF7E6
S31508009E9073FB044610B13046FEF738F92046BDE894
S31508009EA0F081014CF7E700BF80B1FFFF10B504460B
S31508009EB000B30368F3B1806838B12279012A11D159
S31508009EC012F0ACFFA068FCF7B7FEE06820B1236883
S31508009ED09978490012F0D2FA2046BDE810401021C0
S31508009EE012F0C2BA1B78082B01D0092BEAD10DF063
S31508009EF0CAFDE7E710BD2DE9F0410E4617460546AF
S31508009F0088B000286DD00368002B6AD0C268002A82
S31508009F1067D09B78BB4214D2FCF78FFC0446002816
S31508009F203BD13A4631462846FCF7BEFC0446A0BB60
S31508009F3069462846FCF7FCFC044670BB6E462B684F
S31508009F405F782B68D5F80C809A783621404608EB5E
S31508009F5002043FF050FD2B685C219A7820463FF0BA
S31508009F604AFD0023191D8F4208EB03021DD29F42AA
S31508009F7023D80023191D8F4204EB030224D29F42E3
S31508009F8028D82846FCF759FC044630B92B684146C0
S31508009F9028469A78FCF788FC04462021684612F081
S31508009FA063FA204608B0BDE8F081F25858F8030075
S31508009FB0424048F803200B46D4E7F05C1178013399
S31508009FC0414002F8011BD2E7F258E0584240E250FD
S31508009FD00B46CFE7F05C11780133414002F8011BCC
S31508009FE0CDE7014CDDE700BF00AFFFFF2DE9F047E5
S31508009FF0066805460F4690468AB006B1767897B346
S3150800A000B8F1000F0CBF4FF001094FF00209002309
S3150800A010294C05F1100A99458DF804301BD92846B4
S3150800A020FCF772FC0446B0B9324651462846FCF79E
S3150800A0305DFC044678B90122284601A9FCF756FCBE
S3150800A040044640B9B9F1020F10D0284602A9FCF718
S3150800A05097FC044698B102A8202112F005FA20467A
S3150800A0600AB0BDE8F0874FF00109D0E74246394605
S3150800A0702846FCF73BFC04460028E6D0EBE73246C8
S3150800A080284602A9FFF737FF04460028E3D13246DF
S3150800A09051462846FCF72AFC04460028DBD15146DF
S3150800A0A02846FCF76DFC04460028D4D19DF80430F8
S3150800A0B00133DBB2AFE700BF00AFFFFF2DE9F8437E
S3150800A0C0066804460F46154606B17678B5F5806FDC
S3150800A0D03BD8236C63B904F11008BDB92A46294652
S3150800A0E02046FFF783FF78B9236B013323630BE020
S3150800A0F0A36B012B03D0226BE36B9A42EBDD204660
S3150800A1002BF09CFC0028E6D0BDE8F883AE4220463A
S3150800A110B14628BFA946FCF7F7FB0028F4D132461A
S3150800A12041462046FCF7E2FB0028EDD14146204691
S3150800A130FCF726FC0028E7D138464A4641463FF058
S3150800A14062FC4F44A5EB0905C7E76FF00200DBE7A1
S3150800A15010B50446006810B1616812F08FF9A0685E
S3150800A160FCF76AFD2046BDE810400C2112F07CB9C8
S3150800A170F7B50D46044600B9FEE7037F03F0FF0670
S3150800A18003B1FEE70E4B1B68994215D840F2E7303B
S3150800A19031460C4B4FF47A721F680023E5FB070122
S3150800A1A03EF038F90123CDE9006301462346064A05
S3150800A1B0606840F01BFA00B1FEE703B0F0BD00BFCF
S3150800A1C0841E0020801E0020D1B3040800B9FEE7D3
S3150800A1D0406840F05DBA70B5EFF3108672B64FF07E
S3150800A1E0FF303EF051FF0446074B5A6F58678242CC
S3150800A1F088BF9A6F304684BF01329A679D6F41F0D7
S3150800A200A0F82046294670BD986300202DE9F04F36
S3150800A2102DED028BBC48DFB041F0EEF8BA4841F0AC
S3150800A220EBF80123002204211EA8ADF87830B74CBC
S3150800A23009F005F8B44841F0DFF8B54841F0DCF814
S3150800A240636823B140F6FF7120460BF02FFAAF483A
S3150800A2500BF0A8FA2369002123F0870343F0810352
S3150800A26023612369AB4A23F0F80343F08003236193
S3150800A270E368A64823F0F04323F47023E360A36859
S3150800A28023F0030343F00103A360A368A360A36854
S3150800A29043F48063A360636A23F4772323F4EE63AD
S3150800A2A043F480236362636923F00F0343F00203D8
S3150800A2B06361A1610BF0A0FA052194480BF06FFACF
S3150800A2C0924A936CDB4313F440530793F9D14FF446
S3150800A2D081730122042118A8ADF8603008F0AFFF99
S3150800A2E040F202230121079A16A8ADF8583008F063
S3150800A2F0A6FF40F2023340F202440122042115A8C7
S3150800A300ADF8543008F09BFF0421012214A8ADF8DB
S3150800A310504008F094FF804B804A4FF44870C3F8C9
S3150800A320C8244FF00212C3F8C424A2F58032C3F839
S3150800A330CC241C22C3F8B424FCF7C2F91EA8ADF835
S3150800A340784009F01FF81420FCF7BAF91EA8ADF8F2
S3150800A350784008F0EDFF2320FCF7B2F91EA8ADF807
S3150800A360784009F00FF8694B9A6C5006FCD5B9226B
S3150800A3705A649A6C1106FCD540F202441EA8DB6B9F
S3150800A380ADF8784008F0D4FF00224FF481731146E7
S3150800A3901EA8ADF8783008F052FF002240F20223DA
S3150800A3A0114613A8ADF84C3008F049FF40F20233C5
S3150800A3B00122002112A8ADF8483008F040FF01221A
S3150800A3C0002111A8ADF8444008F039FF4F480BF0BA
S3150800A3D0E9F90021504B4E48C3F8B414C3F8C81421
S3150800A3E0C3F8C414C3F8CC1440F06CFF4FF00063F4
S3150800A3F09B6A03F17842B2F5C04F64D21A68484B9B
S3150800A4009A4260D1474C94F88F5015F0FD055AD101
S3150800A410454E3378002B00F04182022333704FF00B
S3150800A42001084FF48037414B0020C3F88081404B28
S3150800A430DF600DF0BDFC3F4B1F614FF000639B6A68
S3150800A440DB69984796F800900746C14540F0D982DF
S3150800A45008F058FE013040F0C282D4F8A020364BEE
S3150800A4601A66D4F8A4205A66D4F8A820C3F870212E
S3150800A470D4F8AC201A64D4F8B0205A64D4F8BC20B6
S3150800A480D20700F1BB822D4B9A68013207D194F8A6
S3150800A4908F2022B92A494968C90748BF9A60D4F863
S3150800A4A0B420284B5A66D4F8B8209A663AF0AAFB24
S3150800A4B0D4F8903083F31188BFF36F8F357017B9CE
S3150800A4C0012384F88F301D4F4FF40031FA68531C6E
S3150800A4D004BF1D4BD3F894204FF0502308BFFA60F1
S3150800A4E0D607196700F18F8201210C46084604FA3F
S3150800A4F000F3134001F1010100F08782134B03EBCF
S3150800A5004003B3F8083323E04CB5040800000A50AA
S3150800A51098C00408E070720000C0035002000300EF
S3150800A52007B0CD5E98630020D01B002000E100E054
S3150800A53000A0004400900044008000444C790020AC
S3150800A54000C00550008000500040005094BD04082B
S3150800A550B34A062B1168B34E0F918AB24FEA1141DE
S3150800A56040F05A824FF20F03994240F05282B2F5F8
S3150800A570406F28BF4FF4C062A6F8C0204FF00053C2
S3150800A5804CF23C325A80A84A536A43F47023536209
S3150800A590EFF308834FF0CD31A44A043B934280F091
S3150800A5A04D820AF09DFDA24840F026FF4FF4407305
S3150800A5B0012204211EA8ADF8783008F040FE0122D9
S3150800A5C09C4BC3F84424EFF31184302383F311889A
S3150800A5D04FF460700AF0B2FD84F31188BFF36F8FF1
S3150800A5E0914B00F5D520D3F8F02000F2FC4042F05C
S3150800A5F00102C3F8F020D3F8FC208F4C42F0807299
S3150800A600C3F8FC208D4AA3F55D431A608C4B0222E1
S3150800A610B0FBF3F08B4B01381861C3F8F0204FF408
S3150800A6208072C3F804234FF06043874A8048C3F812
S3150800A630B02F864AC3F8802ED3F8002E42F48072D3
S3150800A640C3F8002EFF2283F82020D3F8002E22F428
S3150800A6508072C3F8002E40F0CFFE23689D0106D411
S3150800A6604FF000731920C4F880310DF0A1FB236860
S3150800A670580106D44FF080631A20C4F880310DF0D3
S3150800A68097FB4FF060440221D4F8003E1EA843F41D
S3150800A6908073C4F8003E6E4BCDE91E1334F0C6FF36
S3150800A6A00122D4F8003E042123F48073C4F8003E46
S3150800A6B01EA8ADF8782008F0C2FD96F83D100229CC
S3150800A6C003D196F83C30072B1BD096F83C30DA07B6
S3150800A6D003D443F0010386F83C3096F83C309D07D6
S3150800A6E05FBF012243F0020386F83C3086F87C24DB
S3150800A6F096F83C2011B9D40700F1A381500740F120
S3150800A700A7813FF0BDFB484B00245B680DF05EFB5C
S3150800A7100BF088FB4FF0020C4E4BDFF870E1CDE9E9
S3150800A7201EC34FF04073CDE920E305231EA94FF061
S3150800A730FF3022933EF095FC00214FF0FF303EF0AB
S3150800A74093FC36F01FFE4022002143483FF053F9A0
S3150800A7503022002141483FF04EF93F48404B414ADC
S3150800A760DFF82C91DFF82C81DFF82CB1A3F1180E55
S3150800A77000F1400C4FF0240A00210AFB04FA3A4D76
S3150800A78043E9061043E9025B0EEB0A0543E9049820
S3150800A79029772962182505FB04C542F8145C334D50
S3150800A7A042F8181C42F8105C314D43F8241B42F855
S3150800A7B00C5C304D203042F8085C2F4D42F8045CA2
S3150800A7C02E4D554429772962012542F8241B002C71
S3150800A7D000F0438128463FF039FE8046002840F0C5
S3150800A7E056824FF6FF73ADF83830254B7F21C6F8F1
S3150800A7F0803441F60B23706610222248A6F868308A
S3150800A8008DF83A503FF0F7F87F2386F834354FF045
S3150800A810FF331E931C4B1B6AD90700F12081FEE704
S3150800A820000000209863002000ED00E008000020EA
S3150800A8304CB5040800D0035000E100E0FF030040D7
S3150800A840F8590D00000004E055CEACC5090001001A
S3150800A850006A1810006A18005C6400209C640020D6
S3150800A86078210020C02100201B6600080567000823
S3150800A8700D6200081366000835670008A821002045
S3150800A880B1A80408BC6800200080E00F000304009B
S3150800A89071A1000813620008CDA1000801271695CA
S3150800A8A018953770EFF31183302282F31188C4F8B4
S3150800A8B090303AF09FF994F8943063B90AF010FC96
S3150800A8C048B90823A049A14804F1980209F0C6FA34
S3150800A8D008B984F894709E4B5A6EC4F8B4209B6EDF
S3150800A8E09C4AC4F8B8304FF4804393669A4B59682B
S3150800A8F0C4F8BC1099499960196EC4F8A010596E2D
S3150800A900C4F8A410D3F87011C4F8A810196CC4F8C8
S3150800A910AC10596CC4F8B0109149086C1864496CAD
S3150800A9205964012151661B6E9A043CD58D4AD36839
S3150800A930DB07FCD48C4B9A68501C39D04FF4801333
S3150800A94093408A4A13660422884B4FF400211A66FC
S3150800A9504FF400721A6608221A664FF480521A6675
S3150800A9604FF00062976A1A66596607F17843B3F59D
S3150800A970C04F07D200231EA820932BF003FB209B71
S3150800A980590527D4169A794B1A66189A5A6694F86E
S3150800A9909420002A3FF443ADD4F898201A66D4F8D8
S3150800A9A09C205A663BE5724AD368DF07FCD4C1E7A8
S3150800A9B094F88F30002BC6D14FF40072654B5A6657
S3150800A9C003F5A6235B68002BBDD14FF48012674BB5
S3150800A9D01A66B8E73B6C18A916A89847D2E708F094
S3150800A9E091FB40F2011398423FF437AD614B5D4A43
S3150800A9F0C3F86490D368D807FCD42EE500229A6081
S3150800AA0041E545465AE5002078E510297FF46EAD04
S3150800AA109EE54FF4C062AFE540F2072083420AD1B3
S3150800AA204FF20F00814206D19A4202BF4FF0005200
S3150800AA304CF23C315180A6F8C030A4E543F804191D
S3150800AA40ACE54D48FCF790FD022386F83D3055E607
S3150800AA5042F0040286F83C2053E62C468AE6474B29
S3150800AA6042461B884649A6F89034464B1EA81B68E2
S3150800AA70A6F89684C6F89834434BC6F8A0841B8873
S3150800AA80A6F89234414B1B68C6F89C3436F0D8FCBD
S3150800AA9000B1FEE73E491E9837F000F800B1FEE720
S3150800AAA002211E983EF09DF900B1FEE739491E982D
S3150800AAB037F0FAF900B1FEE729461E983EF0A2FBE8
S3150800AAC000B1FEE729461E983EF0AAFB054600B1EE
S3150800AAD0FEE701463C2230483EF08DFF2B46802299
S3150800AAE02E491E9800953EF081FA00B1FEE7012135
S3150800AAF01E9836F00BFD1E98706000B9FEE710A38D
S3150800AB00D3E90023CDE900234FF0FF324FF0FF339E
S3150800AB103EF0D7F9014600B1FEE72148FBF711FEE2
S3150800AB20012108463FF07CFC70680EA936F0C6FC89
S3150800AB30DFF86C800546A8B3FEE700BFAFF30080D8
S3150800AB400AE020FF2202000000710800D81B00203E
S3150800AB5000800050009000500080004455CEAC00A4
S3150800AB6000C00054000004404C79002000900044C6
S3150800AB700000045000900040D8630020E61F050836
S3150800AB8018680020EC1F0508E41F0508E81F0508DB
S3150800AB9007001100BCC004081C2100203C680020E6
S3150800ABA0FC6300204E4B08F2D142988018604D4B4A
S3150800ABB0A6F8BC051A609880FF2386F8E03508F2E7
S3150800ABC08453C6F8B83508F20463C6F8C4359C231E
S3150800ABD086F87D3013F0FCFD056013F025FF031D94
S3150800ABE000F1B402194610339A42056016D196F858
S3150800ABF068300B2B16D896F869300A2B12D9C6F886
S3150800AC006C800BF00FF90020FCF7B2FF0822706881
S3150800AC1011463EF058F9054628B1FEE743F8105CA0
S3150800AC200D46DFE7FEE7014670683EF016FB2E4B41
S3150800AC301D70EFF3108072B64FF01009DFF8BC8074
S3150800AC40C8F80050C8F80850A8F8049040F079FBF6
S3150800AC50264B1E95C8F808308C23254D4FF40C60FA
S3150800AC601EA9C5E9029332F03FFB00282ED10F2218
S3150800AC701E9BC5E90033E968013A19441960E96879
S3150800AC8092B20B44002AF6D14FF0FF321A60FB68E5
S3150800AC904FF40032013302BF164BD3F89430FB60F1
S3150800ACA04FF05023144F1A6707F5405595F84C3B5B
S3150800ACB00693002B41F01E81C7E90133FB604FF66E
S3150800ACC0FF73B6F87886984501D1FEE7FEE7B8F136
S3150800ACD0000F1ED1042110A8FCF785FE80B1FEE7FF
S3150800ACE0E8200020401E00205D210020CDB3040886
S3150800ACF030280020004000504028002098200020DE
S3150800AD00109B23B16FF00042934218BF1C46C6F849
S3150800AD107C4608F10108A6F8788619F01BFE00247F
S3150800AD20DFF8FC83E34B786100F180414046FB6124
S3150800AD30C7F82480BC6102F0BBFCDF4B2D22C7E9B3
S3150800AD400C34DE4BC7E90A44BB6408F12C033B65A7
S3150800AD502346C7E90E4487F840407C64FC6508F141
S3150800AD604408013A414608F1800840F0BD8404B120
S3150800AD70FB654FF00008D24C4FF0010904F27460ED
S3150800AD80C4F8608684F86886C4F86C86C4F8708649
S3150800AD9013F034FDCB4B8C22C4F88436032384F895
S3150800ADA092364FF44043A4F89436C74B4146C4F84C
S3150800ADB0343704F5D46004F23473C4F83C37C4F865
S3150800ADC08886C4F88C86A4F89096C4F89886C4F841
S3150800ADD09C8684F82C87C4F830873EF00CFE04F273
S3150800ADE05473C4F8803704F26C73C4F8983704F2C5
S3150800ADF08473C4F8B03704F29C73C4F8503704F56A
S3150800AE00F763C4F8E03704F5FA63C4F8F83704F5CD
S3150800AE10FD63C4F8103804F50063C4F8B437C4F801
S3150800AE204087C4F84487C4F84887C4F84C87C4F8F0
S3150800AE306887C4F8C88784F81888C4F81C8802F09C
S3150800AE4041FBA24B04F61C0AC4F8243804F6240372
S3150800AE50C4F82C389E4BA4F82008C4F8443804F6E5
S3150800AE604403C4F84C3804F50463C4F85038994BC5
S3150800AE7004F66400C4F86038C4F830A8C4F8348806
S3150800AE80C4F84088C4F85488C4F858881CF0BEFF33
S3150800AE90914B8022C4F88838904B4146C4F838381C
S3150800AEA08F4B04F50B60C4F85C388E4BC4F88CA83D
S3150800AEB0C4F8A43804F6A403C4F8AC38C4F83CA80B
S3150800AEC084F89C98C4F8A0883EF095FD04F63410E2
S3150800AED01CF09CFF844B04F67C10C4F8583904F522
S3150800AEE01363C4F85C39814BC4F86C89C4F87039AB
S3150800AEF004F51763C4F8783933F004F84FF4E163BE
S3150800AF00C4F8D8394FF4E153C4F8EC39784B04F651
S3150800AF10FC10C4F8F03984F89C8984F8CD89C4F803
S3150800AF20D089C4F8D489C4F8E089C4F8E489C4F897
S3150800AF30E889C4F8F489C4F8F8891CF067FF6D4BF2
S3150800AF40C4F8488AC4F8203A04F51D63C4F8243ABC
S3150800AF50694B6A49C4F8503A04F52563C4F8583A67
S3150800AF60674B684AC4F85C3A04F65C23C4F8643A4A
S3150800AF70072384F84A3A04F6D823C4F8243C04F68E
S3150800AF800843C4F8D43A604BC4F83C1AC4F8503D98
S3150800AF9004F55563C4F8583D4FF0FF33C4F8708A7A
S3150800AFA0C4F8403DC4F8443DC4F8483DC4F84C3D97
S3150800AFB0C4F8348AC4F8388AC4F84C8AC4F8688A4B
S3150800AFC0C4F86C8A84F8709AC4F8408AC4F8448A2B
S3150800AFD0C4F8F48AC4F8388DC4F83C8DC4F85C8D7E
S3150800AFE0C4F8608DC4F8649DC4F8688DC4F86C3DD7
S3150800AFF0C4F8703DC4F8743DC4F8783D434B04F674
S3150800B0009C50C4F87C2DC4F8903D04F67C5204F597
S3150800B01059631531C4F8842DC4F8983DC0E90088F1
S3150800B020C4F8888DC4F88C8D05F043F8384904F6C1
S3150800B030A45084F8A48D84F8B58D05F0EEFB32F0A3
S3150800B040ABFD344904F6B55005F0E7FB04F6D450D9
S3150800B05084F8CA8DC4F8D08D35F028FF04F6E4507C
S3150800B06035F024FF4FF01C73C4F8043E2A4B04F64F
S3150800B0701C60C4F80C3E04F60C63C4F8143EC4F80D
S3150800B080F88DC4F8FC8DC4F8008EA4F8088E35F047
S3150800B0900DFF04F56360C4F82C8E1DF007FB94F8C9
S3150800B0A0343ECDF8208068F3000384F8343E1B4B09
S3150800B0B0059337E0E5D60008FD1901082BE30008DB
S3150800B0C0403800209D6202083D630208714A020862
S3150800B0D08D510208A1070208254E020809DC02085C
S3150800B0E09926030827DC0208DD1701083D17010821
S3150800B0F000751200E5780208199F0208E8C00408DE
S3150800B1003F620208850A01087B0A0108E9C80008A7
S3150800B11057B6040862B60408C98902080100020085
S3150800B1205C2800201822002118A83EF064FC059827
S3150800B13018A912F0E9FF844678BB199B1B0A012B54
S3150800B1402BD0BDF86030B3F5885F26D040F20113E6
S3150800B1501993E44B0DF1780E1D930DF16009CDE9B5
S3150800B1601200B9E80F00AEE80F0099E8030063463D
S3150800B1708EE803006246059812A9CDE914CCCDF8ED
S3150800B18044C012F01AFF002800F0D682139800284F
S3150800B19040F0D783129812F0FBFE059BD24A013382
S3150800B1A00593089B43F1000308930899059B4145BD
S3150800B1B008BF9342B6D14FF0004310211EA8C4F829
S3150800B1C0CC3DC4F8183EFCF70EFC1EA90022C74861
S3150800B1D01DF022FCC4F8F48DC4F83C8E02F072F916
S3150800B1E084F8400E02F06EF9C14B0B22C4F8443EB7
S3150800B1F0C04B4FF0FF3BC4F8483E0F23A4F8543E1B
S3150800B200D4F85C3E84F8410E03F0FC03C4F85C3EB7
S3150800B210FB23A4F8703EB84BB84884F84C2E84F843
S3150800B220602EC4F8883E84F8428EA4F84E8EC4F880
S3150800B230508EC4F858BEC4F8648EC4F8688EC4F834
S3150800B240908EC4F8948E35F031FEAD4835F02EFE5A
S3150800B250AC4835F02BFEAC4BDFF8F092C4F8D03E84
S3150800B260AA4B09F1240AC4F8F43E4FF6FE73A4F873
S3150800B270763EA4F8783E4B4643F8568DC3F80480CC
S3150800B280B4F8823EA9F1380003F0FE0343F4FE4306
S3150800B29043F00103A4F8823EC4F8D89EC4F8FCAE75
S3150800B2A0A4F8F0BEA4F8728E84F8748EC4F8848E5E
S3150800B2B084F8CD8E04F082F8A9F1280004F07EF80F
S3150800B2C0A9F1180004F07AF84846C4F8C88E84F83C
S3150800B2D0CC8E02F0A5FA5046A4F8E08EA4F8DC8ECF
S3150800B2E084F8DE8EC4F8E48EC4F8E88EC4F8EC8ED2
S3150800B2F002F096FAD4F8883E09F1D800C4F8003F5F
S3150800B300834BC4F8088FC4F8043F824BC4F8A08F57
S3150800B310C4F80C3F09F13C03C4F8143FA4F8A68FFF
S3150800B32035F0C4FD1EA804F073F89DF8783009F1CD
S3150800B330D40023F0010343F002038DF8783002F0BD
S3150800B340F1FF8822002109F148003EF054FB94F8E9
S3150800B3503C3E43F0010384F83C3E94F8723E0BB938
S3150800B36030F034FBDFF8E88160481DF049FAB8F898
S3150800B370441E08F63C6002F049FF08F567601EA9FE
S3150800B38004F0C0F8B8F8761E08F5676004F0ADF862
S3150800B3904FF6FE73B8F8782EDFF8B8A19A424FF048
S3150800B3A0000918BFA8F8783ED04600225A495B48DB
S3150800B3B004F00DF85A4813F021FA94F8EC3F0AF114
S3150800B3C0140023F01F0384F8EC3F564B48F8109FEF
S3150800B3D0C4F8F03F544BC4F8F8AFC4F8FC3FC4F8BF
S3150800B3E0C89FA4F8CE9FC4F8D09F84F8DC9F84F841
S3150800B3F0E69FC4F8E89F13F001FA282249464B480D
S3150800B4003EF0F9FA2822494649483EF0F4FA4FF444
S3150800B410FA63C8E90839474BC8E90599C8F8A0305E
S3150800B4200AF1B003C8F8A830B8F8AC30C8E90A99E8
S3150800B43003F08003A8F8AC30C8E92599C8F81C9031
S3150800B44088F89090C8F89C9002F03CF84FF040635A
S3150800B450C8E92C394FF6FE73A4F8CC0F364CDFF842
S3150800B460F8C0C8E92F434FF47A734FF0F00EC8E9D5
S3150800B47031C3642300200021C8E933E32F4BCAE90E
S3150800B4803C01C8F838310AF5DC700AF5A473C8F827
S3150800B4904031C8E94C99C8F8B890C8F81C91C8F862
S3150800B4A0789188F893911CF0B1FC254BC8E98C99E2
S3150800B4B0C8F8CC310AF1C003C8F8D031214BC8E925
S3150800B4C09299C8F838320AF51273C8F840321E4BFA
S3150800B4D0C8E9BC99C8F850320AF51873C8F8583242
S3150800B4E03CE000BFF0000200080002000C46002005
S3150800B4F0FFFF0B0B00F8FF0750690020D846002015
S3150800B500E8460020F846002079D70008FDF700082D
