:020000040800F2
:100000000004002069050008EB720008EB7200088C
:10001000EB720008EB720008EB720008EB7200084C
:10002000EB720008EB720008EB7200086D9000089C
:10003000EB720008EB7200081190000857AB000843
:10004000EB720008EB720008EB720008EB7200081C
:10005000EB720008EB720008EB720008EB7200080C
:10006000EB720008EB720008EB720008CD5F00082D
:100070009D7C0008EB720008EB720008EB72000830
:10008000EB720008EB720008EB720008EB720008DC
:10009000EB7200088D100008EB720008EB7200088C
:1000A000EB720008990C0008790C0008EB7200084C
:1000B000EB720008EB720008EB720008EB720008AC
:1000C000EB720008EB720008EB720008EB7200089C
:1000D000EB720008EB720008EB720008EB7200088C
:1000E000EB720008EB720008EB720008EB7200087C
:1000F000EB720008EB720008EB720008EB7200086C
:10010000EB720008EB720008EB720008EB7200085B
:10011000EB720008EB720008EB720008EB7200084B
:10012000EB720008EB720008EB720008EB7200083B
:10013000EB720008EB720008EB720008EB7200082B
:10014000EB720008EB720008EB720008F9AA0008D5
:10015000EB720008EB720008EB720008EB7200080B
:10016000EB720008EB720008EB720008EB720008FB
:10017000013800D0FCE770470348044B834202D0AB
:10018000034B03B118477047C4210020C42100204D
:1001900000000000064B0749C91A891048BF013109
:1001A000491003D0044B0BB101481847704700BFFA
:1001B000C4210020C42100200000000010B5064C1E
:1001C000237843B9FFF7D8FF044B13B10448AFF3CA
:1001D00000800123237010BD001F002000000000DC
:1001E000B8C2000808B5054B1BB105490548AFF377
:1001F0000080BDE80840FFF7CDBF00BF0000000051
:1002000000040020B8C20008A3F5803A704700BF80
:10021000174B002B08BF134B9D46FFF7F5FF00213E
:100220008B460F461348144A121A07F0A6FD0E4BD0
:10023000002B00D098470D4B002B00D09847002092
:10024000002104000D000D48002802D00C48AFF337
:10025000008006F0EDFB2000290007F0C5FC06F049
:10026000F9F900BF000008000000000000000000D5
:100270000004002000040020D41F00200000000023
:10028000000000000B4B02461B7883B10A4B1B7821
:10029000834234BF00200120084B1B7833B1084B48
:1002A0001B78134113F0010F08BF00207047012095
:1002B000F2E700BFAE210020AD210020011F002089
:1002C000AC210020012208B5074B1A700022074B11
:1002D0001A700422064B1A701F22064B1A7004F083
:1002E00071F9054B186008BDAE210020011F0020E8
:1002F000AD210020AC2100201804002008B50448DE
:100300000AF085FB07F099FCBDE8084000F034B81E
:1003100094B9000801480AF07ABB00BF94B90008FC
:1003200013B5082007F057F805F07CFE0123009371
:1003300090F836300F4C022B206018D1006803F083
:1003400071F9236820F07F4093F83530023B012B90
:1003500094BF0323002340EA83700190684606F0AF
:100360006AFF082002B0BDE8104007F03FB8002047
:10037000E7E700BF1C0400202DE9F04F544E97B072
:10038000354609AC0FCD0FC42B6806F11405236068
:100390000EAC0FCD0FC495E80F00DFF84C8184E858
:1003A0000F004C480AF033FB40460AF030FB4FF494
:1003B0008073494FADF83C30484B38460B9309A940
:1003C0000EAB0D9303F030F80421B6F834B00DEB0A
:1003D00001000122ADF804B000F05EFAB6F836A0D4
:1003E0000022012102A8ADF808A000F055FAB6F8E5
:1003F00038900122042103A8ADF80C9000F04CFACB
:10040000758F0122042104A8354CADF8105000F07E
:1004100043FA344B4FF44870C4F8C8344FF0021319
:10042000C4F8C434A3F58033C4F8CC341C23C4F816
:10043000B43405F0EBFC08A8ADF8205000F098FAB1
:10044000142005F0E3FC08A8ADF8205000F064FA91
:10045000232005F0DBFC08A8ADF8205000F088FA56
:10046000B921384607F074F908A8ADF8205000F01B
:1004700053FA002205A81146ADF814B000F00CFAAA
:10048000002206A81146ADF818A000F005FA0122D6
:10049000002107A8ADF81C9000F0FEF90122002110
:1004A00008A8ADF8205000F0F7F9384602F0C6FC75
:1004B00000234046C4F8B434C4F8C834C4F8C43483
:1004C000C4F8CC340AF0A6FA17B0BDE8F08F00BF2C
:1004D00078B2000894B9000800000A50E070720079
:1004E00000C003500200030098B9000838B5044664
:1004F0000D4601B118B94521044806F0E6FE23680F
:1005000013B92B60256038BD1C46F8E7B4B200086B
:1005100010B5044618B95621044806F0D6FE2068E6
:1005200018B1036823600023036010BDB4B2000853
:1005300040B1054A1378012B04D803700133002021
:100540001370704701207047021F00200348044ABF
:100550000449121A921006F0C9BE00BF70010008CB
:1005600070010008D41F002008B5154B83F30A88DA
:1005700000F030F8FFF7EAFF124B13498B4212D319
:100580000020124B12498B4218D3FFF741FE186826
:1005900050F82240586840F8224001329868824260
:1005A000F5D30C33EAE70022F8E71C6844F8220090
:1005B00001325C68A242F8D30833E4E70022F8E78E
:1005C00000000020C0C20008CCC20008CCC2000855
:1005D000CCC200084FF48041124B134A70B59A60A8
:1005E000D3F88820114D42F47002C3F88820104AD5
:1005F00005F5005491664FF0FF3222660D4A62669F
:100600000222C3F8D020BFF34F8FBFF36F8F4FF498
:100610004036002003F04EFF0020E66003F0E2FECB
:100620002E6170BD00ED00E0000000080080004475
:1006300000900050F7FF3700014B1860704700BF73
:10064000D81F0020054B1860054B1B6F03F00703F4
:10065000032B01D107F038BE704700BFE01F002018
:100660000080005030B5056887B0AB8804461E484E
:10067000ADF80C300AF0CBF90022012103A800F0FC
:100680000BF90DF10B0103A800F0D2F99DF80B3026
:1006900083F001032B70AB79022B19D14FF0FF339C
:1006A0000022CDE904330094104B04A903A800F004
:1006B00087FA049B009401330C4B0CD1042205A94A
:1006C00003A800F0E7F918B16F21094806F0FDFD15
:1006D000002007B030BD012205A903A800F0DAF917
:1006E0000028F5D07E21F0E794B900081B730008BC
:1006F00007B30008002307B5294801930AF087F9DA
:100700004FF44073012204216846ADF8003000F038
:10071000C3F80122234B0520C3F8442401A90AF0A1
:1007200071F9002839D1204BD3F8F02042F00102B2
:10073000C3F8F020D3F8FC2042F08072C3F8FC200C
:100740001A4AA3F55D431A60019B194A03F5D523A4
:1007500003F2FC43B3FBF2F3164A013B136102239D
:10076000C2F8F0304FF48073C2F804334FF06043A6
:10077000114AC3F8B02F114AC3F8802ED3F8002EC7
:1007800042F48072C3F8002EFF2283F82020D3F8B1
:10079000002E22F48072C3F8002E03B05DF804FB33
:1007A00094B9000800D0035000ED00E0FF030040C2
:1007B000F8590D00000004E055CEACC50900010059
:1007C0004FF06043D3F8802E30B5D20715D5012401
:1007D0000B4D8440D5F8FC2042F08072C5F8FC2017
:1007E000D3F8002E2243C3F8002E53F82020002A0D
:1007F000F0D003F82010002030BD1120FCE700BF2E
:1008000000ED00E02DE9F04104460C254FF0010811
:10081000124E0CB314F001000BD0002024F00104A0
:1008200005FB00625768002FF3D09168C0B2B8474B
:10083000EFE72246013020284FEA520201D0D307C9
:10084000F8D508FA00F20F2824EA0204E8D9103893
:1008500005FB0062B432E5E7BDE8F081200400202A
:1008600008B50C480AF0D3F8192003F0D5FD28B1DB
:10087000192003F01FFE192003F0B4FD1A2003F025
:10088000CBFD28B11A2003F015FE1A2003F0AAFDB3
:10089000002008BD94B900082DE9F0410E469046AD
:1008A000044638B993211A4806F00FFD2225284640
:1008B000BDE8F0810F290CD8037883B1012B03D058
:1008C000022B0CD0032B04D13F236278D340DB07EB
:1008D00008D497210E4806F0F8FC2125E7E740F2FE
:1008E000FF33F2E70B4BD3F810532DB19B2108488F
:1008F00006F0EBFC0225DAE70AF078F807464246F4
:100900002046314603F0D4F938460AF06AF8CEE7BB
:1009100069B3000800C0035038B5044628B913482D
:10092000E42106F0D2FC222038BD037883B1012BEC
:1009300003D0022B0CD0032B04D13F236278D34089
:10094000DB0708D40948E82106F0BFFC2120EBE7CB
:1009500040F2FF33F2E70AF049F80546204607F077
:10096000EDFD28460AF03DF80020DDE769B30008F8
:1009700038B5044628B91448FC2106F0A6FC22200C
:1009800038BD03788BB1012B03D0022B0DD0032B84
:1009900004D13F236278D340DB0709D40A484FF4DF
:1009A000807106F092FC2120EAE740F2FF33F1E784
:1009B0000AF01CF80546204603F09EF828460AF087
:1009C00010F80020DCE700BF69B3000870B50D46E1
:1009D000044600B131B9154840F22D1106F075FCFE
:1009E000222070BD03788BB1012B03D0022B0DD0D8
:1009F000032B04D13F236278D340DB0709D40B4893
:100A000040F2311106F061FC2120EAE740F2FF33A9
:100A1000F1E709F0EBFF0646204603F0C3F8287023
:100A2000304609F0DEFF0020DBE700BF69B30008B5
:100A300070B50D46044600B131B915484FF4A371A5
:100A400006F043FC222070BD03788BB1012B03D04C
:100A5000022B0DD0032B04D13F236278D340DB0758
:100A600009D40B484FF4A57106F02FFC2120EAE7CA
:100A700040F2FF33F1E709F0B9FF0646204603F0E4
:100A800065F82870304609F0ACFF0020DBE700BFB6
:100A900069B300082DE9F0410D4616469846044614
:100AA00000B139B92F484FF4E07106F00EFC222056
:100AB000BDE8F081027872B1012A19D0022A0AD069
:100AC000032A15D0FF2A0CD04FF4E271254806F016
:100AD000FCFB2120ECE740F2FF336278D340DA07D9
:100AE000F2D5022E07D9042E05D04FF4E471EDE7BC
:100AF0003F236278F2E709F079FF23780746FF2B5E
:100B000005D032462046296803F03AF928602B6860
:100B1000013309D12378FF2B06D1134B6078D3F82A
:100B2000241406F042FE286029684B1C14D00C23C4
:100B30000E4A03FB0122069BC2F8048093602378CF
:100B4000FF2B04D001230A4A8B40C2F824343846D4
:100B500009F047FF0020ABE7384609F042FF2D209F
:100B6000A6E700BF69B3000800C0035020040020BE
:100B700000D003500F2810B5044606D90D4840F2A6
:100B8000F11106F0A2FB212010BD09F02FFF012377
:100B9000094AA340C2F82034C2F824340C22074B7F
:100BA00002FB04330024C3E9014409F01AFF204684
:100BB000EAE700BF69B3000800E00350200400200A
:100BC0002DE9F0410D4690461F46044600B139B963
:100BD00026484FF40B7106F078FB2220BDE8F08127
:100BE000017871B1012938D002290AD0032934D003
:100BF000FF290CD01D4840F2312106F066FB212070
:100C0000ECE740F2FF336278D340DA07F2D509F01F
:100C1000EDFE23780646FF2B05D042462046296884
:100C200003F09EF928602A68531C19D00C23104940
:100C300003FB0211069BC1F8B870C1F8BC302378E1
:100C4000FF2B05D00123103293400A4AC2F8243406
:100C5000304609F0C6FE0020C0E73F236278D3E7A4
:100C6000304609F0BEFE2D20B8E700BF69B300088A
:100C70002004002000D0035008B502F0BFFF054B50
:100C800000F0553020F05020C3F82004BDE80840A3
:100C9000FFF7B8BD00E0035008B502F0AFFF054B09
:100CA00000F0AA3020F0A020C3F82004BDE80840DE
:100CB000FFF7A8BD00E0035013B504460A4809F049
:100CC000A6FEA2780421B2FA82F2237852098DF8A6
:100CD000043063780DEB01008DF80530FFF7DCFD83
:100CE000002002B010BD00BF94B900082DE9F04FFC
:100CF0009A46564B85B01B7806460F461546DDF8DA
:100D00003C909DF844B0DDF85080002B00F09780B7
:100D1000072A00F296800E9B002B00F09280B9F11A
:100D2000000F00F08E80129BB3F5006F00F38980F6
:100D3000012803D1109B002B00F08380444B03EB70
:100D400005131B7B002B7ED0424C102200216846ED
:100D500007F013F804EB45141022A7BB39462046D0
:100D600007F00BF843F210036380BBF1000F03D1CF
:100D7000E37843F00303E370364A0E9B02EB451C15
:100D8000CCE90193129B6901581E9DF84C30C0F3C9
:100D90000A0003F003039B0643EA001E53582E4843
:100DA000012E00EA03004EEA0003CDF800A05350E4
:100DB00017D0B8F1000F2ED19CF8023068F304135D
:100DC0008CF8023027E00021204606F0D6FF4FF4D1
:100DD00044736380BBF1000FCED1E37843F030035E
:100DE000C9E713230CF1100ECCF80C309CE80F006F
:100DF0008EE80F006FF00301DCF81C20109B61F3FC
:100E00009F02012FCCF81C20CCF8143003D1CCF871
:100E10001890CCF8043000270D4A290102EB051385
:100E200042F80180159A28465A60694622469F601A
:100E30005E7302F073FD384605B0BDE8F08F0748D9
:100E4000FAE70748F8E70748F6E700BF031F002066
:100E500088060020880500200F80FFF3028000F044
:100E6000018000F0078000F038B5124B05461B7872
:100E7000DBB1E0B109F0BAFD0F4A00231146147B43
:100E800054B92B6001251A0101EB03131D738C501B
:100E900009F0A7FD204638BD0133082B02F11002EE
:100EA000EDD109F09EFD0548F5E70548F3E7054853
:100EB000F1E700BF031F002088060020048000F037
:100EC000028000F0018000F038B509F08FFD0023AA
:100ED00005460B4A147B6CB90133082B02F1100252
:100EE000F8D102F09DFC074B28461C7009F079FDF3
:100EF000204603E0284609F074FD034838BD00BFD2
:100F000088060020031F0020058000F00D4B10B55F
:100F10001B78044693B1072812D809F067FD0A4BE5
:100F200003EB04131A7B2AB100241C7309F059FD4A
:100F3000204610BD09F055FD0448FAE70448F8E7DB
:100F40000448F6E7031F002088060020068000F012
:100F5000028000F0018000F0154B13B518680023E3
:100F600001908DF8043009F041FD124B1C7824B13A
:100F700009F037FD104802B010BD01221A7009F0C7
:100F800030FD0E4B01A81C731C7783F82C4083F8AE
:100F90003C4083F84C4083F85C4083F86C4083F815
:100FA0007C4008238DF8073002F070FC2046E2E711
:100FB000C0B30008031F0020038000F08806002053
:100FC000F8B50D4D2D7885B1072810DC0B4D0601C5
:100FD00005EB0014277B67B1AB510025069BA5608C
:100FE000636002F09BFC2846F8BD0548FCE7054815
:100FF000FAE70548F8E700BF031F00208806002035
:10100000028000F0018000F0078000F00A4A08B575
:1010100012785AB107280BD8084A02EB00131B7B41
:1010200043B1002102F012FC002008BD0448FCE797
:101030000448FAE70448F8E7031F00208806002068
:10104000028000F0018000F0078000F00A4A08B535
:1010500012785AB107280BD8084A02EB00131B7B01
:1010600043B1012102F0F2FB002008BD0448FCE777
:101070000448FAE70448F8E7031F00208806002028
:10108000028000F0018000F0078000F0184B2DE98D
:10109000F0411F6D5B6D1F4000D5FEE70126002566
:1010A000144CDFF85880374218D02368C8F85060D5
:1010B000A3B1A168284601316268A1609847637BAB
:1010C000012B0BD150B90C4B03EB45131A7B60F38A
:1010D00041021A731A7F60F341021A770135082D15
:1010E0004FEA460604F11004DDD1BDE8F08100BFEF
:1010F00000000450880600208805002000200450CD
:1011000038B504460D4609F071FCA3889BB223B99B
:101110002B6009F066FC064838BD142263889BB238
:1011200002FB034408342C6009F05BFC0020F3E769
:101130000B7000F038B141B1013AB2F5006F0448CC
:1011400038BF00207047034870470148704700BF10
:10115000037000F0027000F0104930B50A78104BAF
:101160002AB9C3E90022C3E9022201220A700C490C
:1011700000220C4654F8045B854208D00132042A50
:10118000F8D1002251F8044B1CB943F8220000208A
:1011900030BD0132042AF5D10248F9E7041F0020CE
:1011A00008070020027000F0002313B51D4A52F812
:1011B000044B94F8211081420ED00133042BF6D158
:1011C00002B010BD0028FBD19DF80730002BF7D0EE
:1011D000A068FFF71BFFF3E794F83530022BEFD13F
:1011E000204606F0F6F9637E2076022BE8D194F8CB
:1011F000323003F0FF02002BE2D1A0680DF10701AD
:101200008DF8072007F020F9237E1BB194F83330C6
:10121000002BD7D00023A06884F83330FFF716FFE7
:10122000CEE700BF0807002010B50446FFF794FE84
:10123000002104F10800FFF717FE014608B1044839
:1012400010BD04F10C00FFF70FFE0028F8D0F6E700
:101250000E7000F0F8B5044616460F4609F0C6FBBE
:10126000A388E2889BB29A42054605D800233360E2
:1012700009F0B7FB1748F8BD1422238807F1100CBA
:101280009BB202FB03433A460833174603CF674538
:10129000186059603A4603F10803F6D11422386801
:1012A0001860238828469BB202FB0343083333604F
:1012B0002388E2889BB20133B3FBF2F102FB1133C6
:1012C0009BB22380A38801339BB2A38009F089FBE2
:1012D0000020D0E70A7000F07FB5012380F831309C
:1012E00090F836309BB902683C32836B01338363DC
:1012F0000C4B04900393002302934B68019301234A
:1013000000930B680169806806F0C8F807E0022BBB
:1013100002D102684432E8E7002380F8313007B098
:101320005DF804FB7913000810B590F836300446D8
:1013300063B9042203685A619A699207FCD523793C
:101340000C4AB9335B011021995010BD022BFCD11E
:101350000068836CDB074CBF0521062101F098FD76
:10136000237941F294425B0103F1A04303F570330A
:10137000E9E700BF00C003502DE9F341D06A01A99D
:101380001446FFF7BDFE0546204607F0C7F8194B87
:101390009D4228D0019D25B940F2A531164805F09F
:1013A00094FF00272F61AF6009F020FBD5F80C8077
:1013B0000646B8F1000F04D0D5E90023394620468F
:1013C000C047E06A01A906F01DF9E06A83889BB274
:1013D0006BB101A9FFF794FE20460199FFF77CFF4E
:1013E000304609F0FEFA012002B0BDE8F08184F831
:1013F0003130F5E70B7000F0C4B300082DE9F0417F
:1014000004461746FFF796FE88460646E8B91520BB
:1014100003F01AF80546E26A93889BB213B194F878
:101420003230ABB194F83630BBB923689D6915F002
:1014300002052CD0012384F834304744B845206895
:1014400049D183699B06FCD56DB33046BDE8F08178
:10145000002DE1D0FFF71AFEDDE7022B12D1236841
:101460009D6C15F0020512D0012384F834304744F6
:101470004745206836D142F22002836C32EA0303EA
:10148000FBD1E1E740F697111E4805F01EFF20460C
:10149000FFF74AFF012394F8365084F83430002DCA
:1014A000CBD0022D1CD094F8363003B3022BCCD114
:1014B0002068816C11F0010118BF092101F0E8FCDE
:1014C00042F29442102123795B0103F1A04303F51A
:1014D00070339950B9E718F8011B06F052F9ADE7DF
:1014E0000025C4E718F8011B06F02DF9C0E710210C
:1014F0002379054A03F239135B01D150082223688E
:101500005A61A2E7C4B3000800C0035010B50446F6
:1015100080B190F832302BB906F05BF810B9A068B2
:10152000FFF774FD002094F832300133DBB284F809
:10153000323010BD0048FCE7027000F010B50446E0
:10154000A0B190F832309BB190F83230012B05D128
:1015500006F03FF810B9A068FFF778FD002094F876
:101560003230013BDBB284F8323010BD0148FCE779
:101570000148FAE7027000F0057000F030B5002570
:10158000437F85B08DF8083090F82130044604225E
:101590008DF80930039303A9064B009502A8FFF7C5
:1015A00079FA4FF4007320462383A57606F04DF8B0
:1015B00005B030BDA91100082DE9F04104468EB0F8
:1015C0006B4F06AE0D460FCF0FC697E80F0086E8AB
:1015D0000F0018220021684606F0CFFB002C00F017
:1015E000C58025B9634E30460EB0BDE8F081642257
:1015F0000021204606F0C1FB02232F6884F8363014
:1016000027602B7C20462371FFF7A6FD06460028A5
:10161000E9D12B7F84F83530AB682366564B9F4267
:1016200000F09680554B9F42DCD14FF48013544913
:10163000544AC4E904230023616284F83130D5E9B7
:10164000091284F83030A1624F480B804B808B80A8
:1016500084F83030E26213805380938084F8313014
:1016600084F8333009F0D3F9636ADFF82C81986885
:1016700009F0CDF910212B7C08EB4312C2F8941429
:101680002E7BA87B253346EA0041C2F8AC14697B67
:10169000EA7B08EB431341EA02475F60E676E077B6
:1016A000217784F820206B7F01216377AB7F204670
:1016B00084F82130EB7FA37795F8203084F822302E
:1016C00005F020FF064600288DD1AB68022608935E
:1016D0006B8A8DF82560ADF82830AB8ACDF834D010
:1016E000ADF82630AB7D8DF82430AB690B93012328
:1016F000ADF8063009F07AF92A7F0746032A2CD183
:1017000041F294412B7C08EB43135E5095F8200086
:10171000E97F41EA004103F5A5500160A87F697F98
:1017200041EA004141F29C4019508DF80020062307
:101730008DF818302B79286806A9A3B101F018FE9E
:101740002046FFF771FD0646384609F04AF94AE798
:101750004FF470230D490E4A6BE7022AE7D1204669
:10176000FFF70CFFE3E701F0D5FDE9E7094E3AE7A3
:101770003CB40008037000F00000015B00000A5058
:10178000ACB900080100100094B90008B8B900080D
:1017900001000F00027000F000C0035030B587B0A8
:1017A00004461346FFF7C6FC40BBCDE90113039383
:1017B000194B0490059394F836300BBB23689B6952
:1017C00003F0020313B92046FFF7AEFD6A46E06A54
:1017D00001A9FFF73FFD88B9E26A93889BB2012B0C
:1017E000FBD8009D20462946FFF776FD012384F8AB
:1017F000343094F83130002BFBD1286907B030BD6C
:10180000022B02D123689B6CDAE740F6FB210348E8
:1018100005F05BFDD7E700BF017000F0C4B300081E
:10182000044BD3F88420D206FBD4D3F88400C0F351
:10183000811070470040005038B5104B0546D3F872
:1018400000310C4603F00303022B0BD0032B0DD009
:10185000012B0FD106F052FD032305B1286004B11E
:10186000236038BD06F09CFD0923F6E706F04CFD29
:101870000823F2E701230020EFE700BF00800050BB
:1018800038B5104B0546D3F840310C4603F003033E
:10189000022B0BD0032B0DD0012B0FD109F0ACF88C
:1018A0000A2305B1286004B1236038BD06F078FD35
:1018B0000923F6E709F0A3F80C23F2E7012300203F
:1018C000EFE700BF0080005038B5104B0546D3F855
:1018D00060310C4603F00303022B0BD0032B0DD019
:1018E000012B0FD109F088F80A2305B1286004B153
:1018F000236038BD06F054FD0923F6E709F07FF8B0
:101900000C23F2E701230020EFE700BF0080005026
:1019100038B5104B0546D3F840320C4603F00303AC
:10192000022B0BD0032B0DD0012B0FD109F064F843
:101930000A2305B1286004B1236038BD06F030FDEC
:101940000923F6E709F05BF80C23F2E701230020F6
:10195000EFE700BF0080005038B5124B0546D3F8C2
:1019600080300C4603F00303022B0BD0032B0DD069
:10197000012B0FD106F088FC0E2305B1286004B1BD
:10198000236038BD06F0C4FC0723F6E706F076FCBA
:101990000623F2E7044841F2142105F096FC0023E7
:1019A0001846EAE7008000505CB4000838B51A4BCE
:1019B0000546D3F820010C4600F00700062821D880
:1019C000DFE800F028040C1410181C0006F056FC88
:1019D000052305B1286004B1236038BD06F08EFCF4
:1019E0000323F6E706F094FC0723F2E706F082FCF7
:1019F0000223EEE706F042FC0623EAE706F07EFC4F
:101A00000423E6E7054841F2912105F05EFC00233E
:101A10001846DEE70123DCE7008000505CB40008D4
:101A200038B5194B0546D3F828310C4603F00703A7
:101A3000013B052B20D8DFE803F003131B0F0B1726
:101A400006F01CFC052305B1286004B1236038BDF5
:101A500006F014FC0623F6E706F05AFC0723F2E72B
:101A600006F04CFC0323EEE706F048FC0423EAE70B
:101A700006F040FC0223E6E7044841F2990105F034
:101A800024FC00231846DEE7008000505CB4000808
:101A9000002337B50193194B0546D3F820320C4685
:101AA00003F00703042B1FD8DFE803F025030F140E
:101AB0001900002101A8FFF7B3FF12230DB1019A0D
:101AC0002A6004B1236003B030BD06F021FC072377
:101AD0000190F3E708F090FF0A230190EEE706F08B
:101AE0005FFC09230190E9E741F25601044805F043
:101AF000ECFB0023E2E70123E0E700BF0080005099
:101B00005CB40008F7B50027144B0197D3F8804167
:101B1000064604F00304022C0D4614D0032C0DD00D
:101B2000012C14D1394601A8FFF740FF10240EB153
:101B3000019B336005B12C6003B0F0BD06F0E8FBFB
:101B400007240190F3E706F0D5FB0190EFE741F29F
:101B5000E631034805F0B9FB3C46E8E70080005059
:101B60005CB4000838B5164B0546D3F800020C46A5
:101B700000F00700042819D8DFE800F020030B0F5D
:101B8000130008F039FF0A2305B1286004B123606F
:101B900038BD06F005FC0923F6E708F030FF0C23FA
:101BA000F2E706F091FB0F23800AEDE7054841F2CA
:101BB000A44105F08AFB00231846E5E70123E3E78B
:101BC000008000505CB4000838B5164B0546D3F8C9
:101BD00008020C4600F00700042819D8DFE800F0DE
:101BE00020030B0F130008F007FF0A2305B128603C
:101BF00004B1236038BD06F0D3FB0923F6E708F0F3
:101C0000FEFE0C23F2E706F05FFB0F23800AEDE7F0
:101C1000054841F2DC4105F058FB00231846E5E792
:101C20000123E3E7008000505CB40008002337B5CF
:101C30000193184B0546D3F860320C4603F00703B6
:101C4000013B032B1FD8DFE803F0020E191400211B
:101C500001A8FFF7ABFE10230DB1019A2A6004B171
:101C6000236003B030BD002101A8FFF709FE112356
:101C7000F2E706F04DFB07230190EDE706F03AFB93
:101C800002230190E8E741F2FD01034805F01DFB46
:101C90000023E1E7008000505CB40008002337B562
:101CA0000193184B0546D3F894320C4603F0070312
:101CB000013B032B1FD8DFE803F0020E19140021AB
:101CC00001A8FFF773FE10230DB1019A2A6004B139
:101CD000236003B030BD002101A8FFF7D1FD11231F
:101CE000F2E706F015FB07230190EDE706F002FB93
:101CF00002230190E8E741F23011034805F0E5FACC
:101D00000023E1E7008000505CB4000873B50024B4
:101D10000F4B0194D3F87032064603F00303012BF6
:101D20000D4607D0022B11D041F25B11094805F096
:101D3000CCFA04E0214601A8FFF7A2FD11240EB160
:101D4000019B336005B12C6002B070BD1524F6E72D
:101D5000008000505CB4000808B5334B98424FD067
:101D600027D8324B984245D017D8314B98423ED0B5
:101D70000AD838B12F4B984239D041F2BB312E48A6
:101D800005F0A3FA002034E02C4B98422FD02C4BC6
:101D90009842F2D12B4B586E2BE02B4B98422CD013
:101DA00003F5371303F5D8639842E6D1254B986FB6
:101DB0001FE0264B98422FD00CD8254B984223D0B9
:101DC000244B984224D0244B9842D6D11D4BD3F8B3
:101DD00084000EE0214B984222D003F5740303F5F2
:101DE00010539842C9D1174BD3F8980001E0154B16
:101DF000986D08BD134B186FFBE7124B586FF8E74F
:101E0000104BD3F88000F4E70E4BD3F88800F0E7CE
:101E10000C4BD3F88C00ECE70A4BD3F89000E8E7C2
:101E2000084BD3F89400E4E780BA8C01405DC6000B
:101E300080841E0040420F005CB4000800093D0091
:101E4000C0CF6A000080E00F0024F400007E56033B
:101E500080D54302006CDC020048E8010090D0030A
:101E6000B0F5207F10B52ED009D8B0F5007F24D072
:101E700003D868B1B0F5C07F0AD000241BE0B0F5EC
:101E8000607FFAD1124BD3F88040C4F3011412E002
:101E90000F4B1C6F230B13F00E0FC4F303340AD047
:101EA000072C08D00F2C06D0032C04D04FF422713D
:101EB000084805F00AFA601C10BD054BD3F89040A5
:101EC000C4F30464F7E7024B1C6FC4F38024F2E709
:101ED000008000505CB400084FF4803238B5104BDD
:101EE00004469A6600200D46FFF7BAFF41F67132AC
:101EF0000C4B6043DC69DA635A6804F4803422F4E2
:101F000040125DB90849884294BF002001200005B5
:101F100002435A600CB10022DA6338BD0349F2E78C
:101F20000090005000000350005A6202002D310161
:101F300038B5430904460D460ED140F235310D48FF
:101F400005F0C3F9002304F01F0485B103F58053A5
:101F50000122A2401A6038BD012B04D0022B04D00C
:101F600040F24331EBE7044BEDE7044BEBE703F5BD
:101F70000053EDE75CB400086480005068800050B6
:101F8000002130B5B0F5807F85B00446CDE9001161
:101F900000F0D3803DD85E2833D85E2833D8DFE800
:101FA00000F048323232323232323232323232326F
:101FB0003232323232323232323232323232323201
:101FC000323248AD48ADBDBDBDBDBDADC7516EDD02
:101FD00051ADADAD3232323232323232ADADAD8191
:101FE000E7AD32323232323232323232323232BD16
:101FF000484848E25151EC9066C23232323232984F
:10200000480080286AD040F2A441604805F05DF99C
:1020100067E0B0F5D06F00F0A18035D8B0F5607FF3
:1020200077D01AD8B0F5007F5ED005D8B0F5C07F64
:10203000E9D106F049F953E0B0F5207F5ED0B0F564
:10204000407FE0D106F040F904464FF42070FFF7DE
:1020500007FFB4FBF0F4640859E0B0F5B06F67D047
:102060000AD8B0F5806F59D0B0F5A06FCBD1002160
:102070006846FFF70DFD34E0B0F5C06FC3D1002115
:102080006846FFF7FDFB2CE0B0F5106F6BD00ED863
:10209000B0F5086F76D0B6D8B0F5E06F68D0B0F57F
:1020A000F06FB0D100216846FFF70EFC19E0B0F5E3
:1020B000406F38D00AD8B0F5206F5ED0B0F5286FE9
:1020C000A1D100216846FFF721FE0AE0B0F5486F74
:1020D00099D100216846FFF7E1FD02E006F0D4F84F
:1020E0000090009805B030BD06F0CEF805462046B9
:1020F000FFF7B6FEB5FBF0F50095F2E706F0E4F861
:1021000004464FF42070FFF7ABFEB4FBF0F40094EC
:10211000E7E701A8FFF720FC019DE8E700216846FA
:10212000FFF744FCDDE700216846FFF779FCD8E7BC
:1021300000216846FFF7E6FCD3E74FF0E023029169
:102140001B695B0705D506F0BFF80290029B009360
:10215000C7E703A902A8FFF793FBF7E7002168464A
:10216000FFF700FDBDE700216846FFF72DFDB8E74A
:1021700000216846FFF7CCFBB3E700216846FFF774
:1021800055FDAEE76846FFF757FBAAE75CB40008C9
:1021900008B58020FFF7F4FE034B98429EBF4FF432
:1021A0008032024B1A6708BD005A620200A000503C
:1021B0001FB503460020B3F5807F019000F0C58075
:1021C00063D85D2B54D84C2B06D82D2B46D8232B07
:1021D0002AD840F28951A7E04D3B102BF9D801A233
:1021E00052F823F041230008D3210008D32100082E
:1021F000D3210008EB220008D3210008D3210008D6
:102200009B23000809230008AF220008912300083F
:10221000D3210008D3210008D3210008D3210008CE
:10222000D3210008A5230008243B092BD1D801A203
:1022300052F823F0412300084123000841230008FD
:102240004123000841230008D3210008312300085E
:10225000D3210008CB220008772300083D2B00F093
:1022600085803E2BB5D1002001A9FFF751FB63E02B
:10227000802BAED14E4B1B6F03F00703013B032BAA
:1022800050D8DFE803F04D46494BB3F5F06F6DD001
:1022900020D8B3F5B06F4BD00ED8B3F5607F73D0B4
:1022A00097D3B3F5806F4BD0B3F5A06F91D10020D9
:1022B00001A9FFF7EDFB3FE0B3F5D06F5BD0B3F5BD
:1022C000E06FD0D0B3F5C06F83D1002001A9FFF734
:1022D000D7FA31E0B3F5206F5FD00BD8B3F5086FB4
:1022E0004ED0B3F5106F7FF474AF002001A9FFF753
:1022F0006BFC21E0B3F5406F4AD0B3F5486F51D085
:10230000B3F5286F7FF465AF002001A9FFF7FEFC4D
:1023100012E0052301930FE00323FBE70823F9E70D
:102320000223F7E740F2D641224804F0CEFF03E053
:10233000002001A9FFF7E6FB019805B05DF804FB5A
:10234000002001A9FFF732FBF6E74FF0E0230290EF
:102350001B695B0705D505F0B7FF0D230393039BAE
:10236000D8E703A902A8FFF78BFAF8E7002001A934
:10237000FFF7AAFAE0E7002001A9FFF7F3FBDBE78C
:1023800001A9FFF759FAD7E701A9FFF7E5FAD3E763
:10239000002001A9FFF744FBCEE7002001A9FFF7C9
:1023A00045FCC9E7002001A9FFF778FCC4E700BF9E
:1023B000008000505CB400084FF48032074B08499D
:1023C000586E03F580535A664B6A23F001034B6243
:1023D000C3035CBF034B5A66704700BF00800050C8
:1023E00000C0075000A0005038B5036804460F2B0A
:1023F00004D940F68A317C4804F067FF63680F2BEC
:1024000004D940F68D31784804F05FFFA3680F2BA4
:1024100004D94FF43961744804F057FF237B0F2B24
:1024200004D940F69331704804F04FFF637B0F2BC3
:1024300004D940F696316C4804F047FFA37B3F2B4C
:1024400004D940F69931684804F03FFFE37B3F2B05
:1024500004D940F69C31644804F037FF2369032B0C
:1024600004D940F69F31604804F02FFF6369032BC5
:1024700004D940F6A2315C4804F027FFE369032B3E
:1024800004D940F6A531584804F01FFF8020FFF71B
:102490008FFE032800F083804FF48012534B4FF0DF
:1024A000A0615A6645F60E02514BC3F88020514A8E
:1024B00091624FF4803102F5805291629A6DD2039D
:1024C000FCD4996D11F08041FBD1D4E900021205D2
:1024D00042EA0062E07B0243207B42EA0042607BEA
:1024E00042EA0032A07B42EA80121A619869D4E97C
:1024F0000452120642EA856200F000400243A07EC8
:10250000E57E0243207E42EA0042607E42EA0022EB
:102510009A611A6AE06922F00F0242EA8502364D9A
:1025200000283DD11A6294F82420996A94F820007A
:10253000D200294042EA40120A4394F8211042EAAC
:10254000011242F480329A622C49294A936D31EA91
:102550000303FBD14FF08071264881621369A5689F
:1025600023F4700343EA055313614FF00043836182
:1025700094F822300BB9224B996294F823303BB97E
:102580004FF480321E4B9A62194A936D5B00FCD463
:1025900094F825301BB1164B1A4AC3F8802038BD79
:1025A000024342F0080202281A6208D119614FF46E
:1025B0000852996114484FF47F4105F082F80C49A4
:1025C00094F822308A6A94F820001B062A4043EAD5
:1025D0004013134394F8242043EAC20394F82320C1
:1025E00043EA02438B62D3E75CB4000800900050DA
:1025F0000040005A0050005AC7FFFEFE03000100D1
:102600000060005AF1A7FFFF3440005A014B93F9D4
:1026100000007047AF210020436810B5072B044627
:1026200004D940F6E6512A4804F04FFEA368032B74
:1026300004D940F6E851264804F047FE2378032BDE
:1026400004D940F6EA51224804F03FFE94F90130E3
:10265000002B04DA40F6EC511D4804F036FE4FF42E
:1026600000011C4A637851664FF4D151022002F5F3
:10267000B832516218494F2B48604FF0010028BF13
:102680004F2301F5805148601169C903FCD42178BA
:1026900043EA01235361D4E901131B0143EA0123F7
:1026A000617B0B43217B43EA41039360E37BA17B86
:1026B0001B0143EA4113617C0B43217C43EA410344
:1026C0005360A37C13B16FF4D153536210BD00BFAC
:1026D0005CB400080090005000100250014B1880BC
:1026E000704700BFA2210020014B1880704700BF37
:1026F000A02100204FF4800208B5184B5A6602232F
:10270000174A5360936813F48033FBD1012822D118
:1027100005F0F4FD134B984215D003F5122303F591
:10272000F863984213D0104B00EB8002400AB3FBD1
:10273000F0F3520A0A49CA620B6301234B6200227A
:10274000074B5A6008BD45F67A13084AF2E745F68A
:102750001A03074AEEE75362F1E700BF009000500A
:102760000040025000F0490264666666D8B8050071
:10277000BBCF0500B0F5207F38B577D00ED8B0F5C7
:10278000007F61D003D890B3B0F5C07F2FD04FF455
:102790004671BDE838403D4804F097BDB0F5607F14
:1027A000F5D13B4A4C1ED2F8FC5015F080751EBF87
:1027B000D2F8FC3023F08073C2F8FC30032C04D92B
:1027C00040F2F721314804F080FD324AD2F88030DF
:1027D00023F0300343EA0413C2F8803035B12C4AA9
:1027E000D2F8FC3043F08073C2F8FC3038BD4C1E88
:1027F000012C0AD9102903D8274BCB40DB0704D47E
:1028000040F2CB21214804F060FD04F069FF04F0A0
:1028100075FF4FF48031214B1E4A1967136F23F463
:10282000704343EA0433136705F04EFD0446FEF798
:10283000F7FFC0F10201204604F05AFF00F048F80B
:10284000BDE83840FFF7A4BC4C1E1F2C04D94FF440
:1028500043710E4804F039FD0E4AD2F8903023F04F
:10286000F85343EA0463C2F89030BFE74C1E012CD2
:1028700004D940F21231054804F027FD054A136FD0
:1028800023F4806343EA84231367AFE75CB4000852
:1028900000ED00E0008000501001010000900050A9
:1028A00008B50121022000F099F94FF42070FFF7DC
:1028B000D7FA054B187004F013FF04F01FFF4FF414
:1028C0008032024B1A6708BD051F0020009000509F
:1028D00008B54FF4C070FFF753FBBDE8084004494A
:1028E000884294BF012102214FF42070FFF742BFBC
:1028F00080F0FA0238B5044605F0E6FC0546FEF71E
:102900008FFFC0F10201284604F0F2FE01210020F1
:1029100000F0B8F92CB1FFF7DBFFBDE83840FFF756
:1029200037BC034B4FF420701978FFF723FFF4E70F
:10293000051F00202DE9F0410546FFF70DFA431E63
:102940000333044604D940F6E2113B4804F0BDFCD1
:102950004FF4C022394B5A6603F598335A68012A5E
:1029600004D137494A605A689207FCD48020FFF7A7
:102970001FFC052807D104F0B3FE04F0BFFE4FF49E
:1029800080322E4B1A672F4B24F040749D4239D071
:102990002D4B9D4239D005F071FC8542064603D986
:1029A0000121284600F06EF9284FFB6813F0060F4E
:1029B000FBD1D7F80880BC60BB68634013F4F81FF4
:1029C00026D12846FDF738FE8020FFF7F1FB0528C9
:1029D00014D105F079FCA842044604D940F63B2105
:1029E000154804F072FCFEF71BFFC0F102012046FF
:1029F00004F07EFEFFF76CFFFFF7CAFBAE4213D276
:102A0000BDE8F08144F00074C5E744F08074C2E78B
:102A100040F62A21084804F058FC8020C7F80880B6
:102A2000FFF7C6FB052805D0BDE8F04101210020D5
:102A300000F028B93546CCE75CB40008009000509F
:102A400000E0015040420F0080841E000000015051
:102A50004E4B70B59842054673D041D8A3F5B703E5
:102A6000A3F55863984265D033D8494B494E9842F4
:102A700051D017D8002877D041F2DE11464804F033
:102A800024FC40F68671444804F01FFC4FF40022F9
:102A9000404B5A663E4B9D4276D000243F4A9542B9
:102AA00036D05DE03D4B984227D03D4B9842E3D174
:102AB0003C4BD3F8A040621E033224F040744CD942
:102AC00040F68671344804F000FC4FF4002373662E
:102AD000E4E7354B9842CFD1324BD3F8BC402CE0E1
:102AE000324B984231D0324B984232D0314B9842DF
:102AF000C2D12C4BD3F8C8401FE02A4BD3F8A040DA
:102B0000621E033224F04074DAD84FF40023736657
:102B100044F0807424E0234BD3F8A040621E0332BB
:102B200024F040742AD84FF400237366234643F000
:102B3000007415E01B4BD3F8B840621E154E0332EB
:102B4000BBE7184BD3F8C040F7E7164BD3F8CC409F
:102B5000F3E7144BD3F8D040EFE74FF4002373664C
:102B60004FF0B442946070BD40F686710A4804F09C
:102B7000ACFB4FF400232C467366F1E740F68671F8
:102B8000054804F0A2FBCEE70023D0E7C0EA21010C
:102B900040420F00009000505CB4000880841E008A
:102BA00000093D000080E00F0024F4000048E80127
:102BB000005A620280BA8C01024A536B0342FCD174
:102BC000704700BF00400950034A0179D36E23F0DB
:102BD00030030B43D366704700400050F8B50446FD
:102BE000244BD3F88420D006FBD4D3F88430C3F32D
:102BF00081139C423CD005F047FB012C05460BD1CC
:102C00001D4B984204D940F29B711C4804F05DFBB7
:102C10000121284604F06CFD07F0DFFE4FF0007242
:102C2000174B07465A66204604F06DFD4FF480634B
:102C3000104E621E93403367736E9A0103D4D6F828
:102C400084309B060AD5384607F0C2FE022C0FD10D
:102C50002846BDE8F840002104F04ABDD6F884308B
:102C60009906E9D540F2B371044804F02EFBE3E77E
:102C7000F8BD00BF00400050005A6202ACB400082A
:102C80000060005010B50C4608B905F0FDFA074B7E
:102C900021461B783BB1064B984204D80120BDE881
:102CA0001040FFF79BBF0220F9E700BF061F00207E
:102CB000005A62024FF0004238B5244B244C5A6649
:102CC0004AF6CD33656C014605F00105236428BB47
:102CD0000120FFF771FF6368DB0715D51D4B5860B6
:102CE00008461D4B226BD2070CD4984208D107240A
:102CF00015B1174B194A1A6404F006FD204638BD79
:102D00000130EFE79842F2D00024F1E70132236B63
:102D100013F0080305D08A42F8D1E8E700220E49F3
:102D2000F5E78A42E3D020210A4A91620121A2F507
:102D3000805251600649084A886A800603D493424B
:102D4000D5D00133F8E79342DDE700BF0090005093
:102D5000004009500060095040420F003254FFFF0C
:102D60004FF0004238B5164B01465A664AF6CD334D
:102D7000144C154A656C236443780B205B0043F0C8
:102D80000103D363FFF718FF63688A7823F4F873AD
:102D900043EA02136360CA784B7943EA0223A360D3
:102DA0000A798B7943EA022323610878FFF782FFCF
:102DB000EB0744BF054B236404F0A6FC012038BD9B
:102DC0000090005000400950004000503254FFFF76
:102DD0000F2870B5044605D940F67461124804F016
:102DE00074FA0F244FF00042104B11495D6E03F549
:102DF00080535A664AF6CD334E6C80200B64FFF741
:102E0000DBFE0B6A23F00F0323430B62F30744BF7F
:102E1000084B0B64002DA2BF4FF00042064B5A66D0
:102E200004F072FC70BD00BFACB40008008000501C
:102E3000004009503254FFFF00A0005010B504F0CC
:102E400068FC042300F5805100F500520B6113610A
:102E50000B6113610B6113610B611361202341F25C
:102E6000020103610023C360836041614FF4A0212C
:102E70008361836541620549C36103628362C36202
:102E800043630365D164036310BD00BFFF3F0D03BF
:102E900038B5174B044698420D4607D0154B98425B
:102EA00004D040F26911144804F00FFA25B9204605
:102EB000BDE8384004F02DBC012204F580535A606F
:102EC00040F6FF71204605F00F0204F01EFCA263DD
:102ED000782104F01AFC05F001036A0748BF43F0AB
:102EE0000203A26C02F003029A42FAD138BD00BF7D
:102EF0000000015B00000A50FCB40008F8B505466C
:102F00000C46164622B940F227216B4804F0DDF941
:102F10006A4B9D4202D19CB956240DE0684B9D42FC
:102F200047D040F22A21644804F0CFF944B940F276
:102F30007931614804F0C9F92046FFF721F80446C9
:102F4000AB68D80745D5B44204D24FF40D715A4846
:102F500004F0BBF9B4FBF6F46F68013CFF2C07F0FA
:102F6000010704D94FF40F71534804F0AEF9240659
:102F70004FB32821284604F0C8FBAB6C99071CD13D
:102F8000AB6CDA071BD4AE6C16F0020619D140F216
:102F90004921494804F099F9284604F0BAFB2B6905
:102FA000314623F07F4323432B61BDE8F840FFF710
:102FB0006FBF002CC4D15724BEE70526ECE70926D5
:102FC000EAE70626E8E72B6923F07F4323432B61DA
:102FD000F8BD6B68012B04D04FF41771364804F02C
:102FE00074F9AB6DDB07AB6848BF760003F0E00314
:102FF000402B42D009D893B1202B1AD040F29E2109
:10300000BDE8F8402C4804F060B9602B42D0802B1A
:10301000F4D106EB4603A34247D801230DE0B6EBFB
:10302000141F04D94FF42171234804F04EF91023E2
:1030300003E0B6EBD40F1AD8082373436401B4FB42
:10304000F3F4204F203CB7EBC40F4FEAC40604D280
:1030500040F2A921184804F038F928463E400121E1
:1030600004F053FB2E63BDE8F84004F04EBB40F281
:103070008921114804F029F9DEE70623B4FBF3F3B4
:10308000B34201D30623D8E740F28E210A4804F068
:103090001CF9F7E7B6EB940F01D80423CDE740F213
:1030A0009321054804F011F9F7E74FF4267102481F
:1030B00004F00BF9B1E700BFFCB400080000015BAD
:1030C00000000A50F8FF7F002DE9F0419846436860
:1030D00004460E4617461BB140F6FF7104F015FB7F
:1030E0002046FFF7ABFEF189737B62690B43318A9F
:1030F00022F44C5222F00F020B4313436361A26887
:1031000096F818C0337B22F0804222F0E2024CEAAB
:103110000303134372691343B268A3601AB9A36827
:1031200043F00043A360F06904F58053002878D091
:10313000857A017A6D04D4F808E045EA81556E4934
:103140000EEA01010D43818801F4C0410D4341782D
:1031500045EA8105417B45EAC105817B45EA0115C8
:10316000817845EA8125A560D4F80CE0D0E9041502
:103170002943624D0EEA05052943857941EA8521F7
:10318000C57941EA4521E16001785D4D012914D1FD
:10319000E16841F00401E160AC4200F092805949DD
:1031A0008C420CBF01214FF0FF31490101F1A041D8
:1031B00042F2944501F5703114E003297BD1E168B6
:1031C00041F00401E160AC4279D04E498C420CBF21
:1031D00001214FF0FF3141F29445490101F1A04135
:1031E00001F570314FF0020E41F805E0417A996225
:1031F00019B1E16841F40061E160C17A59B1E16857
:1032000041F40041E1603E498C425CD1017B3E4D7E
:1032100001F00F016967616AC07B21F0030101437E
:1032200061622FB197F82010002956D00121196250
:10323000B8F1000F2DD0BCF1000F02D04FF40041C7
:1032400099652F49B8F822508C4298F8211051D036
:103250002C48844213D10120112934BF4FF0010CB6
:103260004FF0020C294FB5F5006F07F800C094BF6E
:103270004FF0010C4FF0020C254F07F800C0A06D75
:10328000294320F4F95020F01E000143A1650121DB
:103290009965012159601AB120467168FFF72EFE29
:1032A00020463178FFF7F4FDA36CDB4313F4405F55
:1032B000FAD1BDE8F0810239012984D96CE70021F7
:1032C00089E7002171E70F498C4201BF017B0E4D58
:1032D00001F00F01C5F880109DE7E06997F8221012
:1032E00097F8215020F009002943014341F00101E2
:1032F000D9619DE70020AFE7E39BBDFFFFF9F087B1
:103300000000015B00000A5000900350091F0020DC
:10331000071F0020134B70B5984205460C4606D097
:10332000114B984203D07021104803F0CEFF1CB916
:1033300072210E4803F0C9FF237B802B03D1762135
:103340000A4803F0C2FF637B032B03D979210748A6
:1033500003F0BBFF002321462846BDE870401A4613
:10336000FFF7B2BE0000015B00000A50FCB4000889
:103370002B4B70B5984205460C4643D119B98C21A8
:10338000284803F0A2FF5620FEF712FF0C2807D0B2
:10339000A0F10903012B03D9A0F11103012B3AD8A5
:1033A000637B032B03D9AD211E4803F08EFF237BE3
:1033B000802B03D0AF211B4803F087FF6369B3F173
:1033C000804F03D0B121174803F07FFF238A23F4F5
:1033D00000539BB2B3F5805F03D0B321114803F0D3
:1033E00074FFA368013BB3F5165F03D3B5210D4805
:1033F00003F06BFF002321462846BDE870401A46C3
:10340000FFF762BE8A21074803F05FFF1CB98C21D9
:10341000044803F05AFF9E21024803F056FFBFE71D
:103420000000015BFCB40008F8B5774B04469842F5
:103430000E4606D0754B984203D0E221744803F043
:1034400044FF1EB9E421724803F03FFF727BB3686A
:103450007AB1704A934203D9E6216D4803F035FFF3
:103460003369C3B1DB7BB3B1E921694803F02DFFB8
:1034700011E0694A934203D9EC21654803F025FF26
:10348000336943B11A7F32B1B168644A5B7F9142BC
:1034900078D9042B78D86368356923B140F6FF7179
:1034A000204604F032F92046FFF7C8FC2269737BFE
:1034B000B17B22F087020B43134343F08003236167
:1034C000002D63D02369297F23F0F80343EAC11359
:1034D0002978EA7B0B43297943EA4113697A43EA65
:1034E000011343EA82132361E068D5E9053720F030
:1034F000F0403B4320F470200343287B697B43EA80
:10350000802343EAC133E360A368F07B23F0030325
:10351000034343F00103A3606B88A06803F4C04336
:103520000343A360A368687943EA8023A360AB796F
:10353000EF79606A1B013F0203F0700307F4E06754
:1035400020F4772020F4EE603B430343287A000305
:1035500000F4E0400343687F000400F4702003435C
:1035600063626369307B23F00F03034363616B89FC
:10357000A36141BBC2B1244B9C422ED0234B9C4241
:103580003CD011E0042B86D8F3216EE7A368F27BD0
:1035900023F00303134343F00103A3606369327B09
:1035A00023F00F03134363612046D6E90112FFF7AE
:1035B000A5FC20463178FFF76BFCA36CDB4313F4CA
:1035C000405FFAD1F8BD104B9C420CD1AB7B144943
:1035D00003F00F034B67002AE6D02B7C104A03F060
:1035E0000F031367E0E7094B9C42DDD1AB7B0C492D
:1035F00003F00F03C1F88030002AD5D02B7C084A95
:1036000003F00F03D367CFE70000015B00000A500F
:10361000FCB40008002D3101809698003F4B4C000F
:10362000009003502DE9F843364B064698421CD0D3
:10363000354B98421BD04FF43071344803F045FEAF
:10364000324840F2793103F040FE0020FEF798FC4A
:10365000B468074614F001040BD03469240E013419
:10366000B0FBF4F42046BDE8F8835620EEE757207F
:10367000ECE7D6F83090DFF89880B568C14505F0E2
:10368000E00504D940F2E641204803F01EFE402D3B
:1036900009EA080910D007D855B3202D2CD0B36DF6
:1036A000DB0748BF6408DDE7602D27D0802DF6D109
:1036B0004FF4807800251DE04FF08008002503239B
:1036C00009F5807903FB09F900234A463846194673
:1036D00002F030FE554300FB08F408FB0355A2FB43
:1036E000080100234A46294402F024FE0444D6E798
:1036F0004FF010080123E3E7A846DBE74FF040084E
:10370000D8E700BF0000015B00000A50FCB40008CD
:10371000F8FF7F00032838B504460D4605D8094B4D
:1037200033F81030CB40DB0704D440F28541064823
:1037300003F0CBFD302301225C43044BAA401A5115
:1037400038BD00BFF2B500084FB5000840D00350A7
:10375000032838B504460D4605D8094B33F8103018
:10376000CB40DB0704D440F25641064803F0ADFDE0
:10377000302301225C43044BAA401A5138BD00BFDC
:10378000F2B500084FB5000840E0035003282DE9CA
:10379000F04104460D461746984605D81D4B33F8B0
:1037A0001030CB40DB0704D44FF4B0711A4803F05B
:1037B0008CFD37B129462046B8F1000F20D0FFF725
:1037C000A9FF0F21072D04EB440688BFA5F10803CC
:1037D0004FEA0616114895BFAB009B0004360C3625
:1037E00007FA03F29940304403F0BCFF7FB9294641
:1037F0002046B8F1000F06D0BDE8F041FFF78ABFC0
:10380000FFF7A6FFDDE7BDE8F041FFF7A1BFBDE888
:10381000F08100BFF2B50008A0B5000830C0035029
:1038200010B5152000F0C0FD0024FF22064B2146F4
:103830005C6520209A625C60FEF77AFB2146BDE859
:1038400010402120FEF774BB00000450072838B553
:1038500004460D4603DD7721084803F036FD1F2C92
:1038600003D99121064803F030FD064A064B002D8E
:1038700008BF13460122A2401A6038BDFAB50008FD
:103880004BB60008401004504020045010B50446C8
:1038900018B991211F4803F018FD23781B0613F077
:1038A000604F03D092211B4803F00FFDE3780F2BEC
:1038B00003D99521174803F008FD01212020FEF7C8
:1038C00037FB01212120FEF733FB0122124B15208B
:1038D0005A60227812069A606178A27842EA014220
:1038E0009A61FF229A6200229A631A644FF00042A2
:1038F0005A654FF0FF3203F500531A6500F0DAFD08
:103900001520E17800F0E4FDBDE81040152000F03E
:1039100069BD00BFFAB5000800000450F8B50126E3
:10392000C3B2072805460C46174606FA03F603DD20
:10393000DE21344803F0C9FC1CB9DF21314803F013
:10394000C4FC236823F47C1323F00F031BB1E22192
:103950002C4803F0BAFCA37A1B0413F47C0F03D0A9
:10396000E721284803F0B1FCE37A1B0513F07E6FD2
:1039700003D0E921234803F0A8FC237B5B0513F067
:10398000FE5F03D0EB211F4803F09FFC1E4B27F086
:1039900003071E65AB00226803F1A04303F58823EB
:1039A0005A60302202FB05F0637B00F1A04000F575
:1039B00080200366E37AA27A1B0543EA0243227B56
:1039C00043EA4253C365076707F010F80F4B227AAA
:1039D0005E6502B11E64627A02B19E632279A379A8
:1039E00043EA0243084A93616179E37943EA014378
:1039F00006498B61064B56639E64BDE8F84006F0AD
:103A0000F0BF00BFFAB500080020045000100450B9
:103A10000000045010B50124C3B2072804FA03F4CF
:103A200004DD40F27B11074803F04FFC06F0DEFF97
:103A3000054B5A6D22EA04025A659C62BDE81040AB
:103A400006F0CFBFFAB500080000045010B50124FD
:103A5000C3B2072804FA03F404DD40F299110A48BE
:103A600003F033FC06F0C2FF084BDA6A224208D1A9
:103A70005B6B9C430CBF0124002406F0B2FF204680
:103A800010BD0024F9E700BFFAB50008000004509B
:103A900070B50125C3B20728044605FA03F504DD15
:103AA0004FF4E071094803F010FC06F09FFF30224C
:103AB000074B5E6B02FB04335C6E06F092FF3542EF
:103AC0000ABFC4F30A100020013070BDFAB5000827
:103AD000000004504FF48032064B5A6603F5E6238B
:103AE0009B69C3F38512827003F03F021B0B427087
:103AF000037070470090005010B5044620B940F2A2
:103B00003A21104803F0E1FB2378C3B1012B03D025
:103B1000022B14D0032B04D13F236278D340DB0760
:103B200004D440F23D21074803F0CFFB0122637823
:103B300021789A4030235943034B5A5010BD40F22C
:103B4000FF33EAE79BB6000840E0035010B5044697
:103B500020B940F25A21124803F0B7FB2378E3B1B1
:103B6000012B03D0022B18D0032B04D13F23627802
:103B7000D340DB0704D440F25D21094803F0A5FBE4
:103B800030222378534303F1A04303F57033586C7C
:103B90006378D84000F0010010BD40F2FF33E6E743
:103BA0009BB6000810B5044620B940F26E211248B9
:103BB00003F08BFB2378E3B1012B03D0022B18D049
:103BC000032B04D13F236278D340DB0704D440F2B7
:103BD0007121094803F079FB30222378534303F124
:103BE000A04303F57033186C6378D84000F00100EF
:103BF00010BD40F2FF33E6E79BB60008034BD3F855
:103C00002424D3F820041040704700BF00C00350A4
:103C100010B5044620B94FF449711C4803F055FB18
:103C200023782BB96078053818BF4FF0FF3010BDEE
:103C3000012B08D16378012B1CD0032B14BF4FF04C
:103C4000FF300420F3E7022B09D16378A3B1052BE1
:103C500014D0072B14BF4FF0FF300820E7E7032BE9
:103C60000ED16378022B0ED0052B14BF4FF0FF301E
:103C70000A20DCE70320DAE70620D8E70720D6E7AA
:103C80004FF0FF30D3E70920D1E700BF9BB6000813
:103C9000064BDA6E02F03002202A06D0DA6E22F0ED
:103CA000300208B142F01002DA667047004000505E
:103CB0002DE9F041037804460D46164613B3012B57
:103CC00003D0022B1ED0032B04D13F236278D340B4
:103CD000DB0703D45D21274803F0F7FA264BD3F81E
:103CE00010331BB16021234803F0EFFA0F2D0CD8DD
:103CF000DFE805F0373232323232323232323232AB
:103D00003232323240F2FF33E0E7B421194803F097
:103D1000DCFA4FF00008204606B304F00FFC0F2138
:103D200067782378072F03EB430388BF083F4FEAE8
:103D30000313124895BFBF00BF0004330C3308FAC9
:103D400007F2B940184403F021FD85B9204656B169
:103D5000BDE8F04104F0F2BBA846DCE7FFF7CCFE7B
:103D6000DDE7A846DBE7BDE8F041FFF7C5BEBDE8EB
:103D7000F08100BFF5B6000800C0035030C003500A
:103D80002DE9F047037806460C461546002B50D027
:103D9000012B03D0022B4CD0032B04D13F2372788C
:103DA000D340DA0704D44FF49C714A4803F08DFAEB
:103DB000022D06D9042D04D040F23911454803F0F4
:103DC00084FA454FD7F8103323B14FF49D71414821
:103DD00003F07BFA002C2FDB73786340032B04D9AC
:103DE0004FF49F713B4803F070FA0127072C05F050
:103DF00005094FF00308327805F0060507FA04F7C5
:103E000026DC4FEA840A08FA0AF84146334802FAE7
:103E10000AF203F0BBFC7278414602F0030230481C
:103E200002FA0AF203F0B2FCB9F1000F37D12D4BC0
:103E300036E040F2FF33B2E7631C06D1D7F8241412
:103E4000707803F0B2FC041ECFDA2046BDE8F0879C
:103E5000A4F1080A4FEA8A0A08FA0AF841462248F9
:103E600002FA0AF203F092FC7278414602F0030271
:103E70001E4802FA0AF203F089FCB9F1000F14D0CF
:103E80001F2C0CDD74211A4803F01FFA194BC3F8DC
:103E9000107495B97421164803F017FA03E0154B16
:103EA000C3F810746DB90F4B0CE01F2CBFDD7421EB
:103EB0000F4803F00AFA0B4BE9E774210C4803F0B2
:103EC00004FA0C4BC3F814740123064AA340C2F849
:103ED0002034BAE7F5B6000800C0035000C4035010
:103EE00008C4035000E0035004C403500CC4035042
:103EF0004FB7000800D0035070B5154E054630424C
:103F00000C4604D040F28911124803F0DEF9344225
:103F100004D04FF4C5710F4803F0D7F90E4B2C4075
:103F2000D3F83024012022EA0502C3F83024D3F864
:103F300030241443C3F83044D3F82C242A43C3F864
:103F40002C24FFF7A5FE054BC3F8205470BD00BF1D
:103F5000FFFF00F0F5B6000800C0035000E003507A
:103F6000F8B5037805460F46164613B3012B03D068
:103F7000022B1ED0032B04D13F236A78D340D807ED
:103F800004D440F29B11174803F09FF9164BD3F865
:103F9000103323B14FF4CE71124803F096F928463E
:103FA000FFF736FE791C044606D1421C08D1204694
:103FB000F8BD40F2FF33E0E7431CF8D0B8420ED121
:103FC0002846032186F00102FFF772FE012004F16A
:103FD000100306FA03F19840FFF78EFFE7E74FF072
:103FE000FF34E4E7F5B6000800C00350054B9A68BB
:103FF0009107FCD45A689207F9D4DA69002AF6D1FD
:10400000704700BF00800A5010B5074C6368DB079B
:1040100004D44FF49F71054803F057F904F0E2FA15
:104020000223236110BD00BF00800A50A8B700081A
:1040300008B5FFF7DBFF0122024B03F580514A6010
:104040001A6108BD00800A50044B10B55C68012C51
:1040500003D1FFF7D9FF024B5C6010BD00800A500E
:1040600000A00A5038B5074DFFF7C0FF6B68044643
:10407000012B03D1FFF7E8FFFFF7B8FF2378EB60D0
:1040800038BD00BF00800A5038B505460C4604F024
:10409000B3FABDB96268237812B1127843EAC20359
:1040A000627843EA4203A26812B1127843EA8213AB
:1040B000E27843EA8203226912B1127843EA42238A
:1040C000014A936438BD00BF00800A5030B58D4866
:1040D0008BB006F09CFC20B14FF44E718A4803F07F
:1040E000F4F86C46894D0FCD0FC42B68884A2360C5
:1040F000FF238DF80130D2F84C3113F4802340F0C7
:10410000F580D2F850218DF801309DF801306C46D1
:10411000FF2B08BF2C2368467E4D8DF80130FEF73B
:104120007BFA3220FEF7DAFA0FCD0FC40FCD0FC4A1
:1041300095E8030084E80300754BD3F84C21120383
:1041400040F1B880A3F5FE431C88B4F5807F28BFFA
:104150005F248DF81940FEF759FA044484F30804EB
:104160006D488DF81840FCF76DFA6846FEF73CF98B
:104170003220FEF7B9FA6948FEF7DCFB6848FEF723
:1041800067FC684806F043FC20B140F2CB115E4862
:1041900003F09BF8644C0020FEF7ACFAFEF780FBBE
:1041A000236F002023F0070343F003032367FEF788
:1041B000A1FB236F5D4923F4744323675C4BD3F861
:1041C000FC2012F0807279D1D4F8803023F0030300
:1041D00043F00103C4F88030C1F88020524CD4F879
:1041E000203123F0070343F00203C4F82031D4F850
:1041F000283123F0070343F00203C4F82831D4F830
:10420000803123F0030343F00103C4F88031D4F874
:10421000403123F0030343F00203C4F84031D4F8E3
:10422000603123F0030343F00203C4F86031D4F893
:10423000403223F0030343F00203C4F84032D4F8C1
:10424000003223F0070343F00203C4F80032D4F82D
:10425000083223F0070343F00203C4F80832D4F80D
:10426000703223F0030343F00103C4F87032D4F832
:10427000203223F0070343F00103C4F82032FEF795
:104280009BF84FF0E0220020136943F00403136110
:10429000D4F8603223F0070343F00103C4F860321E
:1042A000D4F8943223F0070343F00103C4F89432A6
:1042B0000BB030BDD3F85041E4B24AE7D3F8FC204C
:1042C00022F08072C3F8FC20D4F8802022F0030290
:1042D00042F00102C4F880200022C1F88020D3F807
:1042E000FC2042F08072C3F8FC2077E74FF07E6339
:1042F00093F89C2093F99C30002BFFF606AF8DF8C5
:10430000012002E78CB90008D1B8000848B90008BC
:104310000080E00F5CB90008C017530200B4C40469
:10432000C0EA210190B900080080005000900050C0
:1043300000ED00E007B5094B18689A889B7900905A
:104340006846ADF804208DF80630FEF709FD092017
:10435000FEF73EFD002003B05DF804FB84B90008C1
:1043600013B50024064A6846536F43F001035367B0
:1043700000948DF80440FEF727FC204602B010BDE3
:10438000004000500028ABBF00F16040054B00F535
:10439000614000F00F00ACBF90F80003185C00090A
:1043A000704700BF14ED00E04C2810B504460DD84E
:1043B00001220A49630904F01F04A240203341F896
:1043C0002320BFF34F8FBFF36F8F10BD40F2251135
:1043D000034802F07AFF002CF7DBE9E700E100E098
:1043E000C4B900084C2810B5044608D80123610957
:1043F000074A04F01F04A34042F8213010BD4FF4D7
:104400009871044802F061FF002CF7DBEEE700BF73
:1044100000E100E0C4B900084B2810B5044604D9F7
:1044200040F23B11064802F050FF064B621153F870
:10443000220004F01F04E040C04300F0010010BD62
:10444000C4B9000800E100E000F10C03572B10B5DF
:10445000044604D940F24B11144802F036FFEFF342
:104460001083DB0702D50122104610BD2046FFF75E
:10447000D3FF02460028F6D160B2FFF783FF014662
:10448000EFF3118313B1B0EB131FECD2084B5B6851
:10449000C3F30803002BE7D0103B58B2FFF772FFBD
:1044A000814234BF00220122DEE700BFC4B9000808
:1044B00000ED00E0002808DB01224309034900F079
:1044C0001F008240603341F82320704700E100E084
:1044D00038B500F110035C2B04460D4604D94FF4A7
:1044E000EF710E4802F0F1FE0F2D04D940F2DF11FA
:1044F0000A4802F0EAFE60B20028ACBF00F160405A
:10450000074B4FEA0515EDB2ABBF00F5614000F077
:104510000F0080F800531D5438BD00BFC4B9000817
:1045200014ED00E010B506F061FA0A4B1A786AB98A
:1045300001226FF004041A7006F053FA2046052198
:104540000134FFF7C5FF4C2CF8D110BDBDE8104079
:1045500006F047BA0B1F002073B5044606F03DFA7B
:10456000054606F058FB88B1134E3378FF2B8DF8C3
:1045700007300BD10DF10700FBF7DAFF18B1662108
:104580000E4802F0A2FE9DF8073033700C4B28460F
:104590001C6006F01DFA06F03EFB50B122460020DA
:1045A0009DF8071002F09CFE18B17121034802F03B
:1045B0008CFE002002B070BDB02100203EBA000881
:1045C0001807002073B506F008FA104D104B2E782E
:1045D0001C6806F0FDF906F01EFB60B1FF2E0AD044
:1045E0000020297801AA02F074FE18B1912109482F
:1045F00002F06BFE019C2CB906F0EFF9064B1C682B
:1046000006F0E6F9204602B070BD00BFB0210020E0
:10461000180700203EBA00081C07002010B5044609
:1046200006F0DBF9024B1C6006F0D2F9002010BD49
:104630001C0700202DE9F0431D4613688FB01F684A
:1046400091F8313081468846144606AE1BB3DFF838
:1046500028C2BCE80F000FC69CE80F0086E80F00D8
:1046600018220021684603F088FBA3680893237B87
:10467000012B13D0022B14D01BB1D921774802F0A3
:1046800024FE0023ADF82630637B032B1FD8DFE820
:1046900003F00B25221BDFF8E4C1DAE74FF40073C7
:1046A000F0E74FF44073EDE70023ADF82830012325
:1046B0008DF80630A37BCDF834D0042B11D8DFE879
:1046C00003F01415151514004FF44053EDE7EB21DA
:1046D000624802F0FAFD4FF48053E6E74FF40053CE
:1046E000E3E7FE215D4802F0F0FD00238DF8003085
:1046F0005B4AD8F8383029461A605A4A48465A6008
:1047000000229A60584ADA60424600F075FD06467B
:10471000002840F09B8023695448C5F87031237EFF
:1047200085F87731E37D85F87631A37D85F875319D
:10473000637D85F87431A37E85F87931637E85F8D1
:104740007831237F85F87B31E37E85F87A312368E1
:10475000C5F86C3106F05BF901230422A17D607D70
:10476000FFF714F80123217E0222E07DFFF70EF807
:1047700085F87C61206906F04AF998F831303846AE
:1047800006A9002B66D0FEF7C5FD95F87C3143F0F5
:10479000040385F87C311421227D354B03EB421054
:1047A000C0F8941494F816C0617D253241EA0C419A
:1047B000C0F8AC14207EE17D03EB421341EA0041D6
:1047C0005960A37B03F0FD03012B0BD195F87C31DD
:1047D000022243F0010385F87C31A17E0023607E34
:1047E000FEF7D4FFA37B023B012B0BD895F87C315D
:1047F000042243F0020385F87C31217F0023E07E10
:10480000FEF7C4FF95F87C31DB0717D5A17E627EE9
:10481000237D42EA014241F29C415B0103F1A04346
:1048200003F570335A5041F2944202219950217F8E
:10483000E27E03F5A55342EA01421A600D4A07F5EC
:10484000005305213846DA64FEF722FB30460FB0EC
:10485000BDE8F083FEF78CFD9DE700BF9EBA00081F
:104860009B7800082D790008B178000894B90008F9
:1048700000C00350FF3F0D0308BB000828BB000821
:1048800040F24221014802F020BD00BF9EBA00085C
:1048900010B50020144602F0A8FF022804D018B179
:1048A000C321024802F011FD204610BD48BB00089C
:1048B000034B0222186800238068194601F080BF6C
:1048C000502100203021037D02464B4303F1A043D9
:1048D00003F58023D86E07491B6F884208D113F077
:1048E000020006D0106A136D1B1A584258417047D7
:1048F000002070470C1F0020302337B5007D0DF1DC
:104900000701434303F1A04303F58023DD6E1C6FD1
:1049100003F0C0FD20B140F2F931084802F0D5FCA7
:104920009DF8070040B9064B9D4203D184F0020474
:10493000C4F3400003B030BD0120FBE7B7BB000863
:104940000C1F002037B504460DF10701007D03F070
:10495000A1FD20B140F24441114802F0B6FC9DF89F
:104960000730A3B1256DD4E9122313449D4201D829
:10497000AA4204D940F24F41094802F0A6FCD4E90A
:10498000120303449D4218BF284603B030BD3022B5
:10499000237D534303F1A04303F58023DD6EE2E75B
:1049A000B7BB00082DE9F743D0E9043404F17C07D4
:1049B000D0F80C90013B06461022002138469DB2EB
:1049C000D4F8748003F0D9F9104BC5F30A0543EA13
:1049D0000513C4E91F39012394F8780084F88C305A
:1049E000C4F884803A460A4B009604F16401FCF74F
:1049F000E7FA38B140F28D31064803B0BDE8F04324
:104A000002F063BC03B0BDE8F08300BF00001030CB
:104A10002D4C0008B7BB00082DE9F04300F1380623
:104A2000044685B010220021304603F0A6F94FF469
:104A30004473534D207DC4E90F556387FCF7E6FAB4
:104A400020B140F2CA514F4802F03FFC1022002131
:104A5000304603F092F94FF4447363873023207D8E
:104A6000C4E90F55434303F1A04303F58023DB6EF4
:104A7000AB420BD1FCF7EAFA002876D040F2D351D2
:104A8000404805B0BDE8F04302F01FBC0DF10B013A
:104A900003F000FD20B140F2D9513A4802F015FC74
:104AA0009DF80B30002B63D12046FFF74BFF03A985
:104AB0000746207D03F010FD20B140F2E15131485E
:104AC00002F003FC039B002B04DC40F2E3512D4871
:104AD00002F0FBFB039B04F11808013B10220021AC
:104AE00040469DB2D4F8109003F047F93022237D60
:104AF000C5F30A0553432D0145F04075C4E9065935
:104B000003F1A043276203F580231A6F94F8241061
:104B1000520862F3410184F82410196F94F824209C
:104B200028F0030861F3000284F824201B6F626AF6
:104B30009B0863F39F0248F002036262636400947F
:104B400032462146104B207DFCF73AFA20B140F264
:104B500004610C4802F0B9FB207DFCF777FA20B124
:104B60004FF4C161074802F0B0FB05B0BDE8F08327
:104B700094F844306FF3410384F84430DFE700BF1A
:104B80000C1F0020B7BB00088D4B000892F8543072
:104B900037B5144633B1936D0BB1D06D98470023F0
:104BA00084F8543094F896301BB32046FFF7A4FEE7
:104BB000F8B1236E132120465B6898471025236EB9
:104BC00020461B680DF10701984778B99DF807301A
:104BD00003F0FD02112A05D1A3F111025342534102
:104BE00084F89C30013D15F0FF05E8D12046FFF721
:104BF00013FF002384F8543094F89D3083B103F000
:104C000043FF023801280BD80121D4F8F40006F044
:104C100034F8012804D040F29651034802F055FBC5
:104C2000002003B030BD00BFB7BB000838B55569E0
:104C3000144695F88C3023B940F26A310A4802F0E4
:104C400044FB002305F1900085F88C30FBF760FCF5
:104C500008B1FFF7A7FE63681BB100212046A268D8
:104C60009847002038BD00BFB7BB000838B50446E0
:104C7000007DFCF7CBF920B140F22D41084802F04D
:104C800024FB2046FFF71EFE0546207DFCF7DEF9DB
:104C900020B140F23241024802F017FB284638BDED
:104CA000B7BB00087FB504460D4690F89D6003F041
:104CB000EBFE02282DD185B35EBBD4F8F43023B1CE
:104CC0004FF405711D4802F000FB1D4B6846009330
:104CD0000023019304F1F80302932023039305F0CA
:104CE000B6FFC4F8F40020B940F21D21134802F0C9
:104CF000ECFA2046FFF7BAFF58B90121D4F8F400C6
:104D000005F0BBFF012804D040F222210B4802F03D
:104D1000DCFA84F89D5004B070BD002EF9D0D4F8B0
:104D2000F40006F032F820B14FF40A71034802F0A3
:104D3000CCFA0023C4F8F430EBE700BFB7BB00089F
:104D40001CBC00082DE9F04F8DB00446994608912F
:104D5000069203F099FE022805461AD14FF0FF3162
:104D6000D4F8A00006F060F8002840F08C8194F898
:104D70009D3073B14FF0FF332A460121D4F8F4007F
:104D800005F0CFFF012804D040F2CA31AD4802F04F
:104D90009CFA0023C9F80030D9F80060069B9D1BDF
:104DA00000F0D480089B9E1900F0D0802046FFF7C9
:104DB0005DFF8046002840F0C9802046FFF7C2FD15
:104DC000226D904240F2D980801A854228BF054664
:104DD00094F896A0BAF1000F00F00F8105F006FEDE
:104DE000236D079020460993FFF786FD2F46099B08
:104DF000834658198342D4F8981040F0D980D4E9FA
:104E0000122313448B4208BFC4F89820D4F898109A
:104E10008A4201D88B4204D840F24251894802F0BC
:104E200054FA079805F0DDFDDA46207DFCF7EEF830
:104E300020B140F28241834802F047FA207D0DF113
:104E40002F0103F027FB20B140F286417D4802F09C
:104E50003CFA2046FFF776FD236D834698429DF885
:104E60002F3040F2D98023B140F28E41754802F0D4
:104E70002CFAA26C236DAEB2934240F0C580099328
:104E800004F128082369102200214046079302F00C
:104E900074FF3021079B013EE362099BC6F30A06BB
:104EA0002363237D36014B4328F0030803F1A0431D
:104EB00046F0407648F0020203F58023A6621A67A6
:104EC000236DD4E912122B440A44934208BF0B46C7
:104ED0009342236504D340F2DE415A4802F0F5F9CB
:104EE000236D9B4514D194F89D305BB10121D4F81A
:104EF000F40005F0EFFE012804D040F2EB415148E8
:104F000002F0E3F90123204684F85430FFF784FDD2
:104F1000207DFCF79BF820B140F2F741494802F0B0
:104F2000D4F994F896303BB1BAF1000F04D0236E57
:104F3000112120465B68984747B1D9F80030069A9E
:104F40003B449342C9F80030FFF426AF03F09CFDC8
:104F5000022809D1D4F8A00005F08BFF20B140F25F
:104F6000E131384802F0B1F9D9F80030002B14BF14
:104F700000201B200DB0BDE8F08FD4E912310B44A6
:104F80009A4204D340F26A412E4802F09EF9D4E9D5
:104F900012321344226D9B1A9D4228BF1D46002DDC
:104FA0007FF416AF40F21651264802F08EF90FE753
:104FB00001335A1E914210D1C4F8983013F8012CD5
:104FC000112A01D0132A14D1013FA2F111014A4242
:104FD0004A41D04684F89C200CE713F8012C02F0DB
:104FE000FD01112906D1013FB8F1000F3FF402AFD6
:104FF000EBE7D04606F8012BFCE62A463046216D49
:1050000002F0C6FE2F4610E7238DC3F30A121644A2
:1050100066F30E13238553E7207DABB93023584345
:1050200000F1A04000F58020426E436EC2F30A12E8
:1050300023F4FF432A4423F0700343EA0213436638
:105040003EE700BFB7BB0008104B04940393002356
:10505000CDE90153012300935A462369216802F0E8
:1050600037FA20B140F2CB41094802F02EF9302244
:10507000237D534303F1A04303F580235A6E22F4AA
:1050800080125A661CE7284674E700BF8D4B000863
:10509000B7BB00082DE9F84F90F8943004460D4650
:1050A0001646002B40F0A38003F0EEFC02280746D2
:1050B0003CD094F89580DFF83C912E44AE4224D049
:1050C00094F8963073B12046FFF7D0FD002837D012
:1050D000D4F89820236D9A4204D040F2CD2148465E
:1050E00002F0F3F894F89C30002BE7D0236E2F46A3
:1050F0002A785B68B8F1000F71D1236E20465B6897
:105100003978013598470028D8D003F0BDFC022833
:1051100009D1D4F8180105F0ACFE20B14FF4567156
:10512000344802F0D2F80020BDE8F88F4FF0FF318C
:10513000D4F8180105F078FE0028BAD03846F3E715
:1051400005F054FC0746207DFBF760FF20B140F2DC
:10515000D321284802F0B9F82046FFF7F3FBA26CF0
:1051600000F1FF3A924538BFE36C207D3CBF03F16C
:10517000FF3302EB030A94F854B0FBF767FF20B14A
:1051800040F2DF211B4802F0A0F8D4F89810BBF1E0
:10519000000F22D0236D8B4204D04FF43971154893
:1051A00002F093F8384605F01CFC9BE7A26C9A428B
:1051B00002D9E36C013B13448B420BD013F8012955
:1051C000112A01D0132AF1D1A2F111035A425A41F6
:1051D00084F89C20C4F898A0E4E75346ECE70A2A38
:1051E0008BD10D2120469847002886D08DE70E20D0
:1051F0009AE700BFB7BB0008F0B50C461646054657
:105200004FF4B672002191B0204602F0B6FD274659
:10521000B446BCE80F000FC7DCF8003006F1140CF0
:105220003B6004F16407BCE80F000FC7DCF80030F6
:10523000F26A3B60B36AC4E9132396F83020A36492
:1052400084F8952096F83320C4F89830012384F828
:10525000962084F89C3084F85430B36B2366514B0D
:105260002C606B60504BAB60504BEB60504B6B61F4
:10527000504BAB61504B2B61FBF76EFE10B14F4BA7
:1052800098420ED1002107A8FBF7EEFD014640B978
:10529000079B07A82375FBF7E7FD28B1207DFBF7E7
:1052A00035FE102011B0F0BD079B84F87830444BD8
:1052B000EB61444B2B62012384F89D30424BCDE9D6
:1052C000083004F1A4030A93502308A80B9305F0B7
:1052D0006EFDC4F8A00018B9DE213C4801F0F5FFCE
:1052E0003B4B08A808930023099304F58E730A9397
:1052F00005F05DFDC4F8180118B9E421334801F048
:10530000E4FF344B0CA80C9300230D9304F1F80335
:105310000E9320230F9305F09AFCC4F8F40018B9FB
:10532000EC212A4801F0D1FF207DFBF76FFE002819
:10533000B7D1294B0494CDE90203E36C0193012317
:1053400000932369A26C2168207D02F0C1F8002837
:10535000A7D13022237D4FF48011534342F26402DF
:1053600003F1A04303F580239950B36B93F9100028
:10537000FFF7A0F8B36B93F91000FFF733F804F1CF
:10538000900001F0A3FF2846FFF748F92046FFF7F9
:1053900043FB207DFBF75AFE003818BF01200001B7
:1053A00080E700BF9550000883790008454D00084C
:1053B0007179000877790008DD530008038000F058
:1053C000A54C00087D79000833BC0008B7BB000875
:1053D0003DBC00081CBC00088D4B000870B504687B
:1053E000054694F89430002B78D102F0EDFA03F0E2
:1053F0004BFB022817D14FF0FF31D4F8180105F00C
:1054000013FD20B140F26F21384801F05EFF4FF0EC
:10541000FF31D4F8A00005F007FD20B140F2722161
:10542000324801F052FFFFF7CDF8854202D100204B
:10543000FFF7F4F8236E93F91000FFF73BF8236EA3
:1054400093F91000FEF7B0FF94F89D304BB1D4F8FB
:10545000F40005F09AFC20B140F28B21234801F0C2
:1054600034FFD4F8A00005F026FD20B140F28F21D2
:105470001E4801F02AFFD4F8180105F01CFD20B1E8
:1054800040F29221194801F020FF207D02F0BCFF7C
:1054900020B140F29721154801F017FF207DFBF75E
:1054A00035FD20B140F29B21104801F00EFFFBF7C3
:1054B0000BFD38B10E4B984204D040F29F210B48AF
:1054C00001F003FF0023C5E90033C5E90533EB60B4
:1054D000236E2046BDE87040DB68184740F2662125
:1054E000024801F0F2FE0F2070BD00BFB7BB0008FC
:1054F000058000F007B5684600F04EFBDDE90001CD
:105500000022034B03B05DF804EB00F07BBB00BF4F
:10551000200700202DE9F04F9B46531C05460E4600
:10552000174687B035D170B308244FF00008784B88
:10553000CDF8148083F80080109B002B00F0DF80F2
:10554000C3F80080002E00F0DC806B68B34240F2AC
:10555000D88005F04BFA073605AB26F007063A4629
:10556000CDE9008382465B463146284602F0BBFA0D
:10557000059F814607B1F8B9504605F032FA192067
:1055800007B0BDE8F08F40F2A721624801F09DFE10
:10559000CAE7531EB3F5007F01D21A4204D040F28D
:1055A000A2215C4801F091FE25B940F2A72159489B
:1055B00001F08BFE3C46B8E7B7F8028029694FEA54
:1055C000C802C0EBC8080139B8F1270F29617BD99F
:1055D000BBF1000F51D1864206F1080848D022469F
:1055E0003946284602F0FEF904460590059B98448A
:1055F000404602F074FA059906F10F004A88C30884
:10560000A2EBD002A8F80220CA88A8F80430002A29
:1056100030D0D31A9BB201EBC202A8F806309380B7
:105620008B88F608A380B8F804303A46E3804146F8
:1056300000232846668002F0A1FAAB680833AB600D
:10564000237843F0010323702B6901332B616288B7
:10565000AB68504603EBC203EA68AB60934288BF75
:10566000EB6005F0BEF9109B083400201C6087E752
:105670003C46BBE7A8F80620D2E707EB0804204623
:10568000039202F02CFA09F10701C908059861801C
:1056900008F10701C908A180C18899B1C900039A1E
:1056A000CE1DB21A02EB0903C3F3CF030144E3801A
:1056B0008B80A38808F1FF384FEAD808A0F8028051
:1056C000C380BAE7E180F4E7BBF1010F1BD107F11A
:1056D0000803B3FBF4F204FB1233B3B1224639469C
:1056E000284602F07FF9044623783A4643F0010346
:1056F000237021460123284602F040FAA7E7222022
:105700003EE721203CE78642E8D13C46ECE700BF7B
:10571000B121002048BC000807B5009313460A4693
:1057200001460348FFF7F6FE03B05DF804FB00BF37
:105730002007002013460A460146014802F099B9A5
:10574000200700202DE9F74F0C46054620B940F20E
:105750008531724801F0B9FD002C00F0DC80D5E9FC
:10576000056805F043F914F8087C34F806CCFB070B
:10577000009002D5BCF1000F06D1009805F031F978
:10578000012003B0BDE8F08FAB68D5F8109034F875
:1057900004ECA3EBCC0B09F10103A4F108010CF11B
:1057A0000102C5F808B02B61BEF1000F39D0A1EBA2
:1057B000CE03D888B3F802A00190187807F002074A
:1057C000C00723D41FBB0198A0EB0A07012F28D1E3
:1057D0000CF10202ABF108075244C5F81090AF601B
:1057E00034F802ECBEF1000F1DD114F8081C24F8A7
:1057F00006EC6EF3000104F8081C013A5A801A788E
:105800006EF300021A700022DA8040E04FB114F803
:10581000087C72446FF3410704F8087C00279F80DE
:10582000DEE70B46DCE701EBCE0AD5E9007007EBBB
:105830000009CA450ED314F8081C013A6FF30001A1
:1058400004F8081C002124F8061C5A801A7861F319
:105850000002D7E711F83E10574611F001012FD092
:1058600014F8081C013A6FF3000104F8081C002129
:1058700092B224F8061C5A801A7861F300021A705A
:10588000C3F107023A44C2F3CF02DA80BA80002E95
:105890003FD0B3423DD37288002A08BF1E46B8F1FC
:1058A000000F06D0434504D8B8F80220002A18BFDC
:1058B00043460098C5E9056305F093F8002060E7CA
:1058C000AEEB0C0EBEF1010FCAD1BAF802C0AAF8B5
:1058D00002109444BAF80620CAB10AEBC2070021AC
:1058E0002A69013A2A61AA68083AAA6014F8082CC1
:1058F00024F8061C6FF3000204F8082C1A78A3F8A9
:1059000002C061F300021A70002FB9D17BE717467D
:10591000E5E71E46C3E7222033E700BF48BC000886
:105920002DE9F74F0D4614469946064620B940F238
:105930006741984801F0C9FCB9F1000F00F02681D9
:105940000023C9F800307368A34240F2218155B9A1
:10595000002C00F01D814A462946204603B0BDE8D0
:10596000F04FFFF7E7BE2CB9284603B0BDE8F04F73
:1059700002F089B805F03AF835F8067C07344FEAAA
:10598000C70B24F00704A3458246A5F1080180F067
:10599000878035F8023C002B65D0DA1B012A62D1E2
:1059A00001EBC30811F83330D8075CD4B8F80220F3
:1059B000ABEB040313EBC20355D41F2B38DDC4F348
:1059C000CF022F1925F8062C013225F8022C384673
:1059D000009302F084F835F8022C009BBA80B8F8E6
:1059E0000620DB087B800AB3B8F80210511A11FABE
:1059F00083F39BB208EBC202FB80938000234246F4
:105A00003946304602F0BAF8404602F068F8B3680A
:105A1000A4EB0B041C44F368C9F800509C42B4602A
:105A20003CD8504604F0DDFF002426E0FA80E5E78C
:105A300033690137013B3361B8F80630174425F864
:105A4000067C6BB1B8F802209A1A12FA87F7BFB237
:105A500008EBC30325F8027C9F8001234246D0E770
:105A600025F8023CF9E720464A460021FFF762FE8E
:105A7000044630B1504604F0B4FF204603B0BDE800
:105A8000F08F5A462946D9F8000002F081F92846DD
:105A900001F0F9FF04460028C3D0EBE7F460C0E74B
:105AA00071D935F8022CABEB0408531EDB1B002A1E
:105AB00038D001EBC20711F83220D20733D493BBA0
:105AC000C4F3CF03291925F8063C0133084625F80D
:105AD000023C009102F003F8009935F8022C7B8813
