S01300006F742D656D6265646461745F2E7333373C
S315080060000818002025340108A51904086D2601087A
S315080060101D620008AD190408B51904086D260108A3
S315080060206D2601086D2601086D2601086D260108F2
S31508006030B9190408E0C904086D2601086D26010887
S31508006040C14B01086D2601086D2601086D26010859
S315080060506D2601086D2601086D2601086D260108C2
S315080060606D2601086D2601086D2601086B260108B4
S31508006070692601086D2601086D2601086D260108A6
S315080060806D2601086D2601086D2601086D26010892
S315080060906D260108AD2701086D2601086D26010841
S315080060A06D260108F1260108CD2601086D2601088E
S315080060B06D260108057E0408B188040897A504081A
S315080060C093A5040841800408ADA504089BA5040807
S315080060D0818804089FA50408F188040859890408DA
S315080060E06D2601086D2601086D2601086D26010832
S315080060F06D2601086D2601086D2601086D26010822
S315080061006D2601086D2601086D2601086D26010811
S315080061106D2601086D2601086D2601086D26010801
S315080061206D2601086D2601086D2601086D260108F1
S315080061306D2601086D2601086D2601086D260108E1
S315080061406D2601086D2601086D26010835B8040874
S31508006150556404086D26010881A5040887A5040866
S315080061606D2601086D2601086D2601086D260108B1
S31508006180F0B5114A114C124E00F00105E3695F079C
S3150800619013D40DB9334213D103EA00078F4207D14E
S315080061A00B4A1A40002A0CBF00206FF00100F0BD10
S315080061B0013AEBD16FF00200F9E74FF0FF30F6E74E
S315080061C06FF00100F3E700BF8096980000000350C7
S315080061D002000100000000000000000000000000AE
S315080061E0013800D0FCE77047D0F8A0301B689A6CDD
S315080061F05206FCD5002059647047D0F8A0301B68B9
S315080062009A6C120643BFDB6B00200B701B2070478D
S3150800621080F89510704790F895007047BFF34F8F38
S315080062200549064BCA6802F4E0621343CB60BFF324
S315080062304F8F00BFFDE700BF00ED00E00400FA0540
S315080062404FF0FF307047014B186870479C1E0020BE
S3150800625010B5044600B9FEE7037F1BB143699847AA
S315080062600023237710BD70B5044600B9FEE7038BFB
S31508006270428B9A420CD90022013303830277D0E974
S31508006280025398472B4601462046BDE870401847FA
S31508006290036ABDE8704001330362D9E7014B1B6905
S315080062A0184700BF7021002010B5EFF31184302382
S315080062B083F311880348FFF7CBFF84F31188BFF3F4
S315080062C06F8F10BD70210020014B1B69184700BF56
S315080062D0B821002010B5EFF31184302383F3118819
S315080062E00348FFF7B5FF84F31188BFF36F8F10BD1E
S315080062F0B82100202DE9F843064614460D46FFF757
S31508006300A7FF3369984700272D1947EB07032C1A6F
S3150800631063F10005012C75F1000306DA336A30468D
S3150800632001333362BDE8F84392E7D6E9028398471A
S31508006330A04277EB05031CD2F36898473B46024612
S315080063402946204642F0BAFBF368914698473B46F1
S3150800635002462946204642F0B1FB4C4683B200224B
S315080063607383214630463283C04701233377BDE81D
S31508006370F8833B46F3E7094B10B51C6804B9186067
S31508006380EFF31184302383F311880448FFF7B2FF33
S3150800639084F31188BFF36F8F10BD00BFB8210020AA
S315080063A0084B10B51C6804B91860EFF31184302344
S315080063B083F311880348FFF79DFF84F31188BFF321
S315080063C06F8F10BD7021002030B5074C25682468F2
S315080063D06A40D2B2891A101A090A41EA10216340A2
S315080063E023EA0100C0B230BD0064002038B5A0F130
S315080063F04003054602465A21DBB24120FFF7E4FF77
S31508006400A5F146032A4604467A21DBB26120FFF746
S31508006410DBFF6B1D2A4639210443DBB23020FFF728
S31508006420D3FF2B2105F11403E4B22A460443DBB259
S315080064300846FFF7C9FF2F2105F11103E4B22A46E2
S315080064400443DBB20846FFF7BFFFE4B22043013836
S3150800645040B238BD044B1B68584043085B42404273
S315080064601843C017704700BF0064002010B5C388E2
S3150800647023B9CA885AB9ABB1012017E0026802EB02
S31508006480830252F8042C002AF3D1013BF0E70C688A
S3150800649004EB820454F8044C0CB9013AEAE7934237
S315080064A0EAD80FD3013B5A1C01D1002010BD02685F
S315080064B052F823400A6852F823209442DCD803F1A4
S315080064C0FF33F0D24FF0FF30F0E710B50A4C2268E0
S315080064D023684240594081EA0200C00FFFF7BAFF1D
S315080064E02368521A434022EA030208401043C00FA9
S315080064F0BDE81040AEE700BF006400200B6810B589
S3150800650004681C4404600B689C422CBF00240124C8
S3150800651043681B1943604C68234443601068496804
S3150800652040F100008B4238BF0130106010BD03688F
S315080065305B180360137843F10003137070471378F0
S3150800654010B504688C4238BF013B137003685B1AA8
S31508006550036010BDF0B504685509231F1E4604EBF9
S31508006560850556F8047FFF43AE423760F9D153F8E4
S31508006570046F01361E600EB9AB42F8D14FF6FF73B1
S31508006580D2088380A3585B1AA350F0BD38B50446D9
S31508006590D0F8A0301D68AB6C5906FCD5002394F8DA
S315080065A0A9101A4694F8A8000FF04EFA002394F89A
S315080065B0AB101A4694F8AA000FF046FA94F8B030D1
S315080065C0DA0707D5002394F8AD101A4694F8AC00FC
S315080065D00FF03AFA94F8B0309B0707D5002394F8E1
S315080065E0AF101A4694F8AE000FF02EFA042205F5FD
S315080065F0005328461A650FF06CF9D4F8A400002158
S3150800660045F0FEFE002038BD38B50546007D0DF084
S3150800661055F93023287D434303F1A04303F580232E
S31508006620DA6E1C6F084B9A420BD114F0020404D0A0
S315080066302C6D2B6AE31A5C425C410DF061F9204629
S3150800664038BD0024F9E700BF046400202DE9F743AC
S31508006650D0E9043404F17C07D0F80C900646013BD7
S31508006660102200213846D4F874809DB244F056F8BA
S315080066700B4BC5F30A0543EA0513C4E91F39012381
S3150800668094F8780084F88C30C4F884803A46054B30
S31508006690009604F164013AF009FB03B0BDE8F08303
S315080066A000001030A9660008536910B51446002288
S315080066B0D3F8900083F88C2028B10168C3F89010AD
S315080066C00260FFF7C3FF63681BB100212046A2687A
S315080066D09847002010BD034693F89420084610B545
S315080066E0FAB10A69B2F5006F1DD8EFF311843022AA
S315080066F082F3118893F88C204B617AB103F19002EA
S31508006700D3F890303BB90360106084F31188BFF367
S315080067106F8F002010BD1A461B68F3E7FFF796FF38
S31508006720F3E70E20F6E72120F4E7302337B5007D9E
S315080067300DF10701434303F1A04303F58023DD6E02
S315080067401C6F45F079FE9DF8070040B9054B9D4240
S3150800675003D184F00204C4F3400003B030BD012025
S31508006760FBE700BF0464002013B504460DF10701DA
S31508006770007D45F061FE9DF8073043B1236DD4E9ED
S3150800678012020244934218BF184602B010BD3022C6
S31508006790237D534303F1A04303F58023DB6EEEE725
S315080067A090F894302DE9F74F04460D46002B68D132
S315080067B04FF0300890F895708E18B5424ED094F880
S315080067C09630002B38D02046FFF71EFFA0BBEFF30C
S315080067D0118988F31188207D0DF070F82046FFF79F
S315080067E0C3FFD4F848B000F1FF3ADA4538BFE36C86
S315080067F0207D3CBF03F1FF330BEB030A94F85430BA
S3150800680001930DF07DF8019B93B95346D4F898107F
S3150800681099420BD013F80129112A01D0132A21D144
S31508006820A2F111035A425A4184F89C20C4F898A050
S3150800683089F31188BFF36F8F94F89C30002BBCD076
S31508006840236EA9462A785B689FB9236E20465B6843
S3150800685099F80010013598470028AED0002003B0FB
S31508006860BDE8F08F9B4582BFE36C03F1FF335B44C1
S31508006870CEE70A2AE9D10D21204698470028E4D018
S31508006880ECE70E20EBE7F8B50546500988420C46BA
S3150800689002F01F0601D80AD136B12846A200002107
S315080068A0BDE8F84043F03ABF1F2A02D8F8BD1F2AB0
S315080068B00FD9820005EB8003291F05EB8407BB422D
S315080068C01AD1201A38BF0022002105EB800043F0B8
S315080068D025FF002EEAD0002205EB8404C6F120002D
S315080068E0AC42E3D054F8041C21FA06F3134344F8E7
S315080068F0043D01FA00F2F3E753F804CB41F804CF5C
S31508006900DDE70A46C18808B511B10068FFF7BBFF85
S31508006910002008BD10B5044688B14378012B04D180
S31508006920BDE81040406817F061BA0378012B04D11E
S3150800693024220021083043F0F1FE0023237010BD05
S315080069404FF0FF3043F0D2B970B5EFF3118630231C
S3150800695083F3118844F0EAFA194D1A4BA8691C68A2
S315080069602B6CDB0703D544F0E1FAA869013486F3FA
S315080069701188BFF36F8F144B8342144BA3411DD369
S31508006980134B1A68D2B14FF47A73A0FB030103FBC9
S315080069900411531E13420DD1B2FA82F2C2F11F043A
S315080069A0531CD243E04001FA03F3184321FA02F2DA
S315080069B0104370BD002342F081F8FAE7FEE700BFF6
S315080069C000800A50941E0020EFA7C64B3789410065
S315080069D0981E0020013901D20020704750F8213056
S315080069E0002BF7D0B3FA83F00131C0EB41107047A2
S315080069F010B5044644F086FA0C4BA0F57A729A4212
S31508006A0012D84FF47A73B0FBF3F05C43084BB3FB30
S31508006A10F0F3B4FBF3F0022806D9BDE810400323CF
S31508006A20B0FBF3F0FFF7DCBB10BD00BFFFC99A3B14
S31508006A3040420F0007B50A4600B9FEE7037F03B1D7
S31508006A40FEE7074B01900093416801234FF0FF30A2
S31508006A5042F065FF00B1FEE703B05DF804FB00BF36
S31508006A6013C5040800B9FEE741684FF0FF3042F04D
S31508006A7066BF70B50646264D33680C46A86803B34C
S31508006A80972143F0BDF9024600B1FEE73168A868D0
S31508006A903BF036F900B1FEE73168A86842F0BEFF60
S31508006AA03179814200D0FEE7A8683BF0BBFA00B115
S31508006AB0FEE70122A868114643F0D4F9064628B134
S31508006AC0FEE73BF073FD00B1FEE7124E0322A8680D
S31508006AD0114643F0B7F97F2C18D0A86843F04FF851
S31508006AE0FF2808D104EB840464003146A86843F003
S31508006AF061F828B1FEE7A8683BF0ACFA0446F4E76B
S31508006B002146A86843F03DF800B1FEE770BD00BF16
S31508006B1000640020CC7900200022C188914201D867
S31508006B2000207047036853F8223033B193FAA3F074
S31508006B30B0FA80F000EB421070470132EEE701F13F
S31508006B408041013900EB81018142034600D270473A
S31508006B501B680A681BBA12BA40F8042B41F80439B4
S31508006B60F2E70FF0D1BE0FF0B3BE002807DB012312
S31508006B704109034A00F01F00834042F8213070475C
S31508006B8000E100E000207047FEE74FF400530020C4
S31508006B904B60704701207047012070474FF0FF3067
S31508006BA07047002070472DE9FF470446007D04F131
S31508006BB038060CF083FE10220021304643F0AEFD65
S31508006BC04FF0300A4FF44473207DDFF81491404F9C
S31508006BD063870AFB0093C4E90F77DB6EBB4204D1D7
S31508006BE004B0BDE8F0470CF08BBE0DF10F0145F07F
S31508006BF023FC9DF80F70002F62D12046FFF7B4FDE5
S31508006C00344A80461278237DEAB1072B1BD8324ACC
S31508006C1002EB0312127BB2B1EFF311818AF31188EA
S31508006C20D9F834000AFB0399D9F8642081F311884E
S31508006C30BFF36F8F012101FA03F3034204BFC2F3C6
S31508006C400A135F183D4604F118071022002138463A
S31508006C50D4F8109043F062FD3022237D013D534362
S31508006C60C5F30A052D0145F04075C4E9065903F137
S31508006C70A043C4F8208003F580231A6F94F82410E3
S31508006C80520862F3410184F82410196F94F82420FD
S31508006C9027F0030761F3000284F824201B6F626A59
S31508006CA09B0863F39F0247F00207626267640094D9
S31508006CB0207D32462146094B39F0F8FF207D8FE7C3
S31508006CC094F844306FF3410384F84430EFE700BF8B
S31508006CD004640020581B002070190020076F000864
S31508006CE0000004502DE9F04F9B460023044689B066
S31508006CF005910392CBF80030DBF80050039B5E1B2E
S31508006D0000F09A80059B5D1900F096802046FFF7F3
S31508006D107BFC8246002840F08F802046FFF724FD42
S31508006D20216D94F8968088429CBFD4E91203C01856
S31508006D30401A864228BF0646B8F1000F00F0AC801C
S31508006D40EFF311830493302383F311883746D4F87D
S31508006D5050902046FFF7E9FC09EB06029145D4F866
S31508006D60983072D1D4E912120A44934208BFC4F883
S31508006D709810049B83F31188BFF36F8F8046207D9C
S31508006D800CF09CFD207D0DF11F0145F055FB2046BA
S31508006D90FFF7EAFCD4F850A08146504540F28A80B5
S31508006DA0A36CB5B29A457DD123691022049304F1E8
S31508006DB028030021184643F0B1FC3021049A013D0E
S31508006DC0C4E90B2A227DC5F30A054A432D0120F0A2
S31508006DD0030302F1A04245F0407543F0020302F5B1
S31508006DE08022A5621367236DD4E9121233440A443C
S31508006DF0934208BF0B464B45236505D10123204620
S31508006E0084F85430FFF7CFFE207D0CF079FD94F816
S31508006E1096303BB1B8F1000F04D0236E11212046FD
S31508006E205B689847DBF8003037B1039A3B449342D6
S31508006E30CBF80030FFF460AFDBF80030002B14BF4E
S31508006E4000201B2009B0BDE8F08F09F1010909F1FE
S31508006E50FF318B4210D1C4F8989019F8013C112BD8
S31508006E6001D0132B14D1013FA3F111014B424B4121
S31508006E70C24684F89C3071E719F8013C03F0FD011D
S31508006E80112906D1013FBAF1000F3FF467AFEBE7CE
S31508006E90C24605F8013B61E73246284643F049FCFD
S31508006EA037466CE7238DC3F30A12154465F30E13B0
S31508006EB0238598E79DF81F30207D93B930234343F7
S31508006EC003F1A04303F58023596E5A6EC1F30A11E4
S31508006ED022F4FF42314422F0700242EA01125A6655
S31508006EE081E7CDE900644A462369216832F0A4FFA8
S31508006EF03022237D534303F1A04303F580235A6EC2
S31508006F0022F48012EBE792F8543037B5144633B1C1
S31508006F10936D0BB1D06D9847002384F8543094F8DC
S31508006F2096301BB32046FFF700FCF8B1236E1321F9
S31508006F3020465B6898471025236E20461B680DF18E
S31508006F400701984778B99DF8073003F0FD02112A22
S31508006F5005D1A3F111025342534184F89C30013DF7
S31508006F6015F0FF05E8D12046FFF71DFE002084F83E
S31508006F70540003B030BD2DE9F74F002800F0E0803B
S31508006F807049D1E90A4EEFF3118B302383F3118848
S31508006F9010F8086C30F806CCF30702D5BCF1000FE0
S31508006FA007D18BF31188BFF36F8F012003B0BDE8BB
S31508006FB0F08FCB69D1F82490A3EBCC0330F8048C7E
S31508006FC00093CB6109F10103A0F108050CF1010258
S31508006FD04B62B8F1000F3AD0A5EBC803DF88B3F8C7
S31508006FE002A001971F7806F00206FF0724D426BBE5
S31508006FF0019EA6EB0A06012E29D1009E0CF102027B
S31508007000A6F108075244C1F82490CF6130F8028CE3
S31508007010B8F1000F1DD110F8085C20F8068C68F34B
S31508007020000500F8085C013A5A801A7868F30002ED
S315080070301A700022DA803FE04EB110F8086C42441C
S315080070406FF3410600F8086C00269E80DEE72B46A3
S31508007050DCE705EBC809D1E905673744B9450ED31E
S3150800706010F8085C013A6FF3000500F8085C002583
S3150800707020F8065C5A801A7865F30002D8E715F8F6
S3150800708038504E4615F0010530D010F8085C013A24
S315080070906FF3000500F8085C002592B220F8065C3C
S315080070A05A801A7865F300021A70C3F1070232444F
S315080070B0C2F3CF02DA80B280002C3FD09C423DD882
S315080070C06288002A08BF1C46BEF1000F06D09E45FE
S315080070D004D3BEF80220002A18BF7346C1E90A4342
S315080070E08BF31188BFF36F8F00205FE7A8EB0C08BE
S315080070F0B8F1010FC9D1B9F80270A9F802501744BE
S31508007100B9F80620C2B109EBC20600254A6A013A57
S315080071104A62CA69083ACA6110F8082C20F8065C5F
S315080071206FF3000200F8082C1A785F8065F30002F6
S315080071301A70002EB9D17CE71646E6E71C46C3E767
S31508007140222033E70064002010B5044630B13830F9
S31508007150FFF7E0FB6821204614F0FCFF2046BDE857
S31508007160104008E710B5044618B12422002143F060
S31508007170D5FA2046BDE81040FDE6002313B5019375
S3150800718069B160B101FB00F401A9204636F04AFB5B
S31508007190014620B9019810B1224643F0BFFA01987A
S315080071A002B010BD42F21073994270B504460D46FE
S315080071B002D96FF00F0070BDC3888B4213D2042129
S315080071C02846FFF7DAFF06460028F2D0216841B1C3
S315080071D0E288920043F0ADFAE1882068890014F04D
S315080071E0C3FFE58026600020E5E72DE9F84305465C
S315080071F00E469046D4883CB9F188A1420ED26FF06B
S3150800720009073846BDE8F883D8F8003003EB84034D
S3150800721053F8043C002BEFD1013CECE72846FFF776
S31508007220C1FF07460028ECD1F28894420BD2AE4241
S3150800723009D028683168121B920001EB840100EB23
S31508007240840043F076FAEA88F088824207D92B68E8
S31508007250121A0021920003EB800043F05FFA002225
S3150800726013462968D6F800E0D8F80080944203D17E
S31508007270C3B90123AB80C4E75EF822C058F8226080
S31508007280ACEB0300B0422CBF4FF000094FF00109E8
S31508007290801B41F822009C452CBF4B4609F101038F
S315080072A00132E3E7EA8801EB840401EB82018C42B0
S315080072B002D1002BDDD0A2E72268D21A34BF0123FF
S315080072C0002344F8042BF2E700232DE9F7430C21A9
S315080072D006460193FFF766FF0546002856D134682F
S315080072E001AA04F11808414604F128072046F68841
S315080072F0FFF704F939462046FFF700F90199A36814
S3150800730004F108095B182CBF01210021A360E3687A
S315080073104846C9182CBF01230023E160414604F101
S3150800732020080193FFF7EAF848464146FFF7E6F8D2
S3150800733048463946FFF7E2F80199236904F110092E
S315080073405B1823612CBF01230023616948465B183B
S3150800735063612CBF012300234146019304EB860693
S31508007360FFF7CCF839464846FFF7C8F8019B321BA9
S31508007370193AA36122F0030204F119039E4238BFA9
S315080073800022294604F11C0043F0C8F9284603B038
S31508007390BDE8F08300232DE9F04F0F2185B006469E
S315080073A08DF80B30FFF7FEFE0546002840F0C98031
S315080073B034680DF10B02D4F81CB02368594603A8AB
S315080073C00393FFF7BCF8D4F82C904946FFF7B7F8B3
S315080073D0039B9DF90B1023606368002903938DF8BE
S315080073E00B5080F2B2804942FFF7A9F8D4F820A0E2
S315080073F00DF10B02514603A8FFF7A1F8D4F8308027
S315080074004146FFF79CF8039B9DF90B106360A36840
S315080074100393002399428DF80B3080F299804942F4
S31508007420FFF78DF8636A0DF10B02194603A800935E
S31508007430FFF785F8676B3946FFF781F8039B9DF9D7
S315080074400B10A360E3680393002399428DF80B3071
S3150800745080F281804942FFF772F8A36A0DF10B02A8
S31508007460194603A80193FFF76AF85946FFF75FF82C
S315080074704946FFF75CF8039B9DF90B10E360236907
S315080074800393002399428DF80B3067DA4942FFF7D8
S3150800749056F80DF10B0203A84946FFF750F8514676
S315080074A0FFF745F84146FFF742F8039B9DF90B1095
S315080074B0236163690393002399428DF80B3050DAF0
S315080074C04942FFF73CF80DF10B0203A84146FFF7C6
S315080074D036F80099FFF72BF83946FFF728F8039B8B
S315080074E09DF90B106361A3690393002399428DF8F4
S315080074F00B3039DA4942FFF722F839460DF10B020B
S3150800750003A8FFF71CF80199FFF711F8039B9DF9EB
S315080075100B70A36127EAE773E361F3880021072B61
S31508007520A3F108024FEA820204F1200098BF002264
S3150800753043F0F4F8002F04DAE02239463046FFF724
S3150800754009F8284605B0BDE8F08FFEF7F0FF4DE7CD
S31508007550FEF7EDFF66E7FEF7EAFF7EE7FEF7E7FFD1
S3150800756097E7FEF7E4FFAEE7FEF7E1FFC5E700237E
S315080075702DE9F04F112187B003908DF81330FFF7EE
S3150800758011FE0290002840F04881039B0DF113027A
S315080075901C6805A823680593236A19460193FEF714
S315080075A0C6FFD4F824B05946FEF7C1FFD4F82C908C
S315080075B04946FEF7C4FFD4F830804146FEF7BFFFC0
S315080075C0656B2946FEF7BBFFA66B3146FEF7B7FF8C
S315080075D0059B9DF913102360636800290593029B98
S315080075E08DF8133080F21D814942FEF7A8FF0DF190
S315080075F0130205A85946FEF79AFFD4F828A0514663
S31508007600FEF795FF4146FEF79AFF2946FEF797FFD4
S315080076103146FEF794FFE76B3946FEF790FF059B68
S315080076209DF913106360A3680593002399428DF8AA
S31508007630133080F2F9804942FEF781FF0DF11302FB
S3150800764005A85146FEF773FF4946FEF770FF29461F
S31508007650FEF775FF3146FEF772FF3946FEF76FFFF4
S31508007660059B9DF91310A360E368059300239942CF
S315080076708DF8133080F2DB804942FEF760FF0DF18A
S31508007680130205A84946FEF752FFFEF750FF41468A
S31508007690FEF74DFFFEF74BFF2946FEF748FF394632
S315080076A0FEF74DFF0199FEF74AFF5946FEF747FFD9
S315080076B0059B9DF91310E3602369059300239942FE
S315080076C08DF8133080F2B6804942FEF738FF0DF187
S315080076D0130205A84146FEF72AFFFEF728FF2946AA
S315080076E0FEF725FFFEF723FF3146FEF720FF594632
S315080076F0FEF725FF5146FEF722FF059B9DF913105D
S31508007700236163690593002399428DF8133080F24B
S3150800771094804942FEF713FF0DF1130205A8294686
S31508007720FEF705FFFEF703FF3146FEF700FFFEF7FB
S31508007730FEFE3946FEF7FBFE5146FEF700FF4946B8
S31508007740FEF7FDFE059B9DF913106361A36905937A
S31508007750002399428DF8133072DA4942FEF7EFFE9C
S315080077600DF1130205A83146FEF7E1FEFEF7DFFE2E
S315080077703946FEF7DCFEFEF7DAFE3146FEF7D7FE9F
S315080077802946FEF7D4FE0199FEF7D9FE5946FEF7BB
S31508007790D6FE059B9DF91310A361E36905930023A3
S315080077A099428DF813304EDA4942FEF7C8FE0DF1BC
S315080077B0130205A83946FEF7BAFEFEF7B8FEFEF72D
S315080077C0B6FE0199FEF7B3FE5146FEF7B8FE4946E6
S315080077D0FEF7B5FE4146FEF7B2FE2946FEF7AFFEB6
S315080077E0059B9DF91350E36125EAE5732362039B24
S315080077F00021DB8804F12400082BA3F109024FEAD3
S31508007800820298BF002242F089FF002D05DA4FF464
S31508007810807229460398FEF79DFE029807B0BDE8D8
S31508007820F08FFEF784FEE2E6FEF781FE06E7FEF736
S315080078307EFE24E7FEF77BFE49E7FEF778FE6BE758
S31508007840FEF775FE8CE7FEF772FEB0E710B5682105
S315080078500120FFF792FC044618B16822002142F085
S315080078605DFF204610BD10B524210120FFF785FCD9
S31508007870044618B12422002142F050FF204610BDCC
S31508007880FEE7002307B5084601A9019335F0CAFFAC
S31508007890019803B05DF804FB0846FFF76CBB084681
S315080078A011466AE4002303604360704708B5002365
S315080078B00A480B490B4A091AC2E9050182F8303011
S315080078C09363C2E90A00FFF7EDFF01230139C908EE
S315080078D0418053620823C2E9073308BD407B002074
S315080078E0000004200064002030B5D0E9054553B3F4
S315080078F094420FD0E2B9046974B9036983B30029C5
S3150800790018BF0D462B78DB0714D5AB8843B3A5EB18
S31508007910C305F7E704698CB141B904682378DB0726
S315080079200CD5E3884BB104EBC304F7E70C46F5E73F
S315080079309542E2D0C0E9054530BD1C469542DCD0EB
S31508007940002ADAD0F6E7944208D08C4228BF0C46C3
S31508007950954207D08D4238BF0D46EBE70C46F7E750
S315080079601D46E7E70D46E5E700232DE9F347864E72
S315080079700193B3690C469A42104604D239B912B13A
S3150800798001A935F04FFF019802B0BDE8F0871AB992
S315080079900846FFF7F0FAF6E7EFF31187302383F38B
S315080079A0118834F8063C07304FEAC30820F007056B
S315080079B0A845A1F1080178D234F8020C002863D052
S315080079C0C21A012A60D101EBC00211F83000C007C3
S315080079D05AD4B2F802C0A8EB050919EBCC0953D45E
S315080079E0B9F11F0F35DDC5F3CF03611924F8063C3D
S315080079F00133084624F8023CFFF754FF34F8020C1A
S31508007A004FEAD9038880D0884B80F8B1B2F802C013
S31508007A10A0EB0C0C1CFA83F39BB202EBC000CB80E4
S31508007A20838000235948FFF75FFF1046FFF73AFFA8
S31508007A30F369326A2B44A3EB080393420194F3617A
S31508007A4031D887F31188BFF36F8F9CE70023CB806B
S31508007A50E7E7706A013301387062D088634424F816
S31508007A60063C68B1B2F802C0A0EB0C0C1CFA83F312
S31508007A709BB202EBC00024F8023C83800123D1E7C5
S31508007A80002324F8023CF9E7284601A935F0CAFE86
S31508007A900028D6D142462146019842F04AFE2046A1
S31508007AA0FFF769FACDE73362CBE76AD934F8020CF7
S31508007AB0A8EB050900F1FF3AAAEB030A002837D01C
S31508007AC011F8303001EBC002DB0732D4BAF1000FEF
S31508007AD02FD1C5F3CF03611924F8063C01330846B4
S31508007AE024F8023CFFF7DEFE508800EBD90334F891
S31508007AF0020C4B808880D088C0B1B2F802C0A0EBD7
S31508007B000C0C1CFA83F39BB202EBC000CB8083807B
S31508007B101E480023FFF7E8FE1046FFF7C3FEF36989
S31508007B2001941D44A5EB0805F5618AE7C880EFE7CF
S31508007B300246B9F1270FF2D9C5F3CF03611924F824
S31508007B40063C0133084624F8023CFFF7ABFE34F83E
S31508007B50020C09F1FF33DB084B8088807AB10AF101
S31508007B60010A1AFA83F39BB2CB809380736A07489B
S31508007B700133736200231A46FFF7B6FECFE7CA80C1
S31508007B80F4E701945DE700BF006400201464002058
S31508007B90BFF35F8F074B5A6A22F480325A62D3F8D2
S31508007BA0942022F00102C3F89420BFF34F8FBFF34D
S31508007BB06F8F704700ED00E008B970472430036AFC
S31508007BC01BB98142FAD8002001E08142FBD97047EF
S31508007BD070B50D460668EFF31182302181F31188DE
S31508007BE00021046A016282F31188BFF36F8F002CAB
S31508007BF000DC70BD3046013CA847F8E710B50446DE
S31508007C001822002142F08AFD204610BD0368D904D7
S31508007C1044BF43F48063036003689A0444BF43F493
S31508007C2000630360704713B5044601A80191FFF786
S31508007C30EDFF019BA36002B010BD70B5044686B087
S31508007C4038300E461546FEF765FE0122234B84F8AA
S31508007C50382093F83C3013EA020129D0002184F831
S31508007C60392001A8142242F059FD4FF410534FF65B
S31508007C70F872ADF800304FF6FF73954298BF2B4661
S31508007C80ADF80230164B4FF4807168460393FFF740
S31508007C90CAFFEA1D3146684604F13C03D20815F0CE
S31508007CA050FEA8B104220F4B0F4916F0F5F90BE068
S31508007CB084F8391040342422204642F02FFD2A4603
S31508007CC0314620460EF004FE28B16FF00C0003E0A2
S31508007CD0684615F09DFC002006B070BD00640020C3
S31508007CE0004440041D9C0108A4D1040808B529B124
S31508007CF016F0D0F8003818BF012008BD0120FCE7AF
S31508007D0010B5044686B018220021684642F006FDE2
S31508007D106946204616F0A2F8B0FA80F0400906B087
S31508007D2010BD08B515F0FCFB003818BF012008BDCA
S31508007D3018B12D280CBF1720012070472DE9F743ED
S31508007D400F4690460024DFF84490060244EA0605EA
S31508007D5045F400356B462946484601AA0CF0FAF95F
S31508007D60FFF7E6FF172809D143463A46294607484A
S31508007D700CF0CEFE03B0BDE8F043D9E710B90134E4
S31508007D800B2CE3D103B0BDE8F08300BF101C002024
S31508007D90064B10B593F8482032B1002483F84840C2
S31508007DA016F03EFD204610BD0D20FCE700640020BD
S31508007DB01FB50023CDE901330393FF238DF8043063
S31508007DC0054B014601AA986841F0C7FD003818BF5F
S31508007DD0012005B05DF804FB0064002008B5074BD8
S31508007DE0986841F041FE30B1054BB3FBF0F083B221
S31508007DF00BB1184608BD0120FCE700BF006400204F
S31508007E0040420F002DE9F041904601220D46224BD3
S31508007E10224C234E18700021A068327041F07AFD7A
S31508007E2094F86830EDB2AB4233D894F86930AB4277
S31508007E302FD3E36E04F16407BB4204D07F21384692
S31508007E40FEF717FEE766E368A3B98027154B9F710F
S31508007E50FFF7C4FFC000B8FBF0F03A46C4E90300D8
S31508007E603946A06841F061FE40B17F220E4B1A7078
S31508007E700223337001242046BDE8F0812846FFF727
S31508007E8097FF04460028F5D130F05AFC0028F2D0B6
S31508007E90EBE70724EFE700BF6C2100200064002011
S31508007EA06D210020CC7900206E21002008B5054BF5
S31508007EB000EB80004100986841F063FE00B1FEE7E0
S31508007EC008BD00BF0064002070B5104C0D4694F83C
S31508007ED06830834218D894F86930834214D3E36E25
S31508007EE004F16406B3420BD001220021A06841F0D8
S31508007EF011FD29463046FEF7BCFDE666002070BD3A
S31508007F000846FFF7D3FFF9E70720F8E700640020E3
S31508007F1008B5302383F311884FF000534FF20F0250
S31508007F2018805A80BFF35F8F0BF0AAFB6E4A2DE9C3
S31508007F30F0416E4B55686E4C5D65516A99656D49A1
S31508007F40D1F80002D865D1F804021866D1F80812EB
S31508007F50586B5966916A10F0040F9966D16A4FF00A
S31508007F600000D966116B1967516B5967D26BD864D3
S31508007F709A67D3E90E1218BF11465F4A91421A65ED
S31508007F805DD301F12000A04259D88869C5F30805D8
S31508007F901864CE69062D5E6455D1584DA84252D351
S31508007FA0574DA8424FD205884DF6426085424AD1C0
S31508007FB01868C3F894005868C3F8980040F201702E
S31508007FC0A242154604D22E680432B6F1CD3FF7D048
S31508007FD00022C3E91F22C3E92122C3E92322641B25
S31508007FE0DFF818C1424DDFF818E19C648D422DD8A0
S31508007FF0D3E91FC7D3E92165D3E923414FF0000E22
S31508008000013AD2B2FF2A3BD1BEF1000F05D0C3E92F
S315080080101FC7C3E92165C3E92341B3F85430C3F345
S3150800802008030C2B3AD8022B53D9DA1E092A50D842
S31508008030DFE802F030563F424F4F4F4F4F4C00217A
S31508008040C3E910112C494FF42060B9E755F8044DDF
S315080080506445CBD37445C9D2E607C7D50026294F50
S3150800806057F8048FA045C1D00136062EF8D12AB19B
S31508008070013AD2B203EB8206F467B7E70522F9E7BD
S31508008080E0464FF0010EBC4637462E4625460C46BE
S315080080904146B5E740F60120BDE8F0813A2B18D1F4
S315080080A0194B9B6913F0020F40F2025318BF18468A
S315080080B0F2E740F60320EFE740F2017240F60423A8
S315080080C0B0F5206F14BF10461846E5E740F60520C0
S315080080D0E2E740F60722013B5A2B98BF1046DBE73A
S315080080E040F60220D8E700BF00ED00E080780020C7
S315080080F00818002000E100E008000020E061000800
S3150800810040C50408F87800200040005B2DE9F047D8
S3150800811086B00546DDE90F980C461646002118225A
S3150800812068461F469DF838A042F0F8FAB9F1000FE4
S3150800813041D0B4F5885F1ED04AF48073BAF1010FB6
S31508008140019303D12A68DBB2059283B339466846A0
S31508008150FFF769FDADF8004024F0FF04B4F5824F3F
S31508008160039612D12B4642464946684615F0E9FB66
S3150800817006B0BDE8F087BAF1000F12D13946684655
S31508008180FFF751FD0396ADF800404FF6F872B2EBD3
S31508008190C80F4FEAC80338BF4FF6FF73ADF8023071
S315080081A0E0E740F2011301932B680593E6E740F2F6
S315080081B001130193CAE76FF08600D9E770B5046822
S315080081C00D1B002D02DC6FF05F0070BD94F9006096
S315080081D02378002E0ADB631C036023781360036888
S315080081E0C91A13688B42EED80020EEE703F07F0326
S315080081F05E1E032E10D89D42E5DD0025013415606C
S3150800820004600468166814F8015B013B45EA062514
S3150800821015600460F5D1E2E76FF06300D5E770B446
S3150800822004680E1B002E06DD26789E4207D101340F
S31508008230046070BCC2E76FF05F0070BC70476FF0F7
S315080082406100FAE77F2A034610B51AD914460120B9
S31508008250240A00F10100FBD11C68641A844212DB6F
S3150800826019684C1E1C6001F8012C120AF8D1012865
S3150800827006D01A68511E196000F17F0302F8013C06
S3150800828010BD0120E8E76FF06B00F9E72DE9F84F1C
S315080082904FF0000A054688461646994654465746FC
S315080082A0DDF828B05F4516D2002319F80700202804
S315080082B00CD0ABEB0702012A29D00D2827D109EBF0
S315080082C0070252780A2A6BD10137EBE70137BB451B
S315080082D04FF00103E9D1BCB1062204F00703E40814
S315080082E0534354430733A4EB0A0404EBD30405B3FE
S315080082F044451ED809EB070B00272C46BA46B84654
S315080083002C4AD94519D1641B0020346004E00A2898
S31508008310DAD01BB16FF02B00BDE8F88F0206F9D44E
S315080083203D283FD10AF1010ABAF1020FF2D8013409
S31508008330CAE76FF029003460EEE719F8010BA0F1DF
S315080083400A03DBB2162B09D93D284FEA88180CD048
S31508008350FEF74CF8174A48EA000807E042FA03F322
S31508008360DB07CED54FEA8818F2E701370AF1010A8A
S31508008370BAF1040FC5D14FEA1843012F237003D968
S3150800838001344FF0000ABCE74FEA1823637017B1AF
S3150800839001270234F5E784F80280BA460334B0E7C9
S315080083A0002BB7D1BAF1000FB4D1FEF71FF8002899
S315080083B0BDDAAFE7F6FFBFFF2DE9F0410D46C988E4
S315080083C004461646FEF7EEFE014608BB3046FEF7A3
S315080083D041F803461B4EB4F9042030680132584070
S315080083E022EA0002B5F9040027680130D5F80080B2
S315080083F018400243013A4745A280EA8804D08C46D1
S31508008400A7F1040E624506D8DB43E488A24211D3DD
S315080084100846BDE8F08135685EF8040F5D4020EA3D
S31508008420050058F82C500CF1010C1D402843CEF8D5
S315080084300000E7E757F82200184047F82200013203
S31508008440E4E700BF0064002010B5044648B10068A0
S3150800845018B1E188890013F087FE00220123C4E9D8
S31508008460002310BD38B504460D4619B9FFF7ECFFD1
S31508008470002038BDC2888A4207D1002100689200D0
S3150800848042F04CF90123A380F2E7FFF7DDFF294606
S315080084902046BDE83840FEF785BE884270B50546D9
S315080084A00E4609D0C988C28841B92AB1012392006B
S315080084B08380006842F032F9002070BD4C1E8CB9EA
S315080084C0B6F904300134A242AB8012D221462846BE
S315080084D0FEF768FE0028F0D131682868A20042F04D
S315080084E028F9E9E7336853F82430002BE8D1013C32
S315080084F0E5E72868121B0021920000EB840042F091
S315080085000DF9E9E72DE9F0411746B1F904509288CB
S31508008510044612FB05F253430E461DD5394630462E
S31508008520FDF7A4FFB0F100080DDB3A4631462046B8
S31508008530FEF75BFE28B9B8F1000F08BF0125002039
S31508008540A580BDE8F08132462046FEF74EFE00289B
S31508008550F7D16D42A580F4E7874202D0814210D157
S315080085603E460123B6F80680A380B8F1000FE6D090
S31508008570336803EB880353F8043C3BB908F1FF382A
S31508008580F3E7FFF78AFF0028EAD0DAE741462046F4
S31508008590FEF708FE0028D4D1D6F800C007460646DE
S315080085A02368191F51F8042F5CF82700B2182CBF4E
S315080085B0012600260137121846F10006B8450A605A
S315080085C0F0D103EB8703002EB9D0E28807F1010842
S315080085D0BA4208D841462046FEF7E4FD0028B0D145
S315080085E0236803EB87031A68474692192CBF0126AE
S315080085F0002643F8042BE6E770B50E46012104462B
S31508008600FEF7D0FD054648B9E28801469200206883
S3150800861042F084F823681E600123A380284670BDB3
S315080086202DE9F341054688461646CF883FB1D8F866
S31508008630003003EB870353F8043C33B13EB90021FD
S31508008640284602B0BDE8F041D6E7013FEEE72846E6
S31508008650791CFEF7A7FD044670B941462846FFF780
S315080086601CFF044640B9013E00963B46D8F8002058
S31508008670E988286838F0E0F8204602B0BDE8F081BD
S31508008680C388B1EB431F3FBF03684A0953F822006A
S3150800869001F01F013ABFC84000F0010000207047F2
S315080086A0C1880068FEF796B92DE9F84312F003036E
S315080086B018BF012303EB92068846314681461446C5
S315080086C0FFF7D0FE0546B8B9B9F80670BE4216D807
S315080086D097B1D9F80090BE0001463246484642F0A6
S315080086E01DF82CB1301B22464146484442F021F879
S315080086F039464846FEF723FA2846BDE8F8836FF060
S315080087000705F9E7034670B51C68DB880846B2EB2F
S31508008710830F4FEA830519D9521B8E18002141F0A1
S31508008720FDFF30462A4600231044934210D100200C
S3150800873070BD23F00301615803F00306F600F1400B
S31508008740C9B281B901339D42F3D1ECE71346FAE782
S3150800875023F00301615803F00305ED00E94000F832
S31508008760011D0133E1E76FF00700E1E7F8B50446BC
S315080087700D46FFF795FFE3882844B0EB431F25D83D
S315080087801F2D2368E68805F01F074FEA551413D9ED
S315080087906FF00300324600FB0430944202F1FF31C9
S315080087A020D3A21BA64238BF002232441846002115
S315080087B0920041F0B3FF034637B1002103EB84036F
S315080087C0C7F12005A64213D800200AE010F01F01C1
S315080087D018BF012101EB50112046FEF7E3FC0028E3
S315080087E0CED0F8BD50F8212043F821200A46D4E718
S315080087F01868013400FA07F20A4343F8042B20FAF2
S3150800880005F1DFE730B5C38823B9CA885AB9002B02
S315080088103DD136E0026802EB830252F8042C002AA6
S31508008820F3D1013BF0E70C6804EB820555F8045CCC
S315080088304DBB013AEAE7B1F9045003D2B1F9040095
S31508008840404226E0B0F90420002A03DD002D0CDAA8
S3150800885001201EE0002D08DD3AB14FF0FF3018E088
S3150800886003F1FF330BD2504213E0013B016851F884
S31508008870235054F823108D42F2D9104609E0591CAA
S31508008880F4D1002005E0002BD8D09342D3D9B0F913
S31508008890040030BD1FB54A1C14BF0B4601230193C3
S315080088A00123C90FC1EBC13149000131ADF80C10E4
S315080088B0ADF80E3002A901AB0293FFF7A3FF05B08E
S315080088C05DF804FB01231DE670B50C460546114606
S315080088D020461A46FFF7F6FF064630B904352946FC
S315080088E02046FFF78FFF002801DA304670BD2A467A
S315080088F021462046FEF779FC0028F0D00646F4E724
S315080089004FF0FF33FEE570B50C4606461146204685
S315080089101A46FFF7F5FF054688B90436B4F9043058
S31508008920002B0CDA00212046FFF7B4FF30B132469F
S3150800893021462046FFF7C6FF0028EFD00546284601
S3150800894070BD2DE9F04F0123164600228BB08842F0
S3150800895007460D46CDE90823CDE9062306D108A822
S31508008960FFF79BFD0446002840D108ADB74207D162
S31508008970394606A8FFF791FD0446002836D106AE0B
S31508008980B5F80680B8F1000F3AD1B6F80690B9F1F5
S31508008990000F3FD1012308EB090A514638460393D5
S315080089A0FEF700FC044608BB01463846FFF724FEDE
S315080089B00446D8B92A683B680146049218464FEA25
S315080089C08A02D6F800B041F0A9FEABF1040A834644
S315080089D000EB890908F10101D94524D1039B7BBB2A
S315080089E0AB88B28813FB02F31BB2BB8006A8FFF75D
S315080089F02BFD08A8FFF728FD20460BB0BDE8F08F31
S31508008A002B6803EB880353F8043C002BBDD108F10F
S31508008A10FF38B7E7336803EB890353F8043C8BB98F
S31508008A2009F1FF39B3E75AF8043F58460093049A08
S31508008A30434605910BF1040B37F0FEFE0599CBE78B
S31508008A400123D2E7B8FA88F35B09A4E72DE9F04FCA
S31508008A5005460F461046002197B09346FFF71AFFC2
S31508008A600028C0F2878105D16FF00B04204617B0A5
S31508008A70BDE8F08F00230126CDE90936CDE90B368E
S31508008A80CDE90D36CDE90F36674B59461293384670
S31508008A9013AB1193FDF7EAFC002817DA35B139460E
S31508008AA02846FFF7FAFC0446002849D10021284643
S31508008AB0FFF7F0FE0028C0F24C8159462846FFF71A
S31508008AC0A1FE002880F24C810024CFE7394609A888
S31508008AD0FFF7E3FC044698BB59460BA8FFF7DDFCF5
S31508008AE0044668BBF9880DA80231ADF83060ADF8C8
S31508008AF02860FEF757FB044610BB01460DA8FFF792
S31508008B007BFD0446E0B9F9880FA80231FEF74AFB57
S31508008B100446A8B90BA8FFF7C3FD00F01F001F28DD
S31508008B2021D0C0F11F03194609A80093FFF71EFEBE
S31508008B30044628B900990BA8FFF718FE044698B111
S31508008B4009A8FFF781FC0BA8FFF77EFC0DA8FFF725
S31508008B507BFC0FA8FFF778FC0C2113A813F0FAFA90
S31508008B60002CA3D082E70094BDF82A60BDF83290A5
S31508008B700BA8A6EB090A4FEA4A184146FFF7F6FD85
S31508008B8004460028DCD14FEA8A0A0BA909A8FFF790
S31508008B9039FE002838DA41460BA8FDF7B2FE04462E
S31508008BA00028CDD109F1FF3301939B0006F1FF3868
S31508008BB0049306F1804609F18043023B013E9B007F
S31508008BC0A6EB09060793B3000293019B43452DD3F1
S31508008BD0002DB5D0009909A8FDF793FE002840F0AE
S31508008BE0B480BB8809A92846ADF82830FFF755FC9C
S31508008BF00146002840F0AB802846FFF74BFE0028C8
S31508008C009ED10123AB809BE70D9A09A952F80A3039
S31508008C100846013342F80A300BAAFFF771FE0446EC
S31508008C200028B2D08CE700BF010003000B9B049A12
S31508008C3003931344DDF824900693039B4FEA880AAE
S31508008C409A5859F82810AAF104030D9E0593029B19
S31508008C5091421E4474D20598002359F800003FF04B
S31508008C602DFF002914BF4FF0FF330346B8F1010F5B
S31508008C7033600EBF002309EB0A0353F8083C079A32
S31508008C801393059B59F80330149359F80A30159332
S31508008C90336801333360039B1344994633680021D4
S31508008CA0013B33600FA8FFF7A7FC00284DD1019BB5
S31508008CB0002B48D0D9F800200F9B0FA91A60069AF6
S31508008CC0084612685A603268FFF7AAFC00283CD1A9
S31508008CD011A90FA8FFF796FD0028DFDC32680BA95B
S31508008CE00FA8FFF79DFC80BB029B0FA84FEAC3099C
S31508008CF04946FFF73BFD40BB09A908460FAAFFF7FF
S31508008D00FFFD014618BB09A8FFF7C4FD002812DAC3
S31508008D100BA90FA8FFF7C1FBB8B949460FA8FFF77B
S31508008D2025FD90B909A908460FAAFFF7CBFD60B93A
S31508008D303368013B3360029B08F1FF38043B43E785
S31508008D404FF0FF3392E7019AB6E70446F8E60C4679
S31508008D50F6E65A4629462846FFF7B4FD0446FFE6D6
S31508008D605A4629462846FFF7CBFD044600283FF415
S31508008D70A4AE7BE66FF0090478E62DE9F04F0546C8
S31508008D808FB01046164609910A93FFF783FD00280F
S31508008D9040F395802846F188FFF764FB04460028CF
S31508008DA066D13368B5F806900193484F494601984D
S31508008DB03B683B68FDF70EFEC31DDA08272B2E68B5
S31508008DC004928CBF1E22FA2213F0180518BF01253B
S31508008DD005EB53150292AA00A2EBD301B21805922D
S31508008DE0A9EB0502920023F0070306921B1A7218D4
S31508008DF0039107920B93A94561D30021039A304644
S31508008E0041F08CFC0021069A059841F087FC049AEB
S31508008E10079918980A9B9847044648BB1DB12946E6
S31508008E203046FDF78CFE494630460B9AFDF72BFD7A
S31508008E30029B013B029345D009993068FDF745FB33
S31508008E400122C143D7F80080914515D848EA0103A5
S31508008E50D7F800A008933B684B46D7F8008003F183
S31508008E60FF3B8BB9089A3B680AEA020A9A45C2D0C0
S31508008E7020460FB0BDE8F08F56F82200FDF7EAFA53
S31508008E80013248EA0008DFE7019B53F82B2056F821
S31508008E902B30104619460D930C92FDF716FB0D9BC9
S31508008EA00C9A40EA080811461846FDF70EFB20EA18
S31508008EB008034AEA030A48EA00085B46CFE76FF068
S31508008EC00304D5E76FF00D04D2E700BF0064002065
S31508008ED02DE9F04306460F461046012197B0154680
S31508008EE0FFF7D8FC002840F3CA810022012339463F
S31508008EF012A8CDE90E23CDE90C23CDE90A23CDE945
S31508008F000823CDE91023CDE90623CDE90423CDE9CD
S31508008F100223CDE90023CDE91223CDE91423FFF777
S31508008F20BCFA044608B112A806E0294614A8FFF7B9
S31508008F30B4FA044612A81CB3FFF786FA14A8FFF77A
S31508008F4083FA0EA8FFF780FA0CA8FFF77DFA0AA89D
S31508008F50FFF77AFA08A8FFF777FA10A8FFF774FA66
S31508008F6006A8FFF771FA04A8FFF76EFA02A8FFF73A
S31508008F706BFA6846FFF768FA204617B0BDE8F08333
S31508008F80FDF7CAFD814614A8FDF7C6FD804650B90F
S31508008F90214614A8FFF774FB28B9394610A8FFF72D
S31508008FA07CFA04463CE00123ADF85430ADF84C3069
S31508008FB0002112A8FFF76EFC58B9C145494614A806
S31508008FC028BF4146FFF7D2FB04460028ABD114A9B7
S31508008FD0E4E712A8FDF7A0FD014612A8FDF791FCEB
S31508008FE00446E8B914A8FDF797FD014614A8FDF74D
S31508008FF088FC0446A0B914A912A8FFF703FC0028A8
S31508009000C0F2A28012A9084614AAFEF7EEF8044692
S3150800901030B9012112A8FDF774FC04460028C7D010
S3150800902012A8FFF711FA14A8FFF70EFA002C88D138
S31508009030012110A8FFF72EFC002840F01D812A46C2
S3150800904039460EA8FFF702FD044600287FF479AFDB
S315080090500EA90CA8FFF721FA044600287FF471AF81
S31508009060294606A8FFF719FA044600287FF469AFCF
S31508009070294604A8FFF711FA044600287FF461AFD1
S3150800908001210AA8FFF7B8FA044600287FF459AF69
S31508009090014608A8FFF7B0FA044600287FF451AF46
S315080090A0014602A8FFF7A8FA044600287FF449AF4C
S315080090B001216846FFF7A0FA044600287FF441AF6D
S315080090C00C9B1B68D8074BD5049B1B68DB0776D51A
S315080090D004A90CA8FFF796FB0028C0F2A3800CA9E8
S315080090E0084604AAFFF70CFC044600287FF429AFBB
S315080090F00AA9084602AAFFF703FC044600287FF4DB
S3150800910020AF08A96A460846FFF7FAFB0446002876
S315080091107FF417AF00210CA8FFF7BCFB0028CFD1BE
S31508009120002102A8FFF7B6FB0028C0F29180294665
S3150800913002A8FFF767FB002880F29480304602A950
S31508009140FFF7ABF90446FCE614A9084612AAFEF78F
S315080091504CF8044600287FF463AF012114A85AE7A7
S3150800916001210CA8FDF7CDFB044600287FF4E9AEE3
S315080091700A9B1B68DF0710D4089B1B68DC070CD406
S3150800918001210AA8FDF7BDFB044600287FF4D9AEE5
S31508009190012108A8FDF7B5FB8EE70AA9084606AA25
S315080091A0FFF790FB044600287FF4CBAE08A90846D3
S315080091B00EAAFFF7A5FB04460028E1D0C1E6012167
S315080091C004A8FDF79EFB044600287FF4BAAE029B6E
S315080091D01B68D90714D4009B1B68DA0710D4012131
S315080091E002A8FDF78EFB044600287FF4AAAE0121EB
S315080091F06846FDF786FB044600283FF465AFA0E6FF
S3150800920002A9084606AAFFF75DFB044600287FF474
S3150800921098AE694668460EAAFFF772FB0446002810
S31508009220DDD08EE604A908460CAAFFF769FB0446BA
S3150800923000287FF486AE02A908460AAAFFF760FB53
S31508009240044600287FF47DAE6946684608AA5BE7AF
S3150800925002A92A460846FFF735FB044600283FF4CC
S315080092605FAF6EE602A92A460846FFF749FB0446A1
S3150800927000283FF45CAF64E66FF00D0461E66FF01A
S31508009280030479E637B545780C46012D13460ED109
S3150800929001AB406833F05DF8034628B10A4B042257
S315080092A00A4914F0F9FE0346184603B030BD0178A2
S315080092B0012906D12246083003B0BDE830400DF03A
S315080092C023BB034BF0E700BF1D9C0108A4D104088B
S315080092D0809CFFFF2DE9F0439846002385B005469C
S315080092E00C46174600F110016A463830CDE90033BE
S315080092F0CDE90233DDF83090FFF7C4FF064658B1D2
S315080093006B6E43F010036B666846102112F022FF5D
S31508009310304605B0BDE8F0830DEB04010446221D76
S31508009320974209D2A742EFD918F804300A5D53408C
S3150800933009F804300134F5E758F804300859434071
S3150800934049F804301446EAE7416E38B501F00303DC
S31508009350032B044634D1826A22B9436B023B012BA4
S315080093601AD80262256B2378681E0343606A023A9C
S31508009370003818BF012043EA80130020520843EA48
S31508009380C2032370236AC2B2954200F1010006D8CF
S3150800939053B141F0100161666FF00C000FE0C2F1A5
S315080093A00F02A3541B0AEEE72246214604F13800B1
S315080093B0FFF768FF18B1636E43F01003636638BDA4
S315080093C00020FCE738B590F844300446012B11D14B
S315080093D0C56B4DB12B7A012B02D1686814F006FDD6
S315080093E00C21284612F0C0FE2046BDE83840482128
S315080093F012F0B0BE006C18B14FF4AE7112F0B4FEA4
S31508009400E06B0028F0D02368DA79044B02F07C027E
S3150800941013441B699B699847E6E700BFA4D1040873
S3150800942038B505460C46A9B14822002141F076F91F
S31508009430E279094B02F07C0213441B695B6913B994
S3150800944000202C6038BD9847E8630028F8D1A0F5BD
S31508009450C340F7E70148F5E7A4D10408009FFFFFDA
S31508009460F8B5046C0E460734E4089C4228BF1C462F
S315080094701146054622463046FFF716F90746C8B98B
S315080094802B6CE100B3EBC40F0DD3343529463046B7
S31508009490FFF7B8F900280DDB2A4631463046BDE805
S315080094A0F840FFF72DBA3046C91AFDF72AFA002800
S315080094B0EBD007463846F8BD0346C06920B15B6A5B
S315080094C0002B14BF01200220704700220123C0E9A7
S315080094D00023C0E90223C0E90423704738B50024F5
S315080094E001250146C0E90254C0E9045404704460E9
S315080094F085611C30FFF7E9FFC1E90D45C1E90F4455
S31508009500C1E91144C1E91344C1E91544CC6538BD24
S3150800951010B50446FFF7E2FF0022012304F16800B4
S31508009520C4E91823BDE81040CFE738B504460D4610
S31508009530FEF7B3FF70B905F1080104F10800FEF75C
S31508009540ACFF38B905F1100104F11000BDE8384048
S31508009550FEF7A3BF38BD10B501210446FFF74CF846
S3150800956060B9012104F10800FFF746F830B9014651
S3150800957004F11000BDE81040FFF73EB810BD2DE914
S31508009580F84380460D4616461F4613B91D48BDE8E2
S31508009590F8830430FFF784F804464046FFF78CFF4B
S315080095A0012881462BD113782BB9012FEED12846F5
S315080095B0BDE8F843CFE70734E40804F10108B845E5
S315080095C0E4D822462846711CFFF76EF80028DED13B
S315080095D0494605F11000FFF70FF80028D7D1337870
S315080095E0042BD3D163000133BB42CFD1224606EB0D
S315080095F0080105F10800BDE8F843FFF755B8024829
S31508009600C5E700BF80B0FFFF80B1FFFFF8B50C4685
S315080096100646114620461A46FFF793F9054660BBEB
S31508009620B76C37B921462046321DBDE8F840FFF72A
S315080096300DBAB4F90430002B04DA01462046FFF7C8
S3150800964029F968BB2046FFF72BF8F36BB0EB430FFD
S3150800965026D82046B847054678B90436B4F9043002
S31508009660002B04DA00212046FFF714F938B93146F1
S315080096702046FFF7C7F800280ADA2846F8BD32461A
S3150800968021462046FFF71EF90028E7D00546F4E7ED
S31508009690324621462046FDF7A8FD0028E7D0F5E723
S315080096A0004DEAE780B0FFFF2DE9F74301F1100608
S315080096B00546894630460021FFF7ECF80446A0B374
S315080096C000230127314668462A1DCDE90037FFF7F2
S315080096D0FFFB044630BB09F108086B464246414683
S315080096E02846FFF793FF0446E0B96B466A46694683
S315080096F02846FFF78BFF0446A0B96B464A464946FB
S315080097002846FFF783FF044660B96B464246414642
S315080097102846FFF77BFF044620B939463046FEF750
S315080097206BFF04466846FEF78FFE204603B0BDE889
S31508009730F083F7B50D46012300210835044628466F
S31508009740CDE900131646FFF7A5F8211D07462A4658
S315080097506846FFF7D5F8044648B9002F0CBF002223
S3150800976006F0010269462846FEF726FE04466846C4
S31508009770FEF76AFE204603B0F0BD2DE9F0430E461B
S315080097800546012189B006F11000FFF783F8044663
S31508009790002840F086802846FFF78EFE012880467E
S315080097A040F0818021463046FFF774F8002878DBC0
S315080097B006F1080921464846FFF76CF8002870DBD1
S315080097C02F1D39463046FFF71DF8002869DA394655
S315080097D04846FFF717F8002863DA4B464A462846F4
S315080097E002A9CDE90248CDE90448FFF70FFF044670
S315080097F000284CD133463246284604A9FFF706FF0F
S315080098000446002843D1EB68002B36D10323019385
S315080098104FF0011304A90793084601AB06AA06935D
S31508009820FFF76EF8044690BBBDF91430002B04DA36
S31508009830002104A8FFF72EF8C8B904AA3346114632
S315080098402846FFF7E3FE044608BB04AA1146284645
S3150800985005F11403FFF738F80446C0B904A902A8AD
S31508009860FEF7D0FF114B041E18BF1C460FE004A9D3
S315080098703A460846FFF726F8D4E704AA11462846CA
S3150800988005F10C03FFF720F804460028D5D002A8F6
S31508009890FEF7DAFD04A8FEF7D7FD204609B0BDE8B5
S315080098A0F083024CF9E7024CF7E700BF80B3FFFFED
S315080098B080B0FFFF38B50546FFF7FEFD01280C46C8
S315080098C001460ED12046FEF7E5FF00280BDB2046B1
S315080098D005F13401FEF796FF00280448B8BF0020BA
S315080098E038BD0348FCE70148FAE700BF80B3FFFF2D
S315080098F080B0FFFF73B505461E46FFF7DDFD01285C
S315080099000C4601460ED113462046009605F1340250
S31508009910FFF733FA044B10F10E0F18BF034618462B
S3150800992002B070BD014BFAE700B3FFFF80B0FFFF3E
S3150800993070B5066C0D460736B3EBD60F11460446CE
S315080099404FEAD60203D200230A482B6070BDB0F84E
S3150800995066302A604BB1FFF7AFFD012807D104F145
S315080099606000BDE87040FEF7CDBE0348EEE76FF035
S315080099706D00EBE700B1FFFF80B0FFFF38B50C467E
S31508009980051D29462046FEF73DFF002801DA00207E
S3150800999006E02A4621462046FDF727FC0028F0D097
S315080099A038BD2DE9F84F1E4603F10805C36804467D
S315080099B08A469046002B40F0C08002F110031A46F2
S315080099C02946FFF723FE002840F0EF8006F110072E
S315080099D02B46424639462046FEF776FF002840F0D9
S315080099E0E48006F118092B46424649462046FEF70A
S315080099F08AFF002840F0D9804B463A462946204639
S31508009A00FFF704FE002840F0D0800322294630469E
S31508009A10FEF706FE002840F0C88031462046FFF7CC
S31508009A20ADFF002840F0C18008F1080B06F11007C9
S31508009A305B465A4639462046FFF7E8FD002840F0BF
S31508009A40B4803946204633F049FE002840F0AD8000
S31508009A503B46424629462046FFF7D8FD002840F0F7
S31508009A60A4802946204633F039FE002840F09D8020
S31508009A7006F118093B463A4649462046FFF7C6FD11
S31508009A80002840F092804946204633F027FE0028F9
S31508009A9040F08B803346324639462046FFF7B6FDFE
S31508009AA0002840F082802B463A4639462046FEF783
S31508009AB02AFF002879D12B463A4639462046FEF732
S31508009AC022FF002871D13B462A4629462046FEF742
S31508009AD01AFF002869D133462A4629462046FFF749
S31508009AE095FD002861D14B462A4629462046FEF7B1
S31508009AF00AFF002859D15A464946204608F110035C
S31508009B00FFF784FD002850D14946204633F0E6FD8C
S31508009B1000284AD139465046FEF7BFFC002844D1F2
S31508009B2029460AF10800FEF7B8FCF0BB49460AF1D7
S31508009B301000BDE8F84FFEF7B0BC13462946FFF7FC
S31508009B4065FD90BB032229463046FEF769FD60BBDA
S31508009B5031462046FFF712FF38BB04F10C070146D1
S31508009B603846FEF797FE00283FF45EAF08F110036B
S31508009B701A4629462046FFF749FDB0B906F11009ED
S31508009B802B462A4649462046FFF740FD68B93B461C
S31508009B904A4629462046FFF739FD30B92B46324654
S31508009BA031462046FEF790FE3BE7BDE8F88F2DE9E3
S31508009BB0F14F9A461B6904460E4691460A9D002BAC
S31508009BC000F0D18002F1100700213846FEF762FE48
S31508009BD028B95146304601B0BDE8F04FA5E40AF170
S31508009BE0100800214046FEF755FE08B94946F1E738
S31508009BF001214046FEF74EFE002840F0B4803B4661
S31508009C003A4629462046FFF701FD002840F0AC8079
S31508009C1005F108083B462A4641462046FFF7F6FC6A
S31508009C20002840F0A18053462A4629462046FFF7D9
S31508009C30EDFC002840F098804246414620460AF14D
S31508009C400803FFF7E3FC002840F08E804B462A46BF
S31508009C5029462046FEF757FE002840F0858009F180
S31508009C60080B5B46424641462046FEF74CFE002856
S31508009C707AD100212846FEF70DFE014680B94046F6
S31508009C80FEF708FE38B92B464A463146204601B04B
S31508009C90BDE8F04F85E6304601B0BDE8F04F5AE41E
S31508009CA02B463A46204606F11001FFF7AFFC00287E
S31508009CB05AD105F110072B462A4639462046FFF7A2
S31508009CC0A5FC002850D105F1180A2B463A465146FC
S31508009CD02046FFF79BFC002846D14B463A463946B4
S31508009CE02046FFF793FC00283ED139462846FEF762
S31508009CF0D4FBC8BB2946204633F0F0FCA0BB43463C
S31508009D00424631462046FFF781FC68BB2B46324661
S31508009D1031462046FEF7F7FD30BB534632463146FC
S31508009D202046FEF7F0FDF8B933463A46394620464E
S31508009D30FEF7E9FDC0B943463A4639462046FFF7DD
S31508009D4065FC88B95B46524651462046FFF75EFCDD
S31508009D5050B953463A46204606F1080101B0BDE817
S31508009D60F04FFEF7D0BD024801B0BDE8F08F00BF46
S31508009D7080B0FFFF10B50446FEF766FB04F1080045
S31508009D80FEF762FB04F11000BDE81040FEF75CBB6D
S31508009D9000B1EFE7704770B5044658B3436C012B22
S31508009DA011D00C30FEF750FB04F11400FEF74CFB03
S31508009DB004F11C00FFF7ECFF04F13400FEF744FB46
S31508009DC0201DFEF741FBA36D8BB92046BDE8704008
S31508009DD0602112F0BFB906FB0500FFF7D9FF013570
S31508009DE0D4E91603AB42F6D8FDF7C5F8EDE700252A
S31508009DF01826F5E770BD10B50446FFF7CCFF04F149
S31508009E006000FEF721FB04F16800BDE81040BFE7DB
S31508009E1000B1F0E7704738B504460D46FFF7BBFFBB
S31508009E202046FFF75BFB022D25702DD0032D47D06A
S31508009E30012D60D1324B334AA364334BA260A26131
S31508009E40A2632262A26203F1600262624FF001120B
S31508009E5003F11801616103F13001616303F14801FF
S31508009E606360E16122637833E362201DFEF718FC24
S31508009E70E06304F13400FEF713FC2064002001239C
S31508009E80C4E91600636438BD204B214AA364214BFC
S31508009E90A261A360204BA2632262A26203F174024C
S31508009EA062624FF0011203F12001616103F13C0186
S31508009EB0616303F158016360E1612263043BD3E700
S31508009EC0164B144AA364164BA260A261A2632262CF
S31508009ED0A26203F1800262624FF0011203F12001CF
S31508009EE0616103F14001616303F160016360E1614F
S31508009EF02263943BB8E700230A482370C3E700BFF0
S31508009F00C972000801000600C0D10408957300084C
S31508009F1001000700010008003CD204086F7500081C
S31508009F20CCD2040880B1FFFF2DE9F0410024AEB081
S31508009F304FF44051CDE90C40039008A8FDF773FE95
S31508009F40904B91480B9340F2011306AACDE90803FA
S31508009F5005A908A8CDE90544039432F061FE002856
S31508009F6036D1059D099E2A6A9AB1099B059D1B0A49
S31508009F702E6A55F8247F79D0012B00F0D680059CEF
S31508009F80206A10B1616A12F0EFF80023C4E90833B9
S31508009F901EE0360A63D1BDF82070BDF82240384667
S31508009FA012F009F978B12146384612F00DFB78B956
S31508009FB007F4E043B3F5805F02D0B3F5005F0DD137
S31508009FC00734E6081AE027F0FF03B3F5E24F39D065
S31508009FD0059808B112F088FD012074E007F44F4295
S31508009FE0B2F5844FECD047F2010297420ED16408CD
S31508009FF00134E40804EBC40404F13B06079628463A
S3150800A000079912F010FB0028AFD0E1E744F20102ED
S3150800A010974203D1E40804F11006EFE747F202027B
S3150800A020974205D1E40804EB440404F15A06E5E72F
S3150800A03044F20202974205D1E40804EB440404F111
S3150800A0404A06DBE727F0FF00B0F5E24FB8D0B0F5D7
S3150800A050824F01BF0734E4086400661CCEE707A9EF
S3150800A06008A813F0D9FA0028C9D0B1E7BDF82030FE
S3150800A0705A040CD4BDF82080404612F09CF80446D9
S3150800A08020B33946304613F04BFA044611E003F480
S3150800A090E043B3F5805FEDD0B3F5005FEAD02B4619
S3150800A0A03A46314608A80DF0E9F810F1860F04463D
S3150800A0B0E0D00598002C7FF462AF03A933F01DFBAE
S3150800A0C0002885D120462EB0BDE8F08128F0FF0390
S3150800A0D0B3F5E24F7FF453AF5FFA88F8B8F1120F81
S3150800A0E0BDF8223007D1E02B0ED0B3F5807F0DD016
S3150800A0F0C03B5C425C41254B1A78002A3FF43FAFCF
S3150800A100A24219D00C33F7E70224F4E70324F2E756
S3150800A1103B46324629460EA8FFF70AFC12F057F8C6
S3150800A12004460EA8FFF767FEC3E72B463A463146B4
S3150800A13008A80DF0A3F8A8E70EA8FFF7E9F9214645
S3150800A1400EA8FFF768FE0446A0B9DFF84480234648
S3150800A150424626A90EA8FFF7CDFB044650B9CDF80E
S3150800A160008015AB26AA28A90EA833F0FBF80446EA
S3150800A1700028CDD00EA8FFF73EFE204612F027F89D
S3150800A18083E700BFFF060006127100016CD30408BE
S3150800A190FDD501082DE9F0410D460146284617462A
S3150800A1A09846FFF738FE0446B0B92846FFF784F903
S3150800A1B0012805F1600612D1424639463046FEF7B7
S3150800A1C073FA044628B931462846FFF773FB044656
S3150800A1D010B13046FEF738F92046BDE8F081014C4B
S3150800A1E0F7E700BF80B1FFFF10B5EFF3108072B636
S3150800A1F0024B1C6842F043F9204610BDD41D0020CE
S3150800A20070B50C46154610B9FFF7EEFF38B143682E
S3150800A2102BB12A462146BDE870400068184723201E
S3150800A22070BD10B514460020FFF7EAFF204610BDA2
S3150800A230002373B50C4615460193FFF7D5FF30B1D9
S3150800A240C66826B12A462146006801ABB047019880
S3150800A250002808BF4FF0FF3002B070BDF7B50D46B5
S3150800A260044600B9FEE7037F03F0FF0603B1FEE7E5
S3150800A2700E4B1B68994215D840F2E73031460C4B15
S3150800A2804FF47A721F680023E5FB07013EF016FCBF
S3150800A2900123CDE9006301462346064A606841F07A
S3150800A2A043FA00B1FEE703B0F0BD00BF9C1E0020D4
S3150800A2B0981E00200DC5040800B9FEE7406841F065
S3150800A2C085BA70B5EFF3108672B64FF0FF303FF0DF
S3150800A2D00DFD0446074B5A6F5867824288BF9A6F2E
S3150800A2E0304684BF01329A679D6F42F0C8F820460F
S3150800A2F0294670BD006400202DE9F0410568044632
S3150800A30095F89460002E71D1EFF31183302282F311
S3150800A3101188C5E9166683F31188BFF36F8FFFF7B7
S3150800A32063FF844206D1EFF3108072B6314B1E608C
S3150800A33042F0A5F82B6E93F91030002B11DB0122A1
S3150800A34003F01F015B099B0003F160438A4003F594
S3150800A3506143C3F88021C3F88020BFF34F8FBFF352
S3150800A3606F8F254F287D3B7843B1072806D8234BA6
S3150800A37003EB00131B7B0BB10BF0BEFD287D36F0FB
S3150800A3805AFBEFF31188302383F3118800231B4A05
S3150800A390167BDEB90133082B02F11002F8D14FF40F
S3150800A3A00012174BC3F88020BFF34F8FBFF36F8F90
S3150800A3B0FF22144B31465E6520209A625E600AF0E1
S3150800A3C095FF314621200AF091FF3E7088F31188E7
S3150800A3D0BFF36F8F0023C4E90033C4E90533E36094
S3150800A3E02B6E2846BDE8F041DB6818470F20BDE80C
S3150800A3F0F08100BFD41D0020581B002070190020D2
S3150800A40000E100E0000004502DE9F04F2DED028B2D
S3150800A410BC48DFB042F08EF8BA4842F08BF8012308
S3150800A420002204211EA8ADF87830B74C09F03AF995
S3150800A430B44842F07FF8B54842F07CF8636823B127
S3150800A44040F6FF7120460BF023FAAF480BF05EFA90
S3150800A4502369002123F0870343F0810323612369DD
S3150800A460AB4A23F0F80343F080032361E368A64868
S3150800A47023F0F04323F47023E360A36823F0030377
S3150800A48043F00103A360A368A360A36843F4806351
S3150800A490A360636A23F4772323F4EE6343F48023EB
S3150800A4A06362636923F00F0343F002036361A161EA
S3150800A4B00BF056FA052194480BF025FA924A936C4C
S3150800A4C0DB4313F440530793F9D14FF48173012208
S3150800A4D0042118A8ADF8603009F0E4F840F2022328
S3150800A4E00121079A16A8ADF8583009F0DBF840F2B2
S3150800A4F0023340F202440122042115A8ADF8543073
S3150800A50009F0D0F80421012214A8ADF8504009F04A
S3150800A510C9F8804B804A4FF44870C3F8C8244FF0F6
S3150800A5200212C3F8C424A2F58032C3F8CC241C2234
S3150800A530C3F8B424FCF75CFA1EA8ADF8784009F015
S3150800A5406FF91420FCF754FA1EA8ADF8784009F004
S3150800A5503DF92320FCF74CFA1EA8ADF8784009F01F
S3150800A5605FF9694B9A6C5006FCD5B9225A649A6C05
S3150800A5701106FCD540F202441EA8DB6BADF8784004
S3150800A58009F024F900224FF4817311461EA8ADF88C
S3150800A590783009F087F8002240F20223114613A802
S3150800A5A0ADF84C3009F07EF840F202330122002162
S3150800A5B012A8ADF8483009F075F80122002111A853
S3150800A5C0ADF8444009F06EF84F480BF09FF90021AA
S3150800A5D0504B4E48C3F8B414C3F8C814C3F8C4148F
S3150800A5E0C3F8CC1441F00CFF4FF000639B6A03F1EB
S3150800A5F07842B2F5C04F64D21A68484B9A4260D185
S3150800A600474C94F88F5015F0FD055AD1454E3378CE
S3150800A610002B00F04782022333704FF001084FF4F5
S3150800A6208037414B0020C3F88081404BDF60FCF740
S3150800A6309CFA3F4B1F614FF000639B6ADB699847A2
S3150800A64096F800900746C14540F0DF8208F0E0FF23
S3150800A650013040F0C882D4F8A020364B1A66D4F8E8
S3150800A660A4205A66D4F8A820C3F87021D4F8AC20E0
S3150800A6701A64D4F8B0205A64D4F8BC20D20700F182
S3150800A680C1822D4B9A68013207D194F88F2022B9DE
S3150800A6902A494968C90748BF9A60D4F8B420284BA4
S3150800A6A05A66D4F8B8209A663AF000FED4F8903084
S3150800A6B083F31188BFF36F8F357017B9012384F8B8
S3150800A6C08F301D4F4FF40031FA68531C04BF1D4BE1
S3150800A6D0D3F894204FF0502308BFFA60D6071967BD
S3150800A6E000F1958201210C46084604FA00F313404E
S3150800A6F001F1010100F08D82134B03EB4003B3F81F
S3150800A700F83223E04CC8040800000A5098D404081C
S3150800A710E070720000C003500200030007B0CD5E6F
S3150800A720006400200C1C002000E100E000A00044AA
S3150800A7300090004400800044CC79002000C00550F9
S3150800A7400080005000400050A4D10408B54A062BEA
S3150800A7501168B54E0F918AB24FEA114140F06082F6
S3150800A7604FF20F03994240F05882B2F5406F28BF66
S3150800A7704FF4C062A6F8C0204FF000534CF23C32AA
S3150800A7805A80AA4A536A43F470235362EFF3088344
S3150800A7904FF0CD31A64A043B934280F053820AF02B
S3150800A7A091FDA44841F0C6FE4FF4407301220421EE
S3150800A7B01EA8ADF8783008F075FF01229E4BC3F845
S3150800A7C04424EFF31184302383F311884FF4607027
S3150800A7D00AF0A6FD84F31188BFF36F8F934B00F53B
S3150800A7E0D520D3F8F02000F2FC4042F00102C3F86D
S3150800A7F0F020D3F8FC20914C42F08072C3F8FC207C
S3150800A8008F4AA3F55D431A608E4B0222B0FBF3F024
S3150800A8108D4B01381861C3F8F0204FF48072C3F8E5
S3150800A82004234FF06043894A8248C3F8B02F884A08
S3150800A830C3F8802ED3F8002E42F48072C3F8002E97
S3150800A840FF2283F82020D3F8002E22F48072C3F862
S3150800A850002E41F06FFE23689D0106D44FF0007369
S3150800A8601920C4F88031FCF780F92368580106D40A
S3150800A8704FF080631A20C4F88031FCF776F94FF060
S3150800A8806044744808F088FF0221D4F8003E1EA8E8
S3150800A89043F48073C4F8003E6F4BCDE91E1335F0C0
S3150800A8A019FA0122D4F8003E042123F48073C4F86F
S3150800A8B0003E1EA8ADF8782008F0F4FE96F83D1084
S3150800A8C0022903D196F83C30072B1BD096F83C306A
S3150800A8D0DA0703D443F0010386F83C3096F83C3097
S3150800A8E09D075FBF012243F0020386F83C3086F8D5
S3150800A8F07C2496F83C2011B9D40700F1A6815007AC
S3150800A90040F1AA8140F05AFB484B00245B680BF0E3
S3150800A910DBF80BF047FD4FF0020C504BDFF874E103
S3150800A920CDE91EC34FF04073CDE920E305231EA9E8
S3150800A9304FF0FF3022933FF0C6F900214FF0FF3069
S3150800A9403FF0C4F937F072F84022002144483FF03E
S3150800A950E5FE3022002143483FF0E0FE4048424BE6
S3150800A960424ADFF83491DFF83481DFF834B1A3F1D5
S3150800A970180E00F1400C4FF0240A00210AFB04FAD5
S3150800A9803B4D43E9061043E9025B0EEB0A0543E932
S3150800A990049829772962182505FB04C542F8145C32
S3150800A9A0344D42F8181C42F8105C334D43F8241B0A
S3150800A9B042F80C5C314D203042F8085C304D42F8C4
S3150800A9C0045C304D554429772962012542F8241B39
S3150800A9D0002C00F04681284640F0D6FD8046002827
S3150800A9E040F059824FF6FF73ADF83830264B7F2179
S3150800A9F0C6F8803441F60B23706610222348A6F861
S3150800AA0068308DF83A503FF089FE7F2386F8343552
S3150800AA104FF0FF331E931E4B1B6AD90700F12381A3
S3150800AA20FEE700BF000000200064002000ED00E003
S3150800AA30080000204CC8040800D0035000E100E0DC
S3150800AA40FF030040F8590D00000004E055CEACC5E0
S3150800AA500900010094790020006A1810006A18009D
S3150800AA60C46400200465002088210020D02100202D
S3150800AA7049690008356A000841620008416900080A
S3150800AA80656A0008B8210020EDB904082469002089
S3150800AA900080E00F000304005DA20008476200087A
S3150800AAA0B9A200080127169518953770EFF3118398
S3150800AAB0302282F31188C4F890303AF0EFFB94F80C
S3150800AAC0943063B90AF0FEFB48B90823A049A148A7
S3150800AAD004F1980209F0B4FA08B984F894709E4B08
S3150800AAE05A6EC4F8B4209B6E9C4AC4F8B8304FF42A
S3150800AAF0804393669A4B5968C4F8BC109949996083
S3150800AB00196EC4F8A010596EC4F8A410D3F87011C1
S3150800AB10C4F8A810196CC4F8AC10596CC4F8B01075
S3150800AB209149086C1864496C5964012151661B6E79
S3150800AB309A043CD58D4AD368DB07FCD48C4B9A68BB
S3150800AB40501C39D04FF4801393408A4A1366042266
S3150800AB50884B4FF400211A664FF400721A660822D1
S3150800AB601A664FF480521A664FF00062976A1A66A0
S3150800AB70596607F17843B3F5C04F07D200231EA8DC
S3150800AB8020932BF0E3FC209B590527D4169A794B82
S3150800AB901A66189A5A6694F89420002A3FF43DAD2E
S3150800ABA0D4F898201A66D4F89C205A6635E5724A75
S3150800ABB0D368DF07FCD4C1E794F88F30002BC6D1E1
S3150800ABC04FF40072654B5A6603F5A6235B68002BA3
S3150800ABD0BDD14FF48012674B1A66B8E73B6C18A9CB
S3150800ABE016A89847D2E708F013FD40F201139842D9
S3150800ABF03FF431AD614B5D4AC3F86490D368D8071A
S3150800AC00FCD428E500229A603BE5454654E5002039
S3150800AC1072E510297FF468AD98E54FF4C062A9E59E
S3150800AC2040F2072083420AD14FF20F00814206D133
S3150800AC309A4202BF4FF000524CF23C315180A6F8BE
S3150800AC40C0309EE543F80419A6E54D48FCF72AFEF0
S3150800AC50022386F83D3052E642F0040286F83C208C
S3150800AC6050E62C4687E6474B42461B884649A6F8D7
S3150800AC709034464B1EA81B68A6F89684C6F89834E6
S3150800AC80434BC6F8A0841B88A6F89234414B1B6830
S3150800AC90C6F89C3436F028FF00B1FEE73E491E98F8
S3150800ACA037F050FA00B1FEE702211E983EF0CBFEBF
S3150800ACB000B1FEE739491E9837F04AFC00B1FEE7B5
S3150800ACC029461E983FF0D0F800B1FEE729461E989F
S3150800ACD03FF0D8F8054600B1FEE701463C22304869
S3150800ACE03FF01CFD2B4680222E491E9800953EF00B
S3150800ACF0AFFF00B1FEE701211E9836F05BFF1E98F4
S3150800AD00B06000B9FEE710A3D3E90023CDE900231C
S3150800AD104FF0FF324FF0FF333EF005FF014600B11A
S3150800AD20FEE72148FBF7A5FE0121084640F016FC80
S3150800AD30B0680EA936F016FFDFF86C800546A8B392
S3150800AD40FEE700BFAFF300800AE020FF2202000002
S3150800AD5000710800101C0020008000500090005070
S3150800AD600080004455CEAC0000C0005400000440EA
S3150800AD70CC79002000900044000004500090004068
S3150800AD8040640020DA34050880680020E0340508AD
S3150800AD90D8340508DC34050807001100BCD40408BB
S3150800ADA02C210020A4680020646400204E4B08F281
S3150800ADB0D142988018604D4BA6F8BC051A60988059
S3150800ADC0FF2386F8E03508F28453C6F8B83508F24A
S3150800ADD00463C6F8C4359C2386F87D3013F098FDC5
S3150800ADE0056013F0C1FE031D00F1B40219461033C5
S3150800ADF09A42056016D196F868300B2B16D896F845
S3150800AE0069300A2B12D9C6F86C800BF0CBFA0020F1
S3150800AE10FDF74CF80822B06811463EF086FE054656
S3150800AE2028B1FEE743F8105C0D46DFE7FEE701466A
S3150800AE30B0683FF044F82E4B1D70EFF3108072B6E1
S3150800AE404FF01009DFF8BC80C8F80050C8F8085061
S3150800AE50A8F8049041F013FB264B1E95C8F8083055
S3150800AE608C23254D4FF40C601EA9C5E9029332F0D8
S3150800AE70D9FC00282ED10F221E9BC5E90033E968AC
S3150800AE80013A19441960E96892B20B44002AF6D1CE
S3150800AE904FF0FF321A60FB684FF40032013302BFED
S3150800AEA0164BD3F89430FB604FF05023144F1A67B3
S3150800AEB007F5405595F84C3B0693002B41F0308139
S3150800AEC0C7E90133FB604FF6FF73B6F878869845F5
S3150800AED001D1FEE7FEE7B8F1000F1ED1042110A844
S3150800AEE0FCF71FFF80B1FEE7F8200020581E00205F
S3150800AEF06D21002009C5040898280020004000504C
S3150800AF00A8280020AC200020109B23B16FF0004237
S3150800AF10934218BF1C46C6F87C4608F10108A6F8F5
S3150800AF20788619F009FF0024DFF81884E94B786160
S3150800AF3000F180414046FB61C7F82480BC6102F0FD
S3150800AF40CBFCE54B2D22C7E90C34E44BC7E90A4490
S3150800AF50BB6408F12C033B652346C7E90E4487F812
S3150800AF6040407C64FC6508F14408013A414608F112
S3150800AF70800840F0C88404B1FB654FF00008D84C3F
S3150800AF804FF0010904F27460C4F8608684F8688694
S3150800AF90C4F86C86C4F8708613F0D0FCD14B8C22AA
S3150800AFA0C4F88436032384F892364FF44043A4F851
S3150800AFB09436CD4B4146C4F8343704F5D46004F2D0
S3150800AFC03473C4F83C37C4F88886C4F88C86A4F869
S3150800AFD09096C4F89886C4F89C8684F82C87C4F89A
S3150800AFE030873FF09BFB04F25473C4F8803704F2B1
S3150800AFF06C73C4F8983704F28473C4F8B03704F253
S3150800B0009C73C4F8503704F5F763C4F8E03704F5C1
S3150800B010FA63C4F8F83704F5FD63C4F8103804F584
S3150800B0200063C4F8B437C4F84087C4F84487C4F842
S3150800B0304887C4F84C87C4F86887C4F8C88784F872
S3150800B0401888C4F81C8802F051FBA84B04F61C0AA1
S3150800B050C4F8243804F62403C4F82C38A44BA4F8FE
S3150800B0602008C4F8443804F64403C4F84C3804F5F8
S3150800B0700463C4F850389F4B04F66400C4F860387B
S3150800B080C4F830A8C4F83488C4F84088C4F854888A
S3150800B090C4F858881DF088F9974B8022C4F8883878
S3150800B0A0964B4146C4F83838954B04F50B60C4F8FE
S3150800B0B05C38944BC4F88CA8C4F8A43804F6A403E6
S3150800B0C0C4F8AC38C4F83CA884F89C98C4F8A0889E
S3150800B0D03FF024FB04F634101DF066F98A4B8B49C1
S3150800B0E0C4F8583904F51363C4F85C39884B04F678
S3150800B0F07C10C4F8703904F51763C4F87839C4F8B5
S3150800B1006C891CF05CFA3523A4F88C3941F270730B
S3150800B110C4F890397F4B04F6FC10C4F894394FF400
S3150800B120E163C4F8D8394FF4E153C4F8EC397A4BE3
S3150800B13084F89899C4F8F03984F89C8984F8CD89FC
S3150800B140C4F8D089C4F8D489C4F8E089C4F8E48975
S3150800B150C4F8E889C4F8F489C4F8F8891DF024F914
S3150800B1606E4BC4F8488AC4F8203A04F51D63C4F83F
S3150800B170243A6B4B6B49C4F8503A04F52563C4F876
S3150800B180583A694B694AC4F85C3A04F65C23C4F831
S3150800B190643A072384F84A3A04F6D823C4F8243CC8
S3150800B1A004F60843C4F8D43A614BC4F83C1AC4F808
S3150800B1B0503D04F55563C4F8583D4FF0FF33C4F8C5
S3150800B1C0708AC4F8403DC4F8443DC4F8483DC4F804
S3150800B1D04C3DC4F8348AC4F8388AC4F84C8AC4F892
S3150800B1E0688AC4F86C8A84F8709AC4F8408AC4F8E5
S3150800B1F0448AC4F8F48AC4F8388DC4F83C8DC4F877
S3150800B2005C8DC4F8608DC4F8649DC4F8688DC4F874
S3150800B2106C3DC4F8703DC4F8743DC4F8783D454BA0
S3150800B22004F69C50C4F87C2DC4F8903D04F67C5274
S3150800B23004F559631531C4F8842DC4F8983DC0E95E
S3150800B2400088C4F8888DC4F88C8D05F046F83A490C
S3150800B25004F6A45084F8A48D84F8B58D05F0F1FBA6
S3150800B26032F038FF354904F6B55005F0EAFB04F626
S3150800B270D45084F8CA8DC4F8D08D36F06BF904F62C
S3150800B280E45036F067F94FF01C73C4F8043E2C4BB3
S3150800B29004F61C60C4F80C3E04F60C63C4F8143EAD
S3150800B2A0C4F8F88DC4F8FC8DC4F8008EA4F8088E8E
S3150800B2B036F050F904F56360C4F82C8E1DF0CEFC08
S3150800B2C094F8343ECDF8208068F3000384F8343EC1
S3150800B2D03AE000BF0DD90008311C010853E5000803
S3150800B2E0A8380020816602088D670208554E0208B4
S3150800B2F071550208F108020809520208B9E1020864
S3150800B3008D2D0308D7E10208111A0108E8D40408AC
S3150800B310711901080301010500751200817E0208F2
S3150800B320C9A40208FDD4040823660208B90C01085A
S3150800B330B10C010811CB000867CA040872CA0408D0
S3150800B340798F0208C4280020DE4B059318220021B5
S3150800B35018A83FF0E3F9059818A912F07FFD84466E
S3150800B36078BB199B1B0A012B2BD0BDF86030B3F5AF
S3150800B370885F26D040F201131993D34B0DF1780E4E
S3150800B3801D930DF16009CDE91200B9E80F00AEE88A
S3150800B3900F0099E8030063468EE8030062460598A5
S3150800B3A012A9CDE914CCCDF844C012F0B0FC00289F
S3150800B3B000F0D8821398002840F0D983129812F02A
S3150800B3C091FC059BC14A01330593089B43F1000391
S3150800B3D008930899059B414508BF9342B6D14FF09B
S3150800B3E0004310211EA8C4F8CC3DC4F8183EFCF74B
S3150800B3F098FC1EA90022B6481DF0E6FDC4F8F48D97
S3150800B400C4F83C8E02F072F984F8400E02F06EF928
S3150800B410B04B0B22C4F8443EAF4B4FF0FF3BC4F889
S3150800B420483E0F23A4F8543ED4F85C3E84F8410EF7
S3150800B43003F0FC03C4F85C3EFB23A4F8703EA74B5C
S3150800B440A74884F84C2E84F8602EC4F8883E84F801
S3150800B450428EA4F84E8EC4F8508EC4F858BEC4F86E
S3150800B460648EC4F8688EC4F8908EC4F8948E36F04C
S3150800B47071F89C4836F06EF89B4836F06BF89B4B93
S3150800B480DFF8A092C4F8D03E994B09F1240AC4F813
S3150800B490F43E4FF6FE73A4F8763EA4F8783E4B4683
S3150800B4A043F8568DC3F80480B4F8823EA9F13800F3
S3150800B4B003F0FE0343F4FE4343F00103A4F8823E7F
S3150800B4C0C4F8D89EC4F8FCAEA4F8F0BEA4F8728EF0
S3150800B4D084F8748EC4F8848E84F8CD8E04F082F8CD
S3150800B4E0A9F1280004F07EF8A9F1180004F07AF80A
S3150800B4F04846C4F8C88E84F8CC8E02F0A5FA5046A1
S3150800B500A4F8E08EA4F8DC8E84F8DE8EC4F8E48E07
