S02B0000453A2F434F44452F53696C69636F6E5F4C6162732F5065726970686572616C732F4144435F45465249
S3150800000000100020450500089B6500089B65000850
S315080000109B6500089B6500089B6500089B650008B2
S315080000209B6500089B6500089B6500089B650008A2
S315080000309B6500089B6500089B6500089B65000892
S315080000409B6500089B6500089B6500089B65000882
S315080000509B6500089B6500089B6500089B65000872
S315080000609B6500089B6500089B650008755000089D
S31508000070556A00089B6500089B6500089B65000893
S315080000809B6500089B6500089B6500089B65000842
S315080000909B650008F90C00089B6500089B6500082D
S315080000A09B65000839090008190900089B650008BE
S315080000B09B6500089B6500089B6500089B65000812
S315080000C09B6500089B6500089B6500089B65000802
S315080000D09B6500089B6500089B6500089B650008F2
S315080000E09B6500089B6500089B6500089B650008E2
S315080000F09B6500089B6500089B6500089B650008D2
S315080001009B650008790100089B6500089B65000847
S315080001109B6500089B6500089B6500089B650008B1
S315080001209B6500089B6500089B6500089B650008A1
S315080001309B6500089B6500089B6500089B65000891
S315080001409B6500089B6500089B6500089B65000881
S315080001509B6500089B6500089B6500089B65000871
S315080001609B6500089B6500089B6500089B65000861
S31508000170013800D0FCE770472DE9F3471DA7D7E9FA
S3150800018000670FF27809D9E90089DFF878A0DAF86C
S3150800019088301B0706D14FF48072134B5A6202B09F
S315080001A0BDE8F0875146684606F0AFFA009805F0B4
S315080001B05DF932463B4605F0D3F942464B4605F013
S315080001C0F9FA9DF80450094C04EBC504023D042DC8
S315080001D0C4E90001DBD8D4E900010022044B05F08C
S315080001E0BFF9C4E90001D2E70060005900100020F9
S315080001F0000010405C8FC2F5285C03400000000038
S3150800020000FEAF40004000590348044B834202D029
S31508000210034B03B1184770471C1600201C16002014
S3150800022000000000064B0749C91A891048BF01316A
S31508000230491003D0044B0BB101481847704700BF5B
S315080002401C1600201C1600200000000010B5064CE5
S31508000250237843B9FFF7D8FF044B13B10448AFF32B
S3150800026000800123237010BD441500200000000003
S31508000270287C000808B5054B1BB105490548AFF3AE
S315080002800080BDE80840FFF7CDBF00BF00000000B2
S3150800029020100020287C0008A3F5803A704700BF8C
S315080002A0174B002B08BF134B9D46FFF7F5FF0021A0
S315080002B08B460F461348144A121A06F038FC0E4BA2
S315080002C0002B00D098470D4B002B00D098470020F4
S315080002D0002104000D000D48002802D00C48AFF399
S315080002E0008005F009FD2000290006F0B5FB05F0A1
S315080002F049FB00BF000008000000000000000000E5
S3150800030000100020001000207415002000000000D6
S3150800031000000000012208B5074B1A700022074B9F
S315080003201A700422064B1A701F22064B1A7003F025
S31508000330C9FF054B186008BD121600204515002098
S3150800034011160020101600203810002008B50448A1
S3150800035006F067FF06F051FBBDE8084000F008B854
S31508000360A4780008014806F05CBF00BFA47800081E
S315080003702DE9F04F544E97B0354609AC0FCD0FC452
S315080003802B6806F1140523600EAC0FCD0FC495E853
S315080003900F00DFF84C8184E80F004C4806F041FF57
S315080003A0404606F03EFF4FF48073494FADF83C30A7
S315080003B0484B38460B9309A90EAB0D9302F024FE61
S315080003C00421B6F834B00DEB01000122ADF804B0F3
S315080003D000F008FAB6F836A00022012102A8ADF806
S315080003E008A000F0FFF9B6F838900122042103A806
S315080003F0ADF80C9000F0F6F9758F0122042104A8D7
S31508000400354CADF8105000F0EDF9344B4FF4487008
S31508000410C4F8C8344FF00213C4F8C434A3F58033C3
S31508000420C4F8CC341C23C4F8B43404F075FD08A809
S31508000430ADF8205000F042FA142004F06DFD08A82B
S31508000440ADF8205000F00EFA232004F065FD08A848
S31508000450ADF8205000F032FAB921384606F023F9F3
S3150800046008A8ADF8205000F0FDF9002205A81146AD
S31508000470ADF814B000F0B6F9002206A81146ADF89A
S3150800048018A000F0AFF90122002107A8ADF81C90CA
S3150800049000F0A8F90122002108A8ADF8205000F0C4
S315080004A0A1F9384602F0BAFA00234046C4F8B43433
S315080004B0C4F8C834C4F8C434C4F8CC3406F0B4FE5E
S315080004C017B0BDE8F08F00BF18730008A4780008BD
S315080004D000000A50E070720000C0035002000300DA
S315080004E0A878000838B504460D4601B118B9452163
S315080004F0044806F04EF8236813B92B60256038BD0A
S315080005001C46F8E75473000810B5044618B9562176
S31508000510044806F03EF8206818B1036823600023F3
S31508000520036010BD547300080348044A0449121AAC
S31508000530921006F033B800BF700100087001000879
S315080005407415002008B5154B83F30A8800F030F8B7
S31508000550FFF7EAFF124B13498B4212D30020124BC6
S3150800056012498B4218D3FFF79BFE186850F82240B1
S31508000570586840F82240013298688242F5D30C3315
S31508000580EAE70022F8E71C6844F8220001325C68B2
S31508000590A242F8D30833E4E70022F8E70000002077
S315080005A0307C00083C7C00083C7C00083C7C000849
S315080005B04FF48041124B134A70B59A60D3F88820DD
S315080005C0114D42F47002C3F88820104A05F500540C
S315080005D091664FF0FF3222660D4A62660222C3F820
S315080005E0D020BFF34F8FBFF36F8F4FF440360020F4
S315080005F003F00AFE0020E66003F0D4FD2E6170BD0C
S3150800060000ED00E000000008008000440090005063
S31508000610F7FF3700014B1860704700BF78150020B8
S31508000620054B1860054B1B6F03F00703032B01D11D
S3150800063006F0AEBC704700BF801500200080005051
S31508000640002307B52948019306F0EBFD4FF44073E4
S31508000650012204216846ADF8003000F0C3F80122F3
S31508000660234B0520C3F8442401A906F0D5FD00282C
S3150800067039D1204BD3F8F02042F00102C3F8F0201C
S31508000680D3F8FC2042F08072C3F8FC201A4AA3F57E
S315080006905D431A60019B194A03F5D52303F2FC430F
S315080006A0B3FBF2F3164A013B13610223C2F8F0309A
S315080006B04FF48073C2F804334FF06043114AC3F80D
S315080006C0B02F114AC3F8802ED3F8002E42F4807258
S315080006D0C3F8002EFF2283F82020D3F8002E22F438
S315080006E08072C3F8002E03B05DF804FBA4780008F6
S315080006F000D0035000ED00E0FF030040F8590D005C
S31508000700000004E055CEACC5090001004FF0604377
S31508000710D3F8802E30B5D20715D501240B4D844069
S31508000720D5F8FC2042F08072C5F8FC20D3F8002EDC
S315080007302243C3F8002E53F82020002AF0D003F8ED
S315080007402010002030BD1120FCE700BF00ED00E0BE
S315080007502DE9F04104460C254FF00108124E0CB362
S3150800076014F001000BD0002024F0010405FB006200
S315080007705768002FF3D09168C0B2B847EFE7224612
S31508000780013020284FEA520201D0D307F8D508FADB
S3150800079000F20F2824EA0204E8D9103805FB0062A3
S315080007A0B432E5E7BDE8F0813C10002008B50C48F6
S315080007B006F037FD192003F00FFD28B1192003F0C4
S315080007C023FD192003F0EEFC1A2003F005FD28B1DD
S315080007D01A2003F019FD1A2003F0E4FC002008BDD6
S315080007E0A47800082DE9F0410E469046044638B92B
S315080007F093211A4805F0CDFE22252846BDE8F0814A
S315080008000F290CD8037883B1012B03D0022B0CD007
S31508000810032B04D13F236278D340DB0708D4972102
S315080008200E4805F0B6FE2125E7E740F2FF33F2E76A
S315080008300B4BD3F810532DB19B21084805F0A9FEA0
S315080008400225DAE706F0DCFC074642462046314632
S3150800085003F0C6FA384606F0CEFCCEE7A7730008C2
S3150800086000C0035038B5044628B91348E42105F0FA
S3150800087090FE222038BD037883B1012B03D0022BCA
S315080008800CD0032B04D13F236278D340DB0708D46E
S315080008900948E82105F07DFE2120EBE740F2FF3309
S315080008A0F2E706F0ADFC0546204606F047FC28466A
S315080008B006F0A1FC0020DDE7A773000838B504465A
S315080008C028B91448FC2105F064FE222038BD0378B7
S315080008D08BB1012B03D0022B0DD0032B04D13F2360
S315080008E06278D340DB0709D40A484FF4807105F0D3
S315080008F050FE2120EAE740F2FF33F1E706F080FCDC
S315080009000546204603F038FA284606F074FC00200F
S31508000910DCE700BFA773000808B503F057FA054BD4
S3150800092000F0553020F05020C3F82004BDE80840F8
S31508000930FFF70EBF00E0035008B503F047FA054B72
S3150800094000F0AA3020F0A020C3F82004BDE8084033
S31508000950FFF7FEBE00E003502DE9F04F9A46564BCE
S3150800096085B01B7806460F461546DDF83C909DF87F
S3150800097044B0DDF85080002B00F09780072A00F27B
S3150800098096800E9B002B00F09280B9F1000F00F0C4
S315080009908E80129BB3F5006F00F38980012803D17E
S315080009A0109B002B00F08380444B03EB05131B7B45
S315080009B0002B7ED0424C10220021684606F0B7F87C
S315080009C004EB45141022A7BB3946204606F0AFF8BB
S315080009D043F210036380BBF1000F03D1E37843F0C1
S315080009E00303E370364A0E9B02EB451CCCE90193E0
S315080009F0129B6901581E9DF84C30C0F30A0003F09B
S31508000A0003039B0643EA001E53582E48012E00EAAC
S31508000A1003004EEA0003CDF800A0535017D0B8F1F2
S31508000A20000F2ED19CF8023068F304138CF80230BC
S31508000A3027E00021204606F07AF84FF444736380D5
S31508000A40BBF1000FCED1E37843F03003C9E7132397
S31508000A500CF1100ECCF80C309CE80F008EE80F0055
S31508000A606FF00301DCF81C20109B61F39F02012F35
S31508000A70CCF81C20CCF8143003D1CCF81890CCF85C
S31508000A80043000270D4A290102EB051342F80180BC
S31508000A90159A28465A60694622469F605E7303F097
S31508000AA07DF8384605B0BDE8F08F0748FAE70748ED
S31508000AB0F8E70748F6E700BF46150020A41200200D
S31508000AC0A41100200F80FFF3028000F0018000F0DF
S31508000AD0078000F038B5124B05461B78DBB1E0B14C
S31508000AE006F08EFB0F4A00231146147B54B92B607F
S31508000AF001251A0101EB03131D738C5006F07BFBCD
S31508000B00204638BD0133082B02F11002EDD106F05C
S31508000B1072FB0548F5E70548F3E70548F1E700BF26
S31508000B2046150020A4120020048000F0028000F080
S31508000B30018000F038B506F063FB002305460B4A32
S31508000B40147B6CB90133082B02F11002F8D102F0BC
S31508000B50A7FF074B28461C7006F04DFB204603E00E
S31508000B60284606F048FB034838BD00BFA4120020FB
S31508000B7046150020058000F00D4B10B51B7804467D
S31508000B8093B1072812D806F03BFB0A4B03EB041374
S31508000B901A7B2AB100241C7306F02DFB204610BDD3
S31508000BA006F029FB0448FAE70448F8E70448F6E79C
S31508000BB046150020A4120020068000F0028000F0EE
S31508000BC0018000F0154B13B51868002301908DF8C5
S31508000BD0043006F015FB124B1C7824B106F00BFB0B
S31508000BE0104802B010BD01221A7006F004FB0E4B25
S31508000BF001A81C731C7783F82C4083F83C4083F8C3
S31508000C004C4083F85C4083F86C4083F87C400823AA
S31508000C108DF8073002F07AFF2046E2E7FE730008F7
S31508000C2046150020038000F0A4120020F8B50D4DEB
S31508000C302D7885B1072810DC0B4D060105EB00144D
S31508000C40277B67B1AB510025069BA560636002F060
S31508000C50A5FF2846F8BD0548FCE70548FAE7054814
S31508000C60F8E700BF46150020A4120020028000F015
S31508000C70018000F0078000F00A4A08B512785AB1D8
S31508000C8007280BD8084A02EB00131B7B43B1002147
S31508000C9002F01CFF002008BD0448FCE70448FAE7F8
S31508000CA00448F8E746150020A4120020028000F048
S31508000CB0018000F0078000F00A4A08B512785AB198
S31508000CC007280BD8084A02EB00131B7B43B1012106
S31508000CD002F0FCFE002008BD0448FCE70448FAE7D9
S31508000CE00448F8E746150020A4120020028000F008
S31508000CF0018000F0078000F0184B2DE9F0411F6DC8
S31508000D005B6D1F4000D5FEE701260025144CDFF871
S31508000D105880374218D02368C8F85060A3B1A16834
S31508000D20284601316268A1609847637B012B0BD185
S31508000D3050B90C4B03EB45131A7B60F341021A7347
S31508000D401A7F60F341021A770135082D4FEA4606E5
S31508000D5004F11004DDD1BDE8F08100BF00000450A5
S31508000D60A4120020A411002000200450044BD3F83C
S31508000D708420D206FBD4D3F88400C0F381107047D0
S31508000D800040005038B5104B0546D3F800310C46E4
S31508000D9003F00303022B0BD0032B0DD0012B0FD12D
S31508000DA006F010F9032305B1286004B1236038BDA5
S31508000DB006F05AF90923F6E706F00AF90823F2E7D6
S31508000DC001230020EFE700BF0080005038B5104B24
S31508000DD00546D3F840310C4603F00303022B0BD02B
S31508000DE0032B0DD0012B0FD106F010FA0A2305B1FB
S31508000DF0286004B1236038BD06F036F90923F6E702
S31508000E0006F007FA0C23F2E701230020EFE700BFFC
S31508000E100080005038B5104B0546D3F860310C46B3
S31508000E2003F00303022B0BD0032B0DD0012B0FD19C
S31508000E3006F0ECF90A2305B1286004B1236038BD31
S31508000E4006F012F90923F6E706F0E3F90C23F2E7B0
S31508000E5001230020EFE700BF0080005038B5104B93
S31508000E600546D3F840320C4603F00303022B0BD099
S31508000E70032B0DD0012B0FD106F0C8F90A2305B1B3
S31508000E80286004B1236038BD06F0EEF80923F6E7BA
S31508000E9006F0BFF90C23F2E701230020EFE700BFB5
S31508000EA00080005038B5124B0546D3F880300C4602
S31508000EB003F00303022B0BD0032B0DD0012B0FD10C
S31508000EC006F046F80E2305B1286004B1236038BD44
S31508000ED006F082F80723F6E706F034F80623F2E769
S31508000EE0044841F2142105F054FB00231846EAE7AA
S31508000EF0008000500274000838B51A4B0546D3F82E
S31508000F0020010C4600F00700062821D8DFE800F08B
S31508000F1028040C1410181C0006F014F8052305B153
S31508000F20286004B1236038BD06F04CF80323F6E7C1
S31508000F3006F052F80723F2E706F040F80223EEE738
S31508000F4006F000F80623EAE706F03CF80423E6E78D
S31508000F50054841F2912105F01CFB00231846DEE7FF
S31508000F600123DCE7008000500274000838B5194BED
S31508000F700546D3F828310C4603F00703013B052B39
S31508000F8020D8DFE803F003131B0F0B1705F0DAFF71
S31508000F90052305B1286004B1236038BD05F0D2FFEA
S31508000FA00623F6E706F018F80723F2E706F00AF82C
S31508000FB00323EEE706F006F80423EAE705F0FEFF4A
S31508000FC00223E6E7044841F2990105F0E2FA002314
S31508000FD01846DEE70080005002740008002337B583
S31508000FE00193194B0546D3F820320C4603F0070344
S31508000FF0042B1FD8DFE803F025030F14190000217E
S3150800100001A8FFF7B3FF12230DB1019A2A6004B1B4
S31508001010236003B030BD05F0DFFF07230190F3E737
S3150800102006F0F4F80A230190EEE706F01DF8092306
S315080010300190E9E741F25601044805F0AAFA0023AF
S31508001040E2E70123E0E700BF0080005002740008D1
S31508001050F7B50027144B0197D3F88041064604F0EC
S315080010600304022C0D4614D0032C0DD0012C14D1E8
S31508001070394601A8FFF740FF10240EB1019B3360E3
S3150800108005B12C6003B0F0BD05F0A6FF072401905A
S31508001090F3E705F093FF0190EFE741F2E6310348E5
S315080010A005F077FA3C46E8E700800050027400082D
S315080010B038B5164B0546D3F800020C4600F0070073
S315080010C0042819D8DFE800F020030B0F130006F0F8
S315080010D09DF80A2305B1286004B1236038BD05F0E0
S315080010E0C3FF0923F6E706F094F80C23F2E705F0A8
S315080010F04FFF0F23800AEDE7054841F2A44105F0AA
S3150800110048FA00231846E5E70123E3E70080005084
S315080011100274000838B5164B0546D3F808020C4683
S3150800112000F00700042819D8DFE800F020030B0FA9
S31508001130130006F06BF80A2305B1286004B1236092
S3150800114038BD05F091FF0923F6E706F062F80C238F
S31508001150F2E705F01DFF0F23800AEDE7054841F287
S31508001160DC4105F016FA00231846E5E70123E3E714
S315080011700080005002740008002337B50193184B0D
S315080011800546D3F860320C4603F00703013B032BF0
S315080011901FD8DFE803F0020E1914002101A8FFF793
S315080011A0ABFE10230DB1019A2A6004B1236003B087
S315080011B030BD002101A8FFF709FE1123F2E705F06B
S315080011C00BFF07230190EDE705F0F8FE02230190D7
S315080011D0E8E741F2FD01034805F0DBF90023E1E702
S315080011E00080005002740008002337B50193184B9D
S315080011F00546D3F894320C4603F00703013B032B4C
S315080012001FD8DFE803F0020E1914002101A8FFF722
S3150800121073FE10230DB1019A2A6004B1236003B04E
S3150800122030BD002101A8FFF7D1FD1123F2E705F033
S31508001230D3FE07230190EDE705F0C0FE02230190D7
S31508001240E8E741F23011034805F0A3F90023E1E786
S31508001250008000500274000873B500240F4B0194F7
S31508001260D3F87032064603F00303012B0D4607D068
S31508001270022B11D041F25B11094805F08AF904E006
S31508001280214601A8FFF7A2FD11240EB1019B336088
S3150800129005B12C6002B070BD1524F6E70080005039
S315080012A00274000808B5334B98424FD027D8324B02
S315080012B0984245D017D8314B98423ED00AD838B113
S315080012C02F4B984239D041F2BB312E4805F061F9CF
S315080012D0002034E02C4B98422FD02C4B9842F2D168
S315080012E02B4B586E2BE02B4B98422CD003F537131B
S315080012F003F5D8639842E6D1254B986F1FE0264B35
S3150800130098422FD00CD8254B984223D0244B98428C
S3150800131024D0244B9842D6D11D4BD3F884000EE036
S31508001320214B984222D003F5740303F510539842D3
S31508001330C9D1174BD3F8980001E0154B986D08BD35
S31508001340134B186FFBE7124B586FF8E7104BD3F89F
S315080013508000F4E70E4BD3F88800F0E70C4BD3F87F
S315080013608C00ECE70A4BD3F89000E8E7084BD3F873
S315080013709400E4E780BA8C01405DC60080841E00B4
S3150800138040420F000274000800093D00C0CF6A0001
S315080013900080E00F0024F400007E560380D5430247
S315080013A0006CDC020048E8010090D003B0F5207F0D
S315080013B010B52ED009D8B0F5007F24D003D868B16F
S315080013C0B0F5C07F0AD000241BE0B0F5607FFAD1E3
S315080013D0124BD3F88040C4F3011412E00F4B1C6F74
S315080013E0230B13F00E0FC4F303340AD0072C08D0CE
S315080013F00F2C06D0032C04D04FF42271084805F0B0
S31508001400C8F8601C10BD054BD3F89040C4F30464BB
S31508001410F7E7024B1C6FC4F38024F2E70080005004
S31508001420027400084FF4803238B5104B04469A66A9
S3150800143000200D46FFF7BAFF41F671320C4B6043A8
S31508001440DC69DA635A6804F4803422F440125DB920
S315080014500849884294BF00200120000502435A60CB
S315080014600CB10022DA6338BD0349F2E70090005058
S3150800147000000350005A6202002D310138B54309B5
S3150800148004460D460ED140F235310D4805F081F877
S31508001490002304F01F0485B103F580530122A240FE
S315080014A01A6038BD012B04D0022B04D040F2433118
S315080014B0EBE7044BEDE7044BEBE703F50053EDE7E9
S315080014C0027400086480005068800050002130B51E
S315080014D0B0F5807F85B00446CDE9001100F0D380D1
S315080014E03DD85E2833D85E2833D8DFE800F0483286
S315080014F032323232323232323232323232323232BE
S31508001500323232323232323232323232323248AD1C
S3150800151048ADBDBDBDBDBDADC7516EDD51ADADADAF
S315080015203232323232323232ADADAD81E7AD32329D
S315080015303232323232323232323232BD484848E200
S315080015405151EC9066C232323232329848008028C5
S315080015506AD040F2A441604805F01BF867E0B0F590
S31508001560D06F00F0A18035D8B0F5607F77D01AD853
S31508001570B0F5007F5ED005D8B0F5C07FE9D105F09B
S3150800158007FD53E0B0F5207F5ED0B0F5407FE0D18F
S3150800159005F0FEFC04464FF42070FFF707FFB4FB86
S315080015A0F0F4640859E0B0F5B06F67D00AD8B0F522
S315080015B0806F59D0B0F5A06FCBD100216846FFF7F0
S315080015C00DFD34E0B0F5C06FC3D100216846FFF7C2
S315080015D0FDFB2CE0B0F5106F6BD00ED8B0F5086F98
S315080015E076D0B6D8B0F5E06F68D0B0F5F06FB0D168
S315080015F000216846FFF70EFC19E0B0F5406F38D0B9
S315080016000AD8B0F5206F5ED0B0F5286FA1D10021B9
S315080016106846FFF721FE0AE0B0F5486F99D1002128
S315080016206846FFF7E1FD02E005F092FC009000989D
S3150800163005B030BD05F08CFC05462046FFF7B6FE22
S31508001640B5FBF0F50095F2E705F0A2FC04464FF469
S315080016502070FFF7ABFEB4FBF0F40094E7E701A8AF
S31508001660FFF720FC019DE8E700216846FFF744FCE8
S31508001670DDE700216846FFF779FCD8E700216846D0
S31508001680FFF7E6FCD3E74FF0E02302911B695B07FF
S3150800169005D505F07DFC0290029B0093C7E703A9D8
S315080016A002A8FFF793FBF7E700216846FFF700FD5E
S315080016B0BDE700216846FFF72DFDB8E7002168461B
S315080016C0FFF7CCFBB3E700216846FFF755FDAEE709
S315080016D06846FFF757FBAAE70274000808B580209A
S315080016E0FFF7F4FE034B98429EBF4FF48032024B3D
S315080016F01A6708BD005A620200A000501FB50346CB
S315080017000020B3F5807F019000F0C58063D85D2B7B
S3150800171054D84C2B06D82D2B46D8232B2AD840F242
S315080017208951A7E04D3B102BF9D801A252F823F0B6
S315080017308D1800081F1700081F1700081F17000834
S31508001740371800081F1700081F170008E7180008B1
S3150800175055180008FB170008DD1800081F170008B1
S315080017601F1700081F1700081F1700081F17000873
S31508001770F1180008243B092BD1D801A252F823F00E
S315080017808D1800088D1800088D1800088D18000897
S315080017908D1800081F1700087D1800081F17000875
S315080017A017180008C31800083D2B00F085803E2B4B
S315080017B0B5D1002001A9FFF751FB63E0802BAED11C
S315080017C04E4B1B6F03F00703013B032B50D8DFE892
S315080017D003F04D46494BB3F5F06F6DD020D8B3F5FD
S315080017E0B06F4BD00ED8B3F5607F73D097D3B3F5EF
S315080017F0806F4BD0B3F5A06F91D1002001A9FFF7F8
S31508001800EDFB3FE0B3F5D06F5BD0B3F5E06FD0D01A
S31508001810B3F5C06F83D1002001A9FFF7D7FA31E0ED
S31508001820B3F5206F5FD00BD8B3F5086F4ED0B3F57C
S31508001830106F7FF474AF002001A9FFF76BFC21E05D
S31508001840B3F5406F4AD0B3F5486F51D0B3F5286F5A
S315080018507FF465AF002001A9FFF7FEFC12E005231F
S3150800186001930FE00323FBE70823F9E70223F7E7D1
S3150800187040F2D641224804F08CFE03E0002001A97C
S31508001880FFF7E6FB019805B05DF804FB002001A907
S31508001890FFF732FBF6E74FF0E02302901B695B0780
S315080018A005D505F075FB0D230393039BD8E703A91C
S315080018B002A8FFF78BFAF8E7002001A9FFF7AAFAB2
S315080018C0E0E7002001A9FFF7F3FBDBE701A9FFF733
S315080018D059FAD7E701A9FFF7E5FAD3E7002001A9E6
S315080018E0FFF744FBCEE7002001A9FFF745FCC9E74F
S315080018F0002001A9FFF778FCC4E700BF008000506C
S31508001900027400084FF48032074B0849586E03F5F5
S3150800191080535A664B6A23F001034B62C3035CBFCC
S31508001920034B5A66704700BF0080005000C007503E
S3150800193000A0005038B5036804460F2B04D940F6BA
S315080019408A317C4804F025FE63680F2B04D940F6DB
S315080019508D31784804F01DFEA3680F2B04D94FF487
S315080019603961744804F015FE237B0F2B04D940F621
S315080019709331704804F00DFE637B0F2B04D940F6B3
S3150800198096316C4804F005FEA37B3F2B04D940F63C
S315080019909931684804F0FDFDE37B3F2B04D940F6F6
S315080019A09C31644804F0F5FD2369032B04D940F6FD
S315080019B09F31604804F0EDFD6369032B04D940F6B6
S315080019C0A2315C4804F0E5FDE369032B04D940F62F
S315080019D0A531584804F0DDFD8020FFF78FFE032867
S315080019E000F083804FF48012534B4FF0A0615A6683
S315080019F045F60E02514BC3F88020514A91624FF4C6
S31508001A00803102F5805291629A6DD203FCD4996DA9
S31508001A1011F08041FBD1D4E90002120542EA0062C6
S31508001A20E07B0243207B42EA0042607B42EA0032C6
S31508001A30A07B42EA80121A619869D4E90452120618
S31508001A4042EA856200F000400243A07EE57E02433A
S31508001A50207E42EA0042607E42EA00229A611A6AC1
S31508001A60E06922F00F0242EA8502364D00283DD190
S31508001A701A6294F82420996A94F82000D200294022
S31508001A8042EA40120A4394F8211042EA011242F44B
S31508001A9080329A622C49294A936D31EA0303FBD1B5
S31508001AA04FF08071264881621369A56823F4700394
S31508001AB043EA055313614FF00043836194F82230DB
S31508001AC00BB9224B996294F823303BB94FF4803214
S31508001AD01E4B9A62194A936D5B00FCD494F8253024
S31508001AE01BB1164B1A4AC3F8802038BD024342F090
S31508001AF0080202281A6208D119614FF4085299613E
S31508001B0014484FF47F4104F087FD0C4994F82230BD
S31508001B108A6A94F820001B062A4043EA40131343B6
S31508001B2094F8242043EAC20394F8232043EA0243A4
S31508001B308B62D3E702740008009000500040005AF8
S31508001B400050005AC7FFFEFE030001000060005A5D
S31508001B50F1A7FFFF3440005A014B93F90000704784
S31508001B6013160020436810B5072B044604D940F61F
S31508001B70E6512A4804F00DFDA368032B04D940F664
S31508001B80E851264804F005FD2378032B04D940F6CE
S31508001B90EA51224804F0FDFC94F90130002B04DADE
S31508001BA040F6EC511D4804F0F4FC4FF400011C4AC1
S31508001BB0637851664FF4D151022002F5B83251626A
S31508001BC018494F2B48604FF0010028BF4F2301F5F5
S31508001BD0805148601169C903FCD4217843EA01237E
S31508001BE05361D4E901131B0143EA0123617B0B43CB
S31508001BF0217B43EA41039360E37BA17B1B0143EA14
S31508001C004113617C0B43217C43EA41035360A37C67
S31508001C1013B16FF4D153536210BD00BF02740008AC
S31508001C200090005000100250014B1880704700BF0A
S31508001C300E160020014B1880704700BF0C160020B6
S31508001C404FF4800208B5184B5A660223174A5360A8
S31508001C50936813F48033FBD1012822D105F0B2F939
S31508001C60134B984215D003F5122303F5F8639842EF
S31508001C7013D0104B00EB8002400AB3FBF0F3520A74
S31508001C800A49CA620B6301234B620022074B5A605A
S31508001C9008BD45F67A13084AF2E745F61A03074AD5
S31508001CA0EEE75362F1E700BF009000500040025093
S31508001CB000F0490264666666D8B80500BBCF050021
S31508001CC0B0F5207F38B577D00ED8B0F5007F61D053
S31508001CD003D890B3B0F5C07F2FD04FF44671BDE856
S31508001CE038403D4804F055BCB0F5607FF5D13B4A15
S31508001CF04C1ED2F8FC5015F080751EBFD2F8FC3089
S31508001D0023F08073C2F8FC30032C04D940F2F72183
S31508001D10314804F03EFC324AD2F8803023F03003D2
S31508001D2043EA0413C2F8803035B12C4AD2F8FC30A5
S31508001D3043F08073C2F8FC3038BD4C1E012C0AD91A
S31508001D40102903D8274BCB40DB0704D440F2CB211C
S31508001D50214804F01EFC04F06EFC04F07AFC4FF4F3
S31508001D608031214B1E4A1967136F23F4704343EAE7
S31508001D700433136705F00CF90446FEF7F7FFC0F1C4
S31508001D800201204604F05FFC00F048F8BDE8384040
S31508001D90FFF7A4BC4C1E1F2C04D94FF443710E4800
S31508001DA004F0F7FB0E4AD2F8903023F0F85343EAD2
S31508001DB00463C2F89030BFE74C1E012C04D940F2E8
S31508001DC01231054804F0E5FB054A136F23F48063D6
S31508001DD043EA84231367AFE70274000800ED00E0C6
S31508001DE000800050100101000090005008B5012144
S31508001DF0022000F0E3FC4FF42070FFF7D7FA054BFA
S31508001E00187004F018FC04F024FC4FF48032024BDE
S31508001E101A6708BD471500200090005008B54FF412
S31508001E20C070FFF753FBBDE808400449884294BFD9
S31508001E30012102214FF42070FFF742BF80F0FA0219
S31508001E4038B5044605F0A4F80546FEF78FFFC0F13D
S31508001E500201284604F0F7FB0121002000F002FDEC
S31508001E602CB1FFF7DBFFBDE83840FFF737BC034B63
S31508001E704FF420701978FFF723FFF4E74715002081
S31508001E80B0F5807FF8B50C4600F089816FD85D28DB
S31508001E9061D84C2806D82D2846D823282AD840F6B3
S31508001EA05F11B6E14D381028F9D801A353F820F090
S31508001EB0572100089F1E00089F1E00089F1E000845
S31508001EC01F2000089F1E00089F1E00087B2400088C
S31508001ED0612000089B1F0008272400089F1E000891
S31508001EE09F1E00089F1E00089F1E00089F1E0008D0
S31508001EF0BB24000824380928D1D801A353F820F0B8
S31508001F0057210008572100085721000857210008C3
S31508001F10572100089F1E0008252100089F1E00085B
S31508001F20E11F0008872200083D2800F08C813E2822
S31508001F30B5D1013C0B2C00F29782DFE814F09A0227
S31508001F4095029502950295029502950295029C02C4
S31508001F508902890293028028A1D18B1E062B00F2E2
S31508001F60D680DFE803F0D1C2D4DCD4D49200B0F531
S31508001F70F06F00F0688145D8B0F5B06F00F0D280F8
S31508001F8023D8B0F5607F00F0E68188D3B0F5806F7E
S31508001F9000F0E180B0F5A06F81D1013C112C00F270
S31508001FA03982DFE814F03C0237023702370237027B
S31508001FB037023E023702350233023302370237024E
S31508001FC037023702370237022902B0F5D06F00F020
S31508001FD05A81B0F5E06FACD0B0F5C06F7FF45FAF53
S31508001FE0013C0B2C00F22681DFE814F029012401BC
S31508001FF02401240124012401240124012B011801B0
S3150800200018012201B0F5206F00F037821CD8B0F510
S31508002010086F00F08181B0F5106F7FF440AF013C86
S315080020200E2C00F26281DFE814F0650160016001A0
S315080020306001600160016001600175015201520191
S315080020405C01600160015E01B0F5406F00F0EB8154
S31508002050B0F5486F00F03182B0F5286F7FF41FAFF6
S31508002060112C00F04A82152C00F0498240F62D11F9
S31508002070A14804F08EFA0022A049D1F8703223F064
S3150800208003031343C1F870322EE0002504264FF4EB
S3150800209080370121022000F091FB04F0CCFA04F00D
S315080020A0D8FA974B954A1F67136F23F007033343F4
S315080020B0136704F06DFF0646FEF758FEC0F10201ED
S315080020C0304604F0C0FA0121002000F0CBFBFFF7F0
S315080020D0A5FEFFF703FB3DB9032C05D1894B8A4AB8
S315080020E09F62936D5800FCD4F8BD4FF48012844B60
S315080020F00E465A664FF48032834B9D6A03F5805329
S31508002100C5F300659A62C2E700250126BFE70025E8
S3150800211040F24A61784804F03CFA2E46B7E70025B3
S315080021200226B4E7072C12D0102C12D0022C05D0A8
S3150800213040F29361704804F02CFA00246F4AD2F8F2
S31508002140803123F003032343C2F88031CCE703240C
S31508002150F4E70124F2E7013C062C17D8DFE804F07F
S315080021601B101D1404120E0001236449D1F8202106
S3150800217022F007021343C1F82031B5E70423F4E738
S315080021800323F2E70523F0E70623EEE740F2D261E0
S31508002190594804F0FEF90023E7E70223E5E7A1F131
S315080021A00904082C33D8DFE804F0050532051C328B
S315080021B0323205004FF48032504B5449586E03F5BD
S315080021C080535A664B6A43F001034B62C1035CBFF6
S315080021D04F4B5A664FF0E022136923F0040313614C
S315080021E082E74FF48032454B4849586E03F58053D1
S315080021F05A664B6A23F001034B62C3035CBF444B28
S315080022005A664FF0E022136943F00403E7E740F209
S31508002210FA61BDE8F840384804F0BBB901223749ED
S31508002220D1F8403123F003031343C1F840315BE78B
S315080022300322F4E740F21A712F4804F0AAF90022A3
S31508002240EDE70222EBE7013C0B2C13D8DFE804F09C
S315080022501712121212121212190606100122274913
S31508002260D1F8603123F003031343C1F860313BE72B
S315080022700322F4E740F23C711F4804F08AF9002271
S31508002280EDE70222EBE7013C0E2C17D8DFE804F055
S315080022901B161616161616161D08081216161400FC
S315080022A001221649D1F8003223F007031343C1F877
S315080022B0003219E70322F4E70422F2E740F28971B3
S315080022C00D4804F066F90022EBE70222E9E701224D
S315080022D00A49D1F8083223F007031343C1F8083234
S315080022E002E70322F4E70422F2E740F2AD7102485E
S315080022F004F04FF90022EBE7027400080080005052
S31508002300009000500060005A0040005A00C0075074
S3150800231000A000500222DBE74C1E082C12D8DFE88A
S3150800232004F0161105111111110F18000122754933
S31508002330D1F8003123F003031343C1F80031D3E683
S315080023400322F4E740F2C9716F4804F022F900222B
S31508002350EDE70222EBE76D4A6A4BD2F8FC5015F01E
S3150800236080750AD1072929D1D3F8802022F00302E3
S3150800237042F00202C3F88020B6E6D2F8FC10072C19
S3150800238021F08071C2F8FC100FD1D3F8802022F01A
S31508002390030242F00202C3F880205C4AD2F8FC30FD
S315080023A043F08073C2F8FC309EE60E2C0FD1D3F8AA
S315080023B0802022F0030242F00102ECE70E2906D142
S315080023C0D3F8802022F0030242F00102D2E7062C5D
S315080023D010D040F2FC714C4804F0DBF80021494A61
S315080023E0D2F8803023F003030B43C2F88030002D67
S315080023F0D3D179E60321F2E701224249D1F8203206
S3150800240023F007031343C1F820326DE60322F4E7ED
S315080024100422F2E740F659013B4804F0BAF80022D4
S31508002420EBE70222E9E7023C052C0AD8384B195D8E
S31508002430344AD2F8283123F007030B43C2F828316F
S3150800244052E640F68B01304804F0A3F80021EFE786
S3150800245001222C49D1F8403223F003031343C1F873
S31508002460403241E60322F4E740F6C901264804F063
S3150800247090F80022EDE70222EBE7102C17D012D8CD
S31508002480022C16D0072C16D040F6FF011E4804F081
S3150800249080F800221B49D1F8603223F00703134362
S315080024A0C1F8603220E6112CEED10222F2E70122B1
S315080024B0F0E70322EEE70422ECE7102C17D012D837
S315080024C0022C16D0072C16D040F617110E4804F029
S315080024D060F800220B49D1F8943223F0070313431E
S315080024E0C1F8943200E6112CEED10222F2E701225D
S315080024F0F0E70322EEE70422ECE70122BCE502221C
S31508002500BAE500BF008000500274000800ED00E044
S31508002510527400082DE9F0410546FEF7C3FE431E36
S315080025200333044604D940F6E2113B4804F031F877
S315080025304FF4C022394B5A6603F598335A68012A74
S3150800254004D137494A605A689207FCD48020FFF7BD
S31508002550D5F8052807D104F06EF804F07AF84FF498
S3150800256080322E4B1A672F4B24F040749D4239D087
S315080025702D4B9D4239D004F0E5FC8542064603D929
S315080025800121284600F06EF9284FFB6813F0060F64
S31508002590FBD1D7F80880BC60BB68634013F4F81F0A
S315080025A026D12846FEF736F88020FFF7A7F8052833
S315080025B014D104F0EDFCA842044604D940F63B21A8
S315080025C0154803F0E6FFFEF7D1FBC0F102012046ED
S315080025D004F039F8FFF722FCFFF780F8AE4213D271
S315080025E0BDE8F08144F00074C5E744F08074C2E7A2
S315080025F040F62A21084803F0CCFF8020C7F8088057
S31508002600FFF77CF8052805D0BDE8F0410121002038
S3150800261000F028B93546CCE702740008009000504F
S3150800262000E0015040420F0080841E000000015067
S315080026304E4B70B59842054673D041D8A3F5B703FB
S31508002640A3F55863984265D033D8494B494E98420A
S3150800265051D017D8002877D041F2DE11464803F04A
S3150800266098FF40F68671444803F093FF4FF4002222
S31508002670404B5A663E4B9D4276D000243F4A9542CF
S3150800268036D05DE03D4B984227D03D4B9842E3D18A
S315080026903C4BD3F8A040621E033224F040744CD958
S315080026A040F68671344803F074FF4FF400237366CE
S315080026B0E4E7354B9842CFD1324BD3F8BC402CE0F7
S315080026C0324B984231D0324B984232D0314B9842F5
S315080026D0C2D12C4BD3F8C8401FE02A4BD3F8A040F0
S315080026E0621E033224F04074DAD84FF4002373666E
S315080026F044F0807424E0234BD3F8A040621E0332D2
S3150800270024F040742AD84FF400237366234643F016
S31508002710007415E01B4BD3F8B840621E154E033201
S31508002720BBE7184BD3F8C040F7E7164BD3F8CC40B5
S31508002730F3E7144BD3F8D040EFE74FF40023736662
S315080027404FF0B442946070BD40F686710A4803F0B3
S3150800275020FF4FF400232C467366F1E740F6867196
S31508002760054803F016FFCEE70023D0E7C0EA2101AB
S3150800277040420F00009000500274000880841E003A
S3150800278000093D000080E00F0024F4000048E8013D
S31508002790005A620280BA8C01024A536B0342FCD18A
S315080027A0704700BF00400950034A0179D36E23F0F1
S315080027B030030B43D366704700400050F8B5044613
S315080027C0244BD3F88420D006FBD4D3F88430C3F343
S315080027D081139C423CD004F0BBFB012C05460BD16F
S315080027E01D4B984204D940F29B711C4803F0D1FE58
S315080027F00121284603F027FF04F0F9FC4FF0007288
S31508002800174B07465A66204603F028FF4FF48063A5
S31508002810104E621E93403367736E9A0103D4D6F83E
S3150800282084309B060AD5384604F0DCFC022C0FD10E
S315080028302846BDE8F840002103F005BFD6F88430E5
S315080028409906E9D540F2B371044803F0A2FEE3E71E
S31508002850F8BD00BF00400050005A620258740008D4
S315080028600060005010B50C4608B904F071FB074B20
S3150800287021461B783BB1064B984204D80120BDE897
S315080028801040FFF79BBF0220F9E700BF481500205C
S31508002890005A62024FF0004238B5244B244C5A665F
S315080028A04AF6CD33656C014605F00105236428BB5D
S315080028B00120FFF771FF6368DB0715D51D4B5860CC
S315080028C008461D4B226BD2070CD4984208D1072420
S315080028D015B1174B194A1A6403F0C1FE204638BDD4
S315080028E00130EFE79842F2D00024F1E70132236B7A
S315080028F013F0080305D08A42F8D1E8E700220E490A
S31508002900F5E78A42E3D020210A4A91620121A2F51D
S31508002910805251600649084A886A800603D4934261
S31508002920D5D00133F8E79342DDE700BF00900050A9
S31508002930004009500060095040420F003254FFFF22
S315080029404FF0004238B5164B01465A664AF6CD3363
S31508002950144C154A656C236443780B205B0043F0DE
S315080029600103D363FFF718FF63688A7823F4F873C3
S3150800297043EA02136360CA784B7943EA0223A360E9
S315080029800A798B7943EA022323610878FFF782FFE5
S31508002990EB0744BF054B236403F061FE012038BDF5
S315080029A00090005000400950004000503254FFFF8C
S315080029B00F2870B5044605D940F67461124803F02D
S315080029C0E8FD0F244FF00042104B11495D6E03F5E8
S315080029D080535A664AF6CD334E6C80200B64FFF757
S315080029E0DBFE0B6A23F00F0323430B62F30744BF96
S315080029F0084B0B64002DA2BF4FF00042064B5A66E7
S31508002A0003F02DFE70BD00BF58740008008000500A
S31508002A10004009503254FFFF00A0005010B503F0E3
S31508002A2023FE042300F5805100F500520B61136163
S31508002A300B6113610B6113610B611361202341F272
S31508002A40020103610023C360836041614FF4A02142
S31508002A508361836541620549C36103628362C36218
S31508002A6043630365D164036310BD00BFFF3F0D03D5
S31508002A7038B5174B044698420D4607D0154B984271
S31508002A8004D040F26911144803F083FD25B92046A5
S31508002A90BDE8384003F0E8BD012204F580535A60CA
S31508002AA040F6FF71204605F00F0203F0D9FDA26338
S31508002AB0782103F0D5FD05F001036A0748BF43F006
S31508002AC00203A26C02F003029A42FAD138BD00BF93
S31508002AD00000015B00000A50A8740008F8B5054616
S31508002AE00C46164622B940F227216B4803F051FDE1
S31508002AF06A4B9D4202D19CB956240DE0684B9D4213
S31508002B0047D040F22A21644803F043FD44B940F215
S31508002B107931614803F03DFD2046FEF7D7FC0446AF
S31508002B20AB68D80745D5B44204D24FF40D715A485C
S31508002B3003F02FFDB4FBF6F46F68013CFF2C07F099
S31508002B40010704D94FF40F71534803F022FD2406F8
S31508002B504FB32821284603F083FDAB6C99071CD197
S31508002B60AB6CDA071BD4AE6C16F0020619D140F22C
S31508002B704921494803F00DFD284603F075FD2B69E8
S31508002B80314623F07F4323432B61BDE8F840FFF726
S31508002B906FBF002CC4D15724BEE70526ECE70926EB
S31508002BA0EAE70626E8E72B6923F07F4323432B61F0
S31508002BB0F8BD6B68012B04D04FF41771364803F043
S31508002BC0E8FCAB6DDB07AB6848BF760003F0E003B3
S31508002BD0402B42D009D893B1202B1AD040F29E211F
S31508002BE0BDE8F8402C4803F0D4BC602B42D0802BBB
S31508002BF0F4D106EB4603A34247D801230DE0B6EB12
S31508002C00141F04D94FF42171234803F0C2FC102382
S31508002C1003E0B6EBD40F1AD8082373436401B4FB58
S31508002C20F3F4204F203CB7EBC40F4FEAC40604D296
S31508002C3040F2A921184803F0ACFC28463E40012181
S31508002C4003F00EFD2E63BDE8F84003F009BD40F21F
S31508002C508921114803F09DFCDEE70623B4FBF3F354
S31508002C60B34201D30623D8E740F28E210A4803F07F
S31508002C7090FCF7E7B6EB940F01D80423CDE740F2B2
S31508002C809321054803F085FCF7E74FF426710248BF
S31508002C9003F07FFCB1E700BFA87400080000015BE1
S31508002CA000000A50F8FF7F002DE9F0419846436876
S31508002CB004460E4617461BB140F6FF7103F0D0FCDA
S31508002CC02046FFF7ABFEF189737B62690B43318AB5
S31508002CD022F44C5222F00F020B4313436361A2689D
S31508002CE096F818C0337B22F0804222F0E2024CEAC2
S31508002CF00303134372691343B268A3601AB9A3683E
S31508002D0043F00043A360F06904F58053002878D0A7
S31508002D10857A017A6D04D4F808E045EA81556E494A
S31508002D200EEA01010D43818801F4C0410D43417843
S31508002D3045EA8105417B45EAC105817B45EA0115DE
S31508002D40817845EA8125A560D4F80CE0D0E9041518
S31508002D502943624D0EEA05052943857941EA85210D
S31508002D60C57941EA4521E16001785D4D012914D113
S31508002D70E16841F00401E160AC4200F092805949F3
S31508002D808C420CBF01214FF0FF31490101F1A041EE
S31508002D9042F2944501F5703114E003297BD1E168CC
S31508002DA041F00401E160AC4279D04E498C420CBF37
S31508002DB001214FF0FF3141F29445490101F1A0414B
S31508002DC001F570314FF0020E41F805E0417A99623B
S31508002DD019B1E16841F40061E160C17A59B1E1686D
S31508002DE041F40041E1603E498C425CD1017B3E4D95
S31508002DF001F00F016967616AC07B21F00301014395
S31508002E0061622FB197F82010002956D00121196266
S31508002E10B8F1000F2DD0BCF1000F02D04FF40041DD
S31508002E2099652F49B8F822508C4298F8211051D04C
S31508002E302C48844213D10120112934BF4FF0010CCC
S31508002E404FF0020C294FB5F5006F07F800C094BF84
S31508002E504FF0010C4FF0020C254F07F800C0A06D8B
S31508002E60294320F4F95020F01E000143A1650121F1
S31508002E709965012159601AB120467168FFF72EFE3F
S31508002E8020463178FFF7F4FDA36CDB4313F4405F6B
S31508002E90FAD1BDE8F0810239012984D96CE700210D
S31508002EA089E7002171E70F498C4201BF017B0E4D6E
S31508002EB001F00F01C5F880109DE7E06997F8221028
S31508002EC097F8215020F009002943014341F00101F8
S31508002ED0D9619DE70020AFE7E39BBDFFFFF9F087C7
S31508002EE00000015B00000A50009003504B150020BB
S31508002EF049150020134B70B5984205460C4606D076
S31508002F00114B984203D07021104803F042FB1CB9BC
S31508002F1072210E4803F03DFB237B802B03D17621DB
S31508002F200A4803F036FB637B032B03D9792107484C
S31508002F3003F02FFB002321462846BDE870401A46B9
S31508002F40FFF7B2BE0000015B00000A50A874000833
S31508002F502B4B70B5984205460C4643D119B98C21BE
S31508002F60284803F016FB5620FEF7C8FB0C2807D0A6
S31508002F70A0F10903012B03D9A0F11103012B3AD8BB
S31508002F80637B032B03D9AD211E4803F002FB237B89
S31508002F90802B03D0AF211B4803F0FBFA6369B3F11A
S31508002FA0804F03D0B121174803F0F3FA238A23F49C
S31508002FB000539BB2B3F5805F03D0B321114803F0E9
S31508002FC0E8FAA368013BB3F5165F03D3B5210D48AC
S31508002FD003F0DFFA002321462846BDE870401A466A
S31508002FE0FFF762BE8A21074803F0D3FA1CB98C2181
S31508002FF0044803F0CEFA9E21024803F0CAFABFE756
S315080030000000015BA8740008F8B5774B044698429F
S315080030100E4606D0754B984203D0E221744803F059
S31508003020B8FA1EB9E421724803F0B3FA727BB368A2
S315080030307AB1704A934203D9E6216D4803F0A9FA9A
S315080030403369C3B1DB7BB3B1E921694803F0A1FA5F
S3150800305011E0694A934203D9EC21654803F099FACD
S31508003060336943B11A7F32B1B168644A5B7F9142D2
S3150800307078D9042B78D86368356923B140F6FF718F
S31508003080204603F0EDFA2046FFF7C8FC2269737B59
S31508003090B17B22F087020B43134343F0800323617D
S315080030A0002D63D02369297F23F0F80343EAC1136F
S315080030B02978EA7B0B43297943EA4113697A43EA7B
S315080030C0011343EA82132361E068D5E9053720F046
S315080030D0F0403B4320F470200343287B697B43EA96
S315080030E0802343EAC133E360A368F07B23F003033C
S315080030F0034343F00103A3606B88A06803F4C0434D
S315080031000343A360A368687943EA8023A360AB7985
S31508003110EF79606A1B013F0203F0700307F4E0676A
S3150800312020F4772020F4EE603B430343287A00031B
S3150800313000F4E0400343687F000400F47020034372
S3150800314063626369307B23F00F03034363616B8912
S31508003150A36141BBC2B1244B9C422ED0234B9C4257
S315080031603CD011E0042B86D8F3216EE7A368F27BE6
S3150800317023F00303134343F00103A3606369327B1F
S3150800318023F00F03134363612046D6E90112FFF7C4
S31508003190A5FC20463178FFF76BFCA36CDB4313F4E0
S315080031A0405FFAD1F8BD104B9C420CD1AB7B144959
S315080031B003F00F034B67002AE6D02B7C104A03F076
S315080031C00F031367E0E7094B9C42DDD1AB7B0C4943
S315080031D003F00F03C1F88030002AD5D02B7C084AAB
S315080031E003F00F03D367CFE70000015B00000A5026
S315080031F0A8740008002D3101809698003F4B4C00BA
S3150800320000900350032838B504460D4605D8094BE7
S3150800321033F81030CB40DB0704D440F2854106482A
S3150800322003F0B7F9302301225C43044BAA401A5134
S3150800323038BD00BF9E750008FB74000840D00350D7
S31508003240032838B504460D4605D8094B33F810301F
S31508003250CB40DB0704D440F25641064803F099F9FF
S31508003260302301225C43044BAA401A5138BD00BFE3
S315080032709E750008FB74000840E0035003282DE9FA
S31508003280F04104460D461746984605D81D4B33F8B7
S315080032901030CB40DB0704D44FF4B0711A4803F062
S315080032A078F937B129462046B8F1000F20D0FFF744
S315080032B0A9FF0F21072D04EB440688BFA5F10803D3
S315080032C04FEA0616114895BFAB009B0004360C362C
S315080032D007FA03F29940304403F0EFF97FB929461B
S315080032E02046B8F1000F06D0BDE8F041FFF78ABFC7
S315080032F0FFF7A6FFDDE7BDE8F041FFF7A1BFBDE890
S31508003300F08100BF9E7500084C75000830C0035058
S315080033104369DA01FCD4012300F50050024A4360F0
S3150800332053689B07FCD4704700400059344B70B56E
S31508003330984204460D46164604D040F212213148FA
S3150800334003F027F92046FFF7E3FF2B786A7803F0A6
S31508003350070343EAC203EA7843EA0223AA7812017A
S3150800336002F070021343C4F880306B79E26A1B01DD
S3150800337022F0170203F0100313432A7902F007021A
S315080033801343E3621E4B32469C4225D0012104F5C5
S31508003390805359601A4B00229C422AD0AB79A2610D
S315080033A053BB70BD12F8023C12F8041C5B0443EAD6
S315080033B0012312F8051C0B4312F8031C090401F437
S315080033C080310B4300F1280144F8213001301028E0
S315080033D002F10502E6D1D9E70020F8E703EB8300FE
S315080033E0305C10B101FA03F002430133102BF5D11A
S315080033F0D4E713460436F9E70823E360D1E700BFAC
S3150800340000400059A6750008144B10B598420C46A2
S3150800341004D040F26A31124803F0BBF874B92A2086
S31508003420FEF754F80446B0B10E4B984206D90B4B3A
S315080034309B68C3F302730133B0FBF3F40A4B04F53C
S31508003440742404F23F24B4FBF3F4601E7F2828BFDB
S315080034507F20C0B210BD0124F0E700BF004000592C
S31508003460A6750008005A620240420F0038B5154B8F
S315080034700D469842144604D040F2A531124803F08E
S3150800348088F835B940F2A6310F4803F082F8B4B18E
S31508003490FFDE0E4B9D4228BF1D461CB92A20FEF7AB
S315080034A015F804462C44013CB4FBF5F0AC4228BFA1
S315080034B000F1FF30032828BF0320C0B238BD2546D7
S315080034C0ECE700BF00400059A6750008005A6202E2
S315080034D0F8B51F46194B0E469842144604D040F2DA
S315080034E0DF31174803F055F826B94FF478711448B8
S315080034F003F04FF8FFB1134D134B012F08BF1D46BC
S31508003500B54228BF35461CB92A20FDF7DFFF044619
S315080035109DF8183040F2FF300133B4FBF3F46B1E0C
S315080035201C44B4FBF5F3AC4228BF03F1FF339842C1
S3150800353028BF1846F8BD054DE2E700BF0040005910
S31508003540A6750008404B4C00002D31018096980066
S3150800355013B5044601A800F0FDFB042C04D8064B5D
S3150800356033F8140002B010BD044840F28C4103F051
S3150800357010F80020F6E700BFF8750008A6750008E1
S315080035802DE9F04F2DED048B0646DFF840C38DB0CC
S3150800359006AF0C461546BCE80F000FC79CE80300AB
S315080035A0BE4B87E803009E4203D0EC21BC4802F0DC
S315080035B0F0FFBC4F002239463046FFF757FF94F814
S315080035C00580804538BF80463046FFF7A1FE207942
S315080035D05FFA88F850B92A20FDF778FFB842014605
S315080035E028BFB0FBF8F13046FFF70EFFE3784FEA45
S315080035F008721B0102F0E04203F030031343000493
S31508003600227800F4FE0003430AB143F0020362780D
S315080036100AB143F00403A2780AB143F00803B36081
S31508003620E38822893361638943EA024333629B4B09
S315080036309E4200F01F82012306F5805673600DB086
S31508003640BDEC048BBDE8F08F9749C5E0D1F8804101
S31508003650012B4FEA14442CD9022B00F074814FF445
S31508003660F6718F4802F095FF9DE0D1F88441012B51
S31508003670A4B2F1D8002B40F00881D1F88C110914B6
S3150800368049001CE0D1F88441012B4FEA1444E3D8E1
S31508003690002B40F0FD80D1F88C11091401EB410193
S315080036A00DE0D1F88041012BA4B2D5D8DFED7F7AA1
S315080036B009E0002B40F0E680D1F88C11091407EEDA
S315080036C0901AF8EEE77A22040BF1B24202F580422C
S315080036D0926C24F4C041C2F3820C4FF001020CF143
S315080036E0010E02FA0EF209EE102A4FEA8141B8EEEF
S315080036F0C99AF6EE008A6E4A48BF41F00041BCF10D
S31508003700000F40F0E580002B40F0C580D2F88C31E0
S315080037101BB207EE103AB8EEC77A37EE878A00284A
S3150800372040F0F98005A8039100F014FBDFED617AFB
S3150800373068EE277A0399DFED606A86EE897ADFED0F
S315080037405F6A27EE267AF1EE006AB1F1004F07EEBE
S31508003750A67A0BD0DFED5A7A06EE104A77EE276A7C
S31508003760BAEEE86A56EE267AB0EE677AB5EEC07A11
S31508003770F1EE10FACBBFB1EE477A78EEC78A37EE8C
S31508003780687AFDEEE87AC8BFFDEEC77A17EE903A7A
S31508003790B3F5003FC0F2CE806FEA51416FEA41416E
S315080037A03E4A3B01D1503F0107F1B247C9F309032D
S315080037B007F580477B600AF1010A1435BAF1020F52
S315080037C03FF439AF2B78AF68002B3FF43DAF3D4946
S315080037D03D4A012B18BF1146304C00222046CDF831
S315080037E000800393FFF774FE04EB0A14A16C039B95
S315080037F021F0435121F41D1121F443511FFA87F991
S3150800380021F03F0103F003070F43697881454FEA2A
S31508003810810101F01C0147EA0107A97838BF8146F2
S315080038204901C9B20F43E9782879090301F4E0414F
S315080038303943070407F4E02739432F7C4FEA0A1B6C
S315080038407F0507F4600739436F793F0707F040574C
S315080038503943A164A46C1649C4F30234013C0AF145
S315080038600507042C3FF61DAF0FF2040C5CF824F094
S31508003870A3360008A33600084D3600086B36000844
S3150800388085360008D1F8941118E7D1F89411F6E6B0
S31508003890D1F8941101E7D2F8943139E7004000597C
S315080038A0A6750008005A620280969800000000007B
S315080038B00080E00F3D3B843F000080430000204429
S315080038C000000049002D3101404B4C0004760008E9
S315080038D0ABB9D2F890311BB207EE103AB8EEC77AF8
S315080038E077EE677A69EE286A644B87EEA67AD3F88C
S315080038F088311BB207EE903AF8EEE77A0DE7D2F870
S3150800390098311BB207EE103AB8EEC77A37EE677AE7
S3150800391077EE877AE6E7D5ED037ADFED596AF8EEB2
S31508003920677A87EEA67AF7EE046AC6EE877A67EEB6
S31508003930887A00E713F5003FAABFC3F3110341F4E1
S31508003940003119432CE7FFF703FE07EE900A9FEDB7
S315080039504C7AF8EE677A0BF1B24303F580439B6C19
S315080039600CAAC3F3421302EB830387EE875A13EDBF
S31508003970067AFCEEC77A17EE903AF7EE006A5C2BE9
S315080039801CBF77EE267A87EE276A07EE904ADFEDA8
S315080039903D5AF8EE677A08BF9FED3B6A67EEA57A4F
S315080039A067EE867A9FED396A67EE867AF5EEC07A13
S315080039B0B6EE006AF1EE10FA4CBF77EEC67A77EEED
S315080039C0867A0BF1B24202F58042136DFDEEE77A74
S315080039D00023136517EE903A17EE900A13F4004F7A
S315080039E0136DDFED2B4A18BF43F000431365294BCF
S315080039F0116D03EA80430B431365204B9FED264A5E
S31508003A00D3F88811D3F88831116D1BB207EE903AB6
S31508003A10F8EEE77A77EEA47AC4EE074A37EE267A06
S31508003A20C4EE876AF7EE044A84EE857A67EE277A4B
S31508003A30B1EE007A47EE876A07EE104ADFED177A8D
S31508003A40B8EEC77A76EEA76A65EEC75A46EEA57A45
S31508003A50F5EEC07AF1EE10FA4CBF77EEC67A77EE3D
S31508003A60867AFDEEE77A17EE903AC3F311030B4315
S31508003A70136598E64FF0000AA0E600BF0080E00F45
S31508003A8000007A4400000038E71B753F0000004735
S31508003A90000000000000FC7F00008048000000498C
S31508003AA010B5152000F060FB0024FF22064B2146C6
S31508003AB05C6520209A625C60FDF7E0FC2146BDE863
S31508003AC010402120FDF7DABC00000450072838B55D
S31508003AD004460D4603DD7721084802F05AFD1F2CDF
S31508003AE003D99121064802F054FD064A064B002DDB
S31508003AF008BF13460122A2401A6038BD1C7600088A
S31508003B006D760008401004504020045010B5044655
S31508003B1018B991211F4802F03CFD23781B0613F0C3
S31508003B20604F03D092211B4802F033FDE3780F2B38
S31508003B3003D99521174802F02CFD01212020FDF715
S31508003B409DFC01212120FDF799FC0122124B15202D
S31508003B505A60227812069A606178A27842EA01428F
S31508003B609A61FF229A6200229A631A644FF0004211
S31508003B705A654FF0FF3203F500531A6500F044FB0F
S31508003B801520E17800F04EFBBDE81040152000F046
S31508003B9009BB00BF1C76000800000450F8B50126D2
S31508003BA0C3B2072805460C46174606FA03F603DD90
S31508003BB0DE21344802F0EDFC1CB9DF21314802F061
S31508003BC0E8FC236823F47C1323F00F031BB1E221DE
S31508003BD02C4802F0DEFCA37A1B0413F47C0F03D0F6
S31508003BE0E721284802F0D5FCE37A1B0513F07E6F1F
S31508003BF003D0E921234802F0CCFC237B5B0513F0B4
S31508003C00FE5F03D0EB211F4802F0C3FC1E4B27F0D2
S31508003C1003071E65AB00226803F1A04303F588235A
S31508003C205A60302202FB05F0637B00F1A04000F5E4
S31508003C3080200366E37AA27A1B0543EA0243227BC5
S31508003C4043EA4253C365076703F0DAFA0F4B227A51
S31508003C505E6502B11E64627A02B19E632279A37917
S31508003C6043EA0243084A93616179E37943EA0143E7
S31508003C7006498B61064B56639E64BDE8F84003F01F
S31508003C80BABA00BF1C760008002004500010045081
S31508003C900000045010B50124C3B2072804FA03F43F
S31508003CA004DD40F27B11074802F073FC03F0A8FA22
S31508003CB0054B5A6D22EA04025A659C62BDE810401B
S31508003CC003F099BA1C7600080000045010B50124C8
S31508003CD0C3B2072804FA03F404DD40F299110A482E
S31508003CE002F057FC03F08CFA084BDA6A224208D134
S31508003CF05B6B9C430CBF0124002403F07CFA20462E
S31508003D0010BD0024F9E700BF1C7600080000045027
S31508003D1070B50125C3B20728044605FA03F504DD84
S31508003D204FF4E071094802F034FC03F069FA3022D6
S31508003D30074B5E6B02FB04335C6E03F05CFA35429C
S31508003D400ABFC4F30A100020013070BD1C760008B3
S31508003D50000004504FF48032064B5A6603F5E623FA
S31508003D609B69C3F38512827003F03F021B0B4270F6
S31508003D70037070470090005010B5044620B940F211
S31508003D803A21104802F005FC2378C3B1012B03D071
S31508003D90022B14D0032B04D13F236278D340DB07D0
S31508003DA004D440F23D21074802F0F3FB0122637870
S31508003DB021789A4030235943034B5A5010BD40F29C
S31508003DC0FF33EAE7BD76000840E00350034BD3F81B
S31508003DD02424D3F820041040704700BF00C00350C5
S31508003DE02DE9F041037804460D46164613B3012B18
S31508003DF003D0022B1ED0032B04D13F236278D34075
S31508003E00DB0703D45D21274802F0C3FB264BD3F812
S31508003E1010331BB16021234802F0BBFB0F2D0CD8D1
S31508003E20DFE805F03732323232323232323232326B
S31508003E303232323240F2FF33E0E7B421194802F059
S31508003E40A8FB4FF00008204606B303F077F90F21C8
S31508003E5067782378072F03EB430388BF083F4FEAA9
S31508003E600313124895BFBF00BF0004330C3308FA8A
S31508003E7007F2B940184402F052FC85B9204656B1FB
S31508003E80BDE8F04103F05AB9A846DCE7FFF774FF2E
S31508003E90DDE7A846DBE7BDE8F041FFF76DBFBDE803
S31508003EA0F08100BF1777000800C0035030C00350E8
S31508003EB030B58D488BB003F0B4F920B14FF44E718C
S31508003EC08A4802F066FB6C46894D0FCD0FC42B68F5
S31508003ED0884A2360FF238DF80130D2F84C3113F459
S31508003EE0802340F0F580D2F850218DF801309DF8F6
S31508003EF001306C46FF2B08BF2C2368467E4D8DF893
S31508003F000130FDF72FFE3220FDF78EFE0FCD0FC4D0
S31508003F100FCD0FC495E8030084E80300754BD3F86A
S31508003F204C21120340F1B880A3F5FE431C88B4F572
S31508003F30807F28BF5F248DF81940FDF70DFE0444E5
S31508003F4084F308046D488DF81840FCF769FB684649
S31508003F50FDF7F0FC3220FDF76DFE6948FEF7DAFA48
S31508003F606848FEF765FB684803F05BF920B140F244
S31508003F70CB115E4802F00DFB644C0020FDF760FE95
S31508003F80FDF734FF236F002023F0070343F00303F4
S31508003F902367FDF755FF236F5D4923F474432367B1
S31508003FA05C4BD3F8FC2012F0807279D1D4F88030BB
S31508003FB023F0030343F00103C4F88030C1F88020DE
S31508003FC0524CD4F8203123F0070343F00203C4F817
S31508003FD02031D4F8283123F0070343F00203C4F84C
S31508003FE02831D4F8803123F0030343F00103C4F8E1
S31508003FF08031D4F8403123F0030343F00203C4F8B8
S315080040004031D4F8603123F0030343F00203C4F8C7
S315080040106031D4F8403223F0030343F00203C4F8B6
S315080040204032D4F8003223F0070343F00203C4F801
S315080040300032D4F8083223F0070343F00203C4F829
S315080040400832D4F8703223F0030343F00103C4F8AE
S315080040507032D4F8203223F0070343F00103C4F882
S315080040602032FDF74FFC4FF0E0220020136943F0A1
S3150800407004031361D4F8603223F0070343F0010305
S31508004080C4F86032D4F8943223F0070343F00103EE
S31508004090C4F894320BB030BDD3F85041E4B24AE7C5
S315080040A0D3F8FC2022F08072C3F8FC20D4F88020D4
S315080040B022F0030242F00102C4F880200022C1F86F
S315080040C08020D3F8FC2042F08072C3F8FC2077E702
S315080040D04FF07E6393F89C2093F99C30002BFFF6F3
S315080040E006AF8DF8012002E79C780008E277000801
S315080040F0587800080080E00F6C780008C017530253
S3150800410000B4C404C0EA2101A07800080080005069
S315080041100090005000ED00E007B5094B18689A8832
S315080041209B7900906846ADF804208DF80630FEF7B6
S3150800413007FC0920FEF73CFC002003B05DF804FBF1
S315080041409478000813B50024064A6846536F43F06E
S315080041500103536700948DF80440FEF725FB2046BB
S3150800416002B010BD004000504C2810B504460DD8CA
S3150800417001220A49630904F01F04A240203341F8CA
S315080041802320BFF34F8FBFF36F8F10BD40F2251169
S31508004190034802F0FEF9002CF7DBE9E700E100E04E
S315080041A0BC7800084C2810B5044608D801236109D4
S315080041B0074A04F01F04A34042F8213010BD4FF40B
S315080041C09871044802F0E5F9002CF7DBEEE700BF2A
S315080041D000E100E0BC7800084B2810B5044604D975
S315080041E040F23B11064802F0D4F9064B621153F827
S315080041F0220004F01F04E040C04300F0010010BD97
S31508004200BC78000800E100E0002808DB0122430929
S31508004210034900F01F008240603341F823207047AD
S3150800422000E100E038B500F110035C2B04460D46AA
S3150800423004D94FF4EF710E4802F0ABF90F2D04D9EB
S3150800424040F2DF110A4802F0A4F960B20028ACBFB8
S3150800425000F16040074B4FEA0515EDB2ABBF00F51C
S31508004260614000F00F0080F800531D5438BD00BFB0
S31508004270BC78000814ED00E010B502F0C1FF0A4B47
S315080042801A786AB901226FF004041A7002F0B3FFB3
S31508004290204605210134FFF7C5FF4C2CF8D110BD87
S315080042A0BDE8104002F0A7BF4D15002010B5044622
S315080042B002F09DFF024B1C6002F094FF002010BD27
S315080042C02413002010B502F092FF034B1C6802F07D
S315080042D089FF204610BD00BF241300202DE9F043B6
S315080042E01D4613688FB01F6891F83130814688469D
S315080042F0144606AE1BB3DFF828C2BCE80F000FC68B
S315080043009CE80F0086E80F0018220021684602F094
S315080043100EFCA3680893237B012B13D0022B14D021
S315080043201BB1D921774802F034F90023ADF82630BD
S31508004330637B032B1FD8DFE803F00B25221BDFF86E
S31508004340E4C1DAE74FF40073F0E74FF44073EDE7A2
S315080043500023ADF8283001238DF80630A37BCDF86D
S3150800436034D0042B11D8DFE803F014151515140002
S315080043704FF44053EDE7EB21624802F00AF94FF497
S315080043808053E6E74FF40053E3E7FE215D4802F069
S3150800439000F900238DF800305B4AD8F838302946F2
S315080043A01A605A4A48465A6000229A60584ADA60A1
S315080043B0424600F073FC0646002840F09B802369BD
S315080043C05448C5F8A430237E85F8AB30E37D85F8DC
S315080043D0AA30A37D85F8A930637D85F8A830A37E29
S315080043E085F8AD30637E85F8AC30237F85F8AF302D
S315080043F0E37E85F8AE302368C5F8A03002F011FFD9
S3150800440001230422A17D607DFEF738FF0123217E6A
S315080044100222E07DFEF732FF85F8B060206902F0DF
S3150800442000FF98F83130384606A9002B66D0FEF70B
S3150800443061FD95F8B03043F0040385F8B0301421D7
S31508004440227D354B03EB4210C0F8941494F816C03D
S31508004450617D253241EA0C41C0F8AC14207EE17D2D
S3150800446003EB421341EA00415960A37B03F0FD03C5
S31508004470012B0BD195F8B030022243F0010385F8E1
S31508004480B030A17E0023607EFEF7F8FEA37B023BD8
S31508004490012B0BD895F8B030042243F0020385F8B7
S315080044A0B030217F0023E07EFEF7E8FE95F8B030B5
S315080044B0DB0717D5A17E627E237D42EA014241F2DF
S315080044C09C415B0103F1A04303F570335A5041F256
S315080044D0944202219950217FE27E03F5A55342EAD0
S315080044E001421A600D4A07F5005305213846DA6479
S315080044F0FEF7BEFA30460FB0BDE8F083FEF728FD9A
S315080045009DE700BF36790008F96700088B68000840
S315080045100F680008A478000800C00350FF3F0D0389
S31508004520A0790008C079000840F24221014802F04B
S3150800453030B800BF3679000810B50020144602F0DE
S3150800454003F9022804D018B1C321024802F021F861
S31508004550204610BDE0790008034B022218680023A4
S315080045608068194601F0C4BABC1500203021037DC5
S3150800457002464B4303F1A04303F58023D86E07494F
S315080045801B6F884208D113F0020006D0106A136D1B
S315080045901B1A584258417047002070474E15002094
S315080045A0302337B5007D0DF10701434303F1A043DE
S315080045B003F58023DD6E1C6F02F07CFD20B140F20E
S315080045C0F931084801F0E5FF9DF8070040B9064BA8
S315080045D09D4203D184F00204C4F3400003B030BD09
S315080045E00120FBE74F7A00084E15002037B5044630
S315080045F00DF10701007D02F05DFD20B140F2444156
S31508004600114801F0C6FF9DF80730A3B1256DD4E91E
S31508004610122313449D4201D8AA4204D940F24F41BD
S31508004620094801F0B6FFD4E9120303449D4218BFB6
S31508004630284603B030BD3022237D534303F1A043FF
S3150800464003F58023DD6EE2E74F7A00082DE9F7438C
S31508004650D0E9043404F17C07D0F80C90013B0646F7
S315080046601022002138469DB2D4F8748002F05FFA11
S31508004670104BC5F30A0543EA0513C4E91F3901239C
S3150800468094F8780084F88C30C4F884803A460A4B4B
S31508004690009604F16401FCF7C9FA38B140F28D318D
S315080046A0064803B0BDE8F04301F073BF03B0BDE8A8
S315080046B0F08300BF00001030354800084F7A000824
S315080046C02DE9F04300F13806044685B01022002192
S315080046D0304602F02CFA4FF44473534D207DC4E95A
S315080046E00F556387FCF7C8FA20B140F2CA514F4804
S315080046F001F04FFF10220021304602F018FA4FF45D
S31508004700447363873023207DC4E90F55434303F17F
S31508004710A04303F58023DB6EAB420BD1FCF7CCFA42
S31508004720002876D040F2D351404805B0BDE8F043A2
S3150800473001F02FBF0DF10B0102F0BCFC20B140F2D5
S31508004740D9513A4801F025FF9DF80B30002B63D16B
S315080047502046FFF74BFF03A90746207D02F0CCFC55
S3150800476020B140F2E151314801F013FF039B002BC1
S3150800477004DC40F2E3512D4801F00BFF039B04F1E2
S315080047801808013B1022002140469DB2D4F810902B
S3150800479002F0CDF93022237DC5F30A0553432D01D6
S315080047A045F04075C4E9065903F1A043276203F5AD
S315080047B080231A6F94F82410520862F3410184F892
S315080047C02410196F94F8242028F0030861F30002D6
S315080047D084F824201B6F626A9B0863F39F0248F0E3
S315080047E0020362626364009432462146104B207DC0
S315080047F0FCF71CFA20B140F204610C4801F0C9FE2E
S31508004800207DFCF759FA20B14FF4C161074801F041
S31508004810C0FE05B0BDE8F08394F844306FF3410359
S3150800482084F84430DFE700BF4E1500204F7A0008B1
S31508004830DB68000838B55569144695F88C3023B9F5
S3150800484040F26A310A4801F0A4FE002305F19000FF
S3150800485085F88C30FBF758FE08B1FFF7F7FE63685A
S315080048601BB100212046A2689847002038BD00BF2A
S315080048704F7A000838B50446007DFCF7FDF920B1EB
S3150800488040F22D41084801F084FE2046FFF76EFEEF
S315080048900546207DFCF710FA20B140F23241024865
S315080048A001F077FE284638BD4F7A00082DE9F04F0B
S315080048B09946002304468DB008910692C9F800303F
S315080048C0D9F80060069B9D1B00F0C580089B9E19C1
S315080048D000F0C1802046FFF7CDFF8046002840F053
S315080048E0BA802046FFF782FE226D904240F2BC80D5
S315080048F0801A854228BF054694F896A0BAF1000F9B
S3150800490000F0F28002F07CFC236D079020460993A4
S31508004910FFF746FE2F46099B834658198342D4F86B
S31508004920981040F0BC80D4E9122313448B4208BF88
S31508004930C4F89820D4F898108A4201D88B4204D833
S3150800494040F242518A4801F024FE079802F053FCCF
S31508004950DA46207DFCF790F920B140F2824184487E
S3150800496001F017FE207D0DF12F0102F0A3FB20B107
S3150800497040F286417E4801F00CFE2046FFF736FEDF
S31508004980236D834698429DF82F3040F2BC8023B1B0
S3150800499040F28E41764801F0FCFDA26C236DAEB262
S315080049A0934240F0A880099304F12808236910224D
S315080049B000214046079302F0BAF83021079B013ED2
S315080049C0E362099BC6F30A062363237D36014B433C
S315080049D028F0030803F1A04346F0407648F00202A7
S315080049E003F58023A6621A67236DD4E912122B44B5
S315080049F00A44934208BF0B469342236504D340F208
S31508004A00DE415B4801F0C5FD236D9B4505D10123B9
S31508004A10204684F85430FFF753FE207DFCF74CF906
S31508004A2020B140F2F741524801F0B3FD94F89630B0
S31508004A303BB1BAF1000F04D0236E112120465B6802
S31508004A409847D9F8003037B1069A3B449342C9F8DB
S31508004A500030FFF435AFD9F80030002B14BF002022
S31508004A601B200DB0BDE8F08FD4E912310B449A42F1
S31508004A7004D340F26A413E4801F08BFDD4E9123274
S31508004A801344226D9B1A9D4228BF1D46002D7FF4B4
S31508004A9033AF40F21651364801F07BFD2CE701335F
S31508004AA05A1E914210D1C4F8983013F8012C112AD5
S31508004AB001D0132A14D1013FA2F111014A424A41F9
S31508004AC0D04684F89C2029E713F8012C02F0FD0152
S31508004AD0112906D1013FB8F1000F3FF41FAFEBE7EC
S31508004AE0D04606F8012B19E72A463046216D02F012
S31508004AF029F82F462DE7238DC3F30A12164466F3C9
S31508004B000E13238570E7207D93B93023584300F1AF
S31508004B10A04000F58020426E436EC2F30A1223F4C9
S31508004B20FF432A4423F0700343EA021343665BE714
S31508004B30104B049403930023CDE9015301230093FA
S31508004B405A462369216801F04DFD20B140F2CB4158
S31508004B50074801F01EFD3022237D534303F1A0438D
S31508004B6003F580235A6E22F480125A663CE700BF8A
S31508004B704F7A0008DB6800082DE9F84F90F8943062
S31508004B8004460D46002B40F0858090F89580DFF8A6
S31508004B9008918E18B54223D094F896306BB120460A
S31508004BA0FFF768FEF8B1D4F89820236D9A4204D02E
S31508004BB040F2CD21484601F0ECFC94F89C30002BDD
S31508004BC0E8D0236E2F462A785B68B8F1000F59D1D2
S31508004BD0236E20465B683978013598470028D9D076
S31508004BE00020BDE8F88F02F00BFB0746207DFCF796
S31508004BF043F820B140F2D321274801F0CAFC2046E9
S31508004C00FFF7F4FCA26C00F1FF3A924538BFE36C5B
S31508004C10207D3CBF03F1FF3302EB030A94F854B03E
S31508004C20FCF74AF820B140F2DF211B4801F0B1FC3D
S31508004C30D4F89810BBF1000F22D0236D8B4204D014
S31508004C404FF43971144801F0A4FC384602F0D3FA3F
S31508004C50B3E7A26C9A4202D9E36C013B134499422A
S31508004C600BD013F80129112A01D0132AF1D1A2F188
S31508004C7011035A425A4184F89C20C4F898A0E4E7E4
S31508004C805346ECE70A2AA3D10D2120469847002867
S31508004C909ED0A5E70E20A4E74F7A0008F0B50C468B
S31508004CA015460646A022002189B0204601F03FFF9E
S31508004CB02746AC46BCE80F000FC7DCF8003005F104
S31508004CC0140C3B6004F16407BCE80F000FC7DCF85E
S31508004CD00030EA6A3B60AB6AC4E9132395F83020D2
S31508004CE0A36484F8952095F83320C4F898300123F6
S31508004CF084F8962084F89C3084F85430AB6B23668D
S31508004D00324B34607360324BB360324BF360324BD4
S31508004D107361324BB361324B3361FBF753FF10B10A
S31508004D20304B98420FD1002107A8FBF7D3FE014666
S31508004D3048B9079B07A82375FBF7CCFE0346207DD9
S31508004D4023B1FBF719FF102009B0F0BD079B84F8C3
S31508004D507830FBF791FF0028F5D1234B0494CDE971
S31508004D600203E36C0193012300932369A26C216873
S31508004D70207D01F037FC0028E5D13022237D4FF451
S31508004D808011534342F2640203F1A04303F58023E2
S31508004D909950AB6B93F91000FFF736FAAB6B93F9A2
S31508004DA01000FFF7FFF904F1900001F0F3FB30461D
S31508004DB0FFF77CFA2046FFF783FC207DFBF77CFF94
S31508004DC0003818BF01200001BEE700BF794B000874
S31508004DD04B690008AD480008CF680008D568000888
S31508004DE0ED4D0008038000F0DB68000870B5056823
S31508004DF0044695F89460002E3BD101F0C9FDFFF7F3
S31508004E0061FA844202D13046FFF750FA2B6E93F9C5
S31508004E101000FFF7F9F92B6E93F91000FFF7A4F9C4
S31508004E20287D02F027F920B140F29721144801F0B5
S31508004E30B0FB287DFBF7A0FE20B140F29B2110486D
S31508004E4001F0A7FBFBF776FE38B10E4B984204D06B
S31508004E5040F29F210A4801F09CFB0023C4E9003375
S31508004E60C4E90533E3602B6E2846BDE87040DB686D
S31508004E70184740F26621024801F08BFB0F2070BDEF
S31508004E804F7A0008058000F00346054A0549106870
S31508004E9003448B428CBF4FF0FF301360704700BF4E
S31508004EA0841500200000042007B501A8FEF752FF6C
S31508004EB09DF80530012B14D19DF804308BB94FF4B9
S31508004EC08012124B1249586E03F580535A664B6B83
S31508004ED023F0E05343F040634B63C3025CBF0D4BC2
S31508004EE05A6601F063FDFFF7C7F9FFF715F901F0F8
S31508004EF029FCFFF727F901F05AFD01F067FD01F0DB
S31508004F008BFD03B05DF804EB01F052BD0080005044
S31508004F100040005A00A0005010B5044602F038F8C8
S31508004F204FF47A729042B0FBF2F105D23621BDE811
S31508004F3010400C4801F02DBB0B4BB3FBF1F30B49AA
S31508004F40884201D93C21F2E702FB04F0B0FBF3F0FA
S31508004F50022806D9BDE810400323B0FBF3F0FBF79F
S31508004F6007B910BDB47A000840420F00E7CD9A3B56
S31508004F7008B501F0A9FA01F0A8FA044B0449186823
S31508004F8001F02DFCBDE8084000F07AB83810002082
S31508004F90107B00080822014BDA6070470040005970
S31508004FA0064B1B681A7A022A04D812B11B68044AEF
S31508004FB013607047032AF9D0704700BF8815002090
S31508004FC02813002070B5214DA2B00BAC0FCD0FC42D
S31508004FD095E80F0084E80F0000244FF47023CDE90C
S31508004FE002440494019313AD01AE0FCE0FC5184BBE
S31508004FF0CDE9074409942B60164B18AD069306AE07
S315080050000FCE0FC52022144B14482B60144B13A93E
S315080050101D93144B2094CDE91E23134B0BAA219301
S31508005020124BFFF75BF9044618B1AE21104801F0A0
S31508005030B0FA9DF87F304FF4E130002B0CBF032106
S31508005040002101F098FA204622B070BDAC7B00081A
S315080050503C00015B01000F004400015BE0130020E7
S315080050604F150020000101009C1500202C1300207C
S31508005070347B00080148FFF757BA00BFE013002049
S3150800508070B5544DA6B008AC0FCD0FC40FCD0FC4E4
S3150800509095E8030000264FF4403384E80300012412
S315080050A04F2231460DF149000393CDE9056607966F
S315080050B0ADF810608DF8126001F039FD21462A20FE
S315080050C08DF848408DF84D408DF852408DF8574080
S315080050D08DF85C408DF861408DF866408DF86B4020
S315080050E08DF870408DF875408DF87A408DF87F40C0
S315080050F08DF884408DF889408DF88E408DF8934060
S31508005100FCF7BCF921463A20FCF7B8F902214FF41E
S31508005110B060FCF7B5FE02232F4D324628462F49CC
S315080051208DF81730FEF7A2F940F2BA4332468DF8E9
S3150800513019000B9300903346284629498DF82460B8
S315080051408DF821608DF82340FEF7C2F903238DF808
S315080051500E3049F201039122ADF8483040F20113AE
S315080051608DF84E2041F20102ADF84C30ADF85630BC
S3150800517011230A90ADF85220284608AA05A98DF8E9
S3150800518058308DF80D408DF851408DF85B40FEF78C
S31508005190F7F903A9284612AAFEF7C8F8114B3120D9
S315080051A0D3F824232243C3F82423D3F8242342F430
S315080051B08032C3F824234FF4807305F5005205F5B1
S315080051C080555362AB62FFF71FF83120FEF7EAFFFE
S315080051D026B070BDCC7B000800400059002D310177
S315080051E08096980000C0035081F0004102E000BF9D
S315080051F083F0004330B54FEA41044FEA430594EA89
S31508005200050F08BF90EA020F1FBF54EA000C55EAC3
S31508005210020C7FEA645C7FEA655C00F0E2804FEA94
S315080052205454D4EB5555B8BF6D420CDD2C4480EA76
S31508005230020281EA030382EA000083EA010180EAA6
S31508005240020281EA0303362D88BF30BD11F0004FF4
S315080052504FEA01314FF4801C4CEA113102D040422A
S3150800526061EB410113F0004F4FEA03334CEA133365
S3150800527002D0524263EB430394EA050F00F0A7807D
S31508005280A4F10104D5F1200E0DDB02FA0EFC22FA78
S3150800529005F2801841F1000103FA0EF2801843FA6C
S315080052A005F359410EE0A5F120050EF1200E012A5D
S315080052B003FA0EFC28BF4CF0020C43FA05F3C0189B
S315080052C051EBE37101F0004507D54FF0000EDCF114
S315080052D0000C7EEB00006EEB0101B1F5801F1BD3BD
S315080052E0B1F5001F0CD349085FEA30004FEA3C0CC1
S315080052F004F101044FEA445212F5800F80F09A80B7
S31508005300BCF1004F08BF5FEA500C50F1000041EBBA
S31508005310045141EA050130BD5FEA4C0C404141EBBE
S315080053200101013C28BFB1F5801FE9D291F0000FB9
S3150800533004BF01460020B1FA81F308BF2033A3F168
S315080053400B03B3F120020CDA0C3208DD02F1140C5F
S31508005350C2F10C0201FA0CF021FA02F10CE002F19A
S315080053601402D8BFC2F1200C01FA02F120FA0CFC93
S31508005370DCBF41EA0C019040E41AA2BF01EB0451DC
S31508005380294330BD6FEA04041F3C1CDA0C340EDCDA
S3150800539004F11404C4F1200220FA04F001FA02F31D
S315080053A040EA030021FA04F345EA030130BDC4F1DB
S315080053B00C04C4F1200220FA02F001FA04F340EAD0
S315080053C00300294630BD21FA04F0294630BD94F081
S315080053D0000F83F4801306BF81F480110134013D68
S315080053E04EE77FEA645C18BF7FEA655C29D094EAD9
S315080053F0050F08BF90EA020F05D054EA000C04BF57
S315080054001946104630BD91EA030F1EBF0021002041
S3150800541030BD5FEA545C05D14000494128BF41F0E0
S31508005420004130BD14F580043CBF01F5801130BD44
S3150800543001F0004545F0FE4141F470014FF00000CF
S3150800544030BD7FEA645C1ABF194610467FEA655C80
S315080054501CBF0B46024650EA013406BF52EA033522
S3150800546091EA030F41F4002130BD00BF90F0000F10
S3150800547004BF0021704730B54FF4806404F132044C
S315080054804FF000054FF0000150E700BF90F0000F05
S3150800549004BF0021704730B54FF4806404F132042C
S315080054A010F0004548BF40424FF000013EE700BFFC
S315080054B042004FEAE2014FEA31014FEA02701FBF8C
S315080054C012F07F4393F07F4F81F06051704732F0BE
S315080054D07F4208BF704793F07F4F04BF41F4002115
S315080054E0704730B54FF4607401F0004521F0004173
