S01D0000656D7074795F6578616D706C655F636F64655F4144432E7333373C
S3150800000000100020710500083F4E00083F4E00080A
S315080000103F4E00083F4E00083F4E00083F4E00087E
S315080000203F4E00083F4E00083F4E00083F4E00086E
S315080000303F4E00083F4E00083F4E00083F4E00085E
S315080000403F4E00083F4E00083F4E00083F4E00084E
S315080000503F4E00083F4E00083F4E00083F4E00083E
S315080000603F4E00083F4E00083F4E0008790300083F
S31508000070714D00083F4E00083F4E00083F4E0008ED
S315080000803F4E00083F4E00083F4E00083F4E00080E
S315080000903F4E0008690D00083F4E00083F4E000815
S315080000A03F4E0008A9090008890900083F4E0008C4
S315080000B03F4E00083F4E00083F4E00083F4E0008DE
S315080000C03F4E00083F4E00083F4E00083F4E0008CE
S315080000D03F4E00083F4E00083F4E00083F4E0008BE
S315080000E03F4E00083F4E00083F4E00083F4E0008AE
S315080000F03F4E00083F4E00083F4E00083F4E00089E
S315080001003F4E00083F4E00083F4E00083F4E00088D
S315080001103F4E00083F4E00083F4E00083F4E00087D
S315080001203F4E00083F4E00083F4E00083F4E00086D
S315080001303F4E00083F4E00083F4E00083F4E00085D
S315080001403F4E00083F4E00083F4E00083F4E00084D
S315080001503F4E00083F4E00083F4E00083F4E00083D
S315080001603F4E00083F4E00083F4E00083F4E00082D
S31508000170013800D0FCE770470348044B834202D09D
S31508000180034B03B118477047FC150020FC150020E7
S3150800019000000000064B0749C91A891048BF0131FB
S315080001A0491003D0044B0BB101481847704700BFEC
S315080001B0FC150020FC1500200000000010B5064CB8
S315080001C0237843B9FFF7D8FF044B13B10448AFF3BC
S315080001D000800123237010BD2415002000000000B4
S315080001E04063000808B5054B1BB105490548AFF340
S315080001F00080BDE80840FFF7CDBF00BF0000000043
S315080002000010002040630008A3F5803A704700BF3D
S31508000210174B002B08BF134B9D46FFF7F5FF002130
S315080002208B460F461348144A121A05F07AF80E4BF5
S31508000230002B00D098470D4B002B00D09847002084
S31508000240002104000D000D48002802D00C48AFF329
S31508000250008004F06DF92000290004F052FD03F037
S31508000260ADFF00BF0000080000000000000000000D
S315080002700010002000100020541500200000000087
S315080002800000000008B504F075FD04F074FD034B8A
S3150800029003491868BDE8084004F0D4BEEC100020F5
S315080002A0185B0008064B1B681A7A022A04D812B192
S315080002B01B68044A13607047032AF9D0704700BFC9
S315080002C0541500201810002070B5A2B0204D0BACB4
S315080002D00FCD0FC495E80F0084E80F0000244FF4F3
S315080002E07023CDE902440494019313AD01AE0FCEF9
S315080002F00FC5184B06AE2B60174B18ADCDE9074452
S31508000300099406930FCE0FC52022144B14482B6070
S31508000310144B13A91D93144B2094CDE91E23134B9C
S315080003200BAA2193124B03F0FFF8044618B1AE212D
S31508000330104804F092FD9DF87F304FF4E130002B11
S315080003400CBF0321002104F06CFD204622B070BDCD
S31508000350705B00083C00015B01000F004400015B74
S31508000360D010002025150020000101006815002086
S315080003701C1000203C5B0008014803F0FBB900BFD5
S31508000380D010002008B50122074B1A700022074B2F
S315080003901A700422064B1A701F22064B1A7003F0B5
S315080003A0B7F8054B186008BDF21500204515002062
S315080003B0F1150020F0150020EC10002008B50448BF
S315080003C005F029FB04F0A7FCBDE8084000F008B8D2
S315080003D0A0600008014805F01EBB00BFA060000829
S315080003E02DE9F04F97B0544E09AC35460FCD0FC4E2
S315080003F02B6806F1140523600EAC0FCD0FC495E8E3
S315080004000F00DFF84C8184E80F004C4805F003FB29
S31508000410404605F000FB4FF48073494FADF83C3079
S31508000420484B38460B9309A90EAB0D9302F0DAFA3E
S315080004300421B6F834B00DEB01000122ADF804B082
S3150800044000F008FAB6F836A00022012102A8ADF895
S3150800045008A000F0FFF9B6F838900122042103A895
S31508000460ADF80C9000F0F6F9758F0122042104A866
S31508000470354CADF8105000F0EDF9344B4FF4487098
S31508000480C4F8C8344FF00213C4F8C434A3F5803353
S31508000490C4F8CC341C23C4F8B43403F063FE08A8AB
S315080004A0ADF8205000F042FA142003F05BFE08A8CD
S315080004B0ADF8205000F00EFA232003F053FE08A8EA
S315080004C0ADF8205000F032FAB921384604F041FD63
S315080004D008A8ADF8205000F0FDF9002205A811463D
S315080004E0ADF814B000F0B6F9002206A81146ADF82A
S315080004F018A000F0AFF90122002107A8ADF81C905A
S3150800050000F0A8F90122002108A8ADF8205000F053
S31508000510A1F9384601F070FF00234046C4F8B43408
S31508000520C4F8C834C4F8C434C4F8CC3405F076FA30
S3150800053017B0BDE8F08F00BF905B0008A060000808
S3150800054000000A50E070720000C003500200030069
S31508000550A46000080348044A0449121A921004F0D9
S315080005606FBC00BF70010008700100085415002018
S3150800057008B5154B83F30A8800F030F8FFF7EAFF51
S31508000580124B13498B4212D30020124B12498B424D
S3150800059018D3FFF73DFE186850F82240586840F80F
S315080005A02240013298688242F5D30C33EAE70022EA
S315080005B0F8E71C6844F8220001325C68A242F8D3C6
S315080005C00833E4E70022F8E7000000204863000843
S315080005D054630008546300085463000870B54FF468
S315080005E08041124B124A134D9A60D3F8882005F5BC
S315080005F0005442F47002C3F888200F4A91664FF0FF
S31508000600FF3222660D4A62660222C3F8D020BFF383
S315080006104F8FBFF36F8F4FF44036002002F01AFF5A
S315080006200020E66002F0E4FE2E6170BD00ED00E0F9
S31508000630000000080080004400900050F7FF3700D3
S31508000640014B1860704700BF80150020054B1860E5
S31508000650054B1B6F03F00703032B01D105F092B876
S31508000660704700BF881500200080005038B5044642
S315080006700D4601B118B94521044804F0EEFB23687C
S3150800068013B92B60256038BD1C46F8E7CC5B00081B
S3150800069010B5044618B95621044804F0DEFB206854
S315080006A018B1036823600023036010BDCC5B000803
S315080006B007B500232948019305F0ADF94FF44073B7
S315080006C0012204216846ADF8003000F0C3F8012283
S315080006D0234B0520C3F8442401A905F097F90028FF
S315080006E039D1204BD3F8F02042F00102C3F8F020AC
S315080006F0D3F8FC2042F08072C3F8FC201A4AA3F50E
S315080007005D431A60019B194A03F5D52303F2FC439E
S31508000710B3FBF2F3164A013B13610223C2F8F03029
S315080007204FF48073C2F804334FF06043114AC3F89C
S31508000730B02F114AC3F8802ED3F8002E42F48072E7
S31508000740C3F8002EFF2283F82020D3F8002E22F4C7
S315080007508072C3F8002E03B05DF804FBA0600008A1
S3150800076000D0035000ED00E0FF030040F8590D00EB
S31508000770000004E055CEACC50900010030B54FF0C5
S315080007806043D3F8802ED20715D501240B4D84403B
S31508000790D5F8FC2042F08072C5F8FC20D3F8002E6C
S315080007A02243C3F8002E53F82020002AF0D003F87D
S315080007B02010002030BD1120FCE700BF00ED00E04E
S315080007C02DE9F0410C2504464FF00108124E0CB3F2
S315080007D014F001000BD0002024F0010405FB006290
S315080007E05768002FF3D09168C0B2B847EFE72246A2
S315080007F0013020284FEA520201D0D307F8D508FA6B
S3150800080000F20F2824EA0204E8D9103805FB006232
S31508000810B432E5E7BDE8F081F010002008B50C48D1
S3150800082005F0F9F8192002F0FDFD28B1192002F0AB
S3150800083011FE192002F0DCFD1A2002F0F3FD28B1A2
S315080008401A2002F007FE1A2002F0D2FD002008BD89
S31508000850A06000082DE9F0410E469046044638B9D6
S3150800086093211A4804F0F9FA22252846BDE8F081B2
S315080008700F290CD8037883B1012B03D0022B0CD097
S31508000880032B04D13F236278D340DB0708D4972192
S315080008900E4804F0E2FA2125E7E740F2FF33F2E7D3
S315080008A00B4BD3F810532DB19B21084804F0D5FA09
S315080008B00225DAE705F0A4F80746424620463146FF
S315080008C002F0B4FB384605F096F8CEE71F5C000840
S315080008D000C0035038B5044628B91348E42104F08B
S315080008E0BCFA222038BD037883B1012B03D0022B32
S315080008F00CD0032B04D13F236278D340DB0708D4FE
S315080009000948E82104F0A9FA2120EBE740F2FF3371
S31508000910F2E705F075F80546204605F009F8284679
S3150800092005F069F80020DDE71F5C000838B50446C5
S3150800093028B91448FC2104F090FA222038BD03781F
S315080009408BB1012B03D0022B0DD0032B04D13F23EF
S315080009506278D340DB0709D40A484FF4807104F063
S315080009607CFA2120EAE740F2FF33F1E705F048F880
S315080009700546204602F026FB284605F03CF80020EE
S31508000980DCE700BF1F5C000808B502F045FB054B15
S3150800099000F0553020F05020C3F82004BDE8084088
S315080009A0FFF70EBF00E0035008B502F035FB054B14
S315080009B000F0AA3020F0A020C3F82004BDE80840C3
S315080009C0FFF7FEBE00E003502DE9F04F85B09A46CA
S315080009D0554B06461B780F461546DDF83C909DF8A4
S315080009E044B0DDF85080002B00F09780072A00F20B
S315080009F096800E9B002B00F09280B9F1000F00F054
S31508000A008E80129BB3F5006F00F38980012803D10D
S31508000A10109B002B00F08380444B03EB05131B7BD4
S31508000A20002B7ED0424C10220021684604F079FC47
S31508000A3004EB45141022A7BB3946204604F071FC86
S31508000A4043F210036380BBF1000F03D1E37843F050
S31508000A500303E370364A0E9B02EB451CCCE901936F
S31508000A60129B6901581E9DF84C30C0F30A0003F02A
S31508000A7003039B0643EA001E53582E48012E00EA3C
S31508000A8003004EEA0003CDF800A0535017D0B8F182
S31508000A90000F2ED19CF8023068F304138CF802304C
S31508000AA027E00021204604F03CFC4FF444736380A1
S31508000AB0BBF1000FCED1E37843F03003C9E7132327
S31508000AC00CF1100ECCF80C309CE80F008EE80F00E5
S31508000AD06FF00301DCF81C20109B61F39F02012FC5
S31508000AE0CCF81C20CCF8143003D1CCF81890CCF8EC
S31508000AF0043000270D4A290102EB051342F801804C
S31508000B00159A28465A60694622469F605E7302F027
S31508000B106BF9384605B0BDE8F08F0748FAE707488D
S31508000B20F8E70748F6E700BF4615002058130020E7
S31508000B30581200200F80FFF3028000F0018000F0B9
S31508000B40078000F038B5124B05461B78DBB1E0B1DB
S31508000B5004F056FF0F4A00231146147B54B92B6044
S31508000B6001251A0101EB03131D738C5004F043FF92
S31508000B70204638BD0133082B02F11002EDD104F0EE
S31508000B803AFF0548F5E70548F3E70548F1E700BFEA
S31508000B904615002058130020048000F0028000F05B
S31508000BA0018000F038B504F02BFF002305460B4AF8
S31508000BB0147B6CB90133082B02F11002F8D102F04C
S31508000BC095F8074B28461C7004F015FF204603E0ED
S31508000BD0284604F010FF034838BD00BF581300200C
S31508000BE046150020058000F010B50D4B04461B780D
S31508000BF093B1072812D804F003FF0A4B03EB04133A
S31508000C001A7B2AB100241C7304F0F5FE204610BD99
S31508000C1004F0F1FE0448FAE70448F8E70448F6E762
S31508000C204615002058130020068000F0028000F0C8
S31508000C30018000F013B5154B1868002301908DF854
S31508000C40043004F0DDFE124B1C7824B104F0D3FE08
S31508000C50104802B010BD01221A7004F0CCFE0E4BEB
S31508000C6001A81C731C7783F82C4083F83C4083F852
S31508000C704C4083F85C4083F86C4083F87C4008233A
S31508000C808DF8073002F068F82046E2E7765C00083F
S31508000C9046150020038000F058130020F8B50D4DC6
S31508000CA02D7885B1072810DC0B4D060105EB0014DD
S31508000CB0277B67B1AB510025069BA560636002F0F0
S31508000CC093F82846F8BD0548FCE70548FAE70548BD
S31508000CD0F8E700BF4615002058130020028000F0F0
S31508000CE0018000F0078000F008B50A4A12785AB168
S31508000CF007280BD8084A02EB00131B7B43B10021D7
S31508000D0002F00AF8002008BD0448FCE70448FAE7A0
S31508000D100448F8E74615002058130020028000F022
S31508000D20018000F0078000F008B50A4A12785AB127
S31508000D3007280BD8084A02EB00131B7B43B1012195
S31508000D4001F0EAFF002008BD0448FCE70448FAE77A
S31508000D500448F8E74615002058130020028000F0E2
S31508000D60018000F0078000F02DE9F041174B1F6D58
S31508000D705B6D1F4000D5FEE701260025144CDFF801
S31508000D805880374218D02368C8F85060A3B1A168C4
S31508000D90284601316268A1609847637B012B0BD115
S31508000DA050B90C4B03EB45131A7B60F341021A73D7
S31508000DB01A7F60F341021A770135082D4FEA460675
S31508000DC004F11004DDD1BDE8F08100BF0000045035
S31508000DD0581300205812002000200450044BD3F862
S31508000DE08420D206FBD4D3F88400C0F38110704760
S31508000DF00040005038B5104B0546D3F800310C4674
S31508000E0003F00303022B0BD0032B0DD0012B0FD1BC
S31508000E1004F0D2FC032305B1286004B1236038BD71
S31508000E2004F01CFD0923F6E704F0CCFC0823F2E7DE
S31508000E3001230020EFE700BF0080005038B5104BB3
S31508000E400546D3F840310C4603F00303022B0BD0BA
S31508000E50032B0DD0012B0FD104F0BEFD0A2305B1DB
S31508000E60286004B1236038BD04F0F8FC0923F6E7CE
S31508000E7004F0B5FD0C23F2E701230020EFE700BFDD
S31508000E800080005038B5104B0546D3F860310C4643
S31508000E9003F00303022B0BD0032B0DD0012B0FD12C
S31508000EA004F09AFD0A2305B1286004B1236038BD11
S31508000EB004F0D4FC0923F6E704F091FD0C23F2E7CD
S31508000EC001230020EFE700BF0080005038B5104B23
S31508000ED00546D3F840320C4603F00303022B0BD029
S31508000EE0032B0DD0012B0FD104F076FD0A2305B193
S31508000EF0286004B1236038BD04F0B0FC0923F6E786
S31508000F0004F06DFD0C23F2E701230020EFE700BF94
S31508000F100080005038B5124B0546D3F880300C4691
S31508000F2003F00303022B0BD0032B0DD0012B0FD19B
S31508000F3004F008FC0E2305B1286004B1236038BD0F
S31508000F4004F044FC0723F6E704F0F6FB0623F2E771
S31508000F50044841F2142103F080FF00231846EAE70B
S31508000F60008000507A5C000838B51A4B0546D3F85D
S31508000F7020010C4600F00700062821D8DFE800F01B
S31508000F8028040C1410181C0004F0D6FB052305B120
S31508000F90286004B1236038BD04F00EFC0323F6E78D
S31508000FA004F014FC0723F2E704F002FC0223EEE740
S31508000FB004F0C2FB0623EAE704F0FEFB0423E6E797
S31508000FC0054841F2912103F048FF00231846DEE761
S31508000FD00123DCE7008000507A5C000838B5194B1D
S31508000FE00546D3F828310C4603F00703013B052BC9
S31508000FF020D8DFE803F003131B0F0B1704F09CFB44
S31508001000052305B1286004B1236038BD04F094FBBC
S315080010100623F6E704F0DAFB0723F2E704F0CCFB35
S315080010200323EEE704F0C8FB0423EAE704F0C0FB59
S315080010300223E6E7044841F2990103F00EFF002374
S315080010401846DEE7008000507A5C000837B50023B2
S315080010500193194B0546D3F820320C4603F00703D3
S31508001060042B1FD8DFE803F025030F14190000210D
S3150800107001A8FFF7B3FF12230DB1019A2A6004B144
S31508001080236003B030BD04F0A1FB07230190F3E70A
S3150800109004F0A2FC0A230190EEE704F0DFFB092323
S315080010A00190E9E741F25601044803F0D6FE002311
S315080010B0E2E70123E0E700BF008000507A5C000801
S315080010C0F7B50027144B0197D3F88041064604F07C
S315080010D00304022C0D4614D0032C0DD0012C14D178
S315080010E0394601A8FFF740FF10240EB1019B336073
S315080010F005B12C6003B0F0BD04F068FB072401902D
S31508001100F3E704F055FB0190EFE741F2E6310348B7
S3150800111003F0A3FE3C46E8E7008000507A5C00082E
S3150800112038B5164B0546D3F800020C4600F0070002
S31508001130042819D8DFE800F020030B0F130004F089
S315080011404BFC0A2305B1286004B1236038BD04F0BE
S3150800115085FB0923F6E704F042FC0C23F2E704F0CA
S3150800116011FB0F23800AEDE7054841F2A44103F07D
S3150800117074FE00231846E5E70123E3E700800050E4
S315080011807A5C000838B5164B0546D3F808020C46B3
S3150800119000F00700042819D8DFE800F020030B0F39
S315080011A0130004F019FC0A2305B1286004B1236072
S315080011B038BD04F053FB0923F6E704F010FC0C23B2
S315080011C0F2E704F0DFFA0F23800AEDE7054841F25B
S315080011D0DC4103F042FE00231846E5E70123E3E776
S315080011E0008000507A5C000837B500230193184B3D
S315080011F00546D3F860320C4603F00703013B032B80
S315080012001FD8DFE803F0020E1914002101A8FFF722
S31508001210ABFE10230DB1019A2A6004B1236003B016
S3150800122030BD002101A8FFF709FE1123F2E704F0FB
S31508001230CDFA07230190EDE704F0BAFA02230190EC
S31508001240E8E741F2FD01034803F007FE0023E1E762
S31508001250008000507A5C000837B500230193184BCC
S315080012600546D3F894320C4603F00703013B032BDB
S315080012701FD8DFE803F0020E1914002101A8FFF7B2
S3150800128073FE10230DB1019A2A6004B1236003B0DE
S3150800129030BD002101A8FFF7D1FD1123F2E704F0C4
S315080012A095FA07230190EDE704F082FA02230190EC
S315080012B0E8E741F23011034803F0CFFD0023E1E7E8
S315080012C0008000507A5C000873B500240F4B019427
S315080012D0D3F87032064603F00303012B0D4607D0F8
S315080012E0022B11D041F25B11094803F0B6FD04E068
S315080012F0214601A8FFF7A2FD11240EB1019B336018
S3150800130005B12C6002B070BD1524F6E700800050C8
S315080013107A5C000808B5334B98424FD027D8324B31
S31508001320984245D017D8314B98423ED00AD838B1A2
S315080013302F4B984239D041F2BB312E4803F08DFD30
S31508001340002034E02C4B98422FD02C4B9842F2D1F7
S315080013502B4B586E2BE02B4B98422CD003F53713AA
S3150800136003F5D8639842E6D1254B986F1FE0264BC4
S3150800137098422FD00CD8254B984223D0244B98421C
S3150800138024D0244B9842D6D11D4BD3F884000EE0C6
S31508001390214B984222D003F5740303F51053984263
S315080013A0C9D1174BD3F8980001E0154B986D08BDC5
S315080013B0134B186FFBE7124B586FF8E7104BD3F82F
S315080013C08000F4E70E4BD3F88800F0E70C4BD3F80F
S315080013D08C00ECE70A4BD3F89000E8E7084BD3F803
S315080013E09400E4E780BA8C01405DC60080841E0044
S315080013F040420F007A5C000800093D00C0CF6A0031
S315080014000080E00F0024F400007E560380D54302D6
S31508001410006CDC020048E8010090D00310B5B0F576
S31508001420207F2ED009D8B0F5007F24D003D868B124
S31508001430B0F5C07F0AD000241BE0B0F5607FFAD172
S31508001440124BD3F88040C4F3011412E00F4B1C6F03
S31508001450230B13F00E0FC4F303340AD0072C08D05D
S315080014600F2C06D0032C04D04FF42271084803F041
S31508001470F4FC601C10BD054BD3F89040C4F304641B
S31508001480F7E7024B1C6FC4F38024F2E70080005094
S315080014907A5C000838B54FF48032104B04469A66D9
S315080014A000200D46FFF7BAFF41F671320C4B604338
S315080014B0DC69DA635A6804F4803422F440125DB9B0
S315080014C00849884294BF00200120000502435A605B
S315080014D00CB10022DA6338BD0349F2E700900050E8
S315080014E000000350005A6202002D310138B5430945
S315080014F004460D460ED140F235310D4803F0ADFCD9
S31508001500002304F01F0485B103F580530122A2408D
S315080015101A6038BD012B04D0022B04D040F24331A7
S31508001520EBE7044BEDE7044BEBE703F50053EDE778
S315080015307A5C0008648000506880005030B585B039
S315080015400021B0F5807F0446CDE9001100F0D38074
S315080015503DD85E2833D85E2833D8DFE800F0483215
S31508001560323232323232323232323232323232324D
S31508001570323232323232323232323232323248ADAC
S3150800158048ADBDBDBDBDBDADC7516EDD51ADADAD3F
S315080015903232323232323232ADADAD81E7AD32322D
S315080015A03232323232323232323232BD484848E290
S315080015B05151EC9066C23232323232984800802855
S315080015C06AD040F2A441604803F047FC67E0B0F5F2
S315080015D0D06F00F0A18035D8B0F5607F77D01AD8E3
S315080015E0B0F5007F5ED005D8B0F5C07FE9D104F02C
S315080015F0C9F853E0B0F5207F5ED0B0F5407FE0D162
S3150800160004F0C0F804464FF42070FFF707FFB4FB58
S31508001610F0F4640859E0B0F5B06F67D00AD8B0F5B1
S31508001620806F59D0B0F5A06FCBD100216846FFF77F
S315080016300DFD34E0B0F5C06FC3D100216846FFF751
S31508001640FDFB2CE0B0F5106F6BD00ED8B0F5086F27
S3150800165076D0B6D8B0F5E06F68D0B0F5F06FB0D1F7
S3150800166000216846FFF70EFC19E0B0F5406F38D048
S315080016700AD8B0F5206F5ED0B0F5286FA1D1002149
S315080016806846FFF721FE0AE0B0F5486F99D10021B8
S315080016906846FFF7E1FD02E004F054F80090009870
S315080016A005B030BD04F04EF805462046FFF7B6FEF5
S315080016B0B5FBF0F50095F2E704F064F804464FF43C
S315080016C02070FFF7ABFEB4FBF0F40094E7E701A83F
S315080016D0FFF720FC019DE8E700216846FFF744FC78
S315080016E0DDE700216846FFF779FCD8E70021684660
S315080016F0FFF7E6FCD3E74FF0E02302911B695B078F
S3150800170005D504F03FF80290029B0093C7E703A9AA
S3150800171002A8FFF793FBF7E700216846FFF700FDED
S31508001720BDE700216846FFF72DFDB8E700216846AA
S31508001730FFF7CCFBB3E700216846FFF755FDAEE798
S315080017406846FFF757FBAAE77A5C000808B58020C9
S31508001750FFF7F4FE034B98429EBF4FF48032024BCC
S315080017601A6708BD005A620200A000501FB503465A
S315080017700020B3F5807F019000F0C58063D85D2B0B
S3150800178054D84C2B06D82D2B46D8232B2AD840F2D2
S315080017908951A7E04D3B102BF9D801A252F823F046
S315080017A0FD1800088F1700088F1700088F17000804
S315080017B0A71800088F1700088F1700085719000880
S315080017C0C51800086B1800084D1900088F1700087F
S315080017D08F1700088F1700088F1700088F17000843
S315080017E061190008243B092BD1D801A252F823F02D
S315080017F0FD180008FD180008FD180008FD18000867
S31508001800FD1800088F170008ED1800088F17000844
S3150800181087180008331900083D2B00F085803E2BF9
S31508001820B5D1002001A9FFF751FB63E0802BAED1AB
S315080018304E4B1B6F03F00703013B032B50D8DFE821
S3150800184003F04D46494BB3F5F06F6DD020D8B3F58C
S31508001850B06F4BD00ED8B3F5607F73D097D3B3F57E
S31508001860806F4BD0B3F5A06F91D1002001A9FFF787
S31508001870EDFB3FE0B3F5D06F5BD0B3F5E06FD0D0AA
S31508001880B3F5C06F83D1002001A9FFF7D7FA31E07D
S31508001890B3F5206F5FD00BD8B3F5086F4ED0B3F50C
S315080018A0106F7FF474AF002001A9FFF76BFC21E0ED
S315080018B0B3F5406F4AD0B3F5486F51D0B3F5286FEA
S315080018C07FF465AF002001A9FFF7FEFC12E00523AF
S315080018D001930FE00323FBE70823F9E70223F7E761
S315080018E040F2D641224803F0B8FA03E0002001A9E5
S315080018F0FFF7E6FB019805B05DF804FB002001A997
S31508001900FFF732FBF6E74FF0E02302901B695B070F
S3150800191005D503F037FF0D230393039BD8E703A9E7
S3150800192002A8FFF78BFAF8E7002001A9FFF7AAFA41
S31508001930E0E7002001A9FFF7F3FBDBE701A9FFF7C2
S3150800194059FAD7E701A9FFF7E5FAD3E7002001A975
S31508001950FFF744FBCEE7002001A9FFF745FCC9E7DE
S31508001960002001A9FFF778FCC4E700BF00800050FB
S315080019707A5C00084FF48032074B0849586E03F525
S3150800198080535A664B6A23F001034B62C3035CBF5C
S31508001990034B5A66704700BF0080005000C00750CE
S315080019A000A0005038B5036804460F2B04D940F64A
S315080019B08A317C4803F051FA63680F2B04D940F644
S315080019C08D31784803F049FAA3680F2B04D94FF4F0
S315080019D03961744803F041FA237B0F2B04D940F68A
S315080019E09331704803F039FA637B0F2B04D940F61C
S315080019F096316C4803F031FAA37B3F2B04D940F6A5
S31508001A009931684803F029FAE37B3F2B04D940F65D
S31508001A109C31644803F021FA2369032B04D940F664
S31508001A209F31604803F019FA6369032B04D940F61D
S31508001A30A2315C4803F011FAE369032B04D940F696
S31508001A40A531584803F009FA8020FFF78FFE0328CE
S31508001A5000F083804FF48012534B4FF0A0615A6612
S31508001A6045F60E02514BC3F88020514A91624FF455
S31508001A70803102F5805291629A6DD203FCD4996D39
S31508001A8011F08041FBD1D4E90002120542EA006256
S31508001A90E07B0243207B42EA0042607B42EA003256
S31508001AA0A07B42EA80121A619869D4E904521206A8
S31508001AB042EA856200F000400243A07EE57E0243CA
S31508001AC0207E42EA0042607E42EA00229A611A6A51
S31508001AD0E06922F00F0242EA8502364D00283DD120
S31508001AE01A6294F82420996A94F82000D2002940B2
S31508001AF042EA40120A4394F8211042EA011242F4DB
S31508001B0080329A622C49294A936D31EA0303FBD144
S31508001B104FF08071264881621369A56823F4700323
S31508001B2043EA055313614FF00043836194F822306A
S31508001B300BB9224B996294F823303BB94FF48032A3
S31508001B401E4B9A62194A936D5B00FCD494F82530B3
S31508001B501BB1164B1A4AC3F8802038BD024342F01F
S31508001B60080202281A6208D119614FF408529961CD
S31508001B7014484FF47F4103F0A5F90C4994F8223034
S31508001B808A6A94F820001B062A4043EA4013134346
S31508001B9094F8242043EAC20394F8232043EA024334
S31508001BA08B62D3E77A5C0008009000500040005A28
S31508001BB00050005AC7FFFEFE030001000060005AED
S31508001BC0F1A7FFFF3440005A014B93F90000704714
S31508001BD0F315002010B543680446072B04D940F6D0
S31508001BE0E6512A4803F039F9A368032B04D940F6CD
S31508001BF0E851264803F031F92378032B04D940F637
S31508001C00EA51224803F029F994F90130002B04DA45
S31508001C1040F6EC511D4803F020F94FF400011C4A28
S31508001C20637851664FF4D151022002F5B8325162F9
S31508001C3018494F2B48604FF0010028BF4F2301F584
S31508001C40805148601169C903FCD4217843EA01230D
S31508001C505361D4E901131B0143EA0123617B0B435A
S31508001C60217B43EA41039360E37BA17B1B0143EAA3
S31508001C704113617C0B43217C43EA41035360A37CF7
S31508001C8013B16FF4D153536210BD00BF7A5C0008DC
S31508001C900090005000100250014B1880704700BF9A
S31508001CA0EE150020014B1880704700BFEC15002088
S31508001CB008B54FF48002184B5A660223174A536038
S31508001CC0936813F48033FBD1012822D103F074FD05
S31508001CD0134B984215D003F5122303F5F86398427F
S31508001CE013D0104B00EB8002400AB3FBF0F3520A04
S31508001CF00A49CA620B6301234B620022074B5A60EA
S31508001D0008BD45F67A13084AF2E745F61A03074A64
S31508001D10EEE75362F1E700BF009000500040025022
S31508001D2000F0490264666666D8B80500BBCF0500B0
S31508001D3038B5B0F5207F77D00ED8B0F5007F61D0E2
S31508001D4003D890B3B0F5C07F2FD04FF44671BDE8E5
S31508001D5038403D4803F081B8B0F5607FF5D13B4A7D
S31508001D604C1ED2F8FC5015F080751EBFD2F8FC3018
S31508001D7023F08073C2F8FC30032C04D940F2F72113
S31508001D80314803F06AF8324AD2F8803023F030033B
S31508001D9043EA0413C2F8803035B12C4AD2F8FC3035
S31508001DA043F08073C2F8FC3038BD4C1E012C0AD9AA
S31508001DB0102903D8274BCB40DB0704D440F2CB21AC
S31508001DC0214803F04AF803F08CF803F098F84FF42A
S31508001DD08031214B1E4A1967136F23F4704343EA77
S31508001DE00433136703F0CEFC0446FEF7F7FFC0F191
S31508001DF00201204603F07DF800F048F8BDE83840B7
S31508001E00FFF7A4BC4C1E1F2C04D94FF443710E488F
S31508001E1003F023F80E4AD2F8903023F0F85343EA39
S31508001E200463C2F89030BFE74C1E012C04D940F277
S31508001E301231054803F011F8054A136F23F480633D
S31508001E4043EA84231367AFE77A5C000800ED00E0F5
S31508001E5000800050100101000090005008B50121D3
S31508001E60022000F099F94FF42070FFF7D7FA054BD6
S31508001E70187003F036F803F042F84FF48032024B3C
S31508001E801A6708BD471500200090005008B54FF4A2
S31508001E90C070FFF753FBBDE808400449884294BF69
S31508001EA0012102214FF42070FFF742BF80F0FA02A9
S31508001EB038B5044603F066FC0546FEF78FFFC0F109
S31508001EC00201284603F015F80121002000F0B8F9B0
S31508001ED02CB1FFF7DBFFBDE83840FFF737BC034BF3
S31508001EE04FF420701978FFF723FFF4E74715002011
S31508001EF02DE9F0410546FFF70DFA431E0333044664
S31508001F0004D940F6E2113B4802F0A7FF4FF4C0227D
S31508001F10394B5A6603F598335A68012A04D137496A
S31508001F204A605A689207FCD48020FFF71FFC0528F0
S31508001F3007D102F0D6FF02F0E2FF4FF480322E4BB3
S31508001F401A672F4B24F040749D4239D02D4B9D4281
S31508001F5039D003F0F1FB8542064603D9012128460C
S31508001F6000F06EF9284FFB6813F0060FFBD1D7F87F
S31508001F700880BC60BB68634013F4F81F26D1284666
S31508001F80FEF75EFB8020FFF7F1FB052814D103F06E
S31508001F90F9FBA842044604D940F63B21154802F04D
S31508001FA05CFFFEF71BFFC0F10201204602F0A1FF0D
S31508001FB0FFF76CFFFFF7CAFBAE4213D2BDE8F0810C
S31508001FC044F00074C5E744F08074C2E740F62A215D
S31508001FD0084802F042FF8020C7F80880FFF7C6FBD2
S31508001FE0052805D0BDE8F0410121002000F028B9F8
S31508001FF03546CCE77A5C00080090005000E00150B6
S3150800200040420F0080841E000000015070B54E4B00
S315080020100546984273D041D8A3F5B703A3F558638C
S31508002020984265D033D8494B494E984251D017D873
S31508002030002877D041F2DE11464802F00EFF40F63E
S315080020408671444802F009FF4FF40022404B5A6655
S315080020503E4B9D4276D000243F4A954236D05DE0FD
S315080020603D4B984227D03D4B9842E3D13C4BD3F8A1
S31508002070A040621E033224F040744CD940F68671A3
S31508002080344802F0EAFE4FF400237366E4E7354B62
S315080020909842CFD1324BD3F8BC402CE0324B984211
S315080020A031D0324B984232D0314B9842C2D12C4B68
S315080020B0D3F8C8401FE02A4BD3F8A040621E03326B
S315080020C024F04074DAD84FF40023736644F0807421
S315080020D024E0234BD3F8A040621E033224F0407458
S315080020E02AD84FF400237366234643F0007415E09C
S315080020F01B4BD3F8B840621E154E0332BBE7184B8C
S31508002100D3F8C040F7E7164BD3F8CC40F3E7144BA7
S31508002110D3F8D040EFE74FF4002373664FF0B4428C
S31508002120946070BD40F686710A4802F096FE4FF438
S3150800213000232C467366F1E740F68671054802F0DF
S315080021408CFECEE70023D0E7C0EA210140420F000B
S31508002150009000507A5C000880841E0000093D004B
S315080021600080E00F0024F4000048E801005A6202EB
S3150800217080BA8C01024A536B0342FCD1704700BFF8
S3150800218000400950034A0179D36E23F030030B430C
S31508002190D366704700400050F8B50446244BD3F880
S315080021A08420D006FBD4D3F88430C3F381139C4231
S315080021B03CD003F0C7FA012C05460BD11D4B9842BB
S315080021C004D940F29B711C4802F047FE01212846BB
S315080021D002F08FFE03F00BFC4FF00072174B074618
S315080021E05A66204602F090FE4FF48063104E621E37
S315080021F093403367736E9A0103D4D6F884309B06EE
S315080022000AD5384603F0EEFB022C0FD12846BDE866
S31508002210F840002102F06DBED6F884309906E9D55B
S3150800222040F2B371044802F018FEE3E7F8BD00BFB8
S3150800223000400050005A6202CA5C00080060005064
S3150800224010B50C4608B903F07DFA074B21461B78F2
S315080022503BB1064B984204D80120BDE81040FFF771
S315080022609BBF0220F9E700BF48150020005A62020A
S3150800227038B54FF00042244B244C5A664AF6CD3303
S31508002280656C014605F00105236428BB0120FFF7AC
S3150800229071FF6368DB0715D51D4B586008461D4B53
S315080022A0226BD2070CD4984208D1072415B1174BD4
S315080022B0194A1A6402F029FE204638BD0130EFE7B4
S315080022C09842F2D00024F1E70132236B13F0080399
S315080022D005D08A42F8D1E8E700220E49F5E78A4296
S315080022E0E3D020210A4A91620121A2F58052516069
S315080022F00649084A886A800603D49342D5D0013332
S31508002300F8E79342DDE700BF00900050004009500F
S315080023100060095040420F003254FFFF38B54FF0B5
S315080023200042164B01465A664AF6CD33144C154AF6
S31508002330656C236443780B205B0043F00103D36389
S31508002340FFF718FF63688A7823F4F87343EA0213E1
S315080023506360CA784B7943EA0223A3600A798B79CA
S3150800236043EA022323610878FFF782FFEB0744BF9D
S31508002370054B236402F0C9FD012038BD00900050CA
S3150800238000400950004000503254FFFF70B50F2836
S31508002390044605D940F67461124802F05EFD0F2422
S315080023A04FF00042104B11495D6E03F580535A6693
S315080023B04AF6CD334E6C80200B64FFF7DBFE0B6AC2
S315080023C023F00F0323430B62F30744BF084B0B6448
S315080023D0002DA2BF4FF00042064B5A6602F095FD4B
S315080023E070BD00BFCA5C000800800050004009505C
S315080023F03254FFFF00A0005010B502F08BFD0423F5
S3150800240000F5805100F500520B6113610B611361F1
S315080024100B6113610B611361202341F20201036111
S315080024200023C360836041614FF4A0218361836503
S3150800243041620549C36103628362C36243630365FC
S31508002440D164036310BD00BFFF3F0D0338B5174BBA
S31508002450044698420D4607D0154B984204D040F2E0
S315080024606911144802F0F9FC25B92046BDE8384040
S3150800247002F050BD012204F580535A6040F6FF7100
S31508002480204605F00F0202F041FDA263782102F012
S315080024903DFD05F001036A0748BF43F00203A26C3D
S315080024A002F003029A42FAD138BD00BF0000015B70
S315080024B000000A501A5D0008F8B505460C4616468F
S315080024C022B940F227216B4802F0C7FC6A4B9D42AD
S315080024D002D19CB956240DE0684B9D4247D040F284
S315080024E02A21644802F0B9FC44B940F279316148BE
S315080024F002F0B3FC2046FFF721F80446AB68D8077C
S3150800250045D5B44204D24FF40D715A4802F0A5FCE1
S31508002510B4FBF6F46F68013CFF2C07F0010704D9F9
S315080025204FF40F71534802F098FC24064FB3282144
S31508002530284602F0EBFCAB6C99071CD1AB6CDA07AA
S315080025401BD4AE6C16F0020619D140F2492149484F
S3150800255002F083FC284602F0DDFC2B69314623F0A5
S315080025607F4323432B61BDE8F840FFF76FBF002C7C
S31508002570C4D15724BEE70526ECE70926EAE706266E
S31508002580E8E72B6923F07F4323432B61F8BD6B688B
S31508002590012B04D04FF41771364802F05EFCAB6D80
S315080025A0DB07AB6848BF760003F0E003402B42D058
S315080025B009D893B1202B1AD040F29E21BDE8F840E5
S315080025C02C4802F04ABC602B42D0802BF4D106EB93
S315080025D04603A34247D801230DE0B6EB141F04D9DE
S315080025E04FF42171234802F038FC102303E0B6EBC0
S315080025F0D40F1AD8082373436401B4FBF3F4204FAD
S31508002600203CB7EBC40F4FEAC40604D240F2A92116
S31508002610184802F022FC28463E40012102F076FCCA
S315080026202E63BDE8F84002F071BC40F289211148DA
S3150800263002F013FCDEE70623B4FBF3F3B34201D33F
S315080026400623D8E740F28E210A4802F006FCF7E78F
S31508002650B6EB940F01D80423CDE740F29321054841
S3150800266002F0FBFBF7E74FF42671024802F0F5FB90
S31508002670B1E700BF1A5D00080000015B00000A50C0
S31508002680F8FF7F002DE9F0419846436804460E4658
S3150800269017461BB140F6FF7102F038FC2046FFF7DB
S315080026A0ABFEF189737B62690B43318A22F44C5283
S315080026B022F00F020B4313436361A26896F818C011
S315080026C0337B22F0804222F0E2024CEA03031343F2
S315080026D072691343B268A3601AB9A36843F000434A
S315080026E0A360F06904F58053002878D0857A017ACA
S315080026F06D04D4F808E045EA81556E490EEA0101F1
S315080027000D43818801F4C0410D43417845EA8105AE
S31508002710417B45EAC105817B45EA0115817845EA91
S315080027208125A560D4F80CE0D0E904152943624D4B
S315080027300EEA05052943857941EA8521C57941EAE5
S315080027404521E16001785D4D012914D1E16841F028
S315080027500401E160AC4200F0928059498C420CBFFA
S3150800276001214FF0FF31490101F1A04142F29445A0
S3150800277001F5703114E003297BD1E16841F00401C9
S31508002780E160AC4279D04E498C420CBF01214FF032
S31508002790FF3141F29445490101F1A04101F570313B
S315080027A04FF0020E41F805E0417A996219B1E168E5
S315080027B041F40061E160C17A59B1E16841F4004130
S315080027C0E1603E498C425CD1017B3E4D01F00F0130
S315080027D06967616AC07B21F00301014361622FB119
S315080027E097F82010002956D001211962B8F1000F78
S315080027F02DD0BCF1000F02D04FF4004199652F4946
S31508002800B8F822508C4298F8211051D02C488442AE
S3150800281013D10120112934BF4FF0010C4FF0020CDF
S31508002820294FB5F5006F07F800C094BF4FF0010CAB
S315080028304FF0020C254F07F800C0A06D294320F47D
S31508002840F95020F01E000143A16501219965012177
S3150800285059601AB120467168FFF72EFE2046317876
S31508002860FFF7F4FDA36CDB4313F4405FFAD1BDE830
S31508002870F0810239012984D96CE7002189E7002112
S3150800288071E70F498C4201BF017B0E4D01F00F0124
S31508002890C5F880109DE7E06997F8221097F821504F
S315080028A020F009002943014341F00101D9619DE760
S315080028B00020AFE7E39BBDFFFFF9F0870000015B4F
S315080028C000000A50009003504B15002049150020BF
S315080028D070B5134B054698420C4606D0114B9842E4
S315080028E003D07021104802F0B8FA1CB972210E48BC
S315080028F002F0B3FA237B802B03D176210A4802F033
S31508002900ACFA637B032B03D97921074802F0A5FAB1
S31508002910002321462846BDE870401A46FFF7B2BE96
S315080029200000015B00000A501A5D000870B52B4BC9
S31508002930054698420C4643D119B98C21284802F01D
S315080029408CFA5620FEF712FF0C2807D0A0F10903CF
S31508002950012B03D9A0F11103012B3AD8637B032B72
S3150800296003D9AD211E4802F078FA237B802B03D0C9
S31508002970AF211B4802F071FA6369B3F1804F03D0A7
S31508002980B121174802F069FA238A23F400539BB24F
S31508002990B3F5805F03D0B321114802F05EFAA3684D
S315080029A0013BB3F5165F03D3B5210D4802F055FA7E
S315080029B0002321462846BDE870401A46FFF762BE46
S315080029C08A21074802F049FA1CB98C21044802F00A
S315080029D044FA9E21024802F040FABFE70000015B74
S315080029E01A5D0008F8B5774B044698420E4606D09D
S315080029F0754B984203D0E221744802F02EFA1EB9AC
S31508002A00E421724802F029FA727BB3687AB1704AF7
S31508002A10934203D9E6216D4802F01FFA3369C3B120
S31508002A20DB7BB3B1E921694802F017FA11E0694A7C
S31508002A30934203D9EC21654802F00FFA336943B192
S31508002A401A7F32B1B168644A5B7F914278D9042B08
S31508002A5078D86368356923B140F6FF71204602F0DD
S31508002A6055FA2046FFF7C8FC2269737BB17B22F032
S31508002A7087020B43134343F080032361002D63D081
S31508002A802369297F23F0F80343EAC1132978EA7BEF
S31508002A900B43297943EA4113697A43EA011343EA66
S31508002AA082132361E068D5E9053720F0F0403B43FF
S31508002AB020F470200343287B697B43EA802343EA9A
S31508002AC0C133E360A368F07B23F00303034343F0B9
S31508002AD00103A3606B88A06803F4C0430343A360A3
S31508002AE0A368687943EA8023A360AB79EF79606AC3
S31508002AF01B013F0203F0700307F4E06720F4772018
S31508002B0020F4EE603B430343287A000300F4E040D8
S31508002B100343687F000400F470200343636263691B
S31508002B20307B23F00F03034363616B89A36141BBC9
S31508002B30C2B1244B9C422ED0234B9C423CD011E080
S31508002B40042B86D8F3216EE7A368F27B23F00303F0
S31508002B50134343F00103A3606369327B23F00F0339
S31508002B60134363612046D6E90112FFF7A5FC204608
S31508002B703178FFF76BFCA36CDB4313F4405FFAD1A3
S31508002B80F8BD104B9C420CD1AB7B144903F00F03E4
S31508002B904B67002AE6D02B7C104A03F00F03136715
S31508002BA0E0E7094B9C42DDD1AB7B0C4903F00F03F0
S31508002BB0C1F88030002AD5D02B7C084A03F00F03D1
S31508002BC0D367CFE70000015B00000A501A5D0008D2
S31508002BD0002D3101809698003F4B4C000090035021
S31508002BE038B5032804460D4605D8094B33F8103086
S31508002BF0CB40DB0704D440F28541064802F02DF9A4
S31508002C00302301225C43044BAA401A5138BD00BF49
S31508002C10105E00086D5D000840D0035038B50328E3
S31508002C2004460D4605D8094B33F81030CB40DB0770
S31508002C3004D440F25641064802F00FF93023012227
S31508002C405C43044BAA401A5138BD00BF105E000809
S31508002C506D5D000840E003502DE9F0410328044665
S31508002C600D461746984605D81D4B33F81030CB400D
S31508002C70DB0704D44FF4B0711A4802F0EEF837B106
S31508002C8029462046B8F1000F20D0FFF7A9FF0F21EB
S31508002C90072D04EB440688BFA5F108034FEA06167C
S31508002CA0114895BFAB009B0004360C3607FA03F2B1
S31508002CB09940304402F057F97FB929462046B8F1C1
S31508002CC0000F06D0BDE8F041FFF78ABFFFF7A6FF61
S31508002CD0DDE7BDE8F041FFF7A1BFBDE8F08100BF21
S31508002CE0105E0008BE5D000830C0035010B5152000
S31508002CF000F060FB0024FF22064B21465C6520207D
S31508002D009A625C60FEF7F2FB2146BDE8104021207E
S31508002D10FEF7ECBB0000045038B5072804460D46FC
S31508002D2003DD7721084802F098F81F2C03D9912172
S31508002D30064802F092F8064A064B002D08BF1346CD
S31508002D400122A2401A6038BD185E0008695E0008B4
S31508002D50401004504020045010B5044618B991217B
S31508002D601F4802F07AF823781B0613F0604F03D049
S31508002D7092211B4802F071F8E3780F2B03D99521AD
S31508002D80174802F06AF801212020FEF7AFFB01215F
S31508002D902120FEF7ABFB0122124B15205A60227840
S31508002DA012069A606178A27842EA01429A61FF2285
S31508002DB09A6200229A631A644FF000425A654FF0ED
S31508002DC0FF3203F500531A6500F044FB1520E1783D
S31508002DD000F04EFBBDE81040152000F009BB00BF0F
S31508002DE0185E000800000450F8B50126C3B207288B
S31508002DF005460C46174606FA03F603DDDE21344877
S31508002E0002F02BF81CB9DF21314802F026F82368B6
S31508002E1023F47C1323F00F031BB1E2212C4802F0A4
S31508002E201CF8A37A1B0413F47C0F03D0E721284867
S31508002E3002F013F8E37A1B0513F07E6F03D0E9213D
S31508002E40234802F00AF8237B5B0513F0FE5F03D0E4
S31508002E50EB211F4802F001F81E4B27F003071E65F9
S31508002E60AB00226803F1A04303F588235A60302299
S31508002E7002FB05F0637B00F1A04000F580200366A5
S31508002E80E37AA27A1B0543EA0243227B43EA4253CA
S31508002E90C365076702F0B4FD0F4B227A5E6502B17F
S31508002EA01E64627A02B19E632279A37943EA0243D9
S31508002EB0084A93616179E37943EA014306498B61DC
S31508002EC0064B56639E64BDE8F84002F094BD00BF09
S31508002ED0185E00080020045000100450000004503A
S31508002EE010B50124C3B2072804FA03F404DD40F23E
S31508002EF07B11074801F0B1FF02F082FD054B5A6DC0
S31508002F0022EA04025A659C62BDE8104002F073BDCD
S31508002F10185E00080000045010B50124C3B2072843
S31508002F2004FA03F404DD40F299110A4801F095FF0A
S31508002F3002F066FD084BDA6A224208D15B6B9C43B5
S31508002F400CBF0124002402F056FD204610BD0024C3
S31508002F50F9E700BF185E00080000045070B50125A7
S31508002F60C3B20728044605FA03F504DD4FF4E071F9
S31508002F70094801F072FF02F043FD3022074B5E6BF1
S31508002F8002FB04335C6E02F036FD35420ABFC4F319
S31508002F900A100020013070BD185E000800000450B9
S31508002FA04FF48032064B5A6603F5E6239B69C3F352
S31508002FB08512827003F03F021B0B42700370704744
S31508002FC00090005010B5044620B940F23A21104846
S31508002FD001F043FF2378C3B1012B03D0022B14D091
S31508002FE0032B04D13F236278D340DB0704D440F295
S31508002FF03D21074801F031FF0122637821789A4084
S3150800300030235943034B5A5010BD40F2FF33EAE7C9
S31508003010B95E000840E00350034BD3F82424D3F8E4
S3150800302020041040704700BF00C003502DE9F0414E
S31508003030037804460D46164613B3012B03D0022B1C
S315080030401ED0032B04D13F236278D340DB0703D479
S315080030505D21274801F001FF264BD3F810331BB139
S315080030606021234801F0F9FE0F2D0CD8DFE805F0A2
S31508003070373232323232323232323232323232321D
S3150800308040F2FF33E0E7B421194801F0E6FE4FF0BD
S315080030900008204606B302F04BFC0F216778237818
S315080030A0072F03EB430388BF083F4FEA0313124871
S315080030B095BFBF00BF0004330C3308FA07F2B940C6
S315080030C0184401F05FFF85B9204656B1BDE8F041C6
S315080030D002F02EBCA846DCE7FFF774FFDDE7A8463A
S315080030E0DBE7BDE8F041FFF76DBFBDE8F08100BF43
S315080030F0135F000800C0035030C0035030B58BB0D2
S315080031008C4802F088FC20B14FF44E718A4801F0D1
S31508003110A4FE6C46894D0FCD0FC42B68884A2360E0
S31508003120FF238DF80130D2F84C3113F4802340F098
S31508003130F580D2F850218DF801309DF801306C46A3
S31508003140FF2B08BF2C2368467E4D8DF80130FEF70D
S3150800315041FD3220FEF7A0FD0FCD0FC40FCD0FC4E1
S3150800316095E8030084E80300754BD3F84C21120355
S3150800317040F1B880A3F5FE431C88B4F5807F28BFCC
S315080031805F248DF81940FEF71FFD044484F30804F4
S315080031906D488DF81840FDF759FA6846FEF702FCA7
S315080031A03220FEF77FFD6948FEF7A2FE6848FEF763
S315080031B02DFF684802F02FFC20B140F2CB115E4883
S315080031C001F04BFE644C0020FEF772FDFEF746FE4A
S315080031D0236F002023F0070343F003032367FEF75A
S315080031E067FE236F5D4923F4744323675C4BD3F86A
S315080031F0FC2012F0807279D1D4F8803023F00303D2
S3150800320043F00103C4F88030C1F88020524CD4F84A
S31508003210203123F0070343F00203C4F82031D4F821
S31508003220283123F0070343F00203C4F82831D4F801
S31508003230803123F0030343F00103C4F88031D4F846
S31508003240403123F0030343F00203C4F84031D4F8B5
S31508003250603123F0030343F00203C4F86031D4F865
S31508003260403223F0030343F00203C4F84032D4F893
S31508003270003223F0070343F00203C4F80032D4F8FF
S31508003280083223F0070343F00203C4F80832D4F8DF
S31508003290703223F0030343F00103C4F87032D4F804
S315080032A0203223F0070343F00103C4F82032FEF767
S315080032B061FB4FF0E0220020136943F00403136119
S315080032C0D4F8603223F0070343F00103C4F86032F0
S315080032D0D4F8943223F0070343F00103C4F8943278
S315080032E00BB030BDD3F85041E4B24AE7D3F8FC201E
S315080032F022F08072C3F8FC20D4F8802022F0030262
S3150800330042F00102C4F880200022C1F88020D3F8D8
S31508003310FC2042F08072C3F8FC2077E74FF07E630A
S3150800332093F89C2093F99C30002BFFF606AF8DF896
S31508003330012002E798600008DE5F00085460000874
S315080033400080E00F68600008C017530200B4C40488
S31508003350C0EA21019C6000080080005000900050DF
S3150800336000ED00E007B5094B18689A889B7900902C
S315080033706846ADF804208DF80630FEF7CFFF092021
S31508003380FFF704F8002003B05DF804FB906000081E
S3150800339013B50024064A6846536F43F00103536782
S315080033A000948DF80440FEF7EDFE204602B010BDED
S315080033B00040005010B54C2804460DD801220A4991
S315080033C0630904F01F04A240203341F82320BFF309
S315080033D04F8FBFF36F8F10BD40F22511034801F0E0
S315080033E03CFD002CF7DBE9E700E100E0B8600008E7
S315080033F010B54C28044608D801236109074A04F089
S315080034001F04A34042F8213010BD4FF498710448B8
S3150800341001F023FD002CF7DBEEE700BF00E100E03A
S31508003420B860000810B54B28044604D940F23B1191
S31508003430064801F012FD064B621153F8220004F00B
S315080034401F04E040C04300F0010010BDB86000084A
S3150800345000E100E0002808DB01224309034900F0E7
S315080034601F008240603341F82320704700E100E0E6
S3150800347038B500F110035C2B04460D4604D94FF409
S31508003480EF710E4801F0E9FC0F2D04D940F2DF1167
S315080034900A4801F0E2FC60B20028ACBF00F16040C7
S315080034A0074B4FEA0515EDB2ABBF00F5614000F0DA
S315080034B00F0080F800531D5438BD00BFB8600008DF
S315080034C014ED00E010B502F09BFA0A4B1A786AB9B7
S315080034D001226FF004041A7002F08DFA20460521C5
S315080034E00134FFF7C5FF4C2CF8D110BDBDE81040DC
S315080034F002F081BA4D15002010B5044602F077FA9D
S31508003500024B1C6002F06EFA002010BDD813002092
S3150800351010B502F06CFA034B1C6802F063FA2046F9
S3150800352010BD00BFD81300202DE9F0438FB01D460B
S31508003530136881461F6891F831308846144606AEEE
S315080035401BB3DFF828C2BCE80F000FC69CE80F00C3
S3150800355086E80F0018220021684601F0E2FEA368FB
S315080035600893237B012B13D0022B14D01BB1D9212E
S31508003570774801F072FC0023ADF82630637B032BF5
S315080035801FD8DFE803F00B25221BDFF8E4C1DAE7D2
S315080035904FF40073F0E74FF44073EDE70023ADF8FE
S315080035A0283001238DF80630A37BCDF834D0042BC0
S315080035B011D8DFE803F01415151514004FF440531D
S315080035C0EDE7EB21624801F048FC4FF48053E6E74B
S315080035D04FF40053E3E7FE215D4801F03EFC00236B
S315080035E08DF800305B4AD8F8383029461A605A4AAE
S315080035F048465A6000229A60584ADA60424600F005
S3150800360073FC0646002840F09B8023695448C5F899
S31508003610A430237E85F8AB30E37D85F8AA30A37DF8
S3150800362085F8A930637D85F8A830A37E85F8AD3086
S31508003630637E85F8AC30237F85F8AF30E37E85F866
S31508003640AE302368C5F8A03002F0E5F9012304225C
S31508003650A17D607DFFF700FB0123217E0222E07D2C
S31508003660FFF7FAFA85F8B060206902F0D4F998F8FD
S315080036703130384606A9002B66D0FFF729F995F8A8
S31508003680B03043F0040385F8B0301421227D354B61
S3150800369003EB4210C0F8941494F816C0617D2532E5
S315080036A041EA0C41C0F8AC14207EE17D03EB4213DD
S315080036B041EA00415960A37B03F0FD03012B0BD1BE
S315080036C095F8B030022243F0010385F8B030A17EA8
S315080036D00023607EFFF7C0FAA37B023B012B0BD8C1
S315080036E095F8B030042243F0020385F8B030217F04
S315080036F00023E07EFFF7B0FA95F8B030DB0717D560
S31508003700A17E627E237D42EA014241F29C415B0131
S3150800371003F1A04303F570335A5041F29442022153
S315080037209950217FE27E03F5A55342EA01421A60C9
S315080037300D4A07F5005305213846DA64FEF786FE7A
S3150800374030460FB0BDE8F083FFF7F0F89DE700BFFD
S31508003750326100085F500008F150000875500008F3
S31508003760A060000800C00350FF3F0D039C610008DD
S31508003770BC61000840F24221014801F06EBB00BF5F
S315080037803261000810B50020144601F010FC02282A
S3150800379004D018B1C321024801F05FFB204610BDD2
S315080037A0DC610008034B022218680023806819466A
S315080037B000F0BABD9C1500203021037D02464B431C
S315080037C003F1A04303F58023D86E07491B6F88428F
S315080037D008D113F0020006D0106A136D1B1A58425E
S315080037E058417047002070474E15002037B53023E2
S315080037F0007D0DF10701434303F1A04303F5802340
S31508003800DD6E1C6F02F050F820B140F2F93108481D
S3150800381001F023FB9DF8070040B9064B9D4203D1F2
S3150800382084F00204C4F3400003B030BD0120FBE776
S315080038304B6200084E15002037B504460DF1070106
S31508003840007D02F031F820B140F24441114801F000
S3150800385004FB9DF80730A3B1256DD4E91223134460
S315080038609D4201D8AA4204D940F24F41094801F0C5
S31508003870F4FAD4E9120303449D4218BF284603B05C
S3150800388030BD3022237D534303F1A04303F5802343
S31508003890DD6EE2E74B6200082DE9F743D0E9043410
S315080038A004F17C07D0F80C90013B06461022002153
S315080038B038469DB2D4F8748001F033FD104BC5F339
S315080038C00A0543EA0513C4E91F39012394F8780069
S315080038D084F88C30C4F884803A460A4B009604F182
S315080038E06401FDF7DBF938B140F28D31064803B0C3
S315080038F0BDE8F04301F0B1BA03B0BDE8F08300BFFC
S3150800390000001030813A00084B6200082DE9F043A8
S3150800391085B000F13806044610220021304601F031
S3150800392000FD4FF44473534D207DC4E90F5563875A
S31508003930FDF7DAF920B140F2CA514F4801F08DFA85
S3150800394010220021304601F0ECFC4FF444736387E3
S315080039503023207DC4E90F55434303F1A04303F503
S315080039608023DB6EAB420BD1FDF7DEF9002876D05B
S3150800397040F2D351404805B0BDE8F04301F06DBAB6
S315080039800DF10B0101F090FF20B140F2D9513A48F0
S3150800399001F063FA9DF80B30002B63D12046FFF740
S315080039A04BFF03A90746207D01F0A0FF20B140F296
S315080039B0E151314801F051FA039B002B04DC40F237
S315080039C0E3512D4801F049FA039B04F11808013B1D
S315080039D01022002140469DB2D4F8109001F0A1FCB7
S315080039E03022237DC5F30A0553432D0145F0407562
S315080039F0C4E9065903F1A043276203F580231A6F29
S31508003A0094F82410520862F3410184F82410196FBF
S31508003A1094F8242028F0030861F3000284F824208F
S31508003A201B6F626A9B0863F39F0248F00203626297
S31508003A306364009432462146104B207DFDF72EF92B
S31508003A4020B140F204610C4801F007FA207DFDF729
S31508003A506BF920B14FF4C161074801F0FEF905B0D2
S31508003A60BDE8F08394F844306FF3410384F844309A
S31508003A70DFE700BF4E1500204B62000841510008E1
S31508003A8038B55569144695F88C3023B940F26A3131
S31508003A900A4801F0E2F9002305F1900085F88C3018
S31508003AA0FCF7F6FD08B1FFF7F7FE63681BB10021C6
S31508003AB02046A2689847002038BD00BF4B62000820
S31508003AC038B50446007DFDF70FF920B140F22D41C7
S31508003AD0084801F0C2F92046FFF76EFE0546207D2C
S31508003AE0FDF722F920B140F23241024801F0B5F95A
S31508003AF0284638BD4B6200082DE9F04F8DB099462F
S31508003B000023044608910692C9F80030D9F80060E7
S31508003B10069B9D1B00F0C580089B9E1900F0C1807E
S31508003B202046FFF7CDFF8046002840F0BA802046A1
S31508003B30FFF782FE226D904240F2BC80801A8542D1
S31508003B4028BF054694F896A0BAF1000F00F0F28057
S31508003B5001F056FF236D079020460993FFF746FEAE
S31508003B602F46099B834658198342D4F8981040F08B
S31508003B70BC80D4E9122313448B4208BFC4F89820AA
S31508003B80D4F898108A4201D88B4204D840F24251A0
S31508003B908A4801F062F9079801F02DFFDA46207D80
S31508003BA0FDF7A2F820B140F28241844801F055F9A8
S31508003BB0207D0DF12F0101F077FE20B140F28641FC
S31508003BC07E4801F04AF92046FFF736FE236D834604
S31508003BD098429DF82F3040F2BC8023B140F28E41C6
S31508003BE0764801F03AF9A26C236DAEB2934240F0E2
S31508003BF0A880099304F12808236910220021404669
S31508003C00079301F08EFB3021079B013EE362099B77
S31508003C10C6F30A062363237D36014B4328F00308BF
S31508003C2003F1A04346F0407648F0020203F58023EC
S31508003C30A6621A67236DD4E912122B440A449342EA
S31508003C4008BF0B469342236504D340F2DE415B4826
S31508003C5001F003F9236D9B4505D10123204684F81D
S31508003C605430FFF753FE207DFDF75EF820B140F291
S31508003C70F741524801F0F1F894F896303BB1BAF1A1
S31508003C80000F04D0236E112120465B689847D9F8A7
S31508003C90003037B1069A3B449342C9F80030FFF426
S31508003CA035AFD9F80030002B14BF00201B200DB00B
S31508003CB0BDE8F08FD4E912310B449A4204D340F29E
S31508003CC06A413E4801F0C9F8D4E912321344226D1C
S31508003CD09B1A9D4228BF1D46002D7FF433AF40F244
S31508003CE01651364801F0B9F82CE701335A1E9142AD
S31508003CF010D1C4F8983013F8012C112A01D0132AD0
S31508003D0014D1013FA2F111014A424A41D04684F832
S31508003D109C2029E713F8012C02F0FD01112906D190
S31508003D20013FB8F1000F3FF41FAFEBE7D04606F8A6
S31508003D30012B19E72A463046216D01F0FDFA2F4678
S31508003D402DE7238DC3F30A12164466F30E13238553
S31508003D5070E7207D93B93023584300F1A04000F561
S31508003D608020426E436EC2F30A1223F4FF432A44AC
S31508003D7023F0700343EA021343665BE7104B04948F
S31508003D8003930023CDE90153012300935A4623697F
S31508003D90216801F07DF820B140F2CB41074801F0D7
S31508003DA05CF83022237D534303F1A04303F58023B7
S31508003DB05A6E22F480125A663CE700BF4B6200082E
S31508003DC0415100082DE9F84F90F8943004460D4605
S31508003DD0002B40F0858090F89580DFF808918E18C2
S31508003DE0B54223D094F896306BB12046FFF768FEAB
S31508003DF0F8B1D4F89820236D9A4204D040F2CD2128
S31508003E00484601F02AF894F89C30002BE8D0236E37
S31508003E102F462A785B68B8F1000F59D1236E2046E1
S31508003E205B683978013598470028D9D00020BDE865
S31508003E30F88F01F0E5FD0746207DFCF755FF20B118
S31508003E4040F2D321274801F008F82046FFF7F4FC92
S31508003E50A26C00F1FF3A924538BFE36C207D3CBF67
S31508003E6003F1FF3302EB030A94F854B0FCF75CFF46
S31508003E7020B140F2DF211B4800F0EFFFD4F898107C
S31508003E80BBF1000F22D0236D8B4204D04FF4397159
S31508003E90144800F0E2FF384601F0ADFDB3E7A26C26
S31508003EA09A4202D9E36C013B134499420BD013F8AA
S31508003EB00129112A01D0132AF1D1A2F111035A427C
S31508003EC05A4184F89C20C4F898A0E4E75346ECE7E6
S31508003ED00A2AA3D10D212046984700289ED0A5E797
S31508003EE00E20A4E74B620008F0B589B00C461546CB
S31508003EF00646A0220021204601F013FA2746AC46C2
S31508003F00BCE80F000FC7DCF8003005F1140C3B6065
S31508003F1004F16407BCE80F000FC7DCF80030EA6A52
S31508003F203B60AB6AC4E9132395F83020A36484F890
S31508003F30952095F83320C4F89830012384F8962004
S31508003F4084F89C3084F85430AB6B2366324B34606B
S31508003F507360324BB360324BF360324B7361324B52
S31508003F60B361324B3361FCF765FE10B1304B9842B2
S31508003F700FD1002107A8FCF7E5FD014648B9079BC4
S31508003F8007A82375FCF7DEFD0346207D23B1FCF761
S31508003F902BFE102009B0F0BD079B84F87830FCF79B
S31508003FA0A3FE0028F5D1234B0494CDE90203E36C64
S31508003FB00193012300932369A26C2168207D00F0F8
S31508003FC067FF0028E5D13022237D4FF48011534343
S31508003FD042F2640203F1A04303F580239950AB6BC8
S31508003FE093F91000FFF736FAAB6B93F91000FFF759
S31508003FF0FFF904F1900000F031FF3046FFF77CFA34
S315080040002046FFF783FC207DFCF78EFE003818BF9C
S3150800401001200001BEE700BFC53D0008B1510008F8
S31508004020F93A0008355100083B51000839400008A4
S31508004030038000F04151000870B50568044695F8FC
S315080040409460002E3BD101F0D6F8FFF761FA84425E
S3150800405002D13046FFF750FA2B6E93F91000FFF79E
S31508004060F9F92B6E93F91000FFF7A4F9287D01F0F2
S31508004070FBFB20B140F29721144800F0EEFE287DA4
S31508004080FCF7B2FD20B140F29B21104800F0E5FE96
S31508004090FCF788FD38B10E4B984204D040F29F21B8
S315080040A00A4800F0DAFE0023C4E90033C4E9053300
S315080040B0E3602B6E2846BDE87040DB68184740F27F
S315080040C06621024800F0C9FE0F2070BD4B62000849
S315080040D0058000F00346054A0549106803448B42EB
S315080040E08CBF4FF0FF301360704700BF8C1500205F
S315080040F00000042007B501A8FEF752FF9DF8053019
S31508004100012B14D19DF804308BB94FF48012124B51
S315080041101249586E03F580535A664B6B23F0E053E9
S3150800412043F040634B63C3025CBF0D4B5A6601F014
S3150800413070F8FFF7C7F9FFF715F900F036FFFFF734
S3150800414027F901F067F801F074F800F0F3FD03B001
S315080041505DF804EB01F05FB8008000500040005A9B
S3150800416000A0005010B5044601F00CFB4FF47A721B
S315080041709042B0FBF2F105D23621BDE810400C485A
S3150800418000F06BBE0B4BB3FBF1F30B49884201D928
S315080041903C21F2E702FB04F0B0FBF3F0022806D953
S315080041A0BDE810400323B0FBF3F0FBF7E1BF10BDF9
S315080041B0B062000840420F00E7CD9A3B08B5064BAF
S315080041C0044613B10021AFF30080044B1B6803B10A
S315080041D09847204600F096FF0000000014150020BE
S315080041E0002310B504468360818119464366C2815F
S315080041F008228361C0E90033C0E904335C3001F06A
S3150800420090F80D4B246263620C4BA3620C4BE3627D
S315080042100C4B23630C4B9C4206D003F16802944274
S3150800422002D0D0339C4205D104F15800BDE81040B5
S3150800423001F07FB810BD00BF9D520008BF520008AC
S31508004240F75200081B530008DC130020024A0349F2
S31508004250034801F005B800BF901500208F550008E7
S31508004260A015002041680C4B994210B5044601D0B0
S3150800427001F08DF9A168094B994202D0204601F058
S3150800428086F9E168064B994204D02046BDE81040FD
S3150800429001F07DB910BD00BFDC13002044140020D6
S315080042A0AC14002010B50B4B04210B4C0B4A2046CE
S315080042B01A600022FFF794FF04F168000122092121
S315080042C0FFF78EFF04F1D00002221221BDE810404C
S315080042D0FFF786BF14150020DC1300204D420008A6
S315080042E0014801F027B800BF50150020014801F029
S315080042F022B800BF5015002010B50446FFF7F0FF9E
S31508004300236A1BB1BDE81040FFF7F0BF044B2362D8
S31508004310044B1B68002BF5D1FFF7C4FFF2E700BF7B
S3150800432065420008141500202DE9F7431D46574B32
S3150800433004460E461F68904627B13B6A13B93846AD
S31508004340FFF7DAFFB8F1020F06D0B8F1010F00F255
S315080043509980002DC0F29680636ED90705D4A3898B
S315080043609A0502D4A06D00F0E5FF2146384601F013
S315080043700EF9616B41B104F14403994202D0384603
S3150800438000F0FAF8002363630023A3616360A3893E
S315080043901B0603D52169384600F0EEF8A389B8F163
S315080043A0020F23F44A6323F00303A38160D001AB11
S315080043B06A462146384601F012F9A3891843A081B6
S315080043C02DBB009D284600F021F90646002851D14C
S315080043D0DDF80090A9453FD14FF0FF35B4F90C3010
S315080043E043F00202A2810022A26004F14702226081
S315080043F0226101226261626ED60704D4980502D44E
S31508004400A06D00F098FF284603B0BDE8F083002EA3
S31508004410D8D03B6A13B93846FFF76EFFB8F1010FDB
S31508004420266002BFA38943F00103A381B4F90C30C7
S3150800443013F00802C4E904651ED0D90745BF002257
S315080044406D42A560A26048BFA561626ED20701D41D
S315080044509B0513D50025D6E7484600F0D7F806464B
S315080044600028B9D0A3894D4643F08003A381D0E73D
S315080044700025B3E7A946F5E7A260E6E7A06D00F0D8
S315080044805AFFE7E74FF0FF35BDE700BF9C15002050
S315080044900B46034902460868816800F065B900BF03
S315080044A09C15002038B50023054D044608462B60A8
S315080044B000F026FE431C02D12B6803B1236038BDE9
S315080044C01815002038B50446064D08461146002240
S315080044D02A601A4600F01EFE431C02D12B6803B15F
S315080044E0236038BD1815002038B50446064D084621
S315080044F0114600222A601A4600F00EFE431C02D11D
S315080045002B6803B1236038BD1815002038B504465A
S31508004510064D0846114600222A601A46FFF732F968
S31508004520431C02D12B6803B1236038BD181500203F
S3150800453070B50D4D00260D4C641BA410A64209D17A
S315080045400B4D00260B4C01F0DBFA641BA410A642A7
S3150800455005D170BD55F8043B01369847EEE755F886
S31508004560043B01369847F2E7F4150020F4150020BD
S31508004570F4150020F815002038B50546002941D065
S3150800458051F8043C0C1F002BB8BFE41800F0E0F803
S315080045901D4A136833B9636014602846BDE838407D
S315080045A000F0DCB8A34208D9206821188B4201BF65
S315080045B019685B6809182160EDE71A465B680BB154
S315080045C0A342FAD911685018A0420BD120680144B9
S315080045D0501811608342E0D118685B68084453603C
S315080045E01060DAE702D90C232B60D6E72068211879
S315080045F08B4202BF19685B680918636008BF2160AF
S315080046005460CAE738BD00BF20150020024B01469A
S31508004610186800F025B800BF9C15002070B50F4E2D
S315080046200C460546316811B900F05AFB3060214640
S31508004630284600F055FB431C03D14FF0FF342046B3
S3150800464070BDC41C24F00304A042F8D0211A2846E1
S3150800465000F046FB0130F2D1EFE700BF1C15002041
S315080046602DE9F041CD1C064625F0030508350C2D2D
S3150800467038BF0C25002D01DBA94204D90C23336071
S315080046800020BDE8F081314F00F062F83B681C4617
S3150800469044BB29463046FFF7C1FF431C044650D1A8
S315080046A03C682146002941D1002C44D02368304675
S315080046B004EB030800F014FB80453CD12168304622
S315080046C06D1A2946FFF7AAFF013034D023682B4418
S315080046D023603B68002B36D05A68A24229D10022B3
S315080046E05A600EE02268521B1DD40B2A16D961198E
S315080046F0A342256018BF5960636808BF39606251D4
S315080047004B60304600F02AF804F10B00231D20F018
S315080047100700C21AB5D01B1AA350B2E7A3426268B3
S31508004720DED13A60EDE723466468B1E70C4649688E
S31508004730B8E71346CEE70C233046336000F00EF890
S315080047409EE70560DDE75B60FFDE00BF2015002001
S31508004750014800F0EFBD00BF4F150020014800F0EA
S31508004760EABD00BF4F1500202DE9F04F0D469DB05C
S3150800477014469846064618B1036A0BB9FFF7BCFDFE
S315080047806B6ED90705D4AB899A0502D4A86D00F0DB
S31508004790D1FDAB891B0701D52B699BB92946304644
S315080047A000F026FA70B16B6EDC0704D54FF0FF30C7
S315080047B01DB0BDE8F08FAB899805F7D4A86D00F059
S315080047C0BAFDF3E70023CDF80C804FF00109DFF8B6
S315080047D0B481099320238DF8293030238DF82A30A7
S315080047E023469A4613F8012B0AB1252AF9D1BAEBC2
S315080047F0040B0BD05B4622462946304600F0C0FD26
S31508004800013000F0A780099A5A4409929AF80030B4
S31508004810002B00F09F8000234FF0FF320AF1010AB7
S31508004820049307938DF853301A93CDE9052354461C
S315080048300522544814F8011B00F070FF049AD8B9F1
S31508004840D10644BF20238DF85330130744BF2B23CA
S315080048508DF853309AF800302A2B15D0079A54460B
S3150800486000204FF00A0C214611F8013B303B092B7A
S315080048704BD9B0B1079214E0A0EB0803A24609FA97
S3150800488003F313430493D2E7039B191D1B68002BFC
S315080048900391BBBF5B4242F0020207930793B8BF7E
S315080048A0049223782E2B0AD163782A2B32D1039BC4
S315080048B002341A1D1B6843EAE37303920593DFF873
S315080048C0D4A003222178504600F028FF38B1A0EB87
S315080048D00A004022049B013482401343049314F8CF
S315080048E0011B062228488DF8281000F017FF00281B
S315080048F03FD0264B1BBB039B073323F00703083324
S315080049000393099B3B4409936AE70CFB02320C4666
S315080049100120A8E7002301344FF00A0C1946059335
S31508004920204610F8012B303A092A03D9002BC6D0A5
S315080049300591C4E70CFB012104460123F0E703AB0C
S315080049402A4604A930460093114BAFF30080074668
S31508004950781CD6D16B6ED90705D4AB899A0502D4D3
S31508004960A86D00F0E8FCAB895B063FF51FAF099818
S315080049701EE703AB2A4604A930460093044B00F011
S315080049800BF8E4E70C630008166300080000000053
S3150800499081530008126300082DE9FF470F7E9146F0
S315080049A080460C46782F9A460C9E01F1430207D89A
S315080049B0622F0AD8002F00F0DD80582F00F0C38040
S315080049C004F1420684F842703AE0A7F16303152B16
S315080049D0F6D801A151F823F0314A0008454A0008E3
S315080049E0C1490008C1490008C1490008C149000871
S315080049F0454A0008C1490008C1490008C1490008DC
S31508004A00C14900085B4B0008D34A0008134B00084D
S31508004A10C1490008C14900087D4B0008C149000882
S31508004A20D34A0008C1490008C14900081B4B0008C1
S31508004A3033681A1D1B68326004F1420684F8423056
S31508004A400123A8E031682368081D30601E0601D5D9
S31508004A500D6803E05D06FBD5B1F90050002D6168CD
S31508004A6078DA2D200029A16084F843002DDA6D42FA
S31508004A705D480A231646B5FBF3F103FB1157C75DDC
S31508004A8006F8017D2F460D46BB42F4D9082B0BD1FB
S31508004A902368DF0708D5236961689942DEBF30239A
S31508004AA006F8013C06F1FF36921B22614B4603AA23
S31508004AB021464046CDF800A000F074FC01306FD1C5
S31508004AC04FF0FF3004B0BDE8F08723F004032360FD
S31508004AD0CDE721683368080653F8045B02D4490613
S31508004AE048BFADB26F2F33603F4814BF0A2308236F
S31508004AF0002184F843106668002EA660BADB216898
S31508004B0021F004012160002DB4D1002EB2D1164641
S31508004B10BCE7236843F020032360782733482368DB
S31508004B2084F845701F06316851F8045B02D45F06A5
S31508004B3048BFADB23160D90744BF43F020032360B4
S31508004B401DB11023D4E72848E9E7236823F020039A
S31508004B502360F6E724480A23CDE733682568181D3D
S31508004B60616930602E061B6801D5196002E0680687
S31508004B70FBD5198000231646236197E73368002181
S31508004B801A1D32601E686268304600F0C7FD08B11B
S31508004B90801B606063682361002384F8433085E7DF
S31508004BA02369324649464046D047013088D02368B3
S31508004BB09B0714D4E068039B9842B8BF184681E760
S31508004BC00123324649464046D04701303FF478AF84
S31508004BD00135E36803995B1AAB42F1DCEAE7002585
S31508004BE004F11906F5E700BF1D6300082E630008E7
S31508004BF038B5294B05460C46186818B1036A0BB92F
S31508004C00FFF77AFBB4F90C30190722D4DA0607D471
S31508004C1009222A6043F040034FF0FF30A38133E0B6
S31508004C20580712D5616B41B104F14403994202D089
S31508004C302846FFF7A1FC00236363A38923F0240316
S31508004C40A3810023636023692360A38943F00803D3
S31508004C50A38123694BB9A38903F42073B3F5007FB5
S31508004C6003D02146284600F0DFFCB4F90C3013F0D7
S31508004C7001020AD00022A26062695242A261226938
S31508004C8042B913F08000C5D138BD990758BF62698B
S31508004C90A260F4E70020F7E79C15002038B500234A
S31508004CA0064D0446084611462B6000F02CFA431CB4
S31508004CB002D12B6803B1236038BD00BF1815002048
S31508004CC038B50023054D044608462B6000F020FA47
S31508004CD0431C02D12B6803B1236038BD1815002088
S31508004CE038B50023054D044608462B60FFF7F2F950
S31508004CF0431C02D12B6803B1236038BD1815002068
S31508004D00704708B5FFF7F6F9FBF7BCFA00F09DFA0D
S31508004D10FFF7F6FFFAE700F031B8704770477047BB
S31508004D20704708B5FBF756FB00F03BF9BDE80840AD
S31508004D30FBF744BB704708B5FBF7BAFCFBF76EFDFB
S31508004D40BDE8084000F064B808B500F015F8FEF7AD
S31508004D5029FD00F00BF8BDE80840FBF7A3BA704739
S31508004D60FBF710BB7047704770477047FBF7ACBA44
S31508004D70FBF702BB704770470F20704707B5042141
S31508004D80012300220DEB0100ADF80430FBF762FDAC
S31508004D90002003B05DF804FB70B5002506462C46D6
S31508004DA0052C20D8DFE804F003070B0F13175B2147
S31508004DB00820FBF7E3FC0C210820FBF7DFFCD121D8
S31508004DC00820FBF7DBFC80210820FBF7D7FC002135
S31508004DD00820FBF7D3FC6C1C2946E4B208202546BC
S31508004DE0FBF7CCFC0624A4F10E03012B05D85A21A7
S31508004DF00820FBF7C3FC0134D2E7102C05D1BDE827
S31508004E0070405D210820FBF7B9BCB31F195DEFE7B9
S31508004E1008B5082000F025F8BDE80840082000F08D
S31508004E202BB807B5012320F07F4040EA8170019036
S31508004E3068460093FFF7B0FF03B05DF804FBFEE792
S31508004E4000239A4200D1704710B550F8234041F824
S31508004E50234001339A42F8D110BDFEE700230360D0
S31508004E6070474FF060420123D2F8001E83400B437F
S31508004E700020C2F8003E70474FF060410122D1F889
S31508004E80003E824023EA02030020C1F8003E704734
S31508004E9010B588B004460E98009207900D982246E1
S31508004EA006909DF8300005900B9804909DF8280010
S31508004EB003900020CDE901300B460121FBF784FD64
S31508004EC008B010BD70B5054614460E4600F08FFDB5
S31508004ED02B685C4034405C402C60BDE8704000F0B4
S31508004EE081BD08B500F060FCBDE808400021FCF76C
S31508004EF0D1BA0029CCBF01210021FCF7CBBA022187
S31508004F004FF42070FCF714BF70477047436D0B428F
S31508004F10FCD1704708B54368DA0714D58368DB0700
S31508004F2002D50369D90707D50A2350218363FFF7FA
S31508004F30EDFF836C9A07FCD1012200F500535A60F5
S31508004F4043689B07FCD408BD836C5B06FCD54164AB
S31508004F507047836C5A06FCD54164836C1B06FCD5E6
S31508004F60C06B80B2704770B5054614460E4600F011
S31508004F703EFD2B685C4034405C402C60BDE87040C8
S31508004F8000F030BD70B5054614460E4600F02FFDFC
S31508004F902B685C4034405C402C60BDE8704000F0F3
S31508004FA021BD00F000B800207047FEF7A7B870B51D
S31508004FB00C46154610B9FEF7ABFA38B143682BB163
S31508004FC02A462146BDE8704000681847232070BD70
S31508004FD0F7B50D4616461C4648B103B901ACC76875
S31508004FE05FB12346324629460068B84706E0FEF711
S31508004FF08FFA04B901AC0028F1D1232003B0F0BD23
S31508005000F8B50C461546064658B9FEF781FA204605
S315080050102946FFF73DFA0446002CD4BF3720002066
S31508005020F8BDFEF775FA86420746F0D03046FEF719
S3150800503063FA29462046FFF72BFA04463846FEF758
S315080050405BFAE9E70EB403B503AA52F8041B01920A
S31508005050FFF7D6FF02B05DF804EB03B07047D0F84F
S31508005060A0301B689A6C120643BFDB6B00200B70DE
S315080050701B20704738B50446D0F8A0301D68AB6CC5
S315080050805906FCD5002394F8A9101A4694F8A800E6
S31508005090FDF7E2FD002394F8AB101A4694F8AA002F
S315080050A0FDF7DAFD94F8B030DA0707D5002394F84F
S315080050B0AD101A4694F8AC00FDF7CEFD94F8B03062
S315080050C09B0707D5002394F8AF101A4694F8AE004C
S315080050D0FDF7C2FD042205F50053002128461A658E
S315080050E0FDF7B4F9D4F8A40000F098FC002038BD08
S315080050F008B5D0F8A0301868FFF726FF002008BDCD
S3150800510000207047FEE74FF4005300204B607047BD
S31508005110012070470020704707B5002001AB0190B9
S31508005120FFF756FF0198002808BF4FF0FF3003B07D
S315080051305DF804FB80F89510704790F89500704765
S3150800514037B592F85430144633B1936D0BB1D06D20
S315080051509847002384F8543094F896301BB32046B9
S31508005160FEF744FBF8B1236E132120465B68984787
S315080051701025236E20461B680DF10701984778B95C
S315080051809DF8073003F0FD02112A05D1A3F111029B
S315080051905342534184F89C30013D15F0FF05E8D190
S315080051A02046FEF7B3FB002084F8540003B030BD58
S315080051B070B590F8943005460C46C3B10B69B3F543
S315080051C0006F16D800F01CFC95F88C300646656111
S315080051D04BB1214605F19000FBF748FA304600F03E
S315080051E00AFC002070BD2046FEF756FBF6E70E20A7
S315080051F0F8E72120F6E738B548B10024056800F03D
S31508005200FFFBC5E9164400F0F6FB204638BD222010
S31508005210FCE77047704708B5FFF783FDFFF78BFD7E
S31508005220FFF792FDFFF79BFDBDE80840FFF798BD25
S31508005230704708B5FFF771FDFFF770FDFFF76FFDC3
S31508005240FFF76EFDFFF7F4FF08BD08B5FFF78AFD07
S31508005250FFF789FDFFF788FDBDE80840FFF785BD24
S315080052602DE9F8430746884614460026D4E90195F1
S31508005270B9F1010905D52468002CF7D13046BDE8F7
S31508005280F883AB89012B07D9B5F90E30013303D062
S3150800529029463846C04706436835E9E710B50C463F
S315080052A0B1F90E10FFF720F90028ABBF636DA3898B
S315080052B01B1823F48053ACBF6365A38110BD2DE989
S315080052C0F0411F468B8905460C46DB05164605D573
S315080052D002230022B1F90E10FFF7F4F8A38932462B
S315080052E0B4F90E10284623F48053A3813B46BDE843
S315080052F0F041FFF70BB910B50C46B1F90E10FFF7E0
S31508005300E1F8431CA38915BF606523F4805343F471
S315080053108053A38118BFA38110BDB1F90E10FFF702
S31508005320C1B802440346934200D1704703F8011BF3
S31508005330F9E77047704770470A44431E914200D107
S31508005340704710B511F8014B914203F8014FF9D196
S3150800535010BD9368013B002B936010B408DA94697A
S31508005360A34201DB0A2903D15DF8044B00F098B982
S315080053701368581C1060084619705DF8044B70478E
S31508005380F8B506460F461446D518AC4201D100209A
S3150800539007E03A4614F8011B3046FFF7DAFF431CCC
S315080053A0F3D1F8BD2DE9F047164698468A680746B0
S315080053B00B690C46DDF820909342B8BF134633605C
S315080053C091F843200AB1013333602368990642BF36
S315080053D0336802333360256815F0060506D104F1F3
S315080053E0190AE36832689B1AAB422BDC94F84330FF
S315080053F02268003B18BF0123920630D404F1430209
S3150800540041463846C847013023D023681A3454F831
S315080054100A2C03F00603042B0ABF54F80E5C002579
S3150800542033684FF0000608BFED1A54F8123C08BF5F
S3150800543025EAE5759342C4BF9B1AED18B5421AD101
S31508005440002008E00123524641463846C847013045
S3150800545003D14FF0FF30BDE8F0870135C1E7E11809
S315080054605A1C30200233224481F8430094F8451030
S3150800547082F84310C2E70123224641463846C84708
S315080054800130E6D00136D9E7B1F90C202DE9F04113
S31508005490170705460C4656D44B68002B02DC0B6CE6
S315080054A0002B3DDDE66A002E3AD0002312F4805226
S315080054B02F68216A2B6025D0626DA389580705D508
S315080054C06368D21A636B0BB1236CD21A216A002364
S315080054D0E66A2846B047411C24D000236360236946
S315080054E02360A389DA0400D56065616B2F60B9B1C2
S315080054F004F14403994202D02846FFF73DF80023F9
