:020000040800F2
:100000000010002091040008F9400008F9400008A1
:10001000F9400008F9400008F9400008F9400008DC
:10002000F9400008F9400008F9400008F9400008CC
:10003000F9400008F9400008F9400008F9400008BC
:10004000F9400008F9400008F9400008F9400008AC
:10005000F9400008F9400008F9400008F94000089C
:10006000F9400008F9400008F9400008F94000088C
:10007000F9400008F9400008F9400008F94000087C
:10008000F9400008F9400008F9400008F94000086C
:10009000F9400008C90B0008F9400008F9400008C1
:1000A000F94000082D0A00080D0A0008F940000870
:1000B000F9400008F9400008F9400008F94000083C
:1000C000F9400008F9400008F9400008F94000082C
:1000D000F9400008F9400008F9400008F94000081C
:1000E000F9400008F9400008F9400008F94000080C
:1000F000F9400008F9400008F9400008F9400008FC
:10010000F9400008F9400008F9400008F9400008EB
:10011000F9400008F9400008F9400008F9400008DB
:10012000F9400008F9400008F9400008F9400008CB
:10013000F9400008F9400008F9400008F9400008BB
:10014000F9400008F9400008F9400008BD4E0008D9
:10015000F9400008F9400008F9400008F94000089B
:10016000F9400008F9400008F9400008F94000088B
:10017000013800D0FCE770470348044B834202D0AB
:10018000034B03B1184770473C1500203C15002075
:1001900000000000064B0749C91A891048BF013109
:1001A000491003D0044B0BB101481847704700BFFA
:1001B0003C1500203C1500200000000010B5064C46
:1001C000237843B9FFF7D8FF044B13B10448AFF3CA
:1001D00000800123237010BDD81300200000000010
:1001E0006C56000808B5054B1BB105490548AFF32F
:1001F0000080BDE80840FFF7CDBF00BF0000000051
:10020000001000206C560008A3F5803A704700BF2C
:10021000174B002B08BF134B9D46FFF7F5FF00213E
:100220008B460F461348144A121A04F06DF90E4B10
:10023000002B00D098470D4B002B00D09847002092
:10024000002104000D000D48002802D00C48AFF337
:10025000008003F0DFFE2000290004F048F903F0DD
:10026000C7FE00BF00000800000000000000000002
:100270000010002000100020E81300200000000003
:100280000000000008B5044804F0A3FD04F00AF9DA
:10029000BDE8084000F034B8D0540008014804F02C
:1002A00098BD00BFD054000813B5082003F032FFFA
:1002B00003F0A8FC0123009390F836300F4C022B7A
:1002C000206018D1006802F043FE236820F07F40D0
:1002D00093F83530023B012B94BF0323002340EAFF
:1002E00083700190684603F0C9FE082002B0BDE8A3
:1002F000104003F01ABF0020E7E700BF18100020ED
:100300002DE9F04F544E97B0354609AC0FCD0FC4D0
:100310002B6806F1140523600EAC0FCD0FC495E8D1
:100320000F00DFF84C8184E80F004C4804F051FDC9
:10033000404604F04EFD4FF48073494FADF83C3019
:10034000484B38460B9309A90EAB0D9302F002FD02
:100350000421B6F834B00DEB01000122ADF804B071
:1003600000F0E6F9B6F836A00022012102A8ADF8A7
:1003700008A000F0DDF9B6F838900122042103A8A6
:10038000ADF80C9000F0D4F9758F0122042104A877
:10039000354CADF8105000F0CBF9344B4FF44870A9
:1003A000C4F8C8344FF00213C4F8C434A3F5803342
:1003B000C4F8CC341C23C4F8B43403F0ADFB08A853
:1003C000ADF8205000F020FA142003F0A5FB08A897
:1003D000ADF8205000F0ECF9232003F09DFB08A8B5
:1003E000ADF8205000F010FAB921384603F0F5FFBF
:1003F00008A8ADF8205000F0DBF9002205A811464E
:10040000ADF814B000F094F9002206A81146ADF83A
:1004100018A000F08DF90122002107A8ADF81C906A
:1004200000F086F90122002108A8ADF8205000F064
:100430007FF9384602F098F900234046C4F8B434F6
:10044000C4F8C834C4F8C434C4F8CC3404F0C4FCD0
:1004500017B0BDE8F08F00BF184F0008D054000857
:1004600000000A50E070720000C003500200030058
:10047000D45400080348044A0449121A921003F0A5
:100480003CBE00BF7001000870010008E8130020A6
:1004900008B5154B83F30A8800F030F8FFF7EAFF40
:1004A000124B13498B4212D30020124B12498B423C
:1004B00018D3FFF7ADFE186850F82240586840F88E
:1004C0002240013298688242F5D30C33EAE70022D9
:1004D000F8E71C6844F8220001325C68A242F8D3B5
:1004E0000833E4E70022F8E7000000207456000813
:1004F0008056000880560008805600084FF480415E
:10050000124B134A70B59A60D3F88820114D42F40B
:100510007002C3F88820104A05F5005491664FF028
:10052000FF3222660D4A62660222C3F8D020BFF372
:100530004F8FBFF36F8F4FF44036002003F0F0F978
:100540000020E66003F084F92E6170BD00ED00E04C
:10055000000000080080004400900050F7FF3700C2
:10056000014B1860704700BFEC130020054B18606A
:10057000054B1B6F03F00703032B01D103F0F2BF00
:10058000704700BFF413002000800050002307B51F
:100590002948019304F01DFC4FF44073012204210B
:1005A0006846ADF8003000F0C3F80122234B052067
:1005B000C3F8442401A904F007FC002839D1204BDA
:1005C000D3F8F02042F00102C3F8F020D3F8FC2069
:1005D00042F08072C3F8FC201A4AA3F55D431A600A
:1005E000019B194A03F5D52303F2FC43B3FBF2F355
:1005F000164A013B13610223C2F8F0304FF48073B6
:10060000C2F804334FF06043114AC3F8B02F114AC7
:10061000C3F8802ED3F8002E42F48072C3F8002E67
:10062000FF2283F82020D3F8002E22F48072C3F832
:10063000002E03B05DF804FBD054000800D0035036
:1006400000ED00E0FF030040F8590D00000004E059
:1006500055CEACC5090001004FF06043D3F8802EA1
:1006600030B5D20715D501240B4D8440D5F8FC20B8
:1006700042F08072C5F8FC20D3F8002E2243C3F864
:10068000002E53F82020002AF0D003F8201000207C
:1006900030BD1120FCE700BF00ED00E02DE9F04186
:1006A00004460C254FF00108124E0CB314F0010063
:1006B0000BD0002024F0010405FB00625768002FD6
:1006C000F3D09168C0B2B847EFE722460130202846
:1006D0004FEA520201D0D307F8D508FA00F20F28EA
:1006E00024EA0204E8D9103805FB0062B432E5E7D9
:1006F000BDE8F0811C10002008B50C4804F069FB2F
:10070000192003F0BFF828B1192003F009F91920C6
:1007100003F09EF81A2003F0B5F828B11A2003F070
:10072000FFF81A2003F094F8002008BDD054000808
:100730002DE9F0410E469046044638B993211A48F7
:1007400003F0D8FC22252846BDE8F0810F290CD8FB
:10075000037883B1012B03D0022B0CD0032B04D1DF
:100760003F236278D340DB0708D497210E4803F07B
:10077000C1FC2125E7E740F2FF33F2E70B4BD3F84A
:1007800010532DB19B21084803F0B4FC0225DAE791
:1007900004F00EFB074642462046314602F056FD65
:1007A000384604F000FBCEE7544F000800C0035069
:1007B00038B5044628B91348E42103F09BFC2220F5
:1007C00038BD037883B1012B03D0022B0CD0032B4F
:1007D00004D13F236278D340DB0708D40948E821DD
:1007E00003F088FC2120EBE740F2FF33F2E704F04E
:1007F000DFFA0546204603F07BFF284604F0D3FAD3
:100800000020DDE7544F000838B5044628B91448E5
:10081000FC2103F06FFC222038BD03788BB1012B43
:1008200003D0022B0DD0032B04D13F236278D34099
:10083000DB0709D40A484FF4807103F05BFC2120E8
:10084000EAE740F2FF33F1E704F0B2FA054620464A
:1008500002F070FC284604F0A6FA0020DCE700BF96
:10086000544F000870B50D46044600B131B9154823
:1008700040F22D1103F03EFC222070BD03788BB1B5
:10088000012B03D0022B0DD0032B04D13F23627820
:10089000D340DB0709D40B4840F2311103F02AFCA6
:1008A0002120EAE740F2FF33F1E704F081FA06463F
:1008B000204602F095FC2870304604F074FA0020BF
:1008C000DBE700BF544F000870B50D46044600B189
:1008D00031B915484FF4A37103F00CFC222070BD10
:1008E00003788BB1012B03D0022B0DD0032B04D145
:1008F0003F236278D340DB0709D40B484FF4A5713E
:1009000003F0F8FB2120EAE740F2FF33F1E704F0BF
:100910004FFA0646204602F037FC2870304604F0B5
:1009200042FA0020DBE700BF544F00082DE9F041F8
:100930000D4616469846044600B139B92F484FF483
:10094000E07103F0D7FB2220BDE8F081027872B19C
:10095000012A19D0022A0AD0032A15D0FF2A0CD066
:100960004FF4E271254803F0C5FB2120ECE740F28B
:10097000FF336278D340DA07F2D5022E07D9042E6E
:1009800005D04FF4E471EDE73F236278F2E704F01D
:100990000FFA23780746FF2B05D0324620462968F8
:1009A00002F0BCFC28602B68013309D12378FF2BAF
:1009B00006D1134B6078D3F8241403F02CFD286083
:1009C00029684B1C14D00C230E4A03FB0122069B02
:1009D000C2F8048093602378FF2B04D001230A4AD5
:1009E0008B40C2F82434384604F0DDF90020ABE730
:1009F000384604F0D8F92D20A6E700BF544F000870
:100A000000C003501C10002000D0035008B502F0B5
:100A100013FC054B00F0553020F05020C3F82004A3
:100A2000BDE80840FFF73ABE00E0035008B502F009
:100A300003FC054B00F0AA3020F0A020C3F82004EE
:100A4000BDE80840FFF72ABE00E0035013B5044696
:100A50000A4804F0BEF9A2780421B2FA82F223789F
:100A600052098DF8043063780DEB01008DF80530E4
:100A7000FFF75EFE002002B010BD00BFD05400089A
:100A800038B5124B05461B78DBB1E0B104F090F9A4
:100A90000F4A00231146147B54B92B6001251A011B
:100AA00001EB03131D738C5004F07DF9204638BD13
:100AB0000133082B02F11002EDD104F074F905485E
:100AC000F5E70548F3E70548F1E700BFD913002033
:100AD00084120020048000F0028000F0018000F009
:100AE000154B13B51868002301908DF8043004F0FD
:100AF0005FF9124B1C7824B104F055F9104802B08C
:100B000010BD01221A7004F04EF90E4B01A81C739F
:100B10001C7783F82C4083F83C4083F84C4083F8E2
:100B20005C4083F86C4083F87C4008238DF80730E4
:100B300002F0A6FA2046E2E7AB4F0008D9130020E6
:100B4000038000F0841200200A4A08B512785AB1D6
:100B500007280BD8084A02EB00131B7B43B1002186
:100B600002F06EFA002008BD0448FCE70448FAE7EA
:100B70000448F8E7D913002084120020028000F016
:100B8000018000F0078000F00A4A08B512785AB1D7
:100B900007280BD8084A02EB00131B7B43B1012145
:100BA00002F04EFA002008BD0448FCE70448FAE7CA
:100BB0000448F8E7D913002084120020028000F0D6
:100BC000018000F0078000F0184B2DE9F0411F6D07
:100BD0005B6D1F4000D5FEE701260025144CDFF8B1
:100BE0005880374218D02368C8F85060A3B1A16874
:100BF000284601316268A1609847637B012B0BD1C5
:100C000050B90C4B03EB45131A7B60F341021A7386
:100C10001A7F60F341021A770135082D4FEA460624
:100C200004F11004DDD1BDE8F08100BF00000450E4
:100C300084120020841100200020045038B141B1FA
:100C4000013AB2F5006F044838BF002070470348EE
:100C500070470148704700BF037000F0027000F059
:100C6000104930B50A78104B2AB9C3E90022C3E90C
:100C7000022201220A700C4900220C4654F8045B3F
:100C8000854208D00132042AF8D1002251F8044BE1
:100C90001CB943F82200002030BD0132042AF5D1EE
:100CA0000248F9E7DA13002004130020027000F074
:100CB000002313B51D4A52F8044B94F821108142C9
:100CC0000ED00133042BF6D102B010BD0028FBD1A9
:100CD0009DF80730002BF7D0A068FFF735FFF3E74A
:100CE00094F83530022BEFD1204603F0DAFA637E18
:100CF0002076022BE8D194F8323003F0FF02002B6B
:100D0000E2D1A0680DF107018DF8072003F0CAFCBD
:100D1000237E1BB194F83330002BD7D00023A0687A
:100D200084F83330FFF730FFCEE700BF0413002014
:100D300010B50446FFF7D4FE002104F10800FFF7C8
:100D40009FFE014608B1044810BD04F10C00FFF7F6
:100D500097FE0028F8D0F6E70E7000F010B590F876
:100D60003630044663B9042203685A619A699207CF
:100D7000FCD523790C4AB9335B011021995010BD81
:100D8000022BFCD10068836CDB074CBF05210621D8
:100D900001F014FD237941F294425B0103F1A04379
:100DA00003F57033E9E700BF00C003502DE9F041BF
:100DB00004461746FFF742FF88460646E8B9152065
:100DC00002F078FD0546E26A93889BB213B194F86D
:100DD0003230ABB194F83630BBB923689D6915F059
:100DE00002052CD0012384F834304744B8452068EC
:100DF00049D183699B06FCD56DB33046BDE8F081CF
:100E0000002DE1D0FFF7E0FEDDE7022B12D12368D1
:100E10009D6C15F0020512D0012384F8343047444C
:100E20004745206836D142F22002836C32EA030340
:100E3000FBD1E1E740F697111E4803F05BF920462D
:100E4000FFF78CFF012394F8365084F83430002DDE
:100E5000CBD0022D1CD094F8363003B3022BCCD16A
:100E60002068816C11F0010118BF092101F0A6FC76
:100E700042F29442102123795B0103F1A04303F570
:100E800070339950B9E718F8011B03F0B0FAADE7D9
:100E90000025C4E718F8011B03F09AFAC0E71021F7
:100EA0002379054A03F239135B01D15008222368E4
:100EB0005A61A2E7AF4F000800C0035010B50446C6
:100EC00080B190F832302BB903F0EBF910B9A0687B
:100ED000FFF73AFE002094F832300133DBB284F899
:100EE000323010BD0048FCE7027000F010B5044637
:100EF000A0B190F832309BB190F83230012B05D17F
:100F000003F0CFF910B9A068FFF73EFE002094F877
:100F10003230013BDBB284F8323010BD0148FCE7CF
:100F20000148FAE7027000F0057000F030B50025C6
:100F3000437F85B08DF8083090F8213004460422B4
:100F40008DF80930039303A9064B009502A8FFF71B
:100F5000EDFC4FF4007320462383A57603F0BAF925
:100F600005B030BDB10C00082DE9F04104468EB04B
:100F70006B4F06AE0D460FCF0FC697E80F0086E801
:100F80000F0018220021684603F0BEFA002C00F082
:100F9000C58025B9634E30460EB0BDE8F0816422AD
:100FA0000021204603F0B0FA02232F6884F836307F
:100FB00027602B7C20462371FFF752FE064600284F
:100FC000E9D12B7F84F83530AB682366564B9F42BE
:100FD00000F09680554B9F42DCD14FF4801354496A
:100FE000544AC4E904230023616284F83130D5E90E
:100FF000091284F83030A1624F480B804B808B80FF
:1010000084F83030E26213805380938084F831306A
:1010100084F8333003F0DDFE636ADFF82C819868D2
:1010200003F0D7FE10212B7C08EB4312C2F8941476
:101030002E7BA87B253346EA0041C2F8AC14697BBD
:10104000EA7B08EB431341EA02475F60E676E0770C
:10105000217784F820206B7F01216377AB7F2046C6
:1010600084F82130EB7FA37795F8203084F8223084
:1010700003F0B0F8064600288DD1AB68022608932D
:101080006B8A8DF82560ADF82830AB8ACDF834D066
:10109000ADF82630AB7D8DF82430AB690B9301237E
:1010A000ADF8063003F084FE2A7F0746032A2CD1D0
:1010B00041F294412B7C08EB43135E5095F82000DD
:1010C000E97F41EA004103F5A5500160A87F697FEF
:1010D00041EA004141F29C4019508DF8002006235E
:1010E0008DF818302B79286806A9A3B101F0D6FD38
:1010F0002046FFF71DFE0646384603F054FE4AE739
:101100004FF470230D490E4A6BE7022AE7D12046BF
:10111000FFF70CFFE3E701F093FDE9E7094E3AE73B
:1011200024500008037000F00000015B00000A502A
:10113000E854000801001000D0540008F4540008DE
:1011400001000F00027000F000C00350044BD3F800
:101150008420D206FBD4D3F88400C0F381107047FA
:101160000040005038B5104B0546D3F800310C460E
:1011700003F00303022B0BD0032B0DD0012B0FD157
:1011800003F00AFA032305B1286004B1236038BDD7
:1011900003F054FA0923F6E703F004FA0823F2E710
:1011A00001230020EFE700BF0080005038B5104B4E
:1011B0000546D3F840310C4603F00303022B0BD055
:1011C000032B0DD0012B0FD103F0F8FD0A2305B13D
:1011D000286004B1236038BD03F030FA0923F6E734
:1011E00003F0EFFD0C23F2E701230020EFE700BF3F
:1011F0000080005038B5104B0546D3F860310C46DE
:1012000003F00303022B0BD0032B0DD0012B0FD1C6
:1012100003F0D4FD0A2305B1286004B1236038BD72
:1012200003F00CFA0923F6E703F0CBFD0C23F2E7F9
:1012300001230020EFE700BF0080005038B5104BBD
:101240000546D3F840320C4603F00303022B0BD0C3
:10125000032B0DD0012B0FD103F0B0FD0A2305B1F4
:10126000286004B1236038BD03F0E8F90923F6E7EC
:1012700003F0A7FD0C23F2E701230020EFE700BFF6
:101280000080005038B5124B0546D3F880300C462C
:1012900003F00303022B0BD0032B0DD0012B0FD136
:1012A00003F040F90E2305B1286004B1236038BD76
:1012B00003F07CF90723F6E703F02EF90623F2E7A3
:1012C000044841F2142102F015FF00231846EAE712
:1012D000008000504450000838B51A4B0546D3F83A
:1012E00020010C4600F00700062821D8DFE800F0B6
:1012F00028040C1410181C0003F00EF9052305B186
:10130000286004B1236038BD03F046F90323F6E7F3
:1013100003F04CF90723F2E703F03AF90223EEE772
:1013200003F0FAF80623EAE703F036F90423E6E7C8
:10133000054841F2912102F0DDFE00231846DEE768
:101340000123DCE7008000504450000838B5194BF9
:101350000546D3F828310C4603F00703013B052B63
:1013600020D8DFE803F003131B0F0B1703F0D4F8AA
:10137000052305B1286004B1236038BD03F0CCF823
:101380000623F6E703F012F90723F2E703F004F966
:101390000323EEE703F000F90423EAE703F0F8F88B
:1013A0000223E6E7044841F2990102F0A3FE00237C
:1013B0001846DEE70080005044500008002337B58F
:1013C0000193194B0546D3F820320C4603F007036E
:1013D000042B1FD8DFE803F025030F1419000021A8
:1013E00001A8FFF7B3FF12230DB1019A2A6004B1DF
:1013F000236003B030BD03F0D9F807230190F3E771
:1014000003F0DCFC0A230190EEE703F017F909234F
:101410000190E9E741F25601044802F06BFE002317
:10142000E2E70123E0E700BF0080005044500008DD
:10143000F7B50027144B0197D3F88041064604F016
:101440000304022C0D4614D0032C0DD0012C14D112
:10145000394601A8FFF740FF10240EB1019B33600D
:1014600005B12C6003B0F0BD03F0A0F80724019093
:10147000F3E703F08DF80190EFE741F2E63103481E
:1014800002F038FE3C46E8E7008000504450000877
:1014900038B5164B0546D3F800020C4600F007009D
:1014A000042819D8DFE800F020030B0F130003F025
:1014B00085FC0A2305B1286004B1236038BD03F020
:1014C000BDF80923F6E703F07CFC0C23F2E703F0F8
:1014D00049F80F23800AEDE7054841F2A44102F0E4
:1014E00009FE00231846E5E70123E3E700800050EA
:1014F0004450000838B5164B0546D3F808020C4690
:1015000000F00700042819D8DFE800F020030B0FD3
:10151000130003F053FC0A2305B1286004B12360D3
:1015200038BD03F08BF80923F6E703F04AFC0C23DF
:10153000F2E703F017F80F23800AEDE7054841F2C0
:10154000DC4102F0D7FD00231846E5E70123E3E77D
:101550000080005044500008002337B50193184B19
:101560000546D3F860320C4603F00703013B032B1A
:101570001FD8DFE803F0020E1914002101A8FFF7BD
:10158000ABFE10230DB1019A2A6004B1236003B0B1
:1015900030BD002101A8FFF709FE1123F2E703F097
:1015A00005F807230190EDE702F0F2FF0223019016
:1015B000E8E741F2FD01034802F09CFD0023E1E76A
:1015C0000080005044500008002337B50193184BA9
:1015D0000546D3F894320C4603F00703013B032B76
:1015E0001FD8DFE803F0020E1914002101A8FFF74D
:1015F00073FE10230DB1019A2A6004B1236003B079
:1016000030BD002101A8FFF7D1FD1123F2E702F060
:10161000CDFF07230190EDE702F0BAFF022301900E
:10162000E8E741F23011034802F064FD0023E1E7EE
:10163000008000504450000873B500240F4B019403
:10164000D3F87032064603F00303012B0D4607D092
:10165000022B11D041F25B11094802F04BFD04E06E
:10166000214601A8FFF7A2FD11240EB1019B3360B2
:1016700005B12C6002B070BD1524F6E70080005063
:101680004450000808B5334B98424FD027D8324B0E
:10169000984245D017D8314B98423ED00AD838B13D
:1016A0002F4B984239D041F2BB312E4802F022FD37
:1016B000002034E02C4B98422FD02C4B9842F2D192
:1016C0002B4B586E2BE02B4B98422CD003F5371345
:1016D00003F5D8639842E6D1254B986F1FE0264B5F
:1016E00098422FD00CD8254B984223D0244B9842B7
:1016F00024D0244B9842D6D11D4BD3F884000EE061
:10170000214B984222D003F5740303F510539842FD
:10171000C9D1174BD3F8980001E0154B986D08BD5F
:10172000134B186FFBE7124B586FF8E7104BD3F8C9
:101730008000F4E70E4BD3F88800F0E70C4BD3F8A9
:101740008C00ECE70A4BD3F89000E8E7084BD3F89D
:101750009400E4E780BA8C01405DC60080841E00DE
:1017600040420F004450000800093D00C0CF6A000D
:101770000080E00F0024F400007E560380D5430271
:10178000006CDC020048E8010090D003B0F5207F37
:1017900010B52ED009D8B0F5007F24D003D868B199
:1017A000B0F5C07F0AD000241BE0B0F5607FFAD10D
:1017B000124BD3F88040C4F3011412E00F4B1C6F9E
:1017C000230B13F00E0FC4F303340AD0072C08D0F8
:1017D0000F2C06D0032C04D04FF42271084802F0DD
:1017E00089FC601C10BD054BD3F89040C4F3046421
:1017F000F7E7024B1C6FC4F38024F2E7008000502F
:10180000445000084FF4803238B5104B04469A66B5
:1018100000200D46FFF7BAFF41F671320C4B6043D2
:10182000DC69DA635A6804F4803422F440125DB94A
:101830000849884294BF00200120000502435A60F5
:101840000CB10022DA6338BD0349F2E70090005082
:1018500000000350005A6202002D310138B54309DF
:1018600004460D460ED140F235310D4802F042FCDF
:10187000002304F01F0485B103F580530122A24028
:101880001A6038BD012B04D0022B04D040F2433142
:10189000EBE7044BEDE7044BEBE703F50053EDE713
:1018A000445000086480005068800050002130B52A
:1018B000B0F5807F85B00446CDE9001100F0D380FB
:1018C0003DD85E2833D85E2833D8DFE800F04832B0
:1018D00032323232323232323232323232323232E8
:1018E000323232323232323232323232323248AD47
:1018F00048ADBDBDBDBDBDADC7516EDD51ADADADDA
:101900003232323232323232ADADAD81E7AD3232C7
:101910003232323232323232323232BD484848E22A
:101920005151EC9066C232323232329848008028EF
:101930006AD040F2A441604802F0DCFB67E0B0F5F9
:10194000D06F00F0A18035D8B0F5607F77D01AD87D
:10195000B0F5007F5ED005D8B0F5C07FE9D102F0C8
:1019600001FE53E0B0F5207F5ED0B0F5407FE0D1BE
:1019700002F0F8FD04464FF42070FFF707FFB4FBB8
:10198000F0F4640859E0B0F5B06F67D00AD8B0F54C
:10199000806F59D0B0F5A06FCBD100216846FFF71A
:1019A0000DFD34E0B0F5C06FC3D100216846FFF7EC
:1019B000FDFB2CE0B0F5106F6BD00ED8B0F5086FC2
:1019C00076D0B6D8B0F5E06F68D0B0F5F06FB0D192
:1019D00000216846FFF70EFC19E0B0F5406F38D0E3
:1019E0000AD8B0F5206F5ED0B0F5286FA1D10021E4
:1019F0006846FFF721FE0AE0B0F5486F99D1002153
:101A00006846FFF7E1FD02E002F08CFD00900098CF
:101A100005B030BD02F086FD05462046FFF7B6FE54
:101A2000B5FBF0F50095F2E702F09CFD04464FF49B
:101A30002070FFF7ABFEB4FBF0F40094E7E701A8D9
:101A4000FFF720FC019DE8E700216846FFF744FC12
:101A5000DDE700216846FFF779FCD8E700216846FA
:101A6000FFF7E6FCD3E74FF0E02302911B695B0729
:101A700005D502F077FD0290029B0093C7E703A90A
:101A800002A8FFF793FBF7E700216846FFF700FD88
:101A9000BDE700216846FFF72DFDB8E70021684645
:101AA000FFF7CCFBB3E700216846FFF755FDAEE733
:101AB0006846FFF757FBAAE74450000808B58020A6
:101AC000FFF7F4FE034B98429EBF4FF48032024B67
:101AD0001A6708BD005A620200A000501FB50346F5
:101AE0000020B3F5807F019000F0C58063D85D2BA6
:101AF00054D84C2B06D82D2B46D8232B2AD840F26D
:101B00008951A7E04D3B102BF9D801A252F823F0E0
:101B10006D1C0008FF1A0008FF1A0008FF1A0008D1
:101B2000171C0008FF1A0008FF1A0008C71C00084D
:101B3000351C0008DB1B0008BD1C0008FF1A00084C
:101B4000FF1A0008FF1A0008FF1A0008FF1A000811
:101B5000D11C0008243B092BD1D801A252F823F054
:101B60006D1C00086D1C00086D1C00086D1C000831
:101B70006D1C0008FF1A00085D1C0008FF1A000811
:101B8000F71B0008A31C00083D2B00F085803E2BAE
:101B9000B5D1002001A9FFF751FB63E0802BAED146
:101BA0004E4B1B6F03F00703013B032B50D8DFE8BC
:101BB00003F04D46494BB3F5F06F6DD020D8B3F527
:101BC000B06F4BD00ED8B3F5607F73D097D3B3F519
:101BD000806F4BD0B3F5A06F91D1002001A9FFF722
:101BE000EDFB3FE0B3F5D06F5BD0B3F5E06FD0D045
:101BF000B3F5C06F83D1002001A9FFF7D7FA31E018
:101C0000B3F5206F5FD00BD8B3F5086F4ED0B3F5A6
:101C1000106F7FF474AF002001A9FFF76BFC21E087
:101C2000B3F5406F4AD0B3F5486F51D0B3F5286F84
:101C30007FF465AF002001A9FFF7FEFC12E0052349
:101C400001930FE00323FBE70823F9E70223F7E7FB
:101C500040F2D641224802F04DFA03E0002001A9EB
:101C6000FFF7E6FB019805B05DF804FB002001A931
:101C7000FFF732FBF6E74FF0E02302901B695B07AA
:101C800005D502F06FFC0D230393039BD8E703A94E
:101C900002A8FFF78BFAF8E7002001A9FFF7AAFADC
:101CA000E0E7002001A9FFF7F3FBDBE701A9FFF75D
:101CB00059FAD7E701A9FFF7E5FAD3E7002001A910
:101CC000FFF744FBCEE7002001A9FFF745FCC9E779
:101CD000002001A9FFF778FCC4E700BF0080005096
:101CE000445000084FF48032074B0849586E03F502
:101CF00080535A664B6A23F001034B62C3035CBFF7
:101D0000034B5A66704700BF0080005000C0075068
:101D100000A0005038B5036804460F2B04D940F6E4
:101D20008A317C4802F0E6F963680F2B04D940F64B
:101D30008D31784802F0DEF9A3680F2B04D94FF4F7
:101D40003961744802F0D6F9237B0F2B04D940F691
:101D50009331704802F0CEF9637B0F2B04D940F623
:101D600096316C4802F0C6F9A37B3F2B04D940F6AC
:101D70009931684802F0BEF9E37B3F2B04D940F665
:101D80009C31644802F0B6F92369032B04D940F66C
:101D90009F31604802F0AEF96369032B04D940F625
:101DA000A2315C4802F0A6F9E369032B04D940F69E
:101DB000A531584802F09EF98020FFF78FFE0328D6
:101DC00000F083804FF48012534B4FF0A0615A66AD
:101DD00045F60E02514BC3F88020514A91624FF4F0
:101DE000803102F5805291629A6DD203FCD4996DD4
:101DF00011F08041FBD1D4E90002120542EA0062F1
:101E0000E07B0243207B42EA0042607B42EA0032F0
:101E1000A07B42EA80121A619869D4E90452120642
:101E200042EA856200F000400243A07EE57E024364
:101E3000207E42EA0042607E42EA00229A611A6AEB
:101E4000E06922F00F0242EA8502364D00283DD1BA
:101E50001A6294F82420996A94F82000D20029404C
:101E600042EA40120A4394F8211042EA011242F475
:101E700080329A622C49294A936D31EA0303FBD1DF
:101E80004FF08071264881621369A56823F47003BE
:101E900043EA055313614FF00043836194F8223005
:101EA0000BB9224B996294F823303BB94FF480323E
:101EB0001E4B9A62194A936D5B00FCD494F825304E
:101EC0001BB1164B1A4AC3F8802038BD024342F0BA
:101ED000080202281A6208D119614FF40852996168
:101EE00014484FF47F4102F031FA0C4994F8223043
:101EF0008A6A94F820001B062A4043EA40131343E1
:101F000094F8242043EAC20394F8232043EA0243CE
:101F10008B62D3E744500008009000500040005A04
:101F20000050005AC7FFFEFE030001000060005A87
:101F3000F1A7FFFF3440005A014B93F900007047AE
:101F40002C150020436810B5072B044604D940F631
:101F5000E6512A4802F0CEF8A368032B04D940F6D4
:101F6000E851264802F0C6F82378032B04D940F63E
:101F7000EA51224802F0BEF894F90130002B04DA4D
:101F800040F6EC511D4802F0B5F84FF400011C4A30
:101F9000637851664FF4D151022002F5B832516294
:101FA00018494F2B48604FF0010028BF4F2301F51F
:101FB000805148601169C903FCD4217843EA0123A8
:101FC0005361D4E901131B0143EA0123617B0B43F5
:101FD000217B43EA41039360E37BA17B1B0143EA3E
:101FE0004113617C0B43217C43EA41035360A37C92
:101FF00013B16FF4D153536210BD00BF44500008B9
:102000000090005000100250014B1880704700BF34
:102010002A150020014B1880704700BF28150020AA
:102020004FF4800208B5184B5A660223174A5360D2
:10203000936813F48033FBD1012822D102F0ACFA6B
:10204000134B984215D003F5122303F5F863984219
:1020500013D0104B00EB8002400AB3FBF0F3520A9E
:102060000A49CA620B6301234B620022074B5A6084
:1020700008BD45F67A13084AF2E745F61A03074AFF
:10208000EEE75362F1E700BF0090005000400250BD
:1020900000F0490264666666D8B80500BBCF05004B
:1020A000B0F5207F38B577D00ED8B0F5007F61D07D
:1020B00003D890B3B0F5C07F2FD04FF44671BDE880
:1020C00038403D4802F016B8B0F5607FF5D13B4A84
:1020D0004C1ED2F8FC5015F080751EBFD2F8FC30B3
:1020E00023F08073C2F8FC30032C04D940F2F721AE
:1020F000314801F0FFFF324AD2F8803023F030033C
:1021000043EA0413C2F8803035B12C4AD2F8FC30CF
:1021100043F08073C2F8FC3038BD4C1E012C0AD944
:10212000102903D8274BCB40DB0704D440F2CB2146
:10213000214801F0DFFF02F018F902F024F94FF412
:102140008031214B1E4A1967136F23F4704343EA11
:102150000433136702F006FA0446FEF7F7FFC0F1F6
:102160000201204602F009F900F048F8BDE83840C5
:10217000FFF7A4BC4C1E1F2C04D94FF443710E482A
:1021800001F0B8FF0E4AD2F8903023F0F85343EA3A
:102190000463C2F89030BFE74C1E012C04D940F212
:1021A0001231054801F0A6FF054A136F23F480633E
:1021B00043EA84231367AFE74450000800ED00E0D2
:1021C00000800050100101000090005008B501216E
:1021D000022000F099F94FF42070FFF7D7FA054B71
:1021E000187002F0C2F802F0CEF84FF48032024BC1
:1021F0001A6708BDDB1300200090005008B54FF4AB
:10220000C070FFF753FBBDE808400449884294BF03
:10221000012102214FF42070FFF742BF80F0FA0243
:1022200038B5044602F09EF90546FEF78FFFC0F16F
:102230000201284602F0A1F80121002000F0B8F9BF
:102240002CB1FFF7DBFFBDE83840FFF737BC034B8D
:102250004FF420701978FFF723FFF4E7DB13002019
:102260002DE9F0410546FFF70DFA431E03330446FE
:1022700004D940F6E2113B4801F03CFF4FF4C02284
:10228000394B5A6603F598335A68012A04D1374905
:102290004A605A689207FCD48020FFF71FFC05288B
:1022A00007D102F062F802F06EF84FF480322E4B44
:1022B0001A672F4B24F040749D4239D02D4B9D421C
:1022C00039D002F029F98542064603D90121284672
:1022D00000F06EF9284FFB6813F0060FFBD1D7F81A
:1022E0000880BC60BB68634013F4F81F26D1284601
:1022F000FEF736F98020FFF7F1FB052814D102F034
:1023000031F9A842044604D940F63B21154801F0B2
:10231000F1FEFEF71BFFC0F10201204602F02DF88E
:10232000FFF76CFFFFF7CAFBAE4213D2BDE8F081A6
:1023300044F00074C5E744F08074C2E740F62A21F7
:10234000084801F0D7FE8020C7F80880FFF7C6FBD9
:10235000052805D0BDE8F0410121002000F028B992
:102360003546CCE7445000080090005000E0015092
:1023700040420F0080841E00000001504E4B70B59B
:102380009842054673D041D8A3F5B703A3F5586327
:10239000984265D033D8494B494E984251D017D80E
:1023A000002877D041F2DE11464801F0A3FE40F646
:1023B0008671444801F09EFE4FF40022404B5A665D
:1023C0003E4B9D4276D000243F4A954236D05DE098
:1023D0003D4B984227D03D4B9842E3D13C4BD3F83C
:1023E000A040621E033224F040744CD940F686713E
:1023F000344801F07FFE4FF400237366E4E7354B69
:102400009842CFD1324BD3F8BC402CE0324B9842AB
:1024100031D0324B984232D0314B9842C2D12C4B02
:10242000D3F8C8401FE02A4BD3F8A040621E033205
:1024300024F04074DAD84FF40023736644F08074BB
:1024400024E0234BD3F8A040621E033224F04074F2
:102450002AD84FF400237366234643F0007415E036
:102460001B4BD3F8B840621E154E0332BBE7184B26
:10247000D3F8C040F7E7164BD3F8CC40F3E7144B42
:10248000D3F8D040EFE74FF4002373664FF0B44227
:10249000946070BD40F686710A4801F02BFE4FF43F
:1024A00000232C467366F1E740F68671054801F07B
:1024B00021FECEE70023D0E7C0EA210140420F0011
:1024C000009000504450000880841E0000093D0028
:1024D0000080E00F0024F4000048E801005A620286
:1024E00080BA8C01024A536B0342FCD1704700BF93
:1024F00000400950034A0179D36E23F030030B43A7
:10250000D366704700400050F8B50446244BD3F81A
:102510008420D006FBD4D3F88430C3F381139C42CB
:102520003CD001F0FFFF012C05460BD11D4B98421A
:1025300004D940F29B711C4801F0DCFD01212846C2
:1025400001F01BFF02F02BFC4FF00072174B074607
:102550005A66204601F01CFF4FF48063104E621E45
:1025600093403367736E9A0103D4D6F884309B0688
:102570000AD5384602F00EFC022C0FD12846BDE8E1
:10258000F840002101F0F9BED6F884309906E9D56B
:1025900040F2B371044801F0ADFDE3E7F8BD00BFC0
:1025A00000400050005A6202945000080060005041
:1025B00010B50C4608B901F0B5FF074B21461B7852
:1025C0003BB1064B984204D80120BDE81040FFF70C
:1025D0009BBF0220F9E700BFDC130020005A620213
:1025E0004FF0004238B5244B244C5A664AF6CD339E
:1025F000656C014605F00105236428BB0120FFF747
:1026000071FF6368DB0715D51D4B586008461D4BED
:10261000226BD2070CD4984208D1072415B1174B6E
:10262000194A1A6401F0B5FE204638BD0130EFE7C3
:102630009842F2D00024F1E70132236B13F0080333
:1026400005D08A42F8D1E8E700220E49F5E78A4230
:10265000E3D020210A4A91620121A2F58052516003
:102660000649084A886A800603D49342D5D00133CC
:10267000F8E79342DDE700BF0090005000400950AA
:102680000060095040420F003254FFFF4FF00042FB
:1026900038B5164B01465A664AF6CD33144C154AE6
:1026A000656C236443780B205B0043F00103D36324
:1026B000FFF718FF63688A7823F4F87343EA02137C
:1026C0006360CA784B7943EA0223A3600A798B7965
:1026D00043EA022323610878FFF782FFEB0744BF38
:1026E000054B236401F055FE012038BD00900050D9
:1026F00000400950004000503254FFFF0F2870B5D1
:10270000044605D940F67461124801F0F3FC0F2429
:102710004FF00042104B11495D6E03F580535A662D
:102720004AF6CD334E6C80200B64FFF7DBFE0B6A5C
:1027300023F00F0323430B62F30744BF084B0B64E2
:10274000002DA2BF4FF00042064B5A6601F021FE59
:1027500070BD00BF94500008008000500040095038
:102760003254FFFF00A0005010B501F017FE042303
:1027700000F5805100F500520B6113610B6113618C
:102780000B6113610B611361202341F202010361AC
:102790000023C360836041614FF4A021836183659E
:1027A00041620549C36103628362C3624363036597
:1027B000D164036310BD00BFFF3F0D0338B5174B55
:1027C000044698420D4607D0154B984204D040F27B
:1027D0006911144801F08EFC25B92046BDE8384047
:1027E00001F0DCBD012204F580535A6040F6FF7110
:1027F000204605F00F0201F0CDFDA263782101F023
:10280000C9FD05F001036A0748BF43F00203A26C4B
:1028100002F003029A42FAD138BD00BF0000015B0A
:1028200000000A50E4500008F8B505460C4616466C
:1028300022B940F227216B4801F05CFC6A4B9D42B3
:1028400002D19CB956240DE0684B9D4247D040F21E
:102850002A21644801F04EFC44B940F279316148C4
:1028600001F048FC2046FFF721F80446AB68D80782
:1028700045D5B44204D24FF40D715A4801F03AFCE8
:10288000B4FBF6F46F68013CFF2C07F0010704D994
:102890004FF40F71534801F02DFC24064FB328214B
:1028A000284601F077FDAB6C99071CD1AB6CDA07B9
:1028B0001BD4AE6C16F0020619D140F249214948EA
:1028C00001F018FC284601F069FD2B69314623F020
:1028D0007F4323432B61BDE8F840FFF76FBF002C17
:1028E000C4D15724BEE70526ECE70926EAE7062609
:1028F000E8E72B6923F07F4323432B61F8BD6B6826
:10290000012B04D04FF41771364801F0F3FBAB6D87
:10291000DB07AB6848BF760003F0E003402B42D0F2
:1029200009D893B1202B1AD040F29E21BDE8F8407F
:102930002C4801F0DFBB602B42D0802BF4D106EB9A
:102940004603A34247D801230DE0B6EB141F04D978
:102950004FF42171234801F0CDFB102303E0B6EBC7
:10296000D40F1AD8082373436401B4FBF3F4204F47
:10297000203CB7EBC40F4FEAC40604D240F2A921B1
:10298000184801F0B7FB28463E40012101F002FD46
:102990002E63BDE8F84001F0FDBC40F289211148EA
:1029A00001F0A8FBDEE70623B4FBF3F3B34201D347
:1029B0000623D8E740F28E210A4801F09BFBF7E797
:1029C000B6EB940F01D80423CDE740F293210548DC
:1029D00001F090FBF7E74FF42671024801F08AFB03
:1029E000B1E700BFE45000080000015B00000A509E
:1029F000F8FF7F002DE9F0419846436804460E46F3
:102A000017461BB140F6FF7101F0C4FC2046FFF7EA
:102A1000ABFEF189737B62690B43318A22F44C521D
:102A200022F00F020B4313436361A26896F818C0AB
:102A3000337B22F0804222F0E2024CEA030313438C
:102A400072691343B268A3601AB9A36843F00043E4
:102A5000A360F06904F58053002878D0857A017A64
:102A60006D04D4F808E045EA81556E490EEA01018B
:102A70000D43818801F4C0410D43417845EA810549
:102A8000417B45EAC105817B45EA0115817845EA2C
:102A90008125A560D4F80CE0D0E904152943624DE6
:102AA0000EEA05052943857941EA8521C57941EA80
:102AB0004521E16001785D4D012914D1E16841F0C3
:102AC0000401E160AC4200F0928059498C420CBF95
:102AD00001214FF0FF31490101F1A04142F294453B
:102AE00001F5703114E003297BD1E16841F0040164
:102AF000E160AC4279D04E498C420CBF01214FF0CD
:102B0000FF3141F29445490101F1A04101F57031D5
:102B10004FF0020E41F805E0417A996219B1E1687F
:102B200041F40061E160C17A59B1E16841F40041CA
:102B3000E1603E498C425CD1017B3E4D01F00F01CA
:102B40006967616AC07B21F00301014361622FB1B3
:102B500097F82010002956D001211962B8F1000F12
:102B60002DD0BCF1000F02D04FF4004199652F49E0
:102B7000B8F822508C4298F8211051D02C48844249
:102B800013D10120112934BF4FF0010C4FF0020C7A
:102B9000294FB5F5006F07F800C094BF4FF0010C46
:102BA0004FF0020C254F07F800C0A06D294320F418
:102BB000F95020F01E000143A16501219965012112
:102BC00059601AB120467168FFF72EFE2046317811
:102BD000FFF7F4FDA36CDB4313F4405FFAD1BDE8CB
:102BE000F0810239012984D96CE7002189E70021AD
:102BF00071E70F498C4201BF017B0E4D01F00F01BF
:102C0000C5F880109DE7E06997F8221097F82150E9
:102C100020F009002943014341F00101D9619DE7FA
:102C20000020AFE7E39BBDFFFFF9F0870000015BE9
:102C300000000A5000900350DF130020DD13002035
:102C4000134B70B5984205460C4606D0114B98427E
:102C500003D07021104801F04DFA1CB972210E48C2
:102C600001F048FA237B802B03D176210A4801F03A
:102C700041FA637B032B03D97921074801F03AFA23
:102C8000002321462846BDE870401A46FFF7B2BE31
:102C90000000015B00000A50E45000082B4B70B5A7
:102CA000984205460C4643D119B98C21284801F0B9
:102CB00021FA5620FEF712FF0C2807D0A0F10903D5
:102CC000012B03D9A0F11103012B3AD8637B032B0D
:102CD00003D9AD211E4801F00DFA237B802B03D0D0
:102CE000AF211B4801F006FA6369B3F1804F03D0AE
:102CF000B121174801F0FEF9238A23F400539BB257
:102D0000B3F5805F03D0B321114801F0F3F9A36854
:102D1000013BB3F5165F03D3B5210D4801F0EAF985
:102D2000002321462846BDE870401A46FFF762BEE0
:102D30008A21074801F0DEF91CB98C21044801F012
:102D4000D9F99E21024801F0D5F9BFE70000015BE7
:102D5000E4500008F8B5774B044698420E4606D07A
:102D6000754B984203D0E221744801F0C3F91EB9B3
:102D7000E421724801F0BEF9727BB3687AB1704AFF
:102D8000934203D9E6216D4801F0B4F93369C3B128
:102D9000DB7BB3B1E921694801F0ACF911E0694A84
:102DA000934203D9EC21654801F0A4F9336943B19A
:102DB0001A7F32B1B168644A5B7F914278D9042BA3
:102DC00078D86368356923B140F6FF71204601F079
:102DD000E1FA2046FFF7C8FC2269737BB17B22F041
:102DE00087020B43134343F080032361002D63D01C
:102DF0002369297F23F0F80343EAC1132978EA7B8A
:102E00000B43297943EA4113697A43EA011343EA00
:102E100082132361E068D5E9053720F0F0403B4399
:102E200020F470200343287B697B43EA802343EA34
:102E3000C133E360A368F07B23F00303034343F053
:102E40000103A3606B88A06803F4C0430343A3603D
:102E5000A368687943EA8023A360AB79EF79606A5D
:102E60001B013F0203F0700307F4E06720F47720B2
:102E700020F4EE603B430343287A000300F4E04073
:102E80000343687F000400F47020034363626369B6
:102E9000307B23F00F03034363616B89A36141BB64
:102EA000C2B1244B9C422ED0234B9C423CD011E01B
:102EB000042B86D8F3216EE7A368F27B23F003038B
:102EC000134343F00103A3606369327B23F00F03D4
:102ED000134363612046D6E90112FFF7A5FC2046A3
:102EE0003178FFF76BFCA36CDB4313F4405FFAD13E
:102EF000F8BD104B9C420CD1AB7B144903F00F037F
:102F00004B67002AE6D02B7C104A03F00F031367AF
:102F1000E0E7094B9C42DDD1AB7B0C4903F00F038A
:102F2000C1F88030002AD5D02B7C084A03F00F036B
:102F3000D367CFE70000015B00000A50E4500008AF
:102F4000002D3101809698003F4B4C0000900350BB
:102F50002DE9F843364B064698421CD0354B984233
:102F60001BD04FF43071344801F0C4F8324840F2BD
:102F7000793101F0BFF80020FEF798FCB4680746ED
:102F800014F001040BD03469240E0134B0FBF4F4C6
:102F90002046BDE8F8835620EEE75720ECE7D6F848
:102FA0003090DFF89880B568C14505F0E00504D998
:102FB00040F2E641204801F09DF8402D09EA080959
:102FC00010D007D855B3202D2CD0B36DDB0748BFE8
:102FD0006408DDE7602D27D0802DF6D14FF480788E
:102FE00000251DE04FF080080025032309F58079B6
:102FF00003FB09F900234A463846194600F068FEEB
:10300000554300FB08F408FB0355A2FB080100230D
:103010004A46294400F05CFE0444D6E74FF010080D
:103020000123E3E7A846DBE74FF04008D8E700BFFD
:103030000000015B00000A50E4500008F8FF7F0028
:10304000072838B504460D4603DD7721084801F00E
:1030500051F81F2C03D99121064801F04BF8064A7C
:10306000064B002D08BF13460122A2401A6038BD4E
:103070003751000888510008401004504020045087
:1030800010B5044618B991211F4801F033F8237890
:103090001B0613F0604F03D092211B4801F02AF861
:1030A000E3780F2B03D99521174801F023F801216C
:1030B0002020FEF7D3FB01212120FEF7CFFB0122C8
:1030C000124B15205A60227812069A606178A27815
:1030D00042EA01429A61FF229A6200229A631A64CC
:1030E0004FF000425A654FF0FF3203F500531A6566
:1030F00000F016FC1520E17800F020FCBDE810403F
:10310000152000F0A5BB00BF375100080000045097
:103110004FF48032064B5A6603F5E6239B69C3F3EE
:103120008512827003F03F021B0B427003707047E0
:103130000090005010B5044620B940F23A211048E2
:1031400000F0D8FF2378C3B1012B03D0022B14D099
:10315000032B04D13F236278D340DB0704D440F231
:103160003D21074800F0C6FF0122637821789A408C
:1031700030235943034B5A5010BD40F2FF33EAE766
:10318000D851000840E0035010B5044620B940F281
:103190005A21124800F0AEFF2378E3B1012B03D08F
:1031A000022B18D0032B04D13F236278D340DB07D6
:1031B00004D440F25D21094800F09CFF30222378BE
:1031C000534303F1A04303F57033586C6378D84040
:1031D00000F0010010BD40F2FF33E6E7D8510008CF
:1031E00010B5044620B940F26E21124800F082FF6B
:1031F0002378E3B1012B03D0022B18D0032B04D189
:103200003F236278D340DB0704D440F271210948A0
:1032100000F070FF30222378534303F1A04303F5FD
:103220007033186C6378D84000F0010010BD40F294
:10323000FF33E6E7D8510008034BD3F82424D3F832
:1032400020041040704700BF00C003502DE9F0413A
:10325000037804460D46164613B3012B03D0022B08
:103260001ED0032B04D13F236278D340DB0703D465
:103270005D21274800F03EFF264BD3F810331BB1E9
:103280006021234800F036FF0F2D0CD8DFE805F051
:103290003732323232323232323232323232323209
:1032A00040F2FF33E0E7B421194800F023FF4FF06C
:1032B0000008204606B301F01BFA0F216778237837
:1032C000072F03EB430388BF083F4FEA031312485D
:1032D00095BFBF00BF0004330C3308FA07F2B940B2
:1032E000184401F089F885B9204656B1BDE8F0418F
:1032F00001F0FEB9A846DCE7FFF71CFFDDE7A846B2
:10330000DBE7BDE8F041FFF715BFBDE8F08100BF86
:103310003252000800C0035030C003502DE9F0477E
:10332000037806460C461546002B50D0012B03D0DF
:10333000022B4CD0032B04D13F237278D340DA0701
:1033400004D44FF49C714A4800F0D4FE022D06D9F3
:10335000042D04D040F23911454800F0CBFE454F12
:10336000D7F8103323B14FF49D71414800F0C2FEED
:10337000002C2FDB73786340032B04D94FF49F712B
:103380003B4800F0B7FE0127072C05F005094FF078
:103390000308327805F0060507FA04F726DC4FEA41
:1033A000840A08FA0AF84146334802FA0AF201F0A0
:1033B00023F87278414602F00302304802FA0AF21A
:1033C00001F01AF8B9F1000F37D12D4B36E040F279
:1033D000FF33B2E7631C06D1D7F82414707801F0EC
:1033E0001AF8041ECFDA2046BDE8F087A4F1080AD7
:1033F0004FEA8A0A08FA0AF84146224802FA0AF213
:1034000000F0FAFF7278414602F003021E4802FA09
:103410000AF200F0F1FFB9F1000F14D01F2C0CDDFF
:1034200074211A4800F066FE194BC3F8107495B960
:103430007421164800F05EFE03E0154BC3F81074CB
:103440006DB90F4B0CE01F2CBFDD74210F4800F04D
:1034500051FE0B4BE9E774210C4800F04BFE0C4B7E
:10346000C3F814740123064AA340C2F82034BAE713
:103470003252000800C0035000C4035008C4035077
:1034800000E0035004C403500CC403508C520008E5
:1034900000D00350054B9A689107FCD45A689207F4
:1034A000F9D4DA69002AF6D1704700BF00800A50CB
:1034B00010B5074C6368DB0704D44FF49F710548CF
:1034C00000F018FE01F068F90223236110BD00BF6F
:1034D00000800A50E552000808B5FFF7DBFF012223
:1034E000024B03F580514A601A6108BD00800A5002
:1034F000044B10B55C68012C03D1FFF7D9FF024BD8
:103500005C6010BD00800A5000A00A5038B5074D1D
:10351000FFF7C0FF6B680446012B03D1FFF7E8FFFC
:10352000FFF7B8FF2378EB6038BD00BF00800A507A
:1035300038B505460C4601F039F9BDB96268237803
:1035400012B1127843EAC203627843EA4203A268E6
:1035500012B1127843EA8213E27843EA82032269C5
:1035600012B1127843EA4223014A936438BD00BF86
:1035700000800A5030B58D488BB001F02AFC20B194
:103580004FF44E718A4800F0B5FD6C46894D0FCD61
:103590000FC42B68884A2360FF238DF80130D2F8CE
:1035A0004C3113F4802340F0F580D2F850218DF88F
:1035B00001309DF801306C46FF2B08BF2C23684674
:1035C0007E4D8DF80130FEF7BDFC3220FEF71CFD6C
:1035D0000FCD0FC40FCD0FC495E8030084E803009E
:1035E000754BD3F84C21120340F1B880A3F5FE438C
:1035F0001C88B4F5807F28BF5F248DF81940FEF742
:103600009BFC044484F308046D488DF81840FCF7D3
:10361000ADFF6846FEF77EFB3220FEF7FBFC6948F3
:10362000FEF71EFE6848FEF7A9FE684801F0D1FBD0
:1036300020B140F2CB115E4800F05CFD644C0020EC
:10364000FEF7EEFCFEF7C2FD236F002023F0070318
:1036500043F003032367FEF7E3FD236F5D4923F483
:10366000744323675C4BD3F8FC2012F0807279D14D
:10367000D4F8803023F0030343F00103C4F8803012
:10368000C1F88020524CD4F8203123F0070343F0D6
:103690000203C4F82031D4F8283123F0070343F0A3
:1036A0000203C4F82831D4F8803123F0030343F037
:1036B0000103C4F88031D4F8403123F0030343F010
:1036C0000203C4F84031D4F8603123F0030343F01F
:1036D0000203C4F86031D4F8403223F0030343F00E
:1036E0000203C4F84032D4F8003223F0070343F059
:1036F0000203C4F80032D4F8083223F0070343F081
:103700000203C4F80832D4F8703223F0030343F004
:103710000103C4F87032D4F8203223F0070343F0D9
:103720000103C4F82032FEF7DDFA4FF0E02200205A
:10373000136943F004031361D4F8603223F00703E4
:1037400043F00103C4F86032D4F8943223F0070345
:1037500043F00103C4F894320BB030BDD3F85041AC
:10376000E4B24AE7D3F8FC2022F08072C3F8FC20D0
:10377000D4F8802022F0030242F00102C4F8802035
:103780000022C1F88020D3F8FC2042F08072C3F8F8
:10379000FC2077E74FF07E6393F89C2093F99C30F0
:1037A000002BFFF606AF8DF8012002E7C854000891
:1037B0000E540008845400080080E00F985400085C
:1037C000C017530200B4C404C0EA2101CC5400085D
:1037D000008000500090005000ED00E007B5094B5C
:1037E00018689A889B7900906846ADF804208DF897
:1037F0000630FEF74BFF0920FEF780FF002003B0E4
:103800005DF804FBC054000813B50024064A68465E
:10381000536F43F00103536700948DF80440FEF7A3
:1038200069FE204602B010BD004000500028ABBF2A
:1038300000F16040054B00F5614000F00F00ACBFA7
:1038400090F80003185C0009704700BF14ED00E019
:103850004C2810B5044608D801236109074A04F032
:103860001F04A34042F8213010BD4FF49871044862
:1038700000F040FC002CF7DBEEE700BF00E100E0C9
:10388000005500084B2810B5044604D940F23B11FE
:10389000064800F02FFC064B621153F8220004F09A
:1038A0001F04E040C04300F0010010BD00550008B7
:1038B00000E100E000F10C03572B10B5044604D9D9
:1038C00040F24B11144800F015FCEFF31083DB07B6
:1038D00002D50122104610BD2046FFF7D3FF024655
:1038E0000028F6D160B2FFF7A1FF0146EFF3118384
:1038F00013B1B0EB131FECD2084B5B68C3F30803A2
:10390000002BE7D0103B58B2FFF790FF814234BF45
:1039100000220122DEE700BF0055000800ED00E0B4
:10392000002808DB01224309034900F01F00824000
:10393000603341F82320704700E100E038B500F122
:1039400010035C2B04460D4604D94FF4EF710E486A
:1039500000F0D0FB0F2D04D940F2DF110A4800F02F
:10396000C9FB60B20028ACBF00F16040074B4FEAD2
:103970000515EDB2ABBF00F5614000F00F0080F817
:1039800000531D5438BD00BF0055000814ED00E081
:1039900010B501F00DFA0A4B1A786AB901226FF0DE
:1039A00004041A7001F0FFF9204605210134FFF7E5
:1039B000C5FF4C2CF8D110BDBDE8104001F0F3B9A3
:1039C000E113002007B501A8FFF7A2FB9DF8053021
:1039D000012B14D19DF804308BB94FF48012134B96
:1039E0001349586E03F580535A664B6B23F0E0532E
:1039F00043F040634B63C3025CBF0E4B5A6600F05A
:103A00002AFDFFF7C5FFFFF7E9FE00F022FDFFF7F3
:103A1000FBFE00F011F800F01FFD00F02CFD00F09F
:103A200050FD03B05DF804EB00F017BD00800050BE
:103A30000040005A00A0005070B501F0B9F9144ED2
:103A400005463478FCB9134B1C60134B1C60134BB8
:103A50001C6000F02BF8012001F027FA01F03CF97E
:103A60000F4B0246186020B9284601F09CF923202C
:103A700070BD234640F2E7310A4800F029F90A4BAD
:103A8000186001233370284601F08DF90020EFE71C
:103A9000E41300201C13002018130020241300201E
:103AA0002013002018FCFFFF1413002010B5002481
:103AB00086B01422214601A88DF8004000F024FDB4
:103AC000012313488DF8043001F083F9BFF34F8FC1
:103AD0006846FFF71BFD204601A98DF80440FFF75B
:103AE00027FD20460F2100F081FE0F21204600F027
:103AF0008BFEFFF7F1FC00F04FFE064B43209C616C
:103B0000FFF70EFF4320FFF7A3FE06B010BD00BF76
:103B1000C854000800800A5010B5044600F022FD89
:103B20004FF47A729042B0FBF2F105D23621BDE833
:103B300010400C4800F0DEBA0B4BB3FBF1F30B491D
:103B4000884201D93C21F2E702FB04F0B0FBF3F01C
:103B5000022806D9BDE810400323B0FBF3F0FCF7C0
:103B600007BB10BDDE55000840420F00E7CD9A3B71
:103B700008B500F04DF80448FCF768FFBDE80840C0
:103B80004FF47A7000F080B82E15002010B50A4C62
:103B9000237853B1094A136801331360DB0705D555
:103BA000074800F0AEFC0023237010BD0221042062
:103BB00000F048F8F7E700BFE513002028130020C5
:103BC0003C560008014800F0BCBA00BF545600083B
:103BD00018B1034B1860002070472520704700BFC4
:103BE0002C13002010B5054C05492068FDF7BCF9E1
:103BF0002068BDE81040FFF7EBBF00BF2415002090
:103C0000F8130020014B1868704700BF2C130020E8
:103C10004FF080620A4B5A6603F54C335A6E22F419
:103C200070625A665A6E42F480625A665A6E22F484
:103C300070225A665A6E42F480225A66704700BF5C
:103C400000900050012905D10B4A8140136F0B43AE
:103C50001367704739B90122074982400B6F23EA85
:103C600002030B6770470229FCD1012202498240FE
:103C70000B6F5340F5E700BF00C003500122014B1A
:103C80001A707047E51300202DE9F34100254FF02D
:103C900001080C4F04462B463A460146CDE9005830
:103CA000094800F02BFF06462B463A46CDE900585E
:103CB00024FA08F1054800F021FF304602B0BDE8C3
:103CC000F08100BF7D3C0008B41300209413002055
:103CD00053B94AB9002908BF00281CBF4FF0FF3173
:103CE0004FF0FF3000F082B9ADF1080C6DE904CE61
:103CF00000F006F8DDF804E0DDE9022304B07047C7
:103D00002DE9F04F099D0C46002B4DD18A420F46FC
:103D100084469646B2FA82F360D94BB102FA03FEAA
:103D2000C3F120029F4000FA03FC20FA02F217437D
:103D30004FEA1E461FFA8EF44FEA1C42B7FBF6F11B
:103D400006FB117701FB04F042EA0742904208D9D2
:103D50001EEB020201F1FF3702D2904200F23181E4
:103D60003946121A1FFA8CFCB2FBF6F006FB102241
:103D700000FB04F44CEA024C644508D91EEB0C0C21
:103D800000F1FF3202D2644500F21E81104640EA83
:103D90000140ACEB040C002125B12CFA03F3002206
:103DA000C5E90032BDE8F08F8B4205D90DB1C5E9F8
:103DB000000100210846F5E7B3FA83F100294DD14F
:103DC000A342C0F0F380904280F0F0800646234684
:103DD0000846002DE6D0C5E90063E3E7002B40F07C
:103DE000A3808A1A4FEA1E471FFA8EF60121B2FB02
:103DF000F7F407FB14204FEA1C4242EA004206FB9C
:103E000004F090420FD91EEB020204F1FF382CBFE0
:103E10004FF001094FF00009904203D9B9F1000FAA
:103E200000F0CC804446121A1FFA8CFCB2FBF7F06B
:103E300007FB102200FB06F64CEA024C664508D947
:103E40001EEB0C0C00F1FF3202D2664500F2B3808B
:103E50001046ACEB060C40EA04409DE7C1F1200699
:103E60008B4004FA01FE22FA06F720FA06FCF44021
:103E70008A401F434EEA0C0300FA01FE4FEA17483E
:103E80004FEA13491FFA87FCB4FBF8F008FB104413
:103E900049EA044400FB0CF9A1450ED93C1900F194
:103EA000FF3A2CBF4FF0010B4FF0000BA14503D997
:103EB000BBF1000F00F08B805046A4EB09041FFA01
:103EC00083F9B4FBF8F308FB134403FB0CFC49EA49
:103ED0000444A44506D93C1903F1FF3801D2A44596
:103EE0007BD8434643EA0040A4EB0C04A0FB0298B5
:103EF0004445CC46434602D306D1CE4504D20138D0
:103F0000B9EB020C68EB0703002D6CD0BEEB0C0282
:103F100064EB030422FA01F304FA06F6CC40002114
:103F20001E43C5E900643DE702FA03FEC3F1200128
:103F300004FA03F200FA03FCCC404FEA1E4720FAD1
:103F400001F11FFA8EF6B4FBF7F00A4307FB1044A9
:103F5000110C41EA044100FB06F48C420ED91EEB21
:103F6000010100F1FF382CBF4FF001094FF00009AB
:103F70008C4202D9B9F1000F2CD04046091B92B2F5
:103F8000B1FBF7F407FB141142EA014204FB06F10E
:103F9000914207D91EEB020204F1FF3801D291428F
:103FA0001ED84446521A44EA004120E7861A64EBC0
:103FB000030301200DE7F44402384AE7023C72444F
:103FC00031E702397244CCE6F4440238DFE60238C5
:103FD0003C4472E702387144D0E7023B3C4481E73D
:103FE000023C7244DEE72946DCE600BF704700BFB2
:103FF00008B5064B044613B10021AFF30080044B13
:104000001B6803B19847204600F075F800000000D7
:10401000D413002070B50D4D00260D4C641BA41068
:10402000A64209D10B4D00260B4C00F069FF641B22
:10403000A410A64205D170BD55F8043B013698473F
:10404000EEE755F8043B01369847F2E734150020B7
:104050003415002034150020381500200F2070473B
:1040600007B50421012300220DEB0100ADF8043057
:10407000FCF75EFB002003B05DF804FB70B5002583
:1040800006462C46052C20D8DFE804F003070B0F6A
:1040900013175B210820FCF7DFFA0C210820FCF73E
:1040A000DBFAD1210820FCF7D7FA80210820FCF7A1
:1040B000D3FA00210820FCF7CFFA6C1C2946E4B2A1
:1040C00008202546FCF7C8FA0624A4F10E03012BAC
:1040D00005D85A210820FCF7BFFA0134D2E7102C8A
:1040E00005D1BDE870405D210820FCF7B5BAB31FCB
:1040F000195DEFE7FEE7FEE7FEE700239A4200D1F5
:10410000704710B550F8234041F8234001339A42DC
:10411000F8D110BD4FF060420123D2F8001E834059
:104120000B430020C2F8003E70474FF0604101226F
:10413000D1F8003E824023EA02030020C1F8003E8D
:104140007047D0E90003184707B503788DF80430AD
:1041500043788DF80530837801A823B9FCF754FB28
:1041600003B05DF804FBFCF723FBF9E707B5037820
:104170008DF8043043788DF80530837801A823B991
:10418000FCF716FB03B05DF804FBFCF73DFBF9E719
:1041900007B503788DF80430437801A88DF8053011
:1041A00000F052FA03B05DF804FB13B5044603783F
:1041B0000DF103018DF80430437801A88DF8053026
:1041C000FCF750FBA3789DF803000BB980F00100C9
:1041D00002B010BD30B5C27EC37F85B004460D4627
:1041E0008DF800208DF8013081B30122042168464A
:1041F000FCF79EFA237F01228DF8043094F82030DA
:10420000022101A88DF80530FCF792FA94F83530B8
:10421000023B012B17D8637F00228DF8083094F8F9
:104220002130012102A88DF80930FCF781FA002223
:104230000421A37F8DF80C3094F822308DF80D30D6
:1042400003A8FCF775FA002005B030BD0A466846A1
:10425000FCF76EFA237F2A468DF8043094F820305C
:10426000294601A88DF80530FCF762FA94F835303C
:10427000023B012BE7D8637F2A468DF8083094F87B
:104280002130294602A88DF80930FCF751FAA37FA6
:104290002A468DF80C3094F8223029468DF80D30DE
:1042A000CEE7002307B58DF8033090F83530022BA8
:1042B0000BD1437F0DF103018DF8043090F82130CC
:1042C00001A88DF80530FCF7FFFA9DF8030003B054
:1042D0005DF804FB37B590F835500446022D21D126
:1042E000417E827F90F8223049B98DF804208DF804
:1042F000053001A8FCF788FA002003B030BD012981
:1043000007D18DF804208DF8053001A8FCF750FA8C
:10431000F2E7017E8DF804208DF8053001A8002910
:10432000F4D1E7E7012DE7D1037E6BB911238DF8B6
:104330000430FCF7C3FD2A46204601A9FCF736FDF0
:104340002046FCF7D3FDD7E71323F0E770B5054609
:1043500014460E4600F023FD2B685C4034405C4060
:104360002C60BDE8704000F015BD08B500F00CF9F8
:10437000BDE808400021FDF745BA0029CCBF012166
:104380000021FDF73FBA02214FF42070FDF788BEEF
:1043900070477047436D0B42FCD1704708B54368C6
:1043A000DA0714D58368DB0702D50369D90707D577
:1043B0000A2350218363FFF7EDFF836C9A07FCD13A
:1043C000012200F500535A6043689B07FCD408BDE6
:1043D000836C5B06FCD541647047836C5A06FCD540
:1043E0004164836C1B06FCD5C06B80B27047836947
:1043F0005B06FCD5C163704770B5054614460E4692
:1044000000F0CDFC2B685C4034405C402C60BDE883
:10441000704000F0BFBC21FA00F2D20730B503466D
:1044200000F0FC040FD500220132D2B2042A02D1DE
:104430004FF0FF3008E0831803F00303234421FA10
:1044400003F5ED07F0D4184630BD00F000B80020A9
:104450007047FFF78FB87047704708B500F028F82D
:1044600000F030F800F03BF800F03BF8BDE8084001
:1044700000F038B8704708B500F016F800F015F8ED
:1044800000F014F800F013F8FFF7F4FF08BD08B5CA
:1044900000F029F800F028F800F027F8BDE80840FF
:1044A00000F024B8FFF7DCBD7047704770477047D5
:1044B00008B5FBF7F3FEFFF7C8FFBDE80840FBF7C0
:1044C000E1BE704708B5FCF761F8FCF715F9FFF796
:1044D00079FBFFF787FBBDE80840FBF7E5BEFFF778
:1044E000BDBD70477047704770477047704708B54B
:1044F000FFF768FAFFF73CFBFFF7C9FFFFF746FB42
:10450000FAE703690068184702440346934200D162
:10451000704703F8011BF9E7014B1868704700BFAB
:10452000EC1300200A4B1B6F03F00703013B032B26
:1045300003D8DFE803F00A030608FEE7054B186816
:104540007047054BFBE7054870470548704700BFBB
:1045500000800050EC130020F413002080D54302AB
:10456000002D310108B5FFF7DDFF054B1B6FC3F3CD
:1045700003330133B0FBF3F0024B186008BD00BFFA
:1045800000800050E81300200048704700B4C404C5
:1045900000487047002D3101014B1868704700BF7B
:1045A000F41300200048704780D543024FF40022E6
:1045B000184B5A664FF0B4439868C0F304400C2877
:1045C0000AD8DFE800F00B090909090907211909D0
:1045D0001B1D1F0010487047002070479B6803F0A8
:1045E0004073B3F1807F11D0B3F1007F10D00B4A3C
:1045F000002B08BF104670470948704709487047AC
:10460000094870470948704709487047094870478A
:104610000948704700900050405DC60000093D0009
:10462000C0EA210180BA8C010048E801005A620208
:104630000024F40080841E0040420F00014B1868E3
:10464000704700BFF013002038B5044630B9144855
:104650004FF48A71FFF74EFD222038BD03788BB1ED
:10466000012B03D0022B0DD0032B04D13F23627802
:10467000D340DB0709D40A484FF48C71FFF73AFDA9
:104680002120EAE740F2FF33F1E700F091FB054615
:10469000204600F057F8284600F085FB0020DCE7B4
:1046A000544F00080C4B1B787BB107280FD871B111
:1046B0000A4B03EB00131B7B5BB1094BDB6AC34066
:1046C00003F0010300200B7070470648704706484E
:1046D00070470648704700BFD9130020841200209D
:1046E00000000450028000F0018000F0078000F01C
:1046F00010B5044620B94FF4D8711048FFF7FAFC02
:104700002378C3B1012B03D0022B14D0032B04D187
:104710003F236278D340DB0704D440F2B31107484B
:10472000FFF7E8FC0122637821789A40302359434F
:10473000034B5A5010BD40F2FF33EAE7D85100084E
:1047400040D0035010B5044620B940F29D211048D6
:10475000FFF7D0FC2378C3B1012B03D0022B14D078
:10476000032B04D13F236278D340DB0704D44FF4FA
:1047700028710748FFF7BEFC0122637821789A4030
:1047800030235943034B5A5010BD40F2FF33EAE740
:10479000D851000840F00350034B5A68D20702D5A5
:1047A000DA69002AF9D1704700800A5038B9064BFF
:1047B0005A68D20702D59A6D002AF9D170478C2128
:1047C0000248FFF797BC00BF00800A504153000821
:1047D00010B9044B5964704740F2C7110248FFF703
:1047E00089BC00BF00900A504153000810B9044B27
:1047F0005964704740F203210248FFF77BBC00BFB9
:1048000000A00A504153000810B9044B19647047C6
:1048100040F23F210248FFF76DBC00BF00A00A50E4
:104820004153000808B510B9044B186C08BD044882
:1048300040F27A21FFF75EFC0020F7E700800A5083
:104840004153000838B504460D46FFF7AFFF14B9D1
:104850001DB1012D04D0002001E0034BD86C38BD00
:10486000014B186DFBE700BF00800A5070B506468B
:104870000D461446FFF79AFF16B915B1012D03D066
:1048800070BD034BDC64FBE7014B1C65F8E700BF20
:1048900000800A5070B50D46E8B1036813F4E07F5C
:1048A00003F03F06C3F3821210D0012A13D10B4C40
:1048B0009B0603D591210A48FFF71CFC45B104F57E
:1048C000805401230020B340236070BD054CEFE706
:1048D00004F50054F5E70E20F7E700BF68800050AC
:1048E000885100086480005030B50E4C4161236847
:1048F0008BB9206083600DE0891A9A681D4641617A
:104900006AB113465A698A42F6D935B1A860521A7B
:1049100083605A6130BD0025F4E72060F7E79860B6
:104920008260F7E71C1300200D490B68A0B100223C
:10493000A3B1834203D1836822B90B6003E01A4616
:104940009B68F5E7936083680BB9002070475A694C
:1049500041690A445A61F8E72220704702207047F3
:104960001C13002038B500F0AFF90025084B094CA6
:104970001A682368C31A2AB123B15169994203D333
:10498000C91A5161206038BD55615B1A9268F2E71F
:104990001C1300201813002038B5154D2B682BB3BD
:1049A0005B69A3B1134A022014681C4400F07DFA2D
:1049B000204600F09DF900230F492A680B7022B1B0
:1049C000D08880070AD501230B70002038BD022053
:1049D00000F06BFA022000F0D5F9ECE79268002AAB
:1049E000F3D050690344012BEAD9EEE72220EDE72A
:1049F0001C13002018130020E313002070B5164686
:104A00009DF81420C0E903360271049ABDF81830ED
:104A10000260002204460D468260C380EEB900F0B9
:104A200053F92844A0619DB12E4600F0B8F905461F
:104A3000FFF798FF31462046FFF756FF104B1B68E3
:104A4000A34201D1FFF7A8FF284600F0A3F902E036
:104A5000E36865617BB9002070BD00F035F9304432
:104A6000A061002DE0D1E3686561002BDDD0204618
:104A700021689847D9E7204621689847EBE700BFAF
:104A80001C13002038B50C460546A8B1A1B100237F
:104A90000B7000F08DF90121084B1B6833B900F051
:104AA00082F9002038BD9D4204D121702278002A6D
:104AB000F9D0F4E79B68F1E72220F3E71C1300200C
:104AC000F8B50C4B05461B680E4683420FD30024F5
:104AD00040F2E7302146084B4FF47A721F680023FA
:104AE000E5FB0701FFF7F4F830602046F8BD212010
:104AF000FCE700BF14130020201300202DE9F04133
:104B00009846002386B00D46174606468DF81330AA
:104B100080B30DF11301FFF7B5FF9DF813305BBBB8
:104B2000284605A9FFF7CCFF0446F8B9134B4FF40C
:104B30007A7218680023A5FB0001FFF7C9F8C2F5D7
:104B40007A7189B2B1F57A7F08BF0021BDF834309F
:104B5000B183F483059A02939DF830301146CDE974
:104B6000008330463B46FFF749FF0446204606B027
:104B7000BDE8F0812224F9E70224F7E720130020A2
:104B8000C2072DE9F843044607D54B4A13680133A1
:104B90001360FFF7E7FEFFF7FFFEA30740F18A80EF
:104BA00000F006F94FF0000805464646FFF7DAFE2A
:104BB000424F3C680CB16369A3B10022404B012E07
:104BC0001A7003D118F0020F18BF1E70FFF7E4FE31
:104BD000222802D1022000F0C3F82846BDE8F8439D
:104BE00000F0E1B823465A693AB91A79217991421D
:104BF00088BF1C469B68002BF5D1284600F0D3F8EF
:104C00002569DDB100F060F8A269A0EB02084FEA67
:104C1000E873A84573F1000311DB23691344A36112
:104C2000E36813B1204621689847B4F8068000F085
:104C3000BFF801360546FFF795FEBAE7A84600F033
:104C4000B7F881462046FFF76FFE484600F0ABF804
:104C50002369002BE4D0B5EB08054FEAE87363EB5A
:104C60004303012D73F1000304DA40F24761154854
:104C7000FFF740FAA38B33B1E28B13449BB2B3F539
:104C80007A7F0FD2E38300F093F8804629462046CE
:104C9000FFF72AFEA369226940461344A36100F08E
:104CA00082F8BDE7A3F57A73E383A369013D013B75
:104CB000A361E8E7BDE8F883241300201C1300205B
:104CC000E21300207A55000808B5FFF765FD014B97
:104CD000986908BD00800A5007B5044B01A91879EE
:104CE00000F072F8019803B05DF804FBDC54000892
:104CF000F8B5044600F053F80746FFF74DFD154B95
:104D00009D6900F0CEF806460020FFF78BFD830773
:104D100004D4731B032B01D8AE420FD10021631BB7
:104D2000022B98BFEC1C0846B4F1FF3F2CBF224673
:104D3000621EFFF79BFD022000F0B7F8384600F036
:104D400029F8054B1A7822B10121044A9164002206
:104D50001A70F8BD00800A502D15002000900A50EE
:104D6000830700F0010106D50123044A41F0020146
:104D70001370034A93640020FFF738BD2D150020FF
:104D800000A00A50830742BF0222014B1A647047F9
:104D900000900A5010B962B6BFF36F8F7047EFF3FF
:104DA000108072B6704780F31188BFF36F8F704721
:104DB000EFF31180302383F3118870474FF40040E4
:104DC00070474FF47A70704709B100F008B822209C
:104DD00070470121FFF75EBD0021FFF75BBD70B595
:104DE00006460D46FFF7E4FF0446202E56D8DFE8BE
:104DF00006F0111A551F222555282B552E553134F2
:104E000055373A3D554055435552555555465549E8
:104E1000554C4F00FFF786FB002628602046FFF721
:104E2000C2FF304670BD4FF4C070FCF73FFDF3E7A2
:104E30004FF42070F9E74FF44070F6E74FF46070DC
:104E4000F3E74FF40070F0E74FF48060EDE74FF4C4
:104E50004060EAE74FF4C060E7E74FF4F060E4E752
:104E60004FF4B060E1E74FF4D060DEE74FF410603C
:104E7000DBE74FF4E060D8E74FF4A060D5E74FF4EC
:104E80002860D2E74FF48070CFE74FF42060CCE782
:104E90004FF44860C9E74FF40860C6E700202126B8
:104EA000BBE700210846FFF7CDBC00F001018307F6
:104EB00048BF41F002010020FFF78ABC38B5FFF778
:104EC00077FF04460020FFF7ADFC830700F00105E3
:104ED00048BF45F0020500F003010020FFF794FCF5
:104EE0002846FFF74DFE2046BDE83840FFF75BBF80
:104EF00000000000000000000000000000000000B2
:104F0000F8B500BFF8BC08BC9E467047F8B500BFB6
:104F1000F8BC08BC9E467047050000000000000079
:104F200080969800020100000000000000000000D0
:104F3000010000000000000000000000010000006F
:104F40000000000000000000010400000201020255
:104F500002030204433A2F55736572732F7375630E
:104F600075742F53696D706C6963697479537475C6
:104F700064696F2F53444B732F73696D706C696351
:104F80006974795F73646B2F706C6174666F726D96
:104F90002F6472697665722F6770696F2F73726301
:104FA0002F736C5F6770696F2E63001E00000343F0
:104FB0003A2F55736572732F73756375742F536928
:104FC0006D706C696369747953747564696F2F537C
:104FD000444B732F73696D706C69636974795F7387
:104FE000646B2F706C6174666F726D2F656D647287
:104FF000762F756172746472762F7372632F756188
:1050000072746472762E63000500000000000000D8
:1050100000C20100000500000010000000000000B8
:1050200000000000050000000000000000C20100B8
:10503000000200000010000000000000000000005E
:1050400000000000433A2F55736572732F73756328
:1050500075742F53696D706C6963697479537475D5
:1050600064696F2F53444B732F73696D706C696360
:105070006974795F73646B2F706C6174666F726DA5
:105080002F656D6C69622F7372632F656D5F636D41
:10509000752E6300433A2F55736572732F737563D2
:1050A00075742F53696D706C696369747953747585
:1050B00064696F2F53444B732F73696D706C696310
:1050C0006974795F73646B2F706C6174666F726D55
:1050D0002F656D6C69622F7372632F656D5F656DEF
:1050E000752E6300433A2F55736572732F73756382
:1050F00075742F53696D706C696369747953747535
:1051000064696F2F53444B732F73696D706C6963BF
:105110006974795F73646B2F706C6174666F726D04
:105120002F656D6C69622F7372632F656D5F657596
:10513000736172742E6300433A2F55736572732F37
:1051400073756375742F53696D706C6963697479D5
:1051500053747564696F2F53444B732F73696D706B
:105160006C69636974795F73646B2F706C617466CA
:105170006F726D2F656D6C69622F7372632F656D31
:105180005F6C646D612E6300433A2F5573657273D3
:105190002F73756375742F53696D706C69636974CF
:1051A0007953747564696F2F53444B732F73696D12
:1051B000706C69636974795F73646B2F706C617470
:1051C000666F726D2F656D6C69622F696E632F65F6
:1051D0006D5F6275732E6800433A2F557365727365
:1051E0002F73756375742F53696D706C696369747F
:1051F0007953747564696F2F53444B732F73696DC2
:10520000706C69636974795F73646B2F706C61741F
:10521000666F726D2F7065726970686572616C2F50
:10522000696E632F736C5F68616C5F6770696F2E66
:105230006800433A2F55736572732F7375637574E5
:105240002F53696D706C69636974795374756469FF
:105250006F2F53444B732F73696D706C696369745E
:10526000795F73646B2F706C6174666F726D2F70F1
:1052700065726970686572616C2F7372632F736CED
:105280005F68616C5F6770696F2E6300433A2F55EA
:10529000736572732F73756375742F53696D706CBA
:1052A000696369747953747564696F2F53444B73E0
:1052B0002F73696D706C69636974795F73646B2FA8
:1052C000706C6174666F726D2F706572697068655D
:1052D00072616C2F696E632F736C5F68616C5F62C3
:1052E00075732E6800433A2F55736572732F73756B
:1052F0006375742F53696D706C6963697479537445
:105300007564696F2F53444B732F73696D706C69AB
:10531000636974795F73646B2F706C6174666F720C
:105320006D2F7065726970686572616C2F696E634C
:105330002F736C5F68616C5F7379737274632E682E
:1053400000433A2F55736572732F73756375742F0D
:1053500053696D706C696369747953747564696FAE
:105360002F53444B732F73696D706C696369747943
:105370005F73646B2F706C6174666F726D2F7065F4
:10538000726970686572616C2F7372632F736C5FE2
:1053900068616C5F7379737274632E6300433A2F94
:1053A00055736572732F73756375742F53696D70C0
:1053B0006C696369747953747564696F2F53444BD6
:1053C000732F73696D706C69636974795F73646B53
:1053D0002F706C6174666F726D2F7365727669637E
:1053E000652F636C6F636B5F6D616E616765722FB4
:1053F0007372632F736C5F636C6F636B5F6D616E51
:10540000616765725F68616C5F73322E6300433A57
:105410002F55736572732F73756375742F53696D90
:10542000706C696369747953747564696F2F534440
:105430004B732F73696D706C69636974795F736402
:105440006B2F706C6174666F726D2F736572766905
:1054500063652F636C6F636B5F6D616E616765720F
:105460002F7372632F736C5F636C6F636B5F6D611F
:105470006E616765725F696E69745F68616C5F73A6
:10548000322E63000126000004000000000000002E
:1054900000010000000000000B0000000C000000F4
:1054A00003000000000020200000000002000000B7
:1054B0003C3C3C0000000000000000000000000038
:1054C00001031001010903001E0000001600000086
:1054D0001A000000570000005600000000800A502B
:1054E00013000000C854000800000A500A00000021
:1054F000D45400080000015B15000000D8540008D7
:10550000433A2F55736572732F73756375742F53F8
:10551000696D706C696369747953747564696F2F10
:1055200053444B732F73696D706C69636974795F51
:1055300073646B2F706C6174666F726D2F7365721C
:10554000766963652F696E746572727570745F6DCC
:10555000616E616765722F7372632F736C5F696E22
:10556000746572727570745F6D616E616765725F8C
:10557000636F727465786D2E6300433A2F557365BF
:1055800072732F73756375742F53696D706C6963D3
:1055900069747953747564696F2F53444B732F7317
:1055A000696D706C69636974795F73646B2F706C7B
:1055B0006174666F726D2F736572766963652F73A0
:1055C0006C65657074696D65722F7372632F736C8F
:1055D0005F736C65657074696D65722E6300433A24
:1055E0002F55736572732F73756375742F53696DBF
:1055F000706C696369747953747564696F2F53446F
:105600004B732F73696D706C69636974795F736430
:105610006B2F706C6174666F726D2F736572766933
:1056200063652F7564656C61792F7372632F736C7A
:105630005F7564656C61792E630000002E15002093
:105640004D0A0008494100086D41000891410008D9
:10565000AB410008311500204D0A000849410008FF
:0C5660006D41000891410008AB410008BA
:08566C009CABFF7F0100000070
:0C56740080560008E813002055000000DC
:10568000C0EA2101C0EA210100800000C0175302D6
:105690000000015B0000000000C2010000000506E0
:1056A00000000010000000000000000000010500E4
:1056B00000000000A41400202414002000000000BA
:1056C00000000600000000000000000000000000D4
:1056D00000000000000000000000000000000000CA
:1056E00000000000000000000000000000000000BA
:1056F00000000000000000000000000000000000AA
:105700000000000000000000000000000000000099
:105710000000000000000000000000000000000089
:105720000000000000000000000000000000000079
:105730000000000000000000000000000000000069
:105740000000060000000000000000000000000053
:105750000000000000000000000000000000000049
:105760000000000000000000000000000000000039
:105770000000000000000000000000000000000029
:105780000000000000000000000000000000000019
:105790000000000000000000000000000000000009
:1057A00000000000000000000000000000000000F9
:1057B0000000000000000000000000003013002086
:1057C000FFFFFFFF2801010201010201E5010008BE
:0457D000BD0100080F
:04000005080004915A
:00000001FF
