S0200000626F6F746C6F616465722D756172742D62676170692D6372632E7333372B
S315080000000810002071010008E11F0008DD20000823
S31508000010E11F0008E11F0008E11F0008E11F0008B2
S31508000020E11F0008E11F00088C260008E11F0008F0
S31508000030E11F00083C260008E11F0008E11F000830
S31508000040E11F0008E11F0008E11F0008E11F000882
S31508000050E11F0008E11F0008E11F0008E11F000872
S31508000060E11F0008E11F0008E11F0008E11F000862
S31508000070E11F0008E11F0008E11F0008E11F000852
S31508000080E11F0008E11F0008E11F0008E11F000842
S31508000090E11F0008E11F0008E11F0008E11F000832
S315080000A0E11F0008E11F0008E11F0008E11F000822
S315080000B0E11F0008E11F0008E11F0008E11F000812
S315080000C0E11F0008E11F0008E11F0008E11F000802
S315080000D0E11F0008E11F0008E11F0008E11F0008F2
S315080000E0E11F0008E11F0008E11F0008E11F0008E2
S315080000F0E11F0008E11F0008E11F0008E11F0008D2
S31508000100E11F0008E11F0008E11F0008E11F0008C1
S31508000110E11F0008E11F0008E11F0008E11F0008B1
S31508000120E11F0008E11F0008E11F0008E11F0008A1
S31508000130E11F0008E11F0008E11F0008E11F000891
S31508000140E11F0008E11F0008E11F0008E11F000881
S31508000150E11F0008E11F0008E11F0008E11F000871
S31508000160E11F0008E11F0008E11F0008E11F000861
S3150800017008B50B4B83F30A880A4B07A1D1E900019E
S31508000180C3E9000100F07EF800F07AFB00F054F8AD
S3150800019000F066F800F01AFBA5EDF5FEA5EDF5FEF4
S315080001A008000020081000200348044B834202D0B0
S315080001B0034B03B11847704714130020141300208B
S315080001C000000000064B0749C91A891048BF0131CB
S315080001D0491003D0044B0BB101481847704700BFBC
S315080001E014130020141300200000000010B5064C5C
S315080001F0237843B9FFF7D8FF044B13B10448AFF38C
S3150800020000800123237010BD32100020000000007A
S31508000210D827000808B5054B1BB105490548AFF3B3
S315080002200080BDE80840FFF7CDBF00BF0000000012
S3150800023010100020D8270008064B0748DA1C121AA7
S31508000240C11E22F00302994288BF0022034902F028
S3150800025024B900BF14130020B4120020E4270008B4
S31508000260064B0748DA1C121AC11E22F003029942ED
S3150800027088BF0022002102F008B900BFB41200208E
S3150800028010100020044B054A9A60D3F8882042F4DF
S315080002907002C3F88820704700ED00E000000008EF
S315080002A030B5174BADF50F7D01AC0FCB84E80F00C9
S315080002B02C22002105A802F0E8F86825FF234FF450
S315080002C09472002144A88DF8153002F0DEF82A460B
S315080002D0002110A802F0D9F82A4600212AA802F01F
S315080002E0D4F820232AAA10A944A800F07FFE2246A3
S315080002F044A905A800F034F80DF50F7D30BD00BF00
S315080003001826000800B5C3B000F050FBB0F5027F10
S315080003100DD14FF484720021684602F0B6F8A02386
S315080003208DF803300D4B6846019301F05FFE4FF4DC
S3150800033084720021684602F0A8F8A0238DF80330DD
S3150800034004238DF8043001F0A6FECDF807006846B0
S3150800035001F04CFE43B05DF804FB00BF0200014605
S31508000360F0B5ADF5097D04460E46174600214FF453
S31508000370847246A802F089F820238DF81B310223DF
S315080003808DF81C314FF48472002104A802F07DF820
S315080003904FF47A7500F0A4FC0028FBD001230095E1
S315080003A0194603AA0DF1130000F0BEFC9DF81330A0
S315080003B0202BEFD101230321009503AA05A800F0FD
S315080003C0B3FC0028DED1039B032BDBD19DF8145028
S315080003D075B140F6B8332946009303AA01230DF1F7
S315080003E0170000F0A1FC0028CCD1039B9D42C9D17F
S315080003F09DF81530002B54D19DF81650022D0DD0BE
S31508000400032D1FD0012DBDD18DF81E518DF81F313A
S315080004108DF8203146A801F0E9FDB3E721463046BC
S315080004209DF81730009706AA00F01AFE8DF81E519F
S3150800043028B141F20703984214BF46200020ADF8C0
S315080004401F01E7E7A3788DF81E5143B3E378002B25
S315080004500CBF4623002346A8ADF81F3101F0C6FDA0
S31508000460A378002B8ED0E378002B8BD023785A07FD
S3150800047006D5A06A01F014FE10B1184800F036F946
S3150800048023789B077FF57EAF656801F004FE8542F9
S315080004907FF678AF616A114800F0DEF872E7462306
S315080004A0D9E7012B7FF46EAF9DF81630012B02D0E9
S315080004B01F2B7FF467AFA37833B1E37823B940F2F3
S315080004C0032000F049FA5DE79DF81730012B0CBFB1
S315080004D040F2022040F20120F3E700BF0080000846
S315080004E0B0F5BB1F70B50E46144619D2C0F5BB133E
S315080004F000F10065934205F5004511D348B94FF060
S3150800050000639B6A074A5969914202D9186900F043
S3150800051053FA224631462846BDE8704001F06EBDC2
S3150800052070BD00BF008000087FB56FF0006200F163
S3150800053078419142034619D26D460D4A02F11006DA
S315080005402C4610685168083203C4B2422546F7D1D2
S315080005505A1E04A90F3311F8014D12F8010F8442EF
S3150800056004D19A42F7D1012004B070BD0020FBE700
S3150800057028260008F0B50368044603F16043B3F57E
S31508000580802F9FB031D84FF00067BB6A42681E695A
S3150800059096422AD82E4B9A4227D8456B06F1400236
S315080005A0AA4252D89D4250D82846FFF7BDFF0028D8
S315080005B04BD0284601F055FD80B16B6973B1022B0B
S315080005C00ED1AB69C4F1040119444FF0FF3220463D
S315080005D001F066F81F4BC31A584258411FB0F0BDC8
S315080005E07F6B3846FFF7A0FF08B90020F6E7A6F1AB
S315080005F050039F42F9D8284603A901F039FD00287F
S31508000600F3D0039DAE42F0D8AC42EED8104B9D42D3
S31508000610EBD804A801F008F921462A1B04A801F022
S3150800062082FE04A801F081FE01F00EF9044601F0ED
S3150800063029F923460090294605F1200204A801F06D
S3150800064073F8B0FA80F04009C8E70120C6E700BF92
S3150800065000001808E320BBDE70B54FF0FF3292B0F9
S3150800066005460C4601F01CF81C4B984232D14FF453
S3150800067080621B4B00219A6601A8202201F005FF23
S31508000680184B29466846043C009301F087FF21462B
S31508000690684601F083FF684601F089FF01F03EFFD6
S315080006A00646B8B940F2022000F04AF9202231463F
S315080006B00AA801F0EAFE0C4B294609A8099301F09D
S315080006C06DFF09A8214601F069FF09A801F06FFF2F
S315080006D001F024FF002012B070BD00BFE320BBDE8E
S315080006E00090004001000543010006434FF4806274
S315080006F030B50446154B93B09A660021202201A80E
S3150800070001F0C3FE124B21466846009301F046FFEE
S31508000710684601F04CFF01F001FF054698B940F222
S31508000720022000F00DF9202229460AA801F0ADFEA4
S31508000730084B09A82146099301F030FF09A801F0E2
S3150800074036FF01F0EBFE002013B030BD00900040EC
S3150800075000000243000003434FF4806210B50F4BBC
S315080007608CB004469A660021202204A801F08DFE6A
S315080007700B4B00940393012301930A4B694603A884
S31508000780029301F031FF03A801F011FF01F0C6FE44
S31508000790B0FA80F040090CB010BD00BF00900040D0
S315080007A00000084304000020004870470080000845
S315080007B040B139B100230B60034B03600B6843F467
S315080007C000230B60704700BF0C12000813B501A880
S315080007D001F098FA9DF80530012B14D19DF80430E4
S315080007E08BB94FF48012234B2349586E03F5805377
S315080007F05A664B6BC00223F0E05343F040634B63E9
S315080008005CBF1E4B5A664FF04023D3F8842011066E
S3150800081006D44FF400621A67D3F88420D206FBD4B4
S3150800082001F04EFC00F076F801F0DBFB01F0DBFB93
S3150800083018B14FF4017000F08FF8FFF731FD044648
S3150800084001F0D3FB34B940F2012000F085F84FF4EB
S31508000850017009E040F203739C42F4D0A4F20574D7
S31508000860012CF4D840F2032000F076F8002002B0FC
S3150800087010BD00BF008000400040004A00A00040B4
S31508000880012307B58DF806308DF807304FF0402361
S31508000890D3F894305A060AD500F072F8A0F202206E
S315080008A080B2072803D8C923C340DB0702D400F067
S315080008B0D7FA20B100238DF806308DF80730134B90
S315080008C05B68013308D14FF4027000F039F8002351
S315080008D08DF806308DF807309DF807305BB10B4868
S315080008E0FFF748FE8DF806009DF806301BB94FF451
S315080008F0027000F025F89DF8063023B10348044B32
S31508000900986001F0E1FB03B05DF804FB00600008A5
S3150800091000ED00E04CF23C32014B5A80704700BFB4
S31508000920000000204AF6C030044B5B8823F00F0312
S315080009309BB21B1A58425841704700BF000000205E
S31508000940044A08B51080FFF7EDFF10B94FF20F0300
S31508000950538008BD0000002008B5FFF7F1FFBFF37C
S315080009604F8F0549054BCA6802F4E0621343CB6012
S31508000970BFF34F8F00BFFDE700ED00E00400FA0566
S315080009804FF20F01084B5A888A4201D118887047DE
S315080009903AB91B8840F20220012B18BF4FF40070A9
S315080009A070474FF40070704700000020014B18880C
S315080009B0704700BF000000204FF4803208B5044B92
S315080009C09A6601F005F9B0FA80F0400908BD00BF43
S315080009D000900040072BF8B506460F4614461D46FC
S315080009E001D90020F8BD0121202001F06DF8012170
S315080009F0212001F069F88CB144EA06039B07F0D17F
S31508000A004FF48032064B31469A66284623463A46C4
S31508000A1001F006F9B0FA80F04009E3E70120E1E7C2
S31508000A20009000401FB510220E4B5A6600F0CEF912
S31508000A304FF47A23B0FBF3F00B4B0F22186000211A
S31508000A400DF1010001F021FD01238DF8003040F27F
S31508000A50FF3369460548ADF8023001F09CFC05B045
S31508000A605DF804FB00900040281000200080044038
S31508000A7030B50D4D0D4A2D68536A15FB00F515FA6C
S31508000A8083F09CB280B2A0422CBF00240124084BFC
S31508000A901880084B1C7011B1536A8342FCD101239C
S31508000AA005494B61936130BD281000200080044041
S31508000AB0301000203310002000A00440094B0A4AD9
S31508000AC05869127800F001000AB108B9704738B9B8
S31508000AD0586A064B1B88984234BF0020012070478D
S31508000AE00120704700800440331000203010002099
S31508000AF02DE9F047DFF84491494BD9F80020494FD2
S31508000B0002F13C01996002F124037B627B604FF09D
S31508000B108063DFF82CA101250AF58058C8F86430EF
S31508000B204FF40073C8F8643002F580535D6040F6F0
S31508000B30AA630024536141F205033B4E3B4802F584
S31508000B4000519460D465D3601461D461D464886418
S31508000B50C6F82047C6F83847C6F83047C6F82847C3
S31508000B60C6F82C47D3609368936000F02FF9DAF83B
S31508000B7070300821C3F380232B44B0FBF3F24FF403
S31508000B80E11302F5E1425201B2FBF3F2284B203A97
S31508000B9003EAC203D9F800202046D3612B46042273
S31508000BA000F0ACFF2B462A460921204600F0A6FF96
S31508000BB01423C6F820374FF40023C6F838374FF405
S31508000BC01023042221462846C6F830372B4600F063
S31508000BD095FF0522D9F800304FF0F0515A610323EA
S31508000BE04FF48020134AC8F8643055609160124962
S31508000BF05462946314645465486002301466D4657C
S31508000C0017678860A1F50051C2F89040C2F88C4079
S31508000C104B630223956402F580521361BDE8F087A1
S31508000C20F4120020B412002000C00340FFFF0100A8
S31508000C30F8FF7F0000000440004004400413002031
S31508000C4000800040084B586B10F0020006D00222C4
S31508000C509A6203F5005301205A637047DB6A9B07C3
S31508000C60FBD40222014BF6E70000044000200440B2
S31508000C7070B54E1E7E2E0446154622D8FFF7E2FFB3
S31508000C8010B32046124B214410F8012B884203F872
S31508000C90012BF9D10F4B1A8866F30E121A800E4AE9
S31508000CA0C2F8A030022393640DB9002070BDFFF787
S31508000CB0C9FF0028FBD0094B1A6893699B06FCD527
S31508000CC0F3E741F20310F1E741F20620EEE700BF31
S31508000CD034100020F4120020000004400413002001
S31508000CE00E4A0F4B106840F20112DB6E934205D193
S31508000CF090B10023C0F500701844704740F20222F4
S31508000D0093420EBF4FF48073064A9B1A984202D04C
S31508000D10F0D2181A70470020704700BF2C10002028
S31508000D2000000440B41000202DE9F843089D04464D
S31508000D300E461746F3B9FFF7D3FFB04228BF304631
S31508000D4000214FF001084FF002091D4A054604EB41
S31508000D50000C1368DFF870E01A4864451CD101B12D
S31508000D60136007B13D6041F20420AE4298BF0020EF
S31508000D70BDE8F8832DB1FFF755FE00212846FFF799
S31508000D8077FEFFF7ADFFB042D5D2002DF9D0FFF7B9
S31508000D9095FE0028F5D0CEE71EF803100133B3F50B
S31508000DA0007F04F8011B04D10023C0F8109001212C
S31508000DB0D3E7B3F5807F08BFC0F81080F7E700BF18
S31508000DC02C10002000100440B410002030B51C4B35
S31508000DD087B001AA03F11005144618685968083344
S31508000DE003C4AB422246F7D11B782370154B1B6F01
S31508000DF003F00703032B1FD04FF48022124B5A66C9
S31508000E00124A9368C3F30443102B17D818336B445C
S31508000E100F4913F8143C4B430E498B4203D1926891
S31508000E20C2F30162D340074A106FC0F303300130A2
S31508000E30B3FBF0F007B030BD074BF4E7074BF2E71A
S31508000E40D4260008008000400090004000000140C1
S31508000E5040420F0000093D0000F04902C0EA2101A6
S31508000E604FF080620D4B10B55A66012304221946CD
S31508000E70184600F043FE012302221946184600F0E0
S31508000E803DFE074B00225C6F01231846194600F009
S31508000E9035FE6FEA540000F0010010BD00900040D6
S31508000EA000C0034030B5024600230C25054905FB62
S31508000EB003F460180C59944203D001330C2BF6D175
S31508000EC0002030BDE8260008F0B50023082787B0C3
S31508000ED0CDE9013315463B46009704AA044601F0BE
S31508000EE090F941F203039842064623D194F8433019
S31508000EF053B13A46E06C04A901F015FA04AA3B4638
S31508000F001146A06C01F0FEF9059A049B6A6094F8F4
S31508000F1043202B6052B9094A934207D0084A9342A4
S31508000F2004D00822E06C04A901F0FDF96B6823657A
S31508000F3000236365304607B0F0BD00BFF70A0AF71D
S31508000F40FC0404FC2DE9F04799465B6804460F4605
S31508000F509046002B3FD08B0740D14FF000639B6A29
S31508000F60006E1B6981181D1DA9421BD31C339842AC
S31508000F7018D2A842024638BF2A46994294BFC2EB05
S31508000F80010AC2EB030A101A3E18C5F1680010449C
S31508000F9031465246204401F080FA5246FF21304637
S31508000FA001F073FA226E0F4B9A420BD80E4902EBE8
S31508000FB00800884206D39B1AFA58C4F880204FF0D6
S31508000FC0FF32FA50D9E9003542463946206EA8471D
S31508000FD0236E434423660020BDE8F08741F20200F1
S31508000FE0FAE700BF04800008088000082DE9F041F0
S31508000FF000254FF0FF3704468846164603F02003BF
S3150800100080F842301822FF21C0E91855A0F8405050
S3150800101080F84350A0F8445080F84650C0F88870CD
S31508001020683001F032FA88222946C4E91286C4F8E3
S315080010308070C4F8847004F1900001F026FA074B1A
S31508001040C4F82071C4E9463584F8245116B13046EF
S3150800105000F0EAFB0020BDE8F08100BF00010101B5
S315080010602DE9F04F9BB09946CDE9072300230446A6
S315080010700E464FF00108249D09930999B8E094F8A3
S3150800108046300C2B00F2B080062B7BD908FA03F207
S3150800109012F4286F40F0DF8112F4885F40F09E81D9
S315080010A00A2B40F0A580DFF810B4636D072B00F219
S315080010B04E814FF0080A38232046CDE90188CDF83D
S315080010C000A00CAA07A901F09CF841F20303984274
S315080010D040F0A780337843F0040333700D9BB36266
S315080010E073785F071CD50020236DCDF828B0C4F8A7
S315080010F0843094F84530606643F0020384F845303E
S31508001100EF686FB104222B680AA9B847606E2B688E
S315080011105246EF680CA95044B847636E10336366AD
S315080011200B2384F84630C0E7A3F10E02052A00F225
S315080011303F82DFE812F0AD020600F500EE01EE018F
S31508001140AB020027636D0F2B00F29A80102320460E
S315080011500093CDE9018740230AAA07A901F051F8AF
S3150800116041F2030398425CD1D4F848A000F0A8FBEA
S3150800117080230221CDE900030BAA0123504600F083
S31508001180A7FADFE7013B052B37D8DFE813F07B002A
S31508001190750006006401D3002F010127636D072B34
S315080011A000F2D580082320460093CDE90177402335
S315080011B00AAA07A901F025F841F20303984230D19B
S315080011C0337843F0020333700A9B7360236D083B40
S315080011D073620B9BB3F1006F00F0E080132384F871
S315080011E0463041F201001CE0A3F10D02062A9BD904
S315080011F04945FFF444AF002064E020460AAA07A93F
S31508001200FFF762FE41F2030398420AD10B9B0A9A42
S31508001210236500236365A64B9A42DFD1022384F82F
S31508001220463041F203030590059A9A423FF425AFEA
S3150800123047E0082320460093CDE9018740230AAA00
S3150800124007A900F0DEFF41F203039842E9D10A9BA1
S3150800125003F07F43B3F1407F05D0132341F2090021
S3150800126084F84630DDE70B9BD80706D594F842305C
S3150800127043F0010384F842300027636D072BD8D961
S315080012800123B0E020460AAA07A9FFF71DFE41F28E
S3150800129003039842074609D10A98FFF703FE024658
S315080012A098B9132341F2080784F8463041F203033C
S315080012B00597059A9A423FF4E0AE059B0BB10023C9
S315080012C0F37005981BB0BDE8F08F437994F82411A4
S315080012D0994205D9132341F20E0784F84630E5E70B
S315080012E001687448814205D01189C90748BF01338E
S315080012F084F8243194F84230D8070DD5118994F82A
S315080013004330890706D53BB1132341F2010784F818
S315080013104630CBE7002BF7D0137984F84630C5E77B
S31508001320226D0123A265002284F84330E26584F821
S315080013304630A2E600213C220BA80A91012701F0BB
S31508001340A4F8D4E91432934204D884F8467041F2DA
S31508001350030066E7009320464023CDE901770AAAF1
S3150800136007A900F04EFF41F2030398427FF459AFF4
S315080013700DF1280C06F108030DF1400E624603CA6A
S31508001380724518605960944603F10803F6D110684F
S315080013901860337843F001033370D2E7042384F8E6
S315080013A0463094F8453043F0010384F8453000236D
S315080013B06366F3E6042320460093CDE901774023CC
S315080013C00AAA07A900F01DFF41F2030398427FF419
S315080013D028AF226D0A9B042A01D923660127636D6B
S315080013E0032BE7D9092384F84630B0E70023636660
S315080013F007239CE79F423ED89F4228BF1F464023AB
S315080014002046CDE9018800970AAA07A900F0F9FE47
S3150800141041F2030398427FF404AF94F846B0BBF157
S31508001420070F37D0042FC7F1040A88BF4FF0000A08
S315080014300AAB5246FF21D81901F027F8BBF1090F6C
S31508001440BA443BD12B46524620460AA9FFF77AFDF5
S3150800145000287FF4E6AED4E914739F427FF610AFF6
S31508001460FF1ADDE908329B1A94F84020032F13442B
S31508001470C0D9032B05D8204607A900F0A1FE0020F5
S31508001480CFE6402F28BF40279F4228BF1F4627F098
S315080014900307B4E7D5F808A0BAF1000FC2D02B6845
S315080014A03A46606E0AA9D047636E3B446366D2E744
S315080014B0EB17A603F90707F9EB17A65EBBF1040FAE
S315080014C01DD173789807C6D5EB68002BC3D0626E1A
S315080014D0042A0BD80AEB0203062B07D90BAB9B1A77
S315080014E01A68C4F884204FF0FF321A60EF682B6838
S315080014F05246606E0AA9B847636E5344D6E7BBF1F5
S315080015000B0FA8D173785907A5D5EF68002FEED130
S31508001510A1E74FF000618A6A496B1269503A914215
S315080015203FF65FAE112B0AD194F81831002B7FF4E1
S31508001530A7AE132341F2060084F8463071E694F804
S315080015404430002B7FF49CAECDE90133402320467E
S3150800155000930AAA07A900F054FE41F20303984231
S315080015607FF45FAEE06C00F0E0FE94F818316BB1E2
S3150800157004F1B4030093E06C04F1940312AA0AA9D7
S3150800158000F0D2F878B10023F370D2E7D4F84CA073
S3150800159000F05AF9074600F075F93B46009012AA82
S315080015A050460AA9ECE70123F37084F8443067E64D
S315080015B000234FF00408CDE9013320464023CDF837
S315080015C000800AAA07A900F01CFE41F2030398420C
S315080015D009D1D4F88820304B9A4206D0132341F219
S315080015E0050084F8463005906BE60123F37094F8FD
S315080015F04530DA0707D5EF682FB1424640462B68D3
S3150800160004F18401B84794F845309B0707D5EF687D
S315080016102FB104222B68104604F18401B847236EC3
S315080016206BB36F685FB34FF0FF3304F18008042291
S31508001630414606A8069300F018FF20B10422414649
S315080016402B681648B84704F168090422494606A8D3
S3150800165000F00BFF98B14FF000639B6A1422D3F891
S31508001660108004F16C0108F10800D5E90037B84785
S31508001670D5E900370422494608EB0200B84701239A
S31508001680B3700E23002084F84630ACE70023F370CD
S3150800169041F2070016E600BFE320BBDE048000081F
S315080016A030B50824094B00255C66012403F5FE23A2
S315080016B05C6001449D601A61DC60884201D1586A09
S315080016C030BD10F8012B1A62F7E700BF0090004002
S315080016D02DE9F04116464FF480621D46114B00F184
S315080016E0200804469A6640460F4600F09FFEDDE94C
S315080016F00612404600F09EFE002384F85870636484
S315080017003368C4F859307368C4F85D30B368C4F8F0
S3150800171061302B0C6DBA84F86530A4F86650BDE8C4
S31508001720F08100BF009000402DE9F04315464FF4C4
S3150800173080621C46364B9BB0DDF888900E460746FD
S315080017409A66002861D000295FD0002D5DD0002C54
S3150800175058D0304B304AB9F1000F14BF984690461E
S315080017602022002112A800F090FE2C4B414611A819
S31508001770119300F013FF202111A800F00FFF01229A
S31508001780274B029403920493CDF81490069207937C
S3150800179054B1B9F1000F07D002A911A800F03CFE18
S315080017A005A911A800F038FE089701271C4C08A9BE
S315080017B011A809970A9400F02FFE0BA911A80B96F9
S315080017C00C970D940E950F97109400F025FE0EA910
S315080017D011A800F021FE11A800F0E9FE114B0193B3
S315080017E04FF098435A6CD202FCD55B6D40F2046008
S315080017F003F470230193019B002B08BF00201BB044
S31508001800BDE8F083DFF81080AAE740F20160F6E74A
S31508001810009000401F2400801F24FC84000001065D
S3150800182020000020785634124FF4806210B5044622
S31508001830044B9A6600F07CFD2046BDE81040002166
S3150800184000F07ABD009000404FF4806200B50B4B63
S315080018509BB09A6600212822684600F016FE4023AF
S31508001860002168460AAA00F05FFA20F01000012855
S31508001870034818BF00201BB05DF804FB0090004029
S315080018804CE317084FF4806200B50B4B9BB09A6681
S3150800189000212822684600F0F8FD4023002168460A
S315080018A00AAA00F041FA20F010000128034818BFE0
S315080018B000201BB05DF804FB009000406CE317089D
S315080018C00048704786E217082DE9F3471446DDE914
S315080018D00A920D461F4600284DD14CB313683F2B7C
S315080018E02AD8516851B32549002F14BFB8468846EF
S315080018F003F03F061B19136022BF53680133536078
S31508001900FEB93F2C0ED9A3092A46009341463B4609
S31508001910002000F083F824F03F031D4404F03F0440
S3150800192034B100262246294609EB060000F0B5FD2B
S31508001930002002B0BDE8F087B846D9E7DFF83C805A
S31508001940D6E7C6F1400A5445ECD32946524609EB78
S31508001950060000F0A2FD0123264400934A463B46B2
S3150800196041460020A6F1400400F058F83F2C5544A3
S31508001970D6D9B846C7E70248DBE700BFB82700084C
S3150800198080AFFFFF2DE9F0411746146886B01E4662
S31508001990E3008DF80F3063098DF80E30630B8DF870
S315080019A00D30630D8DF80C3053680546DA0002EBEE
S315080019B054728DF80B2004F03F045A09372C8DF821
S315080019C00A204FEA53324FEA53538DF809208846C6
S315080019D094BFC4F13802C4F17802CDE900178DF836
S315080019E008300D4903460020FFF76EFF08222B46F4
S315080019F00020CDE900870DEB0201FFF765FF2846B9
S31508001A0005F1200350F8042B984246F8042BF9D127
S31508001A10002006B0BDE8F08178270008F0B5174623
S31508001A204FF480621D46264B93B09A6624220E46D2
S31508001A30044600210DEB020000F027FD01204FF0BF
S31508001A40005200970190029203960490059206951B
S31508001A5007900892002C2FD1189C1A4BA4012146F6
S31508001A6009A8099300F09AFD029B03A91C43029456
S31508001A70059B09A843F020030593089B43F0200320
S31508001A80089300F0C9FC694609A800F0C5FC06A938
S31508001A9009A800F0A9FD09A800F089FD4FF09843B0
S31508001AA05A6CD202FCD55B6D13F4702F14BF6FF01D
S31508001AB06F00002013B0F0BD6FF07100FAE700BFA9
S31508001AC00090004000040103430905D0012B0CD007
S31508001AD0022B084B18BF002300F01F0039B103F58D
S31508001AE08053012282401A607047034BF4E703F5DE
S31508001AF00053F6E768800040648000402DE9F04115
S31508001B0005460F461E4690464AB101233022194C17
S31508001B108B4002FB004436B304F5825423600F2140
S31508001B20072F05EB450388BFA7F108044FEA0313FF
S31508001B30114895BFBC00A40004330C3308FA04F21C
S31508001B40A140184400F011FCB8F1000F09D1012397
S31508001B503021084ABB4001FB05223EB102F58252FC
S31508001B601360BDE8F08104F50154D7E702F5015288
S31508001B70F6E700BF00C0034030C00340F0B5114A85
S31508001B80114C124E00F00105E3695F0713D40DB935
S31508001B90334213D103EA00078F4207D10B4A1A4092
S31508001BA0002A0CBF00206FF00100F0BD013AEBD10E
S31508001BB06FF00200F9E74FF0FF30F6E76FF001002B
S31508001BC0F3E700BF8096980000000340020001007A
S31508001BD04FF4803238B50E4B0E4C9A66E56941F6DD
S31508001BE0713315400122E3630B4B0021DA600223AF
S31508001BF0606121202361FFF7C1FF10B92120FFF79B
S31508001C00BDFF0122054BDA600DB10023E36338BD41
S31508001C1000900040000003400010034000200340ED
S31508001C202DE9F04F01264FF430258400DFF8C4C0B3
S31508001C3004F1402404F58024CCF80460656030255E
S31508001C4000244FF48037DFF8B0E0DFF8B09005FBEA
S31508001C5000E5EC652C662C67214CDFF8A4A0A76686
S31508001C6041F671341F4F06FA00F0D7F81C80FC6362
S31508001C701D4CE66043B901211C4A18F4803FD16027
S31508001C8029D10020BDE8F08F01F5005404EA0904C3
S31508001C90641A9C4228BF1C467961D7F81CB0A6086E
S31508001CA01BF0040F19D1013E360146F060566E66E8
S31508001CB0AA66C5F86CA0CCF82400DEF83460304279
S31508001CC0FBD00B4E214470630426CCF8280022442E
S31508001CD03E611B1BCEE7FB63D3E74FF0FF30D1E72E
S31508001CE0009000400000034000100340002003401D
S31508001CF000200440001004400000044000E0FFFFFC
S31508001D00180003404FF48032064B5A6603F5E62363
S31508001D109B69C3F38512827003F03F021B0B427066
S31508001D2003707047009000401FB5044660B35AB36D
S31508001D30402B29D1930727D1042925D8DFE801F0BC
S31508001D40031A24221E004FF4807310490B432360A4
S31508001D500023C4E9013323620123019202930C4B49
S31508001D60204601A9039300F03FFC204600F0B4FB8F
S31508001D7004B010BD4FF400730449E7E705494FF472
S31508001D808063E3E70149FAE72120F1E7010008FF4C
S31508001D9040000020000008FF2DE9F0410129054612
S31508001DA00E4690461F4692B04AD8046824F040036F
S31508001DB0802B02D0B4F5807F45D1202200210AA8C5
S31508001DC000F063FB234A244B0121012E08BF13466A
S31508001DD009932B1D0093E408204B44F0005401910D
S31508001DE009A80294CDF80C800491059306970791EB
S31508001DF06946089300F010FB03A909A800F00CFB3C
S31508001E0006A909A800F0F0FB296809A8C90800F086
S31508001E10C5FB102109A800F0C1FB00F04BFBA8B9CF
S31508001E2009A800F0C4FB4FF098435A6CD202FCD5BF
S31508001E305C6D00F049FB04F4702012B0BDE8F08137
S31508001E406FF02000F9E76FF07100F6E74FF0FF300A
S31508001E50F3E700BF000100040001010410000020A0
S31508001E602DE9F04F074689469846164699B082B13D
S31508001E7015683B6823F04002802A03D0B3F5807FBB
S31508001E8040F0A68000244C4505D306B135600020F5
S31508001E907BE01546EDE75DB1239B229A1B5D525DFB
S31508001EA001355340249A05F00F0513550134EAE726
S31508001EB0A9EB040ABAF10F0F0BD8239B03EB040A0C
S31508001EC0249B1C44239B03EB090BDA4560D14C4643
S31508001ED0D9E72022294610A800F0D7FA3E4B3A68DF
S31508001EE00F933B1D00930123D20842F00052019341
S31508001EF002923A4ACDF80C8004930592CDF81880E0
S31508001F0007930892239A249922442AF00F0A0992E1
S31508001F1021444AF000520A930FA80B920C91694685
S31508001F200D930E9200F078FA03A90FA800F074FA40
S31508001F3009A90FA800F070FA0CA90FA800F054FB25
S31508001F4006A90FA800F050FB39680FA8C90800F0C9
S31508001F5025FB51460FA800F021FB00F0ABFA90B91B
S31508001F600FA800F024FB4FF098435A6CD202FCD518
S31508001F70586D544400F4702B00F0A6FABBF1000F1C
S31508001F809BD0584601E04FF0FF3019B0BDE8F08FFE
S31508001F9055B1229A1AF8013B525D0135534004F8AF
S31508001FA0013B05F00F0590E7424601213846229B82
S31508001FB0FFF7F2FE0028E8D108F1100212F8013DF9
S31508001FC00133DBB21370002BE3D19045F6D1E0E77D
S31508001FD06FF01F00D9E700BF0303000410000020BC
S31508001FE0FEE700F009B8FEF78DB9704701790122BE
S31508001FF004310330FEF73CBEFEF77ABDC0F30C038E
S315080020002DE9F04105460F4616460BB9FEF7D4FCF6
S3150800201005F5005424F4FF5424F01F0405EB0608C4
S31508002020A04507D8324639462846BDE8F04102237E
S31508002030FEF7D0BC2046FEF7BFFC04F50054EFE7D8
S3150800204070B44FF00065AD6A03462E69864206D81D
S315080020506C6913449C4202D370BCFFF7CFBF70BCB7
S315080020607047036913F0FE0F0CBF0120002070476C
S3150800207038B504460D46FEF757FA38B16369012BA1
S3150800208007D12046FFF7EDFF10B1A46901202C60A7
S3150800209038BD0020FCE74FF000639B6A98687047DC
S315080020A04FF0FF3313B5044601A80193FEF754FB1E
S315080020B020B1019BA3422CBF0020012002B010BD15
S315080020C0002070470020704703461846016881F3D0
S315080020D0088881F3098840688746FEE74FF401704F
S315080020E0FEF73ABCB1F50D7F10B504460FD34FF491
S315080020F00D72002100F0C9F904F5DE7204F5AA7123
S3150800210004F12C000023BDE81040FEF76FBF40F233
S31508002110052010BD13B50446009101462C30FEF784
S315080021209FFFC4F8300218B141F20703984204D160
S31508002130A37823B1E07800F2022002B010BD40F285
S315080021400120FAE72DE9F04387B00DF108090446A6
S315080021500E4617460021102248461D46DDF83880EF
S3150800216000F093F900211C22C8F80010284600F058
S315080021708CF932463B462146CDF8009004F12C00F6
S31508002180FEF76EFF23789A0744BF6268C8F80020F6
S31508002190DB0709D504F1080304F1240253F8041BEC
S315080021A0934245F8041BF9D1237840F20640002BE8
S315080021B018BF002007B0BDE8F0834FF40D707047D4
S315080021C070B5D1E90152AA4205D290F840302B44A5
S315080021D09B1A402B10D9002012E00A6890F840405C
S315080021E0D65C90F841200133224402F03F020134C4
S315080021F086548B6080F840408B689D42EDD801205C
S3150800220070BD2DE9F84390F840C017469E46D1E9BF
S315080022100123089DD21A6244954204460E469DF84B
S3150800222024909DF828800AD9FFF7CAFF002867D1AD
S31508002230132341F2020084F84630BDE8F883754559
S3150800224055D8002394F840200AB19D4235D1D6E9E5
S315080022500121914201D29D4241D89D424DD1294644
S315080022603846D4F88820FFF71BFAC4F88800B9F175
S31508002270000F04D02A463946E06C00F054F894F86A
S315080022804330B8F1000F06D08BB12B463A46394693
S31508002290A06C00F037F894F8433043B1E36DA26DB3
S315080022A02B449342E36524BF002384F84330636DCF
S315080022B041F203002B446365BFE794F84120A25C12
S315080022C0FA5494F841200133013202F03F0284F8AF
S315080022D0412094F84020013A84F84020B2E7326859
S315080022E0525CFA54B26801330132B260AFE741F288
S315080022F00100132384F846309FE741F20200F8E70D
S3150800230000209AE71FB50C46194600F14803CDE9A7
S315080023100142009300F1440200F158032030FFF710
S315080023209FFD04B010BD00F00CB8014600F016B8C9
S315080023306822002100F0A9B803460020C3E900007E
S31508002340704707B500F128030190009300F10803D0
S315080023500020FFF7B9FA03B05DF804FB02460B4606
S3150800236000F128010830FFF70DBB70B50546144685
S315080023700E4600F0E1F82B685C4034405C402C6067
S31508002380BDE8704000F0D3B8036BDA0702D50369DD
S315080023905B06F9D4704710B5FFF7F6FF012204462D
S315080023A000F500531A63236B9B07FCD40B794A8804
S315080023B01B0243EA82438A7A13434A7843EA821322
S315080023C0CA7A43EAC2130A7B43EA42134A7B43EAC0
S315080023D002138A7B43EAC203CA7B43EAC2238A7989
S315080023E043EA0243CA7943EA42430122636004F599
S315080023F080531A630A780AB90223E36000236362EA
S315080024004B79087A1B01497A43EA80030B43A36098
S315080024100AB10123E36010BD436813B941607047F0
S315080024205B685A68012AFBD159607047242200214B
S3150800243000F02BB870B515460E4624220021044636
S3150800244000F023F825F04003802B02D0B5F5807FF5
S3150800245008D12046314640F8045BEA0800F01DF82A
S31508002460002070BD6FF01F00FBE70139024410B56C
S31508002470904201D1002005E0037811F8014FA342EC
S3150800248001D0181B10BD0130F2E7024403469342FF
S3150800249000D1704703F8011BF9E70A44431E91422D
S315080024A000D1704710B511F8014B914203F8014F5E
S315080024B0F9D110BD4FF48062024B9A66BFF34F8F75
S315080024C000207047009000404FF48062014B0020C6
S315080024D09A66704700A0004008B5C0B14FF4806204
S315080024E00C4B9A66BFF34F8F00F061F84FF0984394
S315080024F05A6CD202FCD54FF48062586D064B10F424
S3150800250070209A6604D0BDE8084000F019B821206A
S3150800251008BD00BF0090004000A000404FF098435F
S315080025205A6CD202FCD5586D00F47020704710B969
S3150800253062B6BFF36F8F7047EFF3108072B67047BD
S31508002540B0F5802F22D010D8B0F5003F20D007D89C
S3150800255018B3B0F5803F08BF482018BF0120704760
S31508002560B0F5403F08BF2C20F7E7B0F5302F11D063
S3150800257007D8B0F5E02F0FD0B0F5202F08BF1020F0
S31508002580EBE7B0F57F0F08BF0620E6E74B2070475C
S315080025902A2070471120704721207047036A042BB0
S315080025A09FBF00EB83020133D16003627047036A61
S315080025B0052B14D84FF09842116CC902FCD5043388
S315080025C09B0013650168103B11604168116050F863
S315080025D0081F11604FF098420344984200D1704793
S315080025E050F8041F1160F8E7836813B981607047D3
S315080025F05B685A68012AFBD15960704700000000E1
S31508002600F8B500BFF8BC08BC9E467047F8B500BFD1
S31508002610F8BC08BC9E467047000000004120000830
S3150800262000000000E1040008B814B6F1E0CFF3ADED
S31508002630B7DD25C9FA79B7130000000013B779FA90
S31508002640C925DDB7ADF3CFE0F1B614B80102000035
S3150800265002000000442800084000000002000103B0
S31508002660000000000000000000000000000000005C
S31508002670000000000000000000000000000000004C
S3150800268000000000000000000000000007B0CD5E5A
S31508002690020000000200010348280000006000084C
S315080026A000001808F0041000C1200008C520000822
S315080026B075050008E520000815210008000000003F
S315080026C045210008BB21000800000000B1070008EA
S315080026D0A90700080400000700000D1013001A20BF
S315080026E02630384050000000EB17A6030201000010
S315080026F003000000FA0606FA0F04000003000000B3
S31508002700F40A0AF40505000001000000EB17A65EAE
S315080027100A06000001000000F50909F50307000094
S3150800272001000000F60808F6060800000000000090
S31508002730FE0101FE0808000000000000FD0303FD7D
S315080027400C08000000000000F90707F9100900004E
S3150800275002000000F30B0BF3110A0000030000004F
S31508002760F70A0AF7120B000003000000FC0404FC39
S315080027700D0C0000030000008000000000000000AF
S31508002780000000000000000000000000000000003B
S31508002790000000000000000000000000000000002B
S315080027A0000000000000000000000000000000001B
S315080027B000000000000000006A09E667BB67AE85F6
S315080027C03C6EF372A54FF53A510E527F9B05688C05
S315080027D01F83D9AB5BE0CD19E4270008B4120020AB
S315080027E018000000F00F100300000000B4100020CD
S315080027F013000000090000000001000002020000AA
S3150800280013000000F00F100300000000B4110020B0
S31508002810130000000900000000020000010100008A
S31508002820D3FFFFFFF07F10303410002000000000B7
S315080028300000000000C0054029000000150200083D
S30D08002840ED010008B576F4620B
S503028575
S70500000000FA
