:020000040801F1
:10200000C80A0020792A0108A3F50208A3F50208EE
:10201000B5150308A3F50208A3F50208A3F5020805
:10202000A3F50208A3F50208A3F50208A3F5020828
:10203000A3F5020824D4030865160308A3F50208D3
:10204000A3F50208A3F50208A3F50208A3F5020808
:10205000A3F50208A3F50208A3F50208A3F50208F8
:10206000A3F50208A3F50208A3F50208A3F50208E8
:10207000A3F50208A3F50208A3F50208A3F50208D8
:10208000A3F50208A3F50208A3F50208A3F50208C8
:10209000A3F50208A3F50208A3F50208A3F50208B8
:1020A000A3F502083D2E01081D2E0108A3F5020824
:1020B000A3F5020805A40208B1AE02086394030860
:1020C0005F94030841A60208799403086794030803
:1020D00081AE02086B940308F1AE020859AF020802
:1020E000A3F50208A3F50208A3F50208A3F5020868
:1020F000870F0308A3F50208A3F50208A3F5020859
:10210000A3F50208A3F50208A3F50208A3F5020847
:10211000A3F50208A3F50208A3F50208A3F5020837
:10212000A3F50208A3F50208A3F50208A3F5020827
:10213000A3F50208A3F50208A3F50208A3F5020817
:10214000A3F50208A3F50208A3F50208FDD20308CF
:1021500075890208A3F502084D94030853940308F7
:10216000A3F50208A3F50208A3F50208A3F50208E7
:10218000F0B5114A114C124E00F00105E3695F07EA
:1021900013D40DB9334213D103EA00078F4207D19C
:1021A0000B4A1A40002A0CBF00206FF00100F0BD5E
:1021B000013AEBD16FF00200F9E74FF0FF30F6E79C
:1021C0006FF00100F3E700BF809698000000035015
:1021D000020001000B4B70B5D96911F480310DD1AB
:1021E00001244FF48072084E084DF46020462C64A0
:1021F0001A61FFF7C5FF3464EC6070BD6FF0010039
:10220000FBE700BF00000350001003500020035004
:102210004FF4803238B50E4B0E4C9A66E56941F6A4
:10222000713315400122E3630B4B0021DA60022376
:10223000606121202361FFF7A3FF10B92120FFF780
:102240009FFF0122054BDA600DB10023E36338BD27
:102250000090005000000350001003500020035075
:1022600070B5134C6061E3695B071ED40E4656F8E7
:10227000043B8D18A361AE420BD104230021212021
:102280002361FFF77DFF58B9BDE870402120FFF7BB
:1022900077BF08210846FFF773FF10B104232361BD
:1022A00070BD56F8043BA361E5E74FF0FF30F7E758
:1022B000000003502DE9F84315464FF48032184BC7
:1022C00089469A6603F51C33DF690646174041F6D6
:1022D0007132DA63012203F58053DFF84C80DA6053
:1022E00055B9284601220F4BDA601FB10022A3F531
:1022F0000053DA63BDE8F88306F5005404EA0804E5
:10230000A41BAC4228BF2C46494622463046FFF764
:10231000A7FF0028E6D12644A1442D1BE0E700BF1B
:10232000009000500020035000E0FFFF000000007C
:10233000000000000000000000000000000000009D
:10234000013800D0FCE7704707B588B10BA3D3E98B
:1023500000230949C1E90223CDE900234FF0FF32F0
:102360004FF0FF33086926F04EFB03B05DF804FB25
:1023700000220023EDE700BF500B00200DD50155D2
:10238000200000000348044B834202D0034B03B1FA
:10239000184770473C2900203C290020000000001D
:1023A000064B0749C91A891048BF0131491003D0AB
:1023B000044B0BB101481847704700BF3C2900206F
:1023C0003C2900200000000010B5064C237843B9DA
:1023D000FFF7D8FF044B13B10448AFF3008001238B
:1023E000237010BD8024002000000000103004087D
:1023F00008B5054B1BB105490548AFF30080BDE8A2
:102400000840FFF7CDBF00BF00000000B00D002066
:1024100010300408A3F5803A704700BF174B002B1B
:1024200008BF134B9D46FFF7F5FF00218B460F4673
:102430001348144A121A20F0B4F80E4B002B00D0A7
:1024400098470D4B002B00D0984700200021040036
:102450000D000D48002802D00C48AFF3008007F0B3
:102460006FF92000290020F066F807F057F900BF47
:10247000000008000000000000000000C80A002062
:10248000C80A002080250020000000000000000095
:10249000044B834205D1044B1B7813B1C8B211F031
:1024A000E9BA7047C80D00208124002030B500250E
:1024B0000368354A23F47F4323F0070385B0934232
:1024C00004460295ADF80C5038D002F1C06202F516
:1024D000802293420BD02D4A934253D12C4B1B7830
:1024E000002B4FD005B0BDE830401FF0B7B8B0F8B2
:1024F00005301B2B46D1FF2304A91A4611E903001E
:102500001CF0F4FF012814BF41F2FC15204B4FF0E2
:102510001B0108BF187005F0FC0220790EF034FC96
:1025200008B100BEFDE71B49009023791A4A0968EB
:102530001A4800F071F828B300BEFDE7B0F8053086
:10254000B7EE047A07EE903AF8EE677AB0F8073003
:1025500067EE877A013307EE103AB8EEC77A67EE76
:10256000877AB1EE047A67EE877AFAFE677AFCEE34
:10257000E77A17EE903AB3F57A7F38BF4FF47A7363
:10258000044A136005B030BDA0000602A000060199
:10259000812400204C27002091240108C80D002030
:1025A00038B505462AF034FC00230B4A14685CB1A8
:1025B000AC4206D1A96A6BB199622AF024FC0120D1
:1025C00007E02346A46AF2E7002DF3D02AF01BFCB3
:1025D000204638BD1160F0E7000E002010B504461B
:1025E000B0B12AF08BF92046FFF7DAFF10B194F86A
:1025F0002C300BB9002010BD064C2368002BF9D0FD
:102600002AF006FC2368013B23602AF0FCFBF1E77B
:102610002220F0E7040E00202DE9F04385B00546A6
:10262000914698460E469DF8307009B9002F5CD14E
:102630002846FFF7D3FF0446002836D185F82C0042
:10264000686305F0E3FE864233D92AF0EFF92146AC
:10265000844640F2E7304FF47A720023E6FB0C0127
:1026600006F0CCFE4FF0FF32002306F0C7FE2B46EB
:10267000E88611462846CDE900441D4A2AF0D5FDDA
:10268000044690B9C5E9089885F82D702E632AF0A4
:10269000BFFB184A136833B31A469B6A002BFBD161
:1026A00095620023AB622AF0AEFB204605B0BDE880
:1026B000F08347B12B4631462846CDE900440C4A09
:1026C0002AF006FADCE7304603A92AF0B5F90446F9
:1026D0000028EAD12B462846CDE90077044A039921
:1026E0002AF07FFDCCE71560DBE72124DDE700BFA2
:1026F000F9260108000E002091F82C3013B50C4685
:1027000083B98B8ECA8E93420ED243B9CDE9003382
:1027100020460B46124A4FF0FF312AF046FDA38EA9
:102720000133A38602B010BD52B191F82D3093B1A0
:1027300001230093D1E908232046096BFFF76CFFC2
:10274000012384F82C30074B1A6801321EBF1A6827
:1027500001321A60E6E708462AF0D0F8F0E700BF39
:10276000F9260108040E00202DE9F041154E3368CA
:1027700033B34FF00008144F2AF04AFB05463C687B
:1027800024B92846BDE8F0412AF03DBB94F82C302E
:10279000A3B1336884F82C8013B13368013B3360F4
:1027A00094F82D3013B92046FFF7FAFE28462AF098
:1027B0002AFBD4E9083120469847DDE7A46ADFE721
:1027C000BDE8F081040E0020000E0020034B1B68C2
:1027D000002B14BF04200120704700BF040E00200E
:1027E000024B1868B0FA80F040097047040E0020D0
:1027F00008B504482AF04DFC1FF057FEBDE808401C
:1028000000F01CB858E7030801482AF042BC00BF9A
:1028100058E7030807B508201CF0D1FE0222064B3A
:102820006846CDE900231CF078FE082003B05DF86F
:1028300004EB1CF0CFBE00BF006A18102DE9F04F6A
:10284000544E97B0354609AC0FCD0FC42B6806F136
:10285000140523600EAC0FCD0FC495E80F00DFF810
:102860004C8184E80F004C482AF013FC40462AF0C3
:1028700010FC4FF48073494FADF83C30484B38465C
:102880000B9309A90EAB0D9303F07CF90421B6F864
:1028900034B00DEB01000122ADF804B000F03CFAB9
:1028A000B6F836A00022012102A8ADF808A000F079
:1028B00033FAB6F838900122042103A8ADF80C9041
:1028C00000F02AFA758F0122042104A8354CADF8D6
:1028D000105000F021FA344B4FF44870C4F8C8345B
:1028E0004FF00213C4F8C434A3F58033C4F8CC34D9
:1028F0001C23C4F8B43405F0F7FD08A8ADF8205047
:1029000000F064FA142005F0EFFD08A8ADF820509F
:1029100000F034FA232005F0E7FD08A8ADF82050B8
:1029200000F054FAB92138461DF0C9FB08A8ADF8EB
:10293000205000F023FA002205A81146ADF814B08B
:1029400000F0EAF9002206A81146ADF818A000F040
:10295000E3F90122002107A8ADF81C9000F0DCF992
:102960000122002108A8ADF8205000F0D5F9384622
:1029700003F068F800234046C4F8B434C4F8C834FF
:10298000C4F8C434C4F8CC342AF086FB17B0BDE8D0
:10299000F08F00BFE8D3030858E7030800000A508F
:1029A000E070720000C00350020003005CE70308FF
:1029B0004FF000639B6A03F17842B2F5903F03D277
:1029C0001968064A914203D0002303708360704760
:1029D000012202709A689B694260F7E707B0CD5EFA
:1029E0004FF000639B6A10B503F17842B2F5903F57
:1029F00011D21968094A91420DD1094C227812F07E
:102A0000FD0F01D0002010BDDB6998470028FAD1E6
:102A100001232370F6E74FF48170F4E707B0CD5E31
:102A200082240020024B034A1A601EF0AEBA00BF97
:102A30000000002002020FF0BFF34F8F0549064B44
:102A4000CA6802F4E0621343CB60BFF34F8F00BF4C
:102A5000FDE700BF00ED00E00400FA050348044A6A
:102A60000449121A92101CF09DBD00BF802101087C
:102A7000402301088025002008B5154B83F30A8800
:102A800000F030F8FFF7EAFF124B13498B4212D3E4
:102A90000020124B12498B4218D3FFF7BFFC186875
:102AA00050F82240586840F822400132986882422B
:102AB000F5D30C33EAE70022F8E71C6844F822005B
:102AC00001325C68A242F8D30833E4E70022F8E759
:102AD00008000020183004082430040824300408BA
:102AE000243004084FF48041124B134A70B59A60A9
:102AF000D3F88820114D42F47002C3F88820104AA0
:102B000005F5005491664FF0FF3222660D4A626669
:102B10000222C3F8D020BFF34F8FBFF36F8F4FF463
:102B20004036002005F042F90020E66005F022F969
:102B30002E6170BD00ED00E000200108008000441F
:102B400000900050F7FF3700014B1860704700BF3E
:102B500054270020054B1860054B1B6F03F007033B
:102B6000032B01D128F0CABF704700BF5C270020AB
:102B700000800050002307B5294801932AF089FA04
:102B80004FF44073012204216846ADF8003000F094
:102B9000C3F80122234B0520C3F8442401A92AF0DD
:102BA00073FA002839D1204BD3F8F02042F001020B
:102BB000C3F8F020D3F8FC2042F08072C3F8FC2068
:102BC0001A4AA3F55D431A60019B194A03F5D52300
:102BD00003F2FC43B3FBF2F3164A013B13610223F9
:102BE000C2F8F0304FF48073C2F804334FF0604302
:102BF000114AC3F8B02F114AC3F8802ED3F8002E23
:102C000042F48072C3F8002EFF2283F82020D3F80C
:102C1000002E22F48072C3F8002E03B05DF804FB8E
:102C200058E7030800D0035000ED00E0FF03004028
:102C3000F8590D00000004E055CEACC509000100B4
:102C40004FF06043D3F8802E30B5D20715D501245C
:102C50000B4D8440D5F8FC2042F08072C5F8FC2072
:102C6000D3F8002E2243C3F8002E53F82020002A68
:102C7000F0D003F82010002030BD1120FCE700BF89
:102C800000ED00E02DE9F04104460C254FF001086D
:102C9000124E0CB314F001000BD0002024F00104FC
:102CA00005FB00625768002FF3D09168C0B2B847A7
:102CB000EFE72246013020284FEA520201D0D30725
:102CC000F8D508FA00F20F2824EA0204E8D91038EF
:102CD00005FB0062B432E5E7BDE8F081080E002094
:102CE00008B50C482AF0D5F9192005F051F828B19B
:102CF000192005F05BF8192005F03CF81A2005F0C2
:102D000047F828B11A2005F051F81A2005F032F8DA
:102D1000002008BD58E703082DE9F0410E46904613
:102D2000054618B30F2923D80378E3B1012B03D04C
:102D3000022B18D0032B1BD13F236A78D340DB072B
:102D400016D50D4BD3F81043A4B92AF061F8074605
:102D500042462846314603F057F838462AF053F8E1
:102D60002046BDE8F08140F2FF33E6E72224F7E792
:102D70002124F5E70224F3E700C0035010B5044610
:102D8000E8B10378C3B1012B03D0022B14D0032B7D
:102D900017D13F236278D340DB0712D52AF038F8E9
:102DA0000122637821789A4030235943064B5A50C8
:102DB0002AF029F8002010BD40F2FF33EAE7222074
:102DC000F9E72120F7E700BF40D0035010B50446D3
:102DD000E8B10378C3B1012B03D0022B14D0032B2D
:102DE00017D13F236278D340DB0712D52AF010F8C1
:102DF0000122637821789A4030235943064B5A5078
:102E00002AF001F8002010BD40F2FF33EAE722204B
:102E1000F9E72120F7E700BF40E0035008B502F0D2
:102E2000E9FF054B00F0553020F05020C3F8200496
:102E3000BDE80840FFF726BF00E0035008B502F0E8
:102E4000D9FF054B00F0AA3020F0A020C3F82004E1
:102E5000BDE80840FFF716BF00E003502DE9F04F32
:102E6000144605460E469B46C36B87B001225B693C
:102E700002A960689847EB6B01225B6903A93046A1
:102E8000984702A81CF0AFFF074648B10023A3757E
:102E900063754FF0FF33A360002007B0BDE8F08FEB
:102EA00003A81CF0ADFF0123A375237E04EBC3032D
:102EB000DE611F846368B3420ED1206003A81CF05A
:102EC000C1FF4FF0FF332075A360237D043B022B2D
:102ED00026D80023A375DFE723681A1A534253410B
:102EE000A37503A81CF0AEFF237D834218BFA7750E
:102EF00003A81CF089FF074602A81CF085FF874243
:102F000018BF002303A818BFA3751CF085FF074650
:102F100002A81CF081FF87421CBF0023A375D4E7E1
:102F200003A81CF071FF80B1EB6B022230465B6995
:102F300004A9984704A81CF076FF0346207D0328C7
:102F400039D8DFE800F03838040903A8F3E7CC22C9
:102F5000237E04EBC3031A8401F0EAFA109B187075
:102F600003A8277E1CF044FF04EBC70787F8220064
:102F7000237E03A804EBC303B3F8209093F82270D8
:102F80001CF042FF804603A81CF046FF8246B8F1C1
:102F9000000F15D0EB6B022230465B6904A99847FD
:102FA00004A81CF005FF6075637D6BB90023A37551
:102FB0004FF0000838E0227E04EBC2021384CBE716
:102FC00003A81CF0E0FEEEE794F81680B8F1000FBD
:102FD000EED0B9F1000F09D1DFB10123E375637EB3
:102FE000002B4FD1012F42D1677614E06B6C06EBBA
:102FF0000A02594286EA020008421CBF0021A1755C
:10300000591E0A409B1A9945D0D8A37D002BE3D1C5
:10301000CEE7E37D43B94FF000084B4652463146B8
:1030200028461CF01EFCA060A27D12B123694B440F
:1030300023611A49237E097899422AD901332376DC
:10304000BBF1000F27D032B3E37D23B3B8F1000FFB
:1030500021D1032F1FD0A1684B1C1CD0109B2246EE
:10306000009328460123FFF7F9FEA07513E095F8B9
:10307000343063B9EB6A0133CFD1032FCDD10123B3
:10308000A376C8E7012FCFD0032FC4D1F7E7984626
:10309000C3E70023A375A07DFFE600BF94D4030817
:1030A0002DE9F04F0E46984600238BB004464FF0B2
:1030B000FF31104617468DF8133001F023FAB6F5AC
:1030C000801F3BD3B21C53D1E56A6B1C57D12046FD
:1030D000616A1CF00CFB0546B31C18BF0123DFF826
:1030E00010910193636A626C0293236805A902FB45
:1030F000053AE36B05225B695046984705A81CF02A
:103100000DFF1CF030FF50461CF038FF4FF0000B55
:10311000824601464B1C05D0636C81EA0A025B4281
:10312000134232D0294620461CF0E1FA029BAB4202
:103130004DD0BBF1000F4DD10546D3E7314605AA6E
:1031400004F108001CF09DFD0146481C10D03846D3
:1031500001F0D8F90122394620460DF113031CF085
:10316000D2FB28B19DF8133088F80030002003E02E
:10317000237C002BA8D12D200BB0BDE8F08F236855
:10318000ED1A636CB5FBF3F5A6E7484601F0BAF912
:103190000DF1130349462046019A1CF0B4FB034687
:1031A00090B1B21C03D0D9F80020B2420CD19DF8E6
:1031B000132003930D4B88F8002049461A683846BF
:1031C0001FF0F7F9039B9B46D9F80810A2E7BBF163
:1031D000000FD0D0B6F5801FC8D2314698F8003025
:1031E0007A6804F1080001F0BBF8BFE790D4030847
:1031F000E41500202DE9F3410446174698460E4693
:10320000194D816AE36A8B422AD04B1C18E028468C
:1032100001F078F90122294620460DF107031CF040
:1032200072FB30B14346294620469DF80720B84737
:10323000B0B1A9684A1C05D0012E0AD0E36A9942B0
:10324000E5D10DE0696820461CF0DEFA012E01464A
:10325000D8D16B6881EA0302636C5B421A42D1D019
:1032600002B0BDE8F08100BFB81500202DE9F04F95
:103270004FF0FF334FF6FF720025044600F10806B9
:10328000C0E909238BB0C3620562056330460F466F
:103290001CF0C8FC20461CF0FAF920BB2046394639
:1032A0001CF075FA20461CF0F2F920BB5E200BB032
:1032B000BDE8F08FE26B2368606CD2F814C000FBAD
:1032C0000530052205A9E04705A81CF027FE0128C6
:1032D00028D1294620461CF02BFA421C29462046BC
:1032E0001CF0F4F90135E3699D42E3D320461CF05C
:1032F000CEF90028D2D000254FF0FF394FF6FF73EA
:10330000CA46A846C4E90853E369984514D3A5EB17
:103310000905012D36D84FF6FF72636A934246D1F4
:103320006720C4E71CF024FE0028DBD02946204695
:103330001CF0FEF90246D1E72368E26B606C576926
:1033400000FB0830052205A9B84705A81CF0E6FDDA
:10335000834605A81CF0B9FD074658461CF003FE3D
:1033600068B1574538BFC4F82480B94528BFB9466D
:10337000BD4238BF3D46BA46236A0133236208F195
:103380000108C1E74FF6FF7300256362E3699D42C0
:10339000C1D2676C2068E36B052207FB05005B69FF
:1033A00005A9984705A81CF090FD0135EEE7E26BF2
:1033B000676C2068694607FB030055690522A8472A
:1033C00068461CF082FD626A2368606C4B4D00FB0E
:1033D00002301CF0D3FD4FF0FF33A062E3622A46B7
:1033E0006FF00101204605ABFFF75AFE002846D1D9
:1033F000AD6829462046E5621CF025F9206320B916
:103400002046E16A1CF000FAE062294620461CF0E2
:10341000FBF90546A36A9D4233D120461CF0E6F82D
:1034200000278046B946E36999453CD3B84559D948
:103430002046616A1CF05BF90026054604F1400A4B
:10344000B74212D8626C2368694602FB0539E36B08
:1034500005225B694846984768461CF036FD53468E
:1034600002464946E06B1CF08BFD294620461CF0C5
:103470003EF90136B0450546E2D1642017E7A56A5A
:10348000B7E7294620461CF0DEF8236B29460344A3
:103490000746236320461CF0B7F90546002FB9D133
:1034A000C4E90B07B6E7636C2568052203FB0955E1
:1034B000E36B05A95B692846984705A81CF02EFD1B
:1034C0001CF051FD58B128461CF058FD014620461D
:1034D0001CF0B9F8636C143B984208BF013709F13E
:1034E0000109A0E730461CF09DFB00232046194649
:1034F000034AFFF77FFE0020D9E600BF1016002028
:10350000F5F802082DE9F041036B9046826B0768DD
:103510009A4288BF8363426C436A90B002FB037790
:10352000C36B0E46052201A95B69044638469847DD
:1035300001A81CF0F3FC01280146307057D0656CDF
:10354000E26B2368606AD2F814C005FB00300522E4
:1035500006A9E04706A81CF0E1FC01284FF0000591
:1035600023D0D4E90A3201219342CDE90B458DF8ED
:1035700034800E958DF83C102AD1194620461CF057
:1035800043F9236B626C14339B1AE06223630C9B38
:1035900053B99DF83C303BB1626A616C2368E06BC3
:1035A00001FB02311CF072FC0C9DE36B05225B6990
:1035B00001A93846984701A81CF0B0FC3070284695
:1035C000236BA26B9A4288BFA36310B0BDE8F08161
:1035D000237C33B91C490BAA04F1080000F00EFF4C
:1035E000D5E72046194A0BABFFF704FECFE7237C53
:1035F00023BB2246164904F1080000F0FFFE616A71
:1036000020461CF095F8616A421C20461CF05EF8CA
:10361000054620B9236B626C1344143B2363204698
:10362000A16A1CF0F1F82368A062C01A636CB0FBB9
:10363000F3F0606220461CF02AF9B6E7002320462A
:10364000044AFFF7D7FDDAE7793D0108F53C0108A8
:103650008FF902082BF9020873B50D46D11E4A42B4
:103660001C461B7E4A419A4226D12968236899420A
:1036700022D3636899421FD8114E0DF107033246D9
:10368000FFF70EFDC0B972686B689A4214D19DF8BD
:103690000730DA1E53425341227E93420CD16369B4
:1036A00001336361D4E90323934205D22968A268F8
:1036B00042F8231001332361012002B070BD00BF26
:1036C000101600202DE9F04F9A468BB09DF850302F
:1036D000DFF850B10293DBF81030804653450D46B9
:1036E0001646C0F09980D146DBF804300193B9F159
:1036F000000F00F08D80D8F83C3001225B6907A9EB
:103700000198984707A81CF07BFBDBF80030984233
:1037100040F0858007A81CF07FFB0428074614D1E1
:1037200007A81CF080FB019B029A04463B44002A38
:103730003FD1864212D91446361A404601991CF0F0
:1037400063F8A9EB04090190D1E7D8F83C300222D4
:103750005B69019808A9984708A8E2E7841B5445CB
:1037600028BF5446032C03EB0607AAEB040A4FEAD2
:1037700094021CD9D8F83C30294638465B699847F2
:1037800024F0030304F003061F441D44002ED4D08C
:10379000D8F83C3001225B6908A938469847324680
:1037A000284608A935441EF004FF0026C5E7264632
:1037B000ECE7074600F00302039203442A18049240
:1037C0000593049BDD1B059BD81B039B9F420FD1D8
:1037D000002FB2D0D8F83C30012208A95B69984785
:1037E0003A46284608A91EF0B2FE78B93D44A4E73F
:1037F000D8F83C30012208A95B6998470422284682
:1038000008A91EF0A4FE08B9043FDAE74FF0360914
:1038100048460BB0BDE8F08F4FF06309F8E74FF072
:103820006F09F5E73C1600202DE9F0410F461646DA
:103830009846044688B060B390F83450FDB1012139
:103840001BF01AFF00210E9BCDE90511CDE90237CF
:103850009DF83C30CDF804808DF81C30237C049614
:103860008BB90D4901AA04F1080000F0C7FDDDE99C
:103870000553E06B002E08BF1D461CF096F8284645
:1038800008B0BDE8F0812046044A01ABFFF7B2FC66
:10389000EDE70546F3E700BF59F90208593601087C
:1038A0002DE9F04F99B00F4609920A69416C0E93C9
:1038B0001439D31DB3FBF1F3013302EBC302036BE5
:1038C00004469342C0F0B3810023DFF824940D93A3
:1038D000E36A48461946079300F014FED7E9033619
:1038E00004930E9B022B4ED1CC2E40F08A81099B73
:1038F000002B42D0394620461CF0B5F8656C079A7B
:103900006B1E13401490ED1AE36B01225B6916A93C
:103910007868984716A81CF077FA00280CBF042393
:103920000823782E06933DD9012300254FF0080A7D
:1039300005933B6805990E98C9F80030C9F81060E6
:103940001CF084FA4FEA9A0310930023DDF81CB0B0
:1039500089F814000B930F9308930C93616C4A1E23
:103960000BEA02028B1A002E38D05544AB4240D8E5
:10397000236B5B1A13442363ABE0049B1B68149313
:1039800008230693D0E7656C079A6B1E1340782EC8
:10399000A5EB030516D8FB7D7BB9099B002BB3D1A2
:1039A00004230693331DAB4210D9A6B1082DBBD812
:1039B00004250023AA460593BBE7099B002BA3D14E
:1039C0000823EEE7099B002B9ED1D9E7002505953A
:1039D0004FF0040AADE704250596F9E75345C7D330
:1039E000B0460BEB0A030393089B002B18BF03237D
:1039F00013E0A3EB0A039E42B0460BEB0A0228BF7A
:103A000098469E420392EFD90123D9F8102089F8F5
:103A10001730964271D1C9F804B0089399F817305D
:103A2000002B6CD099F818200899D31C09EBC3031C
:103A30000132C3F804B0A3F80880997289F81820FD
:103A4000B8F1000F14D00E9B022B5BD10B9B7BB9FE
:103A50000F9B4344032B0BD9E36B01229B69039813
:103A600014A998470546002840F0E38001230B93F2
:103A7000089B16A80193059B009399F814204346D0
:103A8000396800F0F5FCE36B58469B69109A16A95B
:103A90009847051E0D9B18BF5B4652460D9359462D
:103AA000434620461BF0DDFE236B08F10302A3EB27
:103AB0000A0322F003029B1AC9F808002363002DB1
:103AC00040F0B7800F9BDDF80CB04344A6EB08062E
:103AD0000F93594620461BF097FE00258346002E83
:103AE0007FF43CAF824A3968936804F10800E362CE
:103AF00052680E9B00F034FC84E002238DE7C9F885
:103B000004B09DE7099B002B30D1049BB8F1030F53
:103B100043440A9327D9DDE90301E36B4FEA980296
:103B20009B6998470546002865D118F003025FD0CD
:103B3000049B28F003052B440493039B1D444FF082
:103B4000FF33049915A815931EF033FDE36B284647
:103B50009B69012215A9984705460A9B0493002DED
:103B600086D0039B99E74246039DE8E7039B0A93AF
:103B700007F120031193FB7D78689BB100233D7E04
:103B80000C9AD9B28D4211D9119903F1010C31F877
:103B90003310914226D9069907EBC303D8690A442A
:103BA000104403E00C9B069A13441844E36B012273
:103BB0005B6915A99847159B012213930C9B0A98E2
:103BC00004330C93E36B13A99B699847039B0A9AF0
:103BD00043449B1A042B054607D978B9134604338E
:103BE0000A93C8E76346521ACBE70A9B0393B6E7EA
:103BF0000A9B04933CE70A9B0493B2E70A9B039356
:103C0000AFE77026304619B0BDE8F08F4FF0000ADC
:103C10004FE03A69616CD31D1439B3FBF1F3013302
:103C200002EBC302236B9342BFF452AE5DE01C264D
:103C3000E8E73D2D59D104F1080303932368079A5F
:103C4000606CA2EB030ABAFBF0FA00FB0A301CF02E
:103C500095F9E16A804620461BF0D6FDA26A8242B1
:103C6000D7D0626CD9F80830511E0B40216B266802
:103C7000891A0B4423630D9BE0629E1BB6FBF2F690
:103C8000B245C3D1079BB3EB080A12D0E36B4FEAEE
:103C90009A0241469B6998478346E36A079A5344D0
:103CA000E362236B03989B1A434423631BF0BAFF20
:103CB000DA462368616CE06B01FB06311CF0D3F837
:103CC00020461BF0E4FC20461BF0E1FD2063BAF126
:103CD000000F9ED03A69616CD31D1439B3FBF1F328
:103CE000013302EBC3029042A8D22E468AE700BFFE
:103CF000E4150020032A2DE9F34106460D46174638
:103D00001C4606D1237A012B23D0012002B0BDE846
:103D1000F081DFF86080096842460DF10703FFF784
:103D2000BFF960600028EDD19DF80720237A032AAF
:103D3000E8D0D8F804106A689142E3D1012B2969D0
:103D4000D4F80CC007D172690CEB0103934202D97D
:103D50002074207CDAE708316144E1603B460122AF
:103D600029463046FFF79CFD60600028CAD000203D
:103D7000CCE700BF101600202DE9F341089C032A70
:103D80001746266806D1237A012B24D0012002B0E1
:103D9000BDE8F081DFF89080304642460DF1070320
:103DA000FFF77EF960600028EDD12568D8F804009F
:103DB000A96AD5F844C04840CCF100031840227AE3
:103DC000E1D1012A09D1E268D8F8103013447269B0
:103DD000934202D92074207CD9E72868EB6A1B1A29
:103DE000081AB3FBFCF3B0FBFCF083420BD1706C00
:103DF000F36A421E1340326B121A1344284633638F
:103E00001BF002FDE862D8F81020E3680832134482
:103E1000E36001223B4604492068FFF741FD6060F2
:103E20000028B0D00020B2E7101600202DE9F041A4
:103E30000025634B0E46D3F8008004461D6018B978
:103E400021252846BDE8F08190F8347007B30A6850
:103E500003689A4240F0AA804A6843689A4240F058
:103E6000A5808A6883689A4240F0A080CA68C368C7
:103E70009A4240F09B800A6943699A4240F09680DA
:103E80008A69C36B9A4240F091804B698361D8E79D
:103E900068223946856B1EF084FBD6E9021233682E
:103EA00004F1080023607368A5636360336963618C
:103EB0007369A3611BF0C8FEB36904F14000E363BA
:103EC0009B68984720B9676C17B16368B3FBF7F735
:103ED00094F84330E761002BB2D00023656C236671
:103EE000002D6BD0002F69D02368B3FBF5F205FBE2
:103EF0001233002B5CD16768B7FBF5F605FB16762D
:103F0000002E55D120461BF08EFBA36904330344D9
:103F10009F424FD340F634726369CC3B93424BD8F7
:103F2000B5F5805F4AD3032120461BF0A5FBD4E9F9
:103F30000001E36B1B6898470546E36B0220DB68D2
:103F400098472DB184F83460E06B1BF02EFD78E7C4
:103F500041462046FFF78AF96428054604D14146C8
:103F60002046FFF783F90546636C143BD5B9226AF6
:103F7000204602FB03F61BF056FBA36904330344FF
:103F80009E4203D284F834505A25DDE70123D4E958
:103F900000010C4A84F834301368013313601BF0BD
:103FA000EDFED1E7002384F83430CDE75D2548E706
:103FB000592546E75A2544E75F2542E75B2540E758
:103FC000740F0020700F00202DE9FF410C461646AB
:103FD0001F46054680B390F834307BB3B1F5801F9F
:103FE0002ED2DFF8608001211BF046FB21464246BD
:103FF00028460DF10F03FFF753F8044670B99DF8FA
:104000000F30012B11D1D8F81030BB4212D102462B
:10401000009031462846FFF755FB0446E86B1BF03D
:10402000C4FC204604B0BDE8F081022B14BF2D244F
:104030006024F3E76324F1E72124F2E71124F0E799
:104040002924EEE73C1600202DE9F04385B00C460C
:1040500017461E460546DDF8308098B390F8343098
:1040600093B3B1F5801F31D2DFF8649001211BF0CA
:1040700003FB21464A4628460DF10F03FFF710F8CF
:10408000044688B99DF80F30012B14D1D9F81020BF
:1040900006EB08039A4213D3009043463246394652
:1040A0002846FFF70FFB0446E86B1BF07EFC20461A
:1040B00005B0BDE8F083022B14BF2D246024F3E784
:1040C0006324F1E72124F2E71124F0E72924EEE745
:1040D0003C1600202DE9F3411F4600230C461646EE
:1040E00005463B6050B390F834304BB3B1F5801FB8
:1040F00028D2DFF8548001211BF0BEFA2146424647
:1041000028460DF10703FEF7CBFF0446A0B99DF842
:104110000730032B10D0022B0AD101233360042374
:104120003B60E86B1BF041FC204602B0BDE8F0812B
:10413000D8F810303060F3E72D24F2E72124F3E7BC
:104140001124F1E72924EFE73C16002073B504465B
:10415000056B1BF068FA636E03449D422CBF00237D
:104160000123854294BF00252D1A207C84F850300D
:10417000656584F85800A8B100230C4E1A4619460C
:10418000204600961BF03CFD002305461A461946C2
:10419000204600961BF03DFDE3682844984294BFFA
:1041A0000020C01AE06502B070BD00BFFFFF0F0025
:1041B0002DE9F3471E4643690446B3428846174635
:1041C0009DF828904ED300258DF8075020461BF00F
:1041D0002AFAD4F830A082450AD2236AB5EB430FFD
:1041E00006D2002220460DF10701FFF78BF9B8B384
:1041F0009DF80730012B05D1002220460DF1070163
:10420000FFF780F9B9F1030F06D0314620461BF0C5
:10421000FAF9256B854227D3144D4FF0FF3128461C
:1042200000F070F94B46294600222046C5E9037686
:10423000C5F80080FFF734FB236E054663B12046C6
:10424000FFF784FF94F8503013B994F858301BB13D
:10425000236E04F150009847284602B0BDE8F0876D
:104260000135B3E76225F7E71C25F5E710160020B6
:104270002DE9FF410F4690461E46054698B390F83B
:10428000343093B3B1F5801F31D21A4C02211BF0A8
:10429000F3F92246394628460DF10F03FEF700FFD9
:1042A000024678B1012342460093394633462846F8
:1042B000FFF77EFF0446E86B1BF077FB204604B057
:1042C000BDE8F0819DF80F30012BEBD12169B1429F
:1042D000E8D10093414633462846FFF7F3F90446F8
:1042E0000028DFD1E7E72124E8E71124E6E72924C5
:1042F000E4E700BF3C16002030B50C46054685B00B
:1043000028B390F8343023B3B1F5801F23D20221B3
:104310001BF0B2F90DF10F03214628460F4AFEF7B4
:10432000BFFE034688B99DF80F20032A0DD0032253
:104330002146009202462846FFF73AFF0446E86B02
:104340001BF033FB204605B030BD2D24F7E72124B8
:10435000F8E71124F6E72924F4E700BF3C16002013
:104360002DE9F043466886B3056898464FF0000C87
:10437000A946AE4655F83C400CF1010CC4F31307B6
:10438000013401D0B94217D066450EF1080EF1D1C3
:104390002F46002403E0A64207F1080712D055F883
:1043A000343001340133F6D1C1F3130141EA08512D
:1043B000C7E90012BDE8F08341EA0851CEE90012D6
:1043C000BDE8F083B8F1030F03D101230372BDE808
:1043D000F083002303E09E4209F10809F5D055F867
:1043E00033400133C4F30754032CF4D1C1F3130356
:1043F00043EA0853C9E90032BDE8F0832DE9F041F2
:104400000646406882B0C0B10F469046002433682B
:1044100053F8345003EBC403C5F30752C5F313013B
:10442000013504F1010406D05B683046CDF8008008
:10443000B84710B170688442E9D302B0BDE8F0819A
:10444000024B1968024B1868FFF7F0BC6027002088
:104450008027002008B528F0D2FC014B186008BD69
:1044600068160020014B186828F0C4BC68160020AC
:1044700073B504462248012A00EAC1119DF818507C
:1044800023F07C4007D9961E012E28D9073303F06C
:104490007F03194308E09DF81C300A43DB0603F054
:1044A000C053134343F060410023C4E900108DF86A
:1044B0000730B5B1202221460DF107001BF07AFD2F
:1044C0001A220DF10700211D1BF074FD08206368FE
:1044D0009DF8072043EA8263636002B070BD114318
:1044E000E2E71B220DF1070021461BF063FD236864
:1044F0009DF80720042043EAC2632360EDE700BF74
:1045000080FFFF0738B5094B0D461A6800210446A5
:104510001EF047F800234FF0FF322383C4E9002543
:104520002361A260E382A37638BD00BF90D4030864
:104530000138C0B205289ABF014B185C01207047B2
:1045400095D403082DE9F0410746154600240E4690
:10455000596888B0490A012922464FEA510104F1FD
:104560000104F8D8DC78997824031B88C90201F487
:10457000006104F480540C43C3F30A035203234440
:1045800092B24FF000089C18274B6FEA0444039343
:1045900025F07843ED4302A90DF107001B22029399
:1045A0008DF807801BF006FD9DF80720029B02A9ED
:1045B00043EAC2630DF107001B2225F078450493FE
:1045C00002958DF807801BF0F5FC9DF80720029BF3
:1045D0006FEA144443EAC26305934FF0FF33079434
:1045E000069307A9BB69012206F110009847BB6931
:1045F00005A90446012206F108009847BB69404519
:1046000018BF044604A90122301D984701224045E5
:1046100018BF0446BB69304603A99847404508BF08
:10462000204608B0BDE8F08101009AB2044BD3F8EF
:104630008420D206FBD4D3F88400C0F381107047E5
:104640000040005038B5174B0546D3F828310C46CA
:1046500003F00703013B052B20D8DFE803F0031329
:104660001B0F0B1727F024FA052305B1286004B1AE
:10467000236038BD27F01CFA0623F6E727F062FA1C
:104680000723F2E727F054FA0323EEE727F050FA66
:104690000423EAE727F048FA0223E6E70023184656
:1046A000E3E700BF00800050002337B50193164BAD
:1046B0000546D3F820320C4603F00703042B21D81B
:1046C000DFE803F0030B11161B0001230DB1019A63
:1046D0002A6004B1236003B030BD002101A8FFF7B8
:1046E000B1FF1223F2E727F02DFA07230190EDE73F
:1046F00028F094FB0A230190E8E727F06BFA0923DE
:104700000190E3E70023E1E70080005038B5104B4B
:104710000546D3F880300C4603F00303022B0BD080
:10472000032B0DD0012B0FD127F0C8F90E2305B1B3
:10473000286004B1236038BD27F004FA0723F6E7A8
:1047400027F0B6F90623F2E700231846EFE700BF8B
:104750000080005038B5104B0546D3F800310C46A8
:1047600003F00303022B0BD0032B0DD0012B0FD131
:1047700027F0DEF9032305B1286004B1236038BDBA
:1047800027F028FA0923F6E727F0D8F90823F2E7FB
:1047900001230020EFE700BF0080005038B5184B20
:1047A0000546D3F820010C4600F00700062823D860
:1047B000DFE800F0040A0E16121A1E00012305B1EC
:1047C000286004B1236038BD27F072F90523F6E7AD
:1047D00027F0AEF90323F2E727F0B4F90723EEE759
:1047E00027F0A2F90223EAE727F062F90623E6E7B9
:1047F00027F09EF90423E2E700231846DFE700BF15
:104800000080005038B5104B0546D3F840310C46B7
:1048100003F00303022B0BD0032B0DD0012B0FD180
:1048200028F0FCFA0A2305B1286004B1236038BDE2
:1048300027F0D0F90923F6E728F0F3FA0C23F2E782
:1048400001230020EFE700BF00800050002337B5B0
:104850000193164B0546D3F860320C4603F007036C
:10486000013B032B1FD8DFE803F0020E19140021CF
:1048700001A8FFF793FF10230DB1019A2A6004B13C
:10488000236003B030BD002101A8FFF7BBFF112357
:10489000F2E727F057F907230190EDE727F044F9F5
:1048A00002230190E8E70023E6E700BF0080005004
:1048B000002337B50193164B0546D3F894320C46C6
:1048C00003F00703013B032B1FD8DFE803F0020EC0
:1048D0001914002101A8FFF761FF10230DB1019AFF
:1048E0002A6004B1236003B030BD002101A8FFF7A6
:1048F00089FF1123F2E727F025F907230190EDE75F
:1049000027F012F902230190E8E70023E6E700BF51
:104910000080005038B5104B0546D3F860310C4686
:1049200003F00303022B0BD0032B0DD0012B0FD16F
:1049300028F074FA0A2305B1286004B1236038BD59
:1049400027F048F90923F6E728F06BFA0C23F2E781
:1049500001230020EFE700BF008000502E4B98425B
:104960004AD022D82D4B984240D014D82C4B984294
:1049700039D00AD82B4B984232D02B4B98422FD0AB
:104980002A4B98422CD000207047294B9842FAD1EC
:10499000284B186F7047284B98422AD0274B9842D3
:1049A000F1D1244BD3F880007047254B98422BD08F
:1049B00009D8244B984223D0234B9842E3D11D4B76
:1049C000D3F88C007047214B984221D003F5740333
:1049D00003F510539842D6D1164BD3F89800704780
:1049E000144B986D7047134B586E7047114B586FAE
:1049F0007047104B986F70470E4BD3F88400704788
:104A00000C4BD3F8880070470A4BD3F890007047DE
:104A1000084BD3F8940070470048E8010024F400E4
:104A2000C0CF6A0080841E0000093D0040420F0094
:104A3000405DC6000080E00FC0EA210180BA8C0111
:104A4000007E560380D54302006CDC020090D00348
:104A500073B50D460021114B0191D3F880410646F4
:104A600004F00304022C13D0032C0CD0012C13D11E
:104A700001A8FFF793FE10240EB1019B336005B12E
:104A80002C6002B070BD27F05DF807240190F3E7B9
:104A900027F04AF80190EFE70C46EDE70080005060
:104AA00038B5104B0546D3F840320C4603F00303EB
:104AB000022B0BD0032B0DD0012B0FD128F0AEF918
:104AC0000A2305B1286004B1236038BD27F082F8BD
:104AD0000923F6E728F0A5F90C23F2E701230020CB
:104AE000EFE700BF0080005038B5144B0546D3F8FF
:104AF00000020C4600F0070004281BD8DFE800F095
:104B000003090D111500012305B1286004B12360CC
:104B100038BD28F083F90A23F6E727F05BF809236C
:104B2000F2E728F07EF90C23EEE726F0E7FF0F23EB
:104B3000800AE9E700231846E6E700BF008000503E
:104B400038B5144B0546D3F808020C4600F00700B0
:104B500004281BD8DFE800F003090D11150001231C
:104B600005B1286004B1236038BD28F057F90A2345
:104B7000F6E727F02FF80923F2E728F052F90C2383
:104B8000EEE726F0BBFF0F23800AE9E70023184673
:104B9000E6E700BF00800050B0F5207F1FD009D8A5
:104BA000B0F5007F15D003D868B1B0F5C07F0AD04A
:104BB00000200CE0B0F5607FFAD10B4BD3F88000F9
:104BC000C0F3011003E0084B186FC0F3033001304D
:104BD0007047054BD3F89000C0F30460F7E7024B31
:104BE000186FC0F38020F2E70080005002464FF4B7
:104BF0008030104B10B598660020FFF7CDFF504372
:104C000041F671320C4BDC69DA635A6804F4803483
:104C100022F4401259B90949884294BF002001206A
:104C2000000502435A600CB10022DA6310BD04494A
:104C3000F2E700BF0090005000000350005A6202EB
:104C4000002D3101430905D0012B0CD0022B084B5C
:104C500018BF002300F01F0039B103F58053012273
:104C600082401A607047034BF4E703F50053F6E700
:104C700068800050648000501FB50021B0F5807F2F
:104C80000446CDE9001100F0D2803AD85E2833D82E
:104C90005E2833D8DFE800F0453232323232323229
:104CA00032323232323232323232323232323232E4
:104CB000323232323232323245AC45ACBCBCBCBC92
:104CC000BCACC64E6BDC4EACACAC323232323232A3
:104CD0003232ACACAC7EE6AC3232323232323232CC
:104CE0003232323232BC454545E14E4EEB8D63C126
:104CF00032323232329E4500802870D0009804B0A3
:104D000010BDB0F5D06F00F0A38035D8B0F5607F4E
:104D100079D01AD8B0F5007F65D005D8B0F5C07F3E
:104D2000ECD126F0EBFE5CE0B0F5207F60D0B0F572
:104D3000407FE3D126F0E2FE02464FF42070FFF7F9
:104D40002BFFB2FBF0F252085BE0B0F5B06F69D018
:104D50000AD8B0F5806F5BD0B0F5A06FCED100213E
:104D60006846FFF7A1FCC9E7B0F5C06FC6D10021C6
:104D70006846FFF747FDC1E7B0F5106F6DD00ED85C
:104D8000B0F5086F78D0B9D8B0F5E06F6AD0B0F55B
:104D9000F06FB3D100216846FFF7BCFDAEE7B0F578
:104DA000406F3AD013D8B0F5206F60D0B0F5286FBF
:104DB000A4D10021324B0391D3F8703203F00303E6
:104DC000012B02D103A8FFF71DFD039B39E0B0F5CD
:104DD000486F93D100216846FFF76AFD8EE726F001
:104DE0006DFE00908AE726F069FE0246204604E048
:104DF00026F084FE02464FF42070FFF7CDFEB2FB92
:104E0000F0F200927AE701A8FFF780FC019AEDE743
:104E100000216846FFF7C2FC70E700216846FFF7F3
:104E200011FC6BE700216846FFF712FE66E74FF0C2
:104E3000E02302911B695B0705D526F05FFE029017
:104E4000029B00935AE703A902A8FFF7DBFCF7E7F0
:104E500000216846FFF748FE50E700216846FFF74B
:104E60006FFE4BE700216846FFF71AFE46E7002178
:104E70006846FFF7EBFC41E76846FFF76BFC3DE750
:104E80000080005008B58020FFF7F6FE034B9842E3
:104E90009EBF4FF48032024B1A6708BD005A62026F
:104EA00000A000501FB503460020B3F5807F01909D
:104EB00000F0C58065D85D2B56D84C2B07D82D2B1C
:104EC00048D8232B2CD8019805B05DF804FB4D3B46
:104ED000102BF8D801A252F823F000BF355001087A
:104EE000C74E0108C74E0108C74E0108E34F01082D
:104EF000C74E0108C74E01088F5001080150010834
:104F0000A74F010885500108C74E0108C74E010888
:104F1000C74E0108C74E0108C74E01089950010845
:104F2000243B092BCFD801A252F823F035500108B9
:104F30003550010835500108355001083550010839
:104F4000C74E01082B500108C74E0108C34F010886
:104F50006B5001083D2B00F083803E2BB3D1002025
:104F600001A9FFF79DFDAEE7802BACD1504B1B6F25
:104F700003F00703013B032BA5D8DFE803F0544DF2
:104F80005052B3F5F06F6BD020D8B3F5B06F4CD062
:104F90000ED8B3F5607F71D095D3B3F5806F49D04B
:104FA000B3F5A06F8FD1002001A9FFF77DFB8AE741
:104FB000B3F5D06F59D0B3F5E06FD0D0B3F5C06F73
:104FC00081D1002001A9FFF71DFC7CE7B3F5206F1C
:104FD0005DD00BD8B3F5086F4CD0B3F5106F7FF4EC
:104FE00072AF002001A9FFF7ABFD6CE7B3F5406F8E
:104FF00048D0B3F5486F4FD0B3F5286F7FF463AF57
:105000002B4BD3F8703203F00303012B49D0022B52
:105010000CBF1523002300E00523019353E703236E
:10502000FBE70823F9E70223F7E7002001A9FFF7D0
:105030000FFD48E7002001A9FFF7B0FB43E74FF061
:10504000E02302901B695B0705D526F057FD0D2371
:105050000393039BE1E703A902A8FFF7D3FBF8E75B
:10506000002001A9FFF756FC2DE7002001A9FFF75A
:105070003BFD28E701A9FFF76DFB24E701A9FFF736
:1050800045FB20E7002001A9FFF7DCFA1BE7002021
:1050900001A9FFF7DBFB16E7002001A9FFF708FCD9
:1050A00011E7002103A8FFF7ADFB1123B5E700BF0F
:1050B000008000504FF48032074B0849586E03F5CA
:1050C00080535A664B6A23F001034B62C3035CBFF3
:1050D000034B5A66704700BF0080005000C0075065
:1050E00000A0005008B5FFF7DDFE092811D00A38EE
:1050F000012802D94FF6FF7008BD4FF48002064B1D
:105100005A6603F5D8335B6ADB07F3D54FF4FA70C0
:10511000F2E7024B1888EFE7009000508E2800203D
:1051200008B5FFF7BFFE03280ABF024B4FF6FF701A
:10513000188808BD8C28002038B504468020FFF769
:10514000B1FE032800F083804FF48012524B4FF0E1
:10515000A0615A6645F60E02504BC3F88020504AB3
:1051600091624FF4803102F5805291629A6DD203C0
:10517000FCD4996D11F08041FBD1D4E900021205F5
:1051800042EA0062E07B0243207B42EA0042607B0D
:1051900042EA0032A07B42EA80121A619869D4E99F
:1051A0000452120642EA856200F000400243A07EEB
:1051B000E57E0243207E42EA0042607E42EA00220F
:1051C0009A611A6AE06922F00F0242EA8502354DBF
:1051D00000283DD11A6294F82420996A94F820009E
:1051E000D200294042EA40120A4394F8211042EAD0
:1051F000011242F480329A622B49284A936D31EAB7
:105200000303FBD14FF08071254881621369A568C3
:1052100023F4700343EA055313614FF000438361A5
:1052200094F822300BB9214B996294F823303BB9A2
:105230004FF480321D4B9A62184A936D5B00FCD488
:1052400094F825301BB1154B194AC3F8802038BD9E
:10525000024342F0080202281A6208D119614FF491
:105260000852996113484FF47F411AF0C1FE0B496F
:1052700094F822308A6A94F820001B062A4043EAF8
:105280004013134394F8242043EAC20394F82320E4
:1052900043EA02438B62D3E7009000500040005A7B
:1052A0000050005AC7FFFEFE030001000060005AD4
:1052B000F1A7FFFF3440005A014B93F900007047FB
:1052C00014290020F0B5D0E901434FF400061A4A32
:1052D0004178057856664FF4D156022702F5B83268
:1052E0005662164E4F2977604FF0010728BF4F21B5
:1052F00006F5805677601669F603FCD441EA05216D
:1053000051611B01417B43EA04230B43017B43EAC8
:1053100041039360C37B817B1B0143EA4113417CC2
:105320000B43017C43EA41035360837C13B16FF468
:10533000D1535362F0BD00BF0090005000100250E6
:10534000014B1880704700BF8E280020014B188049
:10535000704700BF8C2800204FF4800208B5184B1E
:105360005A660223174A5360936813F48033FBD1C3
:10537000012822D126F0DCFB134B984215D003F50F
:10538000122303F5F863984213D0104B00EB800210
:10539000400AB3FBF0F3520A0A49CA620B630123C5
:1053A0004B620022074B5A6008BD45F67A13084A43
:1053B000F2E745F61A03074AEEE75362F1E700BF4A
:1053C000009000500040025000F04902646666669A
:1053D000D8B80500BBCF0500B0F5207F10B50C464E
:1053E0005DD008D8B0F5007F4ED003D8C0B1B0F57D
:1053F000C07F15D010BDB0F5607FFBD12C4B4C1E8B
:10540000D3F8FC202B4912F0807F4FEA041427D1F7
:10541000D1F8803023F030032343C1F88030E9E72E
:105420001AF0F5FD1AF001FE4FF48031224B214AAB
:105430001967136F013C23F4704343EA0433136785
:1054400026F05CFB0446FFF7F1F8C0F102012046AC
:105450001AF0E5FD00F04AF8BDE81040FFF712BD74
:10546000D3F8FC2022F08072C3F8FC20D1F8802011
:1054700022F030022243C1F88020D3F8FC2042F011
:105480008072C3F8FC20B5E70A4A4C1ED2F890306F
:1054900023F0F85343EA0463C2F89030AAE7054AC0
:1054A0004C1E136F23F4806343EA84231367A1E740
:1054B00000ED00E0008000500090005008B5012190
:1054C000022000F073F94FF42070FFF765FB054BE5
:1054D00018701AF09CFD1AF0A8FD4FF48032024BB0
:1054E0001A6708BD832400200090005008B54FF4CF
:1054F000C070FFF7C1FBBDE808400449884294BF73
:10550000012102214FF42070FFF766BF80F0FA02FC
:1055100038B5044626F0F2FA0546FFF787F8C0F1E1
:10552000020128461AF07BFD0121002000F07EF9DF
:105530002CB1FFF7DBFFBDE83840FFF7A3BC034BFE
:105540004FF420701978FFF747FFF4E78324002019
:105550004FF4C02270B50546FFF700FA314B044600
:105560005A6603F598335A68012A04D12E494A60D5
:105570005A689207FCD48020FFF794FC052807D1D5
:105580001AF045FD1AF051FD4FF48032254B1A6791
:10559000264B24F040749D4230D0254B9D4230D0A4
:1055A00026F086FA8542064603D90121284600F0F6
:1055B0003DF9204BDA6812F0060FFBD199689C6028
:1055C0009A68624012F4F81F1ED12846FDF7BCFA13
:1055D0008020FFF767FC05280DD126F08FFA0446DE
:1055E000FFF724F8C0F1020120461AF018FDFFF77A
:1055F0007DFFFFF747FCAE420CD270BD44F0007453
:10560000CEE744F08074CBE780209960FFF74AFC36
:10561000052805D0BDE870400121002000F006B942
:105620003546DAE70090005000E0015040420F009C
:1056300080841E0000000150304B314A984251D006
:1056400020D8A3F5B703A3F55863984246D00DD8E8
:105650002C4B984231D02C4B984239D02B4B4FF4E5
:10566000002198421DD00023516622E0284B4FF4C0
:1056700000219842F7D1274BD3F8BC30516623F074
:10568000407316E0244B984230D0244B984231D0DE
:10569000234B4FF400219842E5D11E4BD3F8C8307C
:1056A000ECE71C4BD3F8A030516623F0407343F075
:1056B00000734FF0B442936070474FF40021154BD4
:1056C000D3F8A030516623F0407343F08073F0E7C5
:1056D000104BD3F8A0304FF40021CFE70D4BD3F897
:1056E000B830F8E70B4BD3F8C030F4E7094BD3F8E8
:1056F000CC30F0E7074BD3F8D030ECE7C0EA21011B
:105700000090005080841E0000093D0040420F00C0
:105710000024F4000080E00F0048E801005A620213
:1057200080BA8C01024A536B0342FCD1704700BF20
:1057300000400950044A4178536F23F4407343EA10
:1057400001235367704700BF004000500E4A10B558
:105750001369044643F00403136126F0B1FF1AF005
:1057600069FC0A4B5B6E5B0142BF094B094AC3F8F7
:10577000202430BF1AF05FFC02F09EFD1CB9BDE88A
:10578000104026F0BBB910BD00ED00E000800050D5
:1057900000E003500000FF0F034A0179D36E23F0AD
:1057A00030030B43D366704700400050F8B5044601
:1057B0001C4BD3F88420D106FBD4D3F88430C3F338
:1057C00081139C422CD026F079F9012C064602D197
:1057D00021461AF024FC27F012FB4FF00072124B06
:1057E00007465A6620461AF029FC4FF480630D4D97
:1057F000621E93402B676B6E9A0103D4D5F88430F8
:105800009B060AD5384627F0F5FA022C08D1304617
:10581000BDE8F84000211AF002BCD5F88430EAE770
:10582000F8BD00BF004000500060005010B50C46AD
:1058300008B926F043F9074B21461B783BB1064BCC
:10584000984204D80120BDE81040FFF7AFBF022006
:10585000F9E700BF84240020005A62020278034B5B
:10586000012100201A70FFF7E1BF00BF842400204F
:105870004FF0004238B5244B244C5A664AF6CD33DB
:10588000656C014605F00105236428BB0120FFF784
:1058900049FF6368DB0715D51D4B586008461D4B53
:1058A000226BD2070CD4984208D1072415B1174BAC
:1058B000194A1A6423F0C5F8204638BD0130EFE7D5
:1058C0009842F2D00024F1E70132236B13F0080371
:1058D00005D08A42F8D1E8E700220E49F5E78A426E
:1058E000E3D020210A4A91620121A2F58052516041
:1058F0000649084A886A800603D49342D5D001330A
:10590000F8E79342DDE700BF0090005000400950E7
:105910000060095040420F003254FFFF4FF0004238
:1059200038B5164B01465A664AF6CD33144C154A23
:10593000656C236443780B205B0043F00103D36361
:10594000FFF7F0FE63688A7823F4F87343EA0213E2
:105950006360CA784B7943EA0223A3600A798B79A2
:1059600043EA022323610878FFF782FFEB0744BF75
:10597000054B236423F065F8012038BD00900050EA
:1059800000400950004000503254FFFF4FF00042E9
:10599000124B70B55D6E03F580535A664AF6CD33EF
:1059A00004460F4980204E6C0B64FFF7BBFE0B6A68
:1059B00023F00F030F2C94BF234343F00F030B621C
:1059C000F30744BF074B0B64002DA2BF4FF000420A
:1059D000054B5A6623F035F870BD00BF00800050BB
:1059E000004009503254FFFF00A000504FF0004229
:1059F000104B70B55D6E03F580535A664AF6CD3391
:105A000004460D4980204E6C0B64FFF78BFE0B6A39
:105A100023F4F85343EA04230B62F30744BF074B14
:105A20000B64002DA2BF4FF00042054B5A6623F0D5
:105A300008F870BD00800050004009503254FFFF4C
:105A400000A0005010B51AF0FEFA042300F58051B2
:105A500000F500520B6113610B6113610B6113615F
:105A60000B611361202341F2020103610023C36033
:105A7000836041614FF4A0218361836541620549E0
:105A8000C36103628362C36243630365D1640363DA
:105A900010BD00BFFF3F0D0370B505461446084614
:105AA00041B9354B9D4218D0344B9D4208BF572019
:105AB000FFF7E2F8AB6813F0010F6B6830D0B0FB72
:105AC000F4F4D80704F1FF344FEA046407D42B69D7
:105AD00023F07F4323432B6170BD5620E8E7282144
:105AE00028461AF0ACFAAB6C990715D1AB6CDA0703
:105AF00014D4AB6C13F0020F14BF06260026284600
:105B00001AF0A1FA2B69314623F07F4323432B611E
:105B1000BDE870401AF0B1BA0526F0E70926EEE7B5
:105B2000AB6DDB07AB6848BF640003F0E003402BBC
:105B30001BD004D8DBB1202BCED1082304E0602B8E
:105B400017D0802BC8D1012363434101B1FBF3F28D
:105B50000B4B203A284603EAC20201211AF06FFAE1
:105B60002A63BDE870401AF06ABA0623ECE71023F6
:105B7000EAE70423E8E700BF0000015B00000A50E9
:105B8000F8FF7F00F8B5436804460E460D691BB167
:105B900040F6FF711AF053FA2046FFF753FF2269CF
:105BA000737BB17B22F087020B43134343F08003E6
:105BB0002361E5B9A368F27B23F00303134343F0A9
:105BC0000103A3606369327B23F00F031343636116
:105BD0002046D6E90112FFF75FFF204631781AF020
:105BE0004CFAA36CDB4313F4405FFAD1F8BD236990
:105BF000297F23F0F80343EAC1132978EA7B0B439A
:105C0000297943EA4113697A43EA011343EA82138B
:105C10002361E068D5E9053720F0F0403B4320F4EC
:105C200070200343287B697B43EA802343EAC13326
:105C3000E360A368F07B23F00303034343F0010315
:105C4000A3606B88A06803F4C0430343A360A36808
:105C5000687943EA8023A360AB79EF79606A1B011E
:105C60003F0203F0700307F4E06720F4772020F48C
:105C7000EE603B430343287A000300F4E040034313
:105C8000687F000400F47020034363626369307B23
:105C900023F00F03034363616B89A36109B3164BC0
:105CA0009C420CD1AB7B154903F00F034B67002AD4
:105CB0008ED02B7C114A03F00F03136788E7104B3B
:105CC0009C4285D1AB7B0D4903F00F03C1F88030B6
:105CD000002A3FF47DAF2B7C084A03F00F03D36703
:105CE00076E7002A3FF474AF034B9C42E1D0044BAB
:105CF0009C42F0D06CE700BF0000015B00900350B5
:105D000000000A504FF48032054B9A6641F671321A
:105D100003F51C33DA63012203F50053DA607047A0
:105D20000090005041F671320121064BDA6303F511
:105D30000052D1600022DA634FF48032A3F51833A9
:105D40009A66704700000350013831289ABF024B11
:105D5000185C0020704700BF9BD4030838B5C2F31D
:105D60000625044602F0070241B942EA052242F440
:105D700040220634074B43F8242038BD11462846FC
:105D80001AF0A7F902462846FFF7DEFF163442EA6A
:105D90000022EFE7008003504FF48032064B5A6632
:105DA00003F5E6239B69C3F38512827003F03F027B
:105DB0001B0B42700370704700900050014B986CB1
:105DC000D96C70470080E00F0120034B9B680A33B9
:105DD00003F01F03984070470080E00F01224378D2
:105DE00001789A4030235943014B5A50704700BF05
:105DF00040E00350034BD3F82424D3F82004104090
:105E0000704700BF00C003502DE9F8431F4B054603
:105E1000D3F810334B1E0E2B0E461746047890F81D
:105E2000018026D951B34FF0000928461FB325F051
:105E3000D7FE0F21B8F1070F04EB440488BFA8F187
:105E400008084FEA0414124895BF4FEA88084FEA41
:105E5000880804340C3409FA08F201FA08F12044E5
:105E60001AF054F986B9284657B1BDE8F84325F031
:105E7000B7BE8946D9E7FFF7B1FFDAE78946D8E729
:105E8000BDE8F843FFF7AABFBDE8F88300C00350A0
:105E900030C00350054B9A689107FCD45A689207AA
:105EA000F9D4DA69002AF6D1704700BF00800A50A1
:105EB000034908B54B6825F09FFE02230B6108BD1E
:105EC00000800A5008B5FFF7E5FF0122024B03F5F9
:105ED00080514A601A6108BD00800A5008B5044B21
:105EE0005868012803D1FFF7E3FF024B586008BD53
:105EF00000800A5000A00A5038B5074DFFF7CAFFCE
:105F00006B680446012B03D1FFF7E8FFFFF7C2FFE0
:105F10002378EB6038BD00BF00800A5010B525F033
:105F200075FEB8B94A680B7812B1127843EAC20319
:105F30004A7843EA42038A6812B1127843EA82132C
:105F4000CA7843EA82030A6912B1127843EA42230B
:105F5000014A936410BD00BF00800A504FF48032A4
:105F6000084B5A6603F5E6239B691A0B027003F08F
:105F70003F0242704FF6FF72C3F385134280838065
:105F8000704700BF00900050014B986CD96C70476F
:105F90000080E00F70B5044622F01DFE064630B9C1
:105FA0000FCC044D0FC594E8030085E8030030468C
:105FB00070BD00BF6C16002047F6FF739A42F0B523
:105FC0006FD002296FD8394B5B5C012B6BD8384DF1
:105FD000DF0005EBC30415F83330A178012B13D192
:105FE0000025E078401AA84202D80844C0B2F0BDAB
:105FF000431B6668A0EB530336F913609642D4BF87
:106000001D4603F1FF30EEE760680028EFD0B0F9DD
:106010000040944204DBB0F902409442B8BF1446F9
:1060200083883D44FF2B19BFC8224FF0280CB0F9DC
:106030000620B0F908C0A2EB04030CBF012600261D
:1060400093FBFCF333446E781BB29E4201DD002BC0
:1060500001DA731E1BB24FF47A7C01339BB2071D29
:106060005D1E2DB24FEAC50E00EBC505EA88AD688E
:106070009E4214FB025222EAE27202F15C02B2FB7F
:10608000FCF204DD37F8335001339542E8D200EBDF
:106090000E039888904228BF1046884238BF0846B1
:1060A000A4E7FF20A3E70020A1E700BFCDD40308A9
:1060B0006C1600200229F0B555D82C4B585C0128ED
:1060C00051D82B4C04EBC00114F830004B68012868
:1060D0000FD1C8788C78904294BFC4EB0001C4EB18
:1060E0000201001BCAB28242C8BF002233F912006B
:1060F000F0BD002B37D08878904202D3B3F902006C
:10610000F6E7CC78B3F900009442F1D94C7899883D
:10611000013CA1F1FF06714203F10405E4B27141B3
:1061200003F10C07CEB2B44216D805EBC1014FF40F
:106130007A756A43B1F902404968521A04EBD47186
:1061400002EB610292FBF4F29042D1DBB3F9020060
:106150009042CDDC10B2CBE737F831C04E1C9445ED
:10616000E3D33146DEE70348C2E700BFCDD40308DE
:106170006C1600200080FFFF08B50448FFF70AFFF7
:10618000BDE80840012022F02ABD00BFD4D4030896
:1061900000487047902800207FB50222084B09492B
:1061A000CDE901234FF04073CDE90313052301A985
:1061B0004FF0FF30059322F069FD07B05DF804FB56
:1061C000006A1800000304002DE9F0418CB08846F5
:1061D000DDE912761D460446002847D0002945D047
:1061E000002F43D0002E41D013F00F033ED12048A2
:1061F0002049A360002A08BF01462362C4E90013B6
:10620000404609A91AF05DF868BB2046099926F0B6
:1062100043FE2946204626F03FFE6946404600F0F0
:10622000DFFA00BB694620461AF061FA404603A92E
:106230001AF02EF9B8B9204603A91AF058FA0697B1
:106240000127204645F0005506A9079708951AF042
:106250004EFA204609A909960A970B9526F042FEA8
:10626000204625F029FD0CB0BDE8F0812120FAE799
:1062700000010004000101042DE9F0418CB08846C2
:1062800016461D460446129F00284BD0002949D0CF
:10629000002A47D0002F45D00B68103B102B41D867
:1062A000214A22FA03F3D9073CD500231F4A836011
:1062B000C0E90023036209A940461AF002F870BB46
:1062C0002046099926F0E8FD2946204626F0E4FDFF
:1062D0006946404600F084FA08BB694620461AF039
:1062E00006FA404603A91AF0D3F8C0B9204603A91C
:1062F0001AF0FDF906960126204606A945F000553C
:10630000079608951AF0F3F9094B204609A9099751
:106310000A960B9326F0E6FD204625F0CDFC0CB046
:10632000BDE8F0812120FAE701010100000004042A
:1063300010000020F0B50C4617461E46054695B0E5
:10634000002874D0002972D0002A70D0002B6ED0A3
:10635000036B0F2B5BD80023364A3846C4E9002371
:10636000A360236211A919F0ACFF00285BD120467D
:10637000119926F091FD296B20460F2984BF01F069
:106380000F01103126F088FD384602A900F028FAE6
:10639000002848D1204602A91AF0A9F9384605A9D3
:1063A0001AF076F800283ED1204605A91AF09FF988
:1063B0000122214B089509920A932B6B05F11000DD
:1063C00003F00F0141F000510B900F2B0C920D9137
:1063D0000E900F9243F00052109226D90A9B08A902
:1063E00023F0005320460A931AF081F90BA92046A6
:1063F0001AF07DF90123119612930F4B204611A933
:10640000139326F06FFD204625F056FC0BE000F1BB
:106410002003019000930122102339462046FFF704
:10642000D3FE002897D015B0F0BD0EA9DFE72120DC
:10643000F9E700BF00000404100000202DE9F04F30
:106440009BB00C4690461F460546DDF8909000280C
:1064500000F0B280002900F0AF80002A00F0AC808C
:10646000002B00F0A980026B02EB09031B09B3EBC0
:10647000121F02F00F0600F0978000234F4A8B6036
:10648000C1E900230B62404617A919F01AFF034621
:10649000002840F0858006EB090B204617992BF069
:1064A0000F0A26F0F9FC5146204626F0F5FC40463E
:1064B00002A900F095F90346002871D1204602A9EF
:1064C0001AF015F9404605A919F0E2FF0346002825
:1064D00066D14FF00108019005A920461AF007F98E
:1064E000374A204608A90895CDF824800A921AF068
:1064F000FEF846F00051AAEB060605F1100346F03F
:1065000000560B93CDF830800D910E97CDF83C805E
:1065100010960D99204621F000510D910BA9009382
:106520001AF0E5F820460EA91AF0E1F8019B244A7A
:106530001193AAF1100343F00053CDF84880139350
:1065400005F120031493CDF854801692139B204636
:1065500043F080431393139B11A923F0005313932B
:1065600026F0C0FC204614A926F0BCFC144A17A94A
:1065700020461795CDF86080199226F0B3FC20468E
:1065800025F09AFBAAEB0B0149440190ABEB0A0200
:10659000009839441CF00DF8019B2A6B4A442A6389
:1065A00018461BB0BDE8F08F10304A4639463044DB
:1065B0001BF0FFFF0023F0E72123F1E703020004B3
:1065C000100000202DE9FF474FF000080E46174647
:1065D0000446CDF80080002859D022B9002528466D
:1065E00004B0BDE8F087002951D032F0030902F071
:1065F000030A1FD04FF0E063C0E900380123019186
:10660000C0F808800293C0F8208049F0005301A927
:10661000039326F067FC4946204626F03DFC2046C1
:1066200025F04AFB054628B14A46414630461BF054
:10663000B8FFD4E7BAF1000FD0D04FF000084FF008
:10664000E063C4E900380123CDF804D00293114B74
:10665000204601A9C4F80880C4F82080039326F0DE
:1066600041FC0421204626F017FC204625F024FB9F
:10667000054608B13A46D8E7009A4E44EB0001358A
:1066800022FA03F3AA4506F8013BF7D1A6E7212534
:10669000A5E700BF04000020F0B50F4616461D46D2
:1066A000044693B010B9212013B0F0BD0029FAD0F0
:1066B000002AF8D0002BF6D0002331461A4638467F
:1066C00019F0A4FD0028EFD1304602A919F03AFDD7
:1066D0000028E9D1EB68022B0AD039683F48029ABA
:1066E00081426B6902D01830814270D19A42DAD867
:1066F0002B68002BD7D14FF060623846C4E90023E5
:10670000A360236201A919F0DCFD0028CCD1019916
:10671000204621F4F061019126F0BEFB694628462F
:1067200019F0CFFD0028BFD12046009926F0B4FB18
:10673000384609A900F054F80028B5D1204609A927
:1067400019F0D5FF38460CA919F0A2FE0028ABD1EC
:1067500020460CA919F0CBFFEB684BB1284606A9DF
:1067600000F03EF800289FD1204606A919F0BFFF8F
:10677000304603A919F08CFE002895D1B368DA04DD
:106780000CD59B0427D50621F36932691B6801FBF0
:1067900003225B0043F0005303920593204603A9B4
:1067A00019F0A5FF28460FA919F072FE00287FF402
:1067B0007BAF20460FA926F095FB0325204625F048
:1067C0007BFA01287FF470AF013DF7D16CE7B3EBA2
:1067D000420F8DD267E7292066E700BF200000B096
:1067E00090B189B101234B60C368013B012B08D8EC
:1067F0008269064B1AB10A6000208B607047044A18
:10680000F9E74FF00053F7E7212070470800002018
:10681000BCE6030870B50E46154604468AB000284B
:106820005BD0002959D0002A57D0012329461A46A7
:10683000304619F0EBFC00284DD1B36813F4C04F7B
:106840004BD0AB6803F4C043B3F5005F45D1254B93
:10685000A060C4E90030206207A9304619F031FD7C
:10686000002838D12046079926F016FB304601A9AA
:10687000FFF7B6FF78BB204619F039FF304604A970
:1068800019F006FE38BB204604A919F030FFEB686A
:106890001BBBAB6803F4C043B3F5005F1DD1694671
:1068A000284619F07AFCB0B9009B6A699A4216D35F
:1068B0002A6943F0005307920122204607A9089253
:1068C0000325099326F00EFB204625F0F5F9012853
:1068D00001D1013DF8D10AB070BD2120FBE71D2098
:1068E000F9E700BF0000010206289ABF014B185CBF
:1068F00000207047C4E6030800F01F02A0F5062040
:10690000A0F55060812810D801230949400993401F
:1069100051F820201A4341F82020064951F8202040
:1069200022EA030241F8202070474FF0FF30704701
:106930009C1600208816002000F01F03A0F50620FA
:10694000A0F55060812810B519D801210D4A4009E1
:10695000994052F820300B430B4942F82030D1E9DE
:10696000004323448C682344CC68096923445B18A2
:1069700004D1C2E90033C2E90233136110BD4FF004
:10698000FF30FBE7881600209C1600202DE9F04F11
:10699000A7B003921F4604460822CDE904014140F6
:1069A00021FA02F34B40980702F1080218BF9B003E
:1069B000202A1C44F4D18123B4FBF3F303EBC3136B
:1069C000E41A7F4B04F506241B7804F55064002B71
:1069D00039D1FDF735FD054600286FD1014640222B
:1069E00006A81BF0DEFD2946402216A81BF0D9FDA3
:1069F000744D754EA8461035AE4228BF2E467348DA
:106A0000013E009643461022006806A919F0F8F8E6
:106A10004FF0000B81460DF1180AD94541D16B4862
:106A2000009643461022006816A919F0F2F84FF0BC
:106A30000008834616AEC34546D1654B9D42D8D16A
:106A400001225F4B1A704FF081080026DFF894B1E5
:106A5000A4F50625A5F550635B095BF8232004F037
:106A60001F01CA40D20746D45A4A52F82330CB40BD
:106A7000DB0732D58123002E08BF2646A5F6FF444A
:106A8000B4FBF3F303EBC313E41A04F50624B8F1E3
:106A9000010804F55064DBD1039B03B3FEB1344617
:106AA00025E05AF8040BFFF727FF013009D1002237
:106AB000434B1A70424B1B78002BC4D16FF09100EE
:106AC0000FE00BF1010BA8E756F8040BFFF734FFBA
:106AD0000130EFD008F10108ADE7039B23B96FF057
:106AE0008B0027B0BDE8F08F002E18BF3446329BD4
:106AF00000201C60F5E7309B13B10023309A13602F
:106B0000319B13B10023319A13604FF0100ADFF864
:106B1000BC90CDF800A000233A462146D9F80000E9
:106B2000FDF792FA002838D130993A682A4BE9B13A
:106B30009A42C1F800A01CD02146D9F80000FDF708
:106B4000DBFB0028CBD1D7E90223DDE90410834227
:106B500008BF8A422AD08123A5F6FF45B5FBF3F38F
:106B600003EBC313ED1A05F5062490E79A42EAD029
:106B7000E2E7319B002BE6D02146D9F8000016AAA7
:106B8000FDF7A8FA48B9319B309A1B681268934206
:106B900094D39B1A319A1360D5E7104B9842CBD00F
:106BA0006328C9D00E4B9842CDD087E7039B002BBA
:106BB0009DD07B68012B9AD16FF0840091E700BFD4
:106BC00085240020006D0800816D080080270020CA
:106BD000906D080088160020105D175EFFDF00F042
:106BE000FEDF00F09C1600202DE9F04F87B08246B2
:106BF000894698461646DDF840B02AB1002B53D09E
:106C000040F26C739A4252D8BBF1010F52D8002463
:106C100006F110073946012005941AF0FEFB0546DF
:106C200000284AD021463A461BF0BBFC05ABCDE913
:106C3000014300942B46012250464946FFF7A6FE29
:106C4000044680B110F18C0F08BF6FF08D043A46F6
:106C5000002128461BF0A5FC28461AF0C0FB204660
:106C600007B0BDE8F08F164BC5E902A92B60C5F847
:106C700004B02EB13246414605F110001BF099FCDC
:106C8000059E10483B462A4631460068FDF7F0FA5B
:106C900038B93046FFF730FE013008BF6FF0860488
:106CA000D5E76FF09104D2E76FF08604D7E76FF075
:106CB0009104D4E76FF08504D1E76FF08C04CEE740
:106CC000105D175E802700202DE9F0438DB08146CE
:106CD000DDE914780E4615461C469BB1B8F1000F4D
:106CE00005D16FF0860630460DB0BDE8F083002F69
:106CF000F7D0B7F1005FF4D3C3F1005303F580235D
:106D00009F42EED81022002108A81BF04AFC002266
:106D100007AB029305AB019306AB3146009348469F
:106D200008ABCDE90522FFF731FE06460028DAD18F
:106D3000059BA4B1AB4215D853EA0504D1D1069BFB
:106D40000B48C8F8004000943A46079900682B4465
:106D5000FDF77AF9002818BF6FF09106C3E7AB4240
:106D6000EDD2BEE75B1B9C4228BF1C46E7E700BF95
:106D70008027002030B58DB00C460546102200213A
:106D800008A81BF00EFC002207AB029305AB019391
:106D900006AB21460093284608ABCDE90522FFF754
:106DA000F5FD044608BB099B012B21D0079D134B21
:106DB00029461868FDF7A0FAE8B9A5F50623A3F55A
:106DC0005063812B05F01F020DD801210C485B098F
:106DD000914050F823204A4040F823202846FFF7EE
:106DE000ABFD013001D16FF0860420460DB030BDFF
:106DF0006FF08404F9E76FF09104F6E78027002034
:106E00009C1600202DE9F04F95B00446DDE9207571
:106E1000DDE922689346DDE91E028A46DDF890909E
:106E200029B96FF08604204615B0BDE8F08FBBF19C
:106E3000000FF6D00FB9002DF3D108B9002AF0D118
:106E400016B9B8F1000FECD1B9F1000FE9D02C4A16
:106E5000934252D12388B3F5105F4ED128220021EE
:106E60000DEB02001BF09DFB2022002102A81BF06D
:106E700098FB0AA826F006F810B16FF09204D2E74A
:106E800020465A46514602AB00F00CFA0446002850
:106E9000C9D1029819F085FC04460028C3D115B960
:106EA000C9F80050BFE7B74224D27B199E4221D2D5
:106EB0004545B6D839462A4630461BF058FB37467A
:106EC00015F00F0AADD1CDE900762B46524602A946
:106ED0000AA8FFF779F907460028E1D04246514653
:106EE00030461BF05EFB012FC9F800A0C5D16FF042
:106EF0008B0498E74545E3D993E76FF0850492E763
:106F0000004440042DE9F047C4B00C460746002178
:106F1000154601A820229A464C9EDDF83891DDF8EE
:106F200040811BF03EFB2022002109A81BF039FB09
:106F30002022002111A81BF034FB2822002119A8CF
:106F40001BF02FFB0021802224A823911BF029FB9A
:106F50003CB135B12EB1B9F1000F02D0B8F1000F3C
:106F600005D16FF08604204644B0BDE8F087218843
:106F7000628801F4E043B3F5804FF2D02C4B2D48EA
:106F80003B4043F01063834202D06FF08504EAE790
:106F9000D31DBAEBD30F4FEAD307E2D34F9B9F42E7
:106FA0003FD847F212139942EFD1B2F5807FECD16E
:106FB000214B4D98099384230230013620F00300C1
:106FC00016937B000D960E9012932046524629464A
:106FD00023AE01AB159600F065F904460028C2D136
:106FE0000B9B119043F4005319A80B9325F04AFF13
:106FF000D0B911AB09AA01A919A8FFF74DFB0546A5
:1070000010B14828ADD1C0E73A46314648461BF09A
:10701000D0FA2B4673550135842DFBD1C8F800708A
:10702000A1E76FF089049EE76FF092049BE700BF31
:107030000000FFF600000209200000802DE9F04169
:107040000D4614461E46C4B010B96FF086000DE020
:107050000029FAD0002AF8D0002BF6D0038803F4D8
:107060004F42B2F5824F04D06FF0850044B0BDE8C6
:10707000F081DAB2122AF7D123F0FF03B3F5E24F21
:1070800027D143883360FBB9E3003360B3F5807FD9
:10709000EAD10023184642492E19214411F8014D26
:1070A00016F8012D1043121B0CBF4FF0FF340024C3
:1070B000B54203EA040343EA0203EFD10028C4D037
:1070C000002BC2DA0020D1E7DA1DB4EBD20FDDD0FD
:1070D000BBE7B3F5824F60D10B78042BB5D12822E2
:1070E000002118A81BF05DFA18A825F0CBFE002897
:1070F00050D100278422394623A822971BF051FA49
:1071000001232022394668468DF888301BF049FA61
:1071100020224FF08808013C3946013505940DEBDB
:107120000200E400049564081BF03BFA22AD202223
:10713000394610A80C95CDF834801BF032FAE02CBB
:10714000CDE91458346003D0B4F5807F7FF47DAF6F
:10715000144B0734009308934FF4005302934FF4F9
:107160008043E4086A460A93640010AB08A918A893
:107170001194FFF791FA33680733DB085A0033B1F3
:107180000021531E013B297005F10105FAD20028A8
:1071900098D05AE76FF0920068E76FF0960065E7C5
:1071A000E8E6030820000080F8B5134642880C4644
:1071B0000732072A4FEAD20101D0A1426DD1D0E9AE
:1071C000016705882022184600211BF0EAF9360ADB
:1071D000034626B1012E11D06FF08B00F8BD002CB4
:1071E0005BD041F20102954205D0B5F5885F02D02F
:1071F000B5F5905F1BD15C600020EFE7C660002C06
:107200004BD041F2010295420BD15C60B90707F007
:1072100001021FD4002AEFD19A6842F080729A606E
:10722000EAE7B5F5885FF0D0B5F5905FEDD0B5F53C
:10723000105F0AD1182C03D0202C01D0102C2CD197
:10724000C3E90044002ED7D0E0E705F44F42B2F581
:10725000824F02D06FF08500C0E7EAB2122AF9D15E
:10726000202CF7D10E4A25F0FF05B5F5E24F1A6044
:107270000CD0B5F5824F10D14FF4005217F4705F67
:1072800009D017F4864F04D09A60E3E74FF48042A8
:10729000F4E742F480629A60D4E76FF086009DE7DD
:1072A000200000802DE9F041174600221C4643686B
:1072B0008CB01B0A80460D46009204D0012B56D09C
:1072C0006FF08B008EE0008820F0FF03B3F5824F53
:1072D00015D1B8F802200732D208009219F06DFAE1
:1072E000002800F0E1800B78042B05D1013FB7EBBB
:1072F000420F05F1010503D06FF0860072E00097A0
:10730000009E224631464046FFF74EFF002869D1D5
:10731000FA1CC4E9030522F003026261002E00F0AA
:10732000A4802022002101A81BF03BF931464046F1
:1073300001AAFFF739FF002840F097802368019ADF
:107340009A4240F092806368029A9A4240F08D809F
:10735000A368039A9A4240F08880A369079A9A42E8
:1073600040F08380E369089A9A423BD07DE0032F86
:10737000C2D90B78012B40F09A80497800294BD074
:10738000F73908299CD801A353F821F0F5730108B7
:10739000B1730108C1720108EB730108C1720108E1
:1073A0000F740108C1720108FF7301080774010816
:1073B0004FF41056F8253F4F1C22002102A81BF065
:1073C000F0F803230197CDE90435039601AA09AD2E
:1073D000134603CBAB42206061601A4604F10804F7
:1073E000F6D100200CB0BDE8F08110274FF0807678
:1073F000FA25E1E720274FF00076F725DCE7FE25A8
:107400002C4F2D4ED8E7FF252A4F2C4ED4E74FF4B2
:107410001056FC25274FCFE72B2F7FF66DAF20228C
:1074200020461BF0BEF805F110032361AB070DD019
:1074300001AB05F128061A4628686968083503C2B9
:10744000B5421346F7D1286801AD10606B68103F54
:107450002360AB6869466360EB682046A360012344
:107460006761E36018F06EFE28B1202200212046FB
:107470001BF097F840E7B8F80030009E03F44F4245
:10748000B2F5824F0ED1DAB2122A0BD123F0FF03EC
:10749000B3F5824F06D1730062691C339A42BFF480
:1074A0003DAFE2E73346F7E76FF085009AE76FF00C
:1074B000910097E720000080004400020044000390
:1074C0002DE9F04F91B0DDF8688081460C46924678
:1074D0009B461C9FB8F1000F05D16FF08604204633
:1074E00011B0BDE8F08F002FF7D00028F5D028228A
:1074F000002106A81BF055F806A825F0C3FC10B122
:107500006FF09204EBE714F47C1FC4F305452AD016
:10751000102DE2D81B9B9D422ED81A4B24F47E14CA
:107520009C422CD1002302AECDE90233CDE90433D5
:1075300052465B464946009606A8FEF79DFE044665
:1075400098B92A46314640461BF033F82346335556
:107550000134102CFBD100243D6006A818F0EDFD8D
:107560000028BCD0CCE71025D4E7212814BF6FF049
:1075700092046FF08604F0E76FF08904AFE76FF0D4
:107580008504ACE70002C00370B50E4614460546FC
:1075900010B96FF0860070BD0029FAD038220021A2
:1075A0001AF0FFFF094B24F47E129A420AD1338865
:1075B000B3F5105F06D1C4F30543102BE9D80020C2
:1075C0002C60E8E76FF08500E5E700BF0002C0032C
:1075D000F0B50E4617461C4605468DB0002834D03F
:1075E0004AB9002B31D1002914BF00246FF0860462
:1075F00020460DB0F0BD41B3002BF9D02822002168
:1076000002A81AF0CEFF02A825F03CFC10B16FF0E2
:107610009204EDE72B68104A23F47E13934217D1AE
:1076200000943B46324602A9281DFEF707FF044698
:1076300028B1212814BF6FF092046FF0860402A8CD
:1076400018F07BFD0028D3D0E1E76FF08604CFE788
:107650006FF08804CCE700BF0002C0032DE9F043BF
:107660008FB0894690461D460446169F00284ED08E
:10767000002A4CD0002B4AD0002F48D0002946D0F9
:107680002822002104A81AF08CFF04A825F0FAFB98
:10769000064628B16FF0920420460FB0BDE8F08393
:1076A0002368102D28BF102513F47C1FC3F3054257
:1076B00002D0954228BF1546184A23F47E13934200
:1076C00028D12822002104A81AF06BFF0023201DD6
:1076D000CDE90033CDE902334A466B4604A9FEF7F3
:1076E00029FE044660B1212814BF6FF092046FF0A8
:1076F00086043E6004A818F020FD0028CCD0C9E71D
:107700002A46694640461AF054FF2E46F1E76FF0CC
:107710008604C1E76FF08804BEE700BF0002C00323
:107720002DE9F0410E4617469846044600B3F9B1DC
:10773000F2B1982200211AF034FF3146069A04F182
:107740006000FFF721FF0546A0B9234642463946AF
:107750003046FFF7A7FD054660B97288D208A2F14E
:1077600010011029E26503D80A4BCB40DB0704D493
:107770006FF086052846BDE8F08163691C329342AC
:10778000F6D304F12003184621691AF012FF206194
:10779000F0E700BF010101000023C36001F13803DD
:1077A000036120230A6843618B6D0B4922F47E122A
:1077B0008A42436003D001F580718A4208D1102BC0
:1077C00001D0182B02D1036000207047202BFAD083
:1077D0006FF08800704700BF0001C00370B5044619
:1077E0000D4625F015FB0C2C064616D80C2C18D887
:1077F000DFE804F01B1B171B1B2A171B2E17311762
:1078000034000123194AA34013421DD1062C2AD06B
:10781000DB0706D54FF4F06022E00D3CE4B2132CF8
:10782000EFD9002321242B8009E08020FDF778FC8C
:107830004FF6FF7398420CBF0E2400242880304678
:1078400025F0E1FA204670BD00230F242B80F6E7D7
:107850004FF48060EAE74FF44060E7E74FF4C06020
:10786000FDF740FCE4E74FF4E060F9E71C450D004C
:1078700030B58BB06C46864D864825F00AFC0FCD9E
:107880000FC42B68844A2360FF238DF80130D2F89F
:107890004C3113F4802340F0EF80D2F850218DF862
:1078A00001309DF801306C46FF2B08BF2C23684641
:1078B0007A4D8DF80130FDF705FD3220FDF740FDD2
:1078C0000FCD0FC40FCD0FC495E8030084E803006B
:1078D000714BD3F84C21120340F1B280A3F5FE4363
:1078E0001C88B4F5807F28BF5F248DF81940FDF710
:1078F000E3FC044484F3080469488DF81840FBF75E
:1079000029F96846FDF718FC3220FDF71FFD654890
:10791000FDF71EFE6448FDF78FFE644C644825F0B9
:10792000B8FB0020FDF718FDFDF7C8FD236F002010
:1079300023F0070343F003032367FDF7E9FD236FFB
:107940005C4923F4744323675B4BD3F8FC2012F0AB
:10795000807279D1D4F8803023F0030343F001031F
:10796000C4F88030C1F88020504CD4F8203123F086
:10797000070343F00203C4F82031D4F8283123F080
:10798000070343F00203C4F82831D4F8803123F010
:10799000030343F00103C4F88031D4F8403123F0ED
:1079A000030343F00203C4F84031D4F8603123F0FC
:1079B000030343F00203C4F86031D4F8403223F0EB
:1079C000030343F00203C4F84032D4F8003223F03A
:1079D000070343F00203C4F80032D4F8083223F05E
:1079E000070343F00203C4F80832D4F8703223F0DE
:1079F000030343F00103C4F87032D4F8203223F0BB
:107A0000070343F00103C4F82032FDF753FB4FF0A6
:107A1000E0220020136943F004031361D4F86032BC
:107A200023F0070343F00103C4F86032D4F8943222
:107A300023F0070343F00103C4F894320BB030BDC8
:107A4000D3F85041E4B250E7D3F8FC2022F0807222
:107A5000C3F8FC20D4F8802022F0030242F0010297
:107A6000C4F880200022C1F88020D3F8FC2042F026
:107A70008072C3F8FC2077E74FF07E6393F89C2078
:107A800093F99C30002BFFF60CAF8DF8012008E72E
:107A900008E703084CE703080080E00F1CE7030831
:107AA000C017530200B4C404C0EA21010080005092
:107AB00054E703080090005000ED00E007B5094BC3
:107AC00018689A889B7900906846ADF804208DF874
:107AD0000630FDF723FF0920FDF758FF002003B013
:107AE0005DF804FB44E7030870B500F055FC04465C
