:020000040801F1
:10200000C80A0020492C0108714A0308714A0308D4
:102010002F730308714A0308714A0308714A0308C1
:10202000714A0308714A0308714A0308714A030898
:10203000714A0308004B0408DF730308714A030860
:10204000714A0308714A0308714A0308714A030878
:10205000714A0308714A0308714A0308714A030868
:10206000714A0308B9B80108C1820308714A03081C
:10207000714A0308714A0308714A0308714A030848
:10208000714A0308714A0308714A0308714A030838
:10209000714A030819360108714A0308714A030896
:1020A000714A03082532010805320108714A030804
:1020B000714A0308A5F6020851010308B507040890
:1020C000B1070408E1F80208CB070408B9070408BF
:1020D00021010308BD07040891010308F901030861
:1020E000714A0308714A0308714A0308714A0308D8
:1020F00097670308714A0308714A0308714A030885
:10210000714A0308714A0308714A0308714A0308B7
:10211000714A0308714A0308714A0308714A0308A7
:10212000714A0308714A0308714A0308714A030897
:10213000714A0308714A0308714A0308714A030887
:10214000714A0308714A0308714A0308F5480408F4
:1021500015DC0208714A03089F070408A507040854
:10216000714A0308714A0308714A0308714A030857
:10218000F0B5114A114C124E00F00105E3695F07EA
:1021900013D40DB9334213D103EA00078F4207D19C
:1021A0000B4A1A40002A0CBF00206FF00100F0BD5E
:1021B000013AEBD16FF00200F9E74FF0FF30F6E79C
:1021C0006FF00100F3E700BF809698000000035015
:1021D000020001000B4B70B5D96911F480310DD1AB
:1021E00001244FF48072084E084DF46020462C64A0
:1021F0001A61FFF7C5FF3464EC6070BD6FF0010039
:10220000FBE700BF00000350001003500020035004
:102210004FF4803238B50E4B0E4C9A66E56941F6A4
:10222000713315400122E3630B4B0021DA60022376
:10223000606121202361FFF7A3FF10B92120FFF780
:102240009FFF0122054BDA600DB10023E36338BD27
:102250000090005000000350001003500020035075
:1022600070B5134C6061E3695B071ED40E4656F8E7
:10227000043B8D18A361AE420BD104230021212021
:102280002361FFF77DFF58B9BDE870402120FFF7BB
:1022900077BF08210846FFF773FF10B104232361BD
:1022A00070BD56F8043BA361E5E74FF0FF30F7E758
:1022B000000003502DE9F84315464FF48032184BC7
:1022C00089469A6603F51C33DF690646174041F6D6
:1022D0007132DA63012203F58053DFF84C80DA6053
:1022E00055B9284601220F4BDA601FB10022A3F531
:1022F0000053DA63BDE8F88306F5005404EA0804E5
:10230000A41BAC4228BF2C46494622463046FFF764
:10231000A7FF0028E6D12644A1442D1BE0E700BF1B
:10232000009000500020035000E0FFFF000000007C
:10233000000000000000000000000000000000009D
:10234000013800D0FCE7704707B588B10BA3D3E98B
:1023500000230949C1E90223CDE900234FF0FF32F0
:102360004FF0FF3308692DF0F7FC03B05DF804FB74
:1023700000220023EDE700BF500B00200DD50155D2
:10238000200000000348044B834202D0034B03B1FA
:10239000184770478C2E00208C2E00200000000073
:1023A000064B0749C91A891048BF0131491003D0AB
:1023B000044B0BB101481847704700BF8C2E00201A
:1023C0008C2E00200000000010B5064C237843B985
:1023D000FFF7D8FF044B13B10448AFF3008001238B
:1023E000237010BD922800200000000018B00408DF
:1023F00008B5054B1BB105490548AFF30080BDE8A2
:102400000840FFF7CDBF00BF00000000B00D002066
:1024100018B00408A3F5803A704700BF174B002B93
:1024200008BF134B9D46FFF7F5FF00218B460F4673
:102430001348144A121A25F0DCFF0E4B002B00D073
:1024400098470D4B002B00D0984700200021040036
:102450000D000D48002802D00C48AFF300800AF0B0
:102460007DF82000290025F02DFF09F0ABFE00BF0C
:10247000000008000000000000000000C80A002062
:10248000C80A0020202A00200000000000000000F0
:10249000044B834205D1044B1B7813B1C8B216F02C
:1024A00067BB7047C80D00209328002030B5002579
:1024B00003685A4A23F47F4323F0070385B093420D
:1024C00004460295ADF80C5000F0828002F1C06223
:1024D00002F5802293420DD0514A934240F09C80F5
:1024E000504B1B78002B00F0978005B0BDE83040C2
:1024F00024F071BFB0F805301F2B40F08D80FF2312
:1025000004A91A4611E9030022F02CFA012814BF8D
:1025100041F2FC15434B05F0FC0208BF18701F2167
:10252000207913F037F9054618B33F4C3F4920682E
:1025300024F083F93E49206824F07FF922F019FA4B
:1025400022F018FA3B4B3C4A00933C49592320683F
:1025500024F073F93A492B463A4A206824F06DF981
:10256000284600F0E5F83849206824F066F900BEF6
:10257000FDE7364900902379354A0968354800F06F
:1025800033F90546002847D0274C2849206824F015
:1025900054F92749206824F050F922F0EAF922F092
:1025A000E9F9244B244A009324496223206824F04B
:1025B00044F923492B46234A206824F03EF9284653
:1025C00000F0B6F82049206824F037F900BEFDE796
:1025D000B0F80530B7EE047A07EE903AF8EE677A75
:1025E000B0F8073067EE877A013307EE103AB8EE9D
:1025F000C77A67EE877AB1EE047A67EE877AFAFED9
:10260000677AFCEEE77A17EE903AB3F57A7F38BF37
:102610004FF47A730D4A136005B030BDA000060276
:10262000A000060193280020000E002090600408FE
:10263000E8490408954A0408ED490408604A04087A
:102640006F4A04086C4A0408844A0408EC2B0020F2
:1026500091240108C80D00200B4B02461B7883B162
:102660000A4B1B78834234BF00200120084B1B78A3
:1026700033B1084B1B78134113F0010F08BF002042
:1026800070470120F2E700BF5E2E00205D2E002083
:10269000942800205C2E002001222DE9F342174BE4
:1026A00000241A700422164B25461C70154B164E3A
:1026B0001A701F22154BDFF860901A70144B1B68BC
:1026C0000193019BA3420BD056F8047B3B7A022B6B
:1026D00010D14946786825F097FE48B9386810B996
:1026E00055B906F035FA0B4B186002B0BDE8F08220
:1026F00005B93D680134E4E72846F4E75E2E002082
:10270000942800205D2E0020382C00205C2E002014
:10271000A4680408000E0020B54A0408024B0349CF
:10272000186824F08AB800BF000E0020BA4A0408D6
:1027300070B50C4C0C490646206824F07EF806F073
:1027400007FA0546206806F0F7F93046FFF7E6FF7E
:10275000284606F0F1F920680449BDE8704024F0ED
:102760006CB800BF000E0020BC4A0408BE4A040832
:1027700038B5054631F048FE00230B4A14685CB1B9
:10278000AC4206D1A96A6BB1996231F038FE0120E2
:1027900007E02346A46AF2E7002DF3D031F02FFEC4
:1027A000204638BD1160F0E7040E002010B5044645
:1027B000B0B131F09FFB2046FFF7DAFF10B194F87B
:1027C0002C300BB9002010BD064C2368002BF9D02B
:1027D00031F01AFE2368013B236031F010FEF1E76F
:1027E0002220F0E7080E00202DE9F04385B00546D1
:1027F000914698460E469DF8307009B9002F5CD17D
:102800002846FFF7D3FF0446002836D185F82C0070
:10281000686307F0D1F8864233D931F003FC2146D2
:10282000844640F2E7304FF47A720023E6FB0C0155
:1028300009F038FB4FF0FF32002309F033FB2B4641
:10284000E88611462846CDE900441D4A31F0E9FFEB
:10285000044690B9C5E9089885F82D702E6331F0CB
:10286000D3FD184A136833B31A469B6A002BFBD179
:1028700095620023AB6231F0C2FD204605B0BDE891
:10288000F08347B12B4631462846CDE900440C4A37
:1028900031F01AFCDCE7304603A931F0C9FB0446ED
:1028A0000028EAD12B462846CDE90077044A03994F
:1028B00031F093FFCCE71560DBE72124DDE700BFB3
:1028C000C9280108040E002091F82C3013B50C46DD
:1028D00083B98B8ECA8E93420ED243B9CDE90033B1
:1028E00020460B46124A4FF0FF3131F05AFFA38EBB
:1028F0000133A38602B010BD52B191F82D3093B1CF
:1029000001230093D1E908232046096BFFF76CFFF0
:10291000012384F82C30074B1A6801321EBF1A6855
:1029200001321A60E6E7084631F0E4FAF0E700BF4A
:10293000C9280108080E00202DE9F041154E336822
:1029400033B34FF00008144F31F05EFD05463C688C
:1029500024B92846BDE8F04131F051BD94F82C303F
:10296000A3B1336884F82C8013B13368013B336022
:1029700094F82D3013B92046FFF7FAFE284631F0BF
:102980003EFDD4E9083120469847DDE7A46ADFE739
:10299000BDE8F081080E0020040E0020034B1B68E8
:1029A000002B14BF04200120704700BF080E002038
:1029B000024B1868B0FA80F040097047080E0020FA
:1029C00008B5044831F061FE25F029FCBDE8084057
:1029D00000F01CB8385E0408014831F056BE00BF54
:1029E000385E040807B5082022F0B8F80222064B2A
:1029F0006846CDE9002321F0DBFF082003B05DF835
:102A000004EB22F0B6B800BF006A18102DE9F04FB1
:102A1000544E97B0354609AC0FCD0FC42B6806F164
:102A2000140523600EAC0FCD0FC495E80F00DFF83E
:102A30004C8184E80F004C4831F027FE404631F0CD
:102A400024FE4FF48073494FADF83C30484B384674
:102A50000B9309A90EAB0D9303F0ACFC0421B6F85F
:102A600034B00DEB01000122ADF804B000F076FAAD
:102A7000B6F836A00022012102A8ADF808A000F0A7
:102A80006DFAB6F838900122042103A8ADF80C9035
:102A900000F064FA758F0122042104A8354CADF8CA
:102AA000105000F05BFA344B4FF44870C4F8C8344F
:102AB0004FF00213C4F8C434A3F58033C4F8CC3407
:102AC0001C23C4F8B43406F0E5FF08A8ADF8205084
:102AD00000F09EFA142006F0DDFF08A8ADF82050A3
:102AE00000F06EFA232006F0D5FF08A8ADF82050BC
:102AF00000F08EFAB921384622F077FE08A8ADF82A
:102B0000205000F05DFA002205A81146ADF814B07F
:102B100000F024FA002206A81146ADF818A000F033
:102B20001DFA0122002107A8ADF81C9000F016FA4A
:102B30000122002108A8ADF8205000F00FFA384615
:102B400003F098FB00234046C4F8B434C4F8C834FA
:102B5000C4F8C434C4F8CC3431F09AFD17B0BDE8E1
:102B6000F08F00BFC44A0408385E040800000A5011
:102B7000E070720000C00350020003003C5E0408D5
:102B80004FF000639B6A03F17842B2F5903F03D2A5
:102B90001968064A914203D000230370836070478E
:102BA000012202709A689B694260F7E707B0CD5E28
:102BB0004FF000639B6A10B503F17842B2F5903F85
:102BC00011D21968094A91420DD1094C227812F0AC
:102BD000FD0F01D0002010BDDB6998470028FAD115
:102BE00001232370F6E74FF48170F4E707B0CD5E60
:102BF00095280020024B034A1A6023F0CEBD00BF87
:102C00000000002002020FF0BFF34F8F0549064B72
:102C1000CA6802F4E0621343CB60BFF34F8F00BF7A
:102C2000FDE700BF00ED00E00400FA050348044A98
:102C30000449121A921021F01CBF00BF8021010824
:102C400040230108202A002008B5154B83F30A8889
:102C500000F030F8FFF7EAFF124B13498B4212D312
:102C60000020124B12498B4218D3FFF7D7FB18688C
:102C700050F82240586840F8224001329868824259
:102C8000F5D30C33EAE70022F8E71C6844F8220089
:102C900001325C68A242F8D30833E4E70022F8E787
:102CA0000800002020B004082CB004082CB0040850
:102CB0002CB004084FF48041124B134A70B59A604F
:102CC000D3F88820114D42F47002C3F88820104ACE
:102CD00005F5005491664FF0FF3222660D4A626698
:102CE0000222C3F8D020BFF34F8FBFF36F8F4FF492
:102CF0004036002005F012FF0020E66005F0F2FEED
:102D00002E6170BD00ED00E000200108008000444D
:102D100000900050F7FF3700014B1860704700BF6C
:102D2000F42B0020054B1860054B1B6F03F00703C5
:102D3000032B01D130F052B9704700BFFC2B0020AB
:102D40000080005030B5056887B0AB88044618484D
:102D5000ADF80C3031F099FC0022012103A800F0FD
:102D6000FDF80DF10B0103A821F03BFF9DF80B309E
:102D700083F001032B70AB79022B15D14FF0FF3399
:102D80000022CDE9043304A90A4B009403A800F003
:102D9000E7F9049B009401330CBF04220122054B88
:102DA00005A903A800F05CF9002007B030BD00BF02
:102DB000385E0408A14A0308002307B52948019397
:102DC00031F063FC4FF44073012204216846ADF8F2
:102DD000003000F0C3F80122234B0520C3F844243F
:102DE00001A931F04DFC002839D1204BD3F8F02057
:102DF00042F00102C3F8F020D3F8FC2042F08072C8
:102E0000C3F8FC201A4AA3F55D431A60019B194AD6
:102E100003F5D52303F2FC43B3FBF2F3164A013B5F
:102E200013610223C2F8F0304FF48073C2F8043308
:102E30004FF06043114AC3F8B02F114AC3F8802EF7
:102E4000D3F8002E42F48072C3F8002EFF2283F8DC
:102E50002020D3F8002E22F48072C3F8002E03B095
:102E60005DF804FB385E040800D0035000ED00E07C
:102E7000FF030040F8590D00000004E055CEACC53A
:102E8000090001004FF06043D3F8802E30B5D2071F
:102E900015D501240B4D8440D5F8FC2042F08072FA
:102EA000C5F8FC20D3F8002E2243C3F8002E53F8B7
:102EB0002020002AF0D003F82010002030BD11207F
:102EC000FCE700BF00ED00E02DE9F04104460C25D1
:102ED0004FF00108124E0CB314F001000BD000208B
:102EE00024F0010405FB00625768002FF3D09168BD
:102EF000C0B2B847EFE72246013020284FEA52021D
:102F000001D0D307F8D508FA00F20F2824EA02040A
:102F1000E8D9103805FB0062B432E5E7BDE8F0817E
:102F20000C0E002008B50C4831F0AFFB192005F05D
:102F3000E7FD28B1192005F0F1FD192005F0D2FDBB
:102F40001A2005F0DDFD28B11A2005F0E7FD1A2052
:102F500005F0C8FD002008BD385E04082DE9F041E9
:102F60000E469046054618B30F2923D80378E3B1DF
:102F7000012B03D0022B18D0032B1BD13F236A78DF
:102F8000D340DB0716D50D4BD3F81043A4B931F06D
:102F90003BFA074642462846314603F02DFD3846A7
:102FA00031F02DFA2046BDE8F08140F2FF33E6E72C
:102FB0002224F7E72124F5E70224F3E700C00350B9
:102FC00010B50446E8B10378C3B1012B03D0022B3E
:102FD00014D0032B17D13F236278D340DB0712D5DF
:102FE00031F012FA0122637821789A403023594354
:102FF000064B5A5031F003FA002010BD40F2FF3367
:10300000EAE72220F9E72120F7E700BF40D003508C
:1030100010B50446E8B10378C3B1012B03D0022BED
:1030200014D0032B17D13F236278D340DB0712D58E
:1030300031F0EAF90122637821789A40302359432C
:10304000064B5A5031F0DBF9002010BD40F2FF333F
:10305000EAE72220F9E72120F7E700BF40E003502C
:103060002DE9F0410D46164698460446002851D0F9
:1030700000294FD002784AB1012A42D0022A05D055
:10308000032A3ED0FF2A07D0212041E040F2FF333F
:103090006278D340DA07F7D5022E01D9042EF3D196
:1030A00031F0B2F923780746FF2B05D0324620468F
:1030B000296803F0E7FC28602B68013309D12378E5
:1030C000FF2B06D1144B6078D3F8241422F0E6FBD2
:1030D000286029684B1C17D00C23104A03FB0122DF
:1030E000069BC2F8048093602378FF2B04D0012351
:1030F0000B4A8B40C2F82434384631F080F9002066
:1031000006E03F236278C4E7384631F078F92D2095
:10311000BDE8F0812220FBE700C003500C0E002028
:1031200000D003500F2810B5044613D831F06CF9C5
:103130000123094AA340C2F82034C2F824340C22E7
:10314000064B02FB04330024C3E9014431F057F974
:10315000204610BD2120FCE700E003500C0E0020AB
:103160002DE9F0410D4690461F460446002842D006
:10317000002940D0017849B1012933D0022905D076
:1031800003292FD0FF2907D0212032E040F2FF335E
:103190006278D340DA07F7D531F036F9237806465E
:1031A000FF2B05D042462046296803F0F1FC286039
:1031B0002A68531C19D00C23104903FB0211069BEB
:1031C000C1F8B870C1F8BC302378FF2B05D00123BB
:1031D000103293400A4AC2F82434304631F00FF9D5
:1031E000002006E03F236278D3E7304631F007F94C
:1031F0002D20BDE8F0812220FBE700BF0C0E00204F
:1032000000D0035008B503F0DDFB054B00F055304E
:1032100020F05020C3F82004BDE80840FFF754BE5A
:1032200000E0035008B503F0CDFB054B00F0AA30D9
:1032300020F0A020C3F82004BDE80840FFF744BEFA
:1032400000E0035013B504460A4831F01EFAA27894
:103250000421B2FA82F2237852098DF8043063789F
:103260000DEB01008DF80530FFF778FE002002B06D
:1032700010BD00BF385E04082DE9F04F9A46564B4A
:1032800085B01B7806460F461546DDF83C909DF844
:1032900044B0DDF85080002B00F09780072A00F240
:1032A00096800E9B002B00F09280B9F1000F00F089
:1032B0008E80129BB3F5006F00F38980012803D143
:1032C000109B002B00F08380444B03EB05131B7B0A
:1032D000002B7ED0424C10220021684625F089F850
:1032E00004EB45141022A7BB3946204625F081F88F
:1032F00043F210036380BBF1000F03D1E37843F086
:103300000303E370364A0E9B02EB451CCCE90193A4
:10331000129B6901581E9DF84C30C0F30A0003F05F
:1033200003039B0643EA001E53582E48012E00EA71
:1033300003004EEA0003CDF800A0535017D0B8F1B7
:10334000000F2ED19CF8023068F304138CF8023081
:1033500027E00021204625F04CF84FF444736380A9
:10336000BBF1000FCED1E37843F03003C9E713235C
:103370000CF1100ECCF80C309CE80F008EE80F001A
:103380006FF00301DCF81C20109B61F39F02012FFA
:10339000CCF81C20CCF8143003D1CCF81890CCF821
:1033A000043000270D4A290102EB051342F8018081
:1033B000159A28465A60694622469F605E7303F05C
:1033C0004DF9384605B0BDE8F08F0748FAE70748E1
:1033D000F8E70748F6E700BF9628002074100020A1
:1033E000740F00200F80FFF3028000F0018000F0D6
:1033F000078000F038B5124B05461B78DBB1E0B111
:1034000031F002F80F4A00231146147B54B92B60A7
:1034100001251A0101EB03131D738C5030F0EFFFEF
:10342000204638BD0133082B02F11002EDD130F0F7
:10343000E6FF0548F5E70548F3E70548F1E700BF73
:103440009628002074100020048000F0028000F014
:10345000018000F038B530F0D7FF002305460B4A55
:10346000147B6CB90133082B02F11002F8D103F080
:10347000A1F8074B28461C7030F0C1FF204603E03E
:10348000284630F0BCFF034838BD00BF7410002050
:1034900096280020058000F00D4B10B51B780446DF
:1034A00093B1072812D830F0AFFF0A4B03EB041397
:1034B0001A7B2AB100241C7330F0A1FF204610BDF6
:1034C00030F09DFF0448FAE70448F8E70448F6E7BF
:1034D0009628002074100020068000F0028000F082
:1034E000018000F0154B13B51868002301908DF88A
:1034F000043030F089FF124B1C7824B130F07FFF8C
:10350000104802B010BD01221A7030F078FF0E4B47
:1035100001A81C731C7783F82C4083F83C4083F887
:103520004C4083F85C4083F86C4083F87C4008236F
:103530008DF8073003F062F82046E2E7504B0408AC
:1035400096280020038000F074100020F8B50D4D7F
:103550002D7885B1072810DC0B4D060105EB001412
:10356000277B67B1AB510025069BA560636003F024
:1035700075F82846F8BD0548FCE70548FAE7054810
:10358000F8E700BF9628002074100020028000F0A9
:10359000018000F0078000F00A4A08B512785AB19D
:1035A00007280BD8084A02EB00131B7B43B100210C
:1035B00003F016F8002008BD0448FCE70448FAE7C9
:1035C0000448F8E79628002074100020028000F0DC
:1035D000018000F0078000F00A4A08B512785AB15D
:1035E00007280BD8084A02EB00131B7B43B10121CB
:1035F00002F0F6FF002008BD0448FCE70448FAE7A3
:103600000448F8E79628002074100020028000F09B
:10361000018000F0078000F0184B2DE9F0411F6D8C
:103620005B6D1F4000D5FEE701260025144CDFF836
:103630005880374218D02368C8F85060A3B1A168F9
:10364000284601316268A1609847637B012B0BD14A
:1036500050B90C4B03EB45131A7B60F341021A730C
:103660001A7F60F341021A770135082D4FEA4606AA
:1036700004F11004DDD1BDE8F08100BF000004506A
:1036800074100020740F0020002004502DE9F04F2A
:10369000144605460E469B46C36B87B001225B6904
:1036A00002A960689847EB6B01225B6903A9304669
:1036B000984702A821F02DFF074648B10023A375C3
:1036C00063754FF0FF33A360002007B0BDE8F08FB3
:1036D00003A821F02BFF0123A375237E04EBC30372
:1036E000DE611F846368B3420ED1206003A821F01D
:1036F0003FFF4FF0FF332075A360237D043B022B77
:1037000026D80023A375DFE723681A1A53425341D2
:10371000A37503A821F02CFF237D834218BFA77552
:1037200003A821F007FF074602A821F003FF874204
:1037300018BF002303A818BFA37521F003FF074695
:1037400002A821F0FFFE87421CBF0023A375D4E727
:1037500003A821F0EFFE80B1EB6B022230465B69DB
:1037600004A9984704A821F0F4FE0346207D03280D
:1037700039D8DFE800F03838040903A8F3E7CC2291
:10378000237E04EBC3031A8401F0EAFA109B18703D
:1037900003A8277E21F0C2FE04EBC70787F82200AA
:1037A000237E03A804EBC303B3F8209093F82270A0
:1037B00021F0C0FE804603A821F0C4FE8246B8F185
:1037C000000F15D0EB6B022230465B6904A99847C5
:1037D00004A821F083FE6075637D6BB90023A37597
:1037E0004FF0000838E0227E04EBC2021384CBE7DE
:1037F00003A821F05EFEEEE794F81680B8F1000F02
:10380000EED0B9F1000F09D1DFB10123E375637E7A
:10381000002B4FD1012F42D1677614E06B6C06EB81
:103820000A02594286EA020008421CBF0021A17523
:10383000591E0A409B1A9945D0D8A37D002BE3D18D
:10384000CEE7E37D43B94FF000084B465246314680
:10385000284621F09CFBA060A27D12B123694B4455
:1038600023611A49237E097899422AD901332376A4
:10387000BBF1000F27D032B3E37D23B3B8F1000FC3
:1038800021D1032F1FD0A1684B1C1CD0109B2246B6
:10389000009328460123FFF7F9FEA07513E095F881
:1038A000343063B9EB6A0133CFD1032FCDD101237B
:1038B000A376C8E7012FCFD0032FC4D1F7E79846EE
:1038C000C3E70023A375A07DFFE600BF744B040887
:1038D0002DE9F04F0E46984600238BB004464FF07A
:1038E000FF31104617468DF8133001F023FAB6F574
:1038F000801F3BD3B21C53D1E56A6B1C57D12046C5
:10390000616A21F08AFA0546B31C18BF0123DFF86B
:1039100010910193636A626C0293236805A902FB0C
:10392000053AE36B05225B695046984705A821F0EC
:103930008BFE21F0AEFE504621F0B6FE4FF0000B9C
:10394000824601464B1C05D0636C81EA0A025B4249
:10395000134232D02946204621F05FFA029BAB4247
:103960004DD0BBF1000F4DD10546D3E7314605AA36
:1039700004F1080021F01BFD0146481C10D0384618
:1039800001F0D8F90122394620460DF1130321F048
:1039900050FB28B19DF8133088F80030002003E078
:1039A000237C002BA8D12D200BB0BDE8F08F23681D
:1039B000ED1A636CB5FBF3F5A6E7484601F0BAF9DA
:1039C0000DF1130349462046019A21F032FB0346CC
:1039D00090B1B21C03D0D9F80020B2420CD19DF8AE
:1039E000132003930D4B88F8002049461A68384687
:1039F00024F014FD039B9B46D9F80810A2E7BBF105
:103A0000000FD0D0B6F5801FC8D2314698F80030EC
:103A10007A6804F1080001F0BBF8BFE7704B0408B6
:103A2000681700202DE9F3410446174698460E46D4
:103A3000194D816AE36A8B422AD04B1C18E0284654
:103A400001F078F90122294620460DF1070321F003
:103A5000F0FA30B14346294620469DF80720B84782
:103A6000B0B1A9684A1C05D0012E0AD0E36A994278
:103A7000E5D10DE06968204621F05CFA012E01468F
:103A8000D8D16B6881EA0302636C5B421A42D1D0E1
:103A900002B0BDE8F08100BF3C1700202DE9F04FD7
:103AA0004FF0FF334FF6FF720025044600F1080681
:103AB000C0E909238BB0C3620562056330460F4637
:103AC00021F046FC204621F078F920BB20463946FB
:103AD00021F0F3F9204621F070F920BB5E200BB0F5
:103AE000BDE8F08FE26B2368606CD2F814C000FB75
:103AF0000530052205A9E04705A821F0A5FD01280C
:103B000028D12946204621F0A9F9421C2946204601
:103B100021F072F90135E3699D42E3D3204621F09B
:103B20004CF90028D2D000254FF0FF394FF6FF7333
:103B3000CA46A846C4E90853E369984514D3A5EBDF
:103B40000905012D36D84FF6FF72636A934246D1BC
:103B50006720C4E721F0A2FD0028DBD029462046DB
:103B600021F07CF90246D1E72368E26B606C57696B
:103B700000FB0830052205A9B84705A821F064FD1F
:103B8000834605A821F037FD0746584621F081FD00
:103B900068B1574538BFC4F82480B94528BFB94635
:103BA000BD4238BF3D46BA46236A0133236208F15D
:103BB0000108C1E74FF6FF7300256362E3699D4288
:103BC000C1D2676C2068E36B052207FB05005B69C7
:103BD00005A9984705A821F00EFD0135EEE7E26B37
:103BE000676C2068694607FB030055690522A847F2
:103BF000684621F000FD626A2368606C4B4D00FB53
:103C0000023021F051FD4FF0FF33A062E3622A46FB
:103C10006FF00101204605ABFFF75AFE002846D1A0
:103C2000AD6829462046E56221F0A3F8206320B95B
:103C30002046E16A21F07EF9E0622946204621F023
:103C400079F90546A36A9D4233D1204621F064F8F4
:103C500000278046B946E36999453CD3B84559D910
:103C60002046616A21F0D9F80026054604F1400A91
:103C7000B74212D8626C2368694602FB0539E36BD0
:103C800005225B6948469847684621F0B4FC5346D4
:103C900002464946E06B21F009FD2946204621F005
:103CA000BCF80136B0450546E2D1642017E7A56AA5
:103CB000B7E72946204621F05CF8236B29460344E8
:103CC00007462363204621F035F90546002FB9D178
:103CD000C4E90B07B6E7636C2568052203FB0955A9
:103CE000E36B05A95B692846984705A821F0ACFC61
:103CF00021F0CFFC58B1284621F0D6FC01462046E1
:103D000021F037F8636C143B984208BF013709F182
:103D10000109A0E7304621F01BFB0023204619468D
:103D2000034AFFF77FFE0020D9E600BF941700206A
:103D3000215003082DE9F041036B9046826B076820
:103D40009A4288BF8363426C436A90B002FB037758
:103D5000C36B0E46052201A95B69044638469847A5
:103D600001A821F071FC01280146307057D0656C24
:103D7000E26B2368606AD2F814C005FB00300522AC
:103D800006A9E04706A821F05FFC01284FF00005D6
:103D900023D0D4E90A3201219342CDE90B458DF8B5
:103DA00034800E958DF83C102AD11946204621F01A
:103DB000C1F8236B626C14339B1AE06223630C9B83
:103DC00053B99DF83C303BB1626A616C2368E06B8B
:103DD00001FB023121F0F0FB0C9DE36B05225B69D6
:103DE00001A93846984701A821F02EFC30702846DA
:103DF000236BA26B9A4288BFA36310B0BDE8F08129
:103E0000237C33B91C490BAA04F1080000F00EFF13
:103E1000D5E72046194A0BABFFF704FECFE7237C1A
:103E200023BB2246164904F1080000F0FFFE616A38
:103E3000204621F013F8616A421C204620F0DCFF86
:103E4000054620B9236B626C1344143B2363204660
:103E5000A16A21F06FF82368A062C01A636CB0FBFE
:103E6000F3F06062204621F0A8F8B6E70023204670
:103E7000044AFFF7D7FDDAE7A945010825450108FF
:103E8000BB5003085750030873B50D46D11E4A4274
:103E90001C461B7E4A419A4226D1296823689942D2
:103EA00022D3636899421FD8114E0DF107033246A1
:103EB000FFF70EFDC0B972686B689A4214D19DF885
:103EC0000730DA1E53425341227E93420CD163697C
:103ED00001336361D4E90323934205D22968A268C0
:103EE00042F8231001332361012002B070BD00BFEE
:103EF000941700202DE9F04F9A468BB09DF8503072
:103F0000DFF850B10293DBF81030804653450D4680
:103F10001646C0F09980D146DBF804300193B9F120
:103F2000000F00F08D80D8F83C3001225B6907A9B2
:103F30000198984707A821F0F9FADBF80030984279
:103F400040F0858007A821F0FDFA0428074614D127
:103F500007A821F0FEFA019B029A04463B44002A7E
:103F60003FD1864212D91446361A4046019920F0B4
:103F7000E1FFA9EB04090190D1E7D8F83C30022217
:103F80005B69019808A9984708A8E2E7841B544593
:103F900028BF5446032C03EB0607AAEB040A4FEA9A
:103FA00094021CD9D8F83C30294638465B699847BA
:103FB00024F0030304F003061F441D44002ED4D054
:103FC000D8F83C3001225B6908A938469847324648
:103FD000284608A9354424F021FA0026C5E72646DC
:103FE000ECE7074600F00302039203442A18049208
:103FF0000593049BDD1B059BD81B039B9F420FD1A0
:10400000002FB2D0D8F83C30012208A95B6998474C
:104010003A46284608A924F0C2F978B93D44A4E7F5
:10402000D8F83C30012208A95B6998470422284649
:1040300008A924F0B4F908B9043FDAE74FF03609CB
:1040400048460BB0BDE8F08F4FF06309F8E74FF03A
:104050006F09F5E7C01700202DE9F0410F4616461D
:104060009846044688B060B390F83450FDB1012101
:1040700020F098FE00210E9BCDE90511CDE9023715
:104080009DF83C30CDF804808DF81C30237C0496DC
:104090008BB90D4901AA04F1080000F0C7FDDDE964
:1040A0000553E06B002E08BF1D4621F014F828468A
:1040B00008B0BDE8F0812046044A01ABFFF7B2FC2E
:1040C000EDE70546F3E700BF85500308893E010888
:1040D0002DE9F04F99B00F4609920A69416C0E9391
:1040E0001439D31DB3FBF1F3013302EBC302036BAD
:1040F00004469342C0F0B3810023DFF824940D936B
:10410000E36A48461946079300F014FED7E90336E0
:1041100004930E9B022B4ED1CC2E40F08A81099B3A
:10412000002B42D03946204621F033F8656C079ABF
:104130006B1E13401490ED1AE36B01225B6916A904
:104140007868984716A821F0F5F900280CBF0423D9
:104150000823782E06933DD9012300254FF0080A45
:1041600005933B6805990E98C9F80030C9F81060AE
:1041700021F002FA4FEA9A0310930023DDF81CB0F5
:1041800089F814000B930F9308930C93616C4A1EEB
:104190000BEA02028B1A002E38D05544AB4240D8AD
:1041A000236B5B1A13442363ABE0049B1B681493DB
:1041B00008230693D0E7656C079A6B1E1340782E90
:1041C000A5EB030516D8FB7D7BB9099B002BB3D16A
:1041D00004230693331DAB4210D9A6B1082DBBD8DA
:1041E00004250023AA460593BBE7099B002BA3D116
:1041F0000823EEE7099B002B9ED1D9E70025059502
:104200004FF0040AADE704250596F9E75345C7D3F7
:10421000B0460BEB0A030393089B002B18BF032344
:1042200013E0A3EB0A039E42B0460BEB0A0228BF41
:1042300098469E420392EFD90123D9F8102089F8BD
:104240001730964271D1C9F804B0089399F8173025
:10425000002B6CD099F818200899D31C09EBC303E4
:104260000132C3F804B0A3F80880997289F81820C5
:10427000B8F1000F14D00E9B022B5BD10B9B7BB9C6
:104280000F9B4344032B0BD9E36B01229B690398DB
:1042900014A998470546002840F0E38001230B93BA
:1042A000089B16A80193059B009399F81420434698
:1042B000396800F0F5FCE36B58469B69109A16A923
:1042C0009847051E0D9B18BF5B4652460D935946F5
:1042D0004346204620F05BFE236B08F10302A3EB6C
:1042E0000A0322F003029B1AC9F808002363002D79
:1042F00040F0B7800F9BDDF80CB04344A6EB0806F6
:104300000F935946204620F015FE00258346002EC7
:104310007FF43CAF824A3968936804F10800E36295
:1043200052680E9B00F034FC84E002238DE7C9F84C
:1043300004B09DE7099B002B30D1049BB8F1030F1B
:1043400043440A9327D9DDE90301E36B4FEA98025E
:104350009B6998470546002865D118F003025FD095
:10436000049B28F003052B440493039B1D444FF04A
:10437000FF33049915A8159324F050F8E36B2846F1
:104380009B69012215A9984705460A9B0493002DB5
:1043900086D0039B99E74246039DE8E7039B0A9377
:1043A00007F120031193FB7D78689BB100233D7ECC
:1043B0000C9AD9B28D4211D9119903F1010C31F83F
:1043C0003310914226D9069907EBC303D8690A44F2
:1043D000104403E00C9B069A13441844E36B01223B
:1043E0005B6915A99847159B012213930C9B0A98AA
:1043F00004330C93E36B13A99B699847039B0A9AB8
:1044000043449B1A042B054607D978B91346043355
:104410000A93C8E76346521ACBE70A9B0393B6E7B1
:104420000A9B04933CE70A9B0493B2E70A9B03931D
:10443000AFE77026304619B0BDE8F08F4FF0000AA4
:104440004FE03A69616CD31D1439B3FBF1F30133CA
:1044500002EBC302236B9342BFF452AE5DE01C2615
:10446000E8E73D2D59D104F1080303932368079A27
:10447000606CA2EB030ABAFBF0FA00FB0A3021F0F1
:1044800013F9E16A8046204620F054FDA26A824278
:10449000D7D0626CD9F80830511E0B40216B2668CA
:1044A000891A0B4423630D9BE0629E1BB6FBF2F658
:1044B000B245C3D1079BB3EB080A12D0E36B4FEAB6
:1044C0009A0241469B6998478346E36A079A534498
:1044D000E362236B03989B1A4344236320F038FF65
:1044E000DA462368616CE06B01FB063121F051F87C
:1044F000204620F062FC204620F05FFD2063BAF1E8
:10450000000F9ED03A69616CD31D1439B3FBF1F3EF
:10451000013302EBC3029042A8D22E468AE700BFC5
:1045200068170020032A2DE9F34106460D46174679
:104530001C4606D1237A012B23D0012002B0BDE80E
:10454000F081DFF86080096842460DF10703FFF74C
:10455000BFF960600028EDD19DF80720237A032A77
:10456000E8D0D8F804106A689142E3D1012B296998
:10457000D4F80CC007D172690CEB0103934202D945
:104580002074207CDAE708316144E1603B46012277
:1045900029463046FFF79CFD60600028CAD0002005
:1045A000CCE700BF941700202DE9F341089C032AB3
:1045B0001746266806D1237A012B24D0012002B0A9
:1045C000BDE8F081DFF89080304642460DF10703E8
:1045D000FFF77EF960600028EDD12568D8F8040067
:1045E000A96AD5F844C04840CCF100031840227AAB
:1045F000E1D1012A09D1E268D8F810301344726978
:10460000934202D92074207CD9E72868EB6A1B1AF0
:10461000081AB3FBFCF3B0FBFCF083420BD1706CC7
:10462000F36A421E1340326B121A13442846336356
:1046300020F080FCE862D8F81020E36808321344C8
:10464000E36001223B4604492068FFF741FD6060BA
:104650000028B0D00020B2E7941700202DE9F041E7
:104660000025634B0E46D3F8008004461D6018B940
:1046700021252846BDE8F08190F8347007B30A6818
:1046800003689A4240F0AA804A6843689A4240F020
:10469000A5808A6883689A4240F0A080CA68C3688F
:1046A0009A4240F09B800A6943699A4240F09680A2
:1046B0008A69C36B9A4240F091804B698361D8E765
:1046C00068223946856B23F094FED6E902123368DE
:1046D00004F1080023607368A56363603369636154
:1046E0007369A36120F046FEB36904F14000E363FF
:1046F0009B68984720B9676C17B16368B3FBF7F7FD
:1047000094F84330E761002BB2D00023656C236638
:10471000002D6BD0002F69D02368B3FBF5F205FBA9
:104720001233002B5CD16768B7FBF5F605FB1676F4
:10473000002E55D1204620F00CFBA369043303441E
:104740009F424FD340F634726369CC3B93424BD8BF
:10475000B5F5805F4AD30321204620F023FBD4E93E
:104760000001E36B1B6898470546E36B0220DB689A
:1047700098472DB184F83460E06B20F0ACFC78E70A
:1047800041462046FFF78AF96428054604D1414690
:104790002046FFF783F90546636C143BD5B9226ABE
:1047A000204602FB03F620F0D4FAA3690433034445
:1047B0009E4203D284F834505A25DDE70123D4E920
:1047C00000010C4A84F8343013680133136020F080
:1047D0006BFED1E7002384F83430CDE75D2548E750
:1047E000592546E75A2544E75F2542E75B2540E720
:1047F000F8100020F41000202DE9FF410C46164669
:104800001F46054680B390F834307BB3B1F5801F66
:104810002ED2DFF86080012120F0C4FA2146424602
:1048200028460DF10F03FFF753F8044670B99DF8C1
:104830000F30012B11D1D8F81030BB4212D10246F3
:10484000009031462846FFF755FB0446E86B20F000
:1048500042FC204604B0BDE8F081022B14BF2D2499
:104860006024F3E76324F1E72124F2E71124F0E761
:104870002924EEE7C01700202DE9F04385B00C464F
:1048800017461E460546DDF8308098B390F8343060
:1048900093B3B1F5801F31D2DFF86490012120F08D
:1048A00081FA21464A4628460DF10F03FFF710F81A
:1048B000044688B99DF80F30012B14D1D9F8102087
:1048C00006EB08039A4213D300904346324639461A
:1048D0002846FFF70FFB0446E86B20F0FCFB204660
:1048E00005B0BDE8F083022B14BF2D246024F3E74C
:1048F0006324F1E72124F2E71124F0E72924EEE70D
:10490000C01700202DE9F3411F4600230C46164630
:1049100005463B6050B390F834304BB3B1F5801F7F
:1049200028D2DFF85480012120F03CFA214642468B
:1049300028460DF10703FEF7CBFF0446A0B99DF80A
:104940000730032B10D0022B0AD10123336004233C
:104950003B60E86B20F0BFFB204602B0BDE8F08171
:10496000D8F810303060F3E72D24F2E72124F3E784
:104970001124F1E72924EFE7C017002073B504469E
:10498000056B20F0E6F9636E03449D422CBF0023C3
:104990000123854294BF00252D1A207C84F85030D5
:1049A000656584F85800A8B100230C4E1A461946D4
:1049B0002046009620F0BAFC002305461A46194608
:1049C0002046009620F0BBFCE3682844984294BF40
:1049D0000020C01AE06502B070BD00BFFFFF0F00ED
:1049E0002DE9F3471E4643690446B34288461746FD
:1049F0009DF828904ED300258DF80750204620F0D2
:104A0000A8F9D4F830A082450AD2236AB5EB430F47
:104A100006D2002220460DF10701FFF78BF9B8B34B
:104A20009DF80730012B05D1002220460DF107012A
:104A3000FFF780F9B9F1030F06D03146204620F088
:104A400078F9256B854227D3144D4FF0FF31284666
:104A500000F070F94B46294600222046C5E903764E
:104A6000C5F80080FFF734FB236E054663B120468E
:104A7000FFF784FF94F8503013B994F858301BB105
:104A8000236E04F150009847284602B0BDE8F08735
:104A90000135B3E76225F7E71C25F5E794170020F9
:104AA0002DE9FF410F4690461E46054698B390F803
:104AB000343093B3B1F5801F31D21A4C022120F06B
:104AC00071F92246394628460DF10F03FEF700FF23
:104AD000024678B1012342460093394633462846C0
:104AE000FFF77EFF0446E86B20F0F5FA204604B09D
:104AF000BDE8F0819DF80F30012BEBD12169B14267
:104B0000E8D10093414633462846FFF7F3F90446BF
:104B10000028DFD1E7E72124E8E71124E6E729248C
:104B2000E4E700BFC017002030B50C46054685B04D
:104B300028B390F8343023B3B1F5801F23D202217B
:104B400020F030F90DF10F03214628460F4AFEF7F9
:104B5000BFFE034688B99DF80F20032A0DD003221B
:104B60002146009202462846FFF73AFF0446E86BCA
:104B700020F0B1FA204605B030BD2D24F7E72124FE
:104B8000F8E71124F6E72924F4E700BFC017002056
:104B90002DE9F043466886B3056898464FF0000C4F
:104BA000A946AE4655F83C400CF1010CC4F313077E
:104BB000013401D0B94217D066450EF1080EF1D18B
:104BC0002F46002403E0A64207F1080712D055F84B
:104BD000343001340133F6D1C1F3130141EA0851F5
:104BE000C7E90012BDE8F08341EA0851CEE900129E
:104BF000BDE8F083B8F1030F03D101230372BDE8D0
:104C0000F083002303E09E4209F10809F5D055F82E
:104C100033400133C4F30754032CF4D1C1F313031D
:104C200043EA0853C9E90032BDE8F0832DE9F041B9
:104C30000646406882B0C0B10F46904600243368F3
:104C400053F8345003EBC403C5F30752C5F3130103
:104C5000013504F1010406D05B683046CDF80080D0
:104C6000B84710B170688442E9D302B0BDE8F08162
:104C7000024B1968024B1868FFF7F0BC002C0020AB
:104C8000202C002008B52FF0B6FB014B186008BDA2
:104C9000EC170020014B18682FF0A8BBEC17002080
:104CA00073B504462248012A00EAC1119DF8185044
:104CB00023F07C4007D9961E012E28D9073303F034
:104CC0007F03194308E09DF81C300A43DB0603F01C
:104CD000C053134343F060410023C4E900108DF832
:104CE0000730B5B1202221460DF1070020F0F8FC75
:104CF0001A220DF10700211D20F0F2FC0820636844
:104D00009DF8072043EA8263636002B070BD1143DF
:104D1000E2E71B220DF10700214620F0E1FC2368A9
:104D20009DF80720042043EAC2632360EDE700BF3B
:104D300080FFFF0738B5094B0D461A68002104466D
:104D400023F057FB00234FF0FF322383C4E90025F3
:104D50002361A260E382A37638BD00BF704B0408D4
:104D60000138C0B205289ABF014B185C012070477A
:104D7000754B04082DE9F0410746154600240E4600
:104D8000596888B0490A012922464FEA510104F1C5
:104D90000104F8D8DC78997824031B88C90201F44F
:104DA000006104F480540C43C3F30A035203234408
:104DB00092B24FF000089C18274B6FEA044403930B
:104DC00025F07843ED4302A90DF107001B22029361
:104DD0008DF8078020F084FC9DF80720029B02A933
:104DE00043EAC2630DF107001B2225F078450493C6
:104DF00002958DF8078020F073FC9DF80720029B38
:104E00006FEA144443EAC26305934FF0FF330794FB
:104E1000069307A9BB69012206F110009847BB69F8
:104E200005A90446012206F108009847BB694045E0
:104E300018BF044604A90122301D984701224045AD
:104E400018BF0446BB69304603A99847404508BFD0
:104E5000204608B0BDE8F08101009AB2044BD3F8B7
:104E60008420D206FBD4D3F88400C0F381107047AD
:104E70000040005038B5174B0546D3F828310C4692
:104E800003F00703013B052B20D8DFE803F00313F1
:104E90001B0F0B172EF07CF8052305B1286004B119
:104EA000236038BD2EF074F80623F6E72EF0BAF82A
:104EB0000723F2E72EF0ACF80323EEE72EF0A8F874
:104EC0000423EAE72EF0A0F80223E6E700231846C1
:104ED000E3E700BF00800050002337B50193164B75
:104EE0000546D3F820320C4603F00703042B21D8E3
:104EF000DFE803F0030B11161B0001230DB1019A2B
:104F00002A6004B1236003B030BD002101A8FFF77F
:104F1000B1FF1223F2E72EF085F807230190EDE7A9
:104F20002FF078FA0A230190E8E72EF0C3F809235E
:104F30000190E3E70023E1E70080005038B5104B13
:104F40000546D3F880300C4603F00303022B0BD048
:104F5000032B0DD0012B0FD12EF020F80E2305B11D
:104F6000286004B1236038BD2EF05CF80723F6E713
:104F70002EF00EF80623F2E700231846EFE700BFF5
:104F80000080005038B5104B0546D3F800310C4670
:104F900003F00303022B0BD0032B0DD0012B0FD1F9
:104FA0002EF036F8032305B1286004B1236038BD24
:104FB0002EF080F80923F6E72EF030F80823F2E708
:104FC00001230020EFE700BF0080005038B5184BE8
:104FD0000546D3F820010C4600F00700062823D828
:104FE000DFE800F0040A0E16121A1E00012305B1B4
:104FF000286004B1236038BD2DF0CAFF0523F6E711
:105000002EF006F80323F2E72EF00CF80723EEE764
:105010002DF0FAFF0223EAE72DF0BAFF0623E6E7B8
:105020002DF0F6FF0423E2E700231846DFE700BF78
:105030000080005038B5104B0546D3F840310C467F
:1050400003F00303022B0BD0032B0DD0012B0FD148
:105050002FF0E0F90A2305B1286004B1236038BDC0
:105060002EF028F80923F6E72FF0D7F90C23F2E702
:1050700001230020EFE700BF00800050002337B578
:105080000193164B0546D3F860320C4603F0070334
:10509000013B032B1FD8DFE803F0020E1914002197
:1050A00001A8FFF793FF10230DB1019A2A6004B104
:1050B000236003B030BD002101A8FFF7BBFF11231F
:1050C000F2E72DF0AFFF07230190EDE72DF09CFFF5
:1050D00002230190E8E70023E6E700BF00800050CC
:1050E000002337B50193164B0546D3F894320C468E
:1050F00003F00703013B032B1FD8DFE803F0020E88
:105100001914002101A8FFF761FF10230DB1019AC6
:105110002A6004B1236003B030BD002101A8FFF76D
:1051200089FF1123F2E72DF07DFF07230190EDE7C2
:105130002DF06AFF02230190E8E70023E6E700BFB5
:105140000080005038B5104B0546D3F860310C464E
:1051500003F00303022B0BD0032B0DD0012B0FD137
:105160002FF058F90A2305B1286004B1236038BD37
:105170002DF0A0FF0923F6E72FF04FF90C23F2E7FB
:1051800001230020EFE700BF008000502E4B984223
:105190004AD022D82D4B984240D014D82C4B98425C
:1051A00039D00AD82B4B984232D02B4B98422FD073
:1051B0002A4B98422CD000207047294B9842FAD1B4
:1051C000284B186F7047284B98422AD0274B98429B
:1051D000F1D1244BD3F880007047254B98422BD057
:1051E00009D8244B984223D0234B9842E3D11D4B3E
:1051F000D3F88C007047214B984221D003F57403FB
:1052000003F510539842D6D1164BD3F89800704747
:10521000144B986D7047134B586E7047114B586F75
:105220007047104B986F70470E4BD3F8840070474F
:105230000C4BD3F8880070470A4BD3F890007047A6
:10524000084BD3F8940070470048E8010024F400AC
:10525000C0CF6A0080841E0000093D0040420F005C
:10526000405DC6000080E00FC0EA210180BA8C01D9
:10527000007E560380D54302006CDC020090D00310
:1052800073B50D460021114B0191D3F880410646BC
:1052900004F00304022C13D0032C0CD0012C13D1E6
:1052A00001A8FFF793FE10240EB1019B336005B1F6
:1052B0002C6002B070BD2DF0B5FE07240190F3E71D
:1052C0002DF0A2FE0190EFE70C46EDE700800050C4
:1052D00038B5104B0546D3F840320C4603F00303B3
:1052E000022B0BD0032B0DD0012B0FD12FF092F8F6
:1052F0000A2305B1286004B1236038BD2DF0DAFE21
:105300000923F6E72FF089F80C23F2E701230020A8
:10531000EFE700BF0080005038B5144B0546D3F8C6
:1053200000020C4600F0070004281BD8DFE800F05C
:1053300003090D111500012305B1286004B1236094
:1053400038BD2FF067F80A23F6E72DF0B3FE0923E6
:10535000F2E72FF062F80C23EEE72DF03FFE0F236B
:10536000800AE9E700231846E6E700BF0080005006
:1053700038B5144B0546D3F808020C4600F0070078
:1053800004281BD8DFE800F003090D1115000123E4
:1053900005B1286004B1236038BD2FF03BF80A2323
:1053A000F6E72DF087FE0923F2E72FF036F80C23FD
:1053B000EEE72DF013FE0F23800AE9E700231846DD
:1053C000E6E700BF00800050B0F5207F1FD009D86D
:1053D000B0F5007F15D003D868B1B0F5C07F0AD012
:1053E00000200CE0B0F5607FFAD10B4BD3F88000C1
:1053F000C0F3011003E0084B186FC0F30330013015
:105400007047054BD3F89000C0F30460F7E7024BF8
:10541000186FC0F38020F2E70080005002464FF47E
:105420008030104B10B598660020FFF7CDFF504339
:1054300041F671320C4BDC69DA635A6804F480344B
:1054400022F4401259B90949884294BF0020012032
:10545000000502435A600CB10022DA6310BD044912
:10546000F2E700BF0090005000000350005A6202B3
:10547000002D3101430905D0012B0CD0022B084B24
:1054800018BF002300F01F0039B103F5805301223B
:1054900082401A607047034BF4E703F50053F6E7C8
:1054A00068800050648000501FB50021B0F5807FF7
:1054B0000446CDE9001100F0D2803AD85E2833D8F6
:1054C0005E2833D8DFE800F04532323232323232F1
:1054D00032323232323232323232323232323232AC
:1054E000323232323232323245AC45ACBCBCBCBC5A
:1054F000BCACC64E6BDC4EACACAC3232323232326B
:105500003232ACACAC7EE6AC323232323232323293
:105510003232323232BC454545E14E4EEB8D63C1ED
:1055200032323232329E4500802870D0009804B06A
:1055300010BDB0F5D06F00F0A38035D8B0F5607F16
:1055400079D01AD8B0F5007F65D005D8B0F5C07F06
:10555000ECD12DF043FD5CE0B0F5207F60D0B0F5DC
:10556000407FE3D12DF03AFD02464FF42070FFF763
:105570002BFFB2FBF0F252085BE0B0F5B06F69D0E0
:105580000AD8B0F5806F5BD0B0F5A06FCED1002106
:105590006846FFF7A1FCC9E7B0F5C06FC6D100218E
:1055A0006846FFF747FDC1E7B0F5106F6DD00ED824
:1055B000B0F5086F78D0B9D8B0F5E06F6AD0B0F523
:1055C000F06FB3D100216846FFF7BCFDAEE7B0F540
:1055D000406F3AD013D8B0F5206F60D0B0F5286F87
:1055E000A4D10021324B0391D3F8703203F00303AE
:1055F000012B02D103A8FFF71DFD039B39E0B0F595
:10560000486F93D100216846FFF76AFD8EE72DF0C1
:10561000C5FC00908AE72DF0C1FC0246204604E05C
:105620002DF0DCFC02464FF42070FFF7CDFEB2FBFC
:10563000F0F200927AE701A8FFF780FC019AEDE70B
:1056400000216846FFF7C2FC70E700216846FFF7BB
:1056500011FC6BE700216846FFF712FE66E74FF08A
:10566000E02302911B695B0705D52DF0B7FC029082
:10567000029B00935AE703A902A8FFF7DBFCF7E7B8
:1056800000216846FFF748FE50E700216846FFF713
:105690006FFE4BE700216846FFF71AFE46E7002140
:1056A0006846FFF7EBFC41E76846FFF76BFC3DE718
:1056B0000080005008B58020FFF7F6FE034B9842AB
:1056C0009EBF4FF48032024B1A6708BD005A620237
:1056D00000A000501FB503460020B3F5807F019065
:1056E00000F0C58065D85D2B56D84C2B07D82D2BE4
:1056F00048D8232B2CD8019805B05DF804FB4D3B0E
:10570000102BF8D801A252F823F000BF6558010809
:10571000F7560108F7560108F75601081358010813
:10572000F7560108F7560108BF580108315801081B
:10573000D7570108B5580108F7560108F756010870
:10574000F7560108F7560108F7560108C95801082D
:10575000243B092BCFD801A252F823F06558010849
:105760006558010865580108655801086558010821
:10577000F75601085B580108F7560108F35701086E
:105780009B5801083D2B00F083803E2BB3D10020B5
:1057900001A9FFF79DFDAEE7802BACD1504B1B6FED
:1057A00003F00703013B032BA5D8DFE803F0544DBA
:1057B0005052B3F5F06F6BD020D8B3F5B06F4CD02A
:1057C0000ED8B3F5607F71D095D3B3F5806F49D013
:1057D000B3F5A06F8FD1002001A9FFF77DFB8AE709
:1057E000B3F5D06F59D0B3F5E06FD0D0B3F5C06F3B
:1057F00081D1002001A9FFF71DFC7CE7B3F5206FE4
:105800005DD00BD8B3F5086F4CD0B3F5106F7FF4B3
:1058100072AF002001A9FFF7ABFD6CE7B3F5406F55
:1058200048D0B3F5486F4FD0B3F5286F7FF463AF1E
:105830002B4BD3F8703203F00303012B49D0022B1A
:105840000CBF1523002300E00523019353E7032336
:10585000FBE70823F9E70223F7E7002001A9FFF798
:105860000FFD48E7002001A9FFF7B0FB43E74FF029
:10587000E02302901B695B0705D52DF0AFFB0D23DC
:105880000393039BE1E703A902A8FFF7D3FBF8E723
:10589000002001A9FFF756FC2DE7002001A9FFF722
:1058A0003BFD28E701A9FFF76DFB24E701A9FFF7FE
:1058B00045FB20E7002001A9FFF7DCFA1BE70020E9
:1058C00001A9FFF7DBFB16E7002001A9FFF708FCA1
:1058D00011E7002103A8FFF7ADFB1123B5E700BFD7
:1058E000008000504FF48032074B0849586E03F592
:1058F00080535A664B6A23F001034B62C3035CBFBB
:10590000034B5A66704700BF0080005000C007502C
:1059100000A0005008B5FFF7DDFE092811D00A38B5
:10592000012802D94FF6FF7008BD4FF48002064BE4
:105930005A6603F5D8335B6ADB07F3D54FF4FA7088
:10594000F2E7024B1888EFE700900050BE2D0020D0
:1059500008B5FFF7BFFE03280ABF024B4FF6FF70E2
:10596000188808BDBC2D002038B504468020FFF7FC
:10597000B1FE032800F083804FF48012524B4FF0A9
:10598000A0615A6645F60E02504BC3F88020504A7B
:1059900091624FF4803102F5805291629A6DD20388
:1059A000FCD4996D11F08041FBD1D4E900021205BD
:1059B00042EA0062E07B0243207B42EA0042607BD5
:1059C00042EA0032A07B42EA80121A619869D4E967
:1059D0000452120642EA856200F000400243A07EB3
:1059E000E57E0243207E42EA0042607E42EA0022D7
:1059F0009A611A6AE06922F00F0242EA8502354D87
:105A000000283DD11A6294F82420996A94F8200065
:105A1000D200294042EA40120A4394F8211042EA97
:105A2000011242F480329A622B49284A936D31EA7E
:105A30000303FBD14FF08071254881621369A5688B
:105A400023F4700343EA055313614FF0004383616D
:105A500094F822300BB9214B996294F823303BB96A
:105A60004FF480321D4B9A62184A936D5B00FCD450
:105A700094F825301BB1154B194AC3F8802038BD66
:105A8000024342F0080202281A6208D119614FF459
:105A90000852996113484FF47F411FF03FFE0B49B4
:105AA00094F822308A6A94F820001B062A4043EAC0
:105AB0004013134394F8242043EAC20394F82320AC
:105AC00043EA02438B62D3E7009000500040005A43
:105AD0000050005AC7FFFEFE030001000060005A9C
:105AE000F1A7FFFF3440005A014B93F900007047C3
:105AF0005F2E0020F0B5D0E901434FF400061A4AAA
:105B00004178057856664FF4D156022702F5B8322F
:105B10005662164E4F2977604FF0010728BF4F217C
:105B200006F5805677601669F603FCD441EA052134
:105B300051611B01417B43EA04230B43017B43EA90
:105B400041039360C37B817B1B0143EA4113417C8A
:105B50000B43017C43EA41035360837C13B16FF430
:105B6000D1535362F0BD00BF0090005000100250AE
:105B7000014B1880704700BFBE2D0020014B1880DC
:105B8000704700BFBC2D00204FF4800208B5184BB1
:105B90005A660223174A5360936813F48033FBD18B
:105BA000012822D12DF034FA134B984215D003F579
:105BB000122303F5F863984213D0104B00EB8002D8
:105BC000400AB3FBF0F3520A0A49CA620B6301238D
:105BD0004B620022074B5A6008BD45F67A13084A0B
:105BE000F2E745F61A03074AEEE75362F1E700BF12
:105BF000009000500040025000F049026466666662
:105C0000D8B80500BBCF0500B0F5207F10B50C4615
:105C10005DD008D8B0F5007F4ED003D8C0B1B0F544
:105C2000C07F15D010BDB0F5607FFBD12C4B4C1E52
:105C3000D3F8FC202B4912F0807F4FEA041427D1BF
:105C4000D1F8803023F030032343C1F88030E9E7F6
:105C50001FF073FD1FF07FFD4FF48031224B214A6E
:105C60001967136F013C23F4704343EA043313674D
:105C70002DF0B4F90446FFF7F1F8C0F10201204617
:105C80001FF063FD00F04AF8BDE81040FFF712BDB9
:105C9000D3F8FC2022F08072C3F8FC20D1F88020D9
:105CA00022F030022243C1F88020D3F8FC2042F0D9
:105CB0008072C3F8FC20B5E70A4A4C1ED2F8903037
:105CC00023F0F85343EA0463C2F89030AAE7054A88
:105CD0004C1E136F23F4806343EA84231367A1E708
:105CE00000ED00E0008000500090005008B5012158
:105CF000022000F073F94FF42070FFF765FB054BAD
:105D000018701FF01AFD1FF026FD4FF48032024B71
:105D10001A6708BD972800200090005008B54FF47E
:105D2000C070FFF7C1FBBDE808400449884294BF3A
:105D3000012102214FF42070FFF766BF80F0FA02C4
:105D400038B504462DF04AF90546FFF787F8C0F14B
:105D5000020128461FF0F9FC0121002000F07EF925
:105D60002CB1FFF7DBFFBDE83840FFF7A3BC034BC6
:105D70004FF420701978FFF747FFF4E797280020C9
:105D80004FF4C02270B50546FFF700FA314B0446C8
:105D90005A6603F598335A68012A04D12E494A609D
:105DA0005A689207FCD48020FFF794FC052807D19D
:105DB0001FF0C3FC1FF0CFFC4FF48032254B1A6755
:105DC000264B24F040749D4230D0254B9D4230D06C
:105DD0002DF0DEF88542064603D90121284600F061
:105DE0003DF9204BDA6812F0060FFBD199689C60F0
:105DF0009A68624012F4F81F1ED12846FCF78CFF07
:105E00008020FFF767FC05280DD12DF0E7F8044648
:105E1000FFF724F8C0F1020120461FF096FCFFF7BF
:105E20007DFFFFF747FCAE420CD270BD44F000741A
:105E3000CEE744F08074CBE780209960FFF74AFCFE
:105E4000052805D0BDE870400121002000F006B90A
:105E50003546DAE70090005000E0015040420F0064
:105E600080841E0000000150304B314A984251D0CE
:105E700020D8A3F5B703A3F55863984246D00DD8B0
:105E80002C4B984231D02C4B984239D02B4B4FF4AD
:105E9000002198421DD00023516622E0284B4FF488
:105EA00000219842F7D1274BD3F8BC30516623F03C
:105EB000407316E0244B984230D0244B984231D0A6
:105EC000234B4FF400219842E5D11E4BD3F8C83044
:105ED000ECE71C4BD3F8A030516623F0407343F03D
:105EE00000734FF0B442936070474FF40021154B9C
:105EF000D3F8A030516623F0407343F08073F0E78D
:105F0000104BD3F8A0304FF40021CFE70D4BD3F85E
:105F1000B830F8E70B4BD3F8C030F4E7094BD3F8AF
:105F2000CC30F0E7074BD3F8D030ECE7C0EA2101E2
:105F30000090005080841E0000093D0040420F0088
:105F40000024F4000080E00F0048E801005A6202DB
:105F500080BA8C01024A536B0342FCD1704700BFE8
:105F600000400950044A4178536F23F4407343EAD8
:105F700001235367704700BF004000500E4A10B520
:105F80001369044643F0040313612DF095FE1FF0DE
:105F9000E7FB0A4B5B6E5B0142BF094B094AC3F842
:105FA000202430BF1FF0DDFB03F05CFC1CB9BDE812
:105FB00010402DF013B810BD00ED00E0008000503F
:105FC00000E003500000FF0F034A0179D36E23F075
:105FD00030030B43D366704700400050F8B50446C9
:105FE0001C4BD3F88420D106FBD4D3F88430C3F300
:105FF00081139C422CD02CF0D1FF012C064602D1FB
:1060000021461FF0A2FB2EF0F6F94FF00072124B62
:1060100007465A6620461FF0A7FB4FF480630D4DDC
:10602000621E93402B676B6E9A0103D4D5F88430BF
:106030009B060AD538462EF0D9F9022C08D13046F5
:10604000BDE8F84000211FF080BBD5F88430EAE7B6
:10605000F8BD00BF004000500060005010B50C4675
:1060600008B92CF09BFF074B21461B783BB1064B30
:10607000984204D80120BDE81040FFF7AFBF0220CE
:10608000F9E700BF98280020005A62020278034B0B
:10609000012100201A70FFF7E1BF00BF98280020FF
:1060A0004FF0004238B5244B244C5A664AF6CD33A3
:1060B000656C014605F00105236428BB0120FFF74C
:1060C00049FF6368DB0715D51D4B586008461D4B1B
:1060D000226BD2070CD4984208D1072415B1174B74
:1060E000194A1A6429F056FE204638BD0130EFE700
:1060F0009842F2D00024F1E70132236B13F0080339
:1061000005D08A42F8D1E8E700220E49F5E78A4235
:10611000E3D020210A4A91620121A2F58052516008
:106120000649084A886A800603D49342D5D00133D1
:10613000F8E79342DDE700BF0090005000400950AF
:106140000060095040420F003254FFFF4FF0004200
:1061500038B5164B01465A664AF6CD33144C154AEB
:10616000656C236443780B205B0043F00103D36329
:10617000FFF7F0FE63688A7823F4F87343EA0213AA
:106180006360CA784B7943EA0223A3600A798B796A
:1061900043EA022323610878FFF782FFEB0744BF3D
:1061A000054B236429F0F6FD012038BD0090005016
:1061B00000400950004000503254FFFF4FF00042B1
:1061C000124B70B55D6E03F580535A664AF6CD33B7
:1061D00004460F4980204E6C0B64FFF7BBFE0B6A30
:1061E00023F00F030F2C94BF234343F00F030B62E4
:1061F000F30744BF074B0B64002DA2BF4FF00042D2
:10620000054B5A6629F0C6FD70BD00BF00800050E6
:10621000004009503254FFFF00A000504FF00042F0
:10622000104B70B55D6E03F580535A664AF6CD3358
:1062300004460D4980204E6C0B64FFF78BFE0B6A01
:1062400023F4F85343EA04230B62F30744BF074BDC
:106250000B64002DA2BF4FF00042054B5A6629F097
:1062600099FD70BD00800050004009503254FFFF7E
:1062700000A0005010B51FF07CFA042300F58051F7
:1062800000F500520B6113610B6113610B61136127
:106290000B611361202341F2020103610023C360FB
:1062A000836041614FF4A0218361836541620549A8
:1062B000C36103628362C36243630365D1640363A2
:1062C00010BD00BFFF3F0D0370B5054614460846DC
:1062D00041B9354B9D4218D0344B9D4208BF5720E1
:1062E000FFF7E2F8AB6813F0010F6B6830D0B0FB3A
:1062F000F4F4D80704F1FF344FEA046407D42B699F
:1063000023F07F4323432B6170BD5620E8E728210B
:1063100028461FF02AFAAB6C990715D1AB6CDA0747
:1063200014D4AB6C13F0020F14BF062600262846C7
:106330001FF01FFA2B69314623F07F4323432B6163
:10634000BDE870401FF02FBA0526F0E70926EEE7FA
:10635000AB6DDB07AB6848BF640003F0E003402B84
:106360001BD004D8DBB1202BCED1082304E0602B56
:1063700017D0802BC8D1012363434101B1FBF3F255
:106380000B4B203A284603EAC20201211FF0EDF927
:106390002A63BDE870401FF0E8B90623ECE710233C
:1063A000EAE70423E8E700BF0000015B00000A50B1
:1063B000F8FF7F00F8B5436804460E460D691BB12F
:1063C00040F6FF711FF0D1F92046FFF753FF226915
:1063D000737BB17B22F087020B43134343F08003AE
:1063E0002361E5B9A368F27B23F00303134343F071
:1063F0000103A3606369327B23F00F0313436361DE
:106400002046D6E90112FFF75FFF204631781FF0E2
:10641000CAF9A36CDB4313F4405FFAD1F8BD2369DA
:10642000297F23F0F80343EAC1132978EA7B0B4361
:10643000297943EA4113697A43EA011343EA821353
:106440002361E068D5E9053720F0F0403B4320F4B4
:1064500070200343287B697B43EA802343EAC133EE
:10646000E360A368F07B23F00303034343F00103DD
:10647000A3606B88A06803F4C0430343A360A368D0
:10648000687943EA8023A360AB79EF79606A1B01E6
:106490003F0203F0700307F4E06720F4772020F454
:1064A000EE603B430343287A000300F4E0400343DB
:1064B000687F000400F47020034363626369307BEB
:1064C00023F00F03034363616B89A36109B3164B88
:1064D0009C420CD1AB7B154903F00F034B67002A9C
:1064E0008ED02B7C114A03F00F03136788E7104B03
:1064F0009C4285D1AB7B0D4903F00F03C1F880307E
:10650000002A3FF47DAF2B7C084A03F00F03D367CA
:1065100076E7002A3FF474AF034B9C42E1D0044B72
:106520009C42F0D06CE700BF0000015B009003507C
:1065300000000A502DE9F04105460F461E469046E0
:106540004AB101233022194C8B4002FB004436B380
:1065500004F5825423600F21072F05EB450388BF04
:10656000A7F108044FEA0313114895BFBC00A4002B
:1065700004330C3308FA04F2A14018441FF03FF929
:10658000B8F1000F09D101233021084ABB4001FBBB
:1065900005223EB102F582521360BDE8F08104F598
:1065A0000154D7E702F50152F6E700BF00C00350DF
:1065B00030C0035010B5152002F082FA0024FF22EB
:1065C000064B21465C6520209A625C60FEF752FF14
:1065D0002146BDE810402120FEF74CBF00000450CA
:1065E000044A054B002908BF1346012282401A6065
:1065F000704700BF401004504020045010B50121E6
:1066000004462020FEF736FF01212120FEF732FF4D
:106610000122114B15205A60227812069A60617887
:10662000A27842EA01429A61FF229A6200229A63AA
:106630001A644FF000425A654FF0FF3203F50053E1
:106640001A6502F06BFA1520E17820F0A8F8BDE891
:106650001040152002F046BA00000450F8B501259C
:10666000C3B2D1F800C08F7A0E7B0C469D40CB7A26
:106670001C491B050D65810001F1A04101F5882130
:10668000C1F804C04FF0300C0CFB00F0617B00F14E
:10669000A04043EA074300F5802043EA465322F036
:1066A00003020166C36502672DF0AEFE0E4B227A2F
:1066B0005D6502B11D64627A02B19D632279A3799E
:1066C00043EA0243074A93616179E37943EA01436C
:1066D00005498B61054B55639D64BDE8F8402DF07D
:1066E0008EBE00BF00200450001004500000045073
:1066F00010B50124C0B284402DF086FE044B5A6DC3
:1067000022EA04025A659C62BDE810402DF077BE73
:106710000000045010B50124C0B284402DF074FE76
:10672000074BDA6A224208D15B6B9C430CBF012401
:1067300000242DF064FE204610BD0024F9E700BFC0
:106740000000045070B505462DF05EFE3022084B67
:106750005E6B02FB05335C6E2DF051FE0123EDB242
:10676000AB4033420ABFC4F30A100020013070BDB1
:10677000000004504FF48032054B9A6641F67132A6
:1067800003F51C33DA63012203F50053DA60704726
:106790000090005041F671320121064BDA6303F597
:1067A0000052D1600022DA634FF48032A3F518332F
:1067B0009A66704700000350013831289ABF024B97
:1067C000185C0020704700BF7B4B040838B5C2F34B
:1067D0000625044602F0070241B942EA052242F4C6
:1067E00040220634074B43F8242038BD1146284682
:1067F0001FF014F802462846FFF7DEFF163442EA7F
:106800000022EFE7008003504FF48032064B5A66B7
:1068100003F5E6239B69C3F38512827003F03F0200
:106820001B0B42700370704700900050014B986C36
:10683000D96C70470080E00F0120034B9B680A333E
:1068400003F01F03984070470080E00F70B50546C5
:1068500016461C4621B94FF42070FEF725FE01466E
:10686000402C1BD003D8DCB1202C1BD070BD602C79
:10687000FCD1042303FB06F2530803EB4113B3FBE3
:10688000F2F36021084A203B02EAC30305F50052F7
:10689000916005F580529460EB61E7E70623E9E734
:1068A0001023E7E70823E5E7F8FF7F00012100F563
:1068B000805310B5596040F6AA6341F20502436166
:1068C0000023094C8360C365C26000F50052036178
:1068D000C361C3649464054C8365A04204BF03652F
:1068E0004365516010BD00BFFFFF010000C00550AF
:1068F00070B50C46FFF7DAFF012300F58056736090
:10690000A37C05461BB1836843F080438360E37C2E
:106910004BB1234B9D4202BF227DA3F51033C3F838
:10692000C8218023F365228A637B28461343E289CA
:106930001343EB60237BD4E90112FFF787FF637DEC
:106940001BB1AB6843F48033AB60A37D1BB1AB6874
:1069500043F40043AB60E37D227E1B07120502F483
:10696000E00203F0E0431343AB65637E9A1E012A05
:106970004FF0020209D80B49032BC1F8202709D197
:106980000423F36523786B6170BD0749012BC1F8BF
:106990002027F4E7042205F50053DA65F2E700BF8B
:1069A00000C0055000D0035000E00350012243789E
:1069B00001789A4030235943014B5A50704700BF29
:1069C00040E00350034BD3F82424D3F820041040B4
:1069D000704700BF00C00350064BDA6E02F0300271
:1069E000202A06D0DA6E22F0300208B142F01002FE
:1069F000DA667047004000502DE9F8431F4B05460A
:106A0000D3F810334B1E0E2B0E461746047890F821
:106A1000018026D951B34FF0000928461FB32CF04E
:106A2000DBFB0F21B8F1070F04EB440488BFA8F18A
:106A300008084FEA0414124895BF4FEA88084FEA45
:106A4000880804340C3409FA08F201FA08F12044E9
:106A50001EF015FF86B9284657B1BDE8F8432CF063
:106A6000BBBB8946D9E7FFF7A1FFDAE78946D8E73C
:106A7000BDE8F843FFF79ABFBDE8F88300C00350B4
:106A800030C003502DE9F0412B4B1746D3F81023AB
:106A90004A1C06460C46407804D1D3F824141EF054
:106AA000FDFE0446002C2FDB072C4FF00305327847
:106AB0002DDC4FEA840805FA08F529461F4802FA3A
:106AC00008F21EF0DCFE294672781D4802F003022F
:106AD00002FA08F21EF0D3FE012317F0050F194A3F
:106AE00018BF194903FA04F30CBFC2F81034C1F8F7
:106AF000103417F0060F18BF134AC2F814340123DC
:106B0000104AA340C2F820342046BDE8F081A4F129
:106B100008084FEA880805FA08F529460B4802FAE2
:106B200008F21EF0ACFE7278294602F00302084813
:106B300002FA08F2CEE700BF00C0035000C40350C1
:106B400008C4035000E0035000D0035004C40350B5
:106B50000CC4035038B505460C4C0140D4F8303411
:106B600023EA0003C4F83034D4F830341943C4F8AD
:106B70003014D4F82C340343C4F82C34012004F529
:106B80000054FFF729FFC4F8205438BD00C003505B
:106B9000124B70B5D3F8103306461EF099FE04462A
:106BA000481C154603D1621C05D1204670BD631CEC
:106BB000FBD08C420ED13046032185F00102FFF755
:106BC0001BFF012004F1100305FA03F19840FFF7C1
:106BD000C1FFEAE74FF0FF34E7E700BF00C0035012
:106BE000054B9A689107FCD45A689207F9D4DA6980
:106BF000002AF6D1704700BF00800A50034908B54B
:106C00004B682CF0F5FA02230B6108BD00800A5096
:106C100008B5FFF7E5FF0122024B03F580514A60FA
:106C20001A6108BD00800A5008B5044B5868012855
:106C300003D1FFF7E3FF024B586008BD00800A5004
:106C400000A00A5038B5074DFFF7CAFF6B6804462D
:106C5000012B03D1FFF7E8FFFFF7C2FF2378EB60BA
:106C600038BD00BF00800A5010B52CF0CBFAB8B97F
:106C70004A680B7812B1127843EAC2034A7843EAB1
:106C800042038A6812B1127843EA8213CA7843EA4F
:106C900082030A6912B1127843EA4223014A9364DB
:106CA00010BD00BF00800A504FF48032084B5A6676
:106CB00003F5E6239B691A0B027003F03F02427052
:106CC0004FF6FF72C3F3851342808380704700BF85
:106CD00000900050014B986CD96C70470080E00F19
:106CE00070B5044629F020F9064630B90FCC044DA2
:106CF0000FC594E8030085E80300304670BD00BF6F
:106D0000F017002047F6FF739A42F0B56FD00229C2
:106D10006FD8394B5B5C012B6BD8384DDF0005EB2E
:106D2000C30415F83330A178012B13D10025E07886
:106D3000401AA84202D80844C0B2F0BD431B66689E
:106D4000A0EB530336F913609642D4BF1D4603F1FE
:106D5000FF30EEE760680028EFD0B0F900409442C1
:106D600004DBB0F902409442B8BF144683883D4426
:106D7000FF2B19BFC8224FF0280CB0F90620B0F93C
:106D800008C0A2EB04030CBF0126002693FBFCF312
:106D900033446E781BB29E4201DD002B01DA731E74
:106DA0001BB24FF47A7C01339BB2071D5D1E2DB2DE
:106DB0004FEAC50E00EBC505EA88AD689E4214FB9C
:106DC000025222EAE27202F15C02B2FBFCF204DD42
:106DD00037F8335001339542E8D200EB0E03988820
:106DE000904228BF1046884238BF0846A4E7FF20DB
:106DF000A3E70020A1E700BFAD4B0408F017002077
:106E00000229F0B555D82C4B585C012851D82B4C91
:106E100004EBC00114F830004B6801280FD1C8788A
:106E20008C78904294BFC4EB0001C4EB0201001BBC
:106E3000CAB28242C8BF002233F91200F0BD002B53
:106E400037D08878904202D3B3F90200F6E7CC78C5
:106E5000B3F900009442F1D94C789988013CA1F132
:106E6000FF06714203F10405E4B2714103F10C071E
:106E7000CEB2B44216D805EBC1014FF47A756A431D
:106E8000B1F902404968521A04EBD47102EB610275
:106E900092FBF4F29042D1DBB3F902009042CDDCD8
:106EA00010B2CBE737F831C04E1C9445E3D33146DE
:106EB000DEE70348C2E700BFAD4B0408F01700202F
:106EC0000080FFFF08B50448FFF70AFFBDE808404F
:106ED000012029F02DB800BFB44B040800487047CA
:106EE000C02D00207FB50222084B0949CDE90123BE
:106EF0004FF04073CDE90313052301A94FF0FF3094
:106F0000059329F06CF807B05DF804FB006A1800DF
:106F1000000304002DE9F0418CB08846DDE91276CB
:106F20001D460446002847D0002945D0002F43D0F5
:106F3000002E41D013F00F033ED120482049A3601A
:106F4000002A08BF01462362C4E90013404609A98C
:106F50001EF0BFFD68BB204609992DF099FA29461D
:106F600020462DF095FA6946404600F0DFFA00BB56
:106F7000694620461EF0C3FF404603A91EF090FE5E
:106F8000B8B9204603A91EF0BAFF0697012720468C
:106F900045F0005506A9079708951EF0B0FF20465A
:106FA00009A909960A970B952DF098FA20462CF01E
:106FB0007FF90CB0BDE8F0812120FAE70001000460
:106FC000000101042DE9F0418CB0884616461D46AB
:106FD0000446129F00284BD0002949D0002A47D0F0
:106FE000002F45D00B68103B102B41D8214A22FAC4
:106FF00003F3D9073CD500231F4A8360C0E900236F
:10700000036209A940461EF064FD70BB2046099941
:107010002DF03EFA294620462DF03AFA69464046C0
:1070200000F084FA08BB694620461EF068FF40461F
:1070300003A91EF035FEC0B9204603A91EF05FFF6C
:1070400006960126204606A945F0005507960895A4
:107050001EF055FF094B204609A909970A960B9384
:107060002DF03CFA20462CF023F90CB0BDE8F0815D
:107070002120FAE7010101000000040410000020B3
:10708000F0B50C4617461E46054695B0002874D04C
:10709000002972D0002A70D0002B6ED0036B0F2B0A
:1070A0005BD80023364A3846C4E90023A360236234
:1070B00011A91EF00EFD00285BD1204611992DF07C
:1070C000E7F9296B20460F2984BF01F00F01103129
:1070D0002DF0DEF9384602A900F028FA002848D140
:1070E000204602A91EF00BFF384605A91EF0D8FD68
:1070F00000283ED1204605A91EF001FF0122214BA8
:10710000089509920A932B6B05F1100003F00F010B
:1071100041F000510B900F2B0C920D910E900F929D
:1071200043F00052109226D90A9B08A923F000537D
:1071300020460A931EF0E3FE0BA920461EF0DFFE58
:107140000123119612930F4B204611A913932DF092
:10715000C5F920462CF0ACF80BE000F120030190BB
:1071600000930122102339462046FFF7D3FE002862
:1071700097D015B0F0BD0EA9DFE72120F9E700BFD9
:1071800000000404100000202DE9F04F9BB00C46D5
:1071900090461F460546DDF89090002800F0B2802A
:1071A000002900F0AF80002A00F0AC80002B00F036
:1071B000A980026B02EB09031B09B3EB121F02F05B
:1071C0000F0600F0978000234F4A8B60C1E900232F
:1071D0000B62404617A91EF07CFC0346002840F0D5
:1071E000858006EB090B204617992BF00F0A2DF02E
:1071F0004FF9514620462DF04BF9404602A900F0C8
:1072000095F90346002871D1204602A91EF077FEA9
:10721000404605A91EF044FD0346002866D14FF004
:107220000108019005A920461EF069FE374A204654
:1072300008A90895CDF824800A921EF060FE46F059
:107240000051AAEB060605F1100346F000560B9319
:10725000CDF830800D910E97CDF83C8010960D99A9
:10726000204621F000510D910BA900931EF047FE1E
:1072700020460EA91EF043FE019B244A1193AAF159
:10728000100343F00053CDF84880139305F1200319
:107290001493CDF854801692139B204643F08043FC
:1072A0001393139B11A923F0005313932DF016F998
:1072B000204614A92DF012F9144A17A92046179553
:1072C000CDF8608019922DF009F920462BF0F0FFDF
:1072D000AAEB0B0149440190ABEB0A020098394438
:1072E00021F09CF8019B2A6B4A442A6318461BB084
:1072F000BDE8F08F10304A463946304421F08EF810
:107300000023F0E72123F1E703020004100000202E
:107310002DE9FF474FF000080E4617460446CDF80A
:107320000080002859D022B90025284604B0BDE8C5
:10733000F087002951D032F0030902F0030A1FD070
:107340004FF0E063C0E9003801230191C0F80880E4
:107350000293C0F8208049F0005301A903932DF057
:10736000BDF8494620462DF093F820462BF0A0FFAB
:10737000054628B14A464146304621F03AF8D4E75E
:10738000BAF1000FD0D04FF000084FF0E063C4E92D
:1073900000380123CDF804D00293114B204601A9F7
:1073A000C4F80880C4F8208003932DF097F80421D6
:1073B00020462DF06DF820462BF07AFF054608B1E7
:1073C0003A46D8E7009A4E44EB00013522FA03F31F
:1073D000AA4506F8013BF7D1A6E72125A5E700BF9E
:1073E00004000020F0B50F4616461D46044693B033
:1073F00010B9212013B0F0BD0029FAD0002AF8D02E
:10740000002BF6D0002331461A4638461EF006FB04
:107410000028EFD1304602A91EF09CFA0028E9D1DD
:10742000EB68022B0AD039683F48029A81426B69A7
:1074300002D01830814270D19A42DAD82B68002BE2
:10744000D7D14FF060623846C4E90023A3602362BD
:1074500001A91EF03EFB0028CCD10199204621F461
:10746000F06101912DF014F8694628461EF031FBB9
:107470000028BFD1204600992DF00AF8384609A906
:1074800000F054F80028B5D1204609A91EF037FDB8
:1074900038460CA91EF004FC0028ABD120460CA9EC
:1074A0001EF02DFDEB684BB1284606A900F03EF812
:1074B00000289FD1204606A91EF021FD304603A9D1
:1074C0001EF0EEFB002895D1B368DA040CD59B04BE
:1074D00027D50621F36932691B6801FB03225B0093
:1074E00043F0005303920593204603A91EF007FDC5
:1074F00028460FA91EF0D4FB00287FF47BAF20465E
:107500000FA92CF0EBFF032520462BF0D1FE01281C
:107510007FF470AF013DF7D16CE7B3EB420F8DD232
:1075200067E7292066E700BF200000B090B189B16D
:1075300001234B60C368013B012B08D88269064BCD
:107540001AB10A6000208B607047044AF9E74FF0D7
:107550000053F7E721207047080000209C5D0408D5
:1075600070B50E46154604468AB000285BD0002947
:1075700059D0002A57D0012329461A4630461EF01A
:107580004DFA00284DD1B36813F4C04F4BD0AB680F
:1075900003F4C043B3F5005F45D1254BA060C4E9B7
:1075A0000030206207A930461EF093FA002838D137
:1075B000204607992CF06CFF304601A9FFF7B6FF73
:1075C00078BB20461EF09BFC304604A91EF068FBE9
:1075D00038BB204604A91EF092FCEB681BBBAB68CD
:1075E00003F4C043B3F5005F1DD1694628461EF081
:1075F000DCF9B0B9009B6A699A4216D32A6943F054
:10760000005307920122204607A9089203250993F7
:107610002CF064FF20462BF04BFE012801D1013DE8
:10762000F8D10AB070BD2120FBE71D20F9E700BFAB
:107630000000010206289ABF014B185C0020704729
:10764000A45D040800F01F02A0F50620A0F550601C
:10765000812810D8012309494009934051F820207E
:107660001A4341F82020064951F8202022EA03025B
:1076700041F8202070474FF0FF307047201800205D
:107680000C18002000F01F03A0F50620A0F55060A4
:10769000812810B519D801210D4A4009994052F8A6
:1076A00020300B430B4942F82030D1E900432344FA
:1076B0008C682344CC68096923445B1804D1C2E96F
:1076C0000033C2E90233136110BD4FF0FF30FBE716
:1076D0000C180020201800202DE9F04FA7B00392CD
:1076E0001F4604460822CDE90401414021FA02F375
:1076F0004B40980702F1080218BF9B00202A1C4447
:10770000F4D18123B4FBF3F303EBC313E41A7F4BEF
:1077100004F506241B7804F55064002B39D1FDF7DD
:10772000A7FA054600286FD10146402206A820F09E
:1077300060FE2946402216A820F05BFE744D754E6F
:10774000A8461035AE4228BF2E467348013E00962B
:1077500043461022006806A91DF0E8FD4FF0000B1B
:1077600081460DF1180AD94541D16B480096434630
:107770001022006816A91DF0E2FD4FF000088346B4
:1077800016AEC34546D1654B9D42D8D101225F4B11
:107790001A704FF081080026DFF894B1A4F5062591
:1077A000A5F550635B095BF8232004F01F01CA4074
:1077B000D20746D45A4A52F82330CB40DB0732D5A1
:1077C0008123002E08BF2646A5F6FF44B4FBF3F341
:1077D00003EBC313E41A04F50624B8F1010804F519
:1077E0005064DBD1039B03B3FEB1344625E05AF865
:1077F000040BFFF727FF013009D10022434B1A7019
:10780000424B1B78002BC4D16FF091000FE00BF1BD
:10781000010BA8E756F8040BFFF734FF0130EFD057
:1078200008F10108ADE7039B23B96FF08B0027B087
:10783000BDE8F08F002E18BF3446329B00201C603C
:10784000F5E7309B13B10023309A1360319B13B1DD
:107850000023319A13604FF0100ADFF8BC90CDF886
:1078600000A000233A462146D9F80000FDF704F8AD
:10787000002838D130993A682A4BE9B19A42C1F8C8
:1078800000A01CD02146D9F80000FDF74DF90028D2
:10789000CBD1D7E90223DDE90410834208BF8A4235
:1078A0002AD08123A5F6FF45B5FBF3F303EBC31301
:1078B000ED1A05F5062490E79A42EAD0E2E7319BFB
:1078C000002BE6D02146D9F8000016AAFDF71AF8D9
:1078D00048B9319B309A1B681268934294D39B1A23
:1078E000319A1360D5E7104B9842CBD06328C9D0AA
:1078F0000E4B9842CDD087E7039B002B9DD07B6831
:10790000012B9AD16FF0840091E700BF99280020E5
:10791000006D0800816D0800202C0020906D08008B
:107920000C180020105D175EFFDF00F0FEDF00F096
:10793000201800202DE9F04F87B0824689469846EE
:107940001646DDF840B02AB1002B53D040F26C73DC
:107950009A4252D8BBF1010F52D8002406F1100709
:107960003946012005941FF00FFC054600284AD037
:1079700021463A4620F03DFD05ABCDE90143009498
:107980002B46012250464946FFF7A6FE044680B129
:1079900010F18C0F08BF6FF08D043A460021284685
:1079A00020F027FD28461FF0D1FB204607B0BDE898
:1079B000F08F164BC5E902A92B60C5F804B02EB1B3
:1079C0003246414605F1100020F028FD059E104882
:1079D0003B462A4631460068FDF762F838B9304622
:1079E000FFF730FE013008BF6FF08604D5E76FF077
:1079F0009104D2E76FF08604D7E76FF09104D4E7E3
:107A00006FF08504D1E76FF08C04CEE7105D175E50
:107A1000202C00202DE9F0438DB08146DDE914785B
:107A20000E4615461C469BB1B8F1000F05D16FF00C
:107A3000860630460DB0BDE8F083002FF7D0B7F1D1
:107A4000005FF4D3C3F1005303F580239F42EED8C7
:107A50001022002108A820F0CCFC002207AB0293E2
:107A600005AB019306AB31460093484608ABCDE920
:107A70000522FFF731FE06460028DAD1059BA4B1A6
:107A8000AB4215D853EA0504D1D1069B0B48C8F880
:107A9000004000943A46079900682B44FCF7ECFE3E
:107AA000002818BF6FF09106C3E7AB42EDD2BEE7E6
:107AB0005B1B9C4228BF1C46E7E700BF202C002030
:107AC00030B58DB00C4605461022002108A820F0E4
:107AD00090FC002207AB029305AB019306AB214655
:107AE0000093284608ABCDE90522FFF7F5FD0446D3
