:020000040800F2
:1000000000100020390400089128000891280008F9
:1000100091280008912800089128000891280008DC
:1000200091280008912800089128000891280008CC
:1000300091280008912800089128000891280008BC
:1000400091280008912800089128000891280008AC
:10005000912800089128000891280008912800089C
:10006000912800089128000891280008912800088C
:10007000912800089128000891280008912800087C
:10008000912800089128000891280008912800086C
:10009000912800089128000891280008912800085C
:1000A00091280008D5070008B50700089128000826
:1000B000912800089128000891280008912800083C
:1000C000912800089128000891280008912800082C
:1000D000912800089128000891280008912800081C
:1000E000912800089128000891280008912800080C
:1000F00091280008912800089128000891280008FC
:1001000091280008912800089128000891280008EB
:1001100091280008912800089128000891280008DB
:1001200091280008912800089128000891280008CB
:1001300091280008912800089128000891280008BB
:1001400091280008912800089128000891280008AB
:10015000912800089128000891280008912800089B
:10016000912800089128000891280008912800088B
:10017000013800D0FCE770470348044B834202D0AB
:10018000034B03B118477047A8110020A8110020A5
:1001900000000000064B0749C91A891048BF013109
:1001A000491003D0044B0BB101481847704700BFFA
:1001B000A8110020A81100200000000010B5064C76
:1001C000237843B9FFF7D8FF044B13B10448AFF3CA
:1001D00000800123237010BD841100200000000066
:1001E000B831000808B5054B1BB105490548AFF308
:1001F0000080BDE80840FFF7CDBF00BF0000000051
:1002000000100020B8310008A3F5803A704700BF05
:10021000174B002B08BF134B9D46FFF7F5FF00213E
:100220008B460F461348144A121A02F0E0FB0E4B9D
:10023000002B00D098470D4B002B00D09847002092
:10024000002104000D000D48002802D00C48AFF337
:10025000008002F0B3FA2000290002F0D5FA02F083
:100260009BFA00BF00000800000000000000000032
:100270000010002000100020881100200000000065
:100280000000000008B5044802F0C5FC02F0C6FA00
:10029000BDE8084000F008B8D8300008014802F076
:1002A000BABC00BFD83000082DE9F04F97B0544ECB
:1002B00009AC35460FCD0FC42B6806F11405236039
:1002C0000EAC0FCD0FC495E80F00DFF84C8184E829
:1002D0000F004C4802F09FFC404602F09CFC4FF49B
:1002E0008073494FADF83C30484B38460B9309A911
:1002F0000EAB0D9301F074FE0421B6F834B00DEB93
:1003000001000122ADF804B000F0BAF9B6F836A049
:100310000022012102A8ADF808A000F0B1F9B6F85A
:1003200038900122042103A8ADF80C9000F0A8F940
:10033000758F0122042104A8354CADF8105000F04F
:100340009FF9344B4FF44870C4F8C8344FF002138F
:10035000C4F8C434A3F58033C4F8CC341C23C4F8E7
:10036000B43402F0EDF908A8ADF8205000F0F4F92B
:10037000142002F0E5F908A8ADF8205000F0C0F90B
:10038000232002F0DDF908A8ADF8205000F0E4F9D0
:10039000B921384602F0E5FA08A8ADF8205000F07F
:1003A000AFF9002205A81146ADF814B000F068F9C5
:1003B000002206A81146ADF818A000F061F901224C
:1003C000002107A8ADF81C9000F05AF90122002185
:1003D00008A8ADF8205000F053F9384601F0B6FCFB
:1003E00000234046C4F8B434C4F8C834C4F8C43454
:1003F000C4F8CC3402F012FC17B0BDE8F08F00BF97
:10040000182D0008D830000800000A50E070720073
:1004100000C0035002000300DC3000080348044A17
:100420000449121A921002F034BA00BF7001000899
:10043000700100088811002008B5154B83F30A8865
:1004400000F030F8FFF7EAFF124B13498B4212D34A
:100450000020124B12498B4218D3FFF7D9FE1868BF
:1004600050F82240586840F8224001329868824291
:10047000F5D30C33EAE70022F8E71C6844F82200C1
:1004800001325C68A242F8D30833E4E70022F8E7BF
:1004900000000020C0310008CC310008CC31000839
:1004A000CC31000870B54FF48041124B124A134D05
:1004B0009A60D3F8882005F5005442F47002C3F81E
:1004C00088200F4A91664FF0FF3222660D4A62661D
:1004D0000222C3F8D020BFF34F8FBFF36F8F4FF4CA
:1004E0004036002002F0A2F80020E66002F06CF82E
:1004F0002E6170BD00ED00E00000000800800044A7
:1005000000900050F7FF3700014B1860704700BFA4
:100510008C110020054B1860054B1B6F03F007037F
:10052000032B01D102F092BA704700BF9411002052
:100530000080005007B500232948019302F06BFBAF
:100540004FF44073012204216846ADF8003000F0FA
:1005500097F80122234B0520C3F8442401A902F097
:1005600055FB002839D1204BD3F8F02042F001028E
:10057000C3F8F020D3F8FC2042F08072C3F8FC20CE
:100580001A4AA3F55D431A60019B194A03F5D52366
:1005900003F2FC43B3FBF2F3164A013B136102235F
:1005A000C2F8F0304FF48073C2F804334FF0604368
:1005B000114AC3F8B02F114AC3F8802ED3F8002E89
:1005C00042F48072C3F8002EFF2283F82020D3F873
:1005D000002E22F48072C3F8002E03B05DF804FBF5
:1005E000D830000800D0035000ED00E0FF030040C9
:1005F000F8590D00000004E055CEACC5090001001B
:100600002DE9F0414FF0010804460C250D4E0CB9C0
:10061000BDE8F08194FAA4F0B0FA80F00F2808FA4F
:1006200000F2C8BF103824EA0204CABF05FB00620A
:1006300005FB0062B4325768002FE8D09168C0B261
:10064000B847E4E71810002008B50C4802F0E3FAB8
:10065000192001F0D3FF28B1192001F0E7FF19207C
:1006600001F0B2FF1A2001F0C9FF28B11A2001F0F1
:10067000DDFF1A2001F0A8FF002008BDD8300008D7
:100680002DE9F0410E469046044638B993211A48A8
:1006900002F00CF922252846BDE8F0810F290CD87C
:1006A000037883B1012B03D0022B0CD0032B04D190
:1006B0003F236278D340DB0708D497210E4802F02D
:1006C000F5F82125E7E740F2FF33F2E70B4BD3F8CB
:1006D00010532DB19B21084802F0E8F80225DAE713
:1006E00002F08EFA074642462046314601F0B0FD40
:1006F000384602F080FACEE7542D000800C00350BF
:1007000038B5044628B91348E42102F0CFF8222076
:1007100038BD037883B1012B03D0022B0CD0032BFF
:1007200004D13F236278D340DB0708D40948E8218D
:1007300002F0BCF82120EBE740F2FF33F2E702F0D1
:100740005FFA0546204602F0F3F9284602F053FA14
:100750000020DDE7542D000838B5044628B91448B8
:10076000FC2102F0A3F8222038BD03788BB1012BC5
:1007700003D0022B0DD0032B04D13F236278D3404A
:10078000DB0709D40A484FF4807102F08FF821206A
:10079000EAE740F2FF33F1E702F032FA054620467D
:1007A00001F022FD284602F026FA0020DCE700BF17
:1007B000542D000808B501F041FD054B00F05530FF
:1007C00020F05020C3F82004BDE80840FFF718BF10
:1007D00000E0035008B501F031FD054B00F0AA30F0
:1007E00020F0A020C3F82004BDE80840FFF708BFB0
:1007F00000E00350044BD3F88420D206FBD4D3F896
:100800008400C0F3811070470040005038B5104B91
:100810000546D3F800310C4603F00303022B0BD03E
:10082000032B0DD0012B0FD102F02AF9032305B1C0
:10083000286004B1236038BD02F074F90923F6E79B
:1008400002F024F90823F2E701230020EFE700BFBC
:100850000080005038B5104B0546D3F840310C46A7
:1008600003F00303022B0BD0032B0DD0012B0FD170
:1008700002F0B2F90A2305B1286004B1236038BD43
:1008800002F050F90923F6E702F0A9F90C23F2E788
:1008900001230020EFE700BF0080005038B5104B67
:1008A0000546D3F860310C4603F00303022B0BD04E
:1008B000032B0DD0012B0FD102F08EF90A2305B1C5
:1008C000286004B1236038BD02F02CF90923F6E753
:1008D00002F085F90C23F2E701230020EFE700BFC7
:1008E0000080005038B5104B0546D3F840320C4616
:1008F00003F00303022B0BD0032B0DD0012B0FD1E0
:1009000002F06AF90A2305B1286004B1236038BDFA
:1009100002F008F90923F6E702F061F90C23F2E787
:1009200001230020EFE700BF0080005038B5124BD4
:100930000546D3F880300C4603F00303022B0BD09E
:10094000032B0DD0012B0FD102F060F80E2305B15F
:10095000286004B1236038BD02F09CF80723F6E755
:1009600002F04EF80623F2E7044841F2142101F0A8
:100970009DFF00231846EAE700800050AB2D0008D9
:1009800038B51A4B0546D3F820010C4600F0070095
:10099000062821D8DFE800F028040C1410181C00E9
:1009A00002F02EF8052305B1286004B1236038BD9C
:1009B00002F066F80323F6E702F06CF80723F2E78B
:1009C00002F05AF80223EEE702F01AF80623EAE7EB
:1009D00002F056F80423E6E7054841F2912101F0C0
:1009E00065FF00231846DEE70123DCE700800050A6
:1009F000AB2D000838B5194B0546D3F828310C4605
:100A000003F00703013B052B20D8DFE803F00313B5
:100A10001B0F0B1701F0F4FF052305B1286004B18B
:100A2000236038BD01F0ECFF0623F6E702F032F850
:100A30000723F2E702F024F80323EEE702F020F8A0
:100A40000423EAE702F018F80223E6E7044841F23B
:100A5000990101F02BFF00231846DEE700800050CB
:100A6000AB2D000837B500230193194B0546D3F889
:100A700020320C4603F00703042B1FD8DFE803F0F5
:100A800025030F141900002101A8FFF7B3FF12235B
:100A90000DB1019A2A6004B1236003B030BD01F0AA
:100AA000F9FF07230190F3E702F096F80A2301907B
:100AB000EEE702F037F809230190E9E741F2560129
:100AC000044801F0F3FE0023E2E70123E0E700BF62
:100AD00000800050AB2D0008F7B50027144B01979C
:100AE000D3F88041064604F00304022C0D4614D0CE
:100AF000032C0DD0012C14D1394601A8FFF740FF7B
:100B000010240EB1019B336005B12C6003B0F0BD21
:100B100001F0C0FF07240190F3E701F0ADFF019061
:100B2000EFE741F2E631034801F0C0FE3C46E8E75A
:100B300000800050AB2D000838B5164B0546D3F8A1
:100B400000020C4600F00700042819D8DFE800F086
:100B500020030B0F130002F03FF80A2305B12860B1
:100B600004B1236038BD01F0DDFF0923F6E702F090
:100B700036F80C23F2E701F069FF0F23800AEDE756
:100B8000054841F2A44101F091FE00231846E5E733
:100B90000123E3E700800050AB2D000838B5164B69
:100BA0000546D3F808020C4600F00700042819D8BF
:100BB000DFE800F020030B0F130002F00DF80A230A
:100BC00005B1286004B1236038BD01F0ABFF0923F3
:100BD000F6E702F004F80C23F2E701F037FF0F23E9
:100BE000800AEDE7054841F2DC4101F05FFE002399
:100BF0001846E5E70123E3E700800050AB2D00082D
:100C000037B500230193184B0546D3F860320C46E4
:100C100003F00703013B032B1FD8DFE803F0020EAC
:100C20001914002101A8FFF7ABFE10230DB1019AA2
:100C30002A6004B1236003B030BD002101A8FFF792
:100C400009FE1123F2E701F025FF07230190EDE7EC
:100C500001F012FF02230190E8E741F2FD01034891
:100C600001F024FE0023E1E700800050AB2D0008D6
:100C700037B500230193184B0546D3F894320C4640
:100C800003F00703013B032B1FD8DFE803F0020E3C
:100C90001914002101A8FFF773FE10230DB1019A6A
:100CA0002A6004B1236003B030BD002101A8FFF722
:100CB000D1FD1123F2E701F0EDFE07230190EDE7EE
:100CC00001F0DAFE02230190E8E741F23011034817
:100CD00001F0ECFD0023E1E700800050AB2D00089F
:100CE00073B500240F4B0194D3F87032064603F01D
:100CF0000303012B0D4607D0022B11D041F25B11EB
:100D0000094801F0D3FD04E0214601A8FFF7A2FD48
:100D100011240EB1019B336005B12C6002B070BD8F
:100D20001524F6E700800050AB2D000808B5334BC2
:100D300098424FD027D8324B984245D017D8314BE4
:100D400098423ED00AD838B12F4B984239D041F260
:100D5000BB312E4801F0AAFD002034E02C4B984214
:100D60002FD02C4B9842F2D12B4B586E2BE02B4BB3
:100D700098422CD003F5371303F5D8639842E6D197
:100D8000254B986F1FE0264B98422FD00CD8254B4F
:100D9000984223D0244B984224D0244B9842D6D159
:100DA0001D4BD3F884000EE0214B984222D003F56E
:100DB000740303F510539842C9D1174BD3F8980028
:100DC00001E0154B986D08BD134B186FFBE7124BF4
:100DD000586FF8E7104BD3F88000F4E70E4BD3F8C8
:100DE0008800F0E70C4BD3F88C00ECE70A4BD3F803
:100DF0009000E8E7084BD3F89400E4E780BA8C0150
:100E0000405DC60080841E0040420F00AB2D0008EC
:100E100000093D00C0CF6A000080E00F0024F4000C
:100E2000007E560380D54302006CDC020048E801D6
:100E30000090D00310B5B0F5207F2DD009D8B0F5C3
:100E4000007F23D003D868B1B0F5C07F0AD000245A
:100E50001AE0B0F5607FFAD1124BD3F88040C4F3AA
:100E6000011411E00F4B1B6F13F4604FC3F30334F5
:100E70000AD0072C08D00F2C06D0032C04D04FF436
:100E80002271094801F012FD601C10BD054BD3F81A
:100E90009040C4F30464F7E7024B1C6FC4F3802452
:100EA000F2E700BF00800050AB2D000838B54FF4CA
:100EB0008032104B04469A6600200D46FFF7BAFFB9
:100EC00041F671320C4B6043DC69DA635A6804F412
:100ED000803422F440125DB90849884294BF002052
:100EE0000120000502435A600CB10022DA6338BDCC
:100EF0000349F2E70090005000000350005A6202DC
:100F0000002D310130B585B00021B0F5807F044659
:100F1000CDE9001100F0D3803DD85E2833D85E289B
:100F200033D8DFE800F048323232323232323232F5
:100F30003232323232323232323232323232323291
:100F400032323232323248AD48ADBDBDBDBDBDAD2D
:100F5000C7516EDD51ADADAD323232323232323246
:100F6000ADADAD81E7AD3232323232323232323271
:100F7000323232BD484848E25151EC9066C23232BA
:100F800032323298480080286AD040F2A44160484A
:100F900001F08CFC67E0B0F5D06F00F0A18035D88F
:100FA000B0F5607F77D01AD8B0F5007F5ED005D855
:100FB000B0F5C07FE9D101F049FD53E0B0F5207FE5
:100FC0005ED0B0F5407FE0D101F040FD04464FF423
:100FD0002070FFF72FFFB4FBF0F4640859E0B0F580
:100FE000B06F67D00AD8B0F5806F59D0B0F5A06F58
:100FF000CBD100216846FFF735FD34E0B0F5C06F76
:10100000C3D100216846FFF725FC2CE0B0F5106F36
:101010006BD00ED8B0F5086F76D0B6D8B0F5E06FCB
:1010200068D0B0F5F06FB0D100216846FFF736FC0C
:1010300019E0B0F5406F38D00AD8B0F5206F5ED017
:10104000B0F5286FA1D100216846FFF749FE0AE0FC
:10105000B0F5486F99D100216846FFF709FE02E01C
:1010600001F0D4FC0090009805B030BD01F0CEFC3A
:1010700005462046FFF7DEFEB5FBF0F50095F2E7EA
:1010800001F0E4FC04464FF42070FFF7D3FEB4FBFC
:10109000F0F40094E7E701A8FFF748FC019DE8E7BA
:1010A00000216846FFF76CFCDDE700216846FFF78A
:1010B000A1FCD8E700216846FFF70EFDD3E74FF00B
:1010C000E02302911B695B0705D501F0BFFC02908C
:1010D000029B0093C7E703A902A8FFF7BBFBF7E752
:1010E00000216846FFF728FDBDE700216846FFF7AD
:1010F00055FDB8E700216846FFF7F4FBB3E7002190
:101100006846FFF77DFDAEE76846FFF77FFBAAE77D
:10111000AB2D000808B58020FFF7F4FE034B984282
:101120009EBF4FF48032024B1A6708BD005A62021C
:1011300000A000501FB503460020B3F5807F01904A
:1011400000F0C58063D85D2B54D84C2B06D82D2BCE
:1011500046D8232B2AD840F28951A7E04D3B102BCB
:10116000F9D801A252F823F0C5120008571100085F
:1011700057110008571100086F1200085711000896
:10118000571100081F1300088D12000833120008C1
:1011900015130008571100085711000857110008CF
:1011A000571100085711000829130008243B092B88
:1011B000D1D801A252F823F0C5120008C5120008C8
:1011C000C5120008C5120008C51200085711000812
:1011D000B5120008571100084F120008FB12000852
:1011E0003D2B00F085803E2BB5D1002001A9FFF7F3
:1011F00079FB63E0802BAED14E4B1B6F03F00703EE
:10120000013B032B50D8DFE803F04D46494BB3F5C3
:10121000F06F6DD020D8B3F5B06F4BD00ED8B3F5CA
:10122000607F73D097D3B3F5806F4BD0B3F5A06FC9
:1012300091D1002001A9FFF715FC3FE0B3F5D06F75
:101240005BD0B3F5E06FD0D0B3F5C06F83D1002091
:1012500001A9FFF7FFFA31E0B3F5206F5FD00BD89B
:10126000B3F5086F4ED0B3F5106F7FF474AF002064
:1012700001A9FFF793FC21E0B3F5406F4AD0B3F525
:10128000486F51D0B3F5286F7FF465AF002001A9F6
:10129000FFF726FD12E0052301930FE00323FBE790
:1012A0000823F9E70223F7E740F2D641224801F08C
:1012B000FDFA03E0002001A9FFF70EFC019805B03C
:1012C0005DF804FB002001A9FFF75AFBF6E74FF099
:1012D000E02302901B695B0705D501F0B7FB0D23E6
:1012E0000393039BD8E703A902A8FFF7B3FAF8E733
:1012F000002001A9FFF7D2FAE0E7002001A9FFF7DB
:101300001BFCDBE701A9FFF781FAD7E701A9FFF78B
:101310000DFBD3E7002001A9FFF76CFBCEE700200F
:1013200001A9FFF76DFCC9E7002001A9FFF7A0FCA8
:10133000C4E700BF00800050AB2D00084FF480329E
:10134000074B0849586E03F580535A664B6A23F0E1
:1013500001034B62C3035CBF034B5A66704700BF77
:101360000080005000C0075000A0005038B503684E
:1013700004460F2B04D940F68A317E4801F096FAD4
:1013800063680F2B04D940F68D317A4801F08EFA4C
:10139000A3680F2B04D94FF43961764801F086FA1F
:1013A000237B0F2B04D940F69331724801F07EFA6B
:1013B000637B0F2B04D940F696316E4801F076FA24
:1013C000A37B3F2B04D940F699316A4801F06EFAAD
:1013D000E37B3F2B04D940F69C31664801F066FA66
:1013E0002369032B04D940F69F31624801F05EFA6D
:1013F0006369032B04D940F6A2315E4801F056FA26
:10140000E369032B04D940F6A5315A4801F04EFA9E
:101410008020FFF78FFE032800F08A804FF48012AF
:10142000554B4FF0A0615A6645F60E03534AC2F879
:101430008030534B99624FF4803103F580539962A9
:10144000936DD903FCD4916D11F08041FBD1D4E9A7
:1014500000031B0543EA0063E07B0343207B43EA70
:101460000043607B43EA0033A07B43EA80131361AF
:101470009069D4E904531B0643EA856300F00040F9
:101480000343A07EE57E0343207E43EA0043607E63
:1014900043EA00239361136AE06923F00F030028F5
:1014A00043EA000343EA850314BF0125002543EA0C
:1014B000C5031362334D3CD194F82430916A94F8FB
:1014C0002000DB00294043EA40130B4394F821102D
:1014D00043EA011343F4803393622B49274A936D07
:1014E00031EA0303FBD14FF0807125488162136913
:1014F000A56823F4700343EA055313614FF00043DA
:10150000836194F822300BB9204B996294F8233010
:101510003BB94FF480321D4B9A62184A936D5B00C1
:10152000FCD494F825301BB1144B194AC3F8802021
:1015300038BD022808D11161164891614FF4085254
:101540004FF47F4101F0CBF90C4994F822308A6ABC
:1015500094F820001B062A4043EA4013134394F8F2
:10156000242043EAC20394F8232043EA02438B6217
:10157000D7E700BFAB2D0008009000500040005A94
:101580000050005AC7FFFEFE030001000060005A31
:10159000F1A7FFFF3440005A014B93F90000704758
:1015A0009C11002010B543680446072B04D940F66F
:1015B000E6512A4801F07AF9A368032B04D940F6D2
:1015C000E851264801F072F92378032B04D940F63C
:1015D000EA51224801F06AF994F90130002B04DA4B
:1015E00040F6EC511D4801F061F94FF400011C4A2E
:1015F000637851664FF4D151022002F5B83251623E
:1016000018494F2B48604FF0010028BF4F2301F5C8
:10161000805148601169C903FCD4217843EA012351
:101620005361D4E901131B0143EA0123617B0B439E
:10163000217B43EA41039360E37BA17B1B0143EAE7
:101640004113617C0B43217C43EA41035360A37C3B
:1016500013B16FF4D153536210BD00BFAB2D00081E
:101660000090005000100250014B1880704700BFDE
:101670009A110020014B1880704700BF981100207C
:1016800008B54FF48002184B5A660223174A53607C
:10169000936813F48033FBD1012822D101F0F0F9D3
:1016A000134B984215D003F5122303F5F8639842C3
:1016B00013D0104B00EB8002400AB3FBF0F3520A48
:1016C0000A49CA620B6301234B620022074B5A602E
:1016D00008BD45F67A13084AF2E745F61A03074AA9
:1016E000EEE75362F1E700BF009000500040025067
:1016F00000F0490264666666D8B80500BBCF0500F5
:1017000038B5B0F5207F76D00ED8B0F5007F60D028
:1017100003D890B3B0F5C07F2FD0BDE838404FF468
:1017200046713D4801F0C2B8B0F5607FF5D13B4A43
:101730004C1ED2F8FC5015F080751EBFD2F8FC305C
:1017400023F08073C2F8FC30032C04D940F2F72157
:10175000314801F0ABF8324AD2F8803023F0300340
:1017600043EA0413C2F8803035B12C4AD2F8FC3079
:1017700043F08073C2F8FC3038BD102901F1FF340A
:1017800003D8284BCB40DB0704D440F2CB212248BE
:1017900001F08CF801F0B2F801F0BEF84FF480319E
:1017A000214B1F4A1967136F23F4704343EA043334
:1017B000136701F04BF90446FFF71CF8C0F1020172
:1017C000204601F0A3F800F049F8BDE83840FFF7E3
:1017D000A1BC4C1E1F2C04D94FF443710E4801F0DC
:1017E00065F80F4AD2F8903023F0F85343EA0463C7
:1017F000C2F89030C0E74C1E012C04D940F21231DF
:10180000054801F053F8064A136F23F4806343EA56
:1018100084231367B0E700BFAB2D000800ED00E0A4
:1018200000800050160101000090005008B5012111
:10183000022000F05BF94FF42070FFF7FBFA054B34
:10184000187001F05BF801F067F84FF48032024B3A
:101850001A6708BD851100200090005008B54FF4AC
:10186000C070FFF74FFBBDE808400449884294BFB1
:10187000012102214FF42070FFF742BF80F0FA02ED
:1018800038B5044601F0E2F80546FEF7B3FFC0F1B3
:101890000201284601F03AF80121002000F07AF90F
:1018A0002CB1FFF7DBFFBDE83840FFF733BC034B3B
:1018B0004FF420701978FFF723FFF4E7851100201B
:1018C0002DE9F0410546FFF731FA431E0333044684
:1018D00004D940F6E211394800F0E8FF4FF4C02285
:1018E000374B5A6603F598335A68012A04D13549B3
:1018F0004A605A689207FCD48020FFF71BFC052839
:1019000007D100F0FBFF01F007F84FF480322C4BB9
:101910001A672D4B24F040749D423DD02B4B9D42C5
:101920003DD001F06DF88542064603D901212846D5
:1019300000F030F9264FFB6813F0060FFBD1D7F803
:101940000880BC60BB68634013F4F81F2AD12846A6
:10195000FEF7DAFD8020FFF7EDFB052814D101F03A
:1019600075F88542044604D240F63B21134800F046
:101970009DFFFEF73FFFC0F10201204600F0C6FFC9
:10198000FFF76CFFFFF7C6FBB54214D8BDE8F04186
:101990000121002000F0FEB844F00074C1E744F0DB
:1019A0008074BEE740F62A21044800F07FFF3546E8
:1019B000C7F80880CEE7BDE8F08100BFAB2D000876
:1019C0000090005000E0015040420F0080841E0053
:1019D0000000015038B5314B054698424CD03AD8FA
:1019E000A3F5B703A3F55863984241D02CD82C4BEC
:1019F000984213D00CD820B141F2DE11294800F0F2
:101A000055FF002440F68671264800F04FFF0BE09A
:101A1000254B984202D0254B9842EDD1244BD3F868
:101A2000A040631E0333EDD84FF40022214B24F075
:101A300040745A661A4B9D422AD01B4B9D422AD0B5
:101A40004FF0B4439C6038BD1B4B9842D4D1184B27
:101A5000D3F8BC40E5E7194B984211D0184B984297
:101A600012D0184B9842C7D1114BD3F8C840D8E7D1
:101A70000F4BD3F8B840D4E70D4BD3F8C040D0E7B4
:101A80000B4BD3F8CC40CCE7094BD3F8D040C8E798
:101A900044F00074D4E744F08074D1E7C0EA210137
:101AA00040420F00AB2D000880841E0000093D005D
:101AB0000080E00F009000500024F4000048E8018E
:101AC000005A620280BA8C01024A536B0342FCD175
:101AD000704700BF00400950034A0179D36E23F0DC
:101AE00030030B43D366704700400050F8B50446FE
:101AF000244BD3F88420D006FBD4D3F88430C3F32E
:101B000081139C423CD000F081FF012C05460BD193
:101B10001D4B984204D940F29B711C4800F0C6FE50
:101B20000121284600F0F2FE01F061F84FF000724A
:101B3000174B07465A66204600F0F3FE4FF48063C9
:101B4000104E621E93403367736E9A010AD5384671
:101B500001F048F8022C13D12846BDE8F8400021D6
:101B600000F0D4BED6F884309B06F0D4D6F884308A
:101B70009906E9D540F2B371044800F097FEE3E717
:101B8000F8BD00BF00400050005A6202FB2D000863
:101B90000060005010B50C4608B900F037FF074B45
:101BA00021461B783BB1064B984204D80120BDE882
:101BB0001040FFF79BBF0220F9E700BF861100200D
:101BC000005A620238B54FF00042244B244C5A664A
:101BD0004AF6CD33656C014605F00105236430BB40
:101BE0000120FFF771FF6368DB0708D4002415B1FB
:101BF0001B4B1C4A1A6400F095FE204638BD1A4B58
:101C000058600846194B226BD20705D4984201D17F
:101C10000724ECE70130F6E79842E7D1F8E7013214
:101C2000236B13F0080305D08A42F8D1F0E70022B5
:101C30000E49F5E78A42EBD020210B4A916201213F
:101C4000A2F5805251600649084A886A800603D48A
:101C50009342DDD00133F8E79342DEE70090005075
:101C6000004009503254FFFF0060095040420F000D
:101C700038B54FF00042164B01465A664AF6CD334E
:101C8000144C154A656C236443780B205B0043F0C9
:101C90000103D363FFF718FF63688A7823F4F873AE
:101CA00043EA02136360CA784B7943EA0223A360D4
:101CB0000A798B7943EA022323610878FFF782FFD0
:101CC000EB0744BF054B236400F02CFE012038BD18
:101CD0000090005000400950004000503254FFFF77
:101CE00070B50F28044605D940F67461124800F01B
:101CF000DDFD0F244FF00042104B11495D6E03F5DE
:101D000080535A664AF6CD334E6C80200B64FFF741
:101D1000DBFE0B6A23F00F0323430B62F30744BF80
:101D2000084B0B64002DA2BF4FF00042064B5A66D1
:101D300000F0F8FD70BD00BFFB2D000800800050D2
:101D4000004009503254FFFF00A0005010B500F0D1
:101D5000EEFD042300F5805100F500520B61136184
:101D60000B6113610B6113610B611361202341F25D
:101D7000020103610023C360836041614FF4A0212D
:101D80008361836541620549C36103628362C36203
:101D900043630365D164036310BD00BFFF3F0D03C0
:101DA00038B5174B044698420D4607D0154B98425C
:101DB00004D040F26911144800F078FD25B920469E
:101DC000BDE8384000F0B3BD012204F580535A60ED
:101DD00040F6FF71204605F00F0200F0A4FDA2635B
:101DE000782100F0A0FD05F001036A0748BF43F029
:101DF0000203A26C02F003029A42FAD138BD00BF7E
:101E00000000015B00000A504B2E0008F8B50646A2
:101E10000C46154622B940F227216D4800F046FDD8
:101E20006C4B9E4200F0C8806B4B9E4200F0C98014
:101E300040F22A21664800F039FD44B940F2793178
:101E4000634800F033FD2046FFF75CF80446B368B2
:101E5000D80741D5AC4204D24FF40D715C4800F074
:101E600025FDB4FBF5F47768013CFF2C07F0010772
:101E700004D94FF40F71564800F018FD57B32821CC
:101E8000304600F050FDB36C99071DD1B36CDA07F2
:101E90001CD4B56C15F002051AD140F249214C480A
:101EA00000F004FD304600F042FD336923F07F432B
:101EB00043EA04633361002F00F0888029463046EE
:101EC000BDE8F840FFF76CBF0525EBE70925E9E71A
:101ED0000625E7E73D46E8E77368012B04D04FF499
:101EE00017713B4800F0E2FCB36DDB07B36848BFF5
:101EF0006D0003F0E003402B3AD00AD8A3B9B5EB4C
:101F0000141F04D94FF42171314800F0CFFC102385
:101F10000EE0602B39D0802B42D0BDE8F84040F273
:101F20009E212B4800F0C2BCB5EBD40F1AD8082371
:101F30006B436401B4FBF3F4284F203CB7EBC40FB0
:101F40004FEAC40504D240F2A921214800F0AEFCBA
:101F500030463D40012100F0E6FC3563BDE8F84025
:101F600000F0E1BC40F28921194800F09FFCDEE757
:101F70000623B4FBF3F3AB4201D30623D8E740F2C8
:101F80008E21134800F092FCF7E7B5EB940F01D8CF
:101F90000423CDE740F293210D4800F087FCF7E7DA
:101FA00005EB4503A34201D80123C1E74FF4267195
:101FB000074800F07BFCF7E7002C7FF448AF56247D
:101FC00041E7002C7FF443AF57243CE7F8BD00BF46
:101FD0004B2E00080000015B00000A50F8FF7F0054
:101FE00070B5714B044698420E4606D06F4B98422E
:101FF00003D0E2216E4800F059FC1EB9E4216C4880
:1020000000F054FC727BB3687AB16A4A934203D9F8
:10201000E621674800F04AFC3369D3B1DB7BC3B1EA
:10202000E921634800F042FC13E0634A934203D97C
:10203000EC215F4800F03AFC336953B11A7F42B19A
:10204000B1685E4A5B7F914240F29580042B00F2BA
:1020500095806368356923B140F6FF71204600F032
:1020600062FC2046FFF772FE2269737BB17B22F08F
:1020700087020B43134343F0800323610DB32369AD
:102080002A7F23F0F80343EAC2132A7813432A79FC
:1020900043EA42136A7A43EA0213EA7B43EA821371
:1020A0002361E268D5E9053122F0F04222F4702282
:1020B0000B4313432A7B43EA82236A7B43EAC233FE
:1020C000E360A368F27B23F00303134343F00103AF
:1020D000A36025B36B88A26803F4C0431343A360D5
:1020E000A3686A7943EA8223A360AB79E979626ADB
:1020F0001B01090203F0700301F4E06122F477226E
:1021000022F4EE620B4313432A7A120302F4E042F4
:1021100013436A7F120402F47022134363626369FB
:10212000327B23F00F0313436361ADB16B89A3616D
:102130006B7B3BB11C4B9C4222D1AB7B204A03F012
:102140000F035367EB7B3BB1174B9C4222D12B7C97
:102150001B4A03F00F0313672046D6E90112FFF76D
:1021600055FE20463178FFF71BFEA36CDB4313F4CA
:10217000405FFAD170BD042B3FF66BAFF32150E7FF
:102180000A4B9C4201BFAB7B0D4A03F00F03C2F820
:102190008030D7E7054B9C4201BF2B7C084A03F0F7
:1021A0000F03D367D8E700BF0000015B00000A50AF
:1021B0004B2E0008002D3101809698003F4B4C00BB
:1021C000009003504FF48032064B5A6603F5E62325
:1021D0009B69C3F38512827003F03F021B0B4270B0
:1021E000037070470090005010B5044620B940F2CB
:1021F0003A21104800F05AFB2378C3B1012B03D0D9
:10220000022B14D0032B04D13F236278D340DB0789
:1022100004D440F23D21074800F048FB01226378D6
:1022200021789A4030235943034B5A5010BD40F255
:10223000FF33EAE79E2E000840E00350034BD3F83B
:102240002424D3F820041040704700BF00C003507E
:102250002DE9F041037804460D46164613B3012BD1
:1022600003D0022B1ED0032B04D13F236278D3402E
:10227000DB0703D45D21274800F018FB264BD3F879
:1022800010331BB16021234800F010FB0F2D0CD838
:10229000DFE805F037323232323232323232323225
:1022A0003232323240F2FF33E0E7B421194800F015
:1022B000FDFA4FF00008204606B300F039FC0F216C
:1022C00067782378072F03EB430388BF083F4FEA63
:1022D0000313124895BFBF00BF0004330C3308FA44
:1022E00007F2B940184400F046FB85B9204656B1C4
:1022F000BDE8F04100F01CBCA846DCE7FFF774FF26
:10230000DDE7A846DBE7BDE8F041FFF76DBFBDE8BC
:10231000F08100BFF92E000800C0035030C0035008
:1023200030B58BB0884800F076FC20B14FF44E7188
:10233000864800F0BBFA6C46854D0FCD0FC42B6864
:10234000844A2360FF238DF80130D2F84C3113F416
:10235000802340F0EC80D2F850218DF801309DF8B8
:1023600001306C46FF2B08BF2C2368467A4D8DF850
:102370000130FFF717F93220FFF776F90FCD0FC4C0
:102380000FCD0FC495E8030084E80300714BD3F828
:102390004C21120340F1C780A3F5FE431C88B4F51D
:1023A000807F28BF5F248DF81940FFF7F5F80444BB
:1023B00084F3080469488DF81840FEF7ABF86846C6
:1023C000FEF7D4FF3220FFF755F96548FFF778FA9A
:1023D0006448FFF7FFFA644800F01DFC20B140F2AA
:1023E000CB115A4800F062FA604C0020FFF748F920
:1023F000FFF71CFA236F002023F0070343F00303C9
:102400002367FFF73DFA236F594923F47443236789
:10241000D1F8FC2012F080721EBFD1F8FC3023F0FE
:102420008073C1F8FC300021D4F8803023F003031E
:1024300043F00103C4F880304E4BC3F8801032B132
:102440004B4AD2F8FC3043F08073C2F8FC30474C62
:10245000D4F8203123F0070343F00203C4F82031FD
:10246000D4F8283123F0070343F00203C4F82831DD
:10247000D4F8803123F0030343F00103C4F8803122
:10248000D4F8403123F0030343F00203C4F8403191
:10249000D4F8603123F0030343F00203C4F8603141
:1024A000D4F8403223F0030343F00203C4F840326F
:1024B000D4F8003223F0070343F00203C4F80032DB
:1024C000D4F8083223F0070343F00203C4F80832BB
:1024D000D4F8703223F0030343F00103C4F87032E0
:1024E000D4F8203223F0070343F00103C4F820326C
:1024F000FEF724FF4FF0E0220020136943F00403AD
:102500001361D4F8603223F0070343F00103C4F8E9
:102510006032D4F8943223F0070343F00103C4F887
:1025200094320BB030BDD3F85041E4B23BE74FF0EA
:102530007E6393F89C2093F99C30002BFFF60FAF3D
:102540008DF801200BE700BFD030000815300008DF
:102550008C3000080080E00FA0300008C017530244
:1025600000B4C404C0EA2101D43000080080005047
:1025700000ED00E00090005007B5094B18689A88FC
:102580009B7900906846ADF804208DF80630FFF77F
:102590006FFB0920FFF7A4FB002003B05DF804FBEC
:1025A000C830000813B50024064A6846536F43F04C
:1025B0000103536700948DF80440FFF78DFA20461D
:1025C00002B010BD0040005010B54C28044608D899
:1025D00001236109074A04F01F04A34042F8213097
:1025E00010BD4FF49871044800F060F9002CF7DB3F
:1025F000EEE700BF00E100E0E030000810B54B2836
:10260000044604D940F23B11064800F04FF9064B4E
:10261000621153F8220004F01F04E040C04300F0B0
:10262000010010BDE030000800E100E0002808DBF8
:1026300001224309034900F01F008240603341F842
:102640002320704700E100E038B500F110035C2B57
:1026500004460D4604D94FF4EF710E4800F026F9F8
:102660000F2D04D940F2DF110A4800F01FF960B2C3
:102670000028ACBF00F16040074B4FEA0515EDB2F2
:10268000ABBF00F5614000F00F0080F800531D540F
:1026900038BD00BFE030000814ED00E010B500F0D8
:1026A000AFFA0A4B1A786AB901226FF004041A7063
:1026B00000F0A1FA204605210134FFF7C5FF4C2C9C
:1026C000F8D110BDBDE8104000F095BA8711002088
:1026D00007B501A8FFF776FD9DF80530012B14D151
:1026E0009DF804308BB94FF48012124B1249586E8A
:1026F00003F580535A664B6B23F0E05343F040637D
:102700004B63C3025CBF0D4B5A6600F049F9FFF7FB
:10271000C5FFFFF731FF00F041F9FFF743FF00F07D
:1027200040F900F04DF900F088F803B05DF804EBD3
:1027300000F038B9008000500040005A00A000505E
:1027400010B5044600F082F94FF47A729042B0FB63
:10275000F2F105D23621BDE810400C4800F0A6B8D1
:102760000B4BB3FBF1F30B49884201D93C21F2E753
:1027700002FB04F0B0FBF3F0022806D9BDE81040DC
:102780000323B0FBF3F0FDF7F3BC10BD5A31000892
:1027900040420F00E7CD9A3B08B5064B044613B103
:1027A0000021AFF30080044B1B6803B1984720461B
:1027B00000F07DF8000000008011002070B50D4D84
:1027C00000260D4C641BA410A64209D10B4D002617
:1027D0000B4C00F095FA641BA410A64205D170BD05
:1027E00055F8043B01369847EEE755F8043B0136AF
:1027F0009847F2E7A0110020A0110020A0110020AE
:10280000A41100207047704708B5FFF761FFFFF77C
:10281000F9FF00F0E1F8FFF7F6FFFAE700F021B862
:10282000704770477047704708B5FDF737FD00F0F7
:10283000B1F8BDE80840FDF725BD704708B5FDF7C4
:1028400079FEFDF701FFBDE8084000F018B800F080
:1028500006B87047704770477047704770470F2041
:10286000704707B50421012300220DEB0100ADF8EC
:102870000430FDF705FF002003B05DF804FB08B548
:10288000082000F015F8BDE80840082000F01BB84B
:10289000FEE700239A4200D1704710B550F823405C
:1028A00041F8234001339A42F8D110BDFEE7FEE71C
:1028B0004FF060420123D2F8001E83400B430020FA
:1028C000C2F8003E70474FF060410122D1F8003E4F
:1028D000824023EA02030020C1F8003E704770B531
:1028E000054614460E4600F082F92B685C403440E1
:1028F0005C402C60BDE8704000F074B908B500F091
:10290000B7F8BDE808400021FEF7D0BA0029CCBFD7
:1029100001210021FEF7CABA02214FF42070FEF710
:10292000EFBE70477047436D0B42FCD1704708B54E
:102930004368DA0714D58368DB0702D50369D90732
:1029400007D50A2350218363FFF7EDFF836C9A07B5
:10295000FCD1012200F500535A6043689B07FCD468
:1029600008BD836C5A06FCD54164836C1B06FCD5FC
:10297000C06B80B2704770B5054614460E4600F035
:1029800036F92B685C4034405C402C60BDE87040F8
:1029900000F028B900F000B800207047FFF7C0BC75
:1029A0007047704708B5FFF73FFFFFF747FFFFF796
:1029B0004EFFFFF74EFFBDE80840FFF74BBF7047E3
:1029C00008B5FFF72DFFFFF72CFFFFF72BFFFFF7F1
:1029D0002AFFFFF7F4FF08BD08B5FFF73CFFFFF73C
:1029E0003BFFFFF73AFFBDE80840FFF737BF02445F
:1029F0000346934200D1704703F8011BF9E700003A
:102A0000014B1868704700BF8C1100200A4B1B6FE8
:102A100003F00703013B032B03D8DFE803F00A03AD
:102A20000608FEE7054B18687047054BFBE70548AD
:102A300070470548704700BF008000508C1100208F
:102A40009411002080D54302002D310108B5FFF715
:102A5000DDFF054B1B6FC3F303330133B0FBF3F012
:102A6000024B186008BD00BF008000508811002094
:102A70000048704700B4C40400487047002D31017D
:102A8000014B1868704700BF941100200048704740
:102A900080D543024FF40022184B5A664FF0B442DF
:102AA0009368C3F304430C2B0AD8DFE803F00B0947
:102AB00009090909072119091B1D1F001048704742
:102AC00000207047936803F04073B3F1807F11D00A
:102AD000B3F1007F10D0002B0A4818BF00207047C8
:102AE00009487047094870470948704709487047C6
:102AF00009487047094870470948704700900050DE
:102B0000405DC60000093D00C0EA210180BA8C0189
:102B10000048E801005A62020024F40080841E008C
:102B200040420F00014B1868704700BF9011002011
:102B300010B5044620B94FF4D8711048FFF7B6FE1F
:102B40002378C3B1012B03D0022B14D0032B04D163
:102B50003F236278D340DB0704D440F2B311074827
:102B6000FFF7A4FE0122637821789A40302359436D
:102B7000034B5A5010BD40F2FF33EAE79E2E000887
:102B800040D0035070B50D46E8B1036813F4E07F00
:102B900003F03F06C3F3821210D0012A13D10B4C6D
:102BA0009B0603D591210A48FFF780FE45B104F545
:102BB000805401230020B340236070BD054CEFE733
:102BC00004F50054F5E70E20F7E700BF68800050D9
:102BD000532F0008648000504FF4004070474FF4BA
:102BE0007A70704710B962B6BFF36F8F7047EFF31A
:102BF000108072B6704780F31188BFF36F8F7047F3
:102C0000EFF31180302383F31188704709B100F08E
:102C100008B8222070470121FFF7B4BF0021FFF759
:102C2000B1BF70B506460D46FFF7EAFF0446202EF9
:102C300056D8DFE806F0111A551F222555282B55C6
:102C40002E55313455373A3D55405543555255551B
:102C500055465549554C4F00FFF7D8FE00262860D1
:102C60002046FFF7C8FF304670BD4FF4C070FEF736
:102C700049F9F3E74FF42070F9E74FF44070F6E7B5
:102C80004FF46070F3E74FF40070F0E74FF48060AA
:102C9000EDE74FF44060EAE74FF4C060E7E74FF438
:102CA000F060E4E74FF4B060E1E74FF4D060DEE7B6
:102CB0004FF41060DBE74FF4E060D8E74FF4A0601A
:102CC000D5E74FF42860D2E74FF48070CFE74FF498
:102CD0002060CCE74FF44860C9E74FF40860C6E7CE
:102CE00000202126BBE700000000000000000000DB
:102CF00000000000000000000000000000000000D4
:102D0000F8B500BFF8BC08BC9E467047F8B500BFD8
:102D1000F8BC08BC9E46704705000000000000009B
:102D200080969800020100000000000000000000F2
:102D30000100000000000000000000000100000091
:102D40000000000000000000010400000201020277
:102D500002030204433A2F55736572732F73756330
:102D600075742F53696D706C6963697479537475E8
:102D700064696F2F53444B732F73696D706C696373
:102D80006974795F73646B2F706C6174666F726DB8
:102D90002F6472697665722F6770696F2F73726323
:102DA0002F736C5F6770696F2E6300433A2F557302
:102DB0006572732F73756375742F53696D706C69C9
:102DC0006369747953747564696F2F53444B732F1F
:102DD00073696D706C69636974795F73646B2F706C
:102DE0006C6174666F726D2F656D6C69622F7372A2
:102DF000632F656D5F636D752E6300433A2F5573C6
:102E00006572732F73756375742F53696D706C6978
:102E10006369747953747564696F2F53444B732FCE
:102E200073696D706C69636974795F73646B2F701B
:102E30006C6174666F726D2F656D6C69622F737251
:102E4000632F656D5F656D752E6300433A2F557373
:102E50006572732F73756375742F53696D706C6928
:102E60006369747953747564696F2F53444B732F7E
:102E700073696D706C69636974795F73646B2F70CB
:102E80006C6174666F726D2F656D6C69622F737201
:102E9000632F656D5F6575736172742E6300433ACD
:102EA0002F55736572732F73756375742F53696D26
:102EB000706C696369747953747564696F2F5344D6
:102EC0004B732F73696D706C69636974795F736498
:102ED0006B2F2F706C6174666F726D2F70657269E5
:102EE00070686572616C2F696E632F736C5F6861C7
:102EF0006C5F6770696F2E6800433A2F5573657277
:102F0000732F73756375742F53696D706C69636982
:102F1000747953747564696F2F53444B732F7369BD
:102F20006D706C69636974795F73646B2F706C6129
:102F300074666F726D2F7065726970686572616C0E
:102F40002F7372632F736C5F68616C5F6770696F5A
:102F50002E6300433A2F55736572732F7375637533
:102F6000742F53696D706C696369747953747564F7
:102F7000696F2F53444B732F73696D706C6963696C
:102F800074795F73646B2F2F706C6174666F726DF0
:102F90002F656D6C69622F696E632F656D5F627559
:102FA000732E6800433A2F55736572732F737563E0
:102FB00075742F53696D706C696369747953747596
:102FC00064696F2F53444B732F73696D706C696321
:102FD0006974795F73646B2F706C6174666F726D66
:102FE0002F736572766963652F636C6F636B5F6DBA
:102FF000616E616765722F7372632F736C5F636CB0
:103000006F636B5F6D616E616765725F68616C5F56
:1030100073322E6300433A2F55736572732F7375A5
:103020006375742F53696D706C6963697479537437
:103030007564696F2F53444B732F73696D706C699E
:10304000636974795F73646B2F706C6174666F72FF
:103050006D2F736572766963652F636C6F636B5F49
:103060006D616E616765722F7372632F736C5F633E
:103070006C6F636B5F6D616E616765725F696E69CE
:10308000745F68616C5F73322E630000012600007C
:10309000040000000000000000010000000000002B
:1030A0000B0000000C0000000300000000002020C6
:1030B00000000000020000003C3C3C00000000005A
:1030C00000000000000000000103100101090300DE
:1030D0001E000000160000001A000000570000004B
:1030E000433A2F55736572732F73756375742F533D
:1030F000696D706C696369747953747564696F2F55
:1031000053444B732F73696D706C69636974795F95
:1031100073646B2F706C6174666F726D2F73657260
:10312000766963652F696E746572727570745F6D10
:10313000616E616765722F7372632F736C5F696E66
:10314000746572727570745F6D616E616765725FD0
:10315000636F727465786D2E6300433A2F55736503
:1031600072732F73756375742F53696D706C696317
:1031700069747953747564696F2F53444B732F735B
:10318000696D706C69636974795F73646B2F706CBF
:103190006174666F726D2F736572766963652F75E2
:1031A00064656C61792F7372632F736C5F756465EE
:0831B0006C61792E6300000040
:0831B80050D0FF7F0100000070
:0C31C000CC31000888110020080000003D
:1031CC00C0EA2101C0EA210100800000C0175302AF
:1031DC00FFFFFFFF28000000E5010008BD0100080B
:0400000508000439B2
:00000001FF
