:020000040801F1
:10200000C80A00200D380108B3590308B359030862
:10201000D57F0308B3590308B3590308B35903081C
:10202000B3590308B3590308B3590308B359030854
:10203000B35903080C5E040885800308B3590308EC
:10204000B3590308B3590308B3590308B359030834
:10205000B3590308B3590308B3590308B359030824
:10206000B3590308E9300108E9580308B3590308D4
:10207000B3590308B3590308B3590308B359030804
:10208000B3590308B3590308B3590308B3590308F4
:10209000B35903083D400108B3590308B359030875
:1020A000B35903087D3C01085D3C0108B35903089E
:1020B000B35903089DF40208D5FF0208E71204088B
:1020C000E312040865F70208FD120408EB12040885
:1020D000A5FF0208EF120408150003087D0003089D
:1020E000B3590308B3590308B3590308B359030894
:1020F0003D740308B3590308B3590308B3590308DF
:10210000B3590308B3590308B3590308B359030873
:10211000B3590308B3590308B3590308B359030863
:10212000B3590308B3590308B3590308B359030853
:10213000B3590308B3590308B3590308B359030843
:10214000B3590308B3590308B35903081D560408CB
:1021500021D90208B3590308D1120408D712040880
:10216000B3590308B3590308B3590308B359030813
:10218000F0B5114A114C124E00F00105E3695F07EA
:1021900013D40DB9334213D103EA00078F4207D19C
:1021A0000B4A1A40002A0CBF00206FF00100F0BD5E
:1021B000013AEBD16FF00200F9E74FF0FF30F6E79C
:1021C0006FF00100F3E700BF809698000000035015
:1021D000020001000B4B70B5D96911F480310DD1AB
:1021E00001244FF48072084E084DF46020462C64A0
:1021F0001A61FFF7C5FF3464EC6070BD6FF0010039
:10220000FBE700BF00000350001003500020035004
:102210004FF4803238B50E4B0E4C9A66E56941F6A4
:10222000713315400122E3630B4B0021DA60022376
:10223000606121202361FFF7A3FF10B92120FFF780
:102240009FFF0122054BDA600DB10023E36338BD27
:102250000090005000000350001003500020035075
:1022600070B5134C6061E3695B071ED40E4656F8E7
:10227000043B8D18A361AE420BD104230021212021
:102280002361FFF77DFF58B9BDE870402120FFF7BB
:1022900077BF08210846FFF773FF10B104232361BD
:1022A00070BD56F8043BA361E5E74FF0FF30F7E758
:1022B000000003502DE9F84315464FF48032184BC7
:1022C00089469A6603F51C33DF690646174041F6D6
:1022D0007132DA63012203F58053DFF84C80DA6053
:1022E00055B9284601220F4BDA601FB10022A3F531
:1022F0000053DA63BDE8F88306F5005404EA0804E5
:10230000A41BAC4228BF2C46494622463046FFF764
:10231000A7FF0028E6D12644A1442D1BE0E700BF1B
:10232000009000500020035000E0FFFF000000007C
:10233000000000000000000000000000000000009D
:10234000013800D0FCE7704707B588B10BA3D3E98B
:1023500000230949C1E90223CDE900234FF0FF32F0
:102360004FF0FF3308692EF0B6F903B05DF804FBB7
:1023700000220023EDE700BF500B00200DD50155D2
:10238000200000000348044B834202D0034B03B1FA
:1023900018477047402E0020402E0020000000000B
:1023A000064B0749C91A891048BF0131491003D0AB
:1023B000044B0BB101481847704700BF402E002066
:1023C000402E00200000000010B5064C237843B9D1
:1023D000FFF7D8FF044B13B10448AFF3008001238B
:1023E000237010BD682800200000000090B8040889
:1023F00008B5054B1BB105490548AFF30080BDE8A2
:102400000840FFF7CDBF00BF00000000B00D002066
:1024100090B80408A3F5803A704700BF174B002B13
:1024200008BF134B9D46FFF7F5FF00218B460F4673
:102430001348144A121A31F005FA0E4B002B00D043
:1024400098470D4B002B00D0984700200021040036
:102450000D000D48002802D00C48AFF3008022F098
:10246000DFFE2000290023F0C5F922F01FFD00BF88
:10247000000008000000000000000000C80A002062
:10248000C80A0020E0290020000000000000000031
:1024900037B510220020114615F0F2FF054618B39B
:1024A000334C3449206825F01BF83349206825F067
:1024B00017F823F022FA23F021FA304B304A009328
:1024C00030497E23206825F00BF82F492B462F4AF0
:1024D000206825F005F8284600F062FF2C492068A6
:1024E00024F0FEFF00BEFDE70121084615F0DEFFE7
:1024F000044618B31E4D1F49286824F0F1FF1E49F9
:10250000286824F0EDFF23F0F8F923F0F7F91B4BCE
:102510001B4A00931B498123286824F0E1FF1A49D4
:1025200023461A4A286824F0DBFF204600F038FFD3
:102530001749286824F0D4FF00BEFDE7154B18703A
:10254000032000F0C1FE80B1094C1349206824F03B
:10255000C7FF23F0D2F923F0D1F9104A10492068BF
:1025600003B0BDE8304024F0BBBF03B030BD00BFB6
:10257000EC0E00203558040888560408455A040813
:102580008D56040896560408A5560408A256040859
:10259000BA56040869280020CB560408D05604080F
:1025A000DE56040810B5134B03201B78012B11D104
:1025B00000F08AFEE0B1104C1049206824F090FF32
:1025C00023F09BF923F09AF90D492068BDE81040EB
:1025D00024F086BF00F078FE50B1074C0749206810
:1025E00024F07EFF23F089F923F088F90549ECE710
:1025F00010BD00BF6A280020EC0E0020CB56040856
:1026000004570408335704082DE9F0410368B04A21
:1026100023F47F4323F00703934204468EB000F077
:1026200049834ED802F17F42934200F009830CD8CF
:10263000A2F5A022934200F0F28002F5802293429C
:1026400000F0A4810EB0BDE8F081A24A9342F9D116
:10265000032000F039FE60B19F4DA049286824F0A6
:102660003FFF23F04AF923F049F99D49286824F0F7
:1026700037FF032000F028FEF0B1974D97492868F6
:1026800024F02EFF23F039F923F038F9B4F80F3095
:10269000B7EE047A07EE903AF8EEE77A67EE877ABB
:1026A00017EE900A1DF0C4FE0B46A17B0246009176
:1026B00028688C4924F014FF0EB0BDE8F04115F0F5
:1026C00009BF894A934200F0358277D8A2F54402C7
:1026D000934200F0428102F543029342B2D1834E0D
:1026E0003378002BAED106228149053031F080F8D5
:1026F0000028A7D1638B002BA4D0032000F0E4FDB9
:1027000040B3754D7549286824F0EAFE23F0F5F8CA
:1027100023F0F4F8638BB7EE047A07EE903AF8EE04
:10272000E77A67EE877A17EE900A1DF081FE94F83B
:102730000980A77ACDE9040163793A460393A37926
:102740006C490293E3790193237A00932868434606
:1027500024F0C6FE684F0097A57A617AA37D41EA0E
:102760000521E27AD4F8050015F0C2FE05460028DE
:1027700000F0DE80584C6149206824F0B1FE6049C9
:10278000206824F0ADFE23F0B8F823F0B7F85D4BD5
:102790005D4A00935D49D023206824F0A1FE5C4986
:1027A0002B465C4A206824F09BFE284600F0F8FD8A
:1027B0005949206824F094FE00BEFDE7574A934231
:1027C0007FF440AFC37A032B7FF63CAF032000F0C9
:1027D0007BFD00283FF436AF3F4D4049286824F088
:1027E0007FFE23F08AF823F089F894F90730667B9E
:1027F0000293B4F90E30B2EE047A07EE903AF8EE96
:10280000E77AC7EE877A17EE900A1DF011FECDE940
:10281000000132464249286824F062FE12E7414B2B
:10282000187801283ED1022115F040FE054618B364
:10283000294C3249206824F053FE3149206824F0A5
:102840004FFE23F05AF823F059F82E4B2E4A0093EE
:102850002E49B523206824F043FE2D492B462D4AEE
:10286000206824F03DFE284600F09AFD2A492068A1
:1028700024F036FE00BEFDE7032000F025FD002811
:102880003FF4E0AE144C1549206824F029FE23F0F3
:1028900034F823F033F8244920680EB0BDE8F04145
:1028A00024F01EBE032000F00FFD60B10A4C0B495E
:1028B000206824F015FE23F020F823F01FF81B49B0
:1028C000206824F00DFE0EB0BDE8F041FFF7E0BD3A
:1028D000A0000601A0005300EC0E0020CB56040817
:1028E0002358040837580408A00006026B2800206B
:1028F000635A0408B15704088C2D00203558040889
:1029000088560408545A04088D560408965604083C
:10291000A5560408A2560408BA560408A00053029B
:10292000585804086A280020725704089C57040865
:10293000032000F0C9FC68B1A84CA949206824F024
:10294000CFFD22F0DAFF22F0D9FF3A88A5492068AE
:1029500024F0C6FD0123337074E6032000F0B4FCBC
:1029600068B19E4D9E49286824F0BAFD22F0C5FF4B
:1029700022F0C4FFA2889C49286824F0B1FD0022FF
:102980009A4B022101201A7015F090FD984E317873
:1029900000297FF457AE2379DB077FF553AE1C2265
:1029A0000DEB0200069130F04DFFA37D04F11701FD
:1029B0000B448B427FF646AE0A78002A3FF442AEC3
:1029C000501C08448342FFF43DAE4D78083D012D74
:1029D00071D8551EEDB21F2D28BF1F2502312A4682
:1029E00006A830F044FF05F138030DEB0305002382
:1029F000032005F8203C00F067FCD8B1774D7849FA
:102A0000286824F06DFD22F078FF22F077FF94F91A
:102A10000D3078490593637906AA0493A37903934B
:102A2000E3790293237A0193637A0093A37A286867
:102A300024F056FD704906A830F00FFF00287FF4FF
:102A400001AE032000F040FC60B1644D6449286889
:102A500024F046FD22F051FF22F050FF674928681C
:102A600024F03EFD15F036FD054630B35B4C64495D
:102A7000206824F035FD6349206824F031FD22F000
:102A80003CFF22F03BFF604B604A009360494FF4EB
:102A90008B73206824F024FD5E492B465E4A206833
:102AA00024F01EFD284600F07BFC5C49206824F0E1
:102AB00017FD00BEFDE701467BE70146584F009732
:102AC000A27A637AD4F8050043EA022363F30F0184
:102AD000E27A012315F078FC0446A0B1012000F051
:102AE000F3FB68B13D4D4F49286824F0F9FC22F012
:102AF00004FF22F003FF22464B49286824F0F0FC33
:102B0000FFF7C6FC9EE501230320337000F0DCFBD9
:102B100000283FF497AD314C3149206824F0E0FCA7
:102B200022F0EBFE22F0EAFE3A784049206824F0D9
:102B3000D7FC87E5032000F0C7FB60B1274D28498B
:102B4000286824F0CDFC22F0D8FE22F0D7FE3849C8
:102B5000286824F0C5FC032000F0B6FB88B11F4DA7
:102B60001F49286824F0BCFC22F0C7FE22F0C6FEF4
:102B7000B4F805202F4902EB820328689B0824F053
:102B8000AFFC032000F0A0FB70B1144D144928687D
:102B900024F0A6FC22F0B1FE22F0B0FEB4F807202B
:102BA0002549286824F09CFC032000F08DFB0028B8
:102BB0003FF448AD094D0A49286824F091FC22F001
:102BC0009CFE22F09BFE0A22B4F809301B495A43AE
:102BD00028680EB0BDE8F04124F082BCEC0E002065
:102BE000CB560408075804087C5804086B280020BA
:102BF0006928002099580408D0560408DC580408B5
:102C00003558040888560408545A04088D56040898
:102C100096560408A5560408A2560408BA56040895
:102C2000162E002002590408075904082F590408D9
:102C30005C5904087159040895590408A7590408F7
:102C40000222037B274E03203370274B1A7000F0BB
:102C50003BFBC0B1254D2649286824F041FC22F0F9
:102C60004CFE22F04BFE23792249049363790393AF
:102C7000A3790293E3790193237A0093637A3278FC
:102C8000286824F02DFC032000F01EFB00283FF4F0
:102C9000D9AC164D1649286824F022FC22F02DFEEE
:102CA00022F02CFEE17A144A144B002908BF1A4680
:102CB00013498DE7032000F007FB70B10B4D0C4961
:102CC000286824F00DFC22F018FE22F017FEA388DD
:102CD000A2790C49286824F003FCFF22014B1A70EA
:102CE000F1E500BF162E002069280020EC0E002020
:102CF000CB560408BC5904086A5704085F570408F7
:102D0000035A0408125A04080022014B1A80704723
:102D10002428002010B532F008FA054A148814B1AE
:102D2000631E0124138032F0FBF9204610BD00BF62
:102D30002428002030B503687E4A23F47F4323F023
:102D40000703934289B040F0F38006220021162049
:102D5000794B12F0B5F9044618B3784D78492868D4
:102D600024F0BEFB7749286824F0BAFB22F0C5FDA9
:102D700022F0C4FD744B754A009375496C23286892
:102D800024F0AEFB73492346734A286824F0A8FB5D
:102D9000204600F005FB7149286824F0A1FB00BE25
:102DA000FDE70146082212206D4B12F089F9044616
:102DB00018B3624D6249286824F092FB6149286883
:102DC00024F08EFB22F099FD22F098FD5E4B5F4AC5
:102DD00000935F497823286824F082FB5D492346ED
:102DE0005D4A286824F07CFB204600F0D9FA5B4954
:102DF000286824F075FB00BEFDE70146032214207D
:102E0000584B12F05DF9054618B34C4C4C492068FC
:102E100024F066FB4B49206824F062FB22F06DFD34
:102E200022F06CFD484B494A0093494986232068AB
:102E300024F056FB47492B46474A206824F050FBB4
:102E4000284600F0ADFA4549206824F049FB00BE51
:102E5000FDE70DF10F0104A815F0F2FA044618B3CE
:102E6000364D3749286824F03BFB3649286824F062
:102E700037FB22F042FD22F041FD334B334A0093F1
:102E800033499523286824F02BFB32492346324AE4
:102E9000286824F025FB204600F082FA2F49286894
:102EA00024F01EFB00BEFDE7BDF8143001465BBAFE
:102EB000ADF818309DF8133008228DF81A30FF2332
:102EC0008DF81B30FE238DF81C309DF81230182031
:102ED0008DF81D30BDF810305BBAADF81E3006AB72
:102EE00012F0EEF8054618B3144C1549206824F08A
:102EF000F7FA1449206824F0F3FA22F0FEFC22F0DD
:102F0000FDFC114B114A00931149A523206824F0C0
:102F1000E7FA10492B46104A206824F0E1FA2846C7
:102F200000F03EFA0D49206824F0DAFA00BEFDE711
:102F300009B030BDA0000100DA5A0408EC0E0020F0
:102F400035580408885604089A5A0408695A04082F
:102F500096560408A5560408A2560408BA56040852
:102F6000D25A0408CF5A0408064B1B681A7A022A60
:102F700004D812B11B68044A13607047032AF9D0C1
:102F8000704700BFAC2B0020C80D002070B5264D47
:102F9000A8B012AC0FCD0FC495E80700032384E856
:102FA00007008DF861302923204A0024CDE903234E
:102FB00040F201531E49CDE90944CDE905134FF410
:102FC00080230B94089319AD08AE0FCECDE90E44C3
:102FD000079410940FC5174B0DAE2B60164B1EAD0A
:102FE0000D930FCE0FC52020144B19A92B60144B45
:102FF00012AA2393134B2694CDE92403124B1348B2
:103000002793134B009303AB06F046FD04469DF84F
:1030100097304FF4E130002B0CBF0321002122F048
:10302000BAFC204628B070BD185D040800C00550E9
:103030000008000924C00550020004003CC00550EF
:103040006C28002000010100C02B0020840E00200D
:10305000CC0D0020831E012B10B50C4619D8012978
:103060000DD8184B04221B6C08210020C3F3002349
:1030700003F072FF24B1144B18680368F3B910BD54
:10308000114B18680368002BF9D0BDE8104006F01A
:10309000D1BC8B1E012B0CD80128F0D8BDE8104004
:1030A0000022084B08211B6C1046C3F3002303F0D9
:1030B00053BF0029E4D00129DDD0E0E7BDE810408E
:1030C00024F0DDBB00C00350D42B002008B5044918
:1030D000044806F0DDFEBDE80840FFF757BF00BF1B
:1030E000D82B0020AC0E0020014824F04DBC00BFBE
:1030F000840E0020014B5A6A18681047840E002085
:10310000044B834205D1044B1B7813B1C8B215F0B0
:1031100087B97047B40E00208C28002030B50025F8
:1031200003685A4A23F47F4323F0070385B0934290
:1031300004460295ADF80C5000F0828002F1C062A6
:1031400002F5802293420DD0514A934240F09C8078
:10315000504B1B78002B00F0978005B0BDE8304045
:1031600024F08CBFB0F805301B2B40F08D80FF237E
:1031700004A91A4611E9030022F0B8FB012814BF84
:1031800041F2FC15434B05F0FC0208BF18701B21EF
:10319000207911F0ABFF054618B33F4C3F4920683A
:1031A00024F09EF93E49206824F09AF922F0A5FB0C
:1031B00022F0A4FB3B4B3C4A00933C495923206836
:1031C00024F08EF93A492B463A4A206824F088F9CF
:1031D000284600F0E5F83849206824F081F900BE5F
:1031E000FDE7364900902379354A0968354800F0F3
:1031F00033F90546002847D0274C2849206824F099
:103200006FF92749206824F06BF922F076FB22F051
:1032100075FB244B244A009324496223206824F040
:103220005FF923492B46234A206824F059F92846A0
:1032300000F0B6F82049206824F052F900BEFDE7FE
:10324000B0F80530B7EE047A07EE903AF8EE677AF8
:10325000B0F8073067EE877A013307EE103AB8EE20
:10326000C77A67EE877AB1EE047A67EE877AFAFE5C
:10327000677AFCEEE77A17EE903AB3F57A7F38BFBB
:103280004FF47A730D4A136005B030BDA0000602FA
:10329000A00006018C280020EC0E00203558040800
:1032A00088560408A75D0408345D0408965604088F
:1032B000A5560408A2560408BA560408E02B0020BC
:1032C00001310108B40E00200B4B02461B7883B17C
:1032D0000A4B1B78834234BF00200120084B1B7827
:1032E00033B1084B1B78134113F0010F08BF0020C6
:1032F00070470120F2E700BF192E0020182E002091
:103300008D280020172E002001222DE9F342174BB3
:1033100000241A700422164B25461C70154B164EBD
:103320001A701F22154BDFF860901A70144B1B683F
:103330000193019BA3420BD056F8047B3B7A022BEE
:1033400010D14946786830F088FA48B9386810B921
:1033500055B906F051F80B4B186002B0BDE8F08289
:1033600005B93D680134E4E72846F4E7192E00204A
:103370008D280020182E0020AC2B0020172E0020B6
:103380000C5D0408EC0E0020105D0408024B03499C
:10339000186824F0A5B800BFEC0E0020C75D040833
:1033A00070B50C4C0C490646206824F099F806F0DC
:1033B00023F80546206806F013F83046FFF7E6FFCD
:1033C000284606F00DF820680449BDE8704024F056
:1033D00087B800BFEC0E0020C95D0408CB5D04086F
:1033E00038B5054631F0AAFE00230B4A14685CB1DB
:1033F000AC4206D1A96A6BB1996231F09AFE012004
:1034000007E02346A46AF2E7002DF3D031F091FEE5
:10341000204638BD1160F0E7F00E002010B50446DC
:10342000B0B131F0B9FB2046FFF7DAFF10B194F8E4
:103430002C300BB9002010BD064C2368002BF9D0AE
:1034400031F07CFE2368013B236031F072FEF1E72E
:103450002220F0E7F40E00202DE9F04385B0054668
:10346000914698460E469DF8307009B9002F5CD100
:103470002846FFF7D3FF0446002836D185F82C00F4
:10348000686306F0EDFE864233D931F01DFC21461B
:10349000844640F2E7304FF47A720023E6FB0C01D9
:1034A0001DF01EF84FF0FF3200231DF019F82B46D7
:1034B000E88611462846CDE900441D4A32F045F819
:1034C000044690B9C5E9089885F82D702E6331F04F
:1034D00035FE184A136833B31A469B6A002BFBD19A
:1034E00095620023AB6231F024FE204605B0BDE8B2
:1034F000F08347B12B4631462846CDE900440C4ABB
:1035000031F034FCDCE7304603A931F0E3FB04463C
:103510000028EAD12B462846CDE90077044A0399D2
:1035200031F0EFFFCCE71560DBE72124DDE700BFDA
:1035300039350108F00E002091F82C3013B50C46F7
:1035400083B98B8ECA8E93420ED243B9CDE9003334
:1035500020460B46124A4FF0FF3131F0B6FFA38EE2
:103560000133A38602B010BD52B191F82D3093B152
:1035700001230093D1E908232046096BFFF76CFF74
:10358000012384F82C30074B1A6801321EBF1A68D9
:1035900001321A60E6E7084631F0FEFAF0E700BFB4
:1035A00039350108F40E00202DE9F041154E33683D
:1035B00033B34FF00008144F31F0C0FD05463C68AE
:1035C00024B92846BDE8F04131F0B3BD94F82C3061
:1035D000A3B1336884F82C8013B13368013B3360A6
:1035E00094F82D3013B92046FFF7FAFE284631F043
:1035F000A0FDD4E9083120469847DDE7A46ADFE75B
:10360000BDE8F081F40E0020F00E0020034B1B6893
:10361000002B14BF04200120704700BFF40E0020CF
:10362000024B1868B0FA80F040097047F40E002091
:1036300008B5044831F0BDFE22F009F9BDE80840A4
:1036400000F01CB844710408014831F0B2BE00BF5C
:103650004471040807B5082022F0CFF90222064B76
:103660006846CDE9002322F05AF9082003B05DF83E
:1036700004EB22F0CDB900BF006A18102DE9F04F1D
:10368000544E97B0354609AC0FCD0FC42B6806F1E8
:10369000140523600EAC0FCD0FC495E80F00DFF8C2
:1036A0004C8184E80F004C4831F083FE404631F0F5
:1036B00080FE4FF48073494FADF83C30484B38469C
:1036C0000B9309A90EAB0D9303F086FB0421B6F80A
:1036D00034B00DEB01000122ADF804B000F03CFA6B
:1036E000B6F836A00022012102A8ADF808A000F02B
:1036F00033FAB6F838900122042103A8ADF80C90F3
:1037000000F02AFA758F0122042104A8354CADF887
:10371000105000F021FA344B4FF44870C4F8C8340C
:103720004FF00213C4F8C434A3F58033C4F8CC348A
:103730001C23C4F8B43406F001FE08A8ADF82050EC
:1037400000F064FA142006F0F9FD08A8ADF8205046
:1037500000F034FA232006F0F1FD08A8ADF820505F
:1037600000F054FAB921384622F0E1FE08A8ADF87D
:10377000205000F023FA002205A81146ADF814B03D
:1037800000F0EAF9002206A81146ADF818A000F0F2
:10379000E3F90122002107A8ADF81C9000F0DCF944
:1037A0000122002108A8ADF8205000F0D5F93846D4
:1037B00003F072FA00234046C4F8B434C4F8C834A5
:1037C000C4F8C434C4F8CC3431F0F6FD17B0BDE809
:1037D000F08F00BFD05D04084471040800000A5057
:1037E000E070720000C0035002000300487104083A
:1037F0000348044A0449121A921022F0DBB800BFB1
:103800008021010840230108E029002008B5154B5C
:1038100083F30A8800F030F8FFF7EAFF124B1349F0
:103820008B4212D30020124B12498B4218D3FEF761
:10383000F5FD186850F82240586840F822400132DF
:1038400098688242F5D30C33EAE70022F8E71C6857
:1038500044F8220001325C68A242F8D30833E4E75E
:103860000022F8E70800002098B80408A4B804086B
:10387000A4B80408A4B804084FF48041124B134ABA
:1038800070B59A60D3F88820114D42F47002C3F8E5
:103890008820104A05F5005491664FF0FF322266E9
:1038A0000D4A62660222C3F8D020BFF34F8FBFF3E8
:1038B0006F8F4FF44036002005F084FD0020E66055
:1038C00005F064FD2E6170BD00ED00E000200108F0
:1038D0000080004400900050F7FF3700014B186053
:1038E000704700BFE82B0020054B1860054B1B6F8D
:1038F00003F00703032B01D130F0E0B9704700BF9C
:10390000F02B0020008000504FF000639B6A03F111
:103910007842B2F5903F03D21968064A914203D02B
:103920000023037083607047012202709A689B69CC
:103930004260F7E707B0CD5E4FF000639B6A10B5B9
:1039400003F17842B2F5903F11D21968094A9142C9
:103950000DD1094C227812F0FD0F01D0002010BDCE
:10396000DB6998470028FAD101232370F6E74FF46A
:103970008170F4E707B0CD5E8E280020024B034A29
:103980001A6023F05DBD00BF0000002002020FF0AE
:10399000BFF34F8F0549064BCA6802F4E062134338
:1039A000CB60BFF34F8F00BFFDE700BF00ED00E02D
:1039B0000400FA05002307B52948019331F0F9FC0A
:1039C0004FF44073012204216846ADF8003000F046
:1039D000C3F80122234B0520C3F8442401A931F088
:1039E000E3FC002839D1204BD3F8F02042F001024B
:1039F000C3F8F020D3F8FC2042F08072C3F8FC201A
:103A00001A4AA3F55D431A60019B194A03F5D523B1
:103A100003F2FC43B3FBF2F3164A013B13610223AA
:103A2000C2F8F0304FF48073C2F804334FF06043B3
:103A3000114AC3F8B02F114AC3F8802ED3F8002ED4
:103A400042F48072C3F8002EFF2283F82020D3F8BE
:103A5000002E22F48072C3F8002E03B05DF804FB40
:103A60004471040800D0035000ED00E0FF03004063
:103A7000F8590D00000004E055CEACC50900010066
:103A80004FF06043D3F8802E30B5D20715D501240E
:103A90000B4D8440D5F8FC2042F08072C5F8FC2024
:103AA000D3F8002E2243C3F8002E53F82020002A1A
:103AB000F0D003F82010002030BD1120FCE700BF3B
:103AC00000ED00E02DE9F04104460C254FF001081F
:103AD000124E0CB314F001000BD0002024F00104AE
:103AE00005FB00625768002FF3D09168C0B2B84759
:103AF000EFE72246013020284FEA520201D0D307D7
:103B0000F8D508FA00F20F2824EA0204E8D91038A0
:103B100005FB0062B432E5E7BDE8F081F80E002055
:103B200008B50C4831F045FC192005F03DFC28B1E2
:103B3000192005F047FC192005F028FC1A2005F093
:103B400033FC28B11A2005F03DFC1A2005F01EFCBC
:103B5000002008BD447104082DE9F0410E4690464E
:103B6000054618B30F2923D80378E3B1012B03D0FE
:103B7000022B18D0032B1BD13F236A78D340DB07DD
:103B800016D50D4BD3F81043A4B931F0D7FA074638
:103B900042462846314603F031FC384631F0C9FA36
:103BA0002046BDE8F08140F2FF33E6E72224F7E744
:103BB0002124F5E70224F3E700C0035010B50446C2
:103BC000E8B10378C3B1012B03D0022B14D0032B2F
:103BD00017D13F236278D340DB0712D531F0AEFA1C
:103BE0000122637821789A4030235943064B5A507A
:103BF00031F09FFA002010BD40F2FF33EAE72220A7
:103C0000F9E72120F7E700BF40D0035010B5044684
:103C1000E8B10378C3B1012B03D0022B14D0032BDE
:103C200017D13F236278D340DB0712D531F086FAF3
:103C30000122637821789A4030235943064B5A5029
:103C400031F077FA002010BD40F2FF33EAE722207E
:103C5000F9E72120F7E700BF40E0035008B503F083
:103C6000C3FB054B00F0553020F05020C3F8200472
:103C7000BDE80840FFF726BF00E0035008B503F099
:103C8000B3FB054B00F0AA3020F0A020C3F82004BD
:103C9000BDE80840FFF716BF00E003502DE9F04FE4
:103CA0009A46564B85B01B7806460F461546DDF8FA
:103CB0003C909DF844B0DDF85080002B00F09780D8
:103CC000072A00F296800E9B002B00F09280B9F13B
:103CD000000F00F08E80129BB3F5006F00F3898017
:103CE000012803D1109B002B00F08380444B03EB91
:103CF00005131B7B002B7ED0424C1022002168460E
:103D00002FF0A0FD04EB45141022A7BB3946204636
:103D10002FF098FD43F210036380BBF1000F03D135
:103D2000E37843F00303E370364A0E9B02EB451C35
:103D3000CCE90193129B6901581E9DF84C30C0F3E9
:103D40000A0003F003039B0643EA001E53582E4863
:103D5000012E00EA03004EEA0003CDF800A0535004
:103D600017D0B8F1000F2ED19CF8023068F304137D
:103D70008CF8023027E0002120462FF063FD4FF43D
:103D800044736380BBF1000FCED1E37843F030037E
:103D9000C9E713230CF1100ECCF80C309CE80F008F
:103DA0008EE80F006FF00301DCF81C20109B61F31C
:103DB0009F02012FCCF81C20CCF8143003D1CCF892
:103DC0001890CCF8043000270D4A290102EB0513A6
:103DD00042F80180159A28465A60694622469F603B
:103DE0005E7303F04DF9384605B0BDE8F08F074823
:103DF000FAE70748F8E70748F6E700BF8F280020F2
:103E000060110020601000200F80FFF3028000F09E
:103E1000018000F0078000F038B5124B05461B7892
:103E2000DBB1E0B131F08AF90F4A00231146147B6F
:103E300054B92B6001251A0101EB03131D738C503B
:103E400031F077F9204638BD0133082B02F110021A
:103E5000EDD131F06EF90548F5E70548F3E705487F
:103E6000F1E700BF8F28002060110020048000F0DF
:103E7000028000F0018000F038B531F05FF90023D6
:103E800005460B4A147B6CB90133082B02F1100272
:103E9000F8D103F0A1F8074B28461C7031F049F91E
:103EA000204603E0284631F044F9034838BD00BFFE
:103EB000601100208F280020058000F00D4B10B508
:103EC0001B78044693B1072812D831F037F90A4B12
:103ED00003EB04131A7B2AB100241C7331F029F977
:103EE000204610BD31F025F90448FAE70448F8E708
:103EF0000448F6E78F28002060110020068000F0BB
:103F0000028000F0018000F0154B13B51868002303
:103F100001908DF8043031F011F9124B1C7824B166
:103F200031F007F9104802B010BD01221A7031F0CB
:103F300000F90E4B01A81C731C7783F82C4083F802
:103F40003C4083F84C4083F85C4083F86C4083F835
:103F50007C4008238DF8073003F062F82046E2E742
:103F60005C5E04088F280020038000F060110020B0
:103F7000F8B50D4D2D7885B1072810DC0B4D0601E5
:103F800005EB0014277B67B1AB510025069BA560AC
:103F9000636003F075F82846F8BD0548FCE705485E
:103FA000FAE70548F8E700BF8F28002060110020DD
:103FB000028000F0018000F0078000F00A4A08B596
:103FC00012785AB107280BD8084A02EB00131B7B62
:103FD00043B1002103F016F8002008BD0448FCE7B7
:103FE0000448FAE70448F8E78F2800206011002011
:103FF000028000F0018000F0078000F00A4A08B556
:1040000012785AB107280BD8084A02EB00131B7B21
:1040100043B1012102F0F6FF002008BD0448FCE78F
:104020000448FAE70448F8E78F28002060110020D0
:10403000028000F0018000F0078000F0184B2DE9AD
:10404000F0411F6D5B6D1F4000D5FEE70126002586
:10405000144CDFF85880374218D02368C8F85060F5
:10406000A3B1A168284601316268A1609847637BCB
:10407000012B0BD150B90C4B03EB45131A7B60F3AA
:1040800041021A731A7F60F341021A770135082D35
:104090004FEA460604F11004DDD1BDE8F08100BF0F
:1040A0000000045060110020601000200020045027
:1040B0002DE9F04F144605460E469B46C36B87B06C
:1040C00001225B6902A960689847EB6B01225B697A
:1040D00003A93046984702A822F0BDF8074648B128
:1040E0000023A37563754FF0FF33A360002007B072
:1040F000BDE8F08F03A822F0BBF80123A375237E4F
:1041000004EBC303DE611F846368B3420ED12060F9
:1041100003A822F0CFF84FF0FF332075A360237D72
:10412000043B022B26D80023A375DFE723681A1A65
:1041300053425341A37503A822F0BCF8237D834268
:1041400018BFA77503A822F097F8074602A822F027
:1041500093F8874218BF002303A818BFA37522F065
:1041600093F8074602A822F08FF887421CBF00236D
:10417000A375D4E703A822F07FF880B1EB6B02228D
:1041800030465B6904A9984704A822F084F80346E6
:10419000207D032839D8DFE800F03838040903A867
:1041A000F3E7CC22237E04EBC3031A8401F0EAFA7E
:1041B000109B187003A8277E22F052F804EBC70763
:1041C00087F82200237E03A804EBC303B3F82090F2
:1041D00093F8227022F050F8804603A822F054F899
:1041E0008246B8F1000F15D0EB6B022230465B69B6
:1041F00004A9984704A822F013F86075637D6BB991
:104200000023A3754FF0000838E0227E04EBC202C1
:104210001384CBE703A821F0EEFFEEE794F81680B5
:10422000B8F1000FEED0B9F1000F09D1DFB10123D1
:10423000E375637E002B4FD1012F42D1677614E0E6
:104240006B6C06EB0A02594286EA020008421CBF68
:104250000021A175591E0A409B1A9945D0D8A37D0B
:10426000002BE3D1CEE7E37D43B94FF000084B4686
:1042700052463146284621F02CFDA060A27D12B1A5
:1042800023694B4423611A49237E097899422AD92C
:1042900001332376BBF1000F27D032B3E37D23B384
:1042A000B8F1000F21D1032F1FD0A1684B1C1CD0E7
:1042B000109B2246009328460123FFF7F9FEA075C4
:1042C00013E095F8343063B9EB6A0133CFD1032F93
:1042D000CDD10123A376C8E7012FCFD0032FC4D1BE
:1042E000F7E79846C3E70023A375A07DFFE600BF6C
:1042F000805E04082DE9F04F0E46984600238BB0EF
:1043000004464FF0FF31104617468DF8133001F088
:1043100023FAB6F5801F3BD3B21C53D1E56A6B1C60
:1043200057D12046616A21F01AFC0546B31C18BF1C
:104330000123DFF810910193636A626C0293236892
:1043400005A902FB053AE36B05225B6950469847D5
:1043500005A822F01BF822F03EF8504622F046F85D
:104360004FF0000B824601464B1C05D0636C81EA7E
:104370000A025B42134232D02946204621F0EFFB6D
:10438000029BAB424DD0BBF1000F4DD10546D3E7A8
:10439000314605AA04F1080021F0ABFE0146481C95
:1043A00010D0384601F0D8F90122394620460DF1E7
:1043B000130321F0E0FC28B19DF8133088F8003099
:1043C000002003E0237C002BA8D12D200BB0BDE8FA
:1043D000F08F2368ED1A636CB5FBF3F5A6E748464A
:1043E00001F0BAF90DF1130349462046019A21F074
:1043F000C2FC034690B1B21C03D0D9F80020B242EF
:104400000CD19DF8132003930D4B88F800204946EA
:104410001A6838462FF02BFA039B9B46D9F80810F0
:10442000A2E7BBF1000FD0D0B6F5801FC8D231464D
:1044300098F800307A6804F1080001F0BBF8BFE793
:104440007C5E0408541800202DE9F3410446174609
:1044500098460E46194D816AE36A8B422AD04B1C5E
:1044600018E0284601F078F90122294620460DF18E
:10447000070321F080FC30B14346294620469DF8D1
:104480000720B847B0B1A9684A1C05D0012E0AD050
:10449000E36A9942E5D10DE06968204621F0ECFB22
:1044A000012E0146D8D16B6881EA0302636C5B423E
:1044B0001A42D1D002B0BDE8F08100BF2818002018
:1044C0002DE9F04F4FF0FF334FF6FF720025044601
:1044D00000F10806C0E909238BB0C36205620563D9
:1044E00030460F4621F0D6FD204621F008FB20BBC8
:1044F0002046394621F083FB204621F000FB20BBFB
:104500005E200BB0BDE8F08FE26B2368606CD2F8E0
:1045100014C000FB0530052205A9E04705A821F0DD
:1045200035FF012828D12946204621F039FB421CBD
:104530002946204621F002FB0135E3699D42E3D381
:10454000204621F0DCFA0028D2D000254FF0FF39B8
:104550004FF6FF73CA46A846C4E90853E369984575
:1045600014D3A5EB0905012D36D84FF6FF72636A07
:10457000934246D16720C4E721F032FF0028DBD008
:104580002946204621F00CFB0246D1E72368E26B66
:10459000606C576900FB0830052205A9B84705A8DB
:1045A00021F0F4FE834605A821F0C7FE07465846D1
:1045B00021F011FF68B1574538BFC4F82480B945D0
:1045C00028BFB946BD4238BF3D46BA46236A0133CB
:1045D000236208F10108C1E74FF6FF73002563620B
:1045E000E3699D42C1D2676C2068E36B052207FB3B
:1045F00005005B6905A9984705A821F09EFE0135D5
:10460000EEE7E26B676C2068694607FB03005569BB
:104610000522A847684621F090FE626A2368606C14
:104620004B4D00FB023021F0E1FE4FF0FF33A06262
:10463000E3622A466FF00101204605ABFFF75AFE00
:10464000002846D1AD6829462046E56221F033FABC
:10465000206320B92046E16A21F00EFBE062294682
:10466000204621F009FB0546A36A9D4233D120462E
:1046700021F0F4F900278046B946E36999453CD317
:10468000B84559D92046616A21F069FA00260546E5
:1046900004F1400AB74212D8626C2368694602FBF3
:1046A0000539E36B05225B6948469847684621F067
:1046B00044FE534602464946E06B21F099FE2946E6
:1046C000204621F04CFA0136B0450546E2D164207F
:1046D00017E7A56AB7E72946204621F0ECF9236BD6
:1046E0002946034407462363204621F0C5FA0546C0
:1046F000002FB9D1C4E90B07B6E7636C2568052222
:1047000003FB0955E36B05A95B692846984705A893
:1047100021F03CFE21F05FFE58B1284621F066FEF4
:104720000146204621F0C7F9636C143B984208BF4C
:10473000013709F10109A0E7304621F0ABFC002365
:1047400020461946034AFFF77FFE0020D9E600BF46
:1047500080180020655D03082DE9F041036B904649
:10476000826B07689A4288BF8363426C436A90B049
:1047700002FB0377C36B0E46052201A95B69044661
:104780003846984701A821F001FE01280146307003
:1047900057D0656CE26B2368606AD2F814C005FBE1
:1047A0000030052206A9E04706A821F0EFFD012808
:1047B0004FF0000523D0D4E90A3201219342CDE91C
:1047C0000B458DF834800E958DF83C102AD1194692
:1047D000204621F051FA236B626C14339B1AE0627D
:1047E00023630C9B53B99DF83C303BB1626A616C0A
:1047F0002368E06B01FB023121F080FD0C9DE36B2F
:1048000005225B6901A93846984701A821F0BEFD41
:1048100030702846236BA26B9A4288BFA36310B006
:10482000BDE8F081237C33B91C490BAA04F10800D0
:1048300000F00EFFD5E72046194A0BABFFF704FE48
:10484000CFE7237C23BB2246164904F1080000F081
:10485000FFFE616A204621F0A3F9616A421C2046EE
:1048600021F06CF9054620B9236B626C1344143BAC
:1048700023632046A16A21F0FFF92368A062C01AD1
:10488000636CB0FBF3F06062204621F038FAB6E7C3
:1048900000232046044AFFF7D7FDDAE7CD4F010891
:1048A000494F0108FF5D03089B5D030873B50D4682
:1048B000D11E4A421C461B7E4A419A4226D1296893
:1048C0002368994222D3636899421FD8114E0DF193
:1048D00007033246FFF70EFDC0B972686B689A4253
:1048E00014D19DF80730DA1E53425341227E934281
:1048F0000CD1636901336361D4E90323934205D288
:104900002968A26842F8231001332361012002B014
:1049100070BD00BF801800202DE9F04F9A468BB083
:104920009DF85030DFF850B10293DBF8103080462C
:1049300053450D461646C0F09980D146DBF8043049
:104940000193B9F1000F00F08D80D8F83C300122BE
:104950005B6907A90198984707A821F089FCDBF853
:104960000030984240F0858007A821F08DFC042893
:10497000074614D107A821F08EFC019B029A044639
:104980003B44002A3FD1864212D91446361A40468B
:10499000019921F071F9A9EB04090190D1E7D8F848
:1049A0003C3002225B69019808A9984708A8E2E711
:1049B000841B544528BF5446032C03EB0607AAEB7F
:1049C000040A4FEA94021CD9D8F83C3029463846EC
:1049D0005B69984724F0030304F003061F441D4459
:1049E000002ED4D0D8F83C3001225B6908A93846A3
:1049F00098473246284608A935442EF038FF00264D
:104A0000C5E72646ECE7074600F00302039203449D
:104A10002A1804920593049BDD1B059BD81B039B5E
:104A20009F420FD1002FB2D0D8F83C30012208A904
:104A30005B6998473A46284608A92EF0D9FE78B90E
:104A40003D44A4E7D8F83C30012208A95B699847A7
:104A50000422284608A92EF0CBFE08B9043FDAE765
:104A60004FF0360948460BB0BDE8F08F4FF06309B0
:104A7000F8E74FF06F09F5E7AC1800202DE9F04199
:104A80000F4616469846044688B060B390F83450F6
:104A9000FDB1012121F028F800210E9BCDE905117F
:104AA000CDE902379DF83C30CDF804808DF81C30FC
:104AB000237C04968BB90D4901AA04F1080000F08B
:104AC000C7FDDDE90553E06B002E08BF1D4621F050
:104AD000A4F9284608B0BDE8F0812046044A01AB9D
:104AE000FFF7B2FCEDE70546F3E700BFC95D030839
:104AF000AD4801082DE9F04F99B00F4609920A69B7
:104B0000416C0E931439D31DB3FBF1F3013302EB67
:104B1000C302036B04469342C0F0B3810023DFF865
:104B200024940D93E36A48461946079300F014FE57
:104B3000D7E9033604930E9B022B4ED1CC2E40F0C6
:104B40008A81099B002B42D03946204621F0C3F9C7
:104B5000656C079A6B1E13401490ED1AE36B0122EB
:104B60005B6916A97868984716A821F085FB00288C
:104B70000CBF04230823782E06933DD9012300257A
:104B80004FF0080A05933B6805990E98C9F8003064
:104B9000C9F8106021F092FB4FEA9A0310930023AA
:104BA000DDF81CB089F814000B930F9308930C9355
:104BB000616C4A1E0BEA02028B1A002E38D0554453
:104BC000AB4240D8236B5B1A13442363ABE0049BD6
:104BD0001B68149308230693D0E7656C079A6B1E35
:104BE0001340782EA5EB030516D8FB7D7BB9099BF6
:104BF000002BB3D104230693331DAB4210D9A6B1C9
:104C0000082DBBD804250023AA460593BBE7099BC2
:104C1000002BA3D10823EEE7099B002B9ED1D9E7F7
:104C2000002505954FF0040AADE704250596F9E740
:104C30005345C7D3B0460BEB0A030393089B002BE5
:104C400018BF032313E0A3EB0A039E42B0460BEB0D
:104C50000A0228BF98469E420392EFD90123D9F851
:104C6000102089F81730964271D1C9F804B0089322
:104C700099F81730002B6CD099F818200899D31C9C
:104C800009EBC3030132C3F804B0A3F8088099729A
:104C900089F81820B8F1000F14D00E9B022B5BD1BD
:104CA0000B9B7BB90F9B4344032B0BD9E36B012276
:104CB0009B69039814A998470546002840F0E380B3
:104CC00001230B93089B16A80193059B009399F869
:104CD00014204346396800F0F5FCE36B58469B69A5
:104CE000109A16A99847051E0D9B18BF5B465246A1
:104CF0000D9359464346204620F0EBFF236B08F105
:104D00000302A3EB0A0322F003029B1AC9F808006E
:104D10002363002D40F0B7800F9BDDF80CB04344B7
:104D2000A6EB08060F935946204620F0A5FF002564
:104D30008346002E7FF43CAF824A3968936804F1C1
:104D40000800E36252680E9B00F034FC84E002230A
:104D50008DE7C9F804B09DE7099B002B30D1049B77
:104D6000B8F1030F43440A9327D9DDE90301E36B4C
:104D70004FEA98029B6998470546002865D118F0CC
:104D800003025FD0049B28F003052B440493039B8C
:104D90001D444FF0FF33049915A815932EF067FDBD
:104DA000E36B28469B69012215A9984705460A9B93
:104DB0000493002D86D0039B99E74246039DE8E7C4
:104DC000039B0A9307F120031193FB7D78689BB145
:104DD00000233D7E0C9AD9B28D4211D9119903F16D
:104DE000010C31F83310914226D9069907EBC30321
:104DF000D8690A44104403E00C9B069A13441844F3
:104E0000E36B01225B6915A99847159B0122139357
:104E10000C9B0A9804330C93E36B13A99B69984786
:104E2000039B0A9A43449B1A042B054607D978B979
:104E3000134604330A93C8E76346521ACBE70A9B2A
:104E40000393B6E70A9B04933CE70A9B0493B2E7FB
:104E50000A9B0393AFE77026304619B0BDE8F08F88
:104E60004FF0000A4FE03A69616CD31D1439B3FB6F
:104E7000F1F3013302EBC302236B9342BFF452AE52
:104E80005DE01C26E8E73D2D59D104F108030393AA
:104E90002368079A606CA2EB030ABAFBF0FA00FBE6
:104EA0000A3021F0A3FAE16A8046204620F0E4FEB1
:104EB000A26A8242D7D0626CD9F80830511E0B40EA
:104EC000216B2668891A0B4423630D9BE0629E1BAD
:104ED000B6FBF2F6B245C3D1079BB3EB080A12D07A
:104EE000E36B4FEA9A0241469B6998478346E36A1F
:104EF000079A5344E362236B03989B1A434423634A
:104F000021F0C8F8DA462368616CE06B01FB0631DA
:104F100021F0E1F9204620F0F2FD204620F0EFFEDE
:104F20002063BAF1000F9ED03A69616CD31D143929
:104F3000B3FBF1F3013302EBC3029042A8D22E4639
:104F40008AE700BF54180020032A2DE9F3410646E2
:104F50000D4617461C4606D1237A012B23D001208B
:104F600002B0BDE8F081DFF86080096842460DF1CB
:104F70000703FFF7BFF960600028EDD19DF8072017
:104F8000237A032AE8D0D8F804106A689142E3D162
:104F9000012B2969D4F80CC007D172690CEB01030D
:104FA000934202D92074207CDAE708316144E16041
:104FB0003B46012229463046FFF79CFD60600028F1
:104FC000CAD00020CCE700BF801800202DE9F341B3
:104FD000089C032A1746266806D1237A012B24D081
:104FE000012002B0BDE8F081DFF8908030464246F3
:104FF0000DF10703FFF77EF960600028EDD1256809
:10500000D8F80400A96AD5F844C04840CCF10003A0
:105010001840227AE1D1012A09D1E268D8F810308B
:1050200013447269934202D92074207CD9E728681E
:10503000EB6A1B1A081AB3FBFCF3B0FBFCF08342CB
:105040000BD1706CF36A421E1340326B121A134478
:105050002846336320F010FEE862D8F81020E36899
:1050600008321344E36001223B4604492068FFF7FD
:1050700041FD60600028B0D00020B2E78018002019
:105080002DE9F0410025634B0E46D3F8008004461D
:105090001D6018B921252846BDE8F08190F83470CC
:1050A00007B30A6803689A4240F0AA804A684368D6
:1050B0009A4240F0A5808A6883689A4240F0A080B6
:1050C000CA68C3689A4240F09B800A6943699A4261
:1050D00040F096808A69C36B9A4240F091804B6998
:1050E0008361D8E768223946856B2EF0ABFBD6E9A1
:1050F0000212336804F1080023607368A5636360DB
:10510000336963617369A36120F0D6FFB36904F169
:105110004000E3639B68984720B9676C17B16368E8
:10512000B3FBF7F794F84330E761002BB2D00023CC
:10513000656C2366002D6BD0002F69D02368B3FB0C
:10514000F5F205FB1233002B5CD16768B7FBF5F66F
:1051500005FB1676002E55D1204620F09CFCA36955
:10516000043303449F424FD340F634726369CC3B0F
:1051700093424BD8B5F5805F4AD30321204620F0F7
:10518000B3FCD4E90001E36B1B6898470546E36B69
:105190000220DB6898472DB184F83460E06B20F082
:1051A0003CFE78E741462046FFF78AF96428054629
:1051B00004D141462046FFF783F90546636C143B52
:1051C000D5B9226A204602FB03F620F064FCA369ED
:1051D000043303449E4203D284F834505A25DDE759
:1051E0000123D4E900010C4A84F8343013680133F8
:1051F000136020F0FBFFD1E7002384F83430CDE7C3
:105200005D2548E7592546E75A2544E75F2542E7EB
:105210005B2540E7E4110020E01100202DE9FF416B
:105220000C4616461F46054680B390F834307BB3D3
:10523000B1F5801F2ED2DFF86080012120F054FCF0
:105240002146424628460DF10F03FFF753F8044666
:1052500070B99DF80F30012B11D1D8F81030BB4236
:1052600012D10246009031462846FFF755FB04460E
:10527000E86B20F0D2FD204604B0BDE8F081022B9F
:1052800014BF2D246024F3E76324F1E72124F2E71F
:105290001124F0E72924EEE7AC1800202DE9F043B3
:1052A00085B00C4617461E460546DDF8308098B39B
:1052B00090F8343093B3B1F5801F31D2DFF86490A9
:1052C000012120F011FC21464A4628460DF10F032A
:1052D000FFF710F8044688B99DF80F30012B14D160
:1052E000D9F8102006EB08039A4213D300904346E6
:1052F000324639462846FFF70FFB0446E86B20F09C
:105300008CFD204605B0BDE8F083022B14BF2D2490
:105310006024F3E76324F1E72124F2E71124F0E7A6
:105320002924EEE7AC1800202DE9F3411F460023A5
:105330000C46164605463B6050B390F834304BB3EC
:10534000B1F5801F28D2DFF85480012120F0CCFB7A
:105350002146424628460DF10703FEF7CBFF0446DF
:10536000A0B99DF80730032B10D0022B0AD10123DE
:10537000336004233B60E86B20F04FFD204602B011
:10538000BDE8F081D8F810303060F3E72D24F2E763
:105390002124F3E71124F1E72924EFE7AC180020DA
:1053A00073B50446056B20F076FB636E03449D42A3
:1053B0002CBF00230123854294BF00252D1A207C99
:1053C00084F85030656584F85800A8B100230C4E6D
:1053D0001A4619462046009620F04AFE002305464C
:1053E0001A4619462046009620F04BFEE3682844F2
:1053F000984294BF0020C01AE06502B070BD00BFA3
:10540000FFFF0F002DE9F3471E4643690446B342F0
:10541000884617469DF828904ED300258DF80750F2
:10542000204620F038FBD4F830A082450AD2236A07
:10543000B5EB430F06D2002220460DF10701FFF71E
:105440008BF9B8B39DF80730012B05D10022204617
:105450000DF10701FFF780F9B9F1030F06D03146CE
:10546000204620F008FB256B854227D3144D4FF0D2
:10547000FF31284600F070F94B46294600222046AD
:10548000C5E90376C5F80080FFF734FB236E0546B7
:1054900063B12046FFF784FF94F8503013B994F8B5
:1054A00058301BB1236E04F150009847284602B0D3
:1054B000BDE8F0870135B3E76225F7E71C25F5E77E
:1054C000801800202DE9FF410F4690461E460546F4
:1054D00098B390F8343093B3B1F5801F31D21A4CA1
:1054E000022120F001FB2246394628460DF10F0328
:1054F000FEF700FF024678B1012342460093394689
:1055000033462846FFF77EFF0446E86B20F085FC13
:10551000204604B0BDE8F0819DF80F30012BEBD19F
:105520002169B142E8D10093414633462846FFF74E
:10553000F3F904460028DFD1E7E72124E8E7112446
:10554000E6E72924E4E700BFAC18002030B50C469C
:10555000054685B028B390F8343023B3B1F5801FE9
:1055600023D2022120F0C0FA0DF10F032146284674
:105570000F4AFEF7BFFE034688B99DF80F20032AA5
:105580000DD003222146009202462846FFF73AFF3B
:105590000446E86B20F041FC204605B030BD2D24C8
:1055A000F7E72124F8E71124F6E72924F4E700BF00
:1055B000AC1800202DE9F043466886B3056898468C
:1055C0004FF0000CA946AE4655F83C400CF1010CDA
:1055D000C4F31307013401D0B94217D066450EF168
:1055E000080EF1D12F46002403E0A64207F1080778
:1055F00012D055F8343001340133F6D1C1F3130120
:1056000041EA0851C7E90012BDE8F08341EA0851B8
:10561000CEE90012BDE8F083B8F1030F03D10123F6
:105620000372BDE8F083002303E09E4209F10809FC
:10563000F5D055F833400133C4F30754032CF4D1AB
:10564000C1F3130343EA0853C9E90032BDE8F0830C
:105650002DE9F0410646406882B0C0B10F46904641
:105660000024336853F8345003EBC403C5F30752E6
:10567000C5F31301013504F1010406D05B6830461F
:10568000CDF80080B84710B170688442E9D302B009
:10569000BDE8F081024B1968024B1868FFF7F0BCB7
:1056A000F42B0020142C002008B52FF03EFD014BF8
:1056B000186008BDD8180020014B18682FF030BDC5
:1056C000D818002073B504462248012A00EAC11107
:1056D0009DF8185023F07C4007D9961E012E28D93A
:1056E000073303F07F03194308E09DF81C300A4399
:1056F000DB0603F0C053134343F060410023C4E9C9
:1057000000108DF80730B5B1202221460DF10700B9
:1057100020F088FE1A220DF10700211D20F082FEE4
:10572000082063689DF8072043EA8263636002B043
:1057300070BD1143E2E71B220DF10700214620F066
:1057400071FE23689DF80720042043EAC2632360AA
:10575000EDE700BF80FFFF0738B5094B0D461A681B
:10576000002104462EF06EF800234FF0FF32238311
:10577000C4E900252361A260E382A37638BD00BF9F
:105780007C5E04080138C0B205289ABF014B185C42
:1057900001207047815E04082DE9F0410746154657
:1057A00000240E46596888B0490A012922464FEA6A
:1057B000510104F10104F8D8DC78997824031B889E
:1057C000C90201F4006104F480540C43C3F30A03DA
:1057D0005203234492B24FF000089C18274B6FEA03
:1057E0000444039325F07843ED4302A90DF107002B
:1057F0001B2202938DF8078020F014FE9DF80720ED
:10580000029B02A943EAC2630DF107001B2225F0A7
:105810007845049302958DF8078020F003FE9DF8EB
:105820000720029B6FEA144443EAC26305934FF0DA
:10583000FF330794069307A9BB69012206F1100004
:105840009847BB6905A90446012206F1080098475C
:10585000BB69404518BF044604A90122301D984782
:105860000122404518BF0446BB69304603A998474A
:10587000404508BF204608B0BDE8F08101009AB25B
:10588000044BD3F88420D206FBD4D3F88400C0F3B1
:10589000811070470040005038B5174B0546D3F8CB
:1058A00028310C4603F00703013B052B20D8DFE825
:1058B00003F003131B0F0B172EF0DAF9052305B1C4
:1058C000286004B1236038BD2EF0D2F90623F6E734
:1058D0002EF018FA0723F2E72EF00AFA0323EEE778
:1058E0002EF006FA0423EAE72EF0FEF90223E6E79B
:1058F00000231846E3E700BF00800050002337B5BF
:105900000193164B0546D3F820320C4603F00703EB
:10591000042B21D8DFE803F0030B11161B00012331
:105920000DB1019A2A6004B1236003B030BD00219B
:1059300001A8FFF7B1FF1223F2E72EF0E3F90723E6
:105940000190EDE72FF0E6FB0A230190E8E72EF047
:1059500021FA09230190E3E70023E1E700800050EA
:1059600038B5104B0546D3F880300C4603F00303DE
:10597000022B0BD0032B0DD0012B0FD12EF07EF973
:105980000E2305B1286004B1236038BD2EF0BAF9AA
:105990000723F6E72EF06CF90623F2E700231846FA
:1059A000EFE700BF0080005038B5104B0546D3F834
:1059B00000310C4603F00303022B0BD0032B0DD058
:1059C000012B0FD12EF094F9032305B1286004B107
:1059D000236038BD2EF0DEF90923F6E72EF08EF9AC
:1059E0000823F2E701230020EFE700BF008000500A
:1059F00038B5184B0546D3F820010C4600F00700D7
:105A0000062823D8DFE800F0040A0E16121A1E003A
:105A1000012305B1286004B1236038BD2EF028F9B8
:105A20000523F6E72EF064F90323F2E72EF06AF976
:105A30000723EEE72EF058F90223EAE72EF018F9D3
:105A40000623E6E72EF054F90423E2E70023184684
:105A5000DFE700BF0080005038B5104B0546D3F893
:105A600040310C4603F00303022B0BD0032B0DD067
:105A7000012B0FD12FF04EFB0A2305B1286004B192
:105A8000236038BD2EF086F90923F6E72FF045FB99
:105A90000C23F2E701230020EFE700BF0080005055
:105AA000002337B50193164B0546D3F860320C46F8
:105AB00003F00703013B032B1FD8DFE803F0020EBE
:105AC0001914002101A8FFF793FF10230DB1019ACB
:105AD0002A6004B1236003B030BD002101A8FFF7A4
:105AE000BBFF1123F2E72EF00DF907230190EDE73C
:105AF0002EF0FAF802230190E8E70023E6E700BF62
:105B000000800050002337B50193164B0546D3F8AB
:105B100094320C4603F00703013B032B1FD8DFE848
:105B200003F0020E1914002101A8FFF761FF1023F2
:105B30000DB1019A2A6004B1236003B030BD002189
:105B400001A8FFF789FF1123F2E72EF0DBF8072306
:105B50000190EDE72EF0C8F802230190E8E700235A
:105B6000E6E700BF0080005038B5104B0546D3F87B
:105B700060310C4603F00303022B0BD0032B0DD036
:105B8000012B0FD12FF0C6FA0A2305B1286004B10A
:105B9000236038BD2EF0FEF80923F6E72FF0BDFA9A
:105BA0000C23F2E701230020EFE700BF0080005044
:105BB0002E4B98424AD022D82D4B984240D014D830
:105BC0002C4B984239D00AD82B4B984232D02B4BD1
:105BD00098422FD02A4B98422CD000207047294B56
:105BE0009842FAD1284B186F7047284B98422AD018
:105BF000274B9842F1D1244BD3F880007047254BB6
:105C000098422BD009D8244B984223D0234B98425A
:105C1000E3D11D4BD3F88C007047214B984221D023
:105C200003F5740303F510539842D6D1164BD3F8FD
:105C300098007047144B986D7047134B586E70471F
:105C4000114B586F7047104B986F70470E4BD3F83D
:105C5000840070470C4BD3F8880070470A4BD3F888
:105C600090007047084BD3F8940070470048E80153
:105C70000024F400C0CF6A0080841E0000093D00AB
:105C800040420F00405DC6000080E00FC0EA2101E5
:105C900080BA8C01007E560380D54302006CDC0282
:105CA0000090D00373B50D460021114B0191D3F83C
:105CB0008041064604F00304022C13D0032C0CD0C0
:105CC000012C13D101A8FFF793FE10240EB1019B04
:105CD000336005B12C6002B070BD2EF013F80724BC
:105CE0000190F3E72EF000F80190EFE70C46EDE7A6
:105CF0000080005038B5104B0546D3F840320C46B2
:105D000003F00303022B0BD0032B0DD0012B0FD17B
:105D10002FF000FA0A2305B1286004B1236038BDD2
:105D20002EF038F80923F6E72FF0F7F90C23F2E705
:105D300001230020EFE700BF0080005038B5144B6E
:105D40000546D3F800020C4600F0070004281BD8D3
:105D5000DFE800F003090D111500012305B12860EB
:105D600004B1236038BD2FF0D5F90A23F6E72EF0F1
:105D700011F80923F2E72FF0D0F90C23EEE72DF00C
:105D80009DFF0F23800AE9E700231846E6E700BFDE
:105D90000080005038B5144B0546D3F808020C4675
:105DA00000F0070004281BD8DFE800F003090D11FC
:105DB0001500012305B1286004B1236038BD2FF020
:105DC000A9F90A23F6E72DF0E5FF0923F2E72FF002
:105DD000A4F90C23EEE72DF071FF0F23800AE9E709
:105DE00000231846E6E700BF00800050B0F5207F92
:105DF0001FD009D8B0F5007F15D003D868B1B0F531
:105E0000C07F0AD000200CE0B0F5607FFAD10B4BC8
:105E1000D3F88000C0F3011003E0084B186FC0F303
:105E2000033001307047054BD3F89000C0F3046095
:105E3000F7E7024B186FC0F38020F2E700800050B4
:105E400002464FF48030104B10B598660020FFF7E3
:105E5000CDFF504341F671320C4BDC69DA635A686E
:105E600004F4803422F4401259B90949884294BF9D
:105E700000200120000502435A600CB10022DA63C1
:105E800010BD0449F2E700BF00900050000003502D
:105E9000005A6202002D3101430905D0012B0CD0BC
:105EA000022B084B18BF002300F01F0039B103F587
:105EB0008053012282401A607047034BF4E703F5D8
:105EC0000053F6E768800050648000501FB5002141
:105ED000B0F5807F0446CDE9001100F0D2803AD8B9
:105EE0005E2833D85E2833D8DFE800F045323232FE
:105EF0003232323232323232323232323232323282
:105F000032323232323232323232323245AC45AC57
:105F1000BCBCBCBCBCACC64E6BDC4EACACAC323218
:105F2000323232323232ACACAC7EE6AC3232323269
:105F3000323232323232323232BC454545E14E4E97
:105F4000EB8D63C132323232329E4500802870D0F0
:105F5000009804B010BDB0F5D06F00F0A38035D824
:105F6000B0F5607F79D01AD8B0F5007F65D005D83C
:105F7000B0F5C07FECD12DF0A1FE5CE0B0F5207F44
:105F800060D0B0F5407FE3D12DF098FE02464FF48B
:105F90002070FFF72BFFB2FBF0F252085BE0B0F588
:105FA000B06F69D00AD8B0F5806F5BD0B0F5A06F44
:105FB000CED100216846FFF7A1FCC9E7B0F5C06F5C
:105FC000C6D100216846FFF747FDC1E7B0F5106F65
:105FD0006DD00ED8B0F5086F78D0B9D8B0F5E06FB5
:105FE0006AD0B0F5F06FB3D100216846FFF7BCFD71
:105FF000AEE7B0F5406F3AD013D8B0F5206F60D05F
:10600000B0F5286FA4D10021324B0391D3F8703240
:1060100003F00303012B02D103A8FFF71DFD039B2F
:1060200039E0B0F5486F93D100216846FFF76AFD6B
:106030008EE72DF023FE00908AE72DF01FFE02462A
:10604000204604E02DF03AFE02464FF42070FFF7A0
:10605000CDFEB2FBF0F200927AE701A8FFF780FCD8
:10606000019AEDE700216846FFF7C2FC70E70021C6
:106070006846FFF711FC6BE700216846FFF712FE48
:1060800066E74FF0E02302911B695B0705D52DF011
:1060900015FE0290029B00935AE703A902A8FFF79E
:1060A000DBFCF7E700216846FFF748FE50E70021D8
:1060B0006846FFF76FFE4BE700216846FFF71AFEC0
:1060C00046E700216846FFF7EBFC41E76846FFF72B
:1060D0006BFC3DE70080005008B58020FFF7F6FE1E
:1060E000034B98429EBF4FF48032024B1A6708BDA3
:1060F000005A620200A000501FB503460020B3F50D
:10610000807F019000F0C58065D85D2B56D84C2B60
:1061100007D82D2B48D8232B2CD8019805B05DF833
:1061200004FB4D3B102BF8D801A252F823F000BF1E
:10613000896201081B6101081B6101081B610108DC
:10614000376201081B6101081B610108E362010855
:1061500055620108FB610108D96201081B61010851
:106160001B6101081B6101081B6101081B6101081B
:10617000ED620108243B092BCFD801A252F823F08D
:10618000896201088962010889620108896201083F
:10619000896201081B6101087F6201081B61010817
:1061A00017620108BF6201083D2B00F083803E2B7F
:1061B000B3D1002001A9FFF79DFDAEE7802BACD144
:1061C000504B1B6F03F00703013B032BA5D8DFE8FF
:1061D00003F0544D5052B3F5F06F6BD020D8B3F5A7
:1061E000B06F4CD00ED8B3F5607F71D095D3B3F5B6
:1061F000806F49D0B3F5A06F8FD1002001A9FFF7C0
:106200007DFB8AE7B3F5D06F59D0B3F5E06FD0D0FE
:10621000B3F5C06F81D1002001A9FFF71DFC7CE719
:10622000B3F5206F5DD00BD8B3F5086F4CD0B3F544
:10623000106F7FF472AF002001A9FFF7ABFD6CE790
:10624000B3F5406F48D0B3F5486F4FD0B3F5286F22
:106250007FF463AF2B4BD3F8703203F00303012BB1
:1062600049D0022B0CBF1523002300E00523019326
:1062700053E70323FBE70823F9E70223F7E70020AE
:1062800001A9FFF70FFD48E7002001A9FFF7B0FBC8
:1062900043E74FF0E02302901B695B0705D52DF023
:1062A0000DFD0D230393039BE1E703A902A8FFF76C
:1062B000D3FBF8E7002001A9FFF756FC2DE70020EB
:1062C00001A9FFF73BFD28E701A9FFF76DFB24E7D4
:1062D00001A9FFF745FB20E7002001A9FFF7DCFA41
:1062E0001BE7002001A9FFF7DBFB16E7002001A94F
:1062F000FFF708FC11E7002103A8FFF7ADFB11230E
:10630000B5E700BF008000504FF48032074B0849CA
:10631000586E03F580535A664B6A23F001034B62B3
:10632000C3035CBF034B5A66704700BF0080005038
:1063300000C0075000A0005008B5FFF7DDFE092897
:1063400011D00A38012802D94FF6FF7008BD4FF46A
:106350008002064B5A6603F5D8335B6ADB07F3D538
:106360004FF4FA70F2E7024B1888EFE70090005004
:10637000042E002008B5FFF7BFFE03280ABF024B1A
:106380004FF6FF70188808BD022E002038B504466D
:106390008020FFF7B1FE032800F083804FF48012C5
:1063A000524B4FF0A0615A6645F60E02504BC3F8AF
:1063B0008020504A91624FF4803102F58052916200
:1063C0009A6DD203FCD4996D11F08041FBD1D4E9D0
:1063D0000002120542EA0062E07B0243207B42EAAF
:1063E0000042607B42EA0032A07B42EA80121A61DE
:1063F0009869D4E90452120642EA856200F000402E
:106400000243A07EE57E0243207E42EA0042607E97
:1064100042EA00229A611A6AE06922F00F0242EA17
:106420008502354D00283DD11A6294F82420996ADE
:1064300094F82000D200294042EA40120A4394F81E
:10644000211042EA011242F480329A622B49284A12
:10645000936D31EA0303FBD14FF0807125488162CF
:106460001369A56823F4700343EA055313614FF0E1
:106470000043836194F822300BB9214B996294F860
:1064800023303BB94FF480321D4B9A62184A936D0A
:106490005B00FCD494F825301BB1154B194AC3F8A6
:1064A000802038BD024342F0080202281A6208D157
:1064B00019614FF40852996113484FF47F411FF05E
:1064C000CFFF0B4994F822308A6A94F820001B060B
:1064D0002A4043EA4013134394F8242043EAC203BA
:1064E00094F8232043EA02438B62D3E700900050E4
:1064F0000040005A0050005AC7FFFEFE0300010092
:106500000060005AF1A7FFFF3440005A014B93F995
:10651000000070471A2E0020F0B5D0E901434FF477
:1065200000061A4A4178057856664FF4D15602277C
:1065300002F5B8325662164E4F2977604FF00107C8
:1065400028BF4F2106F5805677601669F603FCD404
:1065500041EA052151611B01417B43EA04230B43BE
:10656000017B43EA41039360C37B817B1B0143EAC8
:106570004113417C0B43017C43EA41035360837C1C
:1065800013B16FF4D1535362F0BD00BF00900050BF
:1065900000100250014B1880704700BF042E0020ED
:1065A000014B1880704700BF022E00204FF480027C
:1065B00008B5184B5A660223174A5360936813F4C0
:1065C0008033FBD1012822D12DF092FB134B98424E
:1065D00015D003F5122303F5F863984213D0104B3E
:1065E00000EB8002400AB3FBF0F3520A0A49CA6288
:1065F0000B6301234B620022074B5A6008BD45F62E
:106600007A13084AF2E745F61A03074AEEE753629F
:10661000F1E700BF009000500040025000F0490236
:1066200064666666D8B80500BBCF0500B0F5207F6C
:1066300010B50C465DD008D8B0F5007F4ED003D819
:10664000C0B1B0F5C07F15D010BDB0F5607FFBD1F3
:106650002C4B4C1ED3F8FC202B4912F0807F4FEAC4
:10666000041427D1D1F8803023F030032343C1F83C
:106670008030E9E71FF003FF1FF00FFF4FF4803178
:10668000224B214A1967136F013C23F4704343EAFC
:10669000043313672DF012FB0446FFF7F1F8C0F145
:1066A000020120461FF0F3FE00F04AF8BDE810405A
:1066B000FFF712BDD3F8FC2022F08072C3F8FC2053
:1066C000D1F8802022F030022243C1F88020D3F894
:1066D000FC2042F08072C3F8FC20B5E70A4A4C1E49
:1066E000D2F8903023F0F85343EA0463C2F89030B4
:1066F000AAE7054A4C1E136F23F4806343EA842300
:106700001367A1E700ED00E000800050009000500A
:1067100008B50121022000F073F94FF42070FFF753
:1067200065FB054B18701FF0AAFE1FF0B6FE4FF474
:106730008032024B1A6708BD90280020009000505C
:1067400008B54FF4C070FFF7C1FBBDE8084004492D
:10675000884294BF012102214FF42070FFF766BFE9
:1067600080F0FA0238B504462DF0A8FA0546FFF786
:1067700087F8C0F1020128461FF089FE01210020A0
:1067800000F07EF92CB1FFF7DBFFBDE83840FFF7E2
:10679000A3BC034B4FF420701978FFF747FFF4E7D1
:1067A000902800204FF4C02270B50546FFF700FA8C
:1067B000314B04465A6603F598335A68012A04D1CE
:1067C0002E494A605A689207FCD48020FFF794FC57
:1067D000052807D11FF053FE1FF05FFE4FF48032F3
:1067E000254B1A67264B24F040749D4230D0254B30
:1067F0009D4230D02DF03CFA8542064603D9012156
:10680000284600F03DF9204BDA6812F0060FFBD164
:1068100099689C609A68624012F4F81F1ED128465D
:10682000FDF75CF88020FFF767FC05280DD12DF0FF
:1068300045FA0446FFF724F8C0F1020120461FF094
:1068400026FEFFF77DFFFFF747FCAE420CD270BD7E
:1068500044F00074CEE744F08074CBE78020996068
:10686000FFF74AFC052805D0BDE870400121002053
:1068700000F006B93546DAE70090005000E001501C
:1068800040420F0080841E0000000150304B314A0E
:10689000984251D020D8A3F5B703A3F55863984286
:1068A00046D00DD82C4B984231D02C4B984239D041
:1068B0002B4B4FF4002198421DD00023516622E05B
:1068C000284B4FF400219842F7D1274BD3F8BC3026
:1068D000516623F0407316E0244B984230D0244B8D
:1068E000984231D0234B4FF400219842E5D11E4B02
:1068F000D3F8C830ECE71C4BD3F8A030516623F036
:10690000407343F000734FF0B442936070474FF40C
:106910000021154BD3F8A030516623F0407343F0AB
:106920008073F0E7104BD3F8A0304FF40021CFE78D
:106930000D4BD3F8B830F8E70B4BD3F8C030F4E781
:10694000094BD3F8CC30F0E7074BD3F8D030ECE765
:10695000C0EA21010090005080841E0000093D0023
:1069600040420F000024F4000080E00F0048E801DE
:10697000005A620280BA8C01024A536B0342FCD176
:10698000704700BF00400950044A4178536F23F418
:10699000407343EA01235367704700BF0040005033
:1069A0000E4A10B51369044643F0040313612DF039
:1069B000D5FF1FF077FD0A4B5B6E5B0142BF094BB1
:1069C000094AC3F8202430BF1FF06DFD03F09EFB81
:1069D0001CB9BDE810402DF071B910BD00ED00E00C
:1069E0000080005000E003500000FF0F034A0179CF
:1069F000D36E23F030030B43D36670470040005042
:106A0000F8B504461C4BD3F88420D106FBD4D3F848
:106A10008430C3F381139C422CD02DF02FF9012C2C
:106A2000064602D121461FF032FD2EF07EFB4FF0CC
:106A30000072124B07465A6620461FF037FD4FF48E
:106A400080630D4D621E93402B676B6E9A0103D4D9
:106A5000D5F884309B060AD538462EF061FB022C0F
:106A600008D13046BDE8F84000211FF010BDD5F830
:106A70008430EAE7F8BD00BF0040005000600050DD
:106A800010B50C4608B92DF0F9F8074B21461B78D4
:106A90003BB1064B984204D80120BDE81040FFF7F7
:106AA000AFBF0220F9E700BF91280020005A620220
:106AB0000278034B012100201A70FFF7E1BF00BFED
:106AC000912800204FF0004238B5244B244C5A66E0
:106AD0004AF6CD33656C014605F00105236428BBF9
:106AE0000120FFF749FF6368DB0715D51D4B586090
:106AF00008461D4B226BD2070CD4984208D10724BC
:106B000015B1174B194A1A6429F024FE204638BDE6
:106B10000130EFE79842F2D00024F1E70132236B15
:106B200013F0080305D08A42F8D1E8E700220E49A5
:106B3000F5E78A42E3D020210A4A91620121A2F5B9
:106B4000805251600649084A886A800603D49342FD
:106B5000D5D00133F8E79342DDE700BF0090005045
:106B6000004009500060095040420F003254FFFFBE
:106B70004FF0004238B5164B01465A664AF6CD33FF
:106B8000144C154A656C236443780B205B0043F07A
:106B90000103D363FFF7F0FE63688A7823F4F87388
:106BA00043EA02136360CA784B7943EA0223A36085
:106BB0000A798B7943EA022323610878FFF782FF81
:106BC000EB0744BF054B236429F0C4FD012038BD09
:106BD0000090005000400950004000503254FFFF28
:106BE0004FF00042124B70B55D6E03F580535A664C
:106BF0004AF6CD3304460F4980204E6C0B64FFF7F4
:106C0000BBFE0B6A23F00F030F2C94BF234343F00A
:106C10000F030B62F30744BF074B0B64002DA2BFA9
:106C20004FF00042054B5A6629F094FD70BD00BF3D
:106C300000800050004009503254FFFF00A0005077
:106C40004FF00042104B70B55D6E03F580535A66ED
:106C50004AF6CD3304460D4980204E6C0B64FFF795
:106C60008BFE0B6A23F4F85343EA04230B62F30709
:106C700044BF074B0B64002DA2BF4FF00042054BF1
:106C80005A6629F067FD70BD008000500040095031
:106C90003254FFFF00A0005010B51FF00CFC04237D
:106CA00000F5805100F500520B6113610B61136117
:106CB0000B6113610B611361202341F20201036137
:106CC0000023C360836041614FF4A0218361836529
:106CD00041620549C36103628362C3624363036522
:106CE000D164036310BD00BFFF3F0D0370B50546BF
:106CF0001446084641B9354B9D4218D0344B9D424D
:106D000008BF5720FFF7E2F8AB6813F0010F6B687C
:106D100030D0B0FBF4F4D80704F1FF344FEA046438
:106D200007D42B6923F07F4323432B6170BD56208A
:106D3000E8E7282128461FF0BAFBAB6C990715D16C
:106D4000AB6CDA0714D4AB6C13F0020F14BF062639
:106D5000002628461FF0AFFB2B69314623F07F4306
:106D600023432B61BDE870401FF0BFBB0526F0E751
:106D70000926EEE7AB6DDB07AB6848BF640003F0A4
:106D8000E003402B1BD004D8DBB1202BCED108234D
:106D900004E0602B17D0802BC8D10123634341014D
:106DA000B1FBF3F20B4B203A284603EAC202012161
:106DB0001FF07DFB2A63BDE870401FF078BB0623FF
:106DC000ECE71023EAE70423E8E700BF0000015BDB
:106DD00000000A50F8FF7F00F8B5436804460E46ED
:106DE0000D691BB140F6FF711FF061FB2046FFF7F4
:106DF00053FF2269737BB17B22F087020B4313435D
:106E000043F080032361E5B9A368F27B23F0030319
:106E1000134343F00103A3606369327B23F00F0344
:106E2000134363612046D6E90112FFF75FFF204656
:106E300031781FF05AFBA36CDB4313F4405FFAD1A7
:106E4000F8BD2369297F23F0F80343EAC1132978A9
:106E5000EA7B0B43297943EA4113697A43EA011338
:106E600043EA82132361E068D5E9053720F0F0405A
:106E70003B4320F470200343287B697B43EA802353
:106E800043EAC133E360A368F07B23F003030343C9
:106E900043F00103A3606B88A06803F4C04303437D
:106EA000A360A368687943EA8023A360AB79EF7994
:106EB000606A1B013F0203F0700307F4E06720F4EF
:106EC000772020F4EE603B430343287A000300F46C
:106ED000E0400343687F000400F4702003436362D2
:106EE0006369307B23F00F03034363616B89A36104
:106EF00009B3164B9C420CD1AB7B154903F00F0331
:106F00004B67002A8ED02B7C114A03F00F031367C6
:106F100088E7104B9C4285D1AB7B0D4903F00F03F2
:106F2000C1F88030002A3FF47DAF2B7C084A03F083
:106F30000F03D36776E7002A3FF474AF034B9C42FC
:106F4000E1D0044B9C42F0D06CE700BF0000015B35
:106F50000090035000000A502DE9F04105460F460D
:106F60001E4690464AB101233022194C8B4002FB49
:106F7000004436B304F5825423600F21072F05EB3C
:106F8000450388BFA7F108044FEA0313114895BFD2
:106F9000BC00A40004330C3308FA04F2A1401844E6
:106FA0001FF0CFFAB8F1000F09D101233021084AB0
:106FB000BB4001FB05223EB102F582521360BDE8E1
:106FC000F08104F50154D7E702F50152F6E700BF5E
:106FD00000C0035030C0035010B5152002F0C4F9B2
:106FE0000024FF22064B21465C6520209A625C60EB
:106FF000FEF752FF2146BDE810402120FEF74CBFAE
:1070000000000450044A054B002908BF1346012222
:1070100082401A60704700BF401004504020045066
:1070200010B5012104462020FEF736FF0121212062
:10703000FEF732FF0122114B15205A60227812060A
:107040009A606178A27842EA01429A61FF229A62CC
:1070500000229A631A644FF000425A654FF0FF32E3
:1070600003F500531A6502F0ADF91520E17820F020
:10707000E9F9BDE81040152002F088B9000004507D
:10708000F8B50125C3B2D1F800C08F7A0E7B0C464B
:107090009D40CB7A1C491B050D65810001F1A04183
:1070A00001F58821C1F804C04FF0300C0CFB00F052
:1070B000617B00F1A04043EA074300F5802043EAEA
:1070C000465322F003020166C36502672EF036F8CC
:1070D0000E4B227A5D6502B11D64627A02B19D6336
:1070E0002279A37943EA0243074A93616179E379FC
:1070F00043EA014305498B61054B55639D64BDE837
:10710000F8402EF016B800BF0020045000100450C4
:107110000000045010B50124C0B284402EF00EF8D7
:10712000044B5A6D22EA04025A659C62BDE8104085
:107130002DF0FFBF0000045010B50124C0B2844000
:107140002DF0FCFF074BDA6A224208D15B6B9C43AF
:107150000CBF012400242DF0ECFF204610BD0024BC
:10716000F9E700BF0000045070B505462DF0E6FFBA
:107170003022084B5E6B02FB05335C6E2DF0D9FFAD
:107180000123EDB2AB4033420ABFC4F30A10002022
:10719000013070BD000004504FF48032054B9A66F8
:1071A00041F6713203F51C33DA63012203F5005313
:1071B000DA6070470090005041F671320121064BB1
:1071C000DA6303F50052D1600022DA634FF48032B3
:1071D000A3F518339A667047000003500138312830
:1071E0009ABF024B185C0020704700BF875E0408FE
:1071F00038B5C2F30625044602F0070241B942EA57
:10720000052242F440220634074B43F8242038BDBF
:10721000114628461FF0A4F902462846FFF7DEFF74
:10722000163442EA0022EFE7008003504FF4803228
:10723000064B5A6603F5E6239B69C3F385128270F9
:1072400003F03F021B0B4270037070470090005028
:10725000014B986CD96C70470080E00F0120034B04
:107260009B680A3303F01F03984070470080E00FCB
:1072700070B5054616461C4621B94FF42070FEF73E
:1072800025FE0146402C1BD003D8DCB1202C1BD09E
:1072900070BD602CFCD1042303FB06F2530803EB02
:1072A0004113B3FBF2F36021084A203B02EAC30317
:1072B00005F50052916005F580529460EB61E7E7B7
:1072C0000623E9E71023E7E70823E5E7F8FF7F0057
:1072D000012100F5805310B5596040F6AA6341F2D0
:1072E000050243610023094C8360C365C26000F559
:1072F00000520361C361C3649464054C8365A0427A
:1073000004BF03654365516010BD00BFFFFF01006E
:1073100000C0055070B50C46FFF7DAFF012300F5F9
:1073200080567360A37C05461BB1836843F080439D
:107330008360E37C4BB1234B9D4202BF227DA3F5CA
:107340001033C3F8C8218023F365228A637B284663
:107350001343E2891343EB60237BD4E90112FFF767
:1073600087FF637D1BB1AB6843F48033AB60A37DC3
:107370001BB1AB6843F40043AB60E37D227E1B0787
:10738000120502F4E00203F0E0431343AB65637EB1
:107390009A1E012A4FF0020209D80B49032BC1F8AB
:1073A000202709D10423F36523786B6170BD074959
:1073B000012BC1F82027F4E7042205F50053DA6514
:1073C000F2E700BF00C0055000D0035000E00350BA
:1073D0000122437801789A4030235943014B5A5097
:1073E000704700BF40E00350034BD3F82424D3F888
:1073F00020041040704700BF00C003502DE9F8433F
:107400001F4B0546D3F810334B1E0E2B0E46174666
:10741000047890F8018026D951B34FF0000928462E
:107420001FB32CF02BFD0F21B8F1070F04EB440420
:1074300088BFA8F108084FEA0414124895BF4FEA24
:1074400088084FEA880804340C3409FA08F201FA73
:1074500008F120441FF0B5F886B9284657B1BDE8B9
:10746000F8432CF00BBD8946D9E7FFF7B1FFDAE707
:107470008946D8E7BDE8F843FFF7AABFBDE8F8831F
:1074800000C0035030C00350054B9A689107FCD4EC
:107490005A689207F9D4DA69002AF6D1704700BF1A
:1074A00000800A50034908B54B682CF0F3FC022316
:1074B0000B6108BD00800A5008B5FFF7E5FF012207
:1074C000024B03F580514A601A6108BD00800A50E2
:1074D00008B5044B5868012803D1FFF7E3FF024BBE
:1074E000586008BD00800A5000A00A5038B5074D0A
:1074F000FFF7CAFF6B680446012B03D1FFF7E8FFD3
:10750000FFF7C2FF2378EB6038BD00BF00800A5050
:1075100010B52CF0C9FCB8B94A680B7812B11278D2
:1075200043EAC2034A7843EA42038A6812B11278F6
:1075300043EA8213CA7843EA82030A6912B11278D5
:1075400043EA4223014A936410BD00BF00800A5001
:107550004FF48032084B5A6603F5E6239B691A0BF9
:10756000027003F03F0242704FF6FF72C3F38513BF
:1075700042808380704700BF00900050014B986CA0
:10758000D96C70470080E00F70B5044629F0ACF963
:10759000064630B90FCC044D0FC594E8030085E8CA
:1075A0000300304670BD00BFDC18002047F6FF73B3
:1075B0009A42F0B56FD002296FD8394B5B5C012B32
:1075C0006BD8384DDF0005EBC30415F83330A178D4
:1075D000012B13D10025E078401AA84202D80844B4
:1075E000C0B2F0BD431B6668A0EB530336F91360CD
:1075F0009642D4BF1D4603F1FF30EEE760680028D5
:10760000EFD0B0F90040944204DBB0F9024094425C
:10761000B8BF144683883D44FF2B19BFC8224FF0E2
:10762000280CB0F90620B0F908C0A2EB04030CBF87
:107630000126002693FBFCF333446E781BB29E4276
:1076400001DD002B01DA731E1BB24FF47A7C01338B
:107650009BB2071D5D1E2DB24FEAC50E00EBC5059E
:10766000EA88AD689E4214FB025222EAE27202F1FD
:107670005C02B2FBFCF204DD37F833500133954273
:10768000E8D200EB0E039888904228BF104688424B
:1076900038BF0846A4E7FF20A3E70020A1E700BF0A
:1076A000B95E0408DC1800200229F0B555D82C4B2F
:1076B000585C012851D82B4C04EBC00114F8300061
:1076C0004B6801280FD1C8788C78904294BFC4EBE6
:1076D0000001C4EB0201001BCAB28242C8BF0022F3
:1076E00033F91200F0BD002B37D08878904202D3D6
:1076F000B3F90200F6E7CC78B3F900009442F1D96F
:107700004C789988013CA1F1FF06714203F1040510
:10771000E4B2714103F10C07CEB2B44216D805EBC6
:10772000C1014FF47A756A43B1F902404968521AAF
:1077300004EBD47102EB610292FBF4F29042D1DBD4
:10774000B3F902009042CDDC10B2CBE737F831C07C
:107750004E1C9445E3D33146DEE70348C2E700BF41
:10776000B95E0408DC1800200080FFFF08B504485B
:10777000FFF70AFFBDE80840012029F0BBB800BFB1
:10778000C05E040800487047062E00207FB5022224
:10779000084B0949CDE901234FF04073CDE90313AC
:1077A000052301A94FF0FF30059329F0FAF807B03F
:1077B0005DF804FB006A1800000304002DE9F041A5
:1077C0008CB08846DDE912761D460446002847D075
:1077D000002945D0002F43D0002E41D013F00F03D5
:1077E0003ED120482049A360002A08BF01462362F9
:1077F000C4E90013404609A91EF0BEFF68BB20463D
:1078000009992DF0D9FC294620462DF0D5FC694672
:10781000404600F0DFFA00BB694620461FF0C2F97F
:10782000404603A91FF08FF8B8B9204603A91FF0FE
:10783000B9F906970127204645F0005506A9079794
:1078400008951FF0AFF9204609A909960A970B95EC
:107850002DF0D8FC20462CF07DFB0CB0BDE8F0816B
:107860002120FAE700010004000101042DE9F041A4
:107870008CB0884616461D460446129F00284BD001
:10788000002949D0002A47D0002F45D00B68103B73
:10789000102B41D8214A22FA03F3D9073CD5002303
:1078A0001F4A8360C0E90023036209A940461EF015
:1078B00063FF70BB204609992DF07EFC29462046C7
:1078C0002DF07AFC6946404600F084FA08BB694610
:1078D00020461FF067F9404603A91FF034F8C0B9ED
:1078E000204603A91FF05EF906960126204606A948
:1078F00045F00055079608951FF054F9094B2046AE
:1079000009A909970A960B932DF07CFC20462CF0D0
:1079100021FB0CB0BDE8F0812120FAE70101010054
:107920000000040410000020F0B50C4617461E4667
:10793000054695B0002874D0002972D0002A70D076
:10794000002B6ED0036B0F2B5BD80023364A3846D2
:10795000C4E90023A360236211A91EF00DFF0028D3
:107960005BD1204611992DF027FC296B20460F2969
:1079700084BF01F00F0110312DF01EFC384602A922
:1079800000F028FA002848D1204602A91FF00AF981
:10799000384605A91EF0D7FF00283ED1204605A98C
:1079A0001FF000F90122214B089509920A932B6BD5
:1079B00005F1100003F00F0141F000510B900F2B67
:1079C0000C920D910E900F9243F00052109226D916
:1079D0000A9B08A923F0005320460A931FF0E2F8FF
:1079E0000BA920461FF0DEF80123119612930F4BCE
:1079F000204611A913932DF005FC20462CF0AAFA7D
:107A00000BE000F12003019000930122102339467E
:107A10002046FFF7D3FE002897D015B0F0BD0EA981
:107A2000DFE72120F9E700BF000004041000002078
:107A30002DE9F04F9BB00C4690461F460546DDF8F9
:107A40009090002800F0B280002900F0AF80002A5A
:107A500000F0AC80002B00F0A980026B02EB090360
:107A60001B09B3EB121F02F00F0600F097800023F2
:107A70004F4A8B60C1E900230B62404617A91EF0F4
:107A80007BFE0346002840F0858006EB090B20466C
:107A900017992BF00F0A2DF08FFB514620462DF041
:107AA0008BFB404602A900F095F90346002871D1EE
:107AB000204602A91FF076F8404605A91EF043FFB4
:107AC0000346002866D14FF00108019005A9204621
:107AD0001FF068F8374A204608A90895CDF8248099
:107AE0000A921FF05FF846F00051AAEB060605F176
