:020000040801F1
:10200000C80A0020F5490108E7770308E7770308C5
:10201000F1A60308E7770308E7770308E7770308E3
:10202000E7770308E7770308E7770308E77703080C
:10203000E7770308EC920408A1A70308E7770308F1
:10204000E7770308E7770308E7770308E7770308EC
:10205000E7770308E7770308E7770308E7770308DC
:10206000E7770308213F0108DD760308E7770308D7
:10207000E7770308E7770308E7770308E7770308BC
:10208000E7770308E7770308E7770308E7770308AC
:10209000E777030871540108E7770308E777030837
:1020A000E77703087D5001085D500108E7770308D2
:1020B000E7770308E50F03081D1B0308473C0408E6
:1020C000433C0408AD1203085D3C04084B3C040883
:1020D000ED1A03084F3C04085D1B0308C51B0308E9
:1020E000E7770308E7770308E7770308E77703084C
:1020F000BF980308E7770308E7770308E777030843
:10210000E7770308E7770308E7770308E77703082B
:10211000E7770308E7770308E7770308E77703081B
:10212000E7770308E7770308E7770308E77703080B
:10213000E7770308E7770308E7770308E7770308FB
:10214000E7770308E7770308E7770308D5800408F3
:1021500069F40208E7770308313C0408373C0408B7
:10216000E7770308E7770308E7770308E7770308CB
:10218000F0B5114A114C124E00F00105E3695F07EA
:1021900013D40DB9334213D103EA00078F4207D19C
:1021A0000B4A1A40002A0CBF00206FF00100F0BD5E
:1021B000013AEBD16FF00200F9E74FF0FF30F6E79C
:1021C0006FF00100F3E700BF809698000000035015
:1021D000020001000B4B70B5D96911F480310DD1AB
:1021E00001244FF48072084E084DF46020462C64A0
:1021F0001A61FFF7C5FF3464EC6070BD6FF0010039
:10220000FBE700BF00000350001003500020035004
:102210004FF4803238B50E4B0E4C9A66E56941F6A4
:10222000713315400122E3630B4B0021DA60022376
:10223000606121202361FFF7A3FF10B92120FFF780
:102240009FFF0122054BDA600DB10023E36338BD27
:102250000090005000000350001003500020035075
:1022600070B5134C6061E3695B071ED40E4656F8E7
:10227000043B8D18A361AE420BD104230021212021
:102280002361FFF77DFF58B9BDE870402120FFF7BB
:1022900077BF08210846FFF773FF10B104232361BD
:1022A00070BD56F8043BA361E5E74FF0FF30F7E758
:1022B000000003502DE9F84315464FF48032184BC7
:1022C00089469A6603F51C33DF690646174041F6D6
:1022D0007132DA63012203F58053DFF84C80DA6053
:1022E00055B9284601220F4BDA601FB10022A3F531
:1022F0000053DA63BDE8F88306F5005404EA0804E5
:10230000A41BAC4228BF2C46494622463046FFF764
:10231000A7FF0028E6D12644A1442D1BE0E700BF1B
:10232000009000500020035000E0FFFF000000007C
:10233000000000000000000000000000000000009D
:10234000013800D0FCE7704707B588B10BA3D3E98B
:1023500000230949C1E90223CDE900234FF0FF32F0
:102360004FF0FF33086930F066FE03B05DF804FB00
:1023700000220023EDE700BF500B00200DD50155D2
:10238000200000000348044B834202D0034B03B1FA
:102390001847704710390020103900200000000055
:1023A000064B0749C91A891048BF0131491003D0AB
:1023B000044B0BB101481847704700BF103900208B
:1023C000103900200000000010B5064C237843B9F6
:1023D000FFF7D8FF044B13B10448AFF3008001238B
:1023E000237010BDFA2800200000000008F4040843
:1023F00008B5054B1BB105490548AFF30080BDE8A2
:102400000840FFF7CDBF00BF00000000B00D002066
:1024100008F40408A3F5803A704700BF174B002B5F
:1024200008BF134B9D46FFF7F5FF00218B460F4673
:102430001348144A121A33F0B5FE0E4B002B00D08D
:1024400098470D4B002B00D0984700200021040036
:102450000D000D48002802D00C48AFF3008024F096
:10246000B7FC2000290025F0BBF824F0C3FA00BF18
:10247000000008000000000000000000C80A002062
:10248000C80A002080340020000000000000000086
:1024900037B5032001F048FE68B1344C3449206858
:1024A00027F05FFA25F023F925F022F9314A324965
:1024B000206827F056FA10220020114617F084FDFC
:1024C000054620B3294C2D49206827F04AFA2C49AB
:1024D000206827F046FA25F00AF925F009F9294B7A
:1024E000294A0093294940F20F13206827F039FA4E
:1024F00027492B46274A206827F033FA284601F05F
:102500007FFE2549206827F02CFA00BEFDE7012157
:10251000084617F06FFD044620B3144D174928688C
:1025200027F01FFA1649286827F01BFA25F0DFF874
:1025300025F0DEF8134B144A009314494FF48973C5
:10254000286827F00EFA12492346124A286827F015
:1025500008FA204601F054FE0F49286827F001FAD6
:1025600000BEFDE70D4B187003B030BD1C0F0020FE
:10257000488104084D8104085B810408AD8B040880
:102580008B810408B18D04089081040899810408A6
:10259000A8810408A5810408BD8104081D29002024
:1025A000F8B5064603200C4601F0BEFD0F4D60B1A4
:1025B0000F49286827F0D5F925F099F825F098F803
:1025C00032460C49286827F0CCF90B4F661E0F34B1
:1025D00016F8012F3946286827F0C3F9A642F7D12B
:1025E00028680649BDE8F84027F0BBB91C0F002059
:1025F00048810408CE810408D1810408AD8B040809
:102600000D4B10B59842044607D125F015F9012865
:1026100003D10A4B187001F07DF8094B9C420AD196
:10262000204625F009F9012805D1BDE81040054BE9
:10263000187001F06FB810BD949104082229002091
:102640007C9104082129002010B501F09FF9134B5B
:1026500003201B78012B11D101F066FDE0B1104C75
:102660001049206827F07DF925F041F825F040F861
:102670000D492068BDE8104027F073B901F054FD02
:1026800050B1074C0749206827F06BF925F02FF867
:1026900025F02EF80549ECE710BD00BF1E290020EB
:1026A0001C0F002048810408D68104080582040814
:1026B00038B501F041F800284FD0284B1B780BB1FA
:1026C00001F0EAFA264B1A782AB3264A12780D2A24
:1026D00021D80022244C1A7022782449B2FA82F2BE
:1026E000234852092270234601220988007814F0F9
:1026F00069F9032001F018FD68B11E4D1E492868D4
:1027000027F02FF924F0F3FF24F0F2FF22781B4981
:10271000286827F026F91A4C2378F3B1114B1B785F
:102720000D2B1AD8032001F0FFFC60B1114D1249A6
:10273000286827F016F924F0DAFF24F0D9FF1149B0
:10274000286827F00EF900232370084B1988084BDE
:102750001878BDE8384014F021B938BD232900208D
:10276000222900201D29002020290020A82800203F
:10277000E23800201C0F0020488104083182040840
:1027800021290020578204082DE9F0410368AD4A51
:1027900023F47F4323F00703934204468EB000F0F6
:1027A0001C8238D8A2F56F02934200F0B08111D894
:1027B000A2F59C02934200F02C8202F580329342F3
:1027C00000F09583A2F5A022934200F0F7800EB0AE
:1027D000BDE8F0819C4A934200F0398702F540320F
:1027E0009342F4D1994B18780328F0D1984DD4F83E
:1027F00005302B6001F098FC0028E8D0954C9649F4
:10280000206827F0AEF824F072FF24F071FF2A68E8
:102810009249206866E3924A934200F0B1817DD8E4
:10282000A2F59A02934200F0FD8202F540329342F3
:1028300000F0E883A2F580229342C8D1894E337814
:10284000002BC4D106228849053033F081FC0028D2
:10285000BDD1638B002BBAD0032001F065FC40B3DF
:102860007C4D7D49286827F07CF824F040FF24F057
:102870003FFF638BB7EE047A07EE903AF8EEE77A03
:1028800067EE877A17EE900A1FF076FB94F80980BE
:10289000A77ACDE9040163793A460393A379734992
:1028A0000293E3790193237A00932868434627F043
:1028B00058F86F4F0097A57A617AA37D41EA052108
:1028C000E27AD4F8050017F0B7FB0546002800F0BF
:1028D0000981604C6749206827F043F86649206801
:1028E00027F03FF824F003FF24F002FF634B644A13
:1028F0000093644940F24D13206827F032F8624992
:102900002B46624A206827F02CF8284601F078FC14
:102910005F49206827F025F800BEFDE75D4A934235
:1029200000F0028402F1807293427FF450AF5A4B60
:10293000B4F805201B889A427FF449AFE379257BE0
:1029400003F0EF020B2A40F06686032001F0ECFB57
:1029500078B1404E4049306827F003F824F0C7FEB4
:1029600024F0C6FE00956389E2794C49306826F070
:10297000F8FF4B4B1D704B48002D00F0488625F0AA
:1029800030F8494B1B88002B3FF421AFB4F80520E9
:102990009A427FF41CAFE3790B2B7FF418AF638965
:1029A000102B7FF414AF414A04F10C031C3453F88C
:1029B000041BA34242F8041BF9D108E73C4B1878EA
:1029C000012879D1022117F015FB054620B3214CCF
:1029D0002849206826F0C5FF2749206826F0C1FF56
:1029E00024F085FE24F084FE244B254A00932549DB
:1029F00040F22D13206826F0B4FF23492B46234ACA
:102A0000206826F0AEFF284601F0FAFB2049206836
:102A100026F0A7FF00BEFDE7032001F085FB00289C
:102A20003FF4D5AE0B4C0C49206826F09AFF24F0F9
:102A30005EFE24F05DFE1F4920680EB0BDE8F04147
:102A400026F08FBFA0004201A00006011D29002032
:102A5000C80D00201C0F002048810408C48604080B
:102A6000A00053021F290020EF8D0408DE82040815
:102A700048380020AD8B04088B810408C08D040801
:102A80009081040899810408A8810408A58104089C
:102A9000BD810408A0000906A8280020B18C040804
:102AA00020290020AC910408A6280020FC28002042
:102AB0001E2900209D820408032001F035FB60B12F
:102AC000B24CB349206826F04CFF24F010FE24F0ED
:102AD0000FFEB049206826F044FF0EB0BDE8F0417B
:102AE000FFF7D6BC032001F01FFB68B1A74CA84933
:102AF000206826F036FF24F0FAFD24F0F9FD3A882C
:102B0000A549206826F02DFF012333705FE60320DE
:102B100001F00AFB60B19D4D9D49286826F021FF18
:102B200024F0E5FD24F0E4FD9C49286826F019FF17
:102B3000032001F0F9FAF0B1944D9549286826F088
:102B400010FF24F0D4FD24F0D3FDB4F80F30B7EE1D
:102B5000047A07EE903AF8EEE77A67EE877A17EE96
:102B6000900A1FF009FA0B46A17B024600912868E3
:102B70008B4926F0F6FE0EB0BDE8F04117F04EBAD4
:102B8000C37A032B7FF623AE032001F0CDFA002891
:102B90003FF41DAE7D4D7E49286826F0E2FE24F00C
:102BA000A6FD24F0A5FD94F90730667B0293B4F9E5
:102BB0000E30B2EE047A07EE903AF8EEE77AC7EEFE
:102BC000877A17EE900A1FF0D7F9CDE90001324657
:102BD0007449286826F0C5FEF9E5032001F0A4FA3F
:102BE00068B16A4D6A49286826F0BBFE24F07FFD73
:102BF00024F07EFDA2886C49286826F0B2FE0022EF
:102C000002210120694B1A700EB0BDE8F04117F0A7
:102C1000F1B9032001F088FA60B15C4D5C49286885
:102C200026F09FFE24F063FD24F062FD60492868D1
:102C300026F097FEDFF8B88198F8001000297FF49D
:102C4000C6AD2379DB077FF5C2AD1C220DEB020078
:102C5000069133F0A7FA2023A17D06AA04F11700FC
:102C6000261D24F099FC20B93046524900F05EFF41
:102C7000ADE5032001F058FAD8B1444D4449286825
:102C800026F06FFE24F033FD24F032FD94F90D3070
:102C900049490593637906AA0493A3790393E379D9
:102CA0000293237A0193637A0093A37A286826F02B
:102CB00058FE30463F4900F039FF06223F49601D6B
:102CC00033F046FA00287FF482AD032001F02CFA9D
:102CD00060B12E4D2E49286826F043FE24F007FDF2
:102CE00024F006FD3649286826F03BFE17F096F9D9
:102CF000054620B3254C3349206826F032FE324980
:102D0000206826F02EFE24F0F2FC24F0F1FC2F4B7C
:102D10002F4A00932F4940F29D13206826F021FE90
:102D20002D492B462D4A206826F01BFE284601F02F
:102D300067FA2B49206826F014FE00BEFDE7014625
:102D4000284F0097B2797379D6F8010043EA02233D
:102D500063F30F01E27A012317F0DAF80446002842
:102D600048D0012001F0E0F968B1084D1E492868FB
:102D700026F0F7FD24F0BBFC24F0BAFC22461B49E8
:102D8000286826F0EEFDFFF783FB20E51C0F0020EE
:102D900048810408C7820408348304085083040867
:102DA0006483040885830408A98304081F2900207C
:102DB000C68304089975030811840408EF8D04087C
:102DC00064840408AD8B04088B810408C08D04085A
:102DD0009081040899810408A8810408A581040849
:102DE000BD810408E23800209A8404089F84040806
:102DF0001D2900200123032088F8003001F094F9F8
:102E000000283FF4E4ACA94CA949206826F0A9FDAC
:102E100024F06DFC24F06CFC3A78A649206826F07A
:102E2000A0FDD4E4032001F07FF960B19F4DA049DB
:102E3000286826F096FD24F05AFC24F059FC9E499F
:102E4000286826F08EFD032001F06EF960B1974DE1
:102E50009749286826F085FD24F049FC24F048FCB9
:102E60009649286826F07DFD032001F05DF988B1C0
:102E70008E4D8F49286826F074FD24F038FC24F02C
:102E800037FCB4F805208E4902EB820328689B08C2
:102E900026F067FD032001F047F970B1834D8449A6
:102EA000286826F05EFD24F022FC24F021FCB4F812
:102EB00007208449286826F054FD032001F034F9E6
:102EC00000283FF484AC794D7949286826F049FD03
:102ED00024F00DFC24F00CFC0A22B4F809307A49E5
:102EE0005A4328680EB0BDE8F04126F03ABD0320F1
:102EF00001F01AF960B16D4D6D49286826F031FD79
:102F000024F0F5FB24F0F4FB7049286826F029FD35
:102F1000237B6F4D6F4E2B7002230320337001F023
:102F200003F9C0B1614F6249386826F01AFD24F0F8
:102F3000DEFB24F0DDFB2379674904936379039377
:102F4000A3790293E3790193237A0093637A2A7831
:102F5000386826F006FD032001F0E6F890B1534FE3
:102F60005349386826F0FDFC24F0C1FB24F0C0FB77
:102F7000E17A5A4A5A4B3868002908BF1A4659491B
:102F800026F0EFFC0320307001F0CEF860B1474C22
:102F90004749206826F0E5FC24F0A9FB24F0A8FBB3
:102FA0005149206826F0DDFC287810214F4A13F0A3
:102FB000A3FC054600283FF40AAC3C4C4C49206871
:102FC00026F0CFFC4B49206826F0CBFC24F08FFB89
:102FD00024F08EFB484B494A009349494FF4E7736C
:102FE000206826F0BEFC47492B46474A206826F059
:102FF000B8FC284601F004F94449206826F0B1FCE9
:1030000000BEFDE7334B1B78042B18D1827943793E
:103010003F4D43EA022303202B8001F085F800286E
:103020003FF4D5AB214C2249206826F09AFC24F0CD
:103030005EFB24F05DFB2A883649FFF7EABB082BCC
:1030400018D182794379344D43EA022303202B803F
:1030500001F06AF800283FF4BAAB144C1449206818
:1030600026F07FFC24F043FB24F042FB2A882B4906
:10307000FFF7CFBB0A2B7FF4AAAB82794379284DA7
:1030800043EA022303202B8001F04EF800283FF48E
:103090009EAB064C0649206826F063FC24F027FB13
:1030A00024F026FB2A881F49FFF7B3BB1C0F002022
:1030B00048810408D7840408148504085B85040843
:1030C00081850408B6850408D8850408FD850408B0
:1030D000E23800201D29002040860408958204085B
:1030E0008A8204088786040896860408DF8D04080F
:1030F000AD8B04088B810408C08D040890810408FE
:1031000099810408A8810408A5810408BD810408E8
:10311000A8280020ED860408A62800202E87040891
:10312000A42800206F870408B0F8055095B101204D
:1031300000F0FAFF00283FF44AABB14CB1492068D7
:1031400026F00FFC24F0D3FA24F0D2FA2A46AE4936
:10315000FFF75FBBAD4D2B78033B092B3FF6E7AB89
:10316000DFE813F00A004E007F006C009200B4000C
:10317000E300A601D3014202042303202B7000F0D8
:10318000D3FF60B19E4DA249286826F0EAFB24F0E7
:10319000AEFA24F0ADFA9F49286826F0E2FB9E497A
:1031A0009E4810229E4B0968007813F0B9FB054633
:1031B00000283FF4BCAB924C9A49206826F0D1FB22
:1031C0009949206826F0CDFB24F091FA24F090FA7A
:1031D000964B974A0093974940F20523206826F0C2
:1031E000C0FB95492B46954A206826F0BAFB284635
:1031F00001F006F89249206826F0B3FB00BEFDE717
:1032000006232B708F4B02221988844B187813F0F9
:103210009FFB032000F088FF00283FF488AB784D27
:103220007B49286826F09DFB24F061FA24F060FABF
:103230008549286826F095FBFFF779BB0723032013
:103240002B7000F071FF00283FF471AB6C4D70499A
:10325000286826F086FB24F04AFA24F049FA7B49D4
:10326000E7E7072303202B7000F05EFF00283FF400
:103270005EAB634D6649286826F073FB24F037FA8D
:1032800024F036FA7249D4E742F62A330022ADF828
:103290001830704B60491A80082360482B70022256
:1032A0000968007806AB13F03BFB032000F03CFFFD
:1032B00000283FF43CAB524D5549286826F051FB9D
:1032C00024F015FA24F014FA6349B2E7614B198827
:1032D000A1B9022000F028FF60B1494E5F49306873
:1032E00026F03FFB24F003FA24F002FA5C49306830
:1032F00026F037FB0D232B70FFF719BB09232B702A
:10330000464B187813F04AFB032000F00DFF00280D
:103310003FF40DAB3A4D3E49286826F022FB24F0DD
:10332000E6F924F0E5F94F4983E74F4F4F495048FC
:10333000FFF736F93E78002E00F0AA804D494E483E
:10334000FFF72EF9102249494A4832F001FF0028C0
:1033500043D1032000F0E8FE78B1DFF8A4802C49C7
:10336000D8F8000026F0FDFA24F0C1F924F0C0F9E5
:103370004249D8F8000026F0F4FA414B3D4A1E704D
:103380003A4B03F1100153F8040B8B4242F8040B43
:10339000F9D101233B7042F629330022ADF81830F1
:1033A000384B1D491A800A231C482B7002220968D9
:1033B000007806AB13F0B4FA032000F0B5FE002845
:1033C0003FF4B5AA0E4D1249286826F0CAFA24F037
:1033D0008EF924F08DF92C492BE7032000F0A4FE90
:1033E00060B1074E0A49306826F0BBFA24F07FF935
:1033F00024F07EF92549306826F0B3FA0026BCE7B0
:103400001C0F00209A840408BC8704081D29002092
:1034100048810408F1870408C80D0020E238002024
:10342000CF8D0408AD8B04088B810408C08D04087F
:103430009081040899810408A8810408A5810408E2
:10344000BD810408A8280020278804085C88040897
:10345000A5880408A6280020EE88040831890408FD
:1034600036890408938904080C290020FC280020D0
:10347000C48904080D290020E78904080A8A040881
:10348000FB280020A4280020B48A0408428A0408EB
:10349000032000F049FE0028B0D0854E85493068F1
:1034A00026F05FFA24F023F924F022F98249A2E7FA
:1034B000824B198881B9022000F036FE00283FF4C3
:1034C00019AF7B4E7E49306826F04BFA24F00FF995
:1034D00024F00EF97B490AE70B232B7001237A486D
:1034E0001A46007813F06EFA032000F01DFE002843
:1034F0003FF41DAA6E4D6F49286826F032FA24F079
:10350000F6F824F0F5F8714993E6032000F00CFE7C
:1035100060B1674E6749306826F023FA24F0E7F877
:1035200024F0E6F86A49306826F01BFA032000F020
:10353000FBFD60B15E4E5F49306826F012FA24F060
:10354000D6F824F0D5F86349306826F00AFA03204B
:1035500000F0EAFD60B1564E5649306826F001FA97
:1035600024F0C5F824F0C4F85B49306826F0F9F976
:10357000032000F0D9FD60B14D4E4E49306826F071
:10358000F0F924F0B4F824F0B3F85449306826F088
:10359000E8F9534B1B7883B1032000F0C5FD0028E8
:1035A0003FF4A8AE424E4349306826F0DAF924F0E1
:1035B0009EF824F09DF84B4999E60C232B70424B62
:1035C000187813F089F9032000F0AEFD00283FF4CD
:1035D000AEA9374D3749286826F0C3F924F087F89B
:1035E00024F086F8404924E60D2303202B7000F0D8
:1035F0009BFD00283FF49BA92D4D2E49286826F0FD
:10360000B0F924F074F824F073F8384911E624F086
:10361000EBF9FFF7B6B91D2B7FF4B3A9207913F0AE
:10362000ADF9032000F080FD00283FF4A4A9204E4E
:103630002049306826F095F924F059F824F058F81C
:103640002A462B49306826F08CF9FFF794B90320FD
:1036500000F06AFD60B1164D1649286826F081F920
:1036600024F045F824F044F82249286826F079F936
:10367000032000F059FD70B10D4D0E49286826F069
:1036800070F924F034F824F033F8A388A2791A49A9
:10369000286826F066F9FF220B4B1A700023174AA0
:1036A0001360174A1380174A1370FFF716BA00BF4A
:1036B0001C0F0020488104087C8A0408A4280020EC
:1036C00031890408038B0408E23800202D8B04089C
:1036D0006A8B0408908B0408AF8B0408CF8B040816
:1036E000FB280020EA8B0408388C0408748C04083A
:1036F000048D04083B8D04087E8D0408C80D00204D
:10370000A82800201D2900200022014B1A807047A4
:10371000AA28002008B534F064FA4FF6FF71054A74
:1037200013888B421CBF01331380BDE8084034F07E
:1037300053BA00BFAA28002010B534F052FA054A47
:10374000148814B1631E0124138034F045FA204616
:1037500010BD00BFAA28002030B503687E4A23F4BC
:103760007F4323F00703934289B040F0F3800622A1
:1037700000211620794B13F0F7F9044618B3784D61
:103780007849286826F0EDF87749286826F0E9F8A6
:1037900023F0ADFF23F0ACFF744B754A00937549DD
:1037A0006C23286826F0DDF873492346734A28689D
:1037B00026F0D7F8204600F023FD7149286826F04E
:1037C000D0F800BEFDE70146082212206D4B13F031
:1037D000CBF9044618B3624D6249286826F0C1F857
:1037E0006149286826F0BDF823F081FF23F080FFAF
:1037F0005E4B5F4A00935F497823286826F0B1F852
:103800005D4923465D4A286826F0ABF8204600F063
:10381000F7FC5B49286826F0A4F800BEFDE70146E6
:1038200003221420584B13F09FF9054618B34C4C53
:103830004C49206826F095F84B49206826F091F80D
:1038400023F055FF23F054FF484B494A0093494960
:103850008623206826F085F847492B46474A20688A
:1038600026F07FF8284600F0CBFC4549206826F07A
:1038700078F800BEFDE70DF10F0104A816F084FBF7
:10388000044618B3364D3749286826F06AF8364999
:10389000286826F066F823F02AFF23F029FF334B2F
:1038A000334A009333499523286826F05AF8324961
:1038B0002346324A286826F054F8204600F0A0FC3F
:1038C0002F49286826F04DF800BEFDE7BDF81430FA
:1038D00001465BBAADF818309DF8133008228DF818
:1038E0001A30FF238DF81B30FE238DF81C309DF815
:1038F000123018208DF81D30BDF810305BBAADF8CD
:103900001E3006AB13F030F9054618B3144C1549B8
:10391000206826F026F81449206826F022F823F0C3
:10392000E6FE23F0E5FE114B114A00931149A52351
:10393000206826F016F810492B46104A206826F019
:1039400010F8284600F05CFC0D49206826F009F8C4
:1039500000BEFDE709B030BDA0000100668E04087E
:103960001C0F0020AD8B04088B810408268E0408F0
:10397000F58D040899810408A8810408A58104082C
:10398000BD8104085E8E04085B8E04087FB500F0DC
:103990007FFD054618B34B4C4B49206825F0E1FFED
:1039A0004A49206825F0DDFF23F0A1FE23F0A0FEA8
:1039B000474B484A009348491923206825F0D1FF16
:1039C00046492B46464A206825F0CBFF284600F0A2
:1039D00017FC4449206825F0C4FF00BEFDE704F051
:1039E000E9FF054618B3374C3749206825F0B9FF81
:1039F0003649206825F0B5FF23F079FE23F078FEE4
:103A0000334B344A009334491C23206825F0A9FF26
:103A100032492B46324A206825F0A3FF284600F0A1
:103A2000EFFB3049206825F09CFF00BEFDE72E4DDE
:103A3000284605F027F8044618B3224D2249286885
:103A400025F08FFF2149286825F08BFF23F04FFEDA
:103A500023F04EFE1E4B1F4A00931F491F23286868
:103A600025F07FFF1D4923461D4A286825F079FF70
:103A7000204600F0C5FB1B49286825F072FF00BEF8
:103A8000FDE7012619496860284624F04AFF2846C8
:103A900024F0E3FD234622462846CDE90146144999
:103AA000009424F051FF234632462846CDE90146D2
:103AB0001049009424F048FF04B0BDE8704004F0C1
:103AC000A1BF00BF1C0F0020AD8B04088B81040830
:103AD0001B8F04086C8E040899810408A8810408CF
:103AE000A5810408BD810408CC0D00209C93040826
:103AF0007F8E0408928E0408F8B506460024094B10
:103B0000094D1F78A74203DC4FF0FF342046F8BD73
:103B100028460622314632F01BFB29350028F5D015
:103B20000134EFE724290020252900202DE9F04762
:103B3000002790B005460C461C22394609A8089774
:103B400032F030FB2023A97C0DEB030205F11300BA
:103B500005F1010AA0475046FFF7CEFF002859DAC9
:103B6000464B1E780B2E52D8721C1A70292303FB69
:103B700006F9D5F80120DFF81C814FF0010A48F85A
:103B80000920B5F8052008EB0904A2806A7A2546C9
:103B9000A2719DF820200735D21B18BF012208A969
:103BA00084F8272028461F2284F828A032F002FB40
:103BB000334B84F8267083F800A0FFF7ABFD032099
:103BC00000F0B2FA18B32F4F2F49386825F0C9FE1C
:103BD00023F08DFD23F08CFD18F8093094F8272090
:103BE0000693637829490593A3780493E3780393B4
:103BF000237902936379019394F906300093244B5F
:103C00003868002A18BF2B46324625F0AAFE10B0AD
:103C1000BDE8F087292395F909101E4D03FB0053D9
:103C200093F906208A1A002AB8BF5242022A93F852
:103C300027201ADC002AEAD19DF82030002BE6D09C
:103C400029244443E01D1F2208A9284432F0B2FA77
:103C500000232C4484F82630012384F827300122E5
:103C6000074B1A70FFF756FDD1E79971002AF6D17C
:103C70009DF82030002BF2D0E2E700BF242900207D
:103C8000232900201C0F002048810408AE8E040860
:103C9000A48E0408252900202DE9F04F3948F9B0F9
:103CA00024F0DBFC00240123DFF8E8802246CDE984
:103CB0000143354923463348009424F045FE98F8E3
:103CC00000704FF4D0720C2F214610A828BF0C278B
:103CD00032F068FA2D4EDFF8C090DFF8C0A0DFF8B0
:103CE000A4B010ADBC4233D033460134E4B205AACF
:103CF00006F1280E9446186859680833ACE80300AA
:103D000073456246F6D11B788CF8003096F8273060
:103D100033B39DF91A3052460093202128460DF105
:103D20001B0322F0D1FF002301222946CDE90132F5
:103D300000932246584624F007FE98F800200023FE
:103D40000C2A05F1200506F12906CBD188F80030B0
:103D500004F058FE00220E4B1A7079B0BDE8F08FC7
:103D60009DF91A304A4602939DF8143020210193A0
:103D70009DF81530284600939DF8163022F0A4FFD8
:103D8000D1E700BFCC0D00207F8E0408252900203C
:103D90002329002024290020068F0408F98E040816
:103DA000064B1B681A7A022A04D812B11B68044A0F
:103DB00013607047032AF9D0704700BF4C360020CB
:103DC000F80D002070B5264DA8B012AC0FCD0FC471
:103DD00095E80700032384E807008DF86130292364
:103DE000204A0024CDE9032340F201531E49CDE9C6
:103DF0000944CDE905134FF480230B94089319ADC2
:103E000008AE0FCECDE90E44079410940FC5174BA2
:103E10000DAE2B60164B1EAD0D930FCE0FC520209F
:103E2000144B19A92B60144B12AA2393134B2694FD
:103E3000CDE92403124B13482793134B009303AB94
:103E400007F06CFA04469DF897304FF4E130002BF0
:103E50000CBF0321002123F098FC204628B070BD40
:103E60006091040800C005500008000924C00550F6
:103E7000020004003CC00550112B0020000101008D
:103E800060360020B40E0020FC0D0020831E012BA4
:103E900010B50C4619D801290DD8184B04221B6CFB
:103EA00008210020C3F3002304F070FA24B1144B5E
:103EB00018680368F3B910BD114B18680368002B2C
:103EC000F9D0BDE8104007F0F7B98B1E012B0CD8D4
:103ED0000128F0D8BDE810400022084B08211B6CD7
:103EE0001046C3F3002304F051BA0029E4D001299D
:103EF000DDD0E0E7BDE8104025F002BF00C0035070
:103F00007436002008B50449044807F00BFCBDE8EE
:103F10000840FFF757BF00BF78360020DC0E0020B6
:103F2000014825F072BF00BFB40E0020014B5A6A51
:103F300018681047B40E002008B5044823F077FC39
:103F4000BDE80840024823F072BC00BF9491040809
:103F50007C910408014823F041BD00BFAC910408E6
:103F6000044B834205D1044B1B7813B1C8B215F042
:103F7000FBBF7047E40E0020312B002030B5002538
:103F800003685A4A23F47F4323F0070385B0934222
:103F900004460295ADF80C5000F0828002F1C06238
:103FA00002F5802293420DD0514A934240F09C800A
:103FB000504B1B78002B00F0978005B0BDE83040D7
:103FC00026F0EABBB0F805301B2B40F08D80FF23B4
:103FD00004A91A4611E9030023F082FB012814BF4B
:103FE00041F2FC15434B05F0FC0208BF18701B2181
:103FF000207912F0CFFD054618B33F4C3F492068A9
:1040000025F0AFFC3E49206825F0ABFC23F06FFBA8
:1040100023F06EFB3B4B3C4A00933C4959232068FC
:1040200025F09FFC3A492B463A4A206825F099FC36
:10403000284600F0E5F83849206825F092FC00BEDB
:10404000FDE7364900902379354A0968354800F084
:1040500033F90546002847D0274C2849206825F029
:1040600080FC2749206825F07CFC23F040FB23F0EE
:104070003FFB244B244A009324496223206825F007
:1040800070FC23492B46234A206825F06AFC284609
:1040900000F0B6F82049206825F063FC00BEFDE77B
:1040A000B0F80530B7EE047A07EE903AF8EE677A8A
:1040B000B0F8073067EE877A013307EE103AB8EEB2
:1040C000C77A67EE877AB1EE047A67EE877AFAFEEE
:1040D000677AFCEEE77A17EE903AB3F57A7F38BF4D
:1040E0004FF47A730D4A136005B030BDA00006028C
:1040F000A0000601312B00201C0F0020AD8B04080E
:104100008B81040837920408C4910408998104083B
:10411000A8810408A5810408BD8104088036002018
:10412000613F0108E40E00200B4B02461B7883B16F
:104130000A4B1B78834234BF00200120084B1B78B8
:1041400033B1084B1B78134113F0010F08BF002057
:1041500070470120F2E700BFE8380020E738002070
:10416000322B0020E638002001222DE9F342174BC4
:1041700000241A700422164B25461C70154B164E4F
:104180001A701F22154BDFF860901A70144B1B68D1
:104190000193019BA3420BD056F8047B3B7A022B80
:1041A00010D14946786832F01BF848B9386810B920
:1041B00055B906F063FD0B4B186002B0BDE8F08204
:1041C00005B93D680134E4E72846F4E7E838002003
:1041D000322B0020E73800204C360020E638002043
:1041E000549104081C0F002058910408024B034905
:1041F000186825F0B6BB00BF1C0F002057920408BA
:1042000070B50C4C0C490646206825F0AAFB06F058
:1042100035FD0546206806F025FD3046FFF7E6FF30
:10422000284606F01FFD20680449BDE8704025F0CF
:1042300098BB00BF1C0F0020599204085B92040831
:1042400038B5054633F0D6FC00230B4A14685CB140
:10425000AC4206D1A96A6BB1996233F0C6FC012069
:1042600007E02346A46AF2E7002DF3D033F0BDFC4B
:10427000204638BD1160F0E7200F002010B504463D
:10428000B0B133F0E5F92046FFF7DAFF10B194F84A
:104290002C300BB9002010BD064C2368002BF9D040
:1042A00033F0A8FC2368013B236033F09EFCF1E768
:1042B0002220F0E7240F00202DE9F04385B00546C9
:1042C000914698460E469DF8307009B9002F5CD192
:1042D0002846FFF7D3FF0446002836D185F82C0086
:1042E000686307F007FC864233D933F049FA214668
:1042F000844640F2E7304FF47A720023E6FB0C016B
:104300001DF092FE4FF0FF3200231DF08DFE2B4674
:10431000E88611462846CDE900441D4A33F071FE77
:10432000044690B9C5E9089885F82D702E6333F0DE
:1043300061FC184A136833B31A469B6A002BFBD101
:1043400095620023AB6233F050FC204605B0BDE817
:10435000F08347B12B4631462846CDE900440C4A4C
:1043600033F060FADCE7304603A933F00FFA044675
:104370000028EAD12B462846CDE90077044A039964
:1043800033F01BFECCE71560DBE72124DDE700BF3F
:1043900099430108200F002091F82C3013B50C46EA
:1043A00083B98B8ECA8E93420ED243B9CDE90033C6
:1043B00020460B46124A4FF0FF3133F0E2FDA38E48
:1043C0000133A38602B010BD52B191F82D3093B1E4
:1043D00001230093D1E908232046096BFFF76CFF06
:1043E000012384F82C30074B1A6801321EBF1A686B
:1043F00001321A60E6E7084633F02AF9F0E700BF19
:1044000099430108240F00202DE9F041154E33682F
:1044100033B34FF00008144F33F0ECFB05463C6813
:1044200024B92846BDE8F04133F0DFBB94F82C30C6
:10443000A3B1336884F82C8013B13368013B336037
:1044400094F82D3013B92046FFF7FAFE284633F0D2
:10445000CCFBD4E9083120469847DDE7A46ADFE7C2
:10446000BDE8F081240F0020200F0020034B1B68C3
:10447000002B14BF04200120704700BF240F002030
:10448000024B1868B0FA80F040097047240F0020F2
:1044900007B50421064B01221B880DEB0100ADF886
:1044A000043000F087FC002003B05DF804FB00BF7F
:1044B0005E92040808B5044833F0D7FC23F0BDF839
:1044C000BDE8084000F0CEB984AC0408014833F0E0
:1044D000CCBC00BF84AC040807B5082023F00FFA59
:1044E0000222064B6846CDE9002323F012F908208A
:1044F00003B05DF804EB23F00DBA00BF006A18109A
:104500002DE9F0412E4C90B003AE05468846174683
:104510000FCC0FC6043408AE0FCC0FC694E80F00C2
:1045200086E80F0001238DF8253008AB0793AB898F
:104530002448ADF804302B892C68ADF8083033F0EE
:1045400094FC686833F091FC042100220DEB01001B
:1045500000F030FC0022042102A800F02BFC2046D1
:1045600003A9CDF814808DF81A7003F04FFE164B96
:104570009C4222D0154B9C4214BF4FF0FF340124C3
:104580006B7A297A41EA0341114B03EB4412C2F8DA
:10459000AC14687B297B253441EA0041002003EB01
:1045A00044139960D2F8943403F0040343F01803E1
:1045B000C2F8943410B0BDE8F0810024E0E700BFF9
:1045C0006492040884AC04080000015B00000A50F7
:1045D00000C0035038B505680521284623F0AEFF1A
:1045E0000A4B9D420FD00A4A0A4C0B4B954208BF1A
:1045F0001C4633F0F6FA236843F01803236033F0C7
:10460000EBFA002038BD054CF3E700BF0000015B6A
:1046100000000A5074C40350B4C4035094C403503F
:1046200003680B4A10B593420FD00A490A4C0B4A53
:104630008B4208BF144633F0D4FA236823F01803E2
:10464000236033F0C9FA002010BD054CF3E700BF2A
:104650000000015B00000A5074C40350B4C403504E
:1046600094C40350012902D80448FFF7B3BF0239AC
:10467000012902D80148FFF7D3BF70478C360020CC
:1046800013B5044633F07CF800230122217BCDE9E9
:1046900000324900B0FBF1F1024A034833F071FCEB
:1046A00002B010BDBD660408440F002037B50446B3
:1046B0000F4B01A85B880F4DADF8043000F0ACFB48
:1046C000607B07F085FA042302220DF106012846DB
:1046D000ADF8063023F067F8284623F075F8A07B84
:1046E00007F076FA01A800F0BFFB002003B030BD50
:1046F000989204088C36002073B50646174C18486B
:1047000063883546ADF8003033F0AFFBB168002266
:104710001448FFF7F5FE00220421684600F04AFB2A
:1047200004212388104C0DEB01000022ADF8043069
:1047300000F040FB0FCD0FC401222B6830462360F0
:104740000A4B1A70FFF79CFF3046FFF7AFFF08498E
:10475000084806F0E7FF002002B070BD98920408F8
:1047600084AC04088C360020300F0020332B00204E
:1047700084360020280F00202DE9F74F1446054607
:104780009846284B06885B880134ADF804300379DD
:1047900001A85E430F46A4B200F03EFB687B07F021
:1047A00017FA230243F0010302221F480DF106010C
:1047B000ADF806304FF0000B22F0F5FF0134240273
:1047C000DFF86490F610A4B208F1FF3AC3450FD1A8
:1047D000154822F0F9FFA87B07F0FAF901A800F0CC
:1047E00043FB114822F0F5FF002003B0BDE8F08F35
:1047F00039463246484622F0D6FFDA450CBF4FF61E
:10480000FF7344F0FF03022248460DF1060104F550
:104810008074ADF80630374422F0C5FF0BF1010B70
:10482000A4B2D3E7989204088C360020034B0448C6
:104830001B78002B08BF0020704700BF332B0020DF
:10484000300F002030B5064D87B001AC0FCD0FC43E
:104850002B6801A82360FFF74FFF07B030BD00BFF2
:104860009C9204082DE9F04F544E97B0354609ACA0
:104870000FCD0FC42B6806F1140523600EAC0FCDCD
:104880000FC495E80F00DFF84C8184E80F004C4816
:1048900033F0EBFA404633F0E8FA4FF48073494FB7
:1048A000ADF83C30484B38460B9309A90EAB0D933D
:1048B00003F0ACFC0421B6F834B00DEB010001228A
:1048C000ADF804B000F076FAB6F836A00022012167
:1048D00002A8ADF808A000F06DFAB6F838900122F1
:1048E000042103A8ADF80C9000F064FA758F012242
:1048F000042104A8354CADF8105000F05BFA344B9D
:104900004FF44870C4F8C8344FF00213C4F8C434EC
:10491000A3F58033C4F8CC341C23C4F8B43407F0B6
:1049200057F908A8ADF8205000F09EFA142007F0BF
:104930004FF908A8ADF8205000F06EFA232007F0D8
:1049400047F908A8ADF8205000F08EFAB921384692
:1049500023F02FFE08A8ADF8205000F05DFA0022E9
:1049600005A81146ADF814B000F024FA002206A8FC
:104970001146ADF818A000F01DFA0122002107A889
:10498000ADF81C9000F016FA0122002108A8ADF83D
:10499000205000F00FFA384603F098FB0023404601
:1049A000C4F8B434C4F8C834C4F8C434C4F8CC343B
:1049B00033F05EFA17B0BDE8F08F00BFB092040884
:1049C00084AC040800000A50E070720000C003507C
:1049D0000200030088AC04080348044A0449121A80
:1049E000921022F001BF00BF80210108402301087E
:1049F0008034002008B5154B83F30A8800F030F8A6
:104A0000FFF7EAFF124B13498B4212D30020124BDF
:104A100012498B4218D3FDF701FD186850F8224067
:104A2000586840F82240013298688242F5D30C332E
:104A3000EAE70022F8E71C6844F8220001325C68CB
:104A4000A242F8D30833E4E70022F8E70800002088
:104A500010F404081CF404081CF404081CF40408F2
:104A60004FF48041124B134A70B59A60D3F88820F6
:104A7000114D42F47002C3F88820104A05F5005425
:104A800091664FF0FF3222660D4A62660222C3F839
:104A9000D020BFF34F8FBFF36F8F4FF4403600200D
:104AA00006F0D2F80020E66006F0B2F82E6170BD84
:104AB00000ED00E00020010800800044009000505C
:104AC000F7FF3700014B1860704700BFA436002085
:104AD000054B1860054B1B6F03F00703032B01D137
:104AE00031F020BE704700BFAC360020008000507F
:104AF0004FF000639B6A03F17842B2F5903F03D216
:104B00001968064A914203D00023037083607047FE
:104B1000012202709A689B694260F7E707B0CD5E98
:104B20004FF000639B6A10B503F17842B2F5903FF5
:104B300011D21968094A91420DD1094C227812F01C
:104B4000FD0F01D0002010BDDB6998470028FAD185
:104B500001232370F6E74FF48170F4E707B0CD5ED0
:104B6000342B0020024B034A1A6024F0AABE00BF77
:104B70000000002002020FF0BFF34F8F0549064BE3
:104B8000CA6802F4E0621343CB60BFF34F8F00BFEB
:104B9000FDE700BF00ED00E00400FA0530B5056850
:104BA00087B0AB8804461848ADF80C3033F05DF997
:104BB0000022012103A800F0FDF80DF10B0103A86C
:104BC00022F0E0FE9DF80B3083F001032B70AB79EF
:104BD000022B15D14FF0FF330022CDE9043304A995
:104BE0000A4B009403A800F0E7F9049B00940133FA
:104BF0000CBF04220122054B05A903A800F05CF9B3
:104C0000002007B030BD00BF84AC0408437803081F
:104C1000002307B52948019333F027F94FF4407377
:104C2000012204216846ADF8003000F0C3F80122EB
:104C3000234B0520C3F8442401A933F011F90028BF
:104C400039D1204BD3F8F02042F00102C3F8F02014
:104C5000D3F8FC2042F08072C3F8FC201A4AA3F576
:104C60005D431A60019B194A03F5D52303F2FC4307
:104C7000B3FBF2F3164A013B13610223C2F8F03092
:104C80004FF48073C2F804334FF06043114AC3F805
:104C9000B02F114AC3F8802ED3F8002E42F4807250
:104CA000C3F8002EFF2283F82020D3F8002E22F430
:104CB0008072C3F8002E03B05DF804FB84AC0408D6
:104CC00000D0035000ED00E0FF030040F8590D0054
:104CD000000004E055CEACC5090001004FF0604370
:104CE000D3F8802E30B5D20715D501240B4D844062
:104CF000D5F8FC2042F08072C5F8FC20D3F8002ED5
:104D00002243C3F8002E53F82020002AF0D003F8E5
:104D10002010002030BD1120FCE700BF00ED00E0B6
:104D20002DE9F04104460C254FF00108124E0CB35A
:104D300014F001000BD0002024F0010405FB0062F8
:104D40005768002FF3D09168C0B2B847EFE722460A
:104D5000013020284FEA520201D0D307F8D508FAD3
:104D600000F20F2824EA0204E8D9103805FB00629B
:104D7000B432E5E7BDE8F081640F002008B50C48C7
:104D800033F073F8192005F051FF28B1192005F010
:104D90005BFF192005F03CFF1A2005F047FF28B102
:104DA0001A2005F051FF1A2005F032FF002008BD3F
:104DB00084AC04082DE9F0410E469046054618B330
:104DC0000F2923D80378E3B1012B03D0022B18D08D
:104DD000032B1BD13F236A78D340DB0716D50D4B3D
:104DE000D3F81043A4B932F005FF074642462846DF
:104DF000314603F097FE384632F0F7FE2046BDE814
:104E0000F08140F2FF33E6E72224F7E72124F5E7BB
:104E10000224F3E700C0035010B50446E8B103785C
:104E2000C3B1012B03D0022B14D0032B17D13F2386
:104E30006278D340DB0712D532F0DCFE01226378C2
:104E400021789A4030235943064B5A5032F0CDFE18
:104E5000002010BD40F2FF33EAE72220F9E72120CD
:104E6000F7E700BF40D0035010B50446E8B103781F
:104E7000C3B1012B03D0022B14D0032B17D13F2336
:104E80006278D340DB0712D532F0B4FE012263789A
:104E900021789A4030235943064B5A5032F0A5FEF0
:104EA000002010BD40F2FF33EAE72220F9E721207D
:104EB000F7E700BF40E003502DE9F0410D461646EC
:104EC00098460446002851D000294FD002784AB1B4
:104ED000012A42D0022A05D0032A3ED0FF2A07D059
:104EE000212041E040F2FF336278D340DA07F7D562
:104EF000022E01D9042EF3D132F07CFE237807462E
:104F0000FF2B05D032462046296803F051FE286069
:104F10002B68013309D12378FF2B06D1144B60781D
:104F2000D3F8241423F04EFD286029684B1C17D0B9
:104F30000C23104A03FB0122069BC2F804809360F5
:104F40002378FF2B04D001230B4A8B40C2F8243472
:104F5000384632F04AFE002006E03F236278C4E77C
:104F6000384632F042FE2D20BDE8F0812220FBE7DA
:104F700000C00350640F002000D003500F2810B56C
:104F8000044613D832F036FE0123094AA340C2F882
:104F90002034C2F824340C22064B02FB04330024D4
:104FA000C3E9014432F021FE204610BD2120FCE778
:104FB00000E00350640F00202DE9F0410D469046BB
:104FC0001F460446002842D0002940D0017849B14C
:104FD000012933D0022905D003292FD0FF2907D07A
:104FE000212032E040F2FF336278D340DA07F7D570
:104FF00032F000FE23780646FF2B05D042462046BD
:10500000296803F05BFE28602A68531C19D00C2322
:10501000104903FB0211069BC1F8B870C1F8BC30FF
:105020002378FF2B05D00123103293400A4AC2F89F
:105030002434304632F0D9FD002006E03F23627868
:10504000D3E7304632F0D1FD2D20BDE8F08122209B
:10505000FBE700BF640F002000D0035008B503F049
:1050600047FD054B00F0553020F05020C3F82004D8
:10507000BDE80840FFF754BE00E0035008B503F058
:1050800037FD054B00F0AA3020F0A020C3F8200423
:10509000BDE80840FFF744BE00E0035013B50446E6
:1050A0000A4832F0E2FEA2780421B2FA82F22378B2
:1050B00052098DF8043063780DEB01008DF805304E
:1050C000FFF778FE002002B010BD00BF84AC0408DA
:1050D0002DE9F04F9A46564B85B01B7806460F4691
:1050E0001546DDF83C909DF844B0DDF85080002B6B
:1050F00000F09780072A00F296800E9B002B00F0AC
:105100009280B9F1000F00F08E80129BB3F5006F12
:1051100000F38980012803D1109B002B00F08380CD
:10512000444B03EB05131B7B002B7ED0424C10221B
:105130000021684631F036F804EB45141022A7BB75
:105140003946204631F02EF843F210036380BBF15C
:10515000000F03D1E37843F00303E370364A0E9B5C
:1051600002EB451CCCE90193129B6901581E9DF886
:105170004C30C0F30A0003F003039B0643EA001E11
:1051800053582E48012E00EA03004EEA0003CDF8E2
:1051900000A0535017D0B8F1000F2ED19CF8023068
:1051A00068F304138CF8023027E00021204630F029
:1051B000F9FF4FF444736380BBF1000FCED1E37865
:1051C00043F03003C9E713230CF1100ECCF80C3078
:1051D0009CE80F008EE80F006FF00301DCF81C2044
:1051E000109B61F39F02012FCCF81C20CCF81430E7
:1051F00003D1CCF81890CCF8043000270D4A2901CF
:1052000002EB051342F80180159A28465A60694658
:1052100022469F605E7303F04DF9384605B0BDE845
:10522000F08F0748FAE70748F8E70748F6E700BFB6
:10523000352B0020CC110020CC1000200F80FFF374
:10524000028000F0018000F0078000F038B5124BBA
:1052500005461B78DBB1E0B132F0CCFC0F4A0023ED
:105260001146147B54B92B6001251A0101EB03137D
:105270001D738C5032F0B9FC204638BD0133082B29
:1052800002F11002EDD132F0B0FC0548F5E7054817
:10529000F3E70548F1E700BF352B0020CC110020D3
:1052A000048000F0028000F0018000F038B532F098
:1052B000A1FC002305460B4A147B6CB90133082B73
:1052C00002F11002F8D103F0A1F8074B28461C7038
:1052D00032F08BFC204603E0284632F086FC03487F
:1052E00038BD00BFCC110020352B0020058000F018
:1052F0000D4B10B51B78044693B1072812D832F035
:1053000079FC0A4B03EB04131A7B2AB100241C73AB
:1053100032F06BFC204610BD32F067FC0448FAE71F
:105320000448F8E70448F6E7352B0020CC110020AC
:10533000068000F0028000F0018000F0154B13B5EC
:105340001868002301908DF8043032F053FC124BA2
:105350001C7824B132F049FC104802B010BD012283
:105360001A7032F042FC0E4B01A81C731C7783F8B4
:105370002C4083F83C4083F84C4083F85C4083F831
:105380006C4083F87C4008238DF8073003F062F806
:105390002046E2E73C930408352B0020038000F010
:1053A000CC110020F8B50D4D2D7885B1072810DC03
:1053B0000B4D060105EB0014277B67B1AB510025AF
:1053C000069BA560636003F075F82846F8BD0548A4
:1053D000FCE70548FAE70548F8E700BF352B002051
:1053E000CC110020028000F0018000F0078000F066
:1053F0000A4A08B512785AB107280BD8084A02EBB6
:1054000000131B7B43B1002103F016F8002008BDF8
:105410000448FCE70448FAE70448F8E7352B002085
:10542000CC110020028000F0018000F0078000F025
:105430000A4A08B512785AB107280BD8084A02EB75
:1054400000131B7B43B1012102F0F6FF002008BDD1
:105450000448FCE70448FAE70448F8E7352B002045
:10546000CC110020028000F0018000F0078000F0E5
:10547000184B2DE9F0411F6D5B6D1F4000D5FEE715
:1054800001260025144CDFF85880374218D02368D5
:10549000C8F85060A3B1A168284601316268A160D4
:1054A0009847637B012B0BD150B90C4B03EB451391
:1054B0001A7B60F341021A731A7F60F341021A7774
:1054C0000135082D4FEA460604F11004DDD1BDE890
:1054D000F08100BF00000450CC110020CC1000204F
:1054E000002004502DE9F04F144605460E469B4619
:1054F000C36B87B001225B6902A960689847EB6BB8
:1055000001225B6903A93046984702A822F0CCFE2D
:10551000074648B10023A37563754FF0FF33A360BE
:10552000002007B0BDE8F08F03A822F0CAFE0123D7
:10553000A375237E04EBC303DE611F846368B3425B
:105540000ED1206003A822F0DEFE4FF0FF3320755D
:10555000A360237D043B022B26D80023A375DFE73D
:1055600023681A1A53425341A37503A822F0CBFEB5
:10557000237D834218BFA77503A822F0A6FE074625
:1055800002A822F0A2FE874218BF002303A818BF7A
:10559000A37522F0A2FE074602A822F09EFE8742D3
:1055A0001CBF0023A375D4E703A822F08EFE80B1B0
:1055B000EB6B022230465B6904A9984704A822F0ED
:1055C00093FE0346207D032839D8DFE800F0383801
:1055D000040903A8F3E7CC22237E04EBC3031A8457
:1055E00001F0EAFA109B187003A8277E22F061FEF2
:1055F00004EBC70787F82200237E03A804EBC3034C
:10560000B3F8209093F8227022F05FFE804603A842
:1056100022F063FE8246B8F1000F15D0EB6B022238
:1056200030465B6904A9984704A822F022FE607501
:10563000637D6BB90023A3754FF0000838E0227E2C
:1056400004EBC2021384CBE703A822F0FDFDEEE7D2
:1056500094F81680B8F1000FEED0B9F1000F09D11F
:10566000DFB10123E375637E002B4FD1012F42D1BF
:10567000677614E06B6C06EB0A02594286EA020078
:1056800008421CBF0021A175591E0A409B1A99456A
:10569000D0D8A37D002BE3D1CEE7E37D43B94FF013
:1056A00000084B4652463146284622F03BFBA0609C
:1056B000A27D12B123694B4423611A49237E0978E4
:1056C00099422AD901332376BBF1000F27D032B398
:1056D000E37D23B3B8F1000F21D1032F1FD0A168C0
:1056E0004B1C1CD0109B2246009328460123FFF739
:1056F000F9FEA07513E095F8343063B9EB6A013315
:10570000CFD1032FCDD10123A376C8E7012FCFD06E
:10571000032FC4D1F7E79846C3E70023A375A07D04
:10572000FFE600BF609304082DE9F04F0E4698464F
:1057300000238BB004464FF0FF31104617468DF81A
:10574000133001F023FAB6F5801F3BD3B21C53D1BE
:10575000E56A6B1C57D12046616A22F029FA05469A
:10576000B31C18BF0123DFF810910193636A626CC8
:105770000293236805A902FB053AE36B05225B69E6
:105780005046984705A822F02AFE22F04DFE5046CA
:1057900022F055FE4FF0000B824601464B1C05D00F
:1057A000636C81EA0A025B42134232D029462046EA
:1057B00022F0FEF9029BAB424DD0BBF1000F4DD160
:1057C0000546D3E7314605AA04F1080022F0BAFCE9
:1057D0000146481C10D0384601F0D8F9012239465C
:1057E00020460DF1130322F0EFFA28B19DF8133093
:1057F00088F80030002003E0237C002BA8D12D2066
:105800000BB0BDE8F08F2368ED1A636CB5FBF3F5C0
:10581000A6E7484601F0BAF90DF1130349462046C0
:10582000019A22F0D1FA034690B1B21C03D0D9F804
:105830000020B2420CD19DF8132003930D4B88F841
:10584000002049461A68384630F0D4FC039B9B463A
:10585000D9F80810A2E7BBF1000FD0D0B6F5801F31
:10586000C8D2314698F800307A6804F1080001F097
:10587000BBF8BFE75C930408C01800202DE9F34192
:105880000446174698460E46194D816AE36A8B42D4
:105890002AD04B1C18E0284601F078F9012229464D
:1058A00020460DF1070322F08FFA30B14346294616
:1058B00020469DF80720B847B0B1A9684A1C05D01A
:1058C000012E0AD0E36A9942E5D10DE069682046CD
:1058D00022F0FBF9012E0146D8D16B6881EA030260
:1058E000636C5B421A42D1D002B0BDE8F08100BFC8
:1058F000941800202DE9F04F4FF0FF334FF6FF7260
:105900000025044600F10806C0E909238BB0C362F4
:105910000562056330460F4622F0E5FB204622F083
:1059200017F920BB2046394622F092F9204622F092
:105930000FF920BB5E200BB0BDE8F08FE26B23684F
:10594000606CD2F814C000FB0530052205A9E047C1
:1059500005A822F044FD012828D12946204622F03E
:1059600048F9421C2946204622F011F90135E36925
:105970009D42E3D3204622F0EBF80028D2D0002548
:105980004FF0FF394FF6FF73CA46A846C4E90853E3
:10599000E369984514D3A5EB0905012D36D84FF6D8
:1059A000FF72636A934246D16720C4E722F041FD4B
:1059B0000028DBD02946204622F01BF90246D1E719
:1059C0002368E26B606C576900FB0830052205A96B
:1059D000B84705A822F003FD834605A822F0D6FCAF
:1059E0000746584622F020FD68B1574538BFC4F835
:1059F0002480B94528BFB946BD4238BF3D46BA46A6
:105A0000236A0133236208F10108C1E74FF6FF73EF
:105A100000256362E3699D42C1D2676C2068E36B35
:105A2000052207FB05005B6905A9984705A822F038
:105A3000ADFC0135EEE7E26B676C2068694607FB59
:105A4000030055690522A847684622F09FFC626A58
:105A50002368606C4B4D00FB023022F0F0FC4FF0ED
:105A6000FF33A062E3622A466FF00101204605ABD6
:105A7000FFF75AFE002846D1AD6829462046E56268
:105A800022F042F8206320B92046E16A22F01DF995
:105A9000E0622946204622F018F90546A36A9D4295
:105AA00033D1204622F003F800278046B946E36947
:105AB00099453CD3B84559D92046616A22F078F817
:105AC0000026054604F1400AB74212D8626C2368EA
:105AD000694602FB0539E36B05225B694846984736
:105AE000684622F053FC534602464946E06B22F0DA
:105AF000A8FC2946204622F05BF80136B045054651
:105B0000E2D1642017E7A56AB7E72946204621F0CD
:105B1000FBFF236B2946034407462363204622F0FC
:105B2000D4F80546002FB9D1C4E90B07B6E7636C7A
:105B30002568052203FB0955E36B05A95B69284627
:105B4000984705A822F04BFC22F06EFC58B128467D
:105B500022F075FC0146204621F0D6FF636C143B11
:105B6000984208BF013709F10109A0E7304622F049
:105B7000BAFA002320461946034AFFF77FFE0020A9
:105B8000D9E600BFEC180020B77D03082DE9F041ED
:105B9000036B9046826B07689A4288BF8363426CAE
:105BA000436A90B002FB0377C36B0E46052201A93E
:105BB0005B6904463846984701A822F010FC01288A
:105BC0000146307057D0656CE26B2368606AD2F88A
:105BD00014C005FB0030052206A9E04706A822F004
:105BE000FEFB01284FF0000523D0D4E90A32012141
:105BF0009342CDE90B458DF834800E958DF83C101D
:105C00002AD11946204622F060F8236B626C1433C7
:105C10009B1AE06223630C9B53B99DF83C303BB167
:105C2000626A616C2368E06B01FB023122F08FFB3A
:105C30000C9DE36B05225B6901A93846984701A8D2
:105C400022F0CDFB30702846236BA26B9A4288BFAE
:105C5000A36310B0BDE8F081237C33B91C490BAAC3
:105C600004F1080000F00EFFD5E72046194A0BABFF
:105C7000FFF704FECFE7237C23BB2246164904F13D
:105C8000080000F0FFFE616A204621F0B2FF616A61
:105C9000421C204621F07BFF054620B9236B626C35
:105CA0001344143B23632046A16A22F00EF82368B4
:105CB000A062C01A636CB0FBF3F06062204622F071
:105CC00047F8B6E700232046044AFFF7D7FDDAE796
:105CD000016401087D630108517E0308ED7D03081E
:105CE00073B50D46D11E4A421C461B7E4A419A425C
:105CF00026D129682368994222D3636899421FD824
:105D0000114E0DF107033246FFF70EFDC0B9726860
:105D10006B689A4214D19DF80730DA1E5342534102
:105D2000227E93420CD1636901336361D4E903237A
:105D3000934205D22968A26842F8231001332361F7
:105D4000012002B070BD00BFEC1800202DE9F04F1B
:105D50009A468BB09DF85030DFF850B10293DBF8D3
:105D60001030804653450D461646C0F09980D14606
:105D7000DBF804300193B9F1000F00F08D80D8F802
:105D80003C3001225B6907A90198984707A822F0D7
:105D900098FADBF80030984240F0858007A822F09E
:105DA0009CFA0428074614D107A822F09DFA019B0B
:105DB000029A04463B44002A3FD1864212D9144637
:105DC000361A4046019921F080FFA9EB04090190A1
:105DD000D1E7D8F83C3002225B69019808A99847BE
:105DE00008A8E2E7841B544528BF5446032C03EB64
:105DF0000607AAEB040A4FEA94021CD9D8F83C30F3
:105E0000294638465B69984724F0030304F00306EB
:105E10001F441D44002ED4D0D8F83C3001225B69C9
:105E200008A9384698473246284608A9354430F034
:105E3000E1F90026C5E72646ECE7074600F0030235
:105E4000039203442A1804920593049BDD1B059BCF
:105E5000D81B039B9F420FD1002FB2D0D8F83C3003
:105E6000012208A95B6998473A46284608A930F0FC
:105E70006FF978B93D44A4E7D8F83C30012208A96D
:105E80005B6998470422284608A930F061F908B9EF
:105E9000043FDAE74FF0360948460BB0BDE8F08F13
:105EA0004FF06309F8E74FF06F09F5E71819002084
:105EB0002DE9F0410F4616469846044688B060B377
:105EC00090F83450FDB1012121F037FE00210E9BE6
:105ED000CDE90511CDE902379DF83C30CDF80480BD
:105EE0008DF81C30237C04968BB90D4901AA04F16E
:105EF000080000F0C7FDDDE90553E06B002E08BF88
:105F00001D4621F0B3FF284608B0BDE8F0812046C9
:105F1000044A01ABFFF7B2FCEDE70546F3E700BF2B
:105F20001B7E0308E15C01082DE9F04F99B00F4694
:105F300009920A69416C0E931439D31DB3FBF1F336
:105F4000013302EBC302036B04469342C0F0B381FA
:105F50000023DFF824940D93E36A4846194607931B
:105F600000F014FED7E9033604930E9B022B4ED1AA
:105F7000CC2E40F08A81099B002B42D03946204626
:105F800021F0D2FF656C079A6B1E13401490ED1A36
:105F9000E36B01225B6916A97868984716A822F07E
:105FA00094F900280CBF04230823782E06933DD9CA
:105FB000012300254FF0080A05933B6805990E98C8
:105FC000C9F80030C9F8106022F0A1F94FEA9A032D
:105FD00010930023DDF81CB089F814000B930F9385
:105FE00008930C93616C4A1E0BEA02028B1A002E76
:105FF00038D05544AB4240D8236B5B1A134423631B
:10600000ABE0049B1B68149308230693D0E7656CF0
:10601000079A6B1E1340782EA5EB030516D8FB7D5F
:106020007BB9099B002BB3D104230693331DAB42EC
:1060300010D9A6B1082DBBD804250023AA46059384
:10604000BBE7099B002BA3D10823EEE7099B002B9C
:106050009ED1D9E7002505954FF0040AADE7042548
:106060000596F9E75345C7D3B0460BEB0A030393F4
:10607000089B002B18BF032313E0A3EB0A039E42E7
:10608000B0460BEB0A0228BF98469E420392EFD916
:106090000123D9F8102089F81730964271D1C9F838
:1060A00004B0089399F81730002B6CD099F8182099
:1060B0000899D31C09EBC3030132C3F804B0A3F859
:1060C0000880997289F81820B8F1000F14D00E9B3F
:1060D000022B5BD10B9B7BB90F9B4344032B0BD94A
:1060E000E36B01229B69039814A998470546002891
:1060F00040F0E38001230B93089B16A80193059BB6
:10610000009399F814204346396800F0F5FCE36BDE
:1061100058469B69109A16A99847051E0D9B18BFF3
:106120005B4652460D9359464346204621F0FAFD00
:10613000236B08F10302A3EB0A0322F003029B1A6C
:10614000C9F808002363002D40F0B7800F9BDDF8ED
:106150000CB04344A6EB08060F935946204621F0A5
:10616000B4FD00258346002E7FF43CAF824A396897
:10617000936804F10800E36252680E9B00F034FC5F
:1061800084E002238DE7C9F804B09DE7099B002B4A
:1061900030D1049BB8F1030F43440A9327D9DDE9BA
:1061A0000301E36B4FEA98029B6998470546002874
:1061B00065D118F003025FD0049B28F003052B443F
:1061C0000493039B1D444FF0FF33049915A81593C6
:1061D00030F010F8E36B28469B69012215A9984717
:1061E00005460A9B0493002D86D0039B99E74246FF
:1061F000039DE8E7039B0A9307F120031193FB7DBE
:1062000078689BB100233D7E0C9AD9B28D4211D99A
:10621000119903F1010C31F83310914226D90699F6
:1062200007EBC303D8690A44104403E00C9B069AA9
:1062300013441844E36B01225B6915A99847159B29
:10624000012213930C9B0A9804330C93E36B13A95C
:106250009B699847039B0A9A43449B1A042B054663
:1062600007D978B9134604330A93C8E76346521A2C
:10627000CBE70A9B0393B6E70A9B04933CE70A9B90
:106280000493B2E70A9B0393AFE77026304619B038
:10629000BDE8F08F4FF0000A4FE03A69616CD31D02
:1062A0001439B3FBF1F3013302EBC302236B9342C6
:1062B000BFF452AE5DE01C26E8E73D2D59D104F154
:1062C000080303932368079A606CA2EB030ABAFBE6
:1062D000F0FA00FB0A3022F0B2F8E16A804620466C
:1062E00021F0F3FCA26A8242D7D0626CD9F8083060
:1062F000511E0B40216B2668891A0B4423630D9BAA
:10630000E0629E1BB6FBF2F6B245C3D1079BB3EB2E
:10631000080A12D0E36B4FEA9A0241469B699847FC
:106320008346E36A079A5344E362236B03989B1AFC
:106330004344236321F0D7FEDA462368616CE06BA7
:1063400001FB063121F0F0FF204621F001FC204640
:1063500021F0FEFC2063BAF1000F9ED03A69616C17
:10636000D31D1439B3FBF1F3013302EBC3029042A6
:10637000A8D22E468AE700BFC0180020032A2DE9C4
:10638000F34106460D4617461C4606D1237A012BDB
:1063900023D0012002B0BDE8F081DFF860800968F9
:1063A00042460DF10703FFF7BFF960600028EDD109
:1063B0009DF80720237A032AE8D0D8F804106A68E9
:1063C0009142E3D1012B2969D4F80CC007D172693D
:1063D0000CEB0103934202D92074207CDAE70831E8
:1063E0006144E1603B46012229463046FFF79CFDAF
:1063F00060600028CAD00020CCE700BFEC18002065
:106400002DE9F341089C032A1746266806D1237A12
:10641000012B24D0012002B0BDE8F081DFF890808C
:10642000304642460DF10703FFF77EF96060002811
:10643000EDD12568D8F80400A96AD5F844C04840D1
:10644000CCF100031840227AE1D1012A09D1E26897
:10645000D8F8103013447269934202D92074207C1A
:10646000D9E72868EB6A1B1A081AB3FBFCF3B0FBE8
:10647000FCF083420BD1706CF36A421E1340326B06
:10648000121A13442846336321F01FFCE862D8F83F
:106490001020E36808321344E36001223B460449BC
:1064A0002068FFF741FD60600028B0D00020B2E70F
:1064B000EC1800202DE9F0410025634B0E46D3F87F
:1064C000008004461D6018B921252846BDE8F081EA
:1064D00090F8347007B30A6803689A4240F0AA80C3
:1064E0004A6843689A4240F0A5808A6883689A4265
:1064F00040F0A080CA68C3689A4240F09B800A6955
:1065000043699A4240F096808A69C36B9A4240F090
:1065100091804B698361D8E768223946856B2FF0FB
:1065200041FED6E90212336804F108002360736863
:10653000A5636360336963617369A36121F0E5FD5D
:10654000B36904F14000E3639B68984720B9676C26
:1065500017B16368B3FBF7F794F84330E761002B9A
:10656000B2D00023656C2366002D6BD0002F69D05C
:106570002368B3FBF5F205FB1233002B5CD167688F
:10658000B7FBF5F605FB1676002E55D1204621F017
:10659000ABFAA369043303449F424FD340F63472ED
:1065A0006369CC3B93424BD8B5F5805F4AD3032156
:1065B000204621F0C2FAD4E90001E36B1B6898473A
:1065C0000546E36B0220DB6898472DB184F8346000
:1065D000E06B21F04BFC78E741462046FFF78AF953
:1065E0006428054604D141462046FFF783F9054655
:1065F000636C143BD5B9226A204602FB03F621F0F6
:1066000073FAA369043303449E4203D284F83450DE
:106610005A25DDE70123D4E900010C4A84F834301F
:1066200013680133136021F00AFED1E7002384F8D8
:106630003430CDE75D2548E7592546E75A2544E73C
:106640005F2542E75B2540E7501200204C120020F6
:106650002DE9FF410C4616461F46054680B390F8CB
:1066600034307BB3B1F5801F2ED2DFF8608001217A
:1066700021F063FA2146424628460DF10F03FFF749
:1066800053F8044670B99DF80F30012B11D1D8F89A
:106690001030BB4212D10246009031462846FFF727
:1066A00055FB0446E86B21F0E1FB204604B0BDE851
:1066B000F081022B14BF2D246024F3E76324F1E75B
:1066C0002124F2E71124F0E72924EEE7181900202D
:1066D0002DE9F04385B00C4617461E460546DDF809
:1066E000308098B390F8343093B3B1F5801F31D235
:1066F000DFF86490012121F020FA21464A4628461D
:106700000DF10F03FFF710F8044688B99DF80F301C
:10671000012B14D1D9F8102006EB08039A4213D3A9
:1067200000904346324639462846FFF70FFB0446A1
:10673000E86B21F09BFB204605B0BDE8F083022BFF
:1067400014BF2D246024F3E76324F1E72124F2E74A
:106750001124F0E72924EEE7181900202DE9F34170
:106760001F4600230C46164605463B6050B390F882
:1067700034304BB3B1F5801F28D2DFF854800121AB
:1067800021F0DBF92146424628460DF10703FEF7CA
:10679000CBFF0446A0B99DF80730032B10D0022B85
:1067A0000AD10123336004233B60E86B21F05EFBD8
:1067B000204602B0BDE8F081D8F810303060F3E731
:1067C0002D24F2E72124F3E71124F1E72924EFE750
:1067D0001819002073B50446056B21F085F9636E26
:1067E00003449D422CBF00230123854294BF002512
:1067F0002D1A207C84F85030656584F85800A8B1C3
:1068000000230C4E1A4619462046009621F059FCEA
:10681000002305461A4619462046009621F05AFCE8
:10682000E3682844984294BF0020C01AE06502B093
:1068300070BD00BFFFFF0F002DE9F3471E464369FF
:106840000446B342884617469DF828904ED300254B
:106850008DF80750204621F047F9D4F830A0824542
:106860000AD2236AB5EB430F06D2002220460DF16F
:106870000701FFF78BF9B8B39DF80730012B05D15D
:10688000002220460DF10701FFF780F9B9F1030F4F
:1068900006D03146204621F017F9256B854227D3D3
:1068A000144D4FF0FF31284600F070F94B46294651
:1068B00000222046C5E90376C5F80080FFF734FBC7
:1068C000236E054663B12046FFF784FF94F85030ED
:1068D00013B994F858301BB1236E04F15000984757
:1068E000284602B0BDE8F0870135B3E76225F7E737
:1068F0001C25F5E7EC1800202DE9FF410F469046D6
:106900001E46054698B390F8343093B3B1F5801F16
:1069100031D21A4C022121F010F92246394628467C
:106920000DF10F03FEF700FF024678B10123424646
:106930000093394633462846FFF77EFF0446E86B4E
:1069400021F094FA204604B0BDE8F0819DF80F30A4
:10695000012BEBD12169B142E8D100934146334686
:106960002846FFF7F3F904460028DFD1E7E72124A2
:10697000E8E71124E6E72924E4E700BF181900201E
:1069800030B50C46054685B028B390F8343023B3B3
:10699000B1F5801F23D2022121F0CFF80DF10F03B2
:1069A000214628460F4AFEF7BFFE034688B99DF8E8
:1069B0000F20032A0DD003222146009202462846CA
:1069C000FFF73AFF0446E86B21F050FA204605B085
:1069D00030BD2D24F7E72124F8E71124F6E7292418
:1069E000F4E700BF181900202DE9F043466886B38C
:1069F000056898464FF0000CA946AE4655F83C4055
:106A00000CF1010CC4F31307013401D0B94217D0C3
:106A100066450EF1080EF1D12F46002403E0A64290
:106A200007F1080712D055F8343001340133F6D19C
:106A3000C1F3130141EA0851C7E90012BDE8F08330
:106A400041EA0851CEE90012BDE8F083B8F1030F26
:106A500003D101230372BDE8F083002303E09E42CB
:106A600009F10809F5D055F833400133C4F3075450
:106A7000032CF4D1C1F3130343EA0853C9E90032EC
:106A8000BDE8F0832DE9F0410646406882B0C0B110
:106A90000F4690460024336853F8345003EBC40388
:106AA000C5F30752C5F31301013504F1010406D003
:106AB0005B683046CDF80080B84710B170688442FA
:106AC000E9D302B0BDE8F081024B1968024B1868A7
:106AD000FFF7F0BCB0360020D036002008B531F00A
:106AE00080F8014B186008BD44190020014B18685C
:106AF00031F072B84419002073B504462248012AC7
:106B000000EAC1119DF8185023F07C4007D9961E69
:106B1000012E28D9073303F07F03194308E09DF8BD
:106B20001C300A43DB0603F0C053134343F06041BB
:106B30000023C4E900108DF80730B5B120222146AA
:106B40000DF1070021F097FC1A220DF10700211D1D
:106B500021F091FC082063689DF8072043EA8263D6
:106B6000636002B070BD1143E2E71B220DF1070024
:106B7000214621F080FC23689DF80720042043EA89
:106B8000C2632360EDE700BF80FFFF0738B5094B04
:106B90000D461A68002104462FF004FB00234FF035
:106BA000FF322383C4E900252361A260E382A37638
:106BB00038BD00BF5C9304080138C0B205289ABFF5
:106BC000014B185C01207047619304082DE9F041E6
:106BD0000746154600240E46596888B0490A01291F
:106BE00022464FEA510104F10104F8D8DC78997883
:106BF00024031B88C90201F4006104F480540C438F
:106C0000C3F30A035203234492B24FF000089C18C6
:106C1000274B6FEA0444039325F07843ED4302A920
:106C20000DF107001B2202938DF8078021F023FC51
:106C30009DF80720029B02A943EAC2630DF10700F9
:106C40001B2225F07845049302958DF8078021F0EA
:106C500012FC9DF80720029B6FEA144443EAC263CA
:106C600005934FF0FF330794069307A9BB690122F0
:106C700006F110009847BB6905A90446012206F1F8
:106C800008009847BB69404518BF044604A9012283
:106C9000301D98470122404518BF0446BB69304665
:106CA00003A99847404508BF204608B0BDE8F081D9
:106CB00001009AB2044BD3F88420D206FBD4D3F857
:106CC0008400C0F3811070470040005038B5174B66
:106CD0000546D3F828310C4603F00703013B052B8A
:106CE00020D8DFE803F003131B0F0B172FF0F4FC81
:106CF000052305B1286004B1236038BD2FF0ECFCFA
:106D00000623F6E72FF032FD0723F2E72FF024FDEC
:106D10000323EEE72FF020FD0423EAE72FF018FD10
:106D20000223E6E700231846E3E700BF0080005097
:106D3000002337B50193164B0546D3F820320C4695
:106D400003F00703042B21D8DFE803F0030B11162F
:106D50001B0001230DB1019A2A6004B1236003B026
:106D600030BD002101A8FFF7B1FF1223F2E72FF099
:106D7000FDFC07230190EDE730F028FF0A23019086
:106D8000E8E72FF03BFD09230190E3E70023E1E76B
:106D90000080005038B5104B0546D3F880300C46C3
:106DA00003F00303022B0BD0032B0DD0012B0FD1CB
:106DB0002FF098FC0E2305B1286004B1236038BD84
:106DC0002FF0D4FC0723F6E72FF086FC0623F2E72A
:106DD00000231846EFE700BF0080005038B5104B85
:106DE0000546D3F800310C4603F00303022B0BD009
:106DF000032B0DD0012B0FD12FF0AEFC032305B1D7
:106E0000286004B1236038BD2FF0F8FC0923F6E7B1
:106E10002FF0A8FC0823F2E701230020EFE700BFD2
:106E20000080005038B5184B0546D3F820010C46B9
:106E300000F00700062823D8DFE800F0040A0E1649
:106E4000121A1E00012305B1286004B1236038BD69
:106E50002FF042FC0523F6E72FF07EFC0323F2E738
:106E60002FF084FC0723EEE72FF072FC0223EAE701
:106E70002FF032FC0623E6E72FF06EFC0423E2E756
:106E800000231846DFE700BF0080005038B5104BE4
:106E90000546D3F840310C4603F00303022B0BD018
:106EA000032B0DD0012B0FD130F090FE0A2305B13A
:106EB000286004B1236038BD2FF0A0FC0923F6E759
:106EC00030F087FE0C23F2E701230020EFE700BF3C
:106ED00000800050002337B50193164B0546D3F8C8
:106EE00060320C4603F00703013B032B1FD8DFE899
:106EF00003F0020E1914002101A8FFF793FF1023DD
:106F00000DB1019A2A6004B1236003B030BD0021A5
:106F100001A8FFF7BBFF1123F2E72FF027FC07239F
:106F20000190EDE72FF014FC02230190E8E7002325
:106F3000E6E700BF00800050002337B50193164BF1
:106F40000546D3F894320C4603F00703013B032BAC
:106F50001FD8DFE803F0020E1914002101A8FFF783
:106F600061FF10230DB1019A2A6004B1236003B0C0
:106F700030BD002101A8FFF789FF1123F2E72FF0B0
:106F8000F5FB07230190EDE72FF0E2FB02230190D0
:106F9000E8E70023E6E700BF0080005038B5104B5B
:106FA0000546D3F860310C4603F00303022B0BD0E7
:106FB000032B0DD0012B0FD130F008FE0A2305B1B1
:106FC000286004B1236038BD2FF018FC0923F6E7D0
:106FD00030F0FFFD0C23F2E701230020EFE700BFB4
:106FE000008000502E4B98424AD022D82D4B984218
:106FF00040D014D82C4B984239D00AD82B4B984209
:1070000032D02B4B98422FD02A4B98422CD00020C4
:107010007047294B9842FAD1284B186F7047284B7C
:1070200098422AD0274B9842F1D1244BD3F88000C4
:107030007047254B98422BD009D8244B984223D037
:10704000234B9842E3D11D4BD3F88C007047214B62
:10705000984221D003F5740303F510539842D6D11A
:10706000164BD3F898007047144B986D7047134B2C
:10707000586E7047114B586F7047104B986F7047A0
:107080000E4BD3F8840070470C4BD3F88800704740
:107090000A4BD3F890007047084BD3F89400704720
:1070A0000048E8010024F400C0CF6A0080841E007C
:1070B00000093D0040420F00405DC6000080E00F27
:1070C000C0EA210180BA8C01007E560380D54302BC
:1070D000006CDC020090D00373B50D460021114B0B
:1070E0000191D3F88041064604F00304022C13D02A
:1070F000032C0CD0012C13D101A8FFF793FE102410
:107100000EB1019B336005B12C6002B070BD2FF051
:107110002DFB07240190F3E72FF01AFB0190EFE716
:107120000C46EDE70080005038B5104B0546D3F80B
:1071300040320C4603F00303022B0BD0032B0DD07F
:10714000012B0FD130F042FD0A2305B1286004B1B4
:10715000236038BD2FF052FB0923F6E730F039FDEC
:107160000C23F2E701230020EFE700BF008000506E
:1071700038B5144B0546D3F800020C4600F0070062
:1071800004281BD8DFE800F003090D1115000123C6
:1071900005B1286004B1236038BD30F017FD0A2323
:1071A000F6E72FF02BFB0923F2E730F012FD0C235A
:1071B000EEE72FF0B7FA0F23800AE9E7002318461D
:1071C000E6E700BF0080005038B5144B0546D3F801
:1071D00008020C4600F0070004281BD8DFE800F086
:1071E00003090D111500012305B1286004B12360C6
:1071F00038BD30F0EBFC0A23F6E72FF0FFFA092345
:10720000F2E730F0E6FC0C23EEE72FF08BFA0F23C9
:10721000800AE9E700231846E6E700BF0080005037
:10722000B0F5207F1FD009D8B0F5007F15D003D866
:1072300068B1B0F5C07F0AD000200CE0B0F5607FE7
:10724000FAD10B4BD3F88000C0F3011003E0084BD8
:10725000186FC0F3033001307047054BD3F890002E
:10726000C0F30460F7E7024B186FC0F38020F2E729
:107270000080005002464FF48030104B10B59866E5
:107280000020FFF7CDFF504341F671320C4BDC6913
:10729000DA635A6804F4803422F4401259B9094977
:1072A000884294BF00200120000502435A600CB1BF
:1072B0000022DA6310BD0449F2E700BF00900050DD
:1072C00000000350005A6202002D3101430905D02D
:1072D000012B0CD0022B084B18BF002300F01F001D
:1072E00039B103F58053012282401A607047034B85
:1072F000F4E703F50053F6E768800050648000501F
:107300001FB50021B0F5807F0446CDE9001100F0E3
:10731000D2803AD85E2833D85E2833D8DFE800F030
:10732000453232323232323232323232323232322A
:10733000323232323232323232323232323232322D
:1073400045AC45ACBCBCBCBCBCACC64E6BDC4EACAE
:10735000ACAC3232323232323232ACACAC7EE6AC31
:1073600032323232323232323232323232BC45454D
:1073700045E14E4EEB8D63C132323232329E4500D2
:10738000802870D0009804B010BDB0F5D06F00F028
:10739000A38035D8B0F5607F79D01AD8B0F5007FDA
:1073A00065D005D8B0F5C07FECD12FF0BBF95CE01B
:1073B000B0F5207F60D0B0F5407FE3D12FF0B2F977
:1073C00002464FF42070FFF72BFFB2FBF0F2520899
:1073D0005BE0B0F5B06F69D00AD8B0F5806F5BD0D4
:1073E000B0F5A06FCED100216846FFF7A1FCC9E738
:1073F000B0F5C06FC6D100216846FFF747FDC1E771
:10740000B0F5106F6DD00ED8B0F5086F78D0B9D840
:10741000B0F5E06F6AD0B0F5F06FB3D100216846E7
:10742000FFF7BCFDAEE7B0F5406F3AD013D8B0F52A
:10743000206F60D0B0F5286FA4D10021324B0391AA
:10744000D3F8703203F00303012B02D103A8FFF736
:107450001DFD039B39E0B0F5486F93D100216846CC
:10746000FFF76AFD8EE72FF03DF900908AE72FF0D5
:1074700039F90246204604E02FF054F902464FF451
:107480002070FFF7CDFEB2FBF0F200927AE701A880
:10749000FFF780FC019AEDE700216846FFF7C2FC88
:1074A00070E700216846FFF711FC6BE70021684692
:1074B000FFF712FE66E74FF0E02302911B695B07BE
:1074C00005D52FF02FF90290029B00935AE703A9EC
:1074D00002A8FFF7DBFCF7E700216846FFF748FE4C
:1074E00050E700216846FFF76FFE4BE70021684632
:1074F000FFF71AFE46E700216846FFF7EBFC41E77D
:107500006846FFF76BFC3DE70080005008B580201F
:10751000FFF7F6FE034B98429EBF4FF48032024BBA
:107520001A6708BD005A620200A000501FB503464A
:107530000020B3F5807F019000F0C58065D85D2BF9
:1075400056D84C2B07D82D2B48D8232B2CD8019854
:1075500005B05DF804FB4D3B102BF8D801A252F8A2
:1075600023F000BFBD7601084F7501084F75010873
:107570004F7501086B7601084F7501084F750108BA
:1075800017770108897601082F7601080D77010821
:107590004F7501084F7501084F7501084F750108B7
:1075A0004F75010821770108243B092BCFD801A290
:1075B00052F823F0BD760108BD760108BD760108BA
:1075C000BD760108BD7601084F750108B376010844
:1075D0004F7501084B760108F37601083D2B00F04A
:1075E00083803E2BB3D1002001A9FFF79DFDAEE7BC
:1075F000802BACD1504B1B6F03F00703013B032BD7
:10760000A5D8DFE803F0544D5052B3F5F06F6BD0BE
:1076100020D8B3F5B06F4CD00ED8B3F5607F71D0E1
:1076200095D3B3F5806F49D0B3F5A06F8FD100200B
:1076300001A9FFF77DFB8AE7B3F5D06F59D0B3F509
:10764000E06FD0D0B3F5C06F81D1002001A9FFF762
:107650001DFC7CE7B3F5206F5DD00BD8B3F5086F48
:107660004CD0B3F5106F7FF472AF002001A9FFF783
:10767000ABFD6CE7B3F5406F48D0B3F5486F4FD022
:10768000B3F5286F7FF463AF2B4BD3F8703203F060
:107690000303012B49D0022B0CBF1523002300E06C
:1076A0000523019353E70323FBE70823F9E70223AC
:1076B000F7E7002001A9FFF70FFD48E7002001A927
:1076C000FFF7B0FB43E74FF0E02302901B695B0735
:1076D00005D52FF027F80D230393039BE1E703A9BA
:1076E00002A8FFF7D3FBF8E7002001A9FFF756FC3B
:1076F0002DE7002001A9FFF73BFD28E701A9FFF7CF
:107700006DFB24E701A9FFF745FB20E7002001A955
:10771000FFF7DCFA1BE7002001A9FFF7DBFB16E708
:10772000002001A9FFF708FC11E7002103A8FFF7DB
:10773000ADFB1123B5E700BF008000504FF480324D
:10774000074B0849586E03F580535A664B6A23F07D
:1077500001034B62C3035CBF034B5A66704700BF13
:107760000080005000C0075000A0005008B5FFF78F
:10777000DDFE092811D00A38012802D94FF6FF7022
:1077800008BD4FF48002064B5A6603F5D8335B6A96
:10779000DB07F3D54FF4FA70F2E7024B1888EFE7F6
:1077A00000900050D038002008B5FFF7BFFE032836
:1077B0000ABF024B4FF6FF70188808BDCE38002074
:1077C00038B504468020FFF7B1FE032800F083801F
:1077D0004FF48012524B4FF0A0615A6645F60E02EC
:1077E000504BC3F88020504A91624FF4803102F52B
:1077F000805291629A6DD203FCD4996D11F0804150
:10780000FBD1D4E90002120542EA0062E07B0243A8
:10781000207B42EA0042607B42EA0032A07B42EADF
:1078200080121A619869D4E90452120642EA85620C
:1078300000F000400243A07EE57E0243207E42EA43
:107840000042607E42EA00229A611A6AE06922F0F0
:107850000F0242EA8502354D00283DD11A6294F8A4
:107860002420996A94F82000D200294042EA40126C
:107870000A4394F8211042EA011242F480329A62DB
:107880002B49284A936D31EA0303FBD14FF08071F5
:10789000254881621369A56823F4700343EA055300
:1078A00013614FF00043836194F822300BB9214BF0
:1078B000996294F823303BB94FF480321D4B9A62A1
:1078C000184A936D5B00FCD494F825301BB1154B1E
:1078D000194AC3F8802038BD024342F0080202284A
:1078E0001A6208D119614FF40852996113484FF494
:1078F0007F4120F0DEFD0B4994F822308A6A94F82B
:1079000020001B062A4043EA4013134394F8242026
:1079100043EAC20394F8232043EA02438B62D3E78D
:10792000009000500040005A0050005AC7FFFEFE71
:10793000030001000060005AF1A7FFFF3440005A25
:10794000014B93F900007047E9380020F0B5D0E909
:1079500001434FF400061A4A4178057856664FF401
:10796000D156022702F5B8325662164E4F2977607B
:107970004FF0010728BF4F2106F580567760166942
:10798000F603FCD441EA052151611B01417B43EA26
:1079900004230B43017B43EA41039360C37B817B58
:1079A0001B0143EA4113417C0B43017C43EA410341
:1079B0005360837C13B16FF4D1535362F0BD00BFA9
:1079C0000090005000100250014B1880704700BF1B
:1079D000D0380020014B1880704700BFCE380020FF
:1079E0004FF4800208B5184B5A660223174A5360B9
:1079F000936813F48033FBD1012822D12EF0ACFE22
:107A0000134B984215D003F5122303F5F8639842FF
:107A100013D0104B00EB8002400AB3FBF0F3520A84
:107A20000A49CA620B6301234B620022074B5A606A
:107A300008BD45F67A13084AF2E745F61A03074AE5
:107A4000EEE75362F1E700BF0090005000400250A3
:107A500000F0490264666666D8B80500BBCF050031
:107A6000B0F5207F10B50C465DD008D8B0F5007F8A
:107A70004ED003D8C0B1B0F5C07F15D010BDB0F561
:107A8000607FFBD12C4B4C1ED3F8FC202B4912F00D
:107A9000807F4FEA041427D1D1F8803023F03003DF
:107AA0002343C1F88030E9E720F012FD20F01EFDED
:107AB0004FF48031224B214A1967136F013C23F4A4
:107AC000704343EA043313672EF02CFE0446FFF79D
:107AD000F1F8C0F10201204620F002FD00F04AF862
:107AE000BDE81040FFF712BDD3F8FC2022F08072F1
