:020000040800F2
:100000000010002039040008EB290008EB29000843
:10001000EB290008EB290008EB290008EB29000870
:10002000EB290008EB290008EB290008EB29000860
:10003000EB290008EB290008EB290008EB29000850
:10004000EB290008EB290008EB290008EB29000840
:10005000EB290008EB290008EB290008EB29000830
:10006000EB290008EB290008EB290008EB29000820
:10007000EB290008EB290008EB290008EB29000810
:10008000EB290008EB290008EB290008EB29000800
:10009000EB290008EB290008EB290008EB290008F0
:1000A000EB2900084D0800082D080008EB2900087E
:1000B000EB290008EB290008EB290008EB290008D0
:1000C000EB290008EB290008EB290008EB290008C0
:1000D000EB290008EB290008EB290008EB290008B0
:1000E000EB290008EB290008EB290008EB290008A0
:1000F000EB290008EB290008EB290008EB29000890
:10010000EB290008EB290008EB290008EB2900087F
:10011000EB290008EB290008EB290008EB2900086F
:10012000EB290008EB290008EB290008EB2900085F
:10013000EB290008EB290008EB290008EB2900084F
:10014000EB290008EB290008EB290008EB2900083F
:10015000EB290008EB290008EB290008EB2900082F
:10016000EB290008EB290008EB290008EB2900081F
:10017000013800D0FCE770470348044B834202D0AB
:10018000034B03B118477047A8110020A8110020A5
:1001900000000000064B0749C91A891048BF013109
:1001A000491003D0044B0BB101481847704700BFFA
:1001B000A8110020A81100200000000010B5064C76
:1001C000237843B9FFF7D8FF044B13B10448AFF3CA
:1001D00000800123237010BD841100200000000066
:1001E000D034000808B5054B1BB105490548AFF3ED
:1001F0000080BDE80840FFF7CDBF00BF0000000051
:1002000000100020D0340008A3F5803A704700BFEA
:10021000174B002B08BF134B9D46FFF7F5FF00213E
:100220008B460F461348144A121A02F007FD0E4B74
:10023000002B00D098470D4B002B00D09847002092
:10024000002104000D000D48002802D00C48AFF337
:10025000008002F08BFB2000290002F0E5FC02F098
:1002600073FB00BF00000800000000000000000059
:100270000010002000100020881100200000000065
:100280000000000008B5044802F043FE02F0A9FC9B
:10029000BDE8084000F008B8D8330008014802F073
:1002A00038BE00BFD83300082DE9F04F544E97B048
:1002B000354609AC0FCD0FC42B6806F11405236039
:1002C0000EAC0FCD0FC495E80F00DFF84C8184E829
:1002D0000F004C4802F01DFE404602F01AFE4FF49B
:1002E0008073494FADF83C30484B38460B9309A911
:1002F0000EAB0D9301F000FF0421B6F834B00DEB06
:1003000001000122ADF804B000F0C4F9B6F836A03F
:100310000022012102A8ADF808A000F0BBF9B6F850
:1003200038900122042103A8ADF80C9000F0B2F936
:10033000758F0122042104A8354CADF8105000F04F
:10034000A9F9344B4FF44870C4F8C8344FF0021385
:10035000C4F8C434A3F58033C4F8CC341C23C4F8E7
:10036000B43402F0B9FA08A8ADF8205000F0FEF954
:10037000142002F0B1FA08A8ADF8205000F0CAF934
:10038000232002F0A9FA08A8ADF8205000F0EEF9F9
:10039000B921384602F0DCFB08A8ADF8205000F087
:1003A000B9F9002205A81146ADF814B000F072F9B1
:1003B000002206A81146ADF818A000F06BF9012242
:1003C000002107A8ADF81C9000F064F9012200217B
:1003D00008A8ADF8205000F05DF9384601F046FD60
:1003E00000234046C4F8B434C4F8C834C4F8C43454
:1003F000C4F8CC3402F090FD17B0BDE8F08F00BF18
:1004000018300008D833000800000A50E07072006D
:1004100000C0035002000300DC3300080348044A14
:100420000449121A921002F0E1BA00BF70010008EC
:10043000700100088811002008B5154B83F30A8865
:1004400000F030F8FFF7EAFF124B13498B4212D34A
:100450000020124B12498B4218D3FFF7D9FE1868BF
:1004600050F82240586840F8224001329868824291
:10047000F5D30C33EAE70022F8E71C6844F82200C1
:1004800001325C68A242F8D30833E4E70022F8E7BF
:1004900000000020D8340008E4340008E4340008E8
:1004A000E43400084FF48041124B134A70B59A604F
:1004B000D3F88820114D42F47002C3F88820104A06
:1004C00005F5005491664FF0FF3222660D4A6266D0
:1004D0000222C3F8D020BFF34F8FBFF36F8F4FF4CA
:1004E0004036002002F06EF90020E66002F038F994
:1004F0002E6170BD00ED00E00000000800800044A7
:1005000000900050F7FF3700014B1860704700BFA4
:100510008C110020054B1860054B1B6F03F007037F
:10052000032B01D102F0B8BB704700BF941100202B
:1005300000800050002307B52948019302F0E9FC30
:100540004FF44073012204216846ADF8003000F0FA
:10055000A1F80122234B0520C3F8442401A902F08D
:10056000D3FC002839D1204BD3F8F02042F001020F
:10057000C3F8F020D3F8FC2042F08072C3F8FC20CE
:100580001A4AA3F55D431A60019B194A03F5D52366
:1005900003F2FC43B3FBF2F3164A013B136102235F
:1005A000C2F8F0304FF48073C2F804334FF0604368
:1005B000114AC3F8B02F114AC3F8802ED3F8002E89
:1005C00042F48072C3F8002EFF2283F82020D3F873
:1005D000002E22F48072C3F8002E03B05DF804FBF5
:1005E000D833000800D0035000ED00E0FF030040C6
:1005F000F8590D00000004E055CEACC5090001001B
:100600002DE9F04104460C254FF00108124E0CB3C1
:1006100014F001000BD0002024F0010405FB00625F
:100620005768002FF3D09168C0B2B847EFE7224671
:10063000013020284FEA520201D0D307F8D508FA3A
:1006400000F20F2824EA0204E8D9103805FB006202
:10065000B432E5E7BDE8F0811810002008B50C4879
:1006600002F057FC192002F095F828B1192002F089
:10067000A9F8192002F074F81A2002F08BF828B1BA
:100680001A2002F09FF81A2002F06AF8002008BD34
:10069000D83300082DE9F0410E469046044638B99B
:1006A00093211A4802F09FF922252846BDE8F081DF
:1006B0000F290CD8037883B1012B03D0022B0CD067
:1006C000032B04D13F236278D340DB0708D4972162
:1006D0000E4802F088F92125E7E740F2FF33F2E700
:1006E0000B4BD3F810532DB19B21084802F07BF936
:1006F0000225DAE702F0FCFB074642462046314677
:1007000001F06AFE384602F0EEFBCEE754300008F6
:1007100000C0035038B5044628B91348E42102F05C
:1007200062F9222038BD037883B1012B03D0022B5C
:100730000CD0032B04D13F236278D340DB0708D4CD
:100740000948E82102F04FF92120EBE740F2FF339E
:10075000F2E702F0CDFB0546204602F03DFB2846BD
:1007600002F0C1FB0020DDE75430000838B5044634
:1007700028B91448FC2102F036F9222038BD03784C
:100780008BB1012B03D0022B0DD0032B04D13F23BF
:100790006278D340DB0709D40A484FF4807102F035
:1007A00022F92120EAE740F2FF33F1E702F0A0FB53
:1007B0000546204601F0B0FD284602F094FB0020DB
:1007C000DCE700BF5430000870B50D46044600B1A8
:1007D00031B9154840F22D1102F005F9222070BD03
:1007E00003788BB1012B03D0022B0DD0032B04D146
:1007F0003F236278D340DB0709D40B4840F2311124
:1008000002F0F1F82120EAE740F2FF33F1E702F0CD
:100810006FFB0646204601F0A9FD2870304602F025
:1008200062FB0020DBE700BF5430000808B501F090
:10083000C9FD054B00F0553020F05020C3F82004CE
:10084000BDE80840FFF7DCBE00E0035008B501F04A
:10085000B9FD054B00F0AA3020F0A020C3F8200419
:10086000BDE80840FFF7CCBE00E0035013B50446D6
:100870000A4802F04EFBA2780421B2FA82F22378F1
:1008800052098DF8043063780DEB01008DF80530C6
:10089000FFF700FF002002B010BD00BFD8330008F2
:1008A000044BD3F88420D206FBD4D3F88400C0F3E1
:1008B000811070470040005038B5104B0546D3F802
:1008C00000310C4603F00303022B0BD0032B0DD099
:1008D000012B0FD102F0FAF9032305B1286004B10E
:1008E000236038BD02F044FA0923F6E702F0F4F978
:1008F0000823F2E701230020EFE700BF008000504B
:1009000038B5104B0546D3F840310C4603F00303CD
:10091000022B0BD0032B0DD0012B0FD102F0EEFADE
:100920000A2305B1286004B1236038BD02F020FA23
:100930000923F6E702F0E5FA0C23F2E70123002091
:10094000EFE700BF0080005038B5104B0546D3F8E4
:1009500060310C4603F00303022B0BD0032B0DD0A8
:10096000012B0FD102F0CAFA0A2305B1286004B1A5
:10097000236038BD02F0FCF90923F6E702F0C1FA62
:100980000C23F2E701230020EFE700BF00800050B6
:1009900038B5104B0546D3F840320C4603F003033C
:1009A000022B0BD0032B0DD0012B0FD102F0A6FA96
:1009B0000A2305B1286004B1236038BD02F0D8F9DC
:1009C0000923F6E702F09DFA0C23F2E70123002049
:1009D000EFE700BF0080005038B5124B0546D3F852
:1009E00080300C4603F00303022B0BD0032B0DD0F9
:1009F000012B0FD102F030F90E2305B1286004B1AC
:100A0000236038BD02F06CF90723F6E702F01EF907
:100A10000623F2E7044841F2142101F0E4FF002329
:100A20001846EAE700800050AB30000838B51A4B92
:100A30000546D3F820010C4600F00700062821D80F
:100A4000DFE800F028040C1410181C0002F0FEF877
:100A5000052305B1286004B1236038BD02F036F9E2
:100A60000323F6E702F03CF90723F2E702F02AF944
:100A70000223EEE702F0EAF80623EAE702F026F99D
:100A80000423E6E7054841F2912101F0ACFF002381
:100A90001846DEE70123DCE700800050AB30000899
:100AA00038B5194B0546D3F828310C4603F0070337
:100AB000013B052B20D8DFE803F003131B0F0B17B6
:100AC00002F0C4F8052305B1286004B1236038BDE5
:100AD00002F0BCF80623F6E702F002F90723F2E77A
:100AE00002F0F4F80323EEE702F0F0F80423EAE75B
:100AF00002F0E8F80223E6E7044841F2990101F028
:100B000072FF00231846DEE700800050AB3000087B
:100B1000002337B50193194B0546D3F820320C4614
:100B200003F00703042B1FD8DFE803F025030F149D
:100B30001900002101A8FFF7B3FF12230DB1019A9C
:100B40002A6004B1236003B030BD02F0C9F8072366
:100B50000190F3E702F0D2F90A230190EEE702F0E8
:100B600007F909230190E9E741F25601044801F031
:100B70003AFF0023E2E70123E0E700BF00800050D6
:100B8000AB300008F7B50027144B0197D3F880412C
:100B9000064604F00304022C0D4614D0032C0DD09D
:100BA000012C14D1394601A8FFF740FF10240EB1E3
:100BB000019B336005B12C6003B0F0BD02F090F8EA
:100BC00007240190F3E702F07DF80190EFE741F28E
:100BD000E631034801F007FF3C46E8E7008000509B
:100BE000AB30000838B5164B0546D3F800020C466A
:100BF00000F00700042819D8DFE800F020030B0FED
:100C0000130002F07BF90A2305B1286004B12360C8
:100C100038BD02F0ADF80923F6E702F072F90C23B3
:100C2000F2E702F039F80F23800AEDE7054841F2B8
:100C3000A44101F0D8FE00231846E5E70123E3E7CD
:100C400000800050AB30000838B5164B0546D3F88D
:100C500008020C4600F00700042819D8DFE800F06D
:100C600020030B0F130002F049F90A2305B1286095
:100C700004B1236038BD02F07BF80923F6E702F0E7
:100C800040F90C23F2E702F007F80F23800AEDE7A2
:100C9000054841F2DC4101F0A6FE00231846E5E7D5
:100CA0000123E3E700800050AB300008002337B594
:100CB0000193184B0546D3F860320C4603F0070346
:100CC000013B032B1FD8DFE803F0020E19140021AB
:100CD00001A8FFF7ABFE10230DB1019A2A6004B101
:100CE000236003B030BD002101A8FFF709FE1123E6
:100CF000F2E701F0F5FF07230190EDE701F0E2FFD5
:100D000002230190E8E741F2FD01034801F06BFE88
:100D10000023E1E700800050AB300008002337B526
:100D20000193184B0546D3F894320C4603F00703A1
:100D3000013B032B1FD8DFE803F0020E191400213A
:100D400001A8FFF773FE10230DB1019A2A6004B1C8
:100D5000236003B030BD002101A8FFF7D1FD1123AE
:100D6000F2E701F0BDFF07230190EDE701F0AAFFD4
:100D700002230190E8E741F23011034801F033FE0D
:100D80000023E1E700800050AB30000873B5002479
:100D90000F4B0194D3F87032064603F00303012B86
:100DA0000D4607D0022B11D041F25B11094801F02A
:100DB0001AFE04E0214601A8FFF7A2FD11240EB19E
:100DC000019B336005B12C6002B070BD1524F6E7BD
:100DD00000800050AB30000808B5334B98424FD02C
:100DE00027D8324B984245D017D8314B98423ED045
:100DF0000AD838B12F4B984239D041F2BB312E4836
:100E000001F0F1FD002034E02C4B98422FD02C4B08
:100E10009842F2D12B4B586E2BE02B4B98422CD0A2
:100E200003F5371303F5D8639842E6D1254B986F45
:100E30001FE0264B98422FD00CD8254B984223D048
:100E4000244B984224D0244B9842D6D11D4BD3F842
:100E500084000EE0214B984222D003F5740303F581
:100E600010539842C9D1174BD3F8980001E0154BA5
:100E7000986D08BD134B186FFBE7124B586FF8E7DE
:100E8000104BD3F88000F4E70E4BD3F88800F0E75E
:100E90000C4BD3F88C00ECE70A4BD3F89000E8E752
:100EA000084BD3F89400E4E780BA8C01405DC6009B
:100EB00080841E0040420F00AB30000800093D0056
:100EC000C0CF6A000080E00F0024F400007E5603CB
:100ED00080D54302006CDC020048E8010090D0039A
:100EE000B0F5207F10B52ED009D8B0F5007F24D002
:100EF00003D868B1B0F5C07F0AD000241BE0B0F57C
:100F0000607FFAD1124BD3F88040C4F3011412E091
:100F10000F4B1C6F230B13F00E0FC4F303340AD0D6
:100F2000072C08D00F2C06D0032C04D04FF42271CC
:100F3000084801F058FD601C10BD054BD3F89040E7
:100F4000C4F30464F7E7024B1C6FC4F38024F2E798
:100F500000800050AB3000084FF4803238B5104BA1
:100F600004469A6600200D46FFF7BAFF41F671323B
:100F70000C4B6043DC69DA635A6804F4803422F471
:100F800040125DB90849884294BF00200120000545
:100F900002435A600CB10022DA6338BD0349F2E71C
:100FA0000090005000000350005A6202002D3101F1
:100FB000002130B5B0F5807F85B00446CDE9001141
:100FC00000F0D3803DD85E2833D85E2833D8DFE8E0
:100FD00000F048323232323232323232323232324F
:100FE00032323232323232323232323232323232E1
:100FF000323248AD48ADBDBDBDBDBDADC7516EDDE2
:1010000051ADADAD3232323232323232ADADAD8170
:10101000E7AD32323232323232323232323232BDF5
:10102000484848E25151EC9066C23232323232982E
:10103000480080286AD040F2A441604801F0D3FC07
:1010400067E0B0F5D06F00F0A18035D8B0F5607FD3
:1010500077D01AD8B0F5007F5ED005D8B0F5C07F44
:10106000E9D101F019FE53E0B0F5207F5ED0B0F574
:10107000407FE0D101F010FE04464FF42070FFF7EE
:101080002FFFB4FBF0F4640859E0B0F5B06F67D0FF
:101090000AD8B0F5806F59D0B0F5A06FCBD1002140
:1010A0006846FFF735FD34E0B0F5C06FC3D10021CD
:1010B0006846FFF725FC2CE0B0F5106F6BD00ED81A
:1010C000B0F5086F76D0B6D8B0F5E06F68D0B0F55F
:1010D000F06FB0D100216846FFF736FC19E0B0F59B
:1010E000406F38D00AD8B0F5206F5ED0B0F5286FC9
:1010F000A1D100216846FFF749FE0AE0B0F5486F2C
:1011000099D100216846FFF709FE02E001F0A4FD35
:101110000090009805B030BD01F09EFD05462046C8
:10112000FFF7DEFEB5FBF0F50095F2E701F0B4FD48
:1011300004464FF42070FFF7D3FEB4FBF0F40094A4
:10114000E7E701A8FFF748FC019DE8E700216846B2
:10115000FFF76CFCDDE700216846FFF7A1FCD8E74C
:1011600000216846FFF70EFDD3E74FF0E023029120
:101170001B695B0705D501F08FFD0290029B009370
:10118000C7E703A902A8FFF7BBFBF7E70021684602
:10119000FFF728FDBDE700216846FFF755FDB8E7DA
:1011A00000216846FFF7F4FBB3E700216846FFF72C
:1011B0007DFDAEE76846FFF77FFBAAE7AB3000088E
:1011C00008B58020FFF7F4FE034B98429EBF4FF412
:1011D0008032024B1A6708BD005A620200A000501C
:1011E0001FB503460020B3F5807F019000F0C58055
:1011F00063D85D2B54D84C2B06D82D2B46D8232BE7
:101200002AD840F28951A7E04D3B102BF9D801A212
:1012100052F823F0711300080312000803120008AB
:10122000031200081B130008031200080312000831
:10123000CB13000839130008DF120008C11300089F
:10124000031200080312000803120008031200082A
:1012500003120008D5130008243B092BD1D801A2A2
:1012600052F823F07113000871130008711300087D
:1012700071130008711300080312000861130008BD
:1012800003120008FB120008A71300083D2B00F012
:1012900085803E2BB5D1002001A9FFF779FB63E0E3
:1012A000802BAED14E4B1B6F03F00703013B032B8A
:1012B00050D8DFE803F04D46494BB3F5F06F6DD0E1
:1012C00020D8B3F5B06F4BD00ED8B3F5607F73D094
:1012D00097D3B3F5806F4BD0B3F5A06F91D10020B9
:1012E00001A9FFF715FC3FE0B3F5D06F5BD0B3F574
:1012F000E06FD0D0B3F5C06F83D1002001A9FFF714
:10130000FFFA31E0B3F5206F5FD00BD8B3F5086F6B
:101310004ED0B3F5106F7FF474AF002001A9FFF732
:1013200093FC21E0B3F5406F4AD0B3F5486F51D03C
:10133000B3F5286F7FF465AF002001A9FFF726FD04
:1013400012E0052301930FE00323FBE70823F9E7ED
:101350000223F7E740F2D641224801F044FB03E0C4
:10136000002001A9FFF70EFC019805B05DF804FB11
:10137000002001A9FFF75AFBF6E74FF0E0230290A7
:101380001B695B0705D501F087FC0D230393039BC5
:10139000D8E703A902A8FFF7B3FAF8E7002001A9EC
:1013A000FFF7D2FAE0E7002001A9FFF71BFCDBE71B
:1013B00001A9FFF781FAD7E701A9FFF70DFBD3E7F2
:1013C000002001A9FFF76CFBCEE7002001A9FFF781
:1013D0006DFCC9E7002001A9FFF7A0FCC4E700BF2E
:1013E00000800050AB3000084FF48032074B0849B2
:1013F000586E03F580535A664B6A23F001034B6223
:10140000C3035CBF034B5A66704700BF00800050A7
:1014100000C0075000A0005038B5036804460F2BE9
:1014200004D940F68A317C4801F0DDFA63680F2B5D
:1014300004D940F68D31784801F0D5FAA3680F2B16
:1014400004D94FF43961744801F0CDFA237B0F2B96
:1014500004D940F69331704801F0C5FA637B0F2B35
:1014600004D940F696316C4801F0BDFAA37B3F2BBE
:1014700004D940F69931684801F0B5FAE37B3F2B77
:1014800004D940F69C31644801F0ADFA2369032B7E
:1014900004D940F69F31604801F0A5FA6369032B37
:1014A00004D940F6A2315C4801F09DFAE369032BB0
:1014B00004D940F6A531584801F095FA8020FFF78D
:1014C0008FFE032800F083804FF48012534B4FF0BF
:1014D000A0615A6645F60E02514BC3F88020514A6E
:1014E00091624FF4803102F5805291629A6DD2037D
:1014F000FCD4996D11F08041FBD1D4E900021205B2
:1015000042EA0062E07B0243207B42EA0042607BC9
:1015100042EA0032A07B42EA80121A619869D4E95B
:101520000452120642EA856200F000400243A07EA7
:10153000E57E0243207E42EA0042607E42EA0022CB
:101540009A611A6AE06922F00F0242EA8502364D7A
:1015500000283DD11A6294F82420996A94F820005A
:10156000D200294042EA40120A4394F8211042EA8C
:10157000011242F480329A622C49294A936D31EA71
:101580000303FBD14FF08071264881621369A5687F
:1015900023F4700343EA055313614FF00043836162
:1015A00094F822300BB9224B996294F823303BB95E
:1015B0004FF480321E4B9A62194A936D5B00FCD443
:1015C00094F825301BB1164B1A4AC3F8802038BD59
:1015D000024342F0080202281A6208D119614FF44E
:1015E0000852996114484FF47F4101F06FFA0C4999
:1015F00094F822308A6A94F820001B062A4043EAB5
:101600004013134394F8242043EAC20394F82320A0
:1016100043EA02438B62D3E7AB30000800900050EE
:101620000040005A0050005AC7FFFEFE03000100B0
:101630000060005AF1A7FFFF3440005A014B93F9B4
:10164000000070479C110020436810B5072B04462A
:1016500004D940F6E6512A4801F0C5F9A368032BE6
:1016600004D940F6E851264801F0BDF92378032B50
:1016700004D940F6EA51224801F0B5F994F9013055
:10168000002B04DA40F6EC511D4801F0ACF94FF4A0
:1016900000011C4A637851664FF4D151022002F5D3
:1016A000B832516218494F2B48604FF0010028BFF3
:1016B0004F2301F5805148601169C903FCD421789A
:1016C00043EA01235361D4E901131B0143EA0123D7
:1016D000617B0B43217B43EA41039360E37BA17B66
:1016E0001B0143EA4113617C0B43217C43EA410324
:1016F0005360A37C13B16FF4D153536210BD00BF8C
:10170000AB3000080090005000100250014B1880D0
:10171000704700BF9A110020014B1880704700BF2E
:10172000981100204FF4800208B5184B5A66022326
:10173000174A5360936813F48033FBD1012822D1F8
:1017400001F0C4FA134B984215D003F5122303F5A8
:10175000F863984213D0104B00EB8002400AB3FBB1
:10176000F0F3520A0A49CA620B6301234B6200225A
:10177000074B5A6008BD45F67A13084AF2E745F66A
:101780001A03074AEEE75362F1E700BF00900050EA
:101790000040025000F0490264666666D8B8050051
:1017A000BBCF0500B0F5207F38B577D00ED8B0F5A7
:1017B000007F61D003D890B3B0F5C07F2FD04FF435
:1017C0004671BDE838403D4801F00DB9B0F5607F85
:1017D000F5D13B4A4C1ED2F8FC5015F080751EBF67
:1017E000D2F8FC3023F08073C2F8FC30032C04D90B
:1017F00040F2F721314801F0F6F8324AD2F8803051
:1018000023F0300343EA0413C2F8803035B12C4A88
:10181000D2F8FC3043F08073C2F8FC3038BD4C1E67
:10182000012C0AD9102903D8274BCB40DB0704D45D
:1018300040F2CB21214801F0D6F801F056F901F031
:1018400062F94FF48031214B1E4A1967136F23F45C
:10185000704343EA0433136701F01EFA0446FFF7AE
:101860001FF8C0F10201204601F047F900F048F8E6
:10187000BDE83840FFF7A4BC4C1E1F2C04D94FF420
:1018800043710E4801F0AFF80E4AD2F8903023F0C1
:10189000F85343EA0463C2F89030BFE74C1E012CB2
:1018A00004D940F21231054801F09DF8054A136F42
:1018B00023F4806343EA84231367AFE7AB30000867
:1018C00000ED00E000800050100101000090005089
:1018D00008B50121022000F099F94FF42070FFF7BC
:1018E000FFFA054B187001F000F901F00CF94FF404
:1018F0008032024B1A6708BD85110020009000500D
:1019000008B54FF4C070FFF753FBBDE80840044929
:10191000884294BF012102214FF42070FFF742BF9B
:1019200080F0FA0238B5044601F0B6F90546FEF734
:10193000B7FFC0F10201284601F0DFF801210020C5
:1019400000F0B8F92CB1FFF7DBFFBDE83840FFF736
:1019500037BC034B4FF420701978FFF723FFF4E7EF
:10196000851100202DE9F0410546FFF735FA431EA9
:101970000333044604D940F6E2113B4801F033F842
:101980004FF4C022394B5A6603F598335A68012A3E
:1019900004D137494A605A689207FCD48020FFF787
:1019A0001FFC052807D101F0A0F801F0ACF84FF4B6
:1019B00080322E4B1A672F4B24F040749D4239D051
:1019C0002D4B9D4239D001F041F98542064603D99D
:1019D0000121284600F06EF9284FFB6813F0060F2E
:1019E000FBD1D7F80880BC60BB68634013F4F81FD4
:1019F00026D12846FEF788FD8020FFF7F1FB052859
:101A000014D101F049F9A842044604D940F63B211B
:101A1000154800F0E8FFFEF743FFC0F10201204641
:101A200001F06BF8FFF76CFFFFF7CAFBAE4213D271
:101A3000BDE8F08144F00074C5E744F08074C2E76B
:101A400040F62A21084800F0CEFF8020C7F8088021
:101A5000FFF7C6FB052805D0BDE8F04101210020B5
:101A600000F028B93546CCE7AB30000800900050B4
:101A700000E0015040420F0080841E000000015031
:101A80004E4B70B59842054673D041D8A3F5B703C5
:101A9000A3F55863984265D033D8494B494E9842D4
:101AA00051D017D8002877D041F2DE11464800F017
:101AB0009AFF40F68671444800F095FF4FF40022EB
:101AC000404B5A663E4B9D4276D000243F4A954299
:101AD00036D05DE03D4B984227D03D4B9842E3D154
:101AE0003C4BD3F8A040621E033224F040744CD922
:101AF00040F68671344800F076FF4FF40023736699
:101B0000E4E7354B9842CFD1324BD3F8BC402CE0C0
:101B1000324B984231D0324B984232D0314B9842BE
:101B2000C2D12C4BD3F8C8401FE02A4BD3F8A040B9
:101B3000621E033224F04074DAD84FF40023736637
:101B400044F0807424E0234BD3F8A040621E03329B
:101B500024F040742AD84FF400237366234643F0E0
:101B6000007415E01B4BD3F8B840621E154E0332CB
:101B7000BBE7184BD3F8C040F7E7164BD3F8CC407F
:101B8000F3E7144BD3F8D040EFE74FF4002373662C
:101B90004FF0B442946070BD40F686710A4800F080
:101BA00022FF4FF400232C467366F1E740F686715E
:101BB000054800F018FFCEE70023D0E7C0EA210176
:101BC00040420F0000900050AB30000880841E009F
:101BD00000093D000080E00F0024F4000048E80107
:101BE000005A620280BA8C01024A536B0342FCD154
:101BF000704700BF00400950034A0179D36E23F0BB
:101C000030030B43D366704700400050F8B50446DC
:101C1000244BD3F88420D006FBD4D3F88430C3F30C
:101C200081139C423CD001F017F8012C05460BD1E2
:101C30001D4B984204D940F29B711C4800F0D3FE22
:101C40000121284600F059FF01F049F94FF00072D8
:101C5000174B07465A66204600F05AFF4FF4806340
:101C6000104E621E93403367736E9A0103D4D6F808
:101C700084309B060AD5384601F02CF9022C0FD18E
:101C80002846BDE8F840002100F037BFD6F8843080
:101C90009906E9D540F2B371044800F0A4FEE3E7E9
:101CA000F8BD00BF00400050005A6202FB3000083F
:101CB0000060005010B50C4608B900F0CDFF074B8E
:101CC00021461B783BB1064B984204D80120BDE861
:101CD0001040FFF79BBF0220F9E700BF86110020EC
:101CE000005A62024FF0004238B5244B244C5A6629
:101CF0004AF6CD33656C014605F00105236428BB27
:101D00000120FFF771FF6368DB0715D51D4B586095
:101D100008461D4B226BD2070CD4984208D10724E9
:101D200015B1174B194A1A6400F0F3FE204638BD6E
:101D30000130EFE79842F2D00024F1E70132236B43
:101D400013F0080305D08A42F8D1E8E700220E49D3
:101D5000F5E78A42E3D020210A4A91620121A2F5E7
:101D6000805251600649084A886A800603D493422B
:101D7000D5D00133F8E79342DDE700BF0090005073
:101D8000004009500060095040420F003254FFFFEC
:101D90004FF0004238B5164B01465A664AF6CD332D
:101DA000144C154A656C236443780B205B0043F0A8
:101DB0000103D363FFF718FF63688A7823F4F8738D
:101DC00043EA02136360CA784B7943EA0223A360B3
:101DD0000A798B7943EA022323610878FFF782FFAF
:101DE000EB0744BF054B236400F093FE012038BD90
:101DF0000090005000400950004000503254FFFF56
:101E00000F2870B5044605D940F67461124800F0F9
:101E1000EAFD0F244FF00042104B11495D6E03F5AF
:101E200080535A664AF6CD334E6C80200B64FFF720
:101E3000DBFE0B6A23F00F0323430B62F30744BF5F
:101E4000084B0B64002DA2BF4FF00042064B5A66B0
:101E500000F05FFE70BD00BFFB3000080080005046
:101E6000004009503254FFFF00A0005010B500F0B0
:101E700055FE042300F5805100F500520B611361FB
:101E80000B6113610B6113610B611361202341F23C
:101E9000020103610023C360836041614FF4A0210C
:101EA0008361836541620549C36103628362C362E2
:101EB00043630365D164036310BD00BFFF3F0D039F
:101EC00038B5174B044698420D4607D0154B98423B
:101ED00004D040F26911144800F085FD25B9204670
:101EE000BDE8384000F01ABE012204F580535A6064
:101EF00040F6FF71204605F00F0200F00BFEA263D2
:101F0000782100F007FE05F001036A0748BF43F09F
:101F10000203A26C02F003029A42FAD138BD00BF5C
:101F20000000015B00000A504B310008F8B505467F
:101F30000C46164622B940F227216B4800F053FDAB
:101F40006A4B9D4202D19CB956240DE0684B9D42DC
:101F500047D040F22A21644800F045FD44B940F2E0
:101F60007931614800F03FFD2046FFF721F8044633
:101F7000AB68D80745D5B44204D24FF40D715A4826
:101F800000F031FDB4FBF6F46F68013CFF2C07F064
:101F9000010704D94FF40F71534800F024FD2406C3
:101FA0004FB32821284600F0B5FDAB6C99071CD132
:101FB000AB6CDA071BD4AE6C16F0020619D140F2F6
:101FC0004921494800F00FFD284600F0A7FD2B6984
:101FD000314623F07F4323432B61BDE8F840FFF7F0
:101FE0006FBF002CC4D15724BEE70526ECE70926B5
:101FF000EAE70626E8E72B6923F07F4323432B61BA
:10200000F8BD6B68012B04D04FF41771364800F00F
:10201000EAFCAB6DDB07AB6848BF760003F0E0037A
:10202000402B42D009D893B1202B1AD040F29E21E8
:10203000BDE8F8402C4800F0D6BC602B42D0802B85
:10204000F4D106EB4603A34247D801230DE0B6EBDB
:10205000141F04D94FF42171234800F0C4FC10234D
:1020600003E0B6EBD40F1AD8082373436401B4FB22
:10207000F3F4204F203CB7EBC40F4FEAC40604D260
:1020800040F2A921184800F0AEFC28463E4001214C
:1020900000F040FD2E63BDE8F84000F03BBD40F28B
:1020A0008921114800F09FFCDEE70623B4FBF3F31F
:1020B000B34201D30623D8E740F28E210A4800F04C
:1020C00092FCF7E7B6EB940F01D80423CDE740F27A
:1020D0009321054800F087FCF7E74FF4267102488A
:1020E00000F081FCB1E700BF4B3100080000015B4C
:1020F00000000A50F8FF7F00F8B5774B044698427D
:102100000E4606D0754B984203D0E221744800F089
:102110006AFC1EB9E421724800F065FC727BB3686A
:102120007AB1704A934203D9E6216D4800F05BFC16
:102130003369C3B1DB7BB3B1E921694800F053FCDB
:1021400011E0694A934203D9EC21654800F04BFC49
:10215000336943B11A7F32B1B168644A5B7F9142FF
:1021600078D9042B78D86368356923B140F6FF71BC
:10217000204600F0CFFC2046FFF778FE2269737BF3
:10218000B17B22F087020B43134343F080032361AA
:10219000002D63D02369297F23F0F80343EAC1139C
:1021A0002978EA7B0B43297943EA4113697A43EAA8
:1021B000011343EA82132361E068D5E9053720F073
:1021C000F0403B4320F470200343287B697B43EAC3
:1021D000802343EAC133E360A368F07B23F0030369
:1021E000034343F00103A3606B88A06803F4C0437A
:1021F0000343A360A368687943EA8023A360AB79B3
:10220000EF79606A1B013F0203F0700307F4E06797
:1022100020F4772020F4EE603B430343287A000348
:1022200000F4E0400343687F000400F4702003439F
:1022300063626369307B23F00F03034363616B893F
:10224000A36141BBC2B1244B9C422ED0234B9C4284
:102250003CD011E0042B86D8F3216EE7A368F27B13
:1022600023F00303134343F00103A3606369327B4C
:1022700023F00F03134363612046D6E90112FFF7F1
:1022800055FE20463178FFF71BFEA36CDB4313F4A9
:10229000405FFAD1F8BD104B9C420CD1AB7B144986
:1022A00003F00F034B67002AE6D02B7C104A03F0A3
:1022B0000F031367E0E7094B9C42DDD1AB7B0C4970
:1022C00003F00F03C1F88030002AD5D02B7C084AD8
:1022D00003F00F03D367CFE70000015B00000A5053
:1022E0004B310008002D3101809698003F4B4C0087
:1022F000009003504FF48032064B5A6603F5E623F4
:102300009B69C3F38512827003F03F021B0B42707E
:10231000037070470090005010B5044620B940F299
:102320003A21104800F05FFB2378C3B1012B03D0A2
:10233000022B14D0032B04D13F236278D340DB0758
:1023400004D440F23D21074800F04DFB01226378A0
:1023500021789A4030235943034B5A5010BD40F224
:10236000FF33EAE79E31000840E0035010B5044611
:1023700020B940F26E21124800F035FB2378E3B11A
:10238000012B03D0022B18D0032B04D13F236278FA
:10239000D340DB0704D440F27121094800F023FB4D
:1023A00030222378534303F1A04303F57033186CB4
:1023B0006378D84000F0010010BD40F2FF33E6E73B
:1023C0009E310008034BD3F82424D3F82004104096
:1023D000704700BF00C003502DE9F0410378044668
:1023E0000D46164613B3012B03D0022B1ED0032B30
:1023F00004D13F236278D340DB0703D45D21274813
:1024000000F0F1FA264BD3F810331BB160212348BA
:1024100000F0E9FA0F2D0CD8DFE805F03732323240
:1024200032323232323232323232323240F2FF33F0
:10243000E0E7B421194800F0D6FA4FF00008204632
:1024400006B300F0C9FC0F2167782378072F03EB50
:10245000430388BF083F4FEA0313124895BFBF00EC
:10246000BF0004330C3308FA07F2B940184400F0F7
:1024700079FB85B9204656B1BDE8F04100F0ACBC0F
:10248000A846DCE7FFF748FFDDE7A846DBE7BDE845
:10249000F041FFF741BFBDE8F08100BFF83100080F
:1024A00000C0035030C0035030B58D488BB000F0F1
:1024B00030FD20B14FF44E718A4800F094FA6C461A
:1024C000894D0FCD0FC42B68884A2360FF238DF8F8
:1024D0000130D2F84C3113F4802340F0F580D2F86B
:1024E00050218DF801309DF801306C46FF2B08BF5C
:1024F0002C2368467E4D8DF80130FFF7A5F8322079
:10250000FFF704F90FCD0FC40FCD0FC495E80300FA
:1025100084E80300754BD3F84C21120340F1B880D6
:10252000A3F5FE431C88B4F5807F28BF5F248DF897
:102530001940FFF783F8044484F308046D488DF8CC
:102540001840FDF7E7FF6846FEF766FF3220FFF709
:10255000E3F86948FFF706FA6848FFF791FA684818
:1025600000F0D7FC20B140F2CB115E4800F03BFAFE
:10257000644C0020FFF7D6F8FFF7AAF9236F00207C
:1025800023F0070343F003032367FFF7CBF9236F1F
:102590005D4923F4744323675C4BD3F8FC2012F0AD
:1025A000807279D1D4F8803023F0030343F0010323
:1025B000C4F88030C1F88020524CD4F8203123F088
:1025C000070343F00203C4F82031D4F8283123F084
:1025D000070343F00203C4F82831D4F8803123F014
:1025E000030343F00103C4F88031D4F8403123F0F1
:1025F000030343F00203C4F84031D4F8603123F000
:10260000030343F00203C4F86031D4F8403223F0EE
:10261000030343F00203C4F84032D4F8003223F03D
:10262000070343F00203C4F80032D4F8083223F061
:10263000070343F00203C4F80832D4F8703223F0E1
:10264000030343F00103C4F87032D4F8203223F0BE
:10265000070343F00103C4F82032FEF7C5FE4FF034
:10266000E0220020136943F004031361D4F86032C0
:1026700023F0070343F00103C4F86032D4F8943226
:1026800023F0070343F00103C4F894320BB030BDCC
:10269000D3F85041E4B24AE7D3F8FC2022F080722C
:1026A000C3F8FC20D4F8802022F0030242F001029B
:1026B000C4F880200022C1F88020D3F8FC2042F02A
:1026C0008072C3F8FC2077E74FF07E6393F89C207C
:1026D00093F99C30002BFFF606AF8DF8012002E73E
:1026E000D0330008133300088C3300080080E00F5B
:1026F000A0330008C017530200B4C404C0EA21018B
:10270000D4330008008000500090005000ED00E03D
:1027100007B5094B18689A889B7900906846ADF810
:1027200004208DF80630FFF733FB0920FFF768FB24
:10273000002003B05DF804FBC833000813B5002483
:10274000064A6846536F43F00103536700948DF8BF
:102750000440FFF751FA204602B010BD004000507F
:102760004C2810B5044608D801236109074A04F033
:102770001F04A34042F8213010BD4FF49871044863
:1027800000F031F9002CF7DBEEE700BF00E100E0DC
:10279000E03300084B2810B5044604D940F23B1141
:1027A000064800F020F9064B621153F8220004F0AD
:1027B0001F04E040C04300F0010010BDE0330008FA
:1027C00000E100E0002808DB01224309034900F092
:1027D0001F008240603341F82320704700E100E091
:1027E00038B500F110035C2B04460D4604D94FF4B4
:1027F000EF710E4800F0F7F80F2D04D940F2DF1109
:102800000A4800F0F0F860B20028ACBF00F1604068
:10281000074B4FEA0515EDB2ABBF00F5614000F084
:102820000F0080F800531D5438BD00BFE03300088E
:1028300014ED00E010B500F05BFB0A4B1A786AB9A2
:1028400001226FF004041A7000F04DFB20460521B0
:102850000134FFF7C5FF4C2CF8D110BDBDE8104086
:1028600000F041BB8711002007B501A8FFF742FD2A
:102870009DF80530012B14D19DF804308BB94FF42D
:102880008012124B1249586E03F580535A664B6BF7
:1028900023F0E05343F040634B63C3025CBF0D4B36
:1028A0005A6600F074F9FFF7C5FFFFF731FF00F03B
:1028B0006CF9FFF743FF00F06BF900F078F900F0D6
:1028C0009FF903B05DF804EB00F063B9008000509D
:1028D0000040005A00A0005010B5044600F0DCF99A
:1028E0004FF47A729042B0FBF2F105D23621BDE886
:1028F00010400C4800F077B80B4BB3FBF1F30B49D9
:10290000884201D93C21F2E702FB04F0B0FBF3F06E
:10291000022806D9BDE810400323B0FBF3F0FDF711
:1029200027BC10BD5A34000840420F00E7CD9A3B47
:10293000014800F07FB800BFB8340008014800F03B
:102940007CB800BFB834000808B5064B044613B184
:102950000021AFF30080044B1B6803B19847204669
:1029600000F042F8000000008011002070B50D4D0D
:1029700000260D4C641BA410A64209D10B4D002665
:102980000B4C00F03DFB641BA410A64205D170BDAA
:1029900055F8043B01369847EEE755F8043B0136FD
:1029A0009847F2E7A0110020A0110020A0110020FC
:1029B000A41100200F20704707B504210123002235
:1029C0000DEB0100ADF80430FDF764FE002003B00C
:1029D0005DF804FB08B5082000F015F8BDE80840D4
:1029E000082000F01BB8FEE7FEE7FEE700239A424E
:1029F00000D1704710B550F8234041F8234001330F
:102A00009A42F8D110BD4FF060420123D2F8001E67
:102A100083400B430020C2F8003E70474FF06041F6
:102A20000122D1F8003E824023EA02030020C1F8CF
:102A3000003E7047D0E900031847836800681847D4
:102A400007B503788DF8043043788DF80530837826
:102A500001A823B9FDF78AFE03B05DF804FBFDF77A
:102A600059FEF9E707B503788DF8043043788DF8FF
:102A70000530837801A823B9FDF74CFE03B05DF85B
:102A800004FBFDF773FEF9E707B503788DF8043012
:102A9000437801A88DF8053000F070F903B05DF8B7
:102AA00004FB13B5044603780DF103018DF80430DF
:102AB000437801A88DF80530FDF786FEA3789DF8D0
:102AC00003000BB980F0010002B010BD70B50546DF
:102AD00014460E4600F003FA2B685C4034405C401C
:102AE0002C60BDE8704000F0F5B908B500F0E6F8DC
:102AF000BDE808400021FEF72FBA0029CCBF012114
:102B00000021FEF729BA02214FF42070FEF74ABED9
:102B100070477047436D0B42FCD1704708B543685E
:102B2000DA0714D58368DB0702D50369D90707D50F
:102B30000A2350218363FFF7EDFF836C9A07FCD1D2
:102B4000012200F500535A6043689B07FCD408BD7E
:102B5000836C5A06FCD54164836C1B06FCD5C06BA4
:102B600080B2704770B5054614460E4600F0B7F9BE
:102B70002B685C4034405C402C60BDE8704000F045
:102B8000A9B900F000B800207047FFF78DBC70476E
:102B9000704708B500F02BF800F033F800F03CF86F
:102BA00000F03CF8BDE8084000F039B8704708B5BF
:102BB00000F019F800F018F800F017F800F016F817
:102BC000FFF7F4FF08BD08B500F02AF800F029F877
:102BD00000F028F8BDE8084000F025B87047FFF77E
:102BE000ADBEFFF7E9BE704770477047704708B544
:102BF000FDF754FBFFF7C5FFBDE80840FDF742BBFA
:102C0000704708B5FDF796FCFDF728FDFFF790FE2D
:102C1000BDE80840FFF7DEBEFFF7CCBE7047704747
:102C2000704770477047704708B5FFF71DFEFFF704
:102C3000D5FFFFF7C8FFFFF7D2FFFAE702440346CC
:102C4000934200D1704703F8011BF9E7014B186864
:102C5000704700BF8C1100200A4B1B6F03F0070365
:102C6000013B032B03D8DFE803F00A030608FEE765
:102C7000054B18687047054BFBE70548704705484A
:102C8000704700BF008000508C110020941100207C
:102C900080D54302002D310108B5FFF7DDFF054B5C
:102CA0001B6FC3F303330133B0FBF3F0024B186027
:102CB00008BD00BF00800050881100200048704708
:102CC00000B4C40400487047002D3101014B18685E
:102CD000704700BF941100200048704780D5430220
:102CE0004FF40022184B5A664FF0B4439868C0F373
:102CF00004400C280AD8DFE800F00B09090909098B
:102D0000072119091B1D1F0010487047002070473C
:102D10009B6803F04073B3F1807F11D0B3F1007F63
:102D200010D00B4A002B08BF104670470948704767
:102D30000948704709487047094870470948704773
:102D4000094870470948704700900050405DC60030
:102D500000093D00C0EA210180BA8C010048E80169
:102D6000005A62020024F40080841E0040420F00DA
:102D7000014B1868704700BF9011002038B5044619
:102D800030B914484FF48A71FFF72DFE222038BD68
:102D900003788BB1012B03D0022B0DD0032B04D170
:102DA0003F236278D340DB0709D40A484FF48C7183
:102DB000FFF719FE2120EAE740F2FF33F1E700F0C8
:102DC00097F80546204600F031F8284600F08BF8C9
:102DD0000020DCE75430000810B5044620B94FF459
:102DE000D8711048FFF7FFFD2378C3B1012B03D042
:102DF000022B14D0032B04D13F236278D340DB078E
:102E000004D440F2B3110748FFF7EDFD01226378C7
:102E100021789A4030235943034B5A5010BD40F259
:102E2000FF33EAE79E31000840D0035010B5044656
:102E300020B940F29D211048FFF7D5FD2378C3B19A
:102E4000012B03D0022B14D0032B04D13F23627833
:102E5000D340DB0704D44FF428710748FFF7C3FDC4
:102E60000122637821789A4030235943034B5A500A
:102E700010BD40F2FF33EAE79E31000840F00350F6
:102E800070B50D46E8B1036813F4E07F03F03F0628
:102E9000C3F3821210D0012A13D10B4C9B0603D529
:102EA00091210A48FFF79FFD45B104F580540123A5
:102EB0000020B340236070BD054CEFE704F50054DB
:102EC000F5E70E20F7E700BF688000505232000897
:102ED0006480005010B962B6BFF36F8F7047EFF394
:102EE000108072B6704780F31188BFF36F8F704700
:102EF000EFF31180302383F3118870474FF40040C3
:102F000070474FF47A70704709B100F008B822207A
:102F100070470121FFF7B4BF0021FFF7B1BF70B5C3
:102F200006460D46FFF7E4FF0446202E56D8DFE89C
:102F300006F0111A551F222555282B552E553134D0
:102F400055373A3D554055435552555555465549C7
:102F5000554C4F00FFF780FE002628602046FFF703
:102F6000C2FF304670BD4FF4C070FEF721F8F3E7A2
:102F70004FF42070F9E74FF44070F6E74FF46070BB
:102F8000F3E74FF40070F0E74FF48060EDE74FF4A3
:102F90004060EAE74FF4C060E7E74FF4F060E4E731
:102FA0004FF4B060E1E74FF4D060DEE74FF410601B
:102FB000DBE74FF4E060D8E74FF4A060D5E74FF4CB
:102FC0002860D2E74FF48070CFE74FF42060CCE761
:102FD0004FF44860C9E74FF40860C6E70020212697
:102FE000BBE700000000000000000000000000003F
:102FF00000000000000000000000000000000000D1
:10300000F8B500BFF8BC08BC9E467047F8B500BFD5
:10301000F8BC08BC9E467047050000000000000098
:1030200080969800020100000000000000000000EF
:10303000010000000000000000000000010000008E
:103040000000000000000000010400000201020274
:1030500002030204433A2F55736572732F7375632D
:1030600075742F53696D706C6963697479537475E5
:1030700064696F2F53444B732F73696D706C696370
:103080006974795F73646B2F706C6174666F726DB5
:103090002F6472697665722F6770696F2F73726320
:1030A0002F736C5F6770696F2E6300433A2F5573FF
:1030B0006572732F73756375742F53696D706C69C6
:1030C0006369747953747564696F2F53444B732F1C
:1030D00073696D706C69636974795F73646B2F7069
:1030E0006C6174666F726D2F656D6C69622F73729F
:1030F000632F656D5F636D752E6300433A2F5573C3
:103100006572732F73756375742F53696D706C6975
:103110006369747953747564696F2F53444B732FCB
:1031200073696D706C69636974795F73646B2F7018
:103130006C6174666F726D2F656D6C69622F73724E
:10314000632F656D5F656D752E6300433A2F557370
:103150006572732F73756375742F53696D706C6925
:103160006369747953747564696F2F53444B732F7B
:1031700073696D706C69636974795F73646B2F70C8
:103180006C6174666F726D2F656D6C69622F7372FE
:10319000632F656D5F6575736172742E6300433ACA
:1031A0002F55736572732F73756375742F53696D23
:1031B000706C696369747953747564696F2F5344D3
:1031C0004B732F73696D706C69636974795F736495
:1031D0006B2F706C6174666F726D2F7065726970A1
:1031E000686572616C2F696E632F736C5F68616CC8
:1031F0005F6770696F2E6800433A2F55736572736D
:103200002F73756375742F53696D706C696369747E
:103210007953747564696F2F53444B732F73696DC1
:10322000706C69636974795F73646B2F706C61741F
:10323000666F726D2F7065726970686572616C2F50
:103240007372632F736C5F68616C5F6770696F2E58
:103250006300433A2F55736572732F7375637574EA
:103260002F53696D706C69636974795374756469FF
:103270006F2F53444B732F73696D706C696369745E
:10328000795F73646B2F706C6174666F726D2F65FC
:103290006D6C69622F696E632F656D5F6275732E49
:1032A0006800433A2F55736572732F737563757495
:1032B0002F53696D706C69636974795374756469AF
:1032C0006F2F53444B732F73696D706C696369740E
:1032D000795F73646B2F706C6174666F726D2F739E
:1032E0006572766963652F636C6F636B5F6D616E8A
:1032F000616765722F7372632F736C5F636C6F63AA
:103300006B5F6D616E616765725F68616C5F733280
:103310002E6300433A2F55736572732F737563756F
:10332000742F53696D706C69636974795374756433
:10333000696F2F53444B732F73696D706C696369A8
:1033400074795F73646B2F706C6174666F726D2F2C
:10335000736572766963652F636C6F636B5F6D6114
:103360006E616765722F7372632F736C5F636C6F2E
:10337000636B5F6D616E616765725F696E69745FD3
:1033800068616C5F73322E6300000000012600004C
:103390000400000000000000000100000000000028
:1033A0000B0000000C0000000300000000002020C3
:1033B00000000000020000003C3C3C000000000057
:1033C00000000000000000000103100101090300DB
:1033D0001E000000160000001A0000005700000048
:1033E000433A2F55736572732F73756375742F533A
:1033F000696D706C696369747953747564696F2F52
:1034000053444B732F73696D706C69636974795F92
:1034100073646B2F706C6174666F726D2F7365725D
:10342000766963652F696E746572727570745F6D0D
:10343000616E616765722F7372632F736C5F696E63
:10344000746572727570745F6D616E616765725FCD
:10345000636F727465786D2E6300433A2F55736500
:1034600072732F73756375742F53696D706C696314
:1034700069747953747564696F2F53444B732F7358
:10348000696D706C69636974795F73646B2F706CBC
:103490006174666F726D2F736572766963652F75DF
:1034A00064656C61792F7372632F736C5F756465EB
:1034B0006C61792E630000009D1100206D080008EA
:1034C000412A0008652A0008892A0008A32A000862
:0834D00038CDFF7F0100000070
:0C34D800E4340008881100200800000007
:1034E400C0EA2101C0EA210100800000C017530294
:1034F400FFFFFFFF28010201E5010008BD010008EC
:0400000508000439B2
:00000001FF
